:1000000000800020BD010000E99A0000A59A0000D0
:10001000A59A0000A59A0000A59A0000A59A0000E4
:10002000A59A0000A59A0000A59A0000E99A000090
:10003000E99A0000A59A0000B18F0000B58F00007A
:10004000E99A0000E99A0000E99A0000E99A0000A4
:10005000E99A0000E99A0000E99A0000E99A000094
:10006000E99A0000E99A0000E99A0000E99A000084
:10007000E99A0000E99A0000E99A0000E99A000074
:10008000E99A0000E99A0000E99A0000E99A000064
:1000900091720000E99A0000E99A0000E99A0000D4
:1000A000E99A0000E99A0000E99A0000E99A000044
:1000B000E99A0000518500005D850000618500001F
:1000C0006D8500007185000075850000E99A0000CB
:1000D000E99A0000E99A0000E99A0000E99A000014
:1000E000E99A0000E99A0000E99A0000E99A000004
:1000F000E99A0000E99A0000E99A00000DAA0000C0
:10010000E99A000035B10000E99A0000E99A000080
:10011000E99A0000E99A0000E99A0000E99A0000D3
:10012000E99A0000E99A0000E99A0000E99A0000C3
:10013000E99A0000E99A0000E99A0000E99A0000B3
:10014000E99A0000E99A0000E99A0000E99A0000A3
:10015000E99A0000E99A0000E99A0000E99A000093
:10016000E99A000035B40000E99A0000E99A00001D
:10017000E99A0000E99A0000E99A0000E99A000073
:10018000E99A0000E99A0000E99A0000E99A000063
:10019000E99A0000E99A0000E99A0000E99A000053
:1001A000E99A0000E99A0000E99A0000E99A000043
:1001B000E99A0000E99A0000E99A0000574B4CF2D6
:1001C000205210B5DA814DF62812DA8100BF00BF47
:1001D00009F08EFC524B4FF010621A63514A9A6339
:1001E000514ADA63514A136913F4807303D153619E
:1001F0004FF4A85313614E4B9A78110703D59A78A0
:1002000042F008029A704B4B4B482A221A704B4B13
:10021000DA1C121AC11E22F00302994288BF002282
:10022000474909F06BFB474B4748DA1C121AC11EBD
:1002300022F00302994288BF002200210DF024FD24
:10024000424943484FF4DE7209F058FB414B424AA1
:10025000802103F8011B9342FBD14FF0E0233C4A7D
:10026000C3F8082D3D4B8A221A70A3F5805324222F
:100270005A70A0221A709A799207FCD59A79D406FE
:10028000FCD4374B9A7902F00C02082AFAD10322E7
:100290001A7140225A719A799006FCD5304A9379A6
:1002A0005906FCD51E4B2F4959640221996420211F
:1002B0001170917901F00C010C29FAD12A4A5A6087
:1002C0004FF0E023294A5A6100229A6107221A61FD
:1002D000274AC3F8202D62B609F034FD134B5B6941
:1002E000DA0705D5234809F021FD234B234ADA61BB
:1002F000234B1B785B0609D51F4C204BE2699A42C1
:1003000004D11C4809F012FD0023E36109F0F6FB5B
:100310000DF0B0FD09F0EAFAFEE700BF002005404D
:1003200000800440823F04000100002B00D0034005
:1003300000D0074000E007402087FF1F7091FF1F9B
:10034000AC57010034D6FF1F7091FF1F0000000062
:100350000082FF1F00E400E05FE400E00050064080
:100360000040064000000301C0100500FF760100B8
:100370000000202046665D6400E00340A5C3945A57
:1003800000F00740FFFFFFFFFFFFFFFFFFFFFFFF42
:10039000FFFFFFFFFFFFFFFFFFFFFFFFFFFFFFFF6D
:1003A000FFFFFFFFFFFFFFFFFFFFFFFFFFFFFFFF5D
:1003B000FFFFFFFFFFFFFFFFFFFFFFFFFFFFFFFF4D
:1003C000FFFFFFFFFFFFFFFFFFFFFFFFFFFFFFFF3D
:1003D000FFFFFFFFFFFFFFFFFFFFFFFFFFFFFFFF2D
:1003E000FFFFFFFFFFFFFFFFFFFFFFFFFFFFFFFF1D
:1003F000FFFFFFFFFFFFFFFFFFFFFFFFFFFFFFFF0D
:10040000FFFFFFFFFFFFFFFFFFFFFFFFDEF9FFFF23
:100410000548064B1B1AD90F01EBA301491002D066
:10042000034B03B1184770477091FF1F7091FF1F76
:100430000000000008B5054B1BB105490548AFF3A6
:100440000080BDE80840FFF7E3BF00BF00000000E8
:100450007091FF1FAC57010010B5302200210446F7
:100460000DF012FC164904F12C0304F15C0243F870
:10047000041F9A42FBD13022002104F160000DF0EC
:1004800003FC002200230F490F4884F8D020C4F851
:10049000A800C4F89030C4F89430C4F89830C4F878
:1004A0009C30C4F8A030C4F8A410C4F8AC10C4F850
:1004B000B030A4F8B820C4F8DC20204610BD00BF3E
:1004C0000000A040000048430000C8C210B5302220
:1004D000044600210DF0D8FB0022002384F8D02030
:1004E000C4F89030C4F89430C4F89830C4F89C3004
:1004F000C4F8A030C4F8E020A4F8B82010BD00BFB4
:100500002DE9F843DFF840900746CE1D00F1940531
:1005100000F1A40816F8010F28380CF0DFFA49465C
:1005200045F8040B04460CF0E9FC40B1B7F9E400CF
:100530000CF0D4FA21460CF01DFA45F8040C4545A0
:10054000E8D1BDE8F88300BF000020C22DE9F041EA
:10055000804684B01446042918D8DFE801F003640B
:1005600090B93C00617A237AA27A03EB012303EB72
:100570000243E27A03EB0263C0F8DC30637B227B48
:100580001B0203F470631344C0F8D8306E4FA8F117
:10059000040408F12C06606B54F8045F29460CF043
:1005A000ADFC034628462BB1D8F8B4100CF09CFCE7
:1005B00000B12563216E28460CF0A0FC03463946A5
:1005C00028461BB10CF09AFC00B12566B442E2D17A
:1005D00004B0BDE8F081637A3F2B09D8207A00EBA4
:1005E00003200CF07BFA59490CF080FBC8F824007A
:1005F000E37A3F2B09D8A07A00EB03200CF06EFAC7
:1006000052490CF073FBC8F82800637B3F2BBDD820
:10061000207B00EB03200CF061FA4C490CF066FBE8
:10062000C8F82C00B2E7627A03933F2A0CD8207AEC
:1006300000EB02200CF052FA44490CF057FB039BEC
:10064000C8F80000012B6CD0E37A3F2B09D8A07AC0
:1006500000EB03200CF042FA3C490CF047FBC8F8D1
:100660000400637B3F2B91D8207B00EB03200CF030
:1006700035FA36490CF03AFBC8F8080086E7637A89
:100680003F2B09D8207A00EB03200CF027FA2F49E2
:100690000CF02CFBC8F80C00E37A3F2B09D8A07AA9
:1006A00000EB03200CF01AFA28490CF01FFBC8F8E5
:1006B0001000637B3F2B3FF669AF207B00EB0320EC
:1006C0000CF00CFA21490CF011FBC8F814005DE79E
:1006D000637A3F2B09D8207A00EB03200CF0FEF957
:1006E0001A490CF003FBC8F81800E37A3F2B09D82D
:1006F000A07A00EB03200CF0F1F914490CF0F6FAA3
:10070000C8F81C00637B3F2B3FF640AF207B00EB1B
:1007100003200CF0E3F90D490CF0E8FAC8F82000CA
:1007200034E70B4808F008FED8F800000CF006F893
:100730000B46022102460091054808F021FE0448BC
:1007400008F0FAFD80E700BF0000A04000007A44F6
:10075000048AFF1F90F8C000704700BF90F8BC00EB
:10076000704700BF90F8C400704700BF90F8C80001
:10077000704700BF0C2994BF50F82100002070473B
:100780002DE9F0410C4E8046051F00F12C0755F86D
:10079000044F314620460CF093FB034620462BB114
:1007A000D8F8B4100CF0AAFB00B12646BD42EED139
:1007B0003046BDE8F08100BF000020412DE9F8433C
:1007C000D0F8B4800F4F4FF00009051F00F12C0640
:1007D00055F8044F414620460CF090FB034639463D
:1007E00020464BB10CF06CFB0346494620461BB13A
:1007F0000CF084FB00B1A146B542E9D14846BDE802
:10080000F88300BF0000A0402DE9F84FD0F8B49065
:10081000144F83460026051F00F12C084FF0000AF4
:1008200055F8044F494620460CF068FB034639460C
:1008300020464BB10CF044FB30B1304621460CF061
:1008400099F80AF1010A06464545E9D1CBF8D4A04A
:1008500050460CF043F9014630460CF047FABDE82B
:10086000F88F00BF0000A040D0F8D400704700BF50
:10087000D0F8D800704700BF38B5D0F89850D0F8FD
:100880009440294620460CF01BFB00B92C4620461C
:1008900038BD00BF38B5D0F89850D0F894402946FC
:1008A00020460CF02BFB00B92C46204638BD00BF7B
:1008B00070B5D0F894601249054630460CF01EFB26
:1008C000D0B1304600210CF055F801240646D5F889
:1008D00098500B4928460CF011FB28B130462946A8
:1008E0000CF048F80134064620460CF0F7F80146B3
:1008F00030460CF0FBF970BD04460026E7E700BF68
:10090000000020C22DE9F0470026D0F8B490104F27
:10091000C0F890608246051F00F12C0855F8044F7E
:10092000494620460CF0EAFA03463946204653B1C0
:100930000CF0C6FA03462146304623B10CF01AF8F3
:100940000646CAF890004545E8D13046BDE8F08734
:100950000000A04003299ABF00EB8100D0F894006A
:10096000002070473E2998BF80F8D010704700BF24
:10097000D0F8DC00704700BF90F8B800704700BFA7
:1009800090F8B900704700BFC0F8CC10704700BFA6
:1009900080F8B810704700BF80F8B910704700BFEA
:1009A000C0F8B410704700BFA0F8E410704700BF53
:1009B00070B500F56555064600F12C040435204657
:1009C000E834FFF749FDAC42F9D106F58A750124F8
:1009D00028460021FFF7DCFF214628460134FFF7B7
:1009E000C1FF3F2C05F1E805F2D10749716106F519
:1009F00040530022B26105480549F061002231628E
:100A0000304683F84C2970BD00007A44000048430A
:100A10000000C8C270B500F5655600F58A7404364A
:100A2000002507E0012520460021E834FFF7B4FF48
:100A3000B4420BD02046FFF79FFF03462046002B11
:100A4000F1D0FFF79DFF0028ECD170BD284670BDA6
:100A500070B500F5925600F58A740C3602E0E83461
:100A6000B4420CD02046FFF787FF05460028F6D099
:100A70002046FFF77DFFC307F1D5284670BD00254E
:100A8000284670BDF8B500F54057002300F56556BF
:100A9000C7F8503900F58A74043602E0E834B442ED
:100AA0000FD02046FFF768FF0028F7D02046D7F880
:100AB0005059FFF7D9FEE8340544B442C7F85059FD
:100AC000EFD1D7F85009F8BD38B500F58A74012583
:100AD00004E001353F2D04F1E80414D02046FFF76F
:100AE0004BFF0028F5D02046FFF7F0FC2046002100
:100AF000FFF74EFF294620460135FFF733FF3F2D14
:100B000004F1E804EAD138BD00F54050D0F84809B6
:100B1000704700BF38B50C68154604F00F0C1A4634
:100B2000E8230CFB03332C3318440CF10104FFF7CA
:100B3000E7FC012D00D038BD064808F0FDFB21463A
:100B4000044808F0F1FBBDE8384003480B210BF0E6
:100B500039B900BF048AFF1FCC3801002DE9F041EC
:100B60000D6805F0F006302E05F00F050F4604461F
:100B7000904605F101053AD01EDD402E39D0502EA9
:100B800008BF042604D1072D02D8B8F1010F1ED0EA
:100B9000E82303FB05442C3420460121FFF7F8FE2F
:100BA00020460121FFF7F8FE43463A4631462046EB
:100BB000BDE8F041FFF7CABC002EE4D0202E08BFEC
:100BC0000126E0D0072DE3D8042EE1DCDDE729463D
:100BD0000A4808F0A9FB414609480BF0F3F83146F2
:100BE000064808F0A1FB054808F0A6FBD0E702265E
:100BF000C9E7072D4FF00306C7D9C9E7048AFF1FCD
:100C0000D83801002DE9F04F0023DFF86491DFF8B8
:100C10006481594F436083B0064600F58A7401250C
:100C200004E001353F2D04F1E80468D02046FFF7C9
:100C3000A3FE0028F5D0484606F022FF294640468C
:100C400006F01EFF2046FFF75DFE0BF077FD024623
:100C50000B46384606F014FF2046FFF791FD82460A
:100C60002046FFF7ABFD834650460BF067FD02467A
:100C7000584692468B460BF061FD5B465246CDE9E5
:100C800000013E4806F0FCFE00212046FFF762FE10
:100C9000012182462046FFF75DFE834650460BF059
:100CA0004DFD0246584692468B460BF047FD524694
:100CB000CDE900015B46324806F0E2FE2046FFF730
:100CC00021FE014670680BF055FE70602046FFF76C
:100CD000D3FDF1690CF0F4F8002833D12046FFF77A
:100CE000D9FD316A0CF00AF900289AD02046FFF7A6
:100CF000D1FD01353F2D306204F1E80496D1B06892
:100D00000BF0ECFE014670680BF0F0FFB16970600B
:100D100004460CF0F3F800B1B461716920460CF0A0
:100D2000CFF800B174610B2009F000FA06F54056C7
:100D300096F84C3958B9B3B1012386F84C3903B051
:100D4000BDE8F08F2046FFF797FDF061C6E72BB9AD
:100D5000002386F84C3903B0BDE8F08F094806F04F
:100D6000A1FE0023F5E7084806F0B0FEE4E700BF67
:100D7000F04C0100DC380100183901002C39010069
:100D800058390100AC3901007439010070B5114BBC
:100D9000C36000F56555064600F58A74043502E027
:100DA000E834AC4213D02046FFF7E6FD0028F7D028
:100DB0002046FFF7E5FCF1680CF082F80028EFD040
:100DC0002046FFF7DDFCE834AC42F060EBD1F06880
:100DD00070BD00BF0000A04070B5002300F5655550
:100DE0000646036100F58A74043502E0E834AC423B
:100DF00013D02046FFF7C0FD0028F7D02046FFF7AC
:100E0000DDFC31690CF07AF80028EFD02046FFF7BE
:100E1000D5FCE834AC423061EBD1306970BD00BF25
:100E20004068704701707047816070472DE9F0415C
:100E300000F565558846174600F58A7404351EB2DC
:100E400002E0E834AC4213D02046FFF795FD0028BD
:100E5000F7D020464146FFF797FD20463946FFF779
:100E60009FFD20463146E834FFF79EFDAC42EBD1B2
:100E7000BDE8F0812DE9F04700F540562D4A2E4B94
:100E80008262002700F565554362DFF8B0A0C6F81E
:100E90004879814600F58A7404354FF0000802E075
:100EA000E834A54215D02046FFF766FD0028F7D0AC
:100EB000D6F8483901332046C6F84839FFF7F8FC20
:100EC00051460CF01BF878B9E834A54207F1010748
:100ED000E9D1D6F84809C01B0BF000FE0146404698
:100EE0000BF004FFBDE8F0872046FFF7E1FC014668
:100EF00040460BF03FFD80462046FFF7CBFCD9F87B
:100F000024100BF0FBFF70B92046FFF7B5FCD9F8B1
:100F100028100BF0D5FF0028C2D02046FFF7ACFC0C
:100F2000C9F82800BCE72046FFF7B4FCC9F8240044
:100F3000EAE700BF00C0794400C079C400008CC259
:100F4000406A7047806A7047F8B500F565560746F5
:100F5000002500F58A74043602E0E834B4420FD06C
:100F60002046FFF709FD0028F7D02046FFF74CFC8C
:100F7000014628460BF0FEFCE834B4420546EFD1AA
:100F800007F54057D7F848090BF0A8FD0146284659
:100F90000BF0ACFEF8BD00BF2DE9F04F95B08046D8
:100FA000C7480F910D9208F5405706F00FFDC44851
:100FB00006F00CFDC24806F009FDD7F848390E933B
:100FC00008F58A74002308F56555C7F850390435CB
:100FD0002646A14602E0E836AE420FD03046FFF783
:100FE000CBFC0028F7D03046D7F85049FFF73CFC3F
:100FF000E8360444AE42C7F85049EFD1D8F80400AF
:101000000BF09CFB4C46CDE91001D7F850B9D8F84D
:1010100008A0002603E009F1E809A94510D04846D8
:10102000FFF7AAFC0028F6D04846FFF7EDFB014683
:1010300030460BF09FFC09F1E809A9450646EED1C0
:10104000D7F848090BF04AFD014630460BF04EFE3A
:101050000BF074FB02460B464046CDE91223D8F84C
:101060000C50D8F81060FFF705FF0BF067FBCDE9D7
:101070000A01294630460BF07BFC92490BF082FDB9
:101080000BF05CFBCDE9080130460BF057FBCDE9D6
:10109000060128460BF052FBDDE91223CDE90223BD
:1010A000DDE91023CDE90401CDE900230E9986483E
:1010B000864D53465A4606F089FC814806F086FC68
:1010C000002301270E9304E001373F2F04F1E804C9
:1010D0007ED02046FFF750FC0028F5D02046FFF7D1
:1010E00039FB2046FFF73AFB2046FFF73BFB204643
:1010F000FFF73CFB082176480AF064FE3946284693
:1011000008F012F9092F40F3D680022171480AF045
:1011100059FE2046FFF7F6FB0BF010FB9DF83C80D4
:10112000CDF800800B460246284608F029F96A48A7
:1011300001210AF047FE0D9B002B4CD00D9B012B8B
:1011400000F08180284608F0F7F8092163480AF08A
:1011500039FE00212046FFF7FDFB0BF0EFFA0226D7
:1011600002460B460096284608F00AF90A215C4818
:101170000AF028FE01212046FFF7ECFB0BF0DEFA17
:10118000009602460B46284608F0FAF80C2155480E
:101190000AF018FE2046FFF7EBFB00231022014661
:1011A000284608F0E1F808214F480AF00BFE2046D7
:1011B000FFF75EFB002301461022284608F0D4F812
:1011C0000137284608F0B8F83F2F04F1E80480D131
:1011D00015B0BDE8F08F1E462346DFF810B1DDF8EC
:1011E00038A0444698461FE0062141480AF0EAFD2F
:1011F0005146284608F098F802213E480AF0E2FDE0
:1012000031464046FFF7B6FA0BF098FA00940246D2
:101210000B46284608F0B4F801362F4801210AF0A1
:10122000D1FD0C2E0AD0CA46BAF1090F0AF1010904
:10123000DADC012158460AF0C5FDD5E70E9B0C33D8
:1012400044460E937EE72346DDF838B0DFF89CA0D5
:101250004446002698461FE0062125480AF0B2FDC4
:101260005946284608F060F8022122480AF0AAFDF3
:1012700031464046FFF77EFA0BF060FA00940246D2
:101280000B46284608F07CF80136134801210AF085
:1012900099FD082E0AD0CB46BBF1090F0BF10109CD
:1012A000DADC012150460AF08DFDD5E70E9B0833AC
:1012B00044460E9346E701210C480AF083FD24E7DB
:1012C000F04C010000007A445C3C0100048AFF1FDE
:1012D000FC3C0100E44B0100083D0100143D01000D
:1012E000203D01002C3D01003C3D0100004D01006E
:1012F0000C3D0100743D01002DE9F04F87B000F571
:101300008A75DFF83092DFF830A203910492984694
:101310002E4601270595934604E001373F2F06F13D
:10132000E80675D03046FFF727FB0028F5D00023EC
:101330000A220399484608F017F8012150460AF09E
:1013400041FD58460BF0FAF90B4600210246009188
:10135000484608F015F8012150460AF033FD414691
:10136000484607F0E1FF012150460AF02BFD3946BF
:10137000484607F0D9FF012150460AF023FD00241A
:10138000022521463046FFF7F5F90BF0D7F9009515
:1013900002460B46484607F0F3FF01340121504650
:1013A0000AF010FD082CECD100213046FFF7D2FAEC
:1013B0000BF0C4F9009502460B46484607F0E0FFE3
:1013C000012150460AF0FEFC01213046FFF7C2FA27
:1013D0000BF0B4F9009502460B46484607F0D0FFE3
:1013E000012150460AF0EEFC02213046FFF7B2FA26
:1013F0000BF0A4F9009502460B46484607F0C0FFE3
:101400000137484607F098FF3F2F06F1E80689D1DB
:10141000059D4A4FDFF8209101264FF0000B04E0B4
:1014200001363F2E05F1E8057AD02846FFF7A4FAE9
:101430000028F5D000230A220399384607F094FFCC
:101440000121484609F092F904980BF077F9CDF89C
:1014500000B002460B46384607F092FF012148468D
:1014600009F084F94146384607F05EFF01214846FD
:1014700009F07CF93146384607F056FF012148460D
:1014800009F074F900244FF0020A21462846FFF7BC
:1014900071F90BF053F9CDF800A002460B4638461F
:1014A00007F06EFF01340121484609F05FF9082C6E
:1014B000EBD100212846FFF74DFA0BF03FF9CDF8AC
:1014C00000A002460B46384607F05AFF0121484665
:1014D00009F04CF901212846FFF73CFA0BF02EF9F0
:1014E000CDF800A002460B46384607F049FF01211F
:1014F000484609F03BF902212846FFF72BFA0BF08A
:101500001DF9CDF800A002460B46384607F038FF1B
:101510000136384607F010FF3F2E05F1E80584D16B
:101520000748052109F022F9044807B0BDE8F04F4B
:1015300007F002BF048AFF1FD8380100C488FF1FCC
:10154000483D010010B5132008F0F0FD012815D02A
:1015500008F036FE0F4A104B12681B88801A64226E
:101560009BB202FB00F0B0FBF3F000EB8000C0EB9D
:1015700000100A4BC00080B2188010BD054C08F066
:101580001FFE2268044B801A80B2188008F018FEF3
:10159000206010BDE4CDFF1FDCCCFF1FC491FF1FF6
:1015A000DDF800C0521AACEB030C1CD0401ABCF1A1
:1015B000000F0CFB00F002EBD27109DB00EB6100C5
:1015C00000FB02F1002990FBF2F0184410DB704799
:1015D000A0EB610000FB02F1002990FBF2F018443F
:1015E000F5DB013070470CEBDC7C03EB6C007047E3
:1015F0000138704738B5044649B108460D460CF02D
:101600007FFC236802465B682946204698472046AF
:10161000BDE8384007F090BE2DE9F0474848494CF6
:10162000DFF82481494F06F0D1F9494B4949DC6084
:1016300000269E63484E494CDE63494E1C61196288
:10164000484C596159641E644FF49671464E9C6132
:101650005966464CD9665E6040F61C41444E9C6219
:101660001967444C5E620A214FF07C564FF4FA7AB7
:1016700040F21125DC6159673F4CDE6441F2040100
:101680003E4EA3F834A040F2012A002201201D8022
:10169000DC6264253A4C99671E653221394EA3F805
:1016A00008A04FF05A094FF00C0A1C6383F8482039
:1016B000C3F8D400D86599665E651D66C3F858A066
:1016C000C3F87C90C3F89010C3F8B010FF21022437
:1016D000C3F8B41040F20111DFF8ACE02B4EDFF894
:1016E000B0C0C3F8B800C3F88020C3F88440C3F882
:1016F000BC40C3F88820C3F8AC20A3F8CC1083F812
:10170000CE20A3F8D02041F288344FF47A7044F60A
:1017100020613C22C3F89880C3F89CE0C3F8A07015
:10172000C3F8C050C3F8C460C3F8C8C0C3F88C4045
:10173000C3F89400C3F8A410A3F8A820BDE8F0876C
:10174000503D01006666864000006842D606D60617
:10175000ECCDFF1FCDCC4C3E0000204200004040AD
:101760000000A0403333834020A10700CDCCCC3D06
:1017700033337340CDCC4C40000082429A9979407B
:10178000000020C10AD7233D00C020448813050073
:101790009A99993E70B5454D454C4648E6680023F8
:1017A0002B70FFF719FB014630460BF089FB08B19F
:1017B00004232B703F48FFF7E9FA21690BF080FB07
:1017C00018B12B7843F010032B703A48FFF7B8FBA1
:1017D000E16A0BF093FB18B12B7843F040032B70B8
:1017E000002334486B70FFF7ADFB216B0BF068FBF7
:1017F00008B101236B700023EB702E48FFF7ECFA61
:1018000006462C48FFF7C2FA014630460BF0B0F806
:10181000616C0BF073FB08B10123EB70264D25487A
:1018200000232B70FFF7D8FAA16A0646E0680BF098
:101830009FF8014630460BF061FB08B104232B7082
:101840001C48FFF7A3FAA16A064620690BF092F83C
:10185000014630460BF034FB18B12B7843F01003EF
:101860002B701448FFF76CFB216C0646E06A0BF006
:101870007FF8014630460BF041FB18B12B7843F05E
:1018800040032B7000236B700A48FFF75BFB216C51
:101890000346206B1C460BF06DF8014620460BF00A
:1018A0000FFB08B101236B7070BD00BFCC91FF1F0F
:1018B000ECCDFF1FE491FF1FDCCEFF1F534B1B68D5
:1018C000002B7CD0F0B5524E30680530B0F57A7FF1
:1018D00083B070DC30600BF001F94E490BF052F927
:1018E00007464D4DD5F8B0000BF0F8F80446D5F892
:1018F000B4000BF0F3F821460BF03AF839460BF040
:1019000041F946490BF0F2F921460BF033F80BF0A0
:10191000FFFA0146062008F067FA022140480AF063
:1019200051FA404807F008FD06213F480AF04AFAFC
:1019300030680BF0D3F837490BF024F90AF0FEFEBB
:10194000022702460B460097364807F019FD0D2185
:1019500036480AF037FAD5F8B0000BF0BFF8044665
:1019600030680BF0BBF82B490BF00CF90346D5F8A7
:10197000B4001D460BF0B2F821460AF0F9FF01460B
:1019800028460BF0FFF825490BF0B0F921460AF084
:10199000F1FF0AF0D3FE009702460B46214807F0FC
:1019A000EFFC39461E480AF00DFA1E4803B0BDE8A8
:1019B000F04007F0C1BC00230027336091E7164BCD
:1019C0001B48D3F8B010D3F8B42003681948521A52
:1019D000002A02FB03F30BDB323380FB0320DA1710
:1019E000C2EB6012002B11440DDB062008F0FCB99D
:1019F000323B80FB0320DA17C2EB6012002B11444C
:101A0000F3DB0131F1E70139EFE700BFE8CCFF1F5D
:101A1000BC91FF1FCDCCCC3DECCDFF1F0000C842D8
:101A2000E44B0100048AFF1F703D0100783D010076
:101A30002888FF1F1F85EB5130B5A748A74C85B0FC
:101A400007F07AFCA44807F077FCA34807F074FC81
:101A5000A3480D210AF0B6F9D4F8AC30012B11D00F
:101A6000A04D9D48297800230A2207F07DFC2B78A1
:101A7000052B4FD8DFE813F099019E01A301A801BF
:101A8000AD01B201092198480AF09CF99748FFF787
:101A90007DF921690BF014FA002840F0D7819348B2
:101AA000FFF79AF9E1680BF029FA002840F0C981A4
:101AB0008E48FFF791F905468C48FFF767F9014614
:101AC00028460AF055FF616C0BF018FA002840F028
:101AD000C7818648FFF7CEF9E16A0BF00FFA0028BC
:101AE00040F0B9818148FFF7C5F9216B0BF0E8F9A7
:101AF000002840F0A1817E4B7C481B68012B00F040
:101B00008B81FFF743F921690BF0F8F9002840F0C9
:101B10006A81744D774802210AF054F9122008F0C6
:101B200005FB012800F03C81112008F0FFFA012894
:101B300000F03181704B1C68012C00F00181022102
:101B40006C486E4C0AF03EF96D4B6348196807F01B
:101B5000EBFB614807F0F0FB04216A480AF032F918
:101B60000B2008F0E3FA002301460A225A4807F046
:101B7000FBFB0C2008F0DAFA002301460A22564843
:101B800007F0F2FB142008F0D1FA002301460A22E4
:101B9000514807F0E9FB152008F0C8FA0A2201466F
:101BA00000234D4807F0E0FB062157480AF00AF9E8
:101BB0002368D8074BBF01210121544854480AF03B
:101BC00001F9236899074BBF012101214F48504873
:101BD0000AF0F8F823685A074BBF012101214B484E
:101BE0004B480AF0EFF823681B074BBF0121012186
:101BF000464847480AF0E6F8042146480AF0E2F869
:101C0000112008F093FA002301460A22324807F017
:101C1000ABFB102008F08AFA002301460A222E4866
:101C200007F0A2FB122008F081FA002301460A22E5
:101C3000294807F099FB132008F078FA0A22014698
:101C40000023254807F090FB182133480AF0BAF822
:101C5000324B18680AF042FF31490AF093FF0AF04C
:101C60006DFD002402460B461B48009407F088FBDC
:101C70001D212C480AF0A6F82B4B18680AF02EFFFD
:101C800027490AF07FFF0AF059FD00940B460246EF
:101C9000114807F075FB254802210AF093F82B78CC
:101CA000032B02D0224B1B78A3B1142121480AF048
:101CB00089F8214B188880B20AF010FF1F490AF0FA
:101CC00061FF0AF03BFD0B460021024600910248ED
:101CD00007F056FB05B030BD048AFF1FECCDFF1F97
:101CE000883D010038CBFF1F983D0100E491FF1FA4
:101CF000C4CEFF1FE44B0100D491FF1FC0CBFF1FD8
:101D000040CBFF1FA03E0100A83E0100B03E0100F5
:101D1000B43E0100B83E0100C03E010044CBFF1FAD
:101D2000CDCCCC3DDC3E0100D8CCFF1FFC3E0100F9
:101D30008C91FF1F003F0100C491FF1F6F12833A77
:101D400011214D480AF03EF821464C480AF03AF875
:101D50004B4A4C4B126803921868039BC01A0AF056
:101D6000B9FE49490AF00EFF0AF0E8FC0B460021D3
:101D700002460091454807F003FB21463F480AF020
:101D800021F8434B4148196807F0CEFA21463B48F9
:101D90000AF018F8D3E60A213E480AF013F8C9E61B
:101DA0000E213D480AF00EF8BEE606213B480AF037
:101DB00009F8AFE607213A480AF004F8AAE6072135
:101DC000384809F0FFFFA5E60821374809F0FAFF77
:101DD000A0E60B21354809F0F5FF9BE607213448C2
:101DE00009F0F0FF96E63348334DFEF7F5FFE16862
:101DF0000BF066F800283FF48DAE2B78052B0BBF57
:101E00000A2109212D482E4809F0DCFF2D4B1F48DF
:101E1000196807F089FA7DE6FEF7B8FF616A0BF0F2
:101E20006DF810B316212848234D09F0CBFF234845
:101E30000A2109F0C7FF6DE60D21244809F0C2FF11
:101E400059E60E21224809F0BDFF31E60F21214855
:101E500009F0B8FF23E60C211F4809F0B3FF41E663
:101E600011211E4809F0AEFF33E61D48124D08212E
:101E700009F0A8FF4EE600BF883E01009C3E01002D
:101E8000E8D0FF1FDC91FF1F6F12833A048AFF1F07
:101E9000E091FF1F7C3E01006C3E0100343E0100DA
:101EA0003C3E0100503E0100583E0100443E01000E
:101EB000643E0100E491FF1F38CBFF1F103E01007C
:101EC000283E01009C91FF1FF83D0100E83D010004
:101ED000B43D0100A43D0100D83D0100C43D010016
:101EE0001C3E01002DE9F0479A4CD4F88430012BB8
:101EF0008CB04CD0032B984F60D0984D984ED4F8AE
:101F000080309848012B09BF3168316801F10041E8
:101F1000316006F0B5FF2B68002B40F00D81914831
:101F200006F082FFD4F884303860012B054600F0BB
:101F3000C8808D490AF0E2FF30B98C4928460AF082
:101F4000BFFF002800F0B581894F8A4C3B680A9397
:101F50000A982368DFF82082C01A0AF0BBFD2946E0
:101F60000AF010FE85490AF0C1FE84490AF0BEFE5F
:101F7000D8F800100AF0FEFC3B680993099BC8F8EA
:101F800000002360002333600CB0BDE8F087724F7F
:101F9000D4F8A4603D6830460AF0A0FD29460AF056
:101FA000ADFF002800F0FA8070420AF097FD01466C
:101FB00028460AF0A3FF002800F0F080DFF8C08177
:101FC000704DD8F80000012300220F212B6006F08D
:101FD00007FB2B68614D012B2B6800F0F080002B74
:101FE00040F07F81D8F80030DFF89C91D3F884006E
:101FF000436B1E69B6B2C9F8006006F047FBB4F83F
:10200000A22040F6E44306FB03F3B3FBF0F0801A92
:1020100000B20AF063FD5D490646D4F898000AF064
:10202000B1FD014630460AF061FED9F800304C4E51
:10203000632B306000F34881002333602B68002B52
:102040003FF45DAF0221524809F0BCFED8F80020F1
:10205000D9F80030D2F8840040F6E44202FB03F8DD
:1020600006F014FBB8FBF0F00AF034FD8046B4F83B
:10207000A2000AF033FD014640460AF079FC0AF05E
:102080005DFB4FF0020802460B46CDF80080414848
:1020900007F076F941463E4809F094FE30680AF0B0
:1020A0004DFBCDF8008002460B463A4807F068F930
:1020B0004146394809F086FE4146354809F082FE1E
:1020C0001DE7304B1B68012B00F04281022B7FF48F
:1020D00059AFD4F8A44020460AF000FD0146284636
:1020E0000AF00CFF48B960420AF0F8FC01462846A5
:1020F0000AF0E6FE002800F097811D4F1D4C3B685A
:10210000079307982368DFF87080C01A0AF0E2FC92
:1021100029460AF037FD19490AF0E8FD17490AF087
:10212000E5FDD8F800100AF025FC3B680693069BF5
:10213000C8F80000236025E70A4806F075FE0AF09B
:10214000FDFA0B46022102460091124807F018F9E9
:10215000E5E600BFECCDFF1FD0CCFF1FD4CCFF1FA6
:10216000AC91FF1F18CDFF1F0000FA430000FAC317
:10217000E8D0FF1F0CCDFF1FD091FF1F00007A4455
:10218000C891FF1F7C88FF1FD0CEFF1F17B7D13823
:10219000E44B0100048AFF1F543F0100DFF89882DE
:1021A000A64DD8F80000022300220E212B6006F075
:1021B00017FA2B68A24D012B2B687FF410AF002B70
:1021C00040F0EF80D8F80030DFF87892D3F8840040
:1021D000436B1E69B6B2C9F8006006F057FAB4F84E
:1021E000A03040F6E44A0AFB06F6B6FBF0F6F01A19
:1021F00000B20AF073FC94490646D4F89C000AF039
:10220000C1FC014630460AF071FDD8F800308F4E0F
:102210000246D3F88400D9F8003032600AFB03FA92
:1022200006F034FAB4F8A020BAFBF0F31BB29B1A04
:10223000002BB4F8C620B8BF5B429A42C4BF00234B
:1022400033602B68002B3FF45AAE0221804809F01E
:10225000B9FDD8F80020D9F80030D2F8840040F653
:10226000E44202FB03F806F011FAB4F8A010B8FB40
:10227000F0F80FFA88F8A8EB0101764807F054F857
:102280000221734809F09EFD30680AF057FA4FF0BA
:10229000020802460B46CDF800806E4807F070F841
:1022A00003216D4809F08EFD4146694809F08AFD19
:1022B00025E66A4A6A4B12680B920B9A1A60002351
:1022C00033600CB0BDE8F087D8F80030D3F8840054
:1022D00006F0DCF9D9F8003064389842FFF4ACAE6F
:1022E000ACE65C48DFF85C9107F026F80C215D480D
:1022F00009F068FD5C480C2109F064FDD8F8003055
:102300002A68D3F88400436B1E69B6B2C9F800602E
:10231000002A3FF472AE06F0B9F940F6E442002319
:1023200006FB02F2B2FBF0F10A224A4807F01CF861
:102330000221474809F046FDB4F8A210454806F0CE
:10234000F3FFD8F80030D9F80060D3F8840054E6E1
:1023500046490AF0D3FD28B9454928460AF0B0FDA0
:1023600000285AD03D4F3E4C3B68049304982368A4
:10237000DFF80081C01A0AF0ADFB29460AF002FC22
:102380003D490AF0B3FC3C490AF0B0FCD8F8001013
:102390000AF0F0FA3B680393039BC8F8000023603F
:1023A000F0E52C48DFF89C9006F0C6FFD4F88430A6
:1023B000012B0CBF314832480B2109F003FD2A489C
:1023C0000C2109F0FFFCD8F800202B68D2F884001B
:1023D000426B1669B6B2C9F80060002B3FF4FDAE3F
:1023E00006F054F940F6E44306FB03F30A22B3FB7C
:1023F000F0F10023174806F0B7FF0121214809F04A
:10240000E1FCB4F8A010134806F08EFFD8F80030B5
:10241000D9F80060D3F88400DFE6104A104B126848
:102420000592059A1A60ADE50C4A0D4B12680892A8
:10243000089A1A60A6E500BFC891FF1F7C88FF1F9D
:10244000D4CCFF1FD0CEFF1F17B7D138AC91FF1FE0
:10245000E44B0100048AFF1F403F0100E8D0FF1F4A
:102460000CCDFF1F443F0100303F01000000FA4344
:102470000000FAC3D091FF1F00007A44183F01000A
:10248000243F0100004D01002DE9F04FA94DAA4C59
:102490002B68012B87B000F00A81A84EA84FDFF807
:1024A000A492D9F80030002B00F0A680D4F860B0D8
:1024B000E56DDFF89482A54938680AF063FB05FBF7
:1024C0000BF581464FF47A7005FB00F00AF006FB2D
:1024D000014648460AF00AFC9D490AF053FB0AF0FF
:1024E00017FDD4F888303060012B054656D0D4F85B
:1024F0008430002B52D0632D73DDE36D206E03FB1F
:1025000000F04FF47A7303FB00F00AF0E7FA8F490A
:102510000AF0ECFB64233360D8F800303860002BFD
:1025200067D0D4F88430012B00F0E880032B00F052
:10253000F380022B00F0F9800221864809F042FC6A
:10254000854B18680AF0FAF8022402460B460094FC
:10255000824806F015FF2146814809F033FC2146E8
:102560007C4809F02FFC31687C4806F0DDFE06212E
:102570007C4809F027FC386874490AF003FB0AF02C
:10258000DDF8009402460B46744806F0F9FE7648E2
:10259000032107B0BDE8F04F09F014BC7348FEF703
:1025A000F5FB73490AF0EEFA0AF0D8FCE56FA26F6A
:1025B000216F636F009580B2FEF7F2FF0546306031
:1025C000206EE36D05FB00F003FB00F000EB8000E4
:1025D00040000AF083FA5D490AF088FB632D3860F9
:1025E0008BDC002DBCBF00233360D8F80030002BFB
:1025F00097D107B0BDE8F08FDFF878A1DAF80030A6
:10260000002B37D0D4F860B0E56DDFF83C81012BAA
:102610007FF451AF306800FB0BF005FB00F000EBDE
:102620008000554D40000AF059FA48490AF05EFB17
:102630002B680493049A386042F228339A4200F2DD
:10264000E3802B680593059A42F210739A420DD9E4
:10265000D8F800300122C9F80020002B40F0DD80BE
:10266000D4F8AC30012B04BF444A1370D4F860B0E6
:10267000E56D20E7404D2A680292029A42F2283323
:102680009A4200F2B8802B680393039A42F21073C7
:102690009A427FD8D9F80030D4F860B0E56DDFF801
:1026A000A880002B7FF407AFDAF80030AFE72F489F
:1026B000FEF76CFB2E49A66F676F0AF063FA0AF00B
:1026C0004DFC3246E66F216F00963B4680B2FEF726
:1026D00067FF1A4E236E306003FB00F0E36D184F66
:1026E00003FB00F000EB800040000AF0F7F9174907
:1026F0000AF0FCFA002338602B60D0E6204B1B6800
:10270000012B0CBF1F4820480A2109F05BFBD4F8BD
:102710008430032B7FF40DAF1C48102109F052FBCD
:10272000D4F88430022B7FF407AF0721184809F052
:1027300049FB01E7B491FF1FECCDFF1F2888FF1F65
:10274000D091FF1FB891FF1F5088FF1FE4388E3EC5
:102750000000C842E44B0100D0CCFF1F048AFF1FD9
:10276000543F0100E83F0100F03F0100E491FF1FEA
:1027700000007A44B091FF1FE8D0FF1F38CBFF1F45
:102780007C88FF1FB43F0100C03F0100CC3F010027
:10279000E03F01003548DFF8D880FEF7F7FA354909
:1027A0000AF0F0F90AF0DAFBE56F636FA26F216FB0
:1027B000009580B2FEF7F4FED4F860B0E56D3060AD
:1027C0000BFB00F005FB00F000EB800040000AF07E
:1027D00085F929490AF08AFAD8F8003038600122D0
:1027E000C9F8002043BBD4F8AC30012B7FF463AEB2
:1027F000224A13705FE6B4F9D030E26C94F84810C6
:102800001A48FEF713FB3EE7B4F9D030E26C94F8B7
:1028100048101648FEF70AFB13E70221184809F092
:10282000D1FA184806F088FD5921174809F0CAFA6C
:10283000144806F081FD13E70221114809F0C2FA9D
:10284000104806F079FD59210F4809F0BBFA0D48F0
:1028500006F072FDD4F8AC30D4F860B0E56D012B11
:1028600004BF064A1370D9F800301AE7E491FF1F3D
:102870005088FF1F00007A44E4388E3E38CBFF1F9B
:10288000E44B0100048AFF1F583F010030B51120BE
:1028900083B007F04BFC012804D0122007F046FC5F
:1028A000012822D10121152007F01AFC2A4B2B4ABE
:1028B0002B4C1B682B4D116801930222D4F88C30ED
:1028C0002A60019A0B44934208D8D4F894000AF085
:1028D00005F9254B19680AF0F3FAD0B101210C2053
:1028E00003B0BDE8304007F0FBBB00210B2007F030
:1028F000F7FB00210C2007F0F3FB0021152007F067
:10290000EFFB1A49174B0120002208701A6003B030
:1029100030BD01210B2007F0E3FB94F8CC300324F9
:102920002C604BB1114B02221A7000210C2003B015
:10293000BDE8304007F0D4BB122007F0F7FB0128B8
:1029400008BF0A4B4FF0110008BF1C7007F0EEFBE8
:102950000128EAD1E6E700BFE8D0FF1FA491FF1FDE
:10296000ECCDFF1FBCCBFF1FD0CCFF1F38CBFF1F10
:10297000F0B5714E714C33682568AB4287B02DD0ED
:1029800013F001014BD013F002015FD013F00401EA
:1029900051D0DA070ED52268D7070BD4684D2A68C4
:1029A000002A00F09380674B1B680193019B9342C0
:1029B0007FD833689D0714D4590722D5226852075F
:1029C0000DD4614F3A68002A00F09E805D4B1B6871
:1029D0000593059B934200F286803568A5B107B048
:1029E000F0BD226890073DD4584D2A68002A49D08E
:1029F000544B1B680393039B9A4236D333685907A1
:102A0000DCD41D46002DEAD12946162007F0ECF94A
:102A10002946172007B0BDE8F04007F0E5B91620B9
:102A200007F0E2F92268336802F0FE0213F00201B7
:102A30002260ABD10AE0052007F0D6F9226833689E
:102A400002F0FB022260DA07B4D5A4E7172007F0F2
:102A5000CBF92268336802F0FD0213F00401226012
:102A600097D1E8E75B07AAD4B9E7394B1720D3F829
:102A7000901007F0B9F92368002243F002032360A5
:102A80002A60BBE7334806F057FC0C21324809F0B6
:102A900099F9304806F050FCFF21172007F0A4F9FF
:102AA000284B2E491A680292029A09680A442A6041
:102AB0009FE7274B1620D3F8901007F095F923686D
:102AC000002243F0010323602A6072E7FF211620F1
:102AD00007F08AF91B4B21491A680092009A09688D
:102AE0000A442A6060E71A4B0520D3F8901007F0DB
:102AF0007BF923683568002243F0040323603A60C1
:102B0000002D7FF46CAF7FE7124806F015FC0C2116
:102B1000134809F057F90F4806F00EFCFF21052075
:102B200007F062F9074B0D491A680492049A096884
:102B30000A443A604BE700BFBCCBFF1FC0CBFF1F6E
:102B4000C4CBFF1FE8D0FF1FCCCBFF1FC8CBFF1F9C
:102B5000ECCDFF1F048AFF1FF43F01006C88FF1FAC
:102B6000044001002DE9F84F534EDFF850A13368BF
:102B7000DFF84C91D3F88400524D0F2106F03EF857
:102B80000123CAF80030504800232221C9F8003040
:102B900009F018F9D9F80030132B21DC4B4F40F61F
:102BA000E4483368B5F8A0B0D3F88400436B1C69DF
:102BB00005F06CFDA4B2012108FB04F4B4FBF0F4B1
:102BC0003846A344A5F8A0B009F0FCF8642007F04B
:102BD00017FBD9F800300133132BC9F80030E0DDC2
:102BE000B5F8A0303A493B48A1FB03215B1A01EB41
:102BF0005301C1F30F11A5F8A01006F095FB1D219C
:102C0000354809F0DFF80221344809F0DBF8314893
:102C100006F092FB00220E213068C9F8002005F072
:102C2000DFFC02232848CAF80030222109F0CAF844
:102C3000D9F80030132B22DCDFF8908040F6E4470F
:102C40003368B5F8A2A0D3F88400436B1C6905F083
:102C50001DFDA4B2012107FB04F4B4FBF0F44046CF
:102C6000A244A5F8A2A009F0ADF8642007F0C8FAC4
:102C7000D9F800300133132BC9F80030E0DDB5F886
:102C8000A23013491348A1FB03215B1A01EB530146
:102C9000C1F30F11A5F8A21006F046FB1D21104844
:102CA00009F090F80D48022109F08CF8BDE8F84FC2
:102CB000084806F041BB00BFC891FF1F7C88FF1F7A
:102CC000E0CEFF1FECCDFF1F144001003840010093
:102CD00087611886048AFF1F3C400100E44B010015
:102CE0005C4001002DE9F04FA54DD5F8BC309A1F8E
:102CF000012A83B040F26A81A24BA34C1B68A86DE5
:102D000040F2513108222160E271002B00F0348141
:102D100009F0E4FE696A064609F034FF9B4909F0B0
:102D200031FF0AF01BF9C2B22272994AE969C0F375
:102D30000723637213886381964B30461B88A381F7
:102D400009F020FF914909F01DFF0AF007F98E49AB
:102D500003469148E38105F01FFA904A8E481368B4
:102D60001288228103EB83038D4A08265B0040F220
:102D700055311288216023738349628133410027D2
:102D80006373E671E78105F007FA40F25633854830
:102D90002360E671FEF744F8834909F0F3FE0AF078
:102DA000DDF820727F48FEF73BF87F4909F0EAFE24
:102DB0000AF0D4F87D4B7C49C0F307206072186894
:102DC00009F094FF0AF0A4F860817648FEF752F803
:102DD0006E4909F0D7FE0AF09BF820737148FEF7A0
:102DE00049F86A4909F0CEFE0AF092F840F307204C
:102DF000654960736848E78105F0CEF9022007F065
:102E0000FFF96B4A6B4B12681B686348A26040F283
:102E10005A3121605C49E360E67105F0BDF9664B0B
:102E200059495D48E67140F25E322260D3E90023E1
:102E3000A260E36005F0B0F9022007F0E1F95F4B12
:102E400051495548E6714FF45C722260D3E9002382
:102E5000E360A26005F0A0F9594B1B68012B00F05C
:102E60003582022007F0CCF9082640F273334D4832
:102E70002360E671FDF78AFF524909F083FE0AF0EC
:102E80006DF8034647482372FDF780FF4D4909F06E
:102E900079FE0AF063F8C0F3072342486372FDF736
:102EA0009BFF484909F06EFE0AF058F803463D487A
:102EB000A372FDF791FF434909F064FE0AF04EF852
:102EC000C0F307233748E372FEF73CF83E4909F0A8
:102ED00051FD0AF043F8034632482373FEF732F8F7
:102EE000394909F047FD0AF039F8C0F307232D48A6
:102EF0006373FEF725F8344909F03CFD0AF02EF81B
:102F000003462848A373FEF71BF82F4909F032FD4A
:102F10000AF024F8C0F307201B49E0731E4805F0AF
:102F20003BF9022007F06CF92A6EEB6D13FB02F3FC
:102F3000C3F3072240F279310220216062722372CA
:102F4000E07107F05DF940F2723316482360E671D4
:102F5000FDF7DAFD034613482372FDF7D5FD002285
:102F600040FA06F308490C4863726281E26003B0DC
:102F7000BDE8F04F05F010B909F0B0FDA969CAE647
:102F8000ECCDFF1FC4CEFF1F44CDFF1F000020412A
:102F900044CBFF1FD8CCFF1FF4CEFF1F2888FF1F94
:102FA0002C88FF1FE491FF1F0000C842D0CCFF1FF8
:102FB000CC91FF1FDCCEFF1F3C88FF1F3488FF1F12
:102FC000D491FF1F00007A4433938843072BAB4C06
:102FD00000F0B081AA4BDFF8AC92DFF8ACA2DFF8CA
:102FE000AC82AB4FAB4E01934FF4C36C4FF0080B68
:102FF000A94AA249A948C4F800C00023A260E3601E
:1030000084F807B005F0C8F8022007F0F9F8A24AE2
:103010009A49A26000234FF4BB62A048E36022609B
:1030200084F807B005F0B8F8022007F0E9F8EB6D76
:103030002A6EA86D84F807B003FB02F100FB01F1D2
:1030400012FB03F212FB00F201EBC10001EB800165
:1030500041FA0BF1217302EBC20102EB81026273B0
:103060008F4AA2604FF4AB62844922608B4840F2E1
:103070000572E28105F090F8022007F0C1F8894A54
:10308000A260894A7D49E260844884F807B04FF421
:10309000B362226005F080F8022007F0B1F8019BCE
:1030A000A86D1A6884F807B04FF456712160002AA1
:1030B00040F0FB8109F012FDA969834609F062FD29
:1030C0007A4909F05FFD09F049FFC0F30721C2B258
:1030D00021725846E969627209F054FD734909F09A
:1030E00051FD09F03BFFBAF80020B9F80030634900
:1030F00040BA52BA5BBA60816848A281E38105F0A8
:103100004BF8022007F07CF83A88D8F8003052BA21
:103110006281674A106803EB830202EB820292002D
:1031200062726422082502FB03F34FF476712B418F
:10313000216060492372E57109F024FD09F00EFF5A
:1031400040BAF9234D49A0815448E38105F024F8A1
:10315000022007F055F8534B4849A3604FF48B62A7
:10316000554B4E482260E360E57105F015F80220EA
:1031700007F046F84FF4A36350482360E571FDF76C
:10318000DFFE4A4909F0FEFC09F0E8FEC0F3072320
:103190004A482372FDF7D4FE444909F0F3FC09F0D4
:1031A000DDFE034645486372FDF7CCFE3F4909F05A
:1031B000E9FC09F0D3FEC0F307234048A372FDF7F2
:1031C000C1FE3A4909F0DEFC09F0C8FE2B49E07265
:1031D0004FF0FF333148E36004F0DEFF022007F0D8
:1031E0000FF84FF49B6335482360E571FDF718FE37
:1031F0002E4909F0C7FC09F0B1FEC0F307232F48A0
:103200002372FDF70DFE294909F0BCFC09F0A6FE6A
:103210002B4903463068637209F068FD09F078FEB7
:1032200043BA26486381FDF725FE204909F0AAFC30
:1032300009F06EFE40F3072320482373FDF71AFEC2
:103240001A4909F09FFC09F063FE40F603020346A9
:103250000A491248E281637304F09EFF022006F0DF
:10326000CFFF184A184B12681B680C48E5714FF4E1
:10327000AC712160A2600149E36078E644CDFF1F94
:10328000C4CEFF1F44CBFF1FD8CCFF1F2888FF1FD1
:103290002C88FF1FD0CCFF1F00425944F4CEFF1FE3
:1032A00003120004000012340000044F000020410B
:1032B000D091FF1F620B363B00005678E491FF1F50
:1032C0000000C842CC91FF1FDCCEFF1F8448FDF7F1
:1032D0005DFD696D09F04EFB07468148FDF77CFDF9
:1032E0000146384609F0ECFD00283FF4BAAD40F243
:1032F000C3337B48E6712360FDF748FD2E6D3146F0
:1033000009F0DEFD002800F0D5807649304609F04E
:1033100039FC09F023FEC0F307232372C0B240F248
:10332000014203236072704970486281E36004F0D7
:1033300033FF96E56E4B6F4FE36040F25932002346
:10334000082621466948A3602260E671019704F0CF
:1033500023FF022006F054FF40F2513323603B6804
:10336000A86DE671002B00F09C8009F0B7FB696A3C
:10337000DFF88491DFF884A1DFF88481614F09F0E0
:1033800001FC614909F0FEFB09F0E8FDB9F80020F5
:1033900055496281C3B2C0F30720BAF800206072B9
:1033A0004FF0000B51482372A281A4F80EB004F034
:1033B000F3FE022006F024FFB8F8002022813A88AC
:1033C00049496281082640F2553248482260C4F8D3
:1033D0000CB0E67104F0E0FE022006F011FF40F2AE
:1033E00056323F482260E671FDF71AFD4749484EC4
:1033F00009F0C8FB09F0B2FD20723948FDF710FD55
:10340000424909F0BFFB09F0A9FDC0F307203F497D
:103410006072306809F06AFC09F07AFD608130481A
:10342000FDF728FD384909F0ADFB09F071FD207367
:103430002B48FDF71FFD344909F0A4FB09F068FD96
:1034400040F30720284960732848A4F80EB004F020
:10345000A3FE022006F0D4FE4FF4577222492260E8
:103460004FF0020BC0222148228184F807B004F0FB
:1034700093FE584606F0C4FE264A2272264A62721D
:1034800019491A4884F807B040F25E32226004F00D
:1034900083FED5F8BC20062A3FF4A6AD03B0BDE8F4
:1034A000F08F09F01BFBA96962E709F017FB696A55
:1034B000834603E60A48FDF769FC0A4909F062FB06
:1034C00009F04CFDC0F3072305482372FDF75EFCAD
:1034D000044909F057FB09F041FDC0B21FE700BFE6
:1034E000E491FF1F00007A4444CDFF1FF4CEFF1F7C
:1034F00001504E00C4CEFF1F44CBFF1FD8CCFF1F8E
:103500002888FF1F2C88FF1F000020410000C842B0
:10351000D0CCFF1F7C40010080400100F0B5A54CDD
:10352000A54D83B008F0E0FB23682860042B59D038
:10353000022B40F01D81A0F13103422B00F20F81DC
:10354000DFE813F0DD08EA08F7089408C008B308BC
:10355000CF0887080D010D010D010D010D010D01B1
:103560000D010D010D010D010D010D010D010D01EB
:103570000D010D010D010D010D010D010D010D01DB
:103580000D010D010D010D010D010D010D010D01CB
:103590000D010D010D010D010D010D010D010D01BB
:1035A0000D010D010D010D0112010D010D010D01A6
:1035B0000D010D010D010D010D010D010D010D019B
:1035C0000D010D0146000D01CC07712840F0C780A8
:1035D0000022732322602B602368002B00F09B8263
:1035E00003B0F0BDA0F13003422B00F2B88001A27D
:1035F00052F823F0C3440000D5440000D944000031
:10360000B7410000F74300000D44000027440000CC
:10361000594400005D440000614400005F37000031
:103620005F3700005F3700005F3700005F37000042
:103630005F3700005F3700005F3700005F37000032
:103640005F3700005F3700005F3700005F37000022
:103650005F3700005F3700005F3700005F37000012
:103660005F3700005F3700005F3700005F37000002
:103670005F3700005F3700005F3700005F370000F2
:103680005F3700005F3700005F3700005F370000E2
:103690005F3700005F3700005F3700005F370000D2
:1036A0005F3700005F3700005F3700005F370000C2
:1036B0005F3700005F3700005F3700008344000081
:1036C0005F3700005F3700005F3700005F370000A2
:1036D0005F3700005F3700005F3700005F37000092
:1036E0005F3700005F3700005F3700005F37000082
:1036F0005F3700005F370000D13500009D440000B7
:1037000008F02EFB00280DDD2C482D4E05F074FF2F
:1037100009F0E4F92B4909F0E9FA01226223706209
:1037200022602B6008F01CFB00280EDD2348244E8D
:1037300005F062FF09F0D2F9224909F0D7FA012217
:103740006223C6F8C80022602B6008F009FB00283D
:1037500001F3D28023682868012B00F03985732893
:103760003FF43AAF03B0F0BDFFF7FCF923682868D7
:10377000082B10D1342800F04F813FF726AF3128B5
:1037800000F058813228EAD108F0EAFA002800F364
:10379000658223682868072B1DD134283FF715AFB1
:1037A0003028DCDD3238022801F29085DFE800F0B5
:1037B000A00CB4003CCDFF1F00CDFF1F048AFF1FEB
:1037C000ECCDFF1F00007A4408F0CAFA002800F38D
:1037D0005D8223682868062B40F06B82A0F13103DC
:1037E000402BBCD801A252F823F000BFA53F000037
:1037F000F7400000A53C0000934100007741000025
:1038000057410000414100005F3700001F410000A8
:103810005F3700005F3700005F3700005F37000050
:103820005F3700005F3700005F3700005F37000040
:103830005F3700005F3700005F3700005F37000030
:103840005F3700005F3700005F3700005F37000020
:103850005F3700005F3700005F3700005F37000010
:103860005F3700005F3700005F3700005F37000000
:103870005F3700005F3700005F3700005F370000F0
:103880005F3700005F3700005F3700005F370000E0
:103890005F3700005F3700005F3700005F370000D0
:1038A0005F3700005F3700005F3700005F370000C0
:1038B0005F3700005F3700005F3700005F370000B0
:1038C0005F3700005F3700005F3700005F370000A0
:1038D0005F3700005F3700005F3700005F37000090
:1038E0005F3700005F3700005F370000D135000010
:1038F00008F036FA00287FF76CAFB848B84E05F0EC
:103900007BFE09F0EBF8B74909F03CF9012323608D
:10391000612370642B6010E008F022FA00287FF722
:1039200058AFAE48AE4E05F067FE01232360612319
:10393000B0862B6001E008F0D7F908F011FA0546CF
:103940000028F8D1A54805F0F7FCA44805F0F4FCE0
:10395000A24805F0F1FCA14805F0EEFC9F4805F0F7
:10396000EBFC1F21A04808F02DFA9C4805F0E4FC70
:103970001C219E4808F026FAB06A9D4909F002F918
:1039800008F0DCFE009502460B46944805F0F8FC72
:103990000221984808F016FA904805F0CDFC232142
:1039A000954808F00FFA706C914909F0EBF808F0AF
:1039B000C5FE009502460B46884805F0E1FC022151
:1039C0008C4808F0FFF9854805F0B6FC19218B48B2
:1039D00008F0F8F9306C08F0B1FE02250B460246FB
:1039E00000957E4805F0CCFC2946854808F0EAF9A8
:1039F0007A4805F0A1FC2221824808F0E3F9B18E53
:103A0000764805F091FC03217F4808F0DBF9734804
:103A100005F092FC07237BE008F0A2F900287FF76D
:103A2000B8AE6E486E4E05F0E7FD03B2F26CA6F834
:103A3000D03020E108F094F9002800F31F81684E8F
:103A400096F84810B6F9D030F26C022984BF0021F4
:103A500086F848106D48FDF7E9F9012269232260D4
:103A60002B6001E008F040F908F07AF905460028DB
:103A7000F8D15A4805F060FC584805F05DFC5748FD
:103A800005F05AFC554805F057FC544805F054FC25
:103A900015215F4808F096F9504805F04DFC1821B3
:103AA0005C4808F08FF92B460A2296F848104B48DC
:103AB00005F05AFC494805F03FFC2821564808F01B
:103AC00081F9F06C4A4909F05DF808F037FE00957D
:103AD0000B460246414805F053FC0221454808F0D8
:103AE00071F93E4805F028FC18214C4808F06AF9A5
:103AF000B6F9D010394805F017FC384805F01CFC21
:103B00001321474808F05EF9344805F015FC0823F6
:103B1000236003B0F0BD434E304805F00DFC042196
:103B2000414808F04FF92D4805F006FC10213F48A8
:103B300008F048F9294805F0FFFB13213C4808F03C
:103B400041F93C4B2548196805F0EEFB234805F088
:103B5000F3FB1421384808F035F9204805F0ECFB58
:103B60001E21364808F02EF91C4805F0E5FB15210A
:103B7000334808F027F9194805F0DEFB1E213148CB
:103B800008F020F9154805F0D7FB20212E4808F051
:103B900019F9124805F0D0FB19212C4808F012F948
:103BA0000E4805F0C9FB1221294808F00BF90B4813
:103BB00005F0C2FB0F21274808F004F9074805F07B
:103BC000BBFB0D21244808F0FDF8044805F0B4FBC8
:103BD000002201233260236003B0F0BD048AFF1F7E
:103BE000ECCDFF1F6F12833AD4420100F442010072
:103BF00000007A44F0400100144301003843010002
:103C0000D04201005443010078430100E491FF1FBA
:103C100050450100A8400100C4400100F4400100EB
:103C2000104101005088FF1F8844010090440100AA
:103C3000A44401005C88FF1FB8440100D044010087
:103C4000F044010008450100284501004C450100F1
:103C5000684501007C4501008C450100C548C64E01
:103C600005F0CAFC08F03AFFC44908F08BFFB6F92A
:103C7000D030F064024696F84810EBE6BD48BE4EE0
:103C800005F0BAFCC1B286F84810DBE6B948BA4E76
:103C900005F0B2FC08F022FF0123236061233064A9
:103CA0002B604AE608F05CF8002801F34D82236897
:103CB0002868052B17D1362800F3BB8530287FF7FD
:103CC0008FAC3238042801F2F082DFE810F03501C1
:103CD0002501A9000500450108F042F8002800F37D
:103CE000018623682868032B7FF436ADA0F13003EA
:103CF000482B3FF634AD01A252F823F0374F0000B5
:103D0000834F0000634F00002D510000115100004F
:103D1000EF500000CF500000B95000009D5000004F
:103D20007D5000005F3700005F3700005F37000004
:103D30005F3700005F3700005F3700005F3700002B
:103D40005F3700005F3700005F3700005F3700001B
:103D50005F3700005F3700005F3700005F3700000B
:103D60005F3700005F3700005F3700005F370000FB
:103D70005F3700005F3700005F3700005F370000EB
:103D80005F3700005F3700005F3700005F370000DB
:103D90005F3700005F3700005F3700005F370000CB
:103DA0005F3700005F3700005F3700005F370000BB
:103DB0005F3700005F3700005F3700005F370000AB
:103DC00067500000214F00000B4F0000F54E00002F
:103DD000DF4E0000914E0000013700002537000043
:103DE0005F3700004B370000475000005F3700008E
:103DF0005F3700005F3700005F3700005F3700006B
:103E0000395000001B5000005F3700005F37000092
:103E10005F3700005F3700005F370000055000008B
:103E200007F09EFF00287FF75CAF5248524E05F026
:103E3000E3FB534BC6F8B00002221A60FDF73EFDCB
:103E400001226B2322602B6001E007F04DFF07F099
:103E500087FF0028F9D1474805F06EFA454805F07C
:103E60006BFA444805F068FA424805F065FA4148A3
:103E700005F062FA2121434807F0A4FF3D4805F010
:103E80005BFA1521404807F09DFFD6F88C103948A1
:103E900005F04AFA02213D4807F094FF354805F045
:103EA0004BFA1E213A4807F08DFFD6F8941031489E
:103EB00005F03AFA0321374807F084FF2D4805F052
:103EC0003BFA1E21344807F07DFFD6F890102948B0
:103ED00005F02AFA274805F02FFA1D212F4807F090
:103EE00071FFD6F8B010234805F01EFA214805F0FE
:103EF00023FA1E212A4807F065FFD6F8B4101D48A2
:103F000005F012FA1B4805F017FAD6F8AC30012B71
:103F100001F08B810523FBE507F022FF00287FF7E6
:103F2000E0AE1448144E05F067FB012323606B23B9
:103F3000C6F890002B608AE707F012FF00287FF791
:103F4000D0AE0C480C4E05F057FB012323606B23C9
:103F5000C6F894002B607AE7074E96F8CD30012220
:103F6000B3FA83F322605B096B2286F8CD302A60B6
:103F70006DE700BF048AFF1FECCDFF1F6F12833A6D
:103F8000E8CCFF1F7C430100A04301006442010014
:103F9000B8430100403F0100D8430100F84301004D
:103FA0001844010007F0DCFE00287FF780AEAC4823
:103FB000AC4E05F021FB08F091FDAB4908F096FEF0
:103FC000012323606523B0612B6001E007F08CFEC4
:103FD00007F0C6FE05460028F8D1A14805F0ACF967
:103FE0009F4805F0A9F99E4805F0A6F99C4805F000
:103FF000A3F99B4805F0A0F911219C4807F0E2FEC7
:10400000974805F099F92821994807F0DBFEB06937
:10401000954908F0B7FD08F091FB009502460B4664
:104020008F4805F0ADF90221924807F0CBFE8C488D
:1040300005F082F91621904807F0C4FE306A8A49DB
:1040400008F0A0FD08F07AFB00950B460246844874
:1040500005F096F90221874807F0B4FE804805F084
:104060006BF9D6F8BC30002B32DD1D21834807F0F8
:10407000A9FE706E08F032FD814908F083FD08F05A
:104080005DFB022502460B467548009505F078F960
:1040900001217C4807F096FE714805F04DF91F217B
:1040A000794807F08FFEB06E08F018FD744908F0EB
:1040B00069FD08F043FB009502460B46684805F091
:1040C0005FF97048012107F07DFE654805F034F97D
:1040D0006E48112107F076FED6F8BC30072B00F2AF
:1040E0003983DFE813F08D03920388039C03970361
:1040F000A1038303330307F033FE00287FF7D7AD16
:104100005748584E05F078FA08F0E8FC564908F090
:10411000EDFD01232360652330622B6058E707F033
:104120001FFE00287FF7C3AD4D484E4E05F064FAE0
:1041300008F0D4FC012323606523B0632B6047E7BC
:10414000484E96F8CC30012253402260652286F812
:10415000CC302A603CE707F003FE00287FF7A7ADCC
:104160003F48404E05F048FA012323606523C6F816
:10417000C0002B602CE73B4ED6F8BC300122134424
:10418000082B2260A8BF00236522C6F8BC302A6035
:104190001EE707F0E5FD00287FF789AD3048314E76
:1041A00005F02AFA00EB8000400001226523B0668A
:1041B00022602B600CE7364B1A680121002A0CBFE5
:1041C0000A46002221601A6040F0FD8764202860C2
:1041D000A0F152031F2B3FF6C2AA01A252F823F00E
:1041E0004B4800005F3700005F3700005F3700007A
:1041F0005F3700005F3700005F3700005F37000067
:104200005F3700005F3700005F3700005F37000056
:104210005F3700005F3700005F370000A5520000E5
:104220009F520000A74600009942000099520000EA
:104230005F3700005F3700005F37000093520000D7
:104240005F3700008D5200005F3700005F370000CD
:104250005F3700005F3700005F37000059480000FB
:10426000048AFF1FECCDFF1F00007A44F4440100D4
:1042700024410100F040010050410100684101006B
:10428000CDCCCC3D1048010088410100A84101007F
:10429000D8CDFF1F07F028FD07F062FD0028F9D1F7
:1042A0009548964D05F048F8934805F045F8924832
:1042B00005F042F8904805F03FF88F4805F03CF8CB
:1042C00013218F4807F07EFD8B4805F035F80D214E
:1042D0008C4807F077FD884805F02EF80F218A48B2
:1042E00007F070FD894B8448196805F01DF8824875
:1042F00005F022F81321864807F064FD854B7E48BF
:10430000196805F011F87C4805F016F8122182486A
:1043100007F058FD814B7848196805F005F8764894
:1043200005F00AF811217E4807F04CFD7D4B7248DC
:10433000196804F0F9FF704804F0FEFF0E217A4876
:1043400007F040FDD5F8AC106B4804F0EDFF6A486B
:1043500004F0F2FF1921754807F034FD744B6648EC
:10436000196804F0E1FF644804F0E6FF1121714888
:1043700007F028FD704B6048196804F0D5FF5E48CF
:1043800004F0DAFF10216D4807F01CFD6C4B5A4811
:10439000196804F0C9FF584804F0CEFF1C21694891
:1043A00007F010FD684B5448196804F0BDFF5248EF
:1043B00004F0C2FF1621654807F004FDB5F8A81007
:1043C0004D4804F0B1FF1E21614807F0FBFC4A484C
:1043D00004F0B2FF17215F4807F0F4FC464804F0F0
:1043E000ABFF13215C4807F0EDFC434804F0A4FF49
:1043F0000423FFF78DBB4B4A1368B3FA83F36420A1
:1044000001215B09216013602860E1E63B4ED6F88C
:10441000AC30B3FA83F3642001225B092260C6F852
:10442000AC302860D4E601234C482360FCF72AFB1B
:104430003F4B6422186023682A60082B3FF4D0A801
:10444000072B3FF4CDA8062B3FF4CAA8052B18BFB5
:1044500064203FF4C5A846E4374ACDE7384ACBE7A5
:104460000123236007F07CFC002800F38A86364B8A
:104470001868042801DD02221A60642223682A6079
:10448000DBE70123236007F06BFC0028F5DD1A4809
:104490001A4E05F0B1F8A6F8A800EEE73049314A07
:1044A000CB888A6003F0FE0343F400630120CB80D5
:1044B00000232060CB602C48B0230B6003F06CFE1F
:1044C000DBE72A4A1378012164204B4021601370F6
:1044D00028607DE60D4A8FE70E4A8DE7074ED6F835
:1044E000843001221344042B2260A8BF00236322DE
:1044F000C6F884302A603DE0048AFF1FECCDFF1F20
:104500009C450100B0450100C04501003CCBFF1FA8
:10451000D0450100D4CCFF1FE4450100D8CDFF1FDA
:10452000F845010004CDFF1F0C4601001C460100A8
:1045300040CBFF1F38460100E8CCFF1F4C4601006E
:104540009091FF1F604601005488FF1F80460100C4
:1045500098460100B846010010410100E491FF1F98
:1045600044CDFF1FFF00CDA2F4CEFF1F8C91FF1F93
:1045700007F0BAFB07F0F4FB0028F9D1BE4804F0BD
:10458000DBFEBD4804F0D8FEBB4804F0D5FEBA48B7
:1045900004F0D2FEB84804F0CFFE1F21B74807F060
:1045A00011FCB54804F0C8FE1E21B54807F00AFC0E
:1045B000B14804F0C1FEB3481A2107F003FCD6F855
:1045C0008430022B00F0F685032B00F0EA85012BE6
:1045D00000F0DE85AC48092107F0F4FBA64804F0A2
:1045E000ABFE1421A94807F0EDFBD6F88010A248D5
:1045F00004F09AFEA04804F09FFE1C21A44807F096
:10460000E1FBD6F888109C4804F08EFE9A4804F02E
:1046100093FE1C219F4807F0D5FBD6F8B8109648AA
:1046200004F082FE944804F087FED6F8845025F00A
:104630000207012F00F0BD83022D00F0E185132158
:10464000954807F0BFFB8C4804F076FE0223FFF785
:104650005FBA0123236007F083FB002800F3828503
:104660008E4E0122632322602B6083E701232360A7
:1046700007F076FB002807DD7F48884E04F0BCFF7A
:1046800008F02CFAC6F89C0023686322072B2A60E6
:104690003EF4A6AF052B3EF4A3AF032B00F0358408
:1046A000012B7EF49DAF7D4E64E70123236007F06C
:1046B00057FB0028E8DD7048784E04F09DFFA6F80F
:1046C000C600E1E70123236007F04AFB0028DBDD99
:1046D0006948724E04F090FF08F000FAC6F898009E
:1046E000D2E76E4ED6F8D43001221344052BA8BF72
:1046F000134622606322C6F8D4302A603AE7674E38
:10470000D6F88030B3FA83F35B090122C6F8803013
:10471000632322602B602DE7604ED6F88830B3FA11
:1047200083F35B090122C6F88830632322602B6083
:1047300020E70123236007F013FB002890DD4E489B
:10474000564E04F059FFC6F8B8008AE754481421C1
:1047500007F038FB484804F0EFFDD6F8BC30002BDA
:1047600012DD18214F4807F02DFBD6F8C010424843
:1047700004F0DAFD02214C4807F024FB3E4804F027
:10478000DBFD3D4804F0D8FD48481B2107F01AFB2B
:1047900096F8CC30002B40F007834548122107F0F3
:1047A00011FB354804F0C8FD1F21424807F00AFB01
:1047B000B06B07F0C3FF02250B46024600952E485A
:1047C00004F0DEFD29463C4807F0FCFA2A4804F0D4
:1047D000B3FD294804F0B0FD13212F4807F0F2FA89
:1047E000254804F0A9FD0623FFF792B915213348A7
:1047F00007F0E8FAAEE70C21314807F0E3FAA9E741
:104800000D21304807F0DEFAA4E70C212E4807F00E
:10481000D9FA9FE70D212D4807F0D4FA9AE70D2128
:104820002B4807F0CFFA95E70B212A4807F0CAFA80
:1048300090E771287EF493AF2749284E0023732216
:104840000B6023602A60FFF767B94FF0E023244A2A
:10485000C3F80C2DFEF7C4BED82200210F481F4E0E
:1048600004F0C6FF2B6800210122732B2160326007
:104870007EF4B6AEFFF750B9048AFF1FD0460100A0
:10488000F0460100104701008847010094470100ED
:10489000AC470100CC47010010410100ECCDFF1FE7
:1048A00030420100484201006442010068420100B8
:1048B00084420100B0420100D042010018420100D0
:1048C000DC410100BC410100CC410100FC41010080
:1048D000EC4101000C420100E8CCFF1F5088FF1F93
:1048E0000400FA050A480B4E04F086FE0A4BC6F88F
:1048F000B4000322FFF7A1BA0548064E04F07CFE7F
:1049000008F0ECF8F0630122622322602B6007E0DC
:10491000048AFF1FECCDFF1FE8CCFF1F07F0E4F96E
:1049200007F01EFA05460028F8D1C24804F004FD3D
:10493000C04804F001FDBF4804F0FEFCBD4804F08F
:10494000FBFCBC4804F0F8FC1521BB4807F03AFA20
:10495000B84804F0F1FC1421B84807F033FAB54820
:1049600004F0EAFC1B21B64807F02CFAB14804F029
:10497000E3FC1321B34807F025FAAE4804F0DCFC51
:10498000AC4804F0D9FCAB4804F0D6FC2021AE487A
:1049900007F018FAF068AD4908F0F4F807F0CEFE19
:1049A000009502460B46A34804F0EAFC0221A84801
:1049B00007F008FA0221A74807F004FA9D4804F01E
:1049C000BBFC2121A44807F0FDF930699F4908F09C
:1049D000D9F807F0B3FE009502460B46954804F05F
:1049E000CFFC02219A4807F0EDF90221994807F01F
:1049F000E9F9904804F0A0FC1F21984807F0E2F97B
:104A0000F06A07F09BFE022702460B468948009792
:104A100004F0B6FC0121924807F0D4F939468D48DC
:104A200007F0D0F9834804F087FC20218D4807F077
:104A3000C9F9306B07F082FE009702460B467D48AD
:104A400004F09EFC0121864807F0BCF939468148F4
:104A500007F0B8F9774804F06FFC2321824807F08B
:104A6000B1F9306D794908F08DF807F067FE0095CF
:104A700002460B466F4804F083FC3946744807F041
:104A8000A1F93946734807F09DF96A4804F054FCCF
:104A90001F21764807F096F9706D6C4908F072F89E
:104AA00007F04CFE009502460B46624804F068FC95
:104AB0003946674807F086F93946664807F082F9B3
:104AC0005C4804F039FC1921694807F07BF9316E24
:104AD000584804F029FC3946664807F073F939460E
:104AE0005C4807F06FF9534804F026FC182162482F
:104AF00007F068F9F06E07F0F1FF604908F042F83E
:104B000007F01CFE009702460B464A4804F038FCAA
:104B100001215B4807F056F939464E4807F052F933
:104B2000444804F009FC2B21564807F04BF9F06982
:104B3000464908F027F807F001FE009502460B46AB
:104B40003C4804F01DFC3946414807F03BF9394622
:104B5000404807F037F9374804F0EEFB1F214A4878
:104B600007F030F9F16D334804F0DEFB394639487F
:104B700007F028F92F4804F0DFFB2021434807F015
:104B800021F9B16D2B4804F0CFFB3946314807F0CD
:104B900019F9284804F0D0FB10213D4807F012F91C
:104BA000316F244804F0C0FB3946294807F00AF960
:104BB0003946284807F006F91E4804F0BDFB1321CA
:104BC000344807F0FFF8716F1A4804F0ADFB01217B
:104BD000314807F0F7F839461E4807F0F3F8154852
:104BE00004F0AAFB10212D4807F0ECF8B16F114832
:104BF00004F09AFB3946164807F0E4F839461548A0
:104C000007F0E0F80B4804F097FB1421244807F064
:104C1000D9F8F16F074804F087FB01211E4807F01F
:104C2000D1F839460B4807F0CDF8024804F084FB70
:104C3000162137E0048AFF1FF048010008490100EF
:104C400020490100104101003C49010000007A4464
:104C5000F0400100E44B010060490100844901007B
:104C6000A4490100A8490100CC490100F049010014
:104C7000104A01002C4A0100304A0100CDCCCC3D45
:104C8000104801004C4A0100784A0100984A01008E
:104C9000BC4A0100D04A0100E44A0100E84A010090
:104CA000FC4A0100BF4807F08DF8706ABE4907F062
:104CB00069FF07F043FD009502460B46BB4804F030
:104CC0005FFB3946BA4807F07DF83946B94807F026
:104CD00079F8B64804F030FB2421B74807F072F8A1
:104CE000D6F8C800B04907F04DFF07F027FD009542
:104CF00002460B46AD4804F043FB3946AC4807F08A
:104D000061F83946AB4807F05DF8A84804F014FB99
:104D10002B21AA4807F056F8F06B07F00FFD00971B
:104D200002460B46A14804F02BFB0121A44807F0E2
:104D300049F82946A34807F045F89C4804F0FCFAD6
:104D40002721A14807F03EF87069974907F01AFF3C
:104D500007F0F4FC00950B460246944804F010FB63
:104D60003946934807F02EF83946924807F02AF85A
:104D70008E4804F0E1FA9548162107F023F896F8DA
:104D8000CE30002B00F0F681012B00F0348202219E
:104D9000884807F017F8854804F0CEFA834804F0F5
:104DA000CBFA0323FEF7B4BE1421894807F00AF8B2
:104DB000F7E41C21874807F005F8D6F89C008649DF
:104DC00007F0E0FE07F0BAFC009702460B46774872
:104DD00004F0D6FA0521814806F0F4FF734804F088
:104DE000ABFAD6F88450012D19D11D217C4806F06C
:104DF000E9FFD6F89800784907F0C4FE07F09EFC5A
:104E0000009502460B46694804F0BAFA052173483A
:104E100006F0D8FF654804F08FFAD6F8845025F0E4
:104E20000203012B7FF408AC1C216E4806F0CAFF78
:104E3000B6F8C6105D4804F077FA03216A4806F018
:104E4000C1FF5A4804F078FAD6F88450012D7FF457
:104E5000F3AB1F21654806F0B5FFD6F8A40007F0B4
:104E60003DFE634907F08EFE07F068FC022502460E
:104E70000B4600954D4804F083FA29465D4806F03C
:104E8000A1FF4A4804F058FAD6F88450FFF7D4BB83
:104E9000FCF7C2FB0221474806F094FF434804F0A8
:104EA0004BFA0221434806F08DFF404804F044FAD3
:104EB0000221404806F086FF3C4804F03DFA4E4887
:104EC000172106F07FFF394804F036FA02213948ED
:104ED0004A4E06F077FF354804F02EFA13E506F047
:104EE0003FFF00287EF736AC3048444E04F084FB88
:104EF000F06708E506F034FF00287EF72BAC2B485E
:104F00003E4E04F079FBB067FDE406F029FF00286F
:104F10007EF720AC2548394E04F06EFB7067F2E452
:104F200006F01EFF00287EF715AC2048334E04F033
:104F300063FB3067E7E406F013FF00287EF70AAC56
:104F40001A482E4E04F058FB0123014623602C48DA
:104F5000F16562232B60FBF767FF23682868FEF783
:104F6000FBBB06F0FDFE00287EF7F4AB0F48234E96
:104F700004F042FB07F0B2FD0B4907F0B7FE3061C9
:104F8000C1E406F0EDFE00287EF7E4AB07481B4EB7
:104F900004F032FB07F0A2FD034907F0A7FEF06022
:104FA000B1E400BF144B010000007A44048AFF1FE3
:104FB000F0400100E44B01002C4B0100544B010078
:104FC000A4490100F04C0100804B0100A84B0100F6
:104FD00098420100EC470100CDCCCC3D0C480100CB
:104FE00014480100344801005448010058480100A9
:104FF0006F12833AFC3E010084400100ECCDFF1F9C
:10500000E491FF1FBC4E96F8CE300133DBB2022B89
:1050100028BF002386F8CE3075E4B84BB84801228B
:1050200002211A6006F0CEFEB64804F085F90B2185
:10503000B54806F0C7FE49E700227323B34E22604D
:105040002B60FEF769BD06F08BFE00287EF782AB71
:10505000AC48A94E04F0D0FA07F040FDAC4907F087
:1050600045FE70614FE406F07BFE00287EF772ABD0
:10507000A448A14E04F0C0FAB06544E406F070FE06
:1050800000287EF767AB9F489B4E04F0B5FA07F007
:1050900025FD9F4907F02AFEF06134E406F060FE2A
:1050A00000287EF757AB9748934E04F0A5FA00EB23
:1050B00080004000F06626E406F052FE00287EF7ED
:1050C00049AB90488C4E04F097FA30661BE406F02A
:1050D00047FE00287EF73EAB8A48874E04F08CFAE4
:1050E00007F0FCFC8A4907F001FE70650BE406F04E
:1050F00037FE00287EF72EAB82487F4E04F07CFA04
:1051000007F0ECFC824907F0F1FD3065FFF7FBBBCF
:1051100006F026FE00287EF71DAB7A48764E04F096
:105120006BFA07F0DBFC3063FFF7EDBB06F018FE0F
:1051300000287EF70FAB73486F4E04F05DFA07F05E
:10514000CDFCF062FFF7DFBB6E486B4E04F054FA03
:1051500000EB8000400001226523706622602B6016
:10516000FEF736BF6748644E04F046FAC6F8A4005E
:10517000FFF777BA6748062106F024FE96F8CE308E
:1051800002E6604804F038FA634B1860FFF771B923
:105190001E21624806F016FE5A4804F0CDF8FFF7CB
:1051A00020BA20215E4806F00DFE564804F0C4F8EF
:1051B000FFF717BA17215B4806F004FE514804F0C8
:1051C000BBF8FFF70EBA584B00260B2031461E6085
:1051D00004F086FF31460C2004F082FF3146142093
:1051E00004F07EFF3146152004F07AFF6422236824
:1051F0002A60FFF722B906214C4806F0E3FDC6E518
:105200004B48172106F0DEFDD6F8D430012B25D00F
:10521000022B2CD0032B33D0042B7FF410AA45494A
:105220003848FCF7E7F9FFF70ABA4348202106F0AF
:10523000C9FD96F8CD3043B90A21404806F0C2FDB9
:10524000304804F079F8FEF765BE1C213C4806F0B2
:10525000B9FD2C4804F070F8FEF75CBE1721394800
:1052600006F0B0FD274804F067F8FFF7E8B914210D
:10527000354806F0A7FD234804F05EF8FFF7DFB9D4
:1052800032492048FCF7B6F9FFF7D9B91A4EFEF7B4
:10529000DEBD194EFEF7E8BB174EFEF799BE164E5F
:1052A000FFF73EBB144EFEF748BB06F059FD002841
:1052B0007EF717AD1348104E04F09EF901232360CA
:1052C0006B23C6F88C002B60FEF7C1BD06F048FDCD
:1052D00000287EF77EAA0B48074E04F08DF907F0F0
:1052E000FDFB1B4907F04EFC012323606123B062E4
:1052F0002B60FEF722BB00BFECCDFF1FB491FF1F58
:10530000E44B0100048AFF1F9C4001005088FF1FEE
:1053100000007A44C04B01005488FF1F2C47010055
:105320004C47010070470100BCCBFF1FC84B010078
:1053300078480100D4480100384401005C44010071
:105340006844010090480100A8480100C0480100DD
:105350006F12833A38B5184C184B2268181D13F891
:10536000011F984241EA0222F9D1154B154DD3F89D
:105370008430226002F10040022B286015D0124BCD
:105380001B68012B00D038BD104B1B68012BFAD1D4
:105390000F4803F0D1FF29680D4803F0C5FFBDE8B1
:1053A00038400C48032106F00DBD07F097FB0A4C6E
:1053B0002060FCF797FDE2E7FCCCFF1FF3CCFF1F5A
:1053C000ECCDFF1F8891FF1F3CCBFF1F5088FF1FB4
:1053D000048AFF1FD04B0100AC91FF1F70B5224B18
:1053E000224C597A9A7ADB7A214D42EA012243EA29
:1053F000022322681F492B60012A18460B6019D02E
:105400001D4BD3F88430A0F50000022B286024D077
:105410002368012B00D070BD184B1B68012BFAD1FB
:105420002968174803F080FFBDE870401548032144
:1054300006F0C8BC114B1B68012BE1D1104803F0EA
:105440007BFF29680E480023102203F08DFF0E48D1
:10545000032106F0B7FC2868D2E707F03FFB0B4EAC
:105460003060FCF73FFDD3E7ECCCFF1F3CCBFF1FC8
:105470008891FF1FFCCCFF1FECCDFF1F5088FF1F42
:10548000048AFF1FD04B0100D44B0100AC91FF1FD9
:105490002DE9F84F874B1B78052B06D18649874AA3
:1054A00000230B601360BDE8F88F854C824E834D5E
:1054B000E26E636E834832602B60FBF743FD216B25
:1054C00007F0FEFC08B100232B607E48FBF738FD97
:1054D000E16A07F013FD10B1002333602B607948B7
:1054E000FBF77AFCE16807F009FD08B100232B60A7
:1054F0007448FBF771FCE16807F000FD08B1002378
:105500002B607048FBF742FC216907F0D9FC0028AA
:1055100000F0DC80002333602B68002B0CDC336848
:10552000002BB7BF2B682B6800223260002BBCBF5A
:1055300000232B60BDE8F88F6248FBF703FDA16BE9
:1055400007F0BEFC002840F086805F4B5D481B687A
:10555000012B3DD0FBF740FC216A0746A06907F00C
:1055600007FA0146384607F0C9FC0028D7D028685A
:1055700007F0B4FA80465348FBF72EFCD4F8189095
:10558000216A8246484607F0F3F9A36E0746606E2B
:10559000C01A07F0A3FA39460446504607F0E8F966
:1055A0000146204607F0EEFA39460446484607F021
:1055B000DFF90146204607F099FB002107F0DAF9F0
:1055C0000146404607F0D4F907F0A2FC2860A6E7A0
:1055D000FBF702FC216A0746606A07F0C9F9014639
:1055E000384607F08BFC002899D0286807F076FA37
:1055F00081463448FBF7F0FBD4F824A0216A8346A7
:10560000504607F0B5F98046A06E07F067FA0746E6
:10561000606E07F063FA394607F0AAF9414604467E
:10562000584607F0A5F90146204607F0ABFA414677
:105630000446504607F09CF90146204607F056FB09
:10564000394607F097F90146484607F091F907F007
:105650005FFC286063E7286807F040FA8046194835
:10566000FBF770FC8146606ED4F830A007F036FA84
:1056700051460746484607F07BF9394681460020E7
:1056800007F076F90146484607F07CFA5146814614
:10569000A06B07F06DF90146484607F027FB394635
:1056A00007F068F90146404607F062F907F030FC60
:1056B00028604AE738CBFF1FD8CCFF1F44CBFF1F21
:1056C000ECCDFF1FE491FF1FC4CEFF1F4048FBF746
:1056D0005DFBE16907F0F4FB00287FF41BAF336842
:1056E000002B7FF719AF3A48FBF72AFCE16B07F074
:1056F00005FC002842D13648FBF748FBD4F8C81017
:105700000746E06907F036F90146384607F0D8FB4E
:1057100000283FF401AF306807F0E0F980462C48DC
:10572000FBF734FB8146E06ED4F81CA007F0D6F9F5
:1057300051460746484607F01BF939468146002086
:1057400007F016F90146484607F01CFAD4F8C810CD
:105750008146504607F00EF9514607F009F9014617
:10576000484607F0C3FA394607F004F901464046B7
:1057700007F0FEF807F0CCFB3060CDE6306807F0AC
:10578000ADF907461248FBF7DBFB8146E06ED4F823
:105790003CA007F0A3F951468046484607F0E8F8D8
:1057A0000146404607F0EEF951468046E06A07F0B0
:1057B000DFF80146404607F099FA002107F0DAF8D1
:1057C0000146384607F0D4F807F0A2FB306092E7B4
:1057D000E491FF1F08B5284803F0AEFD27480721D4
:1057E00006F0F0FA112004F0A1FC00B324480621D1
:1057F00006F0E8FA102004F099FC08B321480621CD
:1058000006F0E0FA122004F091FC10B31E480621C5
:1058100006F0D8FA132004F089FC18B31B480621BF
:1058200006F0D0FABDE80840134803F085BD1848DB
:10583000062106F0C7FA102004F078FC0028DDD11C
:105840001448062106F0BEFA122004F06FFC00286E
:10585000DCD11148062106F0B5FA132004F066FCED
:105860000028DBD10D48062106F0ACFABDE808405F
:10587000014803F061BD00BF048AFF1FD84B01003F
:10588000E04B0100F04B0100004C0100104C010006
:10589000E84B0100F84B0100084C0100184C0100D6
:1058A00010B5294C2368042B26DC01210B2004F0C1
:1058B00017FC01210C2004F013FC0121142004F03A
:1058C0000FFC0121152004F00BFCFF21162004F031
:1058D0008BFAFF21172004F087FAFF21052004F03E
:1058E00083FAFF21062004F07FFA236801330A2B94
:1058F000C8BF0023236010BD00210B2004F0F0FB83
:1059000000210C2004F0ECFB0021142004F0E8FB43
:105910000021152004F0E4FB0021162004F064FAB5
:105920000021172004F060FA0021052004F05CFA41
:105930000021062004F058FA236801330A2BC8BF5F
:105940000023236010BD00BFDCCDFF1F30B5B84879
:1059500083B0092104F00AFF222004F08BFEB54B2E
:10596000D3F8AC30012BB44B1B7809D0052B10D8E1
:10597000DFE813F0440149014E0153013F010B00E0
:10598000002B00F04F81052B03D1AC48072104F018
:10599000EDFE222004F06EFEFF2004F06BFEFF20DF
:1059A00004F068FEA64CFF2004F064FEA548082120
:1059B00004F0DCFE2168A44803F0B6FCFF2004F0EC
:1059C00059FEFF2004F056FEFF2004F053FE9F48CE
:1059D000092104F0CBFE21689B4803F0A5FCFF20C1
:1059E00004F048FEFF2004F045FEFF2004F042FED4
:1059F00097480C2104F0BAFE964B9749186807F0B7
:105A000075F906F09BFE002402460B4600948E4872
:105A100003F0B6FCFF2004F02DFEFF2004F02AFE68
:105A2000FF2004F027FE09218C4804F09FFE8C48DB
:105A3000FBF720FA06F082FE009402460B468248ED
:105A400003F09EFCFF2004F015FEFF2004F012FE80
:105A5000FF2004F00FFE0C21824804F087FE8048EE
:105A6000FBF770FA06F06AFE009402460B46764891
:105A700003F086FCFF2004F0FDFDFF2004F0FAFD9A
:105A8000FF2004F0F7FD0D21774804F06FFE744805
:105A9000FBF756FA06F052FE009402460B466A489F
:105AA00003F06EFCFF2004F0E5FDFF2004F0E2FDB2
:105AB000FF2004F0DFFD09216C4804F057FE684820
:105AC000FBF7AEF96A4907F05DF806F037FE00947F
:105AD00002460B465C4803F053FCFF2004F0CAFD6D
