:1000000000800020BD010000B18B0000698B000062
:10001000698B0000698B0000698B0000698B000010
:10002000698B0000698B0000698B0000B18B0000B8
:10003000B18B0000698B0000C9810000CD820000F7
:10004000B18B0000B18B0000B18B0000B18B0000C0
:10005000B18B0000B18B0000B18B0000B18B0000B0
:10006000B18B0000B18B0000B18B0000B18B0000A0
:10007000B18B0000B18B0000B18B0000B18B000090
:10008000B18B0000B18B0000B18B0000B18B000080
:10009000B18B0000B18B0000B18B0000B18B000070
:1000A000B18B0000B18B0000B18B0000B18B000060
:1000B000B18B0000B5770000C1770000C577000064
:1000C000D1770000D5770000D9770000B18B000010
:1000D000B18B0000B18B0000B18B0000B18B000030
:1000E000B18B0000B18B0000B18B0000B18B000020
:1000F000B18B0000F5AC0000B18B0000A5980000AA
:10010000B18B0000719A0000B18B0000B18B000030
:10011000B18B0000B18B0000B18B0000B18B0000EF
:10012000B18B0000B18B0000B18B0000B18B0000DF
:10013000B18B0000B18B0000B18B0000B18B0000CF
:10014000B18B0000B18B0000B18B0000B18B0000BF
:10015000B18B0000B18B0000B18B0000B18B0000AF
:10016000B18B0000FD9C0000B18B0000B18B000042
:10017000B18B0000B18B0000B18B0000B18B00008F
:10018000B18B0000B18B0000B18B0000B18B00007F
:10019000B18B0000B18B0000B18B0000B18B00006F
:1001A000B18B0000B18B0000B18B0000B18B00005F
:1001B000B18B0000B18B0000B18B0000564B4CF2AC
:1001C000205210B51A804DF628121A8000BF00BFC9
:1001D00008F0F2FC514B4FF010621A60504A9A60DE
:1001E000504ADA60504A136813F4807304D14F49BF
:1001F0000B604FF4A85313604D4B1A78110703D5C9
:100200001A7842F008021A704A4B4B492A221A7097
:100210004A4A4B4B8B4204D252F8040F43F8040B6A
:10022000F8E7484B484900228B4202D243F8042B9E
:10023000FAE74649464A002352F8230041F82300D2
:1002400001336F2BF8D1434B434A802103F8011B44
:100250009342FBD1414B3D4A1A60414B8A221A70AE
:10026000A3F5805324225A70A0221A709A7992071B
:10027000FCD59A79D406FCD43A4A937903F00C035E
:10028000082B384BF9D103221A7140225A719A79FE
:100290009006FCD5334A9179324B4906FBD5324A58
:1002A000324911600221516020221A709A7902F0BD
:1002B0000C020C2AFAD12E4B2E4A1A602E4B2F4AD2
:1002C0001A6000225A60072243F8042C2C4AC3F813
:1002D0000C2D62B608F050FF144B1B68DA0705D5E9
:1002E000284808F02DFD284B284A1A60284B1B7817
:1002F0005B0609D5244C254B22689A4204D121483B
:1003000008F01EFD002323600BF0D8FF08F05AFC14
:1003100008F088FBFEE700BF0E2005403080044057
:10032000823F04000100002B10D0034014D0034092
:1003300002D0074000E007403092FF1F4C1F010031
:100340002087FF1F3092FF1F20D2FF1F0082FF1F58
:100350000000000000E400E05FE400E008ED00E0E1
:100360000050064000400640448004400000030165
:1003700004800440C010050014E000E0FF76010096
:10038000000020205887945E1CE00340A5C3945AC7
:1003900000F00740FFFFFFFFFFFFFFFFFFFFFFFF32
:1003A000FFFFFFFFFFFFFFFFFFFFFFFFFFFFFFFF5D
:1003B000FFFFFFFFFFFFFFFFFFFFFFFFFFFFFFFF4D
:1003C000FFFFFFFFFFFFFFFFFFFFFFFFFFFFFFFF3D
:1003D000FFFFFFFFFFFFFFFFFFFFFFFFFFFFFFFF2D
:1003E000FFFFFFFFFFFFFFFFFFFFFFFFFFFFFFFF1D
:1003F000FFFFFFFFFFFFFFFFFFFFFFFFFFFFFFFF0D
:10040000FFFFFFFFFFFFFFFFFFFFFFFFDEF9FFFF23
:1004100010B5054C237833B9044B13B10448AFF33E
:1004200000800123237010BD3092FF1F00000000E8
:10043000481F0100084B10B51BB108490848AFF32D
:1004400000800848036803B910BD074B002BFBD0A0
:10045000BDE81040184700BF000000003492FF1FA5
:10046000481F01003092FF1F00000000F0B400F1AF
:100470002C06174F00243146031F00F15C0243F89D
:10048000044FB34241F8047F4FF0000542F8044F97
:10049000F5D100230F4A1049C0F89050C0F894508D
:1004A000C0F89850C0F89C50C0F8A050C0F8B050A8
:1004B000C0F8A420C0F8AC20C0F8A81080F8B8306C
:1004C00080F8B93080F8D030C0F8DC30F0BC70472C
:1004D0000000A040000048430000C8C270B5CD1D18
:1004E00000F1900400F1A00615F8010F28380BF078
:1004F0007FFC44F8040FB442F6D170BD2DE9F843F7
:1005000081461546042904D8DFE801F05B729FCECE
:100510002D00D9F8004009F13006C84609F1600500
:10052000002701E058F8044F306821460BF070FEB8
:100530000137214628B1D9F8B4000BF055FE00B1BF
:100540003460214628680BF045FE04366E4920B120
:1005500020460BF05DFE00B12C600C2F05F1040568
:10056000E0D1BDE8F883D0F8D830002BD1D1537A50
:10057000107A03F02F0300EB03200BF039FC6349E2
:100580000BF03EFDC9F82400EB7AA87A03F02F03A4
:1005900000EB03200BF02CFC5C490BF031FDC9F89B
:1005A00028006B7B287B03F02F0300EB03200BF06C
:1005B0001FFC56490BF024FDD9F80040C9F82C0067
:1005C000A9E7507A127AAB7AE97AD9F8004002EBBF
:1005D000002202EB034303EB0163C9F8DC306B7BC1
:1005E0002A7B1B0203F470631344C9F8D83092E7E6
:1005F000D0F8D830002B8CD1537A107A03F02F0327
:1006000000EB03200BF0F4FB40490BF0F9FCC9F8B8
:100610000000EB7A0446A87A03F02F0300EB0320D6
:100620000BF0E6FB39490BF0EBFCC9F804006B7BDF
:10063000287B03F02F0300EB03200BF0D9FB334999
:100640000BF0DEFCC9F8080065E7D0F8D830002BC5
:100650007FF45FAF537A107A03F02F0300EB03208F
:100660000BF0C6FB29490BF0CBFCC9F80C00EB7A68
:10067000A87A03F02F0300EB03200BF0B9FB23490A
:100680000BF0BEFCC9F810006B7B287B03F02F0336
:1006900000EB03200BF0ACFB1C490BF0B1FCD9F8CC
:1006A0000040C9F8140036E7D0F8D830002B7FF4AA
:1006B00030AF537A107A03F02F0300EB03200BF0D6
:1006C00097FB12490BF09CFCC9F81800EB7AA87A4A
:1006D00003F02F0300EB03200BF08AFB0B490BF018
:1006E0008FFCC9F81C006B7B287B03F02F0300EB09
:1006F00003200BF07DFB05490BF082FCD9F800408C
:10070000C9F8200007E700BF0000A04000007A44BD
:1007100090F8C000704700BF90F8BC00704700BF61
:1007200090F8C400704700BF90F8C800704700BF41
:100730000C2994BF50F82100002070472DE9F041AA
:100740000B4E8046041F00F12C0754F8045F31461D
:1007500028460BF03FFD30B1D8F8B41028460BF016
:1007600057FD00B12E46BC42EFD13046BDE8F081C6
:10077000000020412DE9F041D0F8B4704FF000089E
:10078000041F00F12C0654F8045F394628460BF08C
:100790003FFD084948B128460BF01CFD414620B1F9
:1007A00028460BF035FD00B1A846B442EBD14046D7
:1007B000BDE8F0810000A0402DE9F047D0F8B4700A
:1007C00082464FF00009041F00F12C064FF000088C
:1007D00054F8045F394628460BF01AFD0C4950B115
:1007E00028460BF0F7FC30B1484629460BF04CFA8E
:1007F00008F101088146B442EAD1CAF8D4804046E3
:100800000BF0F6FA014648460BF0FAFBBDE8F0871C
:100810000000A040D0F8D400704700BFD0F8D80046
:10082000704700BFF8B5D0F89860D0F894500446EF
:10083000314628460BF0CEFCD4F89C70002830D10D
:10084000D4F8A040314628460BF0E2FC50B13946BE
:1008500030460BF0BFFC28B1214630460BF0BAFC05
:1008600000282FD1394628460BF0D2FC48B1394632
:1008700030460BF0CDFC20B1214638460BF0AAFCE7
:1008800010BB304621460BF0C3FC48B13846214628
:100890000BF0BEFC20B1284621460BF0B9FC78B91C
:1008A000F8BD284639460BF095FCD4F8A040002846
:1008B000C8D0284621460BF08DFC0028C2D02C461B
:1008C0002046F8BD3446FBE73C46F9E7F8B5D0F8DA
:1008D0009860D0F894500446314628460BF098FCB6
:1008E000D4F89C70002830D1D4F8A0403146284676
:1008F0000BF070FC50B1394630460BF089FC28B142
:10090000214630460BF084FC00282FD1394628467A
:100910000BF060FC48B1394630460BF05BFC20B16F
:10092000214638460BF074FC10BB304621460BF0D4
:1009300051FC48B1384621460BF04CFC20B128460A
:1009400021460BF047FC78B9F8BD284639460BF034
:100950005FFCD4F8A0400028C8D0284621460BF000
:1009600057FC0028C2D02C462046F8BD3446FBE791
:100970003C46F9E710B50446D0F89810D0F894003A
:100980000BF082F9D4F89C100BF07EF9D4F8A0108B
:100990000BF07AF94FF07A510BF07EFA10BD00BFE0
:1009A0002DE9F8430026D0F8B480C0F89060814665
:1009B000041F00F12C0754F8045F414628460BF051
:1009C00027FC094950B128460BF004FC30B13046F1
:1009D00029460BF059F90646C9F89000BC42EAD105
:1009E0003046BDE8F88300BF0000A04003299ABF4D
:1009F00000EB8100D0F89400002070473E2998BF9A
:100A000080F8D010704700BFD0F8DC00704700BFFE
:100A100090F8B800704700BF90F8B900704700BF69
:100A2000C0F8CC10704700BF80F8B810704700BF06
:100A300080F8B910704700BF30B50F4CC0F8B41043
:100A400083B020460D4607F0EFFC204607F0ECFC93
:100A500028460AF077FD022502460B4600952046FF
:100A600007F03AFD204607F0DFFC204603B0BDE862
:100A7000304007F0D9BC00BFD087FF1F70B500F52C
:100A80005D550646083500F128042046E034FFF79E
:100A9000EDFCAC42F9D106F584750124284600210D
:100AA000FFF7C2FF214628460134FFF7A7FF3F2C7E
:100AB00005F1E005F2D143F2507400250548064ADD
:100AC000064B3555002130617161B261F3613046EA
:100AD00070BD00BF00007A44000048430000C8C257
:100AE00070B500F55D56083600F58474002507E002
:100AF000012520460021E034FFF79AFFB4420AD0D6
:100B00002046FFF785FF0028F3D02046FFF784FF3B
:100B10000028EDD170BD284670BD00BF70B500F54E
:100B20008D56083600F5847402E0E034B4420CD0EF
:100B30002046FFF76DFF05460028F6D02046FFF758
:100B400063FFC307F1D5284670BD0025284670BD58
:100B50002DE9F04143F2547300F55D56374600220B
:100B60008046C2500836143700F5847402E0E03441
:100B7000B4420DD02046FFF74BFF0028F7D02046A7
:100B80003D68FFF747FEE0342844B4423860F1D1B5
:100B900043F2547358F80300BDE8F08138B50C688F
:100BA00004F00F040134C4EBC40300EB43101546FA
:100BB0002830FFF793FC012D00D038BD064807F020
:100BC00033FC2146044807F07FFC0B210348BDE8B5
:100BD000384009F029BF00BFD087FF1F580401002B
:100BE000F0B50C6804F00F0504F0F004302C83B06D
:100BF0000F46064605F101053ED01ADC14B1202C43
:100C000033D10124072D1CD9C5EBC50506EB4515CD
:100C1000283528460121FFF707FF28460121FFF765
:100C200007FF3A462146284603B0BDE8F040FFF7EB
:100C300065BC402C1ED0502C17D1072D4FF004045A
:100C4000E2D8012AE0D129460C48019207F03CFC89
:100C5000019A0B48114609F0E7FE2146074807F0C4
:100C600033FC064807F0E0FBCEE7072DCCD8042C78
:100C7000CADCE6E70324C5E70224C3E7D087FF1FE9
:100C8000640401002DE9F043002383B006460360AD
:100C900000F58474012504E001353F2D04F1E004E2
:100CA00066D02046FFF7B4FE0028F5D04E4806F087
:100CB00001F829464D4805F0FDFF2046FFF770FE7C
:100CC0000AF040FC02460B46494805F0F3FF204677
:100CD000FFF734FD80462046FFF74CFD07464046AF
:100CE0000AF030FC8046384689460AF02BFC424622
:100CF0004B46CDE900013F4805F0DCFF00212046CE
:100D0000FFF774FE012180462046FFF76FFE07467D
:100D100040460AF017FC8046384689460AF012FC25
:100D200042464B46CDE90001334805F0C3FF20465B
:100D3000FFF736FE014630680AF0A6FF3060204615
:100D4000FFF770FDB1690BF045FA002833D120465A
:100D5000FFF7BCFDF1690BF05BFA00289CD0204640
:100D6000FFF7B4FD01353F2DF06104F1E00498D1A7
:100D700070680BF03DF8014630680BF041F971697D
:100D8000306004460BF044FA00B1746131692046CA
:100D90000BF020FA00B134610B2008F069F943F23E
:100DA0005073F35C60B99BB143F250730122F2546B
:100DB00003B0BDE8F0832046FFF734FDB061C6E71D
:100DC00053B943F250730022F25403B0BDE8F083EC
:100DD0000A4805F09DFFE7E7094805F083FF43F265
:100DE00050730022F254F0E750060100680401003D
:100DF000A4040100B8040100E4040100000501009E
:100E00003805010070B5114B836000F55D5506464D
:100E1000083500F5847402E0E034AC4213D020467B
:100E2000FFF7F6FD0028F7D02046FFF787FCB168F2
:100E30000BF0D0F90028EFD02046FFF77FFCE0341C
:100E4000AC42B060EBD1B06870BD00BF0000A04004
:100E500070B5002300F55D550646C360083500F502
:100E6000847402E0E034AC4213D02046FFF7D0FD9A
:100E70000028F7D02046FFF77DFCF1680BF0C8F999
:100E80000028EFD02046FFF775FCE034AC42F0605C
:100E9000EBD1F06870BD00BF0068704741607047DB
:100EA000F8B500F55D550F461646083500F5847413
:100EB00002E0E034AC420FD02046FFF7A9FD002845
:100EC000F7D020463946FFF7ABFD20463146E034E7
:100ED000FFF7B2FDAC42EFD1F8BD00BF2DE9F843FA
:100EE00043F24C7300F55D550027C7502E462A4A41
:100EF0002A4B426280464FF00009036208350C36E7
:100F000000F5847402E0E034A54213D02046FFF7D8
:100F10007FFD0028F7D03368013333602046FFF7A8
:100F200029FD1F490BF074F988B9E034A54207F197
:100F30000107EBD143F24C7358F80300C01B0AF0D1
:100F400057FF014648460BF05BF8BDE8F8832046A2
:100F5000FFF710FD014648460AF096FE81462046FE
:100F6000FFF7B4FCD8F820100BF052F970B9204606
:100F7000FFF758FCD8F824100BF02CF90028C2D049
:100F80002046FFF74FFCC8F82400BCE72046FFF7D7
:100F90009DFCC8F82000EAE700C0794400C079C48D
:100FA00000008CC2006A7047406A7047F8B500F5CF
:100FB0005D5507460026083500F5847402E0E034EC
:100FC000AC420FD02046FFF723FD0028F7D0204683
:100FD000FFF7F2FB014630460AF056FEE034AC4221
:100FE0000646EFD143F24C73F8580AF001FF014670
:100FF00030460BF005F8F8BD2DE9F04F06468FB0EE
:1010000096488B4605F0FEFD944805F0FBFD93489D
:1010100005F0F8FD43F24C733046F2580D92FFF79D
:1010200097FD73680C93074630680AF08BFA804688
:1010300030468946FFF7BAFF82463046B468F56805
:10104000FFF74CFF0AF07EFACDE90A012146284657
:101050000AF018FE82490AF01FFF0AF073FACDE980
:10106000080128460AF06EFACDE9060120460AF08A
:1010700069FACDE9040150460AF064FA0D9A0C9B16
:10108000CDE90201CDE90089114676483A4605F0DE
:10109000B9FD724805F0B6FD06F584764FF00109FA
:1010A0004FF0000A07E009F10109B9F13F0F06F11D
:1010B000E00600F0CB803046FFF7AAFC0028F2D013
:1010C0003046FFF725FB3046FFF726FB3046FFF79B
:1010D00027FB3046FFF728FB0821634809F0A4FCF2
:1010E0004946624807F0F0F9B9F1090F40F3B180C1
:1010F00002215F4809F098FC3046FFF751FC0AF0E6
:1011000021FA5FFA8BF802460B46CDF8008057486B
:1011100007F0E2F90121574809F086FC5546002402
:1011200020E00621544809F07FFC29464F4807F08B
:10113000CBF90221514809F077FC21463046FFF7F0
:10114000F7FA0AF0FFF9CDF8008002460B4647484F
:1011500007F0C2F901340121464809F065FC0C2C66
:1011600009D03D46092D05F10107DADC012144488B
:1011700009F05AFCD5E73D4807F056F909214148E6
:1011800009F052FC00213046FFF730FC0AF0DAF992
:10119000022502460B460095344807F09DF90A21C6
:1011A000394809F041FC01213046FFF71FFC0AF0E5
:1011B000C9F9009502460B462C4807F08DF90A2123
:1011C000324809F031FC29463046FFF70FFC0AF09F
:1011D000B9F9009502460B46244807F07DF90A212B
:1011E0002B4809F021FC03213046FFF7FFFB0AF0F2
:1011F000A9F9009502460B461C4807F06DF92146F7
:10120000244809F011FC3046FFF7FEFB00231022B2
:101210000146164807F018F908211F4809F004FC98
:101220003046FFF7FBFA0023014610220F4807F073
:101230000BF909F101090D4807F0F6F8B9F13F0F74
:101240000AF10C0A06F1E0067FF435AF0FB0BDE8F5
:10125000F08F01210A4809F0E7FB49E75006010039
:1012600000007A44E807010088080100D087FF1FCA
:10127000780D010094080100980801005C0A010043
:101280006C0A0100A0080100AC080100B8080100C8
:10129000C4080100D0080100E00801002DE9F04F6A
:1012A00085B000F584758A4603929B462E464FF022
:1012B000010806E008F10108B8F13F0F06F1E00669
:1012C0007BD03046FFF7A4FB0028F3D000230A228E
:1012D00051467D4807F0B8F801217C4809F0A4FB8D
:1012E00003980AF02FF900230246009376480B4634
:1012F00007F0F2F80121754809F096FB594672484B
:1013000007F0E2F80121714809F08EFB41466E4872
:1013100007F0DAF801216D4809F086FB00244FF050
:10132000020921463046FFF703FA0AF00BF9CDF81F
:10133000009002460B46644807F0CEF801340121C4
:10134000624809F071FB082C4FF00207E9D1002137
:101350003046FFF74BFB0AF0F5F8009702460B46C4
:10136000594807F0B9F80121584809F05DFB0121FF
:101370003046FFF73BFB0AF0E5F8009702460B46C4
:10138000514807F0A9F80121504809F04DFB3946B2
:101390003046FFF72BFB0AF0D5F8009702460B46C4
:1013A000494807F099F808F10108474807F03CF868
:1013B000B8F13F0F06F1E00683D101274FF0000995
:1013C00004E001373F2F05F1E00579D02846FFF70B
:1013D0001FFB0028F5D000230A2251463C4807F0A5
:1013E00033F80121394808F059F903980AF0AAF8AE
:1013F000CDF8009002460B46354807F06DF8012104
:10140000324808F04BF95946314807F05DF80121A0
:101410002E4808F043F939462D4807F055F80121C8
:101420002A4808F03BF900244FF0020821462846DC
:10143000FFF77EF90AF086F8CDF8008002460B46E9
:10144000234807F049F801340121204808F026F923
:10145000082C4FF00206E9D100212846FFF7C6FA12
:101460000AF070F8009602460B46194807F034F867
:101470000121164808F012F901212846FFF7B6FAB3
:101480000AF060F8009602460B46114807F024F86F
:1014900001210E4808F002F931462846FFF7A6FA66
:1014A0000AF050F8009602460B46094807F014F877
:1014B0000137074806F0B8FF3F2F05F1E00585D159
:1014C00005B0BDE8F08F00BFD087FF1F64040100A6
:1014D000B487FF1F0A4A0B49106ED36D03FB00F35C
:1014E0004FF47A7000FB03F0642310B50B600AF030
:1014F0007FFC0549054C0AF083FD206010BD00BF4C
:1015000010CCFF1F3087FF1FE4388E3E34CDFF1F05
:1015100038B5044608460D460BF0B2FC2368024677
:1015200029465B68204698470546204606F07CFF22
:10153000284438BD2DE9F8434348444E444F454CB8
:1015400005F060FB444B454A454846495A60112521
:101550001D70454D454AD8601E6100204FF4FA7653
:101560009F619C62424F434C1D63434DD961DA62D7
:101570004FF07C51414A98639E863C200C26DF63E5
:101580001C643F4F3F4C5D653F4DD9641A65022195
:101590000122A3F8A4009E65002064265F62C3F8C0
:1015A000C4404FF4967732241D625D615D6440F65D
:1015B0001C45597059721A72DA6583F84800DF6663
:1015C0005F669C661E664FF00A091D6741F20408BB
:1015D000C3F88000C3F88410C3F88800C3F89040B3
:1015E000C3F8AC404FF05A0CC3F8A8004FF47A7E11
:1015F000C3F8B420C3F8B810244F254D83F8C82091
:1016000041F2883183F8C920FF2440F2D6620520D8
:10161000C3F8BC60C3F87490C3F87880C3F87CC08A
:10162000C3F894E0C3F89870C3F89C50C3F8B04076
:10163000A3F8C200C3F88C10A3F8C010A3F8A02030
:10164000A3F8A220BDE8F883EC08010000004040A8
:1016500033338340CDCCCC3D10CCFF1F20A10700FD
:1016600066668640CDCC4C40000020C1000082421E
:10167000000020420000A0400AD7233D9A997940FB
:10168000333373409A99993ECDCC4C3E000068426A
:1016900000C02044F0B5002185B00F2007F0F6FC13
:1016A00000210E2007F0F2FC0021112007F0EEFCD3
:1016B0000021102007F0EAFC0021122007F0E6FCD0
:1016C0000021132007F0E2FC01210B2007F0DEFCD3
:1016D00001210C2007F0DAFC0121142007F0D6FCD0
:1016E0000121152007F0D2FC0121162007F0CEFCC5
:1016F0000121172007F0CAFC0121052007F0C6FCD4
:10170000954C964D0121062007F0C0FC01210D20CB
:1017100007F0BCFC20880AF067FB0146162007F0A2
:101720001FFC20880AF060FB0146172007F018FC18
:1017300020880AF059FB0146052007F011FC20889B
:101740000AF052FB00240146062007F009FC009431
:101750002346834A8349844805F0D4FCE6B23246E6
:101760007E49814805F07CFC2B797C497E486FF3EB
:101770000003013432462B7105F068FC082CEDD1D2
:101780000924E6B232467549774805F069FC2B79A1
:101790007249754843F00103013432462B7105F05C
:1017A00055FC0D2CEDD1714C4FF0FF32206810210B
:1017B00006F074F820684FF0FF32102106F046F86A
:1017C00020684FF0FF32022106F054F820684FF0F5
:1017D000FF32022106F058F800220F21206806F09F
:1017E00067F80C21624809F01FF9624806F01CFEF8
:1017F0001121614809F018F95E4806F015FE40F223
:10180000836007F029FD5B4806F00EFE17215B4858
:1018100009F00AF9574806F007FE594B1B789A065B
:1018200000F1D280564B1B781B0700F1D980544B36
:101830001B785F0700F1E080514B1B789E0700F199
:10184000E780504B1B781D0600F1EE804D4B1B7856
:101850005C0600F1F5804B4B1B78980600F1FC808C
:10186000484B1B78590700F10381464B1B781A0738
:1018700000F10A81434B1B789B0700F111813D4821
:1018800006F0D2FD72B6404A4CF220534DF62811B4
:101890002024138023461180013BFDD13B4D3C4861
:1018A0003C4900234FF480562E8003800B8032F891
:1018B0000E3C9BB243F0D30322F80E3C62B69D204F
:1018C00008F076F821463448344D09F0ADF829483F
:1018D00006F0AAFD05F1CC062F462C46601B07F04A
:1018E0000FF804F8010BB442F8D13B78112B01D06A
:1018F000FFF720FE042005F0D9F8294B29482A4D8E
:1019000000221A6005F0A4F801210D2007F0AAFBBF
:10191000F96D2648FFF7C2FAFA6C97F84810234889
:10192000FFF7BEFA2248234B046803941B68224940
:10193000224A039E006802901268214C2E6081FBAF
:101940000301DB171F48A3EB21130299216013FB4E
:1019500002F3038005B0F0BD3487FF1FE4CCFF1F06
:1019600020CFFF1F20A1070084CDFF1F64CDFF1FE4
:101970000C090100D087FF1F1C090100300901007C
:1019800001F0074000F007400E200540042005400C
:101990000620054016200540340A010010CCFF1F28
:1019A0008492FF1FFC92FF1F68CBFF1FFC93FF1F59
:1019B00048CFFF1F5487FF1F1F85EB515087FF1F24
:1019C00070CBFF1F1CCDFF1F2121394809F02CF8D7
:1019D000384806F029FD384B1B781B077FF527AFE9
:1019E0000C21364809F020F8324806F01DFD324B34
:1019F0001B785F077FF520AF0E21314809F014F8FE
:101A00002C4806F011FD2C4B1B789E077FF519AF73
:101A100017212C4809F008F8264806F005FD2A4B46
:101A20001B781D067FF512AF0E21284808F0FCFF39
:101A3000204806F0F9FC244B1B785C067FF50BAFC1
:101A40001221234808F0F0FF1A4806F0EDFC1E4B67
:101A50001B7898067FF504AF13211E4808F0E4FFB9
:101A6000144806F0E1FC184B1B7859077FF5FDAED2
:101A70001C21194808F0D8FF0E4806F0D5FC124B7F
:101A80001B781A077FF5F6AE1921144808F0CCFF31
:101A9000084806F0C9FC0C4B1B789B077FF5EFAE9E
:101AA00018210F4808F0C0FF024806F0BDFCE6E62A
:101AB00048090100D087FF1F01F007406C090100B1
:101AC0007C0901008C09010000F00740A409010015
:101AD000B4090100C8090100DC090100FC0901008A
:101AE000180A010070B5464C464D4748E668002389
:101AF0002B70FFF7ADF9014630460AF06BFB08B1D9
:101B000004232B704048FFF77DF921690AF062FB3E
:101B100018B12B7843F010032B703B48FFF742FAC3
:101B2000E16A0AF075FB18B12B7843F040032B7083
:101B3000002335486B70FFF737FA216B314E0AF0FE
:101B400049FB08B10123737000232F48EB70FFF7A6
:101B50007FF905462C482B4EFFF754F901462846DD
:101B60000AF090F8616C0AF053FB08B10123F3709E
:101B7000264D254800232B70FFF76AF9A16A064617
:101B8000E0680AF07FF8014630460AF041FB08B1F0
:101B900004232B701C48FFF735F9A16A064620691B
:101BA0000AF072F8014630460AF014FB18B12B789F
:101BB00043F010032B701448FFF7F4F9216C06462C
:101BC000E06A0AF05FF8014630460AF021FB18B1DE
:101BD0002B7843F040032B7000230B486B70FFF70A
:101BE000E3F9216C0546206B084C0AF04DF80146DC
:101BF00028460AF0EFFA08B10123637070BD00BFF8
:101C000010CCFF1FF8CBFF1FFC93FF1F5092FF1F4C
:101C1000514B1B68002B74D0F0B5504D2B68053329
:101C2000B3F57A7F83B040F38E80002300272B60CA
:101C30004B4CD4F8AC000AF0DBF80646D4F8B00000
:101C40000AF0D6F831460AF01DF839460AF024F9B0
:101C500044490AF0D5F931460AF016F80AF0E2FADA
:101C60000146062007F07EF802213F4808F0DCFE1E
:101C70003E4806F0D9FB06213D4808F0D5FE28680D
:101C80000AF0B6F83B490AF007F909F05BFC0226B6
:101C900002460B460096354806F01EFC0D213648DC
:101CA00008F0C2FED4F8AC000AF0A2F80746286893
:101CB0000AF09EF82F490AF0EFF80546D4F8B00074
:101CC0000AF096F8394609F0DDFF014628460AF089
:101CD000E3F824490AF094F9394609F0D5FF09F0F0
:101CE00031FC009602460B46204806F0F5FB3146D3
:101CF0001D4808F099FE1D4803B0BDE8F04006F00D
:101D000093BB174B1D4AD3F8AC10D3F8B030126810
:101D10005B1A632B0BDD1A4803FB02F380FB030203
:101D2000DB17C3EB62131944062007F01BB81548F4
:101D300003FB022380FB0302DB17C3EB22121144D7
:101D4000062007F00FB818462B600AF051F8094931
:101D50000AF0A2F807466BE78092FF1FDCCCFF1F5A
:101D600010CCFF1F0000C842780D0100D087FF1F74
:101D7000580A0100CDCCCC3D600A01003087FF1F1E
:101D80001F85EB51CBF08D2830B59F489F4C85B017
:101D900006F04AFB9C4806F047FB9B4806F044FBD4
:101DA0000D219B4808F040FED4F8A830012B11D03B
:101DB000984C9548217800230A2206F045FB2378A9
:101DC000052B67D8DFE813F006010B0110011501A0
:101DD0001A0101010921904808F026FE8F48FFF7FB
:101DE00011F821690AF0F6F918B10F218C4808F0B2
:101DF0001BFE8A48FFF72CF8E1680AF009FA18B1CF
:101E00000E21884808F010FE8448FFF721F80546A7
:101E10008248FEF7F7FF0146284609F033FF616C60
:101E20000AF0F6F918B111217F4808F0FDFD7B4852
:101E3000FFF754F8E16A0AF0EBF918B10C217B487E
:101E400008F0F2FD7548FFF749F8216B0AF0C2F976
:101E500018B10D21764808F0E7FD764B6F481B68F6
:101E6000012B00F03E81FEF7CDFF2169674D0AF09E
:101E7000CFF978B16948FEF7EBFFE9680AF0AAF9F3
:101E800040B1644B1B78052B00F03C8108216A4867
:101E900008F0CAFD0221694808F0C6FD122007F0CB
:101EA000E7F8012800F0E880112007F0E1F80128A8
:101EB00000F0EC80624B1C68012C00F0F0800221E5
:101EC0005E48604C08F0B0FD5F4B4F48196806F063
:101ED000FBFA4D4806F0A8FA04215C4808F0A4FD7E
:101EE0000B2007F0C5F8002301460A22464806F0F9
:101EF000ABFA0C2007F0BCF8002301460A22424846
:101F000006F0A2FA142007F0B3F8002301460A22D3
:101F10003D4806F099FA152007F0AAF80A22002396
:101F20000146394806F090FA0621494808F07CFD40
:101F30002368DD074FF001014CBF4648464808F0D2
:101F400073FD236898074FF001014CBF4148424898
:101F500008F06AFD23685A074FF001014CBF3D4865
:101F60003D4808F061FD23681B074CBF39483A48DB
:101F7000012108F059FD0421384808F055FD1120D1
:101F800007F076F8002301460A221F4806F05CFAA3
:101F9000102007F06DF8002301460A221A4806F0C7
:101FA00053FA122007F064F8002301460A2216486B
:101FB00006F04AFA132007F05BF8002301460A22D4
:101FC000114806F041FA05B030BD0721244808F059
:101FD0002BFD5FE70621234808F026FD5AE707217D
:101FE000214808F021FD55E70721204808F01CFD95
:101FF00050E708211E4808F017FD4BE70B211D484C
:1020000008F012FD46E700BFD087FF1F10CCFF1F6E
:10201000700A010004CCFF1F800A0100FC93FF1F1F
:102020008C0A01009C0A0100AC0A0100C00A0100F0
:10203000D00A01008C92FF1F040B0100780D0100F3
:10204000F8CCFF1F54CDFF1F5C92FF1F7C0B0100DB
:10205000840B01008C0B01005C190100900B010046
:10206000400B0100100B0100180B01002C0B0100AC
:10207000340B0100200B01000E21254808F0D4FC90
:10208000112006F0F5FF01287FF414AF0A21214842
:1020900008F0CAFC204B1C68012C7FF410AF112102
:1020A0001E4808F0C1FC21461D4808F0BDFC1D4B30
:1020B0001D4A1B680393039B1068C01A09F094FE25
:1020C0001A4909F0E9FE09F03DFA002502460B46DF
:1020D0000095174806F000FA2146114808F0A4FCC4
:1020E000EDE6FEF78FFE616A0AF092F800283FF4F1
:1020F000CDAE16210F4808F097FC0A210E4808F0D3
:1021000093FCC7E60A210C4808F08EFCC2E600BF2B
:10211000480B0100580B0100F8CCFF1F640B0100B5
:10212000780B010048CFFF1F28CDFF1F6F12833AA5
:10213000D087FF1FE00A0100F80A01002DE9F04FE7
:10214000944C954FD4F88430012B8DB000F04A8127
:10215000032B52D0914E924DD4F880309148012BF0
:1021600009BF2968296801F10041296005F092FF43
:102170003368002B40F0CF808A4805F061FFD4F827
:1021800084303860012B064600F0D28086490AF080
:102190003FF878B9854930460AF01CF850B9844AAE
:1021A000844B12680B920B9A1A6000232B600DB0BF
:1021B000BDE8F08FDFF8F8817E4CD8F800300A9344
:1021C0000A9823687C4FC01A09F00EFE314609F0C8
:1021D00063FE7A4909F014FF784909F011FF396864
:1021E00009F052FDD8F800300993099B23600023C1
:1021F00038602B600DB0BDE8F08FDFF8C881704DFE
:10220000D8F80000654E012300220F212B6005F055
:102210004FFB2B68012B336800F00281002B40F04C
:10222000A5810021D8F80000DFF8B491654D05F0D4
:1022300091FB33681FFA80FBC9F800B0002B40F017
:102240007A810021D8F80000554DDFF878A105F01B
:1022500007FBB4F8A23040F6E44101FB0BF1B1FBFF
:10226000F0F0C01A00B209F0C3FD57498346D4F814
:10227000980009F011FE0146584609F0C1FED9F850
:1022800000302860632BDFF858B100F34881002349
:102290002B603368002B3FF45FAF02214B4808F0FE
:1022A000C3FBD9F80020D8F8000040F6E443002131
:1022B00003FB02F805F0D4FAB8FBF0F009F094FD46
:1022C0008046B4F8A20009F093FD0146404609F0AB
:1022D000D9FC09F037F94FF0020802460B46CDF859
:1022E00000803B4806F0F8F84146384808F09CFB6F
:1022F000286809F027F9CDF8008002460B463448DB
:1023000006F0EAF84146334808F08EFB41462F4874
:1023100008F08AFB20E7234805F092FE09F012F945
:10232000022602460B460096294806F0D5F823E718
:10233000234B1B68012B00F02581022B7FF435AF66
:10234000254909F065FF30B92449304609F042FFBC
:10235000002800F04681DFF85880164CD8F800308D
:10236000079307982368144FC01A09F03DFD3146C2
:1023700009F092FD114909F043FE104909F040FEB1
:10238000396809F081FCD8F800300693069B386064
:1023900023600AE710CCFF1FFCCBFF1FF4CBFF1F0D
:1023A00048CDFF1FFCCCFF1F0000FA430000FAC31A
:1023B00048CFFF1F5892FF1F34CDFF1F00007A4403
:1023C0004887FF1F64CDFF1F17B7D138780D010074
:1023D000D087FF1FD40B010000C82F4800A08CC677
:1023E00070CDFF1F3D689949284609F0F3FE30B1D2
:1023F0002846974909F00CFF00287FF4FEAEDFF86D
:102400005C82944DD8F80000934E022300220E21E6
:102410002B6005F04DFA2B68012B33687FF4FEAE7C
:10242000002B40F000810021D8F80000DFF8709206
:102430008A4D05F08FFA33681FFA80FBC9F800B0A7
:10244000002B40F0D5800021D8F80000844D05F025
:1024500007FAB4F8A03040F6E44A0AFB0BFBBBFBDA
:10246000F0F0C01A00B209F0C3FC7E498346D4F8EC
:102470009C0009F011FD0146584609F0C1FDD9F84C
:10248000003028600021D8F800000AFB03FA05F0AC
:10249000E7F9B4F8A030BAFBF0F00FFA80FAC3EB1A
:1024A0000A03002BB4F8C220B8BF5B429342BCBF02
:1024B00000232B603368002B3FF44EAE02216A48A4
:1024C00008F0B2FAD9F80020D8F8000040F6E4434A
:1024D000002103FB02F805F0C3F9B4F8A010B8FB23
:1024E000F0F000B2411A614805F0EEFF02215E48AB
:1024F00008F09AFA286809F025F84FF00208024619
:102500000B46CDF80080594805F0E6FF03215848F6
:1025100008F08AFA4146544808F086FA1CE6DAF8D0
:102520000000002105F09CF9DBF800306438984287
:10253000FFF4ADAEADE60021286805F091F940F654
:10254000E44100230A2201FB0BF1B1FBF0F1474803
:1025500005F07AFF0221444808F066FAB4F8A210A8
:10256000424805F0B1FFD9F800B06AE63F4805F0EF
:102570005BFF0C213F4808F057FA0C213E4808F059
:1025800053FA4EE63D4909F043FE58B93C493046FE
:1025900009F020FE30B93B4A3B4B12680592059A80
:1025A0001A6002E6DFF8DC80374CD8F8003004937C
:1025B00004982368354FC01A09F016FC314609F01B
:1025C0006BFC334909F01CFD314909F019FD3968EC
:1025D00009F05AFBD8F800300393039B386023605E
:1025E000E3E5284A284B12680892089A1A60DCE54D
:1025F0000021286805F034F940F6E44100230A225E
:1026000001FB0BF1B1FBF0F1184805F01DFF0121B2
:10261000204808F009FAB4F8A010144805F054FF57
:10262000D9F800B00FE7114805F0FEFED4F8843069
:10263000012B4FF00B010CBF1748184808F0F4F9B4
:102640000C210D4808F0F0F9EDE600BF007094464B
:10265000007094C64887FF1FF4CBFF1F64CDFF1F97
:1026600048CDFF1F17B7D138780D0100D087FF1F65
:10267000C00B0100C40B0100B00B01000000FA43C5
:102680000000FAC348CFFF1F5892FF1F34CDFF1F31
:1026900000007A446C0A0100980B0100A40B0100B1
:1026A00070CDFF1F2DE9F04F9A4C236885B0002BA9
:1026B0007CD0994DDFF86882984FDFF8AC92D5F85E
:1026C0008830954E012B00F08C80D7F800A0D6F80A
:1026D00060B0F46D924E04FB0BF44FF47A7000FB83
:1026E00004F009F085FB8F490446504609F0D4FBFD
:1026F000214609F085FC8C4909F0CEFB09F092FDDA
:102700006328C8F800004CDD2046864909F078FCB3
:10271000642338603360D9F80030002B3ED0D5F800
:1027200084307D4C012B00F08A80032B00F0E08088
:10273000022B00F0E48002217C4808F075F97C4B04
:10274000186808F0FFFE022402460B460094794800
:1027500005F0C2FE2146784808F066F92146734824
:1027600008F062F9D8F80010724805F0ADFE0621B5
:10277000724808F059F938686A4909F08DFB08F089
:10278000E1FE009402460B466A4805F0A5FE0321CF
:102790006B4808F049F9674805F046FE05B0BDE80A
:1027A000F08F0028BCBF00233360B4E7654E5A4D5C
:1027B00033680293029A42F228339A424CD8336823
:1027C0000393039A42F210739A424CD8D5F888309A
:1027D000DFF84C81514FDFF890914F4E012B7FF481
:1027E00074AF5948FEF7E2FB5849D6F870A0746FF1
:1027F00009F052FB09F03CFDB26FF36FD5F860B001
:10280000CAEB02021B1B80B29A42CAEB0000C6BF91
:1028100003FB00000132584390FBF2F02044EC6DC2
:1028200000FB0BF004FB00F000EB8000400009F01F
:10283000DFFA3C4909F0E4FB824638604AE7444B42
:102840001B68012B4FF00A010CBF4248424808F0B8
:10285000EBF8D4F8843068E73B48EA6C95F8481008
:10286000FEF71EFBABE73848FEF7A0FB37492F6F9A
:102870006E6F09F011FB09F0FBFCAA6FEB6FD21B26
:102880009B1B80B29A42A0EB07003DDD03FB0000DA
:10289000531C90FBF3F31E44286EEB6DDFF8808031
:1028A000DFF8C490C8F8006000FB06F003FB00F0FE
:1028B00000EB8000400009F09BFA1A49174F09F01D
:1028C0009FFBD9F80030386001222260002B3FF4D2
:1028D000F6AE0221154808F0A7F8164805F0A4FD49
:1028E00059211E4808F0A0F8124805F09DFDE6E6C3
:1028F00010211B4808F098F8D5F8843018E7072114
:10290000184808F091F816E703FB00F393FBF2F385
:102910001E44C1E7ECCCFF1F10CCFF1F34CDFF1FBE
:102920003087FF1FE4388E3E0000C842780D01005A
:10293000FCCBFF1FD087FF1FD40B0100680C0100E8
:10294000700C010048CFFF1FFC93FF1F00007A446A
:102950004887FF1F340C0100400C0100D80B010018
:102960004C0C0100600C01002487FF1F30B51120C2
:1029700083B006F07DFB012818D0122006F078FB0A
:10298000012813D000210B2006F06CFB00210C2045
:1029900006F068FB0021152006F064FB2649274B52
:1029A0000120002208701A6003B030BD01211520FB
:1029B00006F058FB224A234C234B1268D4F88C10A3
:1029C00001921B68019A1D4D0B4493424FF0020186
:1029D000296005D901210C2006F044FB03B030BD6D
:1029E000D4F8940009F004FA184B196809F0F2FBC6
:1029F0000028EFD101210B2006F034FB94F8C830F9
:102A000003242C6043B10C4B02221A7000210C20CD
:102A100006F028FB03B030BD122006F029FB012888
:102A200008BF054B4FF0110008BF1C7006F020FBDB
:102A30000128EBD1E7E700BF04CCFF1FF892FF1F8E
:102A400048CFFF1F10CCFF1F68CBFF1FFCCBFF1F21
:102A5000F0B5684E684D34682B689C4287B039D019
:102A600014F0010155D014F0020149D014F0040112
:102A70003DD0E3070ED52B68DF070BD45F4F3A68D4
:102A8000002A00F082805E4B1B680193019B9342F9
:102A90006DD83468A0070DD52B6899070AD4594F13
:102AA0003A68002A4CD0564B1B680393039B934211
:102AB00038D8346862070DD52B685B070BD4524FAA
:102AC0003A68002A7ED04E4B1B680593059B9342C3
:102AD00068D834680CB107B0F0BD2146162006F066
:102AE00041F92146172006F03DF907B0F0BD052059
:102AF00006F038F92B68346803F0FB032B60B8E765
:102B0000172006F02FF92B68346803F0FD032B60C3
:102B1000ACE7162006F026F92B68346803F0FE03B4
:102B20002B60A0E7394B1720D3F8901006F01AF964
:102B30002B68346843F0020300222B603A60B9E747
:102B4000334805F071FC0C21324807F06DFF304826
:102B500005F06AFCFF21172006F004F9284B2E4AE5
:102B600019680291029912680A443A609CE7274B5F
:102B70001620D3F8901006F0F5F82B68346843F06F
:102B8000010300222B603A6084E7FF21162006F043
:102B9000E9F81B4B204A19680091009912680A4411
:102BA0003A6071E7194B0520D3F8901006F0DAF877
:102BB0002B68346843F0040300222B603A60002C39
:102BC00089D18AE7124805F02FFC0C21134807F041
:102BD0002BFF0F4805F028FCFF21052006F0C2F866
:102BE000074B0D4A19680491049912680A443A6027
:102BF0006AE700BFF892FF1F54CDFF1FE0CCFF1F14
:102C000048CFFF1FF0CCFF1FF4CCFF1F10CCFF1FDD
:102C1000D087FF1F740C01003887FF1F840C010050
:102C20002DE9F047544EDFF87481DFF87491306875
:102C3000524D00220F2104F03BFE002301222221ED
:102C40004F48C8F80030C9F8002007F0EDFED8F86A
:102C50000030132B22DC40F6E44700213068B5F841
:102C6000A0A004F077FE00210446306804F0F8FDCF
:102C7000A4B2012107FB04F4B4FBF0F4414854442E
:102C8000A5F8A04007F0D0FE642006F027FAD8F897
:102C900000300133132BC8F80030DEDDB5F8A0306A
:102CA000394A3A48A2FB03129B1A02EB5303C3F3BF
:102CB0000F131946A5F8A03005F006FC1D21344875
:102CC00007F0B2FE0221334807F0AEFE2F4805F0B0
:102CD000ABFB00231A460E213068C8F8003004F020
:102CE000E7FD022322212648C9F8003007F09CFEA8
:102CF000D8F80030132B22DC40F6E447002130687E
:102D0000B5F8A29004F026FE00210446306804F0D5
:102D1000A7FDA4B2012107FB04F4B4FBF0F41948A9
:102D20004C44A5F8A24007F07FFE642006F0D6F9D7
:102D3000D8F800300133132BC8F80030DEDDB5F8C9
:102D4000A230114A1148A2FB03129B1A02EB530353
:102D5000C3F30F131946A5F8A23005F0B5FB1D21EA
:102D60000D4807F061FE02210A4807F05DFE0748A2
:102D7000BDE8F04705F058BB64CDFF1F10CCFF1F26
:102D8000940C0100D80C010087611886D087FF1FC2
:102D9000B80C0100780D0100DC0C01006492FF1FEB
:102DA0004887FF1F2DE9F843C04BC14CC14E1B683B
:102DB000B06D40F2513108222160E271002B40F0E9
:102DC0006F8109F015F8B169054609F065F8BA494F
:102DD000B84F09F061F809F04BFA80B20312637240
:102DE000B64AB74B12681B682072A37228461B12A2
:102DF0001512E3722273F169657309F04DF8AE495B
:102E0000AB4D09F049F809F033FA83B21A1229469A
:102E1000AC48A373E27304F06DFBAB4AAB4B126892
:102E20001988A172D3B2237203EB83035B0023736F
:102E300002EB820343F3D7134FEA212E12124FF015
:102E400008084FF00009294663739E4884F80BE098
:102E500040F255336272236084F8078084F80E9044
:102E600084F80F9004F046FB40F2563398482360F4
:102E700084F80780FEF710F8964909F00DF809F07C
:102E8000F7F920729248FEF707F8924909F004F822
:102E900009F0EEF9904A8F49C0F307236372106876
:102EA00009F0AEF809F0BEF940FA08F3A0728848BC
:102EB000E372FEF713F8804908F0EEFF09F0B2F96B
:102EC00020738348FEF70AF87B4908F0E5FF09F014
:102ED000A9F940F30720294660737A4884F80E90D8
:102EE00084F80F9004F006FB022006F0F7F87B4A06
:102EF0007B4B11782172517890786172D178A072F1
:102F00001A789878E172597822736173DA78A0732D
:102F100040F25A3329466B48E273236084F80780F5
:102F200004F0E8FA6F4B67481A7822725A78627296
:102F30009A78A272DA78E2721A7922735A796273F5
:102F40009A79DB79E373294640F25E33A2732360FA
:102F500084F8078004F0CEFA022006F0BFF8624B36
:102F600058481A7822725A7862729A78A272DA787D
:102F7000E2721A7922735A7962739A79DB79E37370
:102F800029464FF45C73236084F80780A27304F031
:102F9000B1FA564B1B68012B00F0AE80022006F000
:102FA0009DF8336E2373022500221B12284640F23F
:102FB0007338082763732272012362729922A27305
:102FC000E372E373A572C4F80080E77106F086F837
:102FD0003F48C4F80080E771FDF714FF444908F04A
:102FE0005BFF09F045F920723948FDF70BFF4049B6
:102FF00008F052FF09F03CF9C0F30723344863722C
:10300000FDF726FF3A4908F047FF09F031F9A072B1
:103010002F48FDF71DFF364908F03EFF09F028F95B
:10302000C0F307232A48E372FDF7BEFF314908F0D9
:103030002BFE09F01DF920732548FDF7B5FF2D493A
:1030400008F022FE09F014F9C0F307232048637347
:10305000FDF7A8FF274908F017FE09F009F9A0734A
:103060001B48FDF79FFF234908F00EFE09F000F909
:103070000F49C0F307231348E37304F03BFA2846D3
:1030800006F02CF8F26D336EE57112FB03F3C3F317
:10309000072140F27932237261722260BDE8F88321
:1030A00008F0A6FE716A05468FE600BF8C92FF1FEE
:1030B0006892FF1F10CCFF1F000020414CCDFF1F66
:1030C0007C92FF1F84CDFF1F3087FF1F3687FF1FB5
:1030D000FC93FF1F0000C842FCCBFF1FF8CBFF1F73
:1030E0005092FF1F5887FF1F6087FF1FF8CCFF1FFC
:1030F00000007A44339388432648FDF783FE796DB8
:1031000008F0C2FD81462348FDF7A2FE014648466D
:1031100009F060F800283FF441AF40F2C3331D4886
:1031200085F807802B60FDF76DFE3F6D394609F08D
:1031300051F8C8B11849384608F0AEFE09F098F8C1
:1031400080B240FA08F368722B720023012704252D
:10315000032212491248A772E57222736373A373A4
:10316000E37304F0C7F919E70A48FDF74BFE0A4973
:1031700008F092FE09F07CF8C0F3072305482B7293
:10318000FDF740FE044908F087FE09F071F8687207
:10319000DBE700BFFC93FF1F00007A446892FF1F2B
:1031A00084CDFF1F38B5174C174A2368101D12F83D
:1031B000011F904241EA0323F9D12360134C03F12C
:1031C00000432360124BD3F88430022B11D0114BF3
:1031D0001B68012B00D038BD0F4805F025F9216888
:1031E0000D4805F071F903210C48BDE8384007F09F
:1031F0001BBC20680A4D08F0FBFD2860FEF79EFF0F
:10320000E5E700BF50CDFF1F5FCBFF1FF092FF1F10
:1032100010CCFF1F60CDFF1FD087FF1F080D0100DE
:1032200048CDFF1F30B54B4C4B4883B0214604F0CE
:1032300059F823683C2B68D0A3F19A02C52A0AD911
:1032400003F47F63B3F5B87F444D14D02B68012B92
:103250001DD003B030BD424B404D1B68012B50D0F8
:1032600000223C493F48FDF7BBFC236803F47F6321
:10327000B3F5B87FEAD13A4B1B68012B49D0002245
:1032800034493848FDF78AFC2B68012BE1D1344BD7
:103290001B68012BDDD1344B34481B6801930A2293
:1032A0000023019905F0D0F822682A4B002ADB7927
:1032B00049DB2F492F4809F0B7FD2E4809F0E0FD02
:1032C00001462C4807F0B0FB2568224B15F08045DD
:1032D0002AD1DB798BB1631927491A7A254809F07D
:1032E000A3FD244809F0CCFD0146224807F09CFBD1
:1032F0000135E379EDB2AB42EDD81C4805F094F806
:10330000A7E72A68012AABD1ABE7FFF74BFF236899
:1033100092E72A680F491348A2F10102B2FA82F239
:103320005209FDF73BFC91E7144D124C0FCD0FC431
:1033300095E8030044F8040B204620F814191521E1
:1033400007F072FBD9E70E490A4822F0604209F003
:103350006BFDB2E758CBFF1F84CDFF1F2487FF1FF3
:1033600060CDFF1FFC93FF1F48CFFF1FD087FF1FBB
:10337000340D010074CBFF1F600D0100480D0100EA
:103380000C0D0100A24B1B78052B00F0A1802DE94C
:10339000F04FA04CA04EA14DE26E636EA04832608B
:1033A00083B02B60FDF700FE216B08F013FF08B11E
:1033B00000232B609A48FDF7F5FDE16A08F028FF2D
:1033C00010B1002333602B609548FDF741FDE168A3
:1033D00008F01EFF08B100232B609148FDF738FD6F
:1033E000E16808F015FF08B100232B608C48894F75
:1033F000FDF708FD216908F0EDFE00286ED00023DE
:1034000033602B68854F002B53DD8548DFF804823D
:10341000FDF7C8FDA16B08F0DDFE002840F0C48078
:10342000804B7F481B687B4F012B00F0FD80FDF730
:103430000FFD216A8046A06908F024FC0146404641
:1034400008F0E6FE002834D0286808F0D1FC824657
:103450007348FDF7FDFCD7F818808346396A40466B
:1034600008F010FC8146B86E08F0C2FC0446786E85
:1034700008F0BEFC214608F005FC494607465846C0
:1034800008F000FC0146384608F006FD49460746AC
:10349000404608F0F7FB0146384608F0B1FD2146EA
:1034A00008F0F2FB0146504608F0ECFB08F0BAFECB
:1034B00028603368584A002BAFBF2B682B68002167
:1034C0001160002B01DA00232B6003B0BDE8F08F00
:1034D0005149524A00230B60136070475048FDF772
:1034E00091FCF96908F076FE002888D13368DFF88E
:1034F0002891002B85DD4A48FDF756FDF96B08F051
:1035000087FE002840F0B3804548424FFDF77AFC23
:10351000216908F07DFE002800F09F804048DFF818
:10352000F480FDF76FFCD4F8C4100746E06908F09A
:10353000ABFB0146384608F04DFE00283FF461AF72
:10354000306808F055FC82463548FDF75BFC834641
:10355000D8F86C00D8F81C7008F04AFC394681464F
:10356000584608F08FFB49468346002008F08AFB46
:103570000146584608F090FCD8F8C41083463846F7
:1035800008F082FB394608F07DFB0146584608F0FA
:1035900037FD494608F078FB0146504608F072FBBB
:1035A00008F040FE30602CE7386808F021FC8346C4
:1035B0001B48FDF7F7FC0190D8F86400D8F830A05C
:1035C00008F016FC019B81465146184608F05AFB4C
:1035D00049460190002008F055FB019B0146184622
:1035E00008F05AFC51460190D8F8380008F04AFB20
:1035F000019B0146184608F003FD494608F044FBCC
:103600000146584608F03EFB08F00CFE386007E71C
:1036100004CCFF1F10CCFF1F4CCDFF1F7C92FF1F5F
:10362000FC93FF1F8C92FF1FFDF712FC216A80465E
:10363000606A08F027FB0146404608F0E9FD0028D3
:103640003FF437AF286808F0D3FB82461E48FDF7E9
:10365000FFFBD7F82480834600E71B48FDF7D2FB29
:10366000F96908F0D5FD00287FF458AFC9E6D9F80C
:10367000000008F0BDFB82461348FDF795FC019061
:10368000F86ED7F83C8008F0B3FB019B83464146B7
:10369000184608F0F7FA0146584608F0FDFB414687
:1036A0008346F86A08F0EEFA0146584608F0A8FC8E
:1036B000002108F0E9FA0146504608F0E3FA08F064
:1036C000B1FDC9F800001FE7FC93FF1F08B52748AC
:1036D00004F0AAFE0721264807F0A6F9112005F0FC
:1036E000C7FC0621F8B1234807F09EF9102005F029
:1036F000BFFC062100B3204807F096F9122005F020
:10370000B7FC062108B31D4807F08EF9132005F019
:10371000AFFC062110BB1A4807F086F91348BDE834
:10372000084004F081BE174807F07EF9102005F02C
:103730009FFC06210028DED1134807F075F91220FE
:1037400005F096FC06210028DDD1104807F06CF941
:10375000132005F08DFC06210028DCD00C4807F072
:1037600063F90248BDE8084004F05EBED087FF1F41
:103770006C0D0100740D0100840D0100940D010019
:10378000AC0D01007C0D01008C0D01009C0D0100B1
:10379000A40D010010B5254C2368042B27DC012162
:1037A0000B2005F05FFC01210C2005F05BFC0121E2
:1037B000142005F057FC0121152005F053FCFF21D2
:1037C000162005F0CFFAFF21172005F0CBFAFF21D4
:1037D000052005F0C7FAFF21062005F0C3FA23688B
:1037E00001330A2B2360C4BF0023236010BD0021D6
:1037F0000B2005F037FC00210C2005F033FC0021E4
:10380000142005F02FFC0021152005F02BFC0021D1
:10381000162005F0A7FA0021172005F0A3FA0021D1
:10382000052005F09FFA0021D6E700BF5492FF1F44
:1038300030B5092183B0AE4805F030FF222005F0F5
:10384000D5FEAC4BD3F8A830012BAB4B1B7809D07D
:10385000052B10D8DFE813F02D0132013C014101A6
:1038600037010B00002B00F03D81052B03D1072110
:10387000A24805F013FF222005F0B8FEFF2005F056
:10388000B5FEFF2005F0B2FE9D4CFF2005F0AEFE18
:1038900008219C4805F002FF21689B4804F014FEB3
:1038A000FF2005F0A3FEFF2005F0A0FEFF2005F09D
:1038B0009DFE0921954805F0F1FE2168924804F02B
:1038C00003FEFF2005F092FEFF2005F08FFEFF2093
:1038D00005F08CFE0C218E4805F0E0FE8D4B8E49E4
:1038E000186808F08DFB07F02DFE002402460B46F9
:1038F0000094854804F0F0FDFF2005F077FEFF20DE
:1039000005F074FEFF2005F071FE0921834805F0E3
:10391000C5FE8348FDF7E2FA07F014FE0094024664
:103920000B46794804F0D8FDFF2005F05FFEFF202C
:1039300005F05CFEFF2005F059FE0C21794805F0EA
:10394000ADFE7748FDF730FB07F0FCFD0094024622
:103950000B466D4804F0C0FDFF2005F047FEFF2038
:1039600005F044FEFF2005F041FE0D216E4805F0F4
:1039700095FE6B48FDF716FB07F0E4FD0094024648
:103980000B46614804F0A8FDFF2005F02FFEFF2044
:1039900005F02CFEFF2005F029FE0921634805F003
:1039A0007DFE5F48FDF778FA614908F075FA07F087
:1039B000C9FD009402460B46534804F08DFDFF20DC
:1039C00005F014FEFF2005F011FEFF2005F00EFEAD
:1039D0000C21584805F062FE5148FDF713FA56498C
:1039E00008F05AFA07F0AEFD009402460B4646482E
:1039F00004F072FDFF2005F0F9FDFF2005F0F6FD53
:103A0000FF2005F0F3FD0D214C4805F047FE44482A
:103A1000FDF71EFA484908F03FFA07F093FD0094BD
:103A200002460B46384804F057FDFF2005F0DEFD46
:103A3000FF2005F0DBFDFF2005F0D8FD09214048FF
:103A400005F02CFE3F4B3048196804F03DFDFF2087
:103A500005F0CCFDFF2005F0C9FDFF2005F0C6FDF7
:103A60000E21394805F01AFE2D48FDF7F1F90546FB
:103A70002B48FDF7C7F90146284608F003F92E49FF
:103A800008F00AFA07F05EFD009402460B461E4855
:103A900004F022FDFF2005F0A9FDFF2005F0A6FDA2
:103AA000FF2005F0A3FDFF2003B0BDE8304005F086
:103AB0009DBD0621254805F0F1FDDCE607212448DF
:103AC00005F0ECFDD7E60B21224805F0E7FDD2E634
:103AD0000721214805F0E2FDCDE608211F4805F049
:103AE000DDFDC8E608211E4805F0D8FDC3E600BF8D
:103AF000B40D010010CCFF1F04CCFF1F400B0100D0
:103B00003087FF1FCC0D0100B487FF1FD80D0100C7
:103B1000E40D0100FCCBFF1F0000C842F40D0100C2
:103B2000FC93FF1F000E0100100E0100200E01008B
:103B3000000020412C0E010000007A443C0E0100E0
:103B40004C0E01004487FF1F580E0100100B0100AE
:103B5000180B0100200B01002C0B0100340B01009D
:103B6000C00D01002DE9F0418D4DD5F8B830042B82
:103B70003ED0032B6ED0012B00F09880022B01D099
:103B8000BDE8F081874C8848237240F20E32012351
:103B900021462260E37103F0ADFC844B1B685B009F
:103BA000FF2BC8BFFF23042140224FF44170206047
:103BB000E17122726372A86D08F01AF9A96908F020
:103BC0006BF97B49054608F023FB002800F0DE80F6
:103BD0002946284608F058F808F04AFB80B203123C
:103BE000E072A3726F497048BDE8F04103F082BCF7
:103BF0006C4C704AA379226043F001030822E27101
:103C0000A371A86D08F0F4F8A96908F045F96A49AC
:103C100008F042F908F02CFB644B684A1B681268F4
:103C200093FBF2F380B200261A120712607221464B
:103C30005D48E372A272277226736673A673E673F9
:103C400003F058FCA279D5F8B83066F30002032BD4
:103C5000A27190D1534CA86DA3720122E8230721D1
:103C600040F2FF26227263722660E17108F0C0F80C
:103C7000A96908F011F9504908F00EF908F0F8FAAE
:103C80004A4B4E4A1B68126893FBF2F382B21E1233
:103C90001712214644486373E2722773A67303F038
:103CA00029FCD5F8B830012B7FF468AF444B3D4C6C
:103CB0001B682360072280231020E271237205F025
:103CC000D7F9002869D13F4B1B68DFF8E0803B4FF4
:103CD000A86D344E03EB83035B001A12A372627269
:103CE000D8F800303A6893FBF2F31A126273A373A8
:103CF00008F07EF8A96908F0CFF8334B196807F08F
:103D0000C1FF2D4908F0C8F808F0B2FA80B20312DA
:103D1000314620732448E37203F0ECFB022005F0E7
:103D2000DDF92A4B1B682360072280231020E271F3
:103D3000237205F09DF970BB224B1B68A86D03EB45
:103D400083035B001A127272B37208F051F8A9690A
:103D500008F0A2F81E4B196807F094FF164908F006
:103D60009BF808F085FA82B216123868D8F800304D
:103D7000227393FBF0F30B490B48A3731A12E672FC
:103D8000627303F0B7FBD5F8B830F7E60122902351
:103D9000A272E37226E70F4BCFE70E4B94E700BF0A
:103DA00010CCFF1F6892FF1F84CDFF1F7C92FF1F66
:103DB00000004843F4E50618000020412C87FF1F4F
:103DC0006887FF1F2887FF1F7892FF1F6C87FF1FE0
:103DD00038CDFF1F3C87FF1F70B50368C57984B0DD
:103DE000012D8DF805304FEA13230E468DF804306F
:103DF00005F1010201A909DD07300D440DF10503AC
:103E000010F8014F03F8014FAB42F9D1034B0448BE
:103E10009B5D02F039FE04B070BD00BF8019010047
:103E2000FC92FF1FF0B40D4B0D489C790822FF2730
:103E3000CD26A225DA710022B0216FF300041F7293
:103E40009E72DD725A721A735A739A73DA7319601A
:103E50009C711946F0BC03F04DBB00BF6892FF1F78
:103E600084CDFF1F2DE9F0415B4D2B780F2B82B0E5
:103E700068D05A4B1B785A4F002B4FD000223A6023
:103E8000584E3378082B4ED0DFF8848143F08003FE
:103E9000554C0821012A2360E17176D06822102355
:103EA0002272637298F800304F490022022BA272EE
:103EB0000AD82B78CA724FEA03130A734A73DBB22B
:103EC00010D104338B730EE03B68012B04BF082331
:103ED0000B732B7818BF0A73502000221B01C87285
:103EE000DBB26273A37331783F48FFF775FFE0736D
:103EF000022005F0F3F83C493C4803F0FBFA2A782D
:103F000033783B48013201332A703370FCF706FEE8
:103F100008B1FFF787FF02B0BDE8F081314E3A6883
:103F20003378082BB0D1DFF8E88098F80030032B05
:103F300098BF01334FF0000198BF88F8003031700E
:103F40008023A5E72B4E2C4C33680093009A216800
:103F5000002391422B7013D2284B204F1A68012363
:103F60009A423B7029D0264A31680191B2F8A410D8
:103F7000019A3C314FF47A7000FB012222607AE70B
:103F8000164A174F13703A687AE71948FCF73AFF58
:103F90001C4907F081FF08F06BF900F10A0314488F
:103FA0002372FCF72FFF174907F076FF08F060F93E
:103FB00080B20A300012607274E7134804F034FAD9
:103FC0001321124806F030FD0F4804F02DFA0E4878
:103FD00004F02AFA3B78C6E73CCDFF1F44CDFF1F13
:103FE000F8CCFF1F5CCDFF1F6892FF1F84CDFF1F21
:103FF000FC93FF1F48CFFF1F28CDFF1F2487FF1F03
:1040000010CCFF1F00007A44D087FF1F680E01000C
:1040100068CDFF1FF0B5B14CB14D83B006F09EFCEA
:1040200023682860042B00F04F83022B56D0082B06
:1040300046D0072B40F07A81332801F0628500F3E7
:10404000DB80312801F07085322842D106F0C2FCB5
:10405000002840F36981A348A34E04F077FB07F0E2
:10406000C7FEA24907F018FF612301227064226095
:104070002B601846A0F152031F2B2AD8DFE813F05B
:10408000240D2900290029002900290029002900E0
:104090002900290029002900290029002900E3031B
:1040A0000C0E5C05F605C8042900290029005704F8
:1040B00029000F0E29002900290029002900140DCC
:1040C000322800F08D83712800F09C80312800F0A8
:1040D0009C83732800F09A8003B0F0BDA0F13103F7
:1040E000422BF6D801A252F823F000BF87510000FE
:1040F000A3510000BF5100001D51000043510000BA
:1041000061510000D3400000D3400000D3400000C4
:10411000D3400000D3400000D3400000D340000053
:10412000D3400000D3400000D3400000D340000043
:10413000D3400000D3400000D3400000D340000033
:10414000D3400000D3400000D3400000D340000023
:10415000D3400000D3400000D3400000D340000013
:10416000D3400000D3400000D3400000D340000003
:10417000D3400000D3400000D3400000D3400000F3
:10418000D3400000D3400000D3400000D3400000E3
:10419000D3400000D3400000D3400000D3400000D3
:1041A000D3400000D3400000D3400000D3400000C3
:1041B000D34000007B510000D3400000D3400000FA
:1041C000D3400000D3400000D3400000D3400000A3
:1041D000D3400000D3400000D3400000D340000093
:1041E000D3400000D3400000D3400000054200004F
:1041F000D3400000FF500000342801F07184712882
:104200007FF467AF0022732322602B602368002BAA
:104210007FF462AF364E334804F006F90421354886
:1042200006F002FC2F4804F0FFF81021324806F097
:10423000FBFB2C4804F0F8F81321304806F0F4FB9F
:104240002F4B2848196804F03FF9264804F0ECF891
:1042500014212C4806F0E8FB224804F0E5F81E2162
:10426000294806F0E1FB1F4804F0DEF81521274835
:1042700006F0DAFB1B4804F0D7F81E21244806F0AC
:10428000D3FB184804F0D0F82021224806F0CCFBDC
:10429000144804F0C9F819211F4806F0C5FB11485D
:1042A00004F0C2F812211D4806F0BEFB0D4804F0D0
:1042B000BBF80F211A4806F0B7FB0A4804F0B4F81F
:1042C0000D21184806F0B0FB064804F0ADF80022B6
:1042D00001233260236003B0F0BD00BF6CCDFF1F2F
:1042E00054CBFF1FD087FF1F10CCFF1F6F12833AE4
:1042F0002487FF1F141201001C120100301201005C
:104300004487FF1F441201005C1201007C1201006F
:1043100094120100B4120100D8120100F41201003D
:10432000081301001813010023682868062B40F0C9
:104330008D80A0F13103402B3FF6CBAE01A252F8A5
:1043400023F000BF4950000075500000A15000004C
:10435000055000002B500000C7500000EB5000003B
:10436000D3400000D3400000D3400000D340000001
:10437000D3400000D3400000D3400000D3400000F1
:10438000D3400000D3400000D3400000D3400000E1
:10439000D3400000D3400000D3400000D3400000D1
:1043A000D3400000D3400000D3400000D3400000C1
:1043B000D3400000D3400000D3400000D3400000B1
:1043C000D3400000D3400000D3400000D3400000A1
:1043D000D3400000D3400000D3400000D340000091
:1043E000D3400000D3400000D3400000D340000081
:1043F000D3400000D3400000D3400000D340000071
:10440000D3400000D3400000D3400000D340000060
:10441000D3400000D3400000D3400000D340000050
:10442000D3400000D3400000D3400000D340000040
:10443000D3400000D3400000D3400000D340000030
:10444000D34000000542000023682868052B40F097
:104450008D80A0F13103402B3FF63BAE01A252F814
:1044600023F000BFCD4D0000414F0000054F00007C
:10447000254F0000C14E0000EB4E0000D34000006D
:10448000D3400000D3400000D3400000D3400000E0
:10449000D3400000D3400000D3400000D3400000D0
:1044A000D3400000D3400000D3400000D3400000C0
:1044B000D3400000D3400000D3400000D3400000B0
:1044C000D3400000D3400000D3400000D3400000A0
:1044D000D3400000D3400000D3400000D340000090
:1044E000D3400000D3400000D3400000D340000080
:1044F000D3400000D3400000D3400000D340000070
:10450000D3400000D3400000D3400000D34000005F
:10451000D3400000D3400000D3400000D34000004F
:10452000D3400000D3400000D3400000D34000003F
:10453000D3400000D3400000D3400000D34000002F
:10454000D3400000D3400000D3400000D34000001F
:10455000D3400000D3400000D3400000D34000000F
:10456000D3400000614F000023682868032B40F00F
:10457000A480A0F13003422B3FF6ABAD01A252F86C
:1045800023F000BF91460000655900008D590000DE
:10459000E159000035580000575800007F580000CE
:1045A000A7580000C5580000D1570000D3400000B4
:1045B000D3400000D3400000D3400000D3400000AF
:1045C000D3400000D3400000D3400000D34000009F
:1045D000D3400000D3400000D3400000D34000008F
:1045E000D3400000D3400000D3400000D34000007F
:1045F000D3400000D3400000D3400000D34000006F
:10460000D3400000D3400000D3400000D34000005E
:10461000D3400000D3400000D3400000D34000004E
:10462000D3400000D3400000D3400000D34000003E
:10463000D3400000D3400000D3400000D34000002E
:10464000D3400000D3400000F95700001F53000082
:1046500017580000E95800000759000025590000CC
:10466000D5520000F9520000D3400000D3400000B2
:1046700073570000D3400000D3400000D340000037
:10468000D3400000D3400000054200009B570000CB
:1046900006F0A0F9002841F31C82CB48CB4E04F071
:1046A00055F80127034601466222C948F365276091
:1046B0002A60FCF7F3FB23682868012B3FF4DAAC8F
:1046C00073287FF409ADA1E5A0F13103412B3FF63A
:1046D00000AD01A252F823F0475200004B520000F7
:1046E0004F5200006F520000735200008F520000C2
:1046F000F55100000D52000011520000D34000009F
:10470000D3400000D3400000D3400000D34000005D
:10471000D3400000D3400000D3400000D34000004D
:10472000D3400000D3400000D3400000D34000003D
:10473000D3400000D3400000D3400000D34000002D
:10474000D3400000D3400000D3400000D34000001D
:10475000D3400000D3400000D3400000D34000000D
:10476000D3400000D3400000D3400000D3400000FD
:10477000D3400000D3400000D3400000D3400000ED
:10478000D3400000D3400000D3400000D3400000DD
:10479000D3400000D3400000D34000002D52000061
:1047A000D3400000D3400000D3400000D3400000BD
:1047B000D3400000D3400000D3400000D3400000AD
:1047C000D3400000D3400000D3400000D34000009D
:1047D000D3400000D340000005420000D951000042
:1047E00006F0F8F8002840F309847748774E03F084
:1047F000ADFF07F0FDFA774907F04EFB034602468E
:1048000096F848107248F36414E006F0E3F80028C4
:1048100040F3F0836C486D4E03F098FFC0B286F809
:104820004800022894BF01460021F26C684888BF06
:1048300086F84810FCF734FB0123692023602860C8
:1048400018E406F08BF806F0C5F805460028F8D104
:104850005D485E4E03F0E8FD5B4803F0E5FD5A4815
:1048600003F0E2FD584803F0DFFD574803F0DCFD9C
:104870001F21594806F0D8F8534803F0D5FD1C21F4
:10488000564806F0D1F8B06A554907F005FB06F026
:1048900059FE009502460B464B4803F01DFE0221CF
:1048A000504806F0C1F8484803F0BEFD23214E48A9
:1048B00006F0BAF8706C4A4907F0EEFA06F042FECC
:1048C000009502460B46404803F006FE022145488B
:1048D00006F0AAF83C4803F0A7FD1921434806F06A
:1048E000A3F8306C06F02EFE02250B46024600951A
:1048F000354803F0F1FD29463D4806F095F8324869
:1049000003F092FD22213B4806F08EF8B18E2E482E
:1049100003F0DAFD0321384806F086F82A4803F050
:1049200083FD07232360FFF7D7BB06F017F806F0D7
:1049300051F805460028F8D12348244E03F074FDB1
:10494000214803F071FD204803F06EFD1E4803F07E
:104950006BFD1D4803F068FD1521284806F064F83A
:10496000194803F061FD1821254806F05DF82B4633
:104970000A2296F84810144803F066FD124803F026
:1049800053FD28211F4806F04FF8F06C144907F03A
:1049900083FA06F0D7FD00950B4602460A4803F05D
:1049A0009BFD02210F4806F03FF8074803F03CFD4D
:1049B0001321154806F038F8034803F035FD0823A5
:1049C0002360FFF789BB00BFD087FF1F10CCFF1FFC
:1049D000FC93FF1F6F12833A5C1001007C100100F2
:1049E00000007A44E80E01009C100100C010010094
:1049F000DC100100E010010004110100DC120100D4
:104A0000A00E0100BC0E0100EC0E010005F0A6FF97
:104A100005F0E0FF05460028F8D17F487F4E03F0FF
:104A200003FD7D4803F000FD7B4803F0FDFC7A4860
:104A300003F0FAFC784803F0F7FC1121784805F000
:104A4000F3FF754803F0F0FC2821764805F0ECFFF1
:104A5000B069754907F020FA06F074FD009502462A
:104A60000B466D4803F038FD0221704805F0DCFF6D
:104A7000694803F0D9FC16216D4805F0D5FF306A6E
:104A8000694907F009FA06F05DFD00950B460246FC
:104A9000614803F021FD0221644805F0C5FF5E482E
:104AA00003F0C2FCD6F8B830002B32DD1D2161487E
:104AB00005F0BAFF706E07F09BF95F4907F0ECF95B
:104AC00006F040FD022502460B460095524803F0D1
:104AD00003FD0121594805F0A7FF4F4803F0A4FC4E
:104AE0001F21574805F0A0FFB06E07F081F9524929
:104AF00007F0D2F906F026FD009502460B4646481F
:104B000003F0EAFC01214D4805F08EFF424803F016
:104B10008BFC11214B4805F087FFD6F8B830052BE8
:104B200000F27287DFE813F0AC07A7076C07BB073A
:104B3000B607B10705F012FF05F04CFF0028F9D1C8
:104B40003548364E03F070FC334803F06DFC3248B4
:104B500003F06AFC304803F067FC2F4803F064FC64
:104B60001F21394805F060FF2B4803F05DFC1E2132
:104B7000364805F059FF284803F056FC1A213448FE
:104B800005F052FFD6F88430022B01F03380032B5E
:104B900001F02780012B01F01B8009212D4805F031
:104BA00043FF1D4803F040FC14212B481B4F05F028
:104BB0003BFFD6F88010184803F086FC164803F037
:104BC00033FC1C21254805F02FFFD6F88810124829
:104BD00003F07AFC104803F027FC1C21204805F064
:104BE00023FFD6F8B4100C4803F06EFC0A4803F01B
:104BF0001BFCD6F8845025F00205012D00F0B78784
:104C00001321184805F010FF034803F00DFC0223A0
:104C10002360FFF761BA00BFD087FF1F10CCFF1FD2
:104C200080120100000F010000007A44E80E01002C
:104C30002C0F0100440F0100CDCCCC3D9C15010090
:104C4000640F0100840F01005C1401007C1401005A
:104C50009C140100141501002015010038150100F5
:104C600058150100EC0E010005F078FE05F0B2FECB
:104C70000028F9D1BE48BF4D03F0D6FBBC4803F075
:104C8000D3FBBB4803F0D0FBB94803F0CDFBB848D9
:104C900003F0CAFB1321B84805F0C6FEB44803F080
:104CA000C3FB0D21B54805F0BFFEB14803F0BCFBC6
:104CB0000F21B34805F0B8FEB24BAD48196803F0B8
:104CC00003FCAB4803F0B0FB1321AF4805F0ACFE8A
:104CD000AE4BA748196803F0F7FBA54803F0A4FB07
:104CE0001221AB4805F0A0FEAA4BA148196803F0B9
:104CF000EBFB9F4803F098FB1121A74805F094FEB9
:104D0000A64B9B48196803F0DFFB994803F08CFB26
:104D10000E21A34805F088FED5F8A810944803F0AA
:104D2000D3FB934803F080FB19219E4805F07CFEDD
:104D30009D4B8F48196803F0C7FB8D4803F074FB47
:104D400011219A4805F070FE994B8948196803F0C3
:104D5000BBFB874803F068FB1021964805F064FE12
:104D6000954B8348196803F0AFFB814803F05CFB67
:104D70001C21924805F058FE914B7D48196803F0BC
:104D8000A3FB7B4803F050FB16218E4805F04CFE38
:104D9000B5F8A410764803F097FB1E218A4805F069
:104DA00043FE734803F040FB1721884805F03CFEA2
:104DB0006F4803F039FB1321854805F035FE6C4838
:104DC00003F032FB04232360FFF786B905F002FEEF
:104DD00000287FF7C9AB6648664E03F0B7FC012296
:104DE0006B23C6F88C0022602B6001E005F0B6FD55
:104DF00005F0F0FD0028F9D15D485E4D03F014FB8D
:104E00005B4803F011FB5A4803F00EFB584803F0CF
:104E10000BFB574803F008FB21216E4805F004FE08
:104E2000534803F001FB15216B4805F0FDFDD6F852
:104E30008C104F4803F048FB0221684805F0F4FD50
:104E40004B4803F0F1FA1E21654805F0EDFDD6F858
:104E50009410474803F038FB0321624805F0E4FD55
:104E6000434803F0E1FA1E215F4805F0DDFDD6F866
:104E700090103F4803F028FB3D4803F0D5FA1D2170
:104E80005A4805F0D1FDD6F8AC10394803F01CFBA8
:104E9000374803F0C9FA1E21554805F0C5FDD6F87C
:104EA000B010334803F010FB314803F0BDFAD6F8D8
:104EB000A830012B00F0DD8605232360FFF70CB935
:104EC00005F088FD00287FF74FAB2948294E03F0F5
:104ED0003DFC374BC6F8B00003221A60FCF798FE81
:104EE00001226B2322602B6082E7224E96F8C930A4
:104EF000B3FA83F35B0901216B2286F8C930216084
:104F00002A6075E705F066FD00287FF72DAB18488D
:104F1000184E03F01BFC01226B23C6F890002260A0
:104F20002B6065E705F056FD00287FF71DAB1048A4
:104F3000104E03F00BFC1E4BC6F8AC000222CCE76F
:104F400005F048FD00287FF70FAB0948094E03F034
:104F5000FDFB01226B23C6F8940022602B6047E71B
:104F60001349002373220B6023602A60FFF74EB9B8
:104F7000D087FF1F10CCFF1F281301003C13010036
:104F80004C13010060CDFF1F5C130100F4CBFF1F29
:104F90007013010024CDFF1F8413010008CCFF1FF4
:104FA00098130100A81301005C92FF1FC4130100B5
:104FB0008092FF1FD81301004C92FF1FEC130100D9
:104FC0004087FF1F0C140100241401004414010049
:104FD000EC0E0100081101002C110100101001005D
:104FE00044110100C00B0100641101008411010093
:104FF000A4110100AA4E96F8480012E4236828681C
:10500000FFF717B805F0E6FC00287FF71DAAA548B2
:10501000A34E03F09BFB00EB8000430001226520C0
:10502000B36622602860FFF725B89D4AD2F8B830F1
:105030000133052BC8BF0023C2F8B8300123652017
:1050400023602860FFF716B805F0C4FC00287FF73E
:10505000FBA99448924E03F079FB06F0C9FE9249F1
:1050600006F0CEFF65230122B06122602B60184656
:10507000FFF700B805F0AEFC00287FF7E5A98948E6
:10508000874E03F063FB06F0B3FE874906F0B8FFD6
:1050900065230122306222602B601846FEF7EABFCA
:1050A00005F098FC00287FF7CFA97E487C4E03F0DE
:1050B0004DFB00EB800043000122652073662260F7
:1050C0002860FEF7D7BF05F085FC00287FF7BCA954
:1050D0007448734E03F03AFB65230122C6F8BC0006
:1050E00022602B601846FEF7C5BF6D4B93F8C820B1
:1050F000002A00F02F85002283F8C8209EE7684A26
:10510000D2F884300133032BC8BF0023C2F88430A7
:105110000123632023602860FEF7ACBF01232360D6
:1051200005F058FC002807DD5E485D4E03F00EFBDD
:1051300006F05EFEC6F89C00632028602368FEF738
:1051400078BF0123236005F045FC0028F4DD5548B5
:10515000534E03F0FBFA06F04BFEC6F89800EBE75F
:105160000123236005F036FC0028E5DD4D484C4E58
:1051700003F0ECFAA6F8C200DEE7FDF751FD236864
:105180002868FEF754BF464ED6F88030B3FA83F352
:105190005B0901226320C6F8803022602860FEF798
:1051A00069BF3F4ED6F88830B3FA83F35B0901221A
:1051B0006320C6F8883022602860FEF75BBF0123B9
:1051C000236005F007FC0028A2DD3648344E03F0CA
:1051D000BDFAC6F8B4009BE701232360FEF722FE68
:1051E00064232B602368082B4FF064007EF421AF0A
:1051F000FEF766BF2D4A1368B3FA83F35B090121FA
:105200006420136021602860FEF734BF284AF2E76B
:105210000123236005F0DEFB002800F3A084254B6A
:105220001A68042ADCDD02221A60D9E70123236010
:1052300005F0D0FB0028D3DD1A48194E03F086FA9A
:10524000A6F8A400CCE71C4AD5E71C4AD3E71C4AC1
:105250001C4F1368002B0CBF012100214FF00103EC
:105260001160236040F0CF8464222A60BBE7164AB5
:10527000C1E70B4ED6F8A830B3FA83F35B090122DD
:105280006420C6F8A83022602860FEF7F3BE012330
:105290000E482360FBF75CFC0D4A23681060E3E7CF
:1052A00010CCFF1FD087FF1F00007A448092FF1FA1
:1052B0004C92FF1F4087FF1F60CDFF1FF4CBFF1FE5
:1052C00024CDFF1F6CCDFF1F08CCFF1FFC93FF1FD9
:1052D0005C92FF1F05F07EFB00280DDD1748184E7D
:1052E00003F034FA06F084FD164906F089FE012227
:1052F0006223706222602B6005F06CFB00280EDDDB
:105300000E480F4E03F022FA06F072FD0D4906F02A
:1053100077FE01226223C6F8C40022602B6005F0EC
:1053200059FB002840F3D5830448054E03F00EFADC
:1053300001226223306722602B6007E0D087FF1FC5
:1053400010CCFF1F00007A4405F008FB05F042FB7B
:1053500005460028F8D1C24803F066F8C04803F0BB
:1053600063F8BF4803F060F8BD4803F05DF8BC483F
:1053700003F05AF81521BB4805F056FBB84803F076
:1053800053F81421B84805F04FFBB54803F04CF82A
:105390001B21B64805F048FBB14803F045F813213E
:1053A000B34805F041FBAE4803F03EF8AC4803F0CB
:1053B0003BF8AB4803F038F82021AE4805F034FB49
:1053C000F068AD4906F068FD06F0BCF800950246AD
:1053D0000B46A34803F080F80221A84805F024FBFF
:1053E0000221A74805F020FB9D4803F01DF821216C
:1053F000A44805F019FB30699F4906F04DFD06F001
:10540000A1F8009502460B46954803F065F8022185
:105410009A4805F009FB0221994805F005FB9048E0
:1054200003F002F81F21984805F0FEFAF06A06F032
:1054300089F8022702460B460097894803F04CF88A
:105440000121924805F0F0FA39468D4805F0ECFA52
:10545000834802F0E9FF20218D4805F0E5FA306B22
:1054600006F070F8009702460B467D4803F034F8CA
:105470000121864805F0D8FA3946814805F0D4FA6A
:10548000774802F0D1FF2321824805F0CDFA306D34
:10549000794906F001FD06F055F8009502460B46E5
:1054A0006F4803F019F83946744805F0BDFA3946DB
:1054B000734805F0B9FA6A4802F0B6FF1F21764832
:1054C00005F0B2FA706D6C4906F0E6FC06F03AF8A9
:1054D000009502460B46624802F0FEFF39466748D7
:1054E00005F0A2FA3946664805F09EFA5C4802F0DB
:1054F0009BFF1921694805F097FA316E584802F070
:10550000E3FF3946664805F08FFA39465C4805F0F6
:105510008BFA534802F088FF1821624805F084FA9C
:10552000F06E06F065FC604906F0B6FC06F00AF87D
:10553000009702460B464A4802F0CEFF01215B4825
:1055400005F072FA39464E4805F06EFA444802F00A
:105550006BFF2B21564805F067FAF069464906F0C3
:105560009BFC05F0EFFF009502460B463C4802F01D
:10557000B3FF3946414805F057FA3946404805F02F
:1055800053FA374802F050FF1F214A4805F04CFA01
:10559000F16D334802F098FF3946394805F044FA76
:1055A0002F4802F041FF2021434805F03DFAB16D3C
:1055B0002B4802F089FF3946314805F035FA284872
:1055C00002F032FF10213D4805F02EFA316F2448D9
:1055D00002F07AFF3946294805F026FA394628486C
:1055E00005F022FA1E4802F01FFF1321344805F08F
:1055F0001BFA716F1A4802F067FF0121314805F06C
:1056000013FA39461E4805F00FFA154802F00CFF50
:1056100010212D4805F008FAB16F114802F054FF2F
:105620003946164805F000FA3946154805F0FCF9E8
:105630000B4802F0F9FE1421244805F0F5F9F16F4A
:10564000074802F041FF01211E4805F0EDF93946F7
:105650000B4805F0E9F9024802F0E6FE162137E0B2
:10566000D087FF1FE4150100FC150100141601008E
:10567000EC0E01003016010000007A44E80E010033
:10568000780D0100541601007816010098160100EB
:105690009C160100C0160100E41601000417010069
:1056A0002017010024170100CDCCCC3D9C15010032
:1056B000401701006C1701008C170100B0170100A2
:1056C000C4170100D8170100DC170100F017010012
:1056D000B84805F0A9F9706AB74906F0DDFB05F096
:1056E00031FF009502460B46B44802F0F5FE3946FC
:1056F000B34805F099F93946B24805F095F9AF4835
:1057000002F092FE2421B04805F08EF9D6F8C400CC
:10571000A94906F0C1FB05F015FF009502460B46AE
:10572000A64802F0D9FE3946A54805F07DF939466C
:10573000A44805F079F9A14802F076FE2721A34894
:1057400005F072F970699C4906F0A6FB05F0FAFEB7
:1057500000950B460246994802F0BEFE394698482D
:1057600005F062F9954802F05FFE03232360FEF71F
:10577000B3BC05F02FF9002840F3AB818F48944E5D
:1057800002F0E4FF06F034FB8B4906F039FC0122FD
:105790006223706122602B60D8E58E4B89488C4E65
:1057A000002202211A6005F03FF9844802F03CFE15
:1057B0000B21894805F038F90221824805F034F9B7
:1057C0007E4802F031FE0122622322602B60BDE59B
:1057D00005F000F9002840F37C8178487C4E02F007
:1057E000B5FF06F005FB744906F00AFC01226223AE
:1057F000F06122602B60A9E505F0ECF8002840F389
:1058000068816E48724E02F0A1FF01226223B065EA
:1058100022602B609AE505F0DDF8002840F35981FD
:1058200066486B4E02F092FF01226223706722608D
:105830002B608BE505F0CEF8002840F34A815F48E5
:10584000634E02F083FF06F0D3FA01226223306335
:1058500022602B607AE505F0BDF8002840F339811D
:1058600056485B4E02F072FF06F0C2FA524906F04B
:10587000C7FB01226223306522602B6066E505F0DC
:10588000A9F8002840F325814C48514E02F05EFFF4
:1058900006F0AEFA484906F0B3FB012262237065B8
:1058A00022602B6052E505F095F8002840F3118145
:1058B0004248474E02F04AFF0122622330662260CE
:1058C0002B6043E505F086F8002840F302813B4851
:1058D0003F4E02F03BFF00EB8000430001216222BB
:1058E000F36621602A6031E505F074F8002840F382
:1058F000F0803248364E02F029FF01226223B06761
:1059000022602B6022E505F065F8002840F3E18075
:105910002A482F4E02F01AFF01226223F06722600C
:105920002B6013E5FBF706FE02212648284E05F002
:105930007BF8224802F078FD0221224805F074F835
:105940001E4802F071FD02211E4805F06DF81B484B
:1059500002F06AFD1721214805F066F8174802F0A9
:1059600063FD29E705F036F8002840F3B2801348BC
:10597000174E02F0EBFE06F03BFA0F4906F040FB33
:1059800001226223F06022602B60DFE405F022F840
:10599000002840F39E8009480D4E02F0D7FE06F025
:1059A00027FA054906F02CFB0122622330612260B0
:1059B0002B60CBE40818010000007A44D087FF1F59
:1059C000E80E0100780D01002018010048180100C0
:1059D00010CCFF1FECCCFF1F940E01007C0E0100C9
:1059E00004F0F8FF002874DDAE48AF4E02F0AEFEC2
:1059F00006F0FEF901226223F06222602B60A5E42A
:105A00000C21AA4805F010F8A648A74D02F00CFD9D
:105A1000D6F8B830002B12DD1821A54805F004F89F
:105A2000D5F8BC109F4802F04FFD0221A14804F0B8
:105A3000FBFF9C4802F0F8FC9A4802F0F5FC1B21A1
:105A40009D4804F0F1FF96F8C830012B15BF1221D4
:105A500014219A489A4804F0E7FF924802F0E4FCC7
:105A60001321984804F0E0FF8E4802F0DDFC062385
:105A70002360FEF731BB0C21934804F0D5FFC3E748
:105A80000D21924804F0D0FFBEE70B21904804F0AE
:105A9000CBFFB9E70D218F4804F0C6FFB4E70D2115
:105AA0008D4804F0C1FFAFE7CC2200217E488B4E29
:105AB00002F040FF2B6801210022732B316022602D
:105AC0007EF40AABFEF7A7BB854B864A1A60FEF749
:105AD00003BB23682868012B7EF4F2ADFEF7CABA37
