:1000000000800020BD01000025860000DD85000085
:10001000DD850000DD850000DD850000DD85000058
:10002000DD850000DD850000DD85000025860000FF
:1000300025860000DD850000E9A60000EDA7000090
:100040002586000025860000258600002586000004
:1000500025860000258600002586000025860000F4
:1000600025860000258600002586000025860000E4
:1000700025860000258600002586000025860000D4
:1000800025860000258600002586000025860000C4
:1000900025860000258600002586000025860000B4
:1000A00025860000258600002586000025860000A4
:1000B000258600000D7B0000197B00001D7B0000E1
:1000C000297B00002D7B0000317B0000258600008D
:1000D0002586000025860000258600002586000074
:1000E0002586000025860000258600002586000064
:1000F00025860000F5AE000025860000C5920000B0
:1001000025860000919400002586000025860000C9
:100110002586000025860000258600002586000033
:100120002586000025860000258600002586000023
:100130002586000025860000258600002586000013
:100140002586000025860000258600002586000003
:1001500025860000258600002586000025860000F3
:10016000258600001D9700002586000025860000DA
:1001700025860000258600002586000025860000D3
:1001800025860000258600002586000025860000C3
:1001900025860000258600002586000025860000B3
:1001A00025860000258600002586000025860000A3
:1001B000258600002586000025860000564B4CF25F
:1001C000205210B51A804DF628121A8000BF00BFC9
:1001D00008F02CFA514B4FF010621A60504A9A60A6
:1001E000504ADA60504A136813F4807304D14F49BF
:1001F0000B604FF4A85313604D4B1A78110703D5C9
:100200001A7842F008021A704A4B4B492A221A7097
:100210004A4A4B4B8B4204D252F8040F43F8040B6A
:10022000F8E7484B484900228B4202D243F8042B9E
:10023000FAE74649464A002352F8230041F82300D2
:1002400001336F2BF8D1434B434A802103F8011B44
:100250009342FBD1414B3D4A1A60414B8A221A70AE
:10026000A3F5805324225A70A0221A709A7992071B
:10027000FCD59A79D406FCD43A4A937903F00C035E
:10028000082B384BF9D103221A7140225A719A79FE
:100290009006FCD5334A9179324B4906FBD5324A58
:1002A000324911600221516020221A709A7902F0BD
:1002B0000C020C2AFAD12E4B2E4A1A602E4B2F4AD2
:1002C0001A6000225A60072243F8042C2C4AC3F813
:1002D0000C2D62B608F060FC144B1B68DA0705D5DC
:1002E000284808F03DFA284B284A1A60284B1B780A
:1002F0005B0609D5244C254B22689A4204D121483B
:1003000008F02EFA002323600CF0DCF808F094F9D2
:100310000AF0B0FCFEE700BF0E200540308004402C
:10032000823F04000100002B10D0034014D0034092
:1003300002D0074000E007403092FF1F5421010027
:100340002087FF1F3092FF1F24D2FF1F0082FF1F54
:100350000000000000E400E05FE400E008ED00E0E1
:100360000050064000400640448004400000030165
:1003700004800440C010050014E000E0FF76010096
:1003800000002020AAB8B55E1CE00340A5C3945A23
:1003900000F00740FFFFFFFFFFFFFFFFFFFFFFFF32
:1003A000FFFFFFFFFFFFFFFFFFFFFFFFFFFFFFFF5D
:1003B000FFFFFFFFFFFFFFFFFFFFFFFFFFFFFFFF4D
:1003C000FFFFFFFFFFFFFFFFFFFFFFFFFFFFFFFF3D
:1003D000FFFFFFFFFFFFFFFFFFFFFFFFFFFFFFFF2D
:1003E000FFFFFFFFFFFFFFFFFFFFFFFFFFFFFFFF1D
:1003F000FFFFFFFFFFFFFFFFFFFFFFFFFFFFFFFF0D
:10040000FFFFFFFFFFFFFFFFFFFFFFFFDEF9FFFF23
:1004100010B5054C237833B9044B13B10448AFF33E
:1004200000800123237010BD3092FF1F00000000E8
:1004300050210100084B10B51BB108490848AFF323
:1004400000800848036803B910BD074B002BFBD0A0
:10045000BDE81040184700BF000000003492FF1FA5
:10046000502101003092FF1F00000000F0B400F1A5
:100470002C06174F00243146031F00F15C0243F89D
:10048000044FB34241F8047F4FF0000542F8044F97
:10049000F5D100230F4A1049C0F89050C0F894508D
:1004A000C0F89850C0F89C50C0F8A050C0F8B050A8
:1004B000C0F8A420C0F8AC20C0F8A81080F8B8306C
:1004C00080F8B93080F8D030C0F8DC30F0BC70472C
:1004D0000000A040000048430000C8C270B5CD1D18
:1004E00000F1900400F1A00615F8010F28380BF078
:1004F00083FD44F8040FB442F6D170BD2DE9F843F2
:1005000081461546042904D8DFE801F05B729FCECE
:100510002D00D9F8004009F13006C84609F1600500
:10052000002701E058F8044F306821460BF074FFB3
:100530000137214628B1D9F8B4000BF059FF00B1BA
:100540003460214628680BF049FF04366E4920B11B
:1005500020460BF061FF00B12C600C2F05F1040563
:10056000E0D1BDE8F883D0F8D830002BD1D1537A50
:10057000107A03F02F0300EB03200BF03DFD6349DD
:100580000BF042FEC9F82400EB7AA87A03F02F039F
:1005900000EB03200BF030FD5C490BF035FEC9F891
:1005A00028006B7B287B03F02F0300EB03200BF06C
:1005B00023FD56490BF028FED9F80040C9F82C005D
:1005C000A9E7507A127AAB7AE97AD9F8004002EBBF
:1005D000002202EB034303EB0163C9F8DC306B7BC1
:1005E0002A7B1B0203F470631344C9F8D83092E7E6
:1005F000D0F8D830002B8CD1537A107A03F02F0327
:1006000000EB03200BF0F8FC40490BF0FDFDC9F8AE
:100610000000EB7A0446A87A03F02F0300EB0320D6
:100620000BF0EAFC39490BF0EFFDC9F804006B7BD5
:10063000287B03F02F0300EB03200BF0DDFC334994
:100640000BF0E2FDC9F8080065E7D0F8D830002BC0
:100650007FF45FAF537A107A03F02F0300EB03208F
:100660000BF0CAFC29490BF0CFFDC9F80C00EB7A5E
:10067000A87A03F02F0300EB03200BF0BDFC234905
:100680000BF0C2FDC9F810006B7B287B03F02F0331
:1006900000EB03200BF0B0FC1C490BF0B5FDD9F8C2
:1006A0000040C9F8140036E7D0F8D830002B7FF4AA
:1006B00030AF537A107A03F02F0300EB03200BF0D6
:1006C0009BFC12490BF0A0FDC9F81800EB7AA87A40
:1006D00003F02F0300EB03200BF08EFC0B490BF013
:1006E00093FDC9F81C006B7B287B03F02F0300EB04
:1006F00003200BF081FC05490BF086FDD9F8004082
:10070000C9F8200007E700BF0000A04000007A44BD
:1007100090F8C000704700BF90F8BC00704700BF61
:1007200090F8C400704700BF90F8C800704700BF41
:100730000C2994BF50F82100002070472DE9F041AA
:100740000B4E8046041F00F12C0754F8045F31461D
:1007500028460BF043FE30B1D8F8B41028460BF011
:100760005BFE00B12E46BC42EFD13046BDE8F081C1
:10077000000020412DE9F041D0F8B4704FF000089E
:10078000041F00F12C0654F8045F394628460BF08C
:1007900043FE084948B128460BF020FE414620B1EF
:1007A00028460BF039FE00B1A846B442EBD14046D2
:1007B000BDE8F0810000A0402DE9F047D0F8B4700A
:1007C00082464FF00009041F00F12C064FF000088C
:1007D00054F8045F394628460BF01EFE0C4950B110
:1007E00028460BF0FBFD30B1484629460BF050FB84
:1007F00008F101088146B442EAD1CAF8D4804046E3
:100800000BF0FAFB014648460BF0FEFCBDE8F08712
:100810000000A040D0F8D400704700BFD0F8D80046
:10082000704700BFF8B5D0F89850D0F894700446DF
:10083000294638460BF0D2FDD4F89C6090B9D4F824
:10084000A040314628460BF0C9FD20B1214628467C
:100850000BF0C4FDC8B9214630460BF0BFFD88B986
:100860002046F8BD384631460BF0B8FDD4F8A0401C
:100870000028E6D0384621460BF0B0FD0028E0D035
:100880003C46EDE734462046F8BD2C462046F8BDF0
:10089000F8B5D0F89850D0F89470044629463846F8
:1008A0000BF0BAFDD4F89C6090B9D4F8A040314662
:1008B00028460BF0B1FD20B1214628460BF0ACFDD7
:1008C000C8B9214630460BF0A7FD88B92046F8BDCF
:1008D000384631460BF0A0FDD4F8A0400028E6D001
:1008E000384621460BF098FD0028E0D03C46EDE765
:1008F00034462046F8BD2C462046F8BD10B50446C7
:10090000D0F89810D0F894000BF0C2FAD4F89C10EC
:100910000BF0BEFAD4F8A0100BF0BAFA4FF07A51EF
:100920000BF0BEFB10BD00BF2DE9F8430026D0F848
:10093000B480C0F890608146041F00F12C0754F881
:10094000045F414628460BF067FD094950B128462F
:100950000BF044FD30B1304629460BF099FA0646BB
:10096000C9F89000BC42EAD13046BDE8F88300BF28
:100970000000A04003299ABF00EB8100D0F894004A
:10098000002070473E2998BF80F8D010704700BF04
:10099000D0F8DC00704700BF90F8B800704700BF87
:1009A00090F8B900704700BFC0F8CC10704700BF86
:1009B00080F8B810704700BF80F8B910704700BFCA
:1009C00030B50F4CC0F8B41083B020460D4609F086
:1009D000BBFF204609F0B8FF28460AF0B7FE022503
:1009E00002460B46009520460AF006F8204609F01C
:1009F000ABFF204603B0BDE8304009F0A5BF00BF03
:100A0000D487FF1F70B500F55D550646083500F127
:100A100028042046E034FFF729FDAC42F9D106F561
:100A20008475012428460021FFF7C2FF214628468D
:100A30000134FFF7A7FF3F2C05F1E005F2D143F2A7
:100A4000507400250548064A064B35550021306193
:100A50007161B261F361304670BD00BF00007A443D
:100A6000000048430000C8C270B500F55D56083666
:100A700000F58474002507E0012520460021E034BC
:100A8000FFF79AFFB4420AD02046FFF785FF0028FF
:100A9000F3D02046FFF784FF0028EDD170BD284633
:100AA00070BD00BF70B500F58D56083600F5847432
:100AB00002E0E034B4420CD02046FFF76DFF05465B
:100AC0000028F6D02046FFF763FFC307F1D528467C
:100AD00070BD0025284670BD2DE9F04143F25473E6
:100AE00000F55D56374600228046C250083614375E
:100AF00000F5847402E0E034B4420DD02046FFF7E4
:100B00004BFF0028F7D020463D68FFF783FEE03416
:100B10002844B4423860F1D143F2547358F80300CA
:100B2000BDE8F08138B50C6804F00F040134C4EB63
:100B3000C40300EB431015462830FFF7CFFC012D0E
:100B400000D038BD064809F0FFFE2146044809F0F0
:100B50004BFF0B210348BDE8384009F05FBC00BFE4
:100B6000D487FF1F58060100F0B50C6804F00F058C
:100B700004F0F004302C83B00F46064605F1010561
:100B80003ED01ADC14B1202C33D10124072D1CD9FE
:100B9000C5EBC50506EB4515283528460121FFF7AD
:100BA00007FF28460121FFF707FF3A46214628465E
:100BB00003B0BDE8F040FFF7A1BC402C1ED0502C84
:100BC00017D1072D4FF00404E2D8012AE0D12946BD
:100BD0000C48019209F008FF019A0B48114609F0F0
:100BE0001DFC2146074809F0FFFE064809F0ACFE4F
:100BF000CEE7072DCCD8042CCADCE6E70324C5E7F2
:100C00000224C3E7D487FF1F640601002DE9F043E7
:100C1000002383B00646036000F58474012504E0D8
:100C200001353F2D04F1E00466D02046FFF7B4FE05
:100C30000028F5D04E4806F0E9F929464D4806F05F
:100C4000E5F92046FFF770FE0AF080FD02460B46EC
:100C5000494806F0DBF92046FFF770FD8046204644
:100C6000FFF788FD074640460AF070FD804638468B
:100C700089460AF06BFD42464B46CDE900013F48EC
:100C800006F0C4F900212046FFF774FE01218046DA
:100C90002046FFF76FFE074640460AF057FD8046A4
:100CA000384689460AF052FD42464B46CDE90001DE
:100CB000334806F0ABF92046FFF736FE01463068B0
:100CC0000BF0E6F830602046FFF7ACFDB1690BF0A1
:100CD00085FB002833D12046FFF7DAFDF1690BF0E0
:100CE0009BFB00289CD02046FFF7D2FD01353F2D0D
:100CF000F06104F1E00498D170680BF07DF90146D1
:100D000030680BF081FA7169306004460BF084FBA7
:100D100000B17461316920460BF060FB00B13461B1
:100D20000B2007F0B5FE43F25073F35C60B99BB142
:100D300043F250730122F25403B0BDE8F083204621
:100D4000FFF770FDB061C6E753B943F2507300225C
:100D5000F25403B0BDE8F0830A4806F085F9E7E7EE
:100D6000094806F06BF943F250730022F254F0E7A1
:100D70005008010068060100A4060100B806010041
:100D8000E4060100000701003807010070B5114BAF
:100D9000836000F55D550646083500F5847402E071
:100DA000E034AC4213D02046FFF7F6FD0028F7D020
:100DB0002046FFF7C3FCB1680BF010FB0028EFD012
:100DC0002046FFF7BBFCE034AC42B060EBD1B0682A
:100DD00070BD00BF0000A04070B5002300F55D5558
:100DE0000646C360083500F5847402E0E034AC4286
:100DF00013D02046FFF7D0FD0028F7D02046FFF79C
:100E0000B9FCF1680BF008FB0028EFD02046FFF793
:100E1000B1FCE034AC42F060EBD1F06870BD00BFD3
:100E20000068704741607047F8B500F55D550F46A2
:100E30001646083500F5847402E0E034AC420FD069
:100E40002046FFF7A9FD0028F7D020463946FFF7D6
:100E5000ABFD20463146E034FFF7B2FDAC42EFD1A6
:100E6000F8BD00BF2DE9F84343F24C7300F55D5522
:100E70000027C7502E462A4A2A4B426280464FF02E
:100E80000009036208350C3600F5847402E0E03492
:100E9000A54213D02046FFF77FFD0028F7D0336826
:100EA000013333602046FFF729FD1F490BF0B4FAE8
:100EB00088B9E034A54207F10107EBD143F24C7346
:100EC00058F80300C01B0BF097F8014648460BF09A
:100ED0009BF9BDE8F8832046FFF710FD0146484620
:100EE0000AF0D6FF81462046FFF7D2FCD8F8201042
:100EF0000BF092FA70B92046FFF794FCD8F8241052
:100F00000BF06CFA0028C2D02046FFF78BFCC8F823
:100F10002400BCE72046FFF7BBFCC8F82000EAE746
:100F200000C0794400C079C400008CC2006A7047D8
:100F3000406A7047F8B500F55D550746002608354C
:100F400000F5847402E0E034AC420FD02046FFF795
:100F500023FD0028F7D02046FFF72EFC014630463F
:100F60000AF096FFE034AC420646EFD143F24C73F0
:100F7000F8580BF041F8014630460BF045F9F8BD42
:100F80002DE9F04F06468FB096488B4605F0E6FFF8
:100F9000944805F0E3FF934805F0E0FF43F24C73FB
:100FA0003046F2580D92FFF797FD73680C93074691
:100FB00030680AF0CBFB804630468946FFF7BAFF1F
:100FC00082463046B468F568FFF74CFF0AF0BEFB76
:100FD000CDE90A01214628460AF058FF82490BF064
:100FE0005FF80AF0B3FBCDE9080128460AF0AEFB32
:100FF000CDE9060120460AF0A9FBCDE904015046DF
:101000000AF0A4FB0D9A0C9BCDE90201CDE9008901
:10101000114676483A4605F0A1FF724805F09EFF5A
:1010200006F584764FF001094FF0000A07E009F158
:101030000109B9F13F0F06F1E00600F0CB80304620
:10104000FFF7AAFC0028F2D03046FFF761FB3046DC
:10105000FFF762FB3046FFF763FB3046FFF764FBA8
:101060000821634809F0DAF94946624809F0BCFCF6
:10107000B9F1090F40F3B18002215F4809F0CEF9C0
:101080003046FFF751FC0AF061FB5FFA8BF802462D
:101090000B46CDF80080574809F0AEFC01215748B7
:1010A00009F0BCF95546002420E00621544809F017
:1010B000B5F929464F4809F097FC0221514809F03B
:1010C000ADF921463046FFF733FB0AF03FFBCDF880
:1010D000008002460B46474809F08EFC013401218E
:1010E000464809F09BF90C2C09D03D46092D05F125
:1010F0000107DADC0121444809F090F9D5E73D48C1
:1011000009F022FC0921414809F088F90021304604
:10111000FFF730FC0AF01AFB022502460B46009549
:10112000344809F069FC0A21394809F077F90121AE
:101130003046FFF71FFC0AF009FB009502460B46FC
:101140002C4809F059FC0A21324809F067F9294670
:101150003046FFF70FFC0AF0F9FA009502460B46FD
:10116000244809F049FC0A212B4809F057F90321CA
:101170003046FFF7FFFB0AF0E9FA009502460B46FE
:101180001C4809F039FC2146244809F047F930464B
:10119000FFF7FEFB002310220146164809F0E4FB8E
:1011A00008211F4809F03AF93046FFF737FB0023C2
:1011B000014610220F4809F0D7FB09F101090D483B
:1011C00009F0C2FBB9F13F0F0AF10C0A06F1E00683
:1011D0007FF435AF0FB0BDE8F08F01210A4809F068
:1011E0001DF949E75008010000007A44E8090100B0
:1011F000880A0100D487FF1F780F0100940A0100BC
:10120000980A01005C0C01006C0C0100A00A0100AE
:10121000AC0A0100B80A0100C40A0100D00A0100AA
:10122000E00A01002DE9F04F85B000F584758A468B
:1012300003929B462E464FF0010806E008F1010894
:10124000B8F13F0F06F1E0067BD03046FFF7A4FB74
:101250000028F3D000230A2251467D4809F084FB80
:1012600001217C4809F0DAF803980AF06FFA0023AC
:101270000246009376480B4609F0BEFB01217548F3
:1012800009F0CCF85946724809F0AEFB01217148CB
:1012900009F0C4F841466E4809F0A6FB01216D48EB
:1012A00009F0BCF800244FF0020921463046FFF750
:1012B0003FFA0AF04BFACDF8009002460B4664481C
:1012C00009F09AFB01340121624809F0A7F8082CC3
:1012D0004FF00207E9D100213046FFF74BFB0AF03F
:1012E00035FA009702460B46594809F085FB012163
:1012F000584809F093F801213046FFF73BFB0AF00C
:1013000025FA009702460B46514809F075FB01216A
:10131000504809F083F839463046FFF72BFB0AF0B6
:1013200015FA009702460B46494809F065FB08F19B
:101330000108474809F008FBB8F13F0F06F1E00645
:1013400083D101274FF0000904E001373F2F05F159
:10135000E00579D02846FFF71FFB0028F5D00023D1
:101360000A2251463C4809F0FFFA0121394807F0AA
:10137000A5FE03980AF0EAF9CDF8009002460B4664
:10138000354809F039FB0121324807F097FE5946EC
:10139000314809F029FB01212E4807F08FFE39461C
:1013A0002D4809F021FB01212A4807F087FE00247F
:1013B0004FF0020821462846FFF7BAF90AF0C6F9AD
:1013C000CDF8008002460B46234809F015FB013496
:1013D0000121204807F072FE082C4FF00206E9D1E7
:1013E00000212846FFF7C6FA0AF0B0F90096024637
:1013F0000B46194809F000FB0121164807F05EFE74
:1014000001212846FFF7B6FA0AF0A0F90096024635
:101410000B46114809F0F0FA01210E4807F04EFE84
:1014200031462846FFF7A6FA0AF090F900960246E0
:101430000B46094809F0E0FA0137074809F084FA39
:101440003F2F05F1E00585D105B0BDE8F08F00BF65
:10145000D487FF1F64060100C487FF1F0A4A0B4997
:10146000106ED36D03FB00F34FF47A7000FB03F0B2
:10147000642310B50B600AF0BFFD0549054C0AF066
:10148000C3FE206010BD00BF10CCFF1F3087FF1FC0
:10149000E4388E3E34CDFF1F38B5044608460D466D
:1014A0000BF0EEFD2368024629465B68204698470C
:1014B0000546204609F048FA284438BD2DE9F8438E
:1014C0004348444E444F454C05F048FD444B454A83
:1014D000454846495A6011251D70454D454AD8601A
:1014E0001E6100204FF4FA769F619C62424F434C8C
:1014F0001D63434DD961DA624FF07C51414A9863D4
:101500009E863C200C26DF631C643F4F3F4C5D658C
:101510003F4DD9641A6502210122A3F8A4009E65FB
:10152000002064265F62C3F8C4404FF496773224EB
:101530001D625D615D6440F61C45597059721A72F6
:10154000DA6583F84800DF665F669C661E664FF0CA
:101550000A091D6741F20408C3F88000C3F884102B
:10156000C3F88800C3F89040C3F8AC404FF05A0C61
:10157000C3F8A8004FF47A7EC3F8B420C3F8B810BB
:10158000244F254D83F8C82041F2883183F8C920C3
:10159000FF2440F2D6620520C3F8BC60C3F8749003
:1015A000C3F87880C3F87CC0C3F894E0C3F898709F
:1015B000C3F89C50C3F8B040A3F8C200C3F88C1025
:1015C000A3F8C010A3F8A020A3F8A220BDE8F883D8
:1015D000EC0A01000000404033338340CDCCCC3DC9
:1015E00010CCFF1F20A1070066668640CDCC4C4082
:1015F000000020C100008242000020420000A04004
:101600000AD7233D9A997940333373409A99993E8A
:10161000CDCC4C3E0000684200C02044F0B5002113
:1016200085B0112007F042FA0021102007F03EFAA1
:101630000021122007F03AFA0021132007F036FAB1
:1016400001210B2007F032FA01210C2007F02EFABD
:101650000121142007F02AFA0121152007F026FAAB
:101660000121162007F022FA0121172007F01EFAA7
:101670000121052007F01AFA964C974D012106200A
:1016800007F014FA01210D2007F010FA20880AF063
:10169000AFFC0146162007F073F920880AF0A8FC79
:1016A0000146172007F06CF920880AF0A1FC0146DA
:1016B000052007F065F920880AF09AFC002401460D
:1016C000062007F05DF900942346844A8449854842
:1016D00005F0C4FEE6B232467F49824805F06CFE52
:1016E0002B797D497F486FF30003013432462B711B
:1016F00005F058FE082CEDD10924E6B232467649B1
:10170000784805F059FE2B797349764843F0010378
:10171000013432462B7105F045FE0D2CEDD1724C93
:1017200023681021D3F8840006F06AFB2368102197
:10173000D3F8840006F0F8FB23680221D3F8840074
:1017400006F0B4FA23680221D3F8840006F03CFCCA
:1017500023680F21D3F8840006F024FD0C21634890
:1017600008F05CFE624809F0EFF81121614808F0CA
:1017700055FE5F4809F0E8F840F2836007F07CFA14
:101780005B4809F0E1F817215B4808F047FE58482C
:1017900009F0DAF8594B1B789A0600F1D380574BC1
:1017A0001B781B0700F1DA80544B1B785F0700F1B0
:1017B000E180524B1B789E0700F1E880504B1B786C
:1017C0001D0600F1EF804E4B1B785C0600F1F680A1
:1017D0004B4B1B78980600F1FD80494B1B7859074D
:1017E00000F10481464B1B781A0700F10B81444B32
:1017F0001B789B0700F112813D4809F0A5F872B6ED
:10180000404A4CF220534DF62811202413802346E1
:101810001180013BFDD13C4D3C483D4900234FF434
:1018200080562E8003800B8032F80E3C9BB243F032
:10183000D30322F80E3C62B69D2007F0C9FD214675
:101840003448354D08F0EAFD294809F07DF805F1E6
:10185000CC062F462C46601B06F02EFE04F8010B2A
:10186000B442F8D13B78112B01D0FFF727FE0420BA
:1018700005F0C8FA294B2A482A4D00221A6005F0C3
:1018800093FA01210D2007F0FDF8F96D2648FFF7C6
:10189000C9FAFA6C97F848102348FFF7C5FA2348AD
:1018A000234B046803941B682249234A039E006863
:1018B00002901268214C2E6081FB0301DB17204847
:1018C000A3EB21130299216013FB02F3038005B0FF
:1018D000F0BD00BF3487FF1FE4CCFF1F20CFFF1FE8
:1018E00020A1070084CDFF1F64CDFF1F0C0B01005A
:1018F000D487FF1F1C0B0100300B010001F00740D3
:1019000000F007400E200540042005400620054059
:1019100016200540340C010010CCFF1F8492FF1FDD
:10192000FC92FF1F68CBFF1FFC93FF1F2CCFFF1FF4
:101930005487FF1F1F85EB515087FF1F70CBFF1F80
:101940001CCDFF1F2121394808F068FD384808F0F8
:10195000FBFF384B1B781B077FF526AF0C21364861
:1019600008F05CFD324808F0EFFF324B1B785F0750
:101970007FF51FAF0E21314808F050FD2C4808F0CC
:10198000E3FF2C4B1B789E077FF518AF17212C48DF
:1019900008F044FD264808F0D7FF2A4B1B781D06A7
:1019A0007FF511AF0E21284808F038FD204808F0D7
:1019B000CBFF244B1B785C067FF50AAF122123482E
:1019C00008F02CFD1A4808F0BFFF1E4B1B78980644
:1019D0007FF503AF13211E4808F020FD144808F0DE
:1019E000B3FF184B1B7859077FF5FCAE1C21194833
:1019F00008F014FD0E4808F0A7FF124B1B781A07D9
:101A00007FF5F5AE1921144808F008FD084808F0E4
:101A10009BFF0C4B1B789B077FF5EEAE18210F4800
:101A200008F0FCFC024808F08FFFE5E6480B0100D7
:101A3000D487FF1F01F007406C0B01007C0B0100F5
:101A40008C0B010000F00740A40B0100B40B010057
:101A5000C80B0100DC0B0100FC0B0100180C01009D
:101A600070B5464C464D4748E66800232B70FFF79B
:101A7000B3F9014630460AF0B1FC08B104232B70DB
:101A80004048FFF783F921690AF0A8FC18B12B78C8
:101A900043F010032B703B48FFF748FAE16A0AF065
:101AA000BBFC18B12B7843F040032B700023354862
:101AB0006B70FFF73DFA216B314E0AF08FFC08B1D5
:101AC0000123737000232F48EB70FFF785F905465B
:101AD0002C482B4EFFF75AF9014628460AF0D6F952
:101AE000616C0AF099FC08B10123F370264D25487A
:101AF00000232B70FFF770F9A16A0646E0680AF030
:101B0000C5F9014630460AF087FC08B104232B7062
:101B10001C48FFF73BF9A16A064620690AF0B8F9AC
:101B2000014630460AF05AFC18B12B7843F01003F6
:101B30002B701448FFF7FAF9216C0646E06A0AF0A8
:101B4000A5F9014630460AF067FC18B12B7843F03E
:101B500040032B7000230B486B70FFF7E9F9216CF1
:101B60000546206B084C0AF093F9014628460AF016
:101B700035FC08B10123637070BD00BF10CCFF1F9E
:101B8000F8CBFF1FFC93FF1F5092FF1F514B1B68A8
:101B9000002B74D0F0B5504D2B680533B3F57A7F28
:101BA00083B040F38E80002300272B604B4CD4F889
:101BB000AC000AF021FA0646D4F8B0000AF01CFA8C
:101BC00031460AF063F939460AF06AFA44490AF0E4
:101BD0001BFB31460AF05CF90AF028FC014606209E
:101BE00006F0D0FD02213F4808F018FC3E4808F0FE
:101BF000ABFE06213D4808F011FC28680AF0FCF90C
:101C00003B490AF04DFA09F0A1FD022602460B46B7
:101C10000096354808F0F0FE0D21364808F0FEFB2E
:101C2000D4F8AC000AF0E8F9074628680AF0E4F9AD
:101C30002F490AF035FA0546D4F8B0000AF0DCF96D
:101C400039460AF023F9014628460AF029FA2449C0
:101C50000AF0DAFA39460AF01BF909F077FD009626
:101C600002460B46204808F0C7FE31461D4808F0E2
:101C7000D5FB1D4803B0BDE8F04008F065BE174B2A
:101C80001D4AD3F8AC10D3F8B03012685B1A632B3E
:101C90000BDD1A4803FB02F380FB0302DB17C3EBE7
:101CA00062131944062006F06DBD154803FB02239C
:101CB00080FB0302DB17C3EB22121144062006F05F
:101CC00061BD18462B600AF097F909490AF0E8F956
:101CD00007466BE78092FF1FDCCCFF1F10CCFF1F75
:101CE0000000C842780F0100D487FF1F580C010084
:101CF000CDCCCC3D600C01003087FF1F1F85EB5120
:101D0000CBF08D2830B59F489F4C85B008F01CFE65
:101D10009C4808F019FE9B4808F016FE0D219B48D0
:101D200008F07CFBD4F8A830012B11D0984C9548D2
:101D3000217800230A2208F017FE2378052B67D8A4
:101D4000DFE813F006010B01100115011A01010172
:101D50000921904808F062FB8F48FFF717F82169C6
:101D60000AF03CFB18B10F218C4808F057FB8A4859
:101D7000FFF732F8E1680AF04FFB18B10E218848EE
:101D800008F04CFB8448FFF727F805468248FEF729
:101D9000FDFF014628460AF079F8616C0AF03CFB29
:101DA00018B111217F4808F039FB7B48FFF75AF83A
:101DB000E16A0AF031FB18B10C217B4808F02EFBD8
:101DC0007548FFF74FF8216B0AF008FB18B10D2199
:101DD000764808F023FB764B6F481B68012B00F018
:101DE0003E81FEF7D3FF2169674D0AF015FB78B1FC
:101DF0006948FEF7F1FFE9680AF0F0FA40B1644B78
:101E00001B78052B00F03C8108216A4808F006FB8E
:101E10000221694808F002FB122006F039FE012871
:101E200000F0E880112006F033FE012800F0EC807D
:101E3000624B1C68012C00F0F08002215E48604C6F
:101E400008F0ECFA5F4B4F48196808F0CDFD4D489B
:101E500008F07AFD04215C4808F0E0FA0B2006F057
:101E600017FE002301460A22464808F07DFD0C209B
:101E700006F00EFE002301460A22424808F074FDD7
:101E8000142006F005FE002301460A223D4808F012
:101E90006BFD152006F0FCFD0A220023014639489F
:101EA00008F062FD0621494808F0B8FA2368DD070A
:101EB0004FF001014CBF4648464808F0AFFA23688E
:101EC00098074FF001014CBF4148424808F0A6FA7C
:101ED00023685A074FF001014CBF3D483D4808F0C8
:101EE0009DFA23681B074CBF39483A48012108F086
:101EF00095FA0421384808F091FA112006F0C8FD3F
:101F0000002301460A221F4808F02EFD102006F08B
:101F1000BFFD002301460A221A4808F025FD1220C1
:101F200006F0B6FD002301460A22164808F01CFD03
:101F3000132006F0ADFD002301460A22114808F0E7
:101F400013FD05B030BD0721244808F067FA5FE7AC
:101F50000621234808F062FA5AE70721214808F0D1
:101F60005DFA55E70721204808F058FA50E70821A4
:101F70001E4808F053FA4BE70B211D4808F04EFAB3
:101F800046E700BFD487FF1F10CCFF1F700C010075
:101F900004CCFF1F800C0100FC93FF1F8C0C010080
:101FA0009C0C0100AC0C0100C00C0100D00C010025
:101FB0008C92FF1F040D0100780F0100F8CCFF1F69
:101FC00054CDFF1F5C92FF1F7C0D0100840D0100AA
:101FD0008C0D0100641B0100900D0100400D0100FB
:101FE000100D0100180D01002C0D0100340D010031
:101FF000200D01000E21254808F010FA112006F0EE
:1020000047FD01287FF414AF0A21214808F006FAA1
:10201000204B1C68012C7FF410AF11211E4808F0E2
:10202000FDF921461D4808F0F9F91D4B1D4A1B68B2
:102030000393039B1068C01A09F0DAFF1A490AF0EB
:102040002FF809F083FB002502460B460095174840
:1020500008F0D2FC2146114808F0E0F9EDE6FEF761
:1020600095FE616A0AF0D8F900283FF4CDAE16213A
:102070000F4808F0D3F90A210E4808F0CFF9C7E657
:102080000A210C4808F0CAF9C2E600BF480D010059
:10209000580D0100F8CCFF1F640D0100780D010000
:1020A0002CCFFF1F28CDFF1F6F12833AD487FF1F4D
:1020B000E00C0100F80C01002DE9F04F904C914F1D
:1020C000D4F88430012B8DB000F04281032B52D024
:1020D0008D4E8E4DD4F880308D48012B09BF296874
:1020E000296801F10041296006F0D8F83368002B17
:1020F00040F0C680864806F0A7F8D4F884303860EF
:10210000012B064600F0C98082490AF085F978B9AA
:10211000814930460AF062F950B9804A804B126812
:102120000B920B9A1A6000232B600DB0BDE8F08F64
:10213000DFF8E8817A4CD8F800300A930A982368CF
:10214000784FC01A09F054FF314609F0A9FF7649CB
:102150000AF05AF874490AF057F8396809F098FEFD
:10216000D8F800300993099B2360002338602B6066
:102170000DB0BDE8F08FDFF8D0816C4DD8F80000CD
:10218000614E012300220F212B6005F007FD2B6813
:10219000012B336800F0FA80002B40F07E81D8F8E4
:1021A0000030DFF8A891D3F88400436B19698DB231
:1021B000C9F8005005F078FDB4F8A22040F6E443D9
:1021C00003FB05F1B1FBF0F0801A00B209F014FF37
:1021D00057494E4D8246D4F8980009F061FF0146F8
:1021E00050460AF011F8D9F800302860632BDFF868
:1021F0005CA100F3458100232B603368002B3FF482
:1022000069AF02214B4808F009F9D8F80030D9F835
:102210000020D3F8840040F6E44303FB02F805F005
:1022200043FDB8FBF0F009F0E3FE8046B4F8A200ED
:1022300009F0E2FE0146404609F028FE09F086FA60
:102240004FF0020802460B46CDF800803A4808F0ED
:10225000D3FB4146374808F0E1F8286809F076FAE0
:10226000CDF8008002460B46334808F0C5FB4146D6
:10227000324808F0D3F841462E4808F0CFF829E755
:10228000234805F0E1FF09F061FA022602460B46F9
:102290000096294808F0B0FB2CE7244B1B68012B63
:1022A00000F03481022B7FF43EAF25490AF0B4F8E8
:1022B00030B9244930460AF091F8002800F05581E1
:1022C000DFF85880164CD8F8003007930798236839
:1022D000144FC01A09F08CFE314609F0E1FE124994
:1022E00009F092FF104909F08FFF396809F0D0FD1D
:1022F000D8F800300693069B3860236013E700BFD0
:1023000010CCFF1FFCCBFF1FF4CBFF1F48CDFF1FDE
:10231000FCCCFF1F0000FA430000FAC32CCFFF1FC4
:102320005892FF1F34CDFF1F00007A444887FF1FDB
:1023300017B7D138780F0100D487FF1FD40D0100E3
:1023400000C82F4800A08CC664CDFF1F70CDFF1FB2
:102350003D68A84928460AF041F830B12846A64908
:102360000AF05AF800287FF406AFDFF8CC82A34DBC
:10237000D8F80000A24E022300220E212B6005F0A7
:102380000DFC2B68012B33687FF406AF002B40F067
:10239000F380D8F80030DFF8B092D3F88400436BB4
:1023A00019691FFA81FBC9F800B005F07DFCB4F88B
:1023B000A030944D40F6E44A0AFB0BFBBBFBF0F067
:1023C000C01A00B209F018FE8F498346D4F89C0069
:1023D00009F066FE0146584609F016FFD8F80020BD
:1023E000D9F800302860D2F884000AFB03FA05F01F
:1023F0005BFCB4F8A030BAFBF0F00FFA80FAC3EB44
:102400000A03002BB4F8C220B8BF5B429342BCBFA2
:1024100000232B603368002B3FF45CAE02217B4825
:1024200007F0FCFFD8F80030D9F80020D3F884007A
:1024300040F6E44303FB02F805F036FCB4F8A010C4
:10244000B8FBF0F000B2411A714808F0CDFA022151
:102450006E4807F0E3FF286809F078F94FF00208AA
:1024600002460B46CDF80080694808F0C5FA032102
:10247000684807F0D3FF4146644807F0CFFF29E6DC
:10248000D8F80030D3F8840005F00EFCDAF80030FC
:1024900064389842FFF4AFAEAFE65D48DFF8A8912C
:1024A000DFF894A108F050FA0C215B4807F0B6FF62
:1024B0000C215A4807F0B2FFD8F800203368D2F850
:1024C0008400426B11698DB2C9F80050002B3FF4B3
:1024D00071AE05F0E9FB40F6E44100230A2201FB5E
:1024E00005F1B1FBF0F14A4808F03EFA02214748F5
:1024F00007F094FFB4F8A210454808F075FADAF82E
:102500000030D9F80050D3F8840053E6444909F06C
:1025100083FF58B94349304609F060FF30B9424A59
:10252000424B12680592059A1A60FCE5DFF8F880C4
:102530003E4CD8F800300493049823683C4FC01AEE
:1025400009F056FD314609F0ABFD3A4909F05CFE51
:10255000384909F059FE396809F09AFCD8F800307A
:102560000393039B38602360DDE52F4A2F4B1268ED
:102570000892089A1A60D6E52548DFF8CC902E4DCF
:1025800008F0E2F9D4F88430012B4FF00B010CBFB6
:102590002A482B4807F042FF0C21204807F03EFF55
:1025A000D8F800203368D2F88400426B11691FFA12
:1025B00081FBC9F800B0002B3FF4F7AE05F074FBC7
:1025C00040F6E44100230A2201FB0BF1B1FBF0F1DC
:1025D0000F4808F0C9F901211A4807F01FFFB4F8A5
:1025E000A0100B4808F000FA2B68D9F800B0D3F817
:1025F0008400DAE600709446007094C64887FF1F96
:10260000F4CBFF1F48CDFF1F17B7D138780F01005B
:10261000D487FF1FC00D0100C40D0100B00D0100E3
:102620000000FA430000FAC32CCFFF1F5892FF1F8F
:1026300034CDFF1F00007A4464CDFF1F980D0100C8
:10264000A40D01006C0C010070CDFF1F2DE9F04FAF
:102650009A4C236885B0002B7CD0994DDFF86882B6
:10266000984FDFF8AC92D5F88830954E012B00F0EA
:102670008C80D7F800A0D6F860B0F46D924E04FBC1
:102680000BF44FF47A7000FB04F009F0B5FC8F49AD
:102690000446504609F004FD214609F0B5FD8C4979
:1026A00009F0FEFC09F0C2FE6328C8F800004CDD0A
:1026B0002046864909F0A8FD642338603360D9F8C4
:1026C0000030002B3ED0D5F884307D4C012B00F03B
:1026D0008A80032B00F0E080022B00F0E4800221CE
:1026E0007C4807F09BFE7C4B186809F02FF8022409
:1026F00002460B460094794808F07EF92146784856
:1027000007F08CFE2146734807F088FED8F80010C9
:10271000724808F069F90621724807F07FFE3868B0
:102720006A4909F0BDFC09F011F8009402460B4615
:102730006A4808F061F903216B4807F06FFE6748AB
:1027400008F002F905B0BDE8F08F0028BCBF0023F7
:102750003360B4E7654E5A4D33680293029A42F2F1
:1027600028339A424CD833680393039A42F2107389
:102770009A424CD8D5F88830DFF84C81514FDFF8B9
:1027800090914F4E012B7FF474AF5948FEF7D2FB66
:102790005849D6F870A0746F09F082FC09F06CFEFD
:1027A000B26FF36FD5F860B0CAEB02021B1B80B2A8
:1027B0009A42CAEB0000C6BF03FB00000132584337
:1027C00090FBF2F02044EC6D00FB0BF004FB00F0FA
:1027D00000EB8000400009F00FFC3C4909F014FDBB
:1027E000824638604AE7444B1B68012B4FF00A01D0
:1027F0000CBF4248424807F011FED4F8843068E725
:102800003B48EA6C95F84810FEF70EFBABE73848FA
:10281000FEF790FB37492F6F6E6F09F041FC09F00E
:102820002BFEAA6FEB6FD21B9B1B80B29A42A0EBD0
:1028300007003DDD03FB0000531C90FBF3F31E4437
:10284000286EEB6DDFF88080DFF8C490C8F8006078
:1028500000FB06F003FB00F000EB8000400009F0F5
:10286000CBFB1A49174F09F0CFFCD9F8003038607C
:1028700001222260002B3FF4F6AE0221154807F03A
:10288000CDFD164808F060F859211E4807F0C6FD36
:10289000124808F059F8E6E610211B4807F0BEFD83
:1028A000D5F8843018E70721184807F0B7FD16E778
:1028B00003FB00F393FBF2F31E44C1E7ECCCFF1FD4
:1028C00010CCFF1F34CDFF1F3087FF1FE4388E3E32
:1028D0000000C842780F0100FCCBFF1FD487FF1F08
:1028E000D40D0100680E0100700E01002CCFFF1FF7
:1028F000FC93FF1F00007A444887FF1F340E01003D
:10290000400E0100D80D01004C0E0100600E0100C8
:102910002487FF1F30B5112083B006F0B9F80128D5
:1029200018D0122006F0B4F8012813D000210B2093
:1029300006F0A8F800210C2006F0A4F800211520CC
:1029400006F0A0F82649274B0120002208701A60E3
:1029500003B030BD0121152006F094F8224A234C23
:10296000234B1268D4F88C1001921B68019A1D4DFC
:102970000B4493424FF00201296005D901210C203C
:1029800006F080F803B030BDD4F8940009F034FBB1
:10299000184B196809F022FD0028EFD101210B2006
:1029A00006F070F894F8C83003242C6043B10C4B47
:1029B00002221A7000210C2006F064F803B030BD2A
:1029C000122006F065F8012808BF054B4FF01100F2
:1029D00008BF1C7006F05CF80128EBD1E7E700BFE8
:1029E00004CCFF1FF892FF1F2CCFFF1F10CCFF1F3E
:1029F00068CBFF1FFCCBFF1FF0B5684E684D3468F5
:102A00002B689C4287B039D014F0010155D014F0E6
:102A1000020149D014F004013DD0E3070ED52B6824
:102A2000DF070BD45F4F3A68002A00F082805E4BCC
:102A30001B680193019B93426DD83468A0070DD5A4
:102A40002B6899070AD4594F3A68002A4CD0564B44
:102A50001B680393039B934238D8346862070DD5F3
:102A60002B685B070BD4524F3A68002A7ED04E4B3E
:102A70001B680593059B934268D834680CB107B076
:102A8000F0BD2146162005F07DFE2146172005F0F9
:102A900079FE07B0F0BD052005F074FE2B683468A0
:102AA00003F0FB032B60B8E7172005F06BFE2B68E3
:102AB000346803F0FD032B60ACE7162005F062FEDE
:102AC0002B68346803F0FE032B60A0E7394B172016
:102AD000D3F8901005F056FE2B68346843F00203DB
:102AE00000222B603A60B9E7334807F02DFF0C2134
:102AF000324807F093FC304807F026FFFF211720EB
:102B000005F040FE284B2E4A19680291029912687E
:102B10000A443A609CE7274B1620D3F8901005F042
:102B200031FE2B68346843F0010300222B603A60C9
:102B300084E7FF21162005F025FE1B4B204A19686B
:102B40000091009912680A443A6071E7194B052018
:102B5000D3F8901005F016FE2B68346843F0040398
:102B600000222B603A60002C89D18AE7124807F0D6
:102B7000EBFE0C21134807F051FC0F4807F0E4FE70
:102B8000FF21052005F0FEFD074B0D4A1968049151
:102B9000049912680A443A606AE700BFF892FF1F7E
:102BA00054CDFF1FE0CCFF1F2CCFFF1FF0CCFF1F29
:102BB000F4CCFF1F10CCFF1FD487FF1F740E010041
:102BC0003887FF1F840E01002DE9F047534EDFF8D0
:102BD00070813368DFF86C91D3F88400504D0F2179
:102BE00005F0E0FA0023012222214E48C8F8003007
:102BF000C9F8002007F012FCD8F80030132B20DCB5
:102C000040F6E4473368B5F8A0A0D3F88400436BDE
:102C10001C6905F049F8A4B2012107FB04F4B4FBD8
:102C2000F0F441485444A5F8A04007F0F7FB6420B5
:102C300005F064FFD8F800300133132BC8F80030DA
:102C4000E0DDB5F8A030394A3948A2FB03129B1ADF
:102C500002EB5303C3F30F131946A5F8A03007F096
:102C6000C3FE1D21334807F0D9FB0221324807F08B
:102C7000D5FB2F4807F068FE00231A460E21306866
:102C8000C8F8003004F08AFF022322212548C9F841
:102C9000003007F0C3FBD8F80030132B20DC40F6DF
:102CA000E4473368B5F8A290D3F88400436B1C69FD
:102CB00004F0FAFFA4B2012107FB04F4B4FBF0F422
:102CC00019484C44A5F8A24007F0A8FB642005F081
:102CD00015FFD8F800300133132BC8F80030E0DDC1
:102CE000B5F8A230114A1248A2FB03129B1A02EB5C
:102CF0005303C3F30F131946A5F8A23007F074FE6F
:102D00001D210E4807F08AFB02210B4807F086FBC5
:102D10000748BDE8F04707F017BE00BF64CDFF1FAE
:102D200010CCFF1F940E0100D80E01008761188699
:102D3000D487FF1FB80E0100780F0100DC0E0100E0
:102D40006492FF1F4887FF1F2DE9F047C24DD5F859
:102D5000B830062B00F0A681C04BC14C1B68A86D93
:102D600040F2513108222160E271002B00F06F81A6
:102D700009F042F9696A064609F092F9B949B64F75
:102D800009F08EF909F078FB80B203126372B64A3B
:102D9000B64B12681B682072A37230461B121612C3
:102DA000E3722273E969667309F07AF9AD49AC4EB2
:102DB00009F076F909F060FB83B21A123146AC488B
:102DC000A373E27304F042FDAA4AAB4B1268198860
:102DD000A172D3B2237203EB83035B00237302EB74
:102DE000820343F3D7134FEA212E12124FF0080843
:102DF0004FF00009314663739D4884F80BE040F2C0
:102E000055336272236084F8078084F80E9084F84A
:102E10000F9004F01BFD40F256339848236084F86D
:102E20000780FDF7FDFF964909F03AF909F024FB08
:102E300020729248FDF7F4FF914909F031F909F049
:102E40001BFB904A8E49C0F307236372106809F098
:102E5000DBF909F0EBFA40FA08F3A0728748E37255
:102E6000FEF700F87F4909F01BF909F0DFFA20733B
:102E70008248FDF7F7FF7B4909F012F909F0D6FA0D
:102E800040F3072031466073794884F80E9084F847
:102E90000F9004F0DBFC022005F030FE7A4A7B4BF9
:102EA00011782172517890786172D178A0721A7875
:102EB0009878E172597822736173DA78A07340F2DE
:102EC0005A3331466A48E273236084F8078004F07D
:102ED000BDFC6F4B66481A7822725A7862729A78F3
:102EE000A272DA78E2721A7922735A7962739A7945
:102EF000DB79E373314640F25E33A273236084F8DA
:102F0000078004F0A3FC022005F0F8FD614B58484F
:102F10001A7822725A7862729A78A272DA78E27219
:102F20001A7922735A7962739A79DB79E37331469D
:102F30004FF45C73236084F80780A27304F086FC6E
:102F4000554B1B68012B00F06782022005F0D6FD6F
:102F50002B6E2373022600221B12304640F2733878
:102F6000082763732272012362729922A273E372AB
:102F7000E373A672C4F80080E77105F0BFFD3F4817
:102F8000C4F80080E771FDF701FF444909F088F8B3
:102F900009F072FA20723948FDF7F8FE3F4909F04E
:102FA0007FF809F069FAC0F3072334486372FDF72C
:102FB00013FF3A4909F074F809F05EFAA0722F483D
:102FC000FDF70AFF354909F06BF809F055FAC0F32F
:102FD00007232A48E372FDF7ABFF314908F058FF99
:102FE00009F04AFA20732548FDF7A2FF2C4908F0A2
:102FF0004FFF09F041FAC0F3072320486373FDF740
:1030000095FF274908F044FF09F036FAA0731B48E2
:10301000FDF78CFF224908F03BFF09F02DFA10491B
:10302000C0F307231248E37304F010FC304605F0A8
:1030300065FDEA6D2B6EE67112FB03F3C3F3072106
:1030400040F27932237261722260BDE8F08708F0A5
:10305000D3FFA96906468FE610CCFF1F8C92FF1F95
:103060006892FF1F000020414CCDFF1F7C92FF1F84
:1030700084CDFF1F3087FF1F3687FF1FFC93FF1F84
:103080000000C842FCCBFF1FF8CBFF1F5092FF1F70
:103090005887FF1F6087FF1FF8CCFF1F00007A448E
:1030A00033938843CD4CCE48002608274FF4C363A2
:1030B00021464FF059094FF044084FF0420A23606F
:1030C00084F80A9084F80B80E77126722673667381
:1030D000A673E67384F809A004F0B8FB022005F09B
:1030E0000DFD4FF4BB632146BD48236084F80A9070
:1030F00084F80B80E771267284F809A02673667342
:10310000A673E67304F0A2FB022005F0F7FCE96D5C
:103110002A6ED5F858E0B248E77101FB02F312FBC2
:1031200001F203EBC30103EB810302EBC2010EFBCF
:1031300003F302EB81024FF4AB68032112FB0EF2A2
:103140004FF0050C3B414FF0070EC4F80080217290
:103150004FF0120921464FF0040884F80EC0237383
:10316000627384F80FE0A67284F8099084F80B80EB
:1031700004F06CFB022005F0C1FC34224F234FF415
:10318000B36E21469648E272E373C4F800E0E7713B
:103190002672667284F80A902673667384F80E802D
:1031A00004F054FB022005F0A9FC8E4BE7711B686C
:1031B000A86D4FF456722260002B40F0658108F034
:1031C0001BFFA969064608F06BFF874908F068FFF6
:1031D00009F052F980B240FA07F360722372E9698C
:1031E000304608F05DFF804908F05AFF09F044F9C5
:1031F0007E4B7F4A1B6812687849637385B216124A
:103200001B122F1276482373E273E572A772A6731E
:1032100004F01CFB022005F071FC764A764B166820
:103220001D88764BE5721868754906EB86036422A3
:1032300002FB06F203EB83039B0012122E124FF4E3
:103240007677082563722272A6722760E57108F00E
:1032500027FF09F011F983B243FA05F70026F92296
:103260005E495F486373A2732773E67304F0EEFA56
:10327000022005F043FC4FF48B604FF0120E5622F3
:103280007823564920603427554884F80AE0A27311
:10329000E373E5712672667226736673E77204F053
:1032A000D5FA022005F02AFC4FF4A36355482360A9
:1032B000E571FDF73BFE4C4908F0F2FE09F0DCF841
:1032C000C0F307234F482372FDF730FE464908F04C
:1032D000E7FE09F0D1F860724A48FDF729FE42493D
:1032E00008F0DEFE09F0C8F8C0F307234548A372D2
:1032F000FDF71EFE3C4908F0D3FE09F0BDF8FF23A0
:103300003649E072364823736373A373E37304F0A2
:103310009DFA022005F0F2FB4FF49B6339482360CD
:10332000E571FDF77DFD304908F0BAFE09F0A4F81B
:10333000C0F3072333482372FDF772FD2A4908F0D2
:10334000AFFE09F099F8304B30496072186808F008
:103350005BFF09F06BF840FA05F203462948A272B8
:10336000E372FDF77FFD204908F09AFE09F05EF850
:1033700040F3072323482373FDF774FD1A4908F02F
:103380008FFE09F053F80323607314491448A373A4
:10339000E57304F05BFA022005F0B0FB1C4A1D4BFC
:1033A00092F801E09178D0781F785E7892F800C0AA
:1033B000E571DA789D78A172E07284F808C084F82B
:1033C00009E04FF4AC7327736673A573E27323604F
:1033D00002490348BDE8F04704F038BA6892FF1F7D
:1033E00084CDFF1F8C92FF1F000020414CCDFF1F9A
:1033F0007C92FF1F3087FF1F3687FF1F34CDFF1FD2
:10340000620B363BFC93FF1FFCCBFF1F0000C84242
:10341000F8CBFF1F5092FF1F2E48FDF7B7FC796DC8
:1034200008F036FD81462B48FDF7D6FC014648469C
:1034300008F0D4FF00283FF488AD40F2C33325489C
:1034400086F807803360FDF7A1FC3F6D394608F030
:10345000C5FF48B32049384608F022FE09F00CF8B1
:1034600080B240FA08F370723372002301270426F9
:1034700003221A491A48A772E67222736373A37370
:10348000E37304F0E3F960E508F0B6FD696A064607
:1034900008F006FE134908F003FE08F0EDFF80B2C5
:1034A0000312607223729AE60A48FDF76FFC0A491C
:1034B00008F0F6FD08F0E0FFC0F30723054833727B
:1034C000FDF764FC044908F0EBFD08F0D5FF7072CD
:1034D000CBE700BFFC93FF1F00007A446892FF1FF8
:1034E00084CDFF1F0000204138B5174C174A2368D0
:1034F000101D12F8011F904241EA0323F9D1236005
:10350000134C03F100432360124BD3F88430022B99
:1035100011D0114B1B68012B00D038BD0F4807F0AC
:1035200013FA21680D4807F05FFA03210C48BDE843
:10353000384006F073BF20680A4D08F05DFD286032
:10354000FEF7BAFDE5E700BF50CDFF1F5FCBFF1FC1
:10355000F092FF1F10CCFF1F60CDFF1FD487FF1F0D
:10356000080F010048CDFF1F30B54B4C4B4883B0CE
:10357000214604F063F823683C2B68D0A3F19A023B
:10358000C52A0AD903F47F63B3F5B87F444D14D03C
:103590002B68012B1DD003B030BD424B404D1B6842
:1035A000012B50D000223C493F48FDF7DDFA23684B
:1035B00003F47F63B3F5B87FEAD13A4B1B68012B64
:1035C00049D0002234493848FDF7ACFA2B68012B6A
:1035D000E1D1344B1B68012BDDD1344B34481B68DF
:1035E00001930A220023019907F0BEF922682A4BB1
:1035F000002ADB7949DB2F492F4809F019FD2E48B5
:1036000009F03EFD01462C4806F008FF2568224BD4
:1036100015F080452AD1DB798BB1631927491A7AD5
:10362000254809F005FD244809F02AFD01462248F5
:1036300006F0F4FE0135E379EDB2AB42EDD81C485B
:1036400007F082F9A7E72A68012AABD1ABE7FFF7B9
:103650004BFF236892E72A680F491348A2F1010241
:10366000B2FA82F25209FDF75DFA91E7144D124C5D
:103670000FCD0FC495E8030044F8040B204620F852
:103680001419152106F0CAFED9E70E490A4822F09E
:10369000604209F0CDFCB2E758CBFF1F84CDFF1F7D
:1036A0002487FF1F60CDFF1FFC93FF1F2CCFFF1F40
:1036B000D487FF1F340F010074CBFF1F600F010080
:1036C000480F01000C0F0100A24B1B78052B00F0E6
:1036D000A1802DE9F04FA04CA04EA14DE26E636E8B
:1036E000A048326083B02B60FDF722FC216B08F00C
:1036F00075FE08B100232B609A48FDF717FCE16ABC
:1037000008F08AFE10B1002333602B609548FDF766
:1037100063FBE16808F080FE08B100232B6091484C
:10372000FDF75AFBE16808F077FE08B100232B6033
:103730008C48894FFDF72AFB216908F04FFE0028CD
:103740006ED0002333602B68854F002B53DD8548F6
:10375000DFF80482FDF7EAFBA16B08F03FFE0028CA
:1037600040F0C480804B7F481B687B4F012B00F0EA
:10377000FD80FDF731FB216A8046A06908F086FBD9
:103780000146404608F048FE002834D0286808F07A
:1037900033FC82467348FDF71FFBD7F81880834639
:1037A000396A404608F072FB8146B86E08F024FC86
:1037B0000446786E08F020FC214608F067FB494675
:1037C0000746584608F062FB0146384608F068FC98
:1037D00049460746404608F059FB0146384608F07E
:1037E00013FD214608F054FB0146504608F04EFBFD
:1037F00008F01CFE28603368584A002BAFBF2B68C6
:103800002B6800211160002B01DA00232B6003B02C
:10381000BDE8F08F5149524A00230B601360704796
:103820005048FDF7B3FAF96908F0D8FD002888D1AF
:103830003368DFF82891002B85DD4A48FDF778FBD7
:10384000F96B08F0E9FD002840F0B3804548424F8D
:10385000FDF79CFA216908F0DFFD002800F09F8049
:103860004048DFF8F480FDF791FAD4F8C410074619
:10387000E06908F00DFB0146384608F0AFFD00286E
:103880003FF461AF306808F0B7FB82463548FDF77A
:103890007DFA8346D8F86C00D8F81C7008F0ACFBB1
:1038A00039468146584608F0F1FA494683460020D9
:1038B00008F0ECFA0146584608F0F2FBD8F8C410BC
:1038C0008346384608F0E4FA394608F0DFFA014644
:1038D000584608F099FC494608F0DAFA0146504685
:1038E00008F0D4FA08F0A2FD30602CE7386808F040
:1038F00083FB83461B48FDF719FB0190D8F8640051
:10390000D8F830A008F078FB019B81465146184654
:1039100008F0BCFA49460190002008F0B7FA019B74
:103920000146184608F0BCFB51460190D8F8380013
:1039300008F0ACFA019B0146184608F065FC4946C0
:1039400008F0A6FA0146584608F0A0FA08F06EFD05
:10395000386007E704CCFF1F10CCFF1F4CCDFF1FC2
:103960007C92FF1FFC93FF1F8C92FF1FFDF734FA20
:10397000216A8046606A08F089FA0146404608F0EC
:103980004BFD00283FF437AF286808F035FB82462E
:103990001E48FDF721FAD7F82480834600E71B482C
:1039A000FDF7F4F9F96908F037FD00287FF458AF06
:1039B000C9E6D9F8000008F01FFB82461348FDF75E
:1039C000B7FA0190F86ED7F83C8008F015FB019B20
:1039D00083464146184608F059FA0146584608F011
:1039E0005FFB41468346F86A08F050FA01465846A4
:1039F00008F00AFC002108F04BFA0146504608F096
:103A000045FA08F013FDC9F800001FE7FC93FF1FFB
:103A100008B5274806F098FF0721264806F0FEFC67
:103A2000112005F035F80621F8B1234806F0F6FC20
:103A3000102005F02DF8062100B3204806F0EEFC1A
:103A4000122005F025F8062108B31D4806F0E6FC13
:103A5000132005F01DF8062110BB1A4806F0DEFC05
:103A60001348BDE8084006F06FBF174806F0D6FCC3
:103A7000102005F00DF806210028DED1134806F0CD
:103A8000CDFC122005F004F806210028DDD11048F5
:103A900006F0C4FC132004F0FBFF06210028DCD054
:103AA0000C4806F0BBFC0248BDE8084006F04CBFDD
:103AB000D487FF1F6C0F0100740F0100840F0100F9
:103AC000940F0100AC0F01007C0F01008C0F01006E
:103AD0009C0F0100A40F010010B5254C2368042B96
:103AE00027DC01210B2004F0CDFF01210C2004F084
:103AF000C9FF0121142004F0C5FF0121152004F0A5
:103B0000C1FFFF21162004F03DFEFF21172004F025
:103B100039FEFF21052004F035FEFF21062004F0C8
:103B200031FE236801330A2B2360C4BF00232360C6
:103B300010BD00210B2004F0A5FF00210C2004F093
:103B4000A1FF0021142004F09DFF0021152004F0A6
:103B500099FF0021162004F015FE0021172004F023
:103B600011FE0021052004F00DFE0021D6E700BF64
:103B70005492FF1F30B5092183B0AE4805F09EFA7C
:103B8000222005F043FAAC4BD3F8A830012BAB4B05
:103B90001B7809D0052B10D8DFE813F02D01320176
:103BA0003C01410137010B00002B00F03D81052B4A
:103BB00003D10721A24805F081FA222005F026FA58
:103BC000FF2005F023FAFF2005F020FA9D4CFF208E
:103BD00005F01CFA08219C4805F070FA21689B4802
:103BE00006F002FFFF2005F011FAFF2005F00EFAA3
:103BF000FF2005F00BFA0921954805F05FFA2168CE
:103C0000924806F0F1FEFF2005F000FAFF2005F0D3
:103C1000FDF9FF2005F0FAF90C218E4805F04EFA67
:103C20008D4B8E49186808F0EFFA07F08FFD0024DD
:103C300002460B460094854806F0DEFEFF2005F0A4
:103C4000E5F9FF2005F0E2F9FF2005F0DFF9092191
:103C5000834805F033FA8348FDF704F907F076FD51
:103C6000009402460B46794806F0C6FEFF2005F098
:103C7000CDF9FF2005F0CAF9FF2005F0C7F90C21A6
:103C8000794805F01BFA7748FDF752F907F05EFD19
:103C9000009402460B466D4806F0AEFEFF2005F08C
:103CA000B5F9FF2005F0B2F9FF2005F0AFF90D21BD
:103CB0006E4805F003FA6B48FDF738F907F046FD4A
:103CC000009402460B46614806F096FEFF2005F080
:103CD0009DF9FF2005F09AF9FF2005F097F90921D9
:103CE000634805F0EBF95F48FDF79AF8614908F081
:103CF000D7F907F02BFD009402460B46534806F017
:103D00007BFEFF2005F082F9FF2005F07FF9FF2000
:103D100005F07CF90C21584805F0D0F95148FDF721
:103D200035F8564908F0BCF907F010FD009402463A
:103D30000B46464806F060FEFF2005F067F9FF20BD
:103D400005F064F9FF2005F061F90D214C4805F0FC
:103D5000B5F94448FDF740F8484908F0A1F907F0E3
:103D6000F5FC009402460B46384806F045FEFF205D
:103D700005F04CF9FF2005F049F9FF2005F046F960
:103D80000921404805F09AF93F4B3048196806F080
:103D90002BFEFF2005F03AF9FF2005F037F9FF2050
:103DA00005F034F90E21394805F088F92D48FDF762
:103DB00013F805462B48FCF7E9FF0146284608F0B2
:103DC00065F82E4908F06CF907F0C0FC0094024633
:103DD0000B461E4806F010FEFF2005F017F9FF20E5
:103DE00005F014F9FF2005F011F9FF2003B0BDE83C
:103DF000304005F00BB90621254805F05FF9DCE6F7
:103E00000721244805F05AF9D7E60B21224805F08E
:103E100055F9D2E60721214805F050F9CDE60821F1
:103E20001F4805F04BF9C8E608211E4805F046F981
:103E3000C3E600BFB40F010010CCFF1F04CCFF1F6E
:103E4000400D01003087FF1FCC0F0100C487FF1F0A
:103E5000D80F0100E40F0100FCCBFF1F0000C84297
:103E6000F40F0100FC93FF1F00100100101001006F
:103E700020100100000020412C10010000007A44B5
:103E80003C1001004C1001004487FF1F5810010036
:103E9000100D0100180D0100200D01002C0D010076
:103EA000340D0100C00F01002DE9F0418D4DD5F812
:103EB000B830042B3ED0032B6ED0012B00F098803D
:103EC000022B01D0BDE8F081874C8848237240F274
:103ED0000E32012321462260E37103F0B7FC844BCC
:103EE0001B685B00FF2BC8BFFF23042140224FF457
:103EF00041702060E17122726372A86D08F07CF855
:103F0000A96908F0CDF87B49054608F085FA002834
:103F100000F0DE802946284607F0BAFF08F0ACFA28
:103F200080B20312E072A3726F497048BDE8F0419D
:103F300003F08CBC6C4C704AA379226043F00103FF
:103F40000822E271A371A86D08F056F8A96908F07B
:103F5000A7F86A4908F0A4F808F08EFA644B684A9A
:103F60001B68126893FBF2F380B200261A12071244
:103F7000607221465D48E372A272277226736673EF
:103F8000A673E67303F062FCA279D5F8B83066F345
:103F90000002032BA27190D1534CA86DA372012291
:103FA000E823072140F2FF26227263722660E17146
:103FB00008F022F8A96908F073F8504908F070F881
:103FC00008F05AFA4A4B4E4A1B68126893FBF2F308
:103FD00082B21E121712214644486373E27227739D
:103FE000A67303F033FCD5F8B830012B7FF468AF2B
:103FF000444B3D4C1B682360072280231020E27154
:10400000237204F045FD002869D13F4B1B68DFF89F
:10401000E0803B4FA86D344E03EB83035B001A1224
:10402000A3726272D8F800303A6893FBF2F31A1266
:104030006273A37307F0E0FFA96908F031F8334B0E
:10404000196807F023FF2D4908F02AF808F014FA40
:1040500080B20312314620732448E37203F0F6FB6A
:10406000022004F04BFD2A4B1B68236007228023AB
:104070001020E271237204F00BFD70BB224B1B6811
:10408000A86D03EB83035B001A127272B37207F020
:10409000B3FFA96908F004F81E4B196807F0F6FE93
:1040A000164907F0FDFF08F0E7F982B216123868EA
:1040B000D8F80030227393FBF0F30B490B48A3733D
:1040C0001A12E672627303F0C1FBD5F8B830F7E656
:1040D00001229023A272E37226E70F4BCFE70E4B2B
:1040E00094E700BF10CCFF1F6892FF1F84CDFF1F15
:1040F0007C92FF1F00004843F4E5061800002041B1
:104100002C87FF1F6887FF1F2887FF1F7892FF1FDC
:104110006C87FF1F38CDFF1F3C87FF1F70B50368FA
:10412000C57984B0012D8DF805304FEA13230E4672
:104130008DF8043005F1010201A909DD07300D44B5
:104140000DF1050310F8014F03F8014FAB42F9D10F
:10415000034B04489B5D02F043FE04B070BD00BFFA
:10416000881B0100FC92FF1FF0B40D4B0D489C7999
:104170000822FF27CD26A225DA710022B0216FF395
:1041800000041F729E72DD725A721A735A739A7308
:10419000DA7319609C711946F0BC03F057BB00BF7D
:1041A0006892FF1F84CDFF1F2DE9F0415B4D2B78F6
:1041B0000F2B82B068D05A4B1B785A4F002B4FD030
:1041C00000223A60584E3378082B4ED0DFF88481B5
:1041D00043F08003554C0821012A2360E17176D019
:1041E000682210232272637298F800304F4900222F
:1041F000022BA2720AD82B78CA724FEA03130A73F1
:104200004A73DBB210D104338B730EE03B68012B91
:1042100004BF08230B732B7818BF0A7350200022A9
:104220001B01C872DBB26273A37331783F48FFF79A
:1042300075FFE073022004F061FC3C493C4803F048
:1042400005FB2A7833783B48013201332A703370FA
:10425000FCF728FC08B1FFF787FF02B0BDE8F0814A
:10426000314E3A683378082BB0D1DFF8E88098F8FF
:104270000030032B98BF01334FF0000198BF88F83E
:10428000003031708023A5E72B4E2C4C336800930F
:10429000009A2168002391422B7013D2284B204FA3
:1042A0001A6801239A423B7029D0264A316801914D
:1042B000B2F8A410019A3C314FF47A7000FB01224D
:1042C00022607AE7164A174F13703A687AE719485E
:1042D000FCF75CFD1C4907F0E3FE08F0CDF800F1A7
:1042E0000A0314482372FCF751FD174907F0D8FE62
:1042F00008F0C2F880B20A300012607274E7134806
:1043000006F022FB1321124806F088F80F4806F049
:104310001BFB0E4806F018FB3B78C6E73CCDFF1FA1
:1043200044CDFF1FF8CCFF1F5CCDFF1F6892FF1F1D
:1043300084CDFF1FFC93FF1F2CCFFF1F28CDFF1F35
:104340002487FF1F10CCFF1F00007A44D487FF1F73
:104350006810010068CDFF1FF0B5B14CB14D83B0BE
:1043600005F0F6FF23682860042B00F04F83022B32
:1043700056D0082B46D0072B40F07A81332801F025
:10438000678500F3DB80312801F07585322842D142
:1043900006F01AF8002840F36981A348A34E06F0FE
:1043A00065FC07F029FEA24907F07AFE612301228D
:1043B000706422602B601846A0F152031F2B2AD88C
:1043C000DFE813F0290D2900290029002900290020
:1043D0002900290029002900290029002900290095
:1043E0002900E303110E5D05F605C8042900290024
:1043F000290057042900140E29002900290029004A
:104400002900190D322800F08D83712800F09C805E
:10441000312800F09C83732800F09A8003B0F0BD2F
:10442000A0F13103422BF6D801A252F823F000BFCD
:10443000CB540000E7540000035500006154000015
:1044400087540000A55400001744000017440000E2
:1044500017440000174400001744000017440000F0
:1044600017440000174400001744000017440000E0
:1044700017440000174400001744000017440000D0
:1044800017440000174400001744000017440000C0
:1044900017440000174400001744000017440000B0
:1044A00017440000174400001744000017440000A0
:1044B0001744000017440000174400001744000090
:1044C0001744000017440000174400001744000080
:1044D0001744000017440000174400001744000070
:1044E0001744000017440000174400001744000060
:1044F0001744000017440000BF5400001744000098
:10450000174400001744000017440000174400003F
:10451000174400001744000017440000174400002F
:10452000174400001744000017440000174400001F
:10453000494500001744000043540000342801F0AE
:10454000768471287FF467AF0022732322602B608A
:104550002368002B7FF462AF364E334806F0F4F93F
:104560000421354805F05AFF2F4806F0EDF91021D7
:10457000324805F053FF2C4806F0E6F91321304885
:1045800005F04CFF2F4B2848196806F02DFA2648F5
:1045900006F0DAF914212C4805F040FF224806F015
:1045A000D3F91E21294805F039FF1F4806F0CCF940
:1045B0001521274805F032FF1B4806F0C5F91E21DA
:1045C000244805F02BFF184806F0BEF920212248A8
:1045D00005F024FF144806F0B7F919211F4805F02B
:1045E0001DFF114806F0B0F912211D4805F016FF15
:1045F0000D4806F0A9F90F211A4805F00FFF0A48E7
:1046000006F0A2F90D21184805F008FF064806F04B
:104610009BF9002201233260236003B0F0BD00BF8C
:104620006CCDFF1F54CBFF1FD487FF1F10CCFF1F83
:104630006F12833A2487FF1F1C1401002414010009
:10464000381401004487FF1F4C140100641401005A
:10465000841401009C140100BC140100E01401004A
:10466000FC140100101501002015010023682868C2
:10467000062B40F08D80A0F13103402B3FF6CBAEEE
:1046800001A252F823F000BF8D530000B95300007F
:10469000E5530000495300006F5300000B54000025
:1046A0002F54000017440000174400001744000076
:1046B000174400001744000017440000174400008E
:1046C000174400001744000017440000174400007E
:1046D000174400001744000017440000174400006E
:1046E000174400001744000017440000174400005E
:1046F000174400001744000017440000174400004E
:10470000174400001744000017440000174400003D
:10471000174400001744000017440000174400002D
:10472000174400001744000017440000174400001D
:10473000174400001744000017440000174400000D
:1047400017440000174400001744000017440000FD
:1047500017440000174400001744000017440000ED
:1047600017440000174400001744000017440000DD
:1047700017440000174400001744000017440000CD
:1047800017440000174400004945000023682868CA
:10479000052B40F08D80A0F13103402B3FF63BAE5E
:1047A00001A252F823F000BF115100008552000011
:1047B0004952000069520000055200002F520000CB
:1047C000174400001744000017440000174400007D
:1047D000174400001744000017440000174400006D
:1047E000174400001744000017440000174400005D
:1047F000174400001744000017440000174400004D
:10480000174400001744000017440000174400003C
:10481000174400001744000017440000174400002C
:10482000174400001744000017440000174400001C
:10483000174400001744000017440000174400000C
:1048400017440000174400001744000017440000FC
:1048500017440000174400001744000017440000EC
:1048600017440000174400001744000017440000DC
:1048700017440000174400001744000017440000CC
:1048800017440000174400001744000017440000BC
:1048900017440000174400001744000017440000AC
:1048A0001744000017440000A55200002368286840
:1048B000032B40F0A480A0F13003422B3FF6ABADB8
:1048C00001A252F823F000BFD5490000DF5A0000D2
:1048D000075B00002F5B0000EB5B00000D5C00003D
:1048E000355C00005D5C00007B5C0000875B0000C5
:1048F000174400001744000017440000174400004C
:10490000174400001744000017440000174400003B
:10491000174400001744000017440000174400002B
:10492000174400001744000017440000174400001B
:10493000174400001744000017440000174400000B
:1049400017440000174400001744000017440000FB
:1049500017440000174400001744000017440000EB
:1049600017440000174400001744000017440000DB
:1049700017440000174400001744000017440000CB
:10498000174400001744000017440000AF5B00000C
:1049900063560000CD5B00009F5C0000BD5C000022
:1049A000055D0000195600003D5600001744000048
:1049B00017440000B75A00001744000017440000D5
:1049C0001744000017440000174400004945000048
:1049D000515B000005F0F8FC002841F32182CB4830
:1049E000CB4E06F043F90127034601466222C9482F
:1049F000F36527602A60FCF715FA23682868012B05
:104A00003FF4DAAC73287FF409ADA1E5A0F13103DE
:104A1000412B3FF600AD01A252F823F08B55000068
:104A20008F55000093550000B3550000B7550000A6
:104A3000D355000039550000515500005555000070
:104A400017440000174400001744000017440000FA
:104A500017440000174400001744000017440000EA
:104A600017440000174400001744000017440000DA
:104A700017440000174400001744000017440000CA
:104A800017440000174400001744000017440000BA
:104A900017440000174400001744000017440000AA
:104AA000174400001744000017440000174400009A
:104AB000174400001744000017440000174400008A
:104AC000174400001744000017440000174400007A
:104AD000174400001744000017440000174400006A
:104AE00071550000174400001744000017440000EF
:104AF000174400001744000017440000174400004A
:104B00001744000017440000174400001744000039
:104B100017440000174400001744000049450000F6
:104B20001D55000005F050FC002840F3098477482B
:104B3000774E06F09BF807F05FFA774907F0B0FA76
:104B40000346024696F848107248F36414E005F0F4
:104B50003BFC002840F3F0836C486D4E06F086F86D
:104B6000C0B286F84800022894BF01460021F26CCA
:104B7000684888BF86F84810FCF756F90123692079
:104B80002360286018E405F0E3FB05F01DFC0546F2
:104B90000028F8D15D485E4E05F0D6FE5B4805F072
:104BA000D3FE5A4805F0D0FE584805F0CDFE5748D0
:104BB00005F0CAFE1F21594805F030FC534805F0A6
:104BC000C3FE1C21564805F029FCB06A554907F080
:104BD00067FA06F0BBFD009502460B464B4805F010
:104BE0000BFF0221504805F019FC484805F0ACFEC7
:104BF00023214E4805F012FC706C4A4907F050FA28
:104C000006F0A4FD009502460B46404805F0F4FE70
:104C10000221454805F002FC3C4805F095FE1921AB
:104C2000434805F0FBFB306C06F090FD02250B4677
:104C300002460095354805F0DFFE29463D4805F05F
:104C4000EDFB324805F080FE22213B4805F0E6FBF3
:104C5000B18E2E4805F0C8FE0321384805F0DEFB72
:104C60002A4805F071FE07232360FFF7D7BB05F044
:104C70006FFB05F0A9FB05460028F8D12348244E18
:104C800005F062FE214805F05FFE204805F05CFE5D
:104C90001E4805F059FE1D4805F056FE152128480E
:104CA00005F0BCFB194805F04FFE1821254805F01A
:104CB000B5FB2B460A2296F84810144805F054FE1E
:104CC000124805F041FE28211F4805F0A7FBF06CB3
:104CD000144907F0E5F906F039FD00950B46024648
:104CE0000A4805F089FE02210F4805F097FB0748A6
:104CF00005F02AFE1321154805F090FB034805F046
:104D000023FE08232360FFF789BB00BFD487FF1F62
:104D100010CCFF1FFC93FF1F6F12833A6412010037
:104D20008412010000007A44E8100100A41201007E
:104D3000C8120100E4120100E81201000C13010086
:104D4000E4140100A0100100BC100100EC100100EF
:104D500005F0FEFA05F038FB05460028F8D17F483B
:104D60007F4E05F0F1FD7D4805F0EEFD7B4805F036
:104D7000EBFD7A4805F0E8FD784805F0E5FD1121E6
:104D8000784805F04BFB754805F0DEFD2821764894
:104D900005F044FBB069754907F082F906F0D6FCCE
:104DA000009502460B466D4805F026FE022170482C
:104DB00005F034FB694805F0C7FD16216D4805F084
:104DC0002DFB306A694907F06BF906F0BFFC0095CE
:104DD0000B460246614805F00FFE0221644805F0CB
:104DE0001DFB5E4805F0B0FDD6F8B830002B32DD73
:104DF0001D21614805F012FB706E07F0FDF85F4958
:104E000007F04EF906F0A2FC022502460B4600957B
:104E1000524805F0F1FD0121594805F0FFFA4F48CD
:104E200005F092FD1F21574805F0F8FAB06E07F023
:104E3000E3F8524907F034F906F088FC0095024681
:104E40000B46464805F0D8FD01214D4805F0E6FA2D
:104E5000424805F079FD11214B4805F0DFFAD6F8FC
:104E6000B830062B00F27287DFE813F0BB07C007EB
:104E7000B607B107AC07A7076C0705F069FA05F09C
:104E8000A3FA0028F9D13548354E05F05DFD3348C9
:104E900005F05AFD314805F057FD304805F054FD46
:104EA0002E4805F051FD1F21384805F0B7FA2B4870
:104EB00005F04AFD1E21364805F0B0FA274805F0F6
:104EC00043FD1A21334805F0A9FAD6F88430022BA5
:104ED00001F03780032B01F02B80012B01F01F80A4
:104EE00009212D4805F09AFA1C4805F02DFD1421E2
:104EF0002A481B4F05F092FAD6F88010174805F0A3
:104F000073FD164805F020FD1C21254805F086FAA2
:104F1000D6F88810114805F067FD104805F014FD1B
:104F20001C21204805F07AFAD6F8B4100B4805F099
:104F30005BFD0A4805F008FDD6F8845025F002050F
:104F4000012D00F0BB871321174805F067FA0348CD
:104F500005F0FAFC02232360FFF760BAD487FF1F35
:104F600010CCFF1F881401000011010000007A44DA
:104F7000E81001002C11010044110100CDCCCC3D02
:104F8000A4170100641101008411010064160100DE
:104F900084160100A41601001C1701002817010047
:104FA0004017010060170100EC10010005F0D0F976
:104FB00005F00AFA0028F9D1BE48BF4D05F0C4FC3F
:104FC000BC4805F0C1FCBB4805F0BEFCB94805F083
:104FD000BBFCB84805F0B8FC1321B84805F01EFA30
:104FE000B44805F0B1FC0D21B54805F017FAB148F9
:104FF00005F0AAFC0F21B34805F010FAB24BAD48FA
:10500000196805F0F1FCAB4805F09EFC1321AF4890
:1050100005F004FAAE4BA748196805F0E5FCA54871
:1050200005F092FC1221AB4805F0F8F9AA4BA14813
:10503000196805F0D9FC9F4805F086FC1121A748A6
:1050400005F0ECF9A64B9B48196805F0CDFC994892
:1050500005F07AFC0E21A34805F0E0F9D5F8A81078
:10506000944805F0C1FC934805F06EFC19219E4858
:1050700005F0D4F99D4B8F48196805F0B5FC8D48B3
:1050800005F062FC11219A4805F0C8F9994B89484E
:10509000196805F0A9FC874805F056FC10219648D0
:1050A00005F0BCF9954B8348196805F09DFC8148D3
:1050B00005F04AFC1C21924805F0B0F9914B7D485F
:1050C000196805F091FC7B4805F03EFC16218E48DE
:1050D00005F0A4F9B5F8A410764805F085FC1E216A
:1050E0008A4805F09BF9734805F02EFC1721884883
:1050F00005F094F96F4805F027FC1321854805F069
:105100008DF96C4805F020FC04232360FFF786B975
:1051100005F05AF900287FF7C9AB6648664E05F0DE
:10512000A5FD01226B23C6F88C0022602B6001E0F4
:1051300005F00EF905F048F90028F9D15D485E4DFB
:1051400005F002FC5B4805F0FFFB5A4805F0FCFB4C
:10515000584805F0F9FB574805F0F6FB21216E4849
:1051600005F05CF9534805F0EFFB15216B4805F09D
:1051700055F9D6F88C104F4805F036FC02216848E6
:1051800005F04CF94B4805F0DFFB1E21654805F0A2
:1051900045F9D6F89410474805F026FC03216248EB
:1051A00005F03CF9434805F0CFFB1E215F4805F0B0
:1051B00035F9D6F890103F4805F016FC3D4805F04B
:1051C000C3FB1D215A4805F029F9D6F8AC1039481F
:1051D00005F00AFC374805F0B7FB1E21554805F0DD
:1051E0001DF9D6F8B010334805F0FEFB314805F044
:1051F000ABFBD6F8A830012B00F0E2860523236034
:10520000FFF70CB905F0E0F800287FF74FAB29480D
:10521000294E05F02BFD374BC6F8B00003221A606B
:10522000FCF7B4FC01226B2322602B6082E7224E44
:1052300096F8C930B3FA83F35B0901216B2286F833
:10524000C93021602A6075E705F0BEF800287FF7B5
:105250002DAB1848184E05F009FD01226B23C6F846
:10526000900022602B6065E705F0AEF800287FF71C
:105270001DAB1048104E05F0F9FC1E4BC6F8AC00F3
:105280000222CCE705F0A0F800287FF70FAB094811
:10529000094E05F0EBFC01226B23C6F89400226056
:1052A0002B6047E71349002373220B6023602A60B9
:1052B000FFF74EB9D487FF1F10CCFF1F3015010038
:1052C000441501005415010060CDFF1F6415010055
:1052D000F4CBFF1F7815010024CDFF1F8C150100B2
:1052E00008CCFF1FA0150100B01501005C92FF1F44
:1052F000CC1501008092FF1FE01501004C92FF1FAA
:10530000F41501004087FF1F141601002C16010040
:105310004C160100EC1001001013010034130100C1
:10532000181201004C130100C00D01006C130100A4
:105330008C130100AC130100AA4E96F8480012E449
:1053400023682868FFF717B805F03EF800287FF7B4
:105350001DAAA548A34E05F089FC00EB8000430080
:1053600001226520B36622602860FFF725B89D4AB8
:10537000D2F8B8300133062BC8BF0023C2F8B830CA
:105380000123652023602860FFF716B805F01CF89C
:1053900000287FF7FBA99448924E05F067FC06F0C1
:1053A0002BFE924906F030FF65230122B061226096
:1053B0002B601846FFF700B805F006F800287FF7C5
:1053C000E5A98948874E05F051FC06F015FE87498E
:1053D00006F01AFF65230122306222602B60184616
:1053E000FEF7EABF04F0F0FF00287FF7CFA97E4860
:1053F0007C4E05F03BFC00EB800043000122652061
:10540000736622602860FEF7D7BF04F0DDFF002836
:105410007FF7BCA97448734E05F028FC6523012270
:10542000C6F8BC0022602B601846FEF7C5BF6D4B66
:1054300093F8C820002A00F03485002283F8C820A1
:105440009EE7684AD2F884300133032BC8BF00239B
:10545000C2F884300123632023602860FEF7ACBFCC
:105460000123236004F0B0FF002807DD5E485D4E95
:1054700005F0FCFB06F0C0FDC6F89C006320286028
:105480002368FEF778BF0123236004F09DFF002806
:10549000F4DD5548534E05F0E9FB06F0ADFDC6F8C6
:1054A0009800EBE70123236004F08EFF0028E5DD80
:1054B0004D484C4E05F0DAFBA6F8C200DEE7FDF7DA
:1054C00083FB23682868FEF754BF464ED6F8803029
:1054D000B3FA83F35B0901226320C6F880302260AF
:1054E0002860FEF769BF3F4ED6F88830B3FA83F3E1
:1054F0005B0901226320C6F8883022602860FEF72D
:105500005BBF0123236004F05FFF0028A2DD364863
:10551000344E05F0ABFBC6F8B4009BE701232360D3
:10552000FEF722FE64232B602368082B4FF06400F3
:105530007EF421AFFEF766BF2D4A1368B3FA83F3FA
:105540005B0901216420136021602860FEF734BFED
:10555000284AF2E70123236004F036FF002800F315
:10556000A584254B1A68042ADCDD02221A60D9E7DB
:105570000123236004F028FF0028D3DD1A48194EC8
:1055800005F074FBA6F8A400CCE71C4AD5E71C4A3A
:10559000D3E71C4A1C4F1368002B0CBF01210021CC
:1055A0004FF001031160236040F0D48464222A602C
:1055B000BBE7164AC1E70B4ED6F8A830B3FA83F31F
:1055C0005B0901226420C6F8A83022602860FEF73B
:1055D000F3BE01230E482360FBF77EFA0D4A2368D1
:1055E0001060E3E710CCFF1FD487FF1F00007A4450
:1055F0008092FF1F4C92FF1F4087FF1F60CDFF1F4F
:10560000F4CBFF1F24CDFF1F6CCDFF1F08CCFF1F65
:10561000FC93FF1F5C92FF1F04F0D6FE00280DDDF7
:105620001748184E05F022FB06F0E6FC164906F076
:10563000EBFD01226223706222602B6004F0C4FE45
:1056400000280EDD0E480F4E05F010FB06F0D4FCCE
:105650000D4906F0D9FD01226223C6F8C40022607C
:105660002B6004F0B1FE002840F3DA830448054EB5
:1056700005F0FCFA01226223306722602B6007E00C
:10568000D487FF1F10CCFF1F00007A4404F060FE97
:1056900004F09AFE05460028F8D1C24805F054F9F6
:1056A000C04805F051F9BF4805F04EF9BD4805F076
:1056B0004BF9BC4805F048F91521BB4804F0AEFE93
:1056C000B84805F041F91421B84804F0A7FEB548E0
:1056D00005F03AF91B21B64804F0A0FEB14805F0E8
:1056E00033F91321B34804F099FEAE4805F02CF9C4
:1056F000AC4805F029F9AB4805F026F92021AE4861
:1057000004F08CFEF068AD4906F0CAFC06F01EF805
:10571000009502460B46A34805F06EF90221A84801
:1057200004F07CFE0221A74804F078FE9D4805F0B5
:105730000BF92121A44804F071FE30699F4906F05D
:10574000AFFC06F003F8009502460B46954805F0BD
:1057500053F902219A4804F061FE0221994804F0AD
:105760005DFE904805F0F0F81F21984804F056FEC1
:10577000F06A05F0EBFF022702460B4600978948C6
:1057800005F03AF90121924804F048FE39468D4867
:1057900004F044FE834805F0D7F820218D4804F03A
:1057A0003DFE306B05F0D2FF009702460B467D4868
:1057B00005F022F90121864804F030FE394681487F
:1057C00004F02CFE774805F0BFF82321824804F04E
:1057D00025FE306D794906F063FC05F0B7FF0095B2
:1057E00002460B466F4805F007F93946744804F045
:1057F00015FE3946734804F011FE6A4805F0A4F816
:105800001F21764804F00AFE706D6C4906F048FCD2
:1058100005F09CFF009502460B46624805F0ECF847
:105820003946674804F0FAFD3946664804F0F6FD4B
:105830005C4805F089F81921694804F0EFFD316EE4
:10584000584805F0D1F83946664804F0E7FD394676
:105850005C4804F0E3FD534805F076F818216248EF
:1058600004F0DCFDF06E06F0C7FB604906F018FCA2
:1058700005F06CFF009702460B464A4805F0BCF85D
:1058800001215B4804F0CAFD39464E4804F0C6FDCC
:10589000444805F059F82B21564804F0BFFDF06943
:1058A000464906F0FDFB05F051FF009502460B4608
:1058B0003C4805F0A1F83946414804F0AFFD3946AF
:1058C000404804F0ABFD374805F03EF81F214A4838
:1058D00004F0A4FDF16D334805F086F839463948E7
:1058E00004F09CFD2F4805F02FF82021434804F0D8
:1058F00095FDB16D2B4805F077F83946314804F035
:105900008DFD284805F020F810213D4804F086FD63
:10591000316F244805F068F83946294804F07EFDC7
:105920003946284804F07AFD1E4805F00DF8132189
:10593000344804F073FD716F1A4805F055F80121E1
:10594000314804F06BFD39461E4804F067FD1548E8
:1059500004F0FAFF10212D4804F060FDB16F1148EA
:1059600005F042F83946164804F058FD3946154806
:1059700004F054FD0B4804F0E7FF1421244804F020
:105980004DFDF16F074805F02FF801211E4804F086
:1059900045FD39460B4804F041FD024804F0D4FFB0
:1059A000162137E0D487FF1FEC170100041801000F
:1059B0001C180100EC1001003818010000007A44A6
:1059C000E8100100780F01005C1801008018010048
:1059D000A0180100A4180100C8180100EC1801006B
:1059E0000C190100281901002C190100CDCCCC3D67
:1059F000A41701004819010074190100941901004D
:105A0000B8190100CC190100E0190100E4190100E6
:105A1000F8190100B14804F001FD706AB04906F0C0
:105A20003FFB05F093FE009502460B46AD4804F09F
:105A3000E3FF3946AC4804F0F1FC3946AB4804F0CA
:105A4000EDFCA84804F080FF2421A94804F0E6FCFE
:105A5000D6F8C400A24906F023FB05F077FE0095B6
:105A600002460B469F4804F0C7FF39469E4804F0A3
:105A7000D5FC39469D4804F0D1FC9A4804F064FFF7
:105A800027219C4804F0CAFC7069954906F008FB80
:105A900005F05CFE00950B460246924804F0ACFF10
:105AA0003946914804F0BAFC8E4804F04DFF0323B8
:105AB0002360FEF7B3BC04F087FC002840F3B081FC
:105AC00088488D4E05F0D2F806F096FA844906F023
:105AD0009BFB01226223706122602B60D8E504F0F9
