:1000000000800020BD010000A1850000598500008E
:100010005985000059850000598500005985000068
:10002000598500005985000059850000A185000010
:10003000A185000059850000B97B0000BD7C00004F
:10004000A1850000A1850000A1850000A185000018
:10005000A1850000A1850000A1850000A185000008
:10006000A1850000A1850000A1850000A1850000F8
:10007000A1850000A1850000A1850000A1850000E8
:10008000A1850000A1850000A1850000A1850000D8
:10009000A1850000A1850000A1850000A1850000C8
:1000A000A1850000A1850000A1850000A1850000B8
:1000B000A1850000A5710000B1710000B5710000BC
:1000C000C1710000C5710000C9710000A185000068
:1000D000A1850000A1850000A1850000A185000088
:1000E000A1850000A1850000A1850000A185000078
:1000F000A1850000E9A60000A185000095920000FE
:10010000A185000061940000A1850000A185000088
:10011000A1850000A1850000A1850000A185000047
:10012000A1850000A1850000A1850000A185000037
:10013000A1850000A1850000A1850000A185000027
:10014000A1850000A1850000A1850000A185000017
:10015000A1850000A1850000A1850000A185000007
:10016000A1850000F1960000A1850000A185000096
:10017000A1850000A1850000A1850000A1850000E7
:10018000A1850000A1850000A1850000A1850000D7
:10019000A1850000A1850000A1850000A1850000C7
:1001A000A1850000A1850000A1850000A1850000B7
:1001B000A1850000A1850000A1850000564B4CF2EE
:1001C000205210B51A804DF628121A8000BF00BFC9
:1001D00008F0EAF9514B4FF010621A60504A9A60E9
:1001E000504ADA60504A136813F4807304D14F49BF
:1001F0000B604FF4A85313604D4B1A78110703D5C9
:100200001A7842F008021A704A4B4B492A221A7097
:100210004A4A4B4B8B4204D252F8040F43F8040B6A
:10022000F8E7484B484900228B4202D243F8042B9E
:10023000FAE74649464A002352F8230041F82300D2
:1002400001336F2BF8D1434B434A802103F8011B44
:100250009342FBD1414B3D4A1A60414B8A221A70AE
:10026000A3F5805324225A70A0221A709A7992071B
:10027000FCD59A79D406FCD43A4A937903F00C035E
:10028000082B384BF9D103221A7140225A719A79FE
:100290009006FCD5334A9179324B4906FBD5324A58
:1002A000324911600221516020221A709A7902F0BD
:1002B0000C020C2AFAD12E4B2E4A1A602E4B2F4AD2
:1002C0001A6000225A60072243F8042C2C4AC3F813
:1002D0000C2D62B608F048FC144B1B68DA0705D5F4
:1002E000284808F025FA284B284A1A60284B1B7822
:1002F0005B0609D5244C254B22689A4204D121483B
:1003000008F016FA002323600BF0D0FC08F052F935
:1003100008F080F8FEE700BF0E2005403080044062
:10032000823F04000100002B10D0034014D0034092
:1003300002D0074000E007403092FF1F0418010080
:100340002087FF1F3092FF1F08D2FF1F0082FF1F70
:100350000000000000E400E05FE400E008ED00E0E1
:100360000050064000400640448004400000030165
:1003700004800440C010050014E000E0FF76010096
:100380000000202055986A5E1CE00340A5C3945AE3
:1003900000F00740FFFFFFFFFFFFFFFFFFFFFFFF32
:1003A000FFFFFFFFFFFFFFFFFFFFFFFFFFFFFFFF5D
:1003B000FFFFFFFFFFFFFFFFFFFFFFFFFFFFFFFF4D
:1003C000FFFFFFFFFFFFFFFFFFFFFFFFFFFFFFFF3D
:1003D000FFFFFFFFFFFFFFFFFFFFFFFFFFFFFFFF2D
:1003E000FFFFFFFFFFFFFFFFFFFFFFFFFFFFFFFF1D
:1003F000FFFFFFFFFFFFFFFFFFFFFFFFFFFFFFFF0D
:10040000FFFFFFFFFFFFFFFFFFFFFFFFDEF9FFFF23
:1004100010B5054C237833B9044B13B10448AFF33E
:1004200000800123237010BD3092FF1F00000000E8
:1004300000180100084B10B51BB108490848AFF37C
:1004400000800848036803B910BD074B002BFBD0A0
:10045000BDE81040184700BF000000003492FF1FA5
:10046000001801003092FF1F00000000F0B400F1FE
:100470002C06174F00243146031F00F15C0243F89D
:10048000044FB34241F8047F4FF0000542F8044F97
:10049000F5D100230F4A1049C0F89050C0F894508D
:1004A000C0F89850C0F89C50C0F8A050C0F8B050A8
:1004B000C0F8A420C0F8AC20C0F8A81080F8B8306C
:1004C00080F8B93080F8D030C0F8DC30F0BC70472C
:1004D0000000A040000048430000C8C270B5CD1D18
:1004E00000F1900400F1A00615F8010F28380BF078
:1004F00077F944F8040FB442F6D170BD2DE9F84302
:1005000081461546042900F2EA80DFE801F0546BC9
:1005100094BE0300537A107A03F02F0300EB0320FC
:100520000BF05EF96F490BF063FAC9F82400EB7A1F
:10053000A87A03F02F0300EB03200BF051F969496F
:100540000BF056FAC9F828006B7B287B03F02F03C9
:1005500000EB03200BF044F962490BF049FAD9F89B
:100560000040C9F82C0009F13006C84609F16005C1
:10057000002701E058F8044F306821460BF040FB9B
:100580000137214628B1D9F8B4000BF025FB00B1A2
:100590003460214628680BF015FB0436524920B11F
:1005A00020460BF02DFB00B12C600C2F05F104054B
:1005B000E0D1BDE8F883507A127AAB7AE97AD9F8BB
:1005C000004002EB002202EB034303EB0163C9F896
:1005D000DC306B7B2A7B1B0203F470631344C9F885
:1005E000D830C0E7537A107A03F02F0300EB0320D2
:1005F0000BF0F6F83B490BF0FBF9C9F80000EB7A79
:100600000446A87A03F02F0300EB03200BF0E8F870
:1006100034490BF0EDF9C9F804006B7B287B03F03B
:100620002F0300EB03200BF0DBF82E490BF0E0F971
:10063000C9F8080097E7537A107A03F02F0300EB0C
:1006400003200BF0CDF827490BF0D2F9C9F80C00C4
:10065000EB7AA87A03F02F0300EB03200BF0C0F82D
:1006600020490BF0C5F9C9F810006B7B287B03F01B
:100670002F0300EB03200BF0B3F81A490BF0B8F985
:10068000D9F80040C9F814006DE7537A107A03F0E6
:100690002F0300EB03200BF0A3F812490BF0A8F98D
:1006A000C9F81800EB7AA87A03F02F0300EB0320B7
:1006B0000BF096F80B490BF09BF9C9F81C006B7B0B
:1006C000287B03F02F0300EB03200BF089F805498A
:1006D0000BF08EF9D9F80040C9F8200043E7046810
:1006E00041E700BF00007A440000A04090F8C0003D
:1006F000704700BF90F8BC00704700BF90F8C4007E
:10070000704700BF90F8C800704700BF0C2994BF25
:1007100050F82100002070472DE9F0410B4E804633
:10072000041F00F12C0754F8045F314628460BF0F3
:1007300049FA30B1D8F8B41028460BF061FA00B18C
:100740002E46BC42EFD13046BDE8F081000020418A
:100750002DE9F041D0F8B4704FF00008041F00F10B
:100760002C0654F8045F394628460BF049FA08492C
:1007700048B128460BF026FA414620B128460BF036
:100780003FFA00B1A846B442EBD14046BDE8F08143
:100790000000A0402DE9F047D0F8B47082464FF039
:1007A0000009041F00F12C064FF0000854F8045F04
:1007B000394628460BF024FA0C4950B128460BF074
:1007C00001FA30B1484629460AF056FF08F10108FF
:1007D0008146B442EAD1CAF8D48040460BF000F812
:1007E000014648460BF004F9BDE8F0870000A04040
:1007F000D0F8D400704700BFD0F8D800704700BFD1
:10080000F8B5D0F89860D0F89450044631462846A0
:100810000BF0D8F9D4F89C70002830D1D4F8A0405F
:10082000314628460BF0ECF950B1394630460BF012
:10083000C9F928B1214630460BF0C4F900282FD160
:10084000394628460BF0DCF948B1394630460BF002
:10085000D7F920B1214638460BF0B4F910BB304629
:1008600021460BF0CDF948B1384621460BF0C8F9C6
:1008700020B1284621460BF0C3F978B9F8BD2846C7
:1008800039460BF09FF9D4F8A0400028C8D028467C
:1008900021460BF097F90028C2D02C462046F8BD1F
:1008A0003446FBE73C46F9E7F8B5D0F89860D0F855
:1008B00094500446314628460BF0A2F9D4F89C70B7
:1008C000002830D1D4F8A040314628460BF07AF900
:1008D00050B1394630460BF093F928B121463046E5
:1008E0000BF08EF900282FD1394628460BF06AF913
:1008F00048B1394630460BF065F920B121463846FB
:100900000BF07EF910BB304621460BF05BF948B185
:10091000384621460BF056F920B1284621460BF007
:1009200051F978B9F8BD284639460BF069F9D4F881
:10093000A0400028C8D0284621460BF061F90028C5
:10094000C2D02C462046F8BD3446FBE73C46F9E7CA
:1009500010B50446D0F89810D0F894000AF08CFE38
:10096000D4F89C100AF088FED4F8A0100AF084FE97
:100970004FF07A510AF088FF10BD00BF2DE9F8430F
:100980000026D0F8B480C0F890608146041F00F1C2
:100990002C0754F8045F414628460BF031F9094909
:1009A00050B128460BF00EF930B1304629460AF016
:1009B00063FE0646C9F89000BC42EAD13046BDE865
:1009C000F88300BF0000A04003299ABF00EB81001C
:1009D000D0F89400002070473E2998BF80F8D010CE
:1009E000704700BFD0F8DC00704700BF90F8B80037
:1009F000704700BF90F8B900704700BFC0F8CC1036
:100A0000704700BF80F8B810704700BF80F8B91079
:100A1000704700BF30B50F4CC0F8B41083B020460B
:100A20000D4607F0F9F9204607F0F6F928460AF0D6
:100A300081FA022502460B460095204607F044FA4B
:100A4000204607F0E9F9204603B0BDE8304007F042
:100A5000E3B900BFD087FF1F70B500F55D550646AE
:100A6000083500F128042046E034FFF7FFFCAC42D3
:100A7000F9D106F58475012428460021FFF7C2FF4D
:100A8000214628460134FFF7A7FF3F2C05F1E0057A
:100A9000F2D143F2507400250548064A064B3555FD
:100AA000002130617161B261F361304670BD00BFF9
:100AB00000007A44000048430000C8C270B500F549
:100AC0005D56083600F58474002507E001252046B0
:100AD0000021E034FFF79AFFB4420AD02046FFF726
:100AE00085FF0028F3D02046FFF784FF0028EDD1D2
:100AF00070BD284670BD00BF70B500F58D56083634
:100B000000F5847402E0E034B4420CD02046FFF7D4
:100B10006DFF05460028F6D02046FFF763FFC307A8
:100B2000F1D5284670BD0025284670BD2DE9F0415D
:100B300043F2547300F55D56374600228046C2509A
:100B40000836143700F5847402E0E034B4420DD066
:100B50002046FFF74BFF0028F7D020463D68FFF7FF
:100B600047FEE0342844B4423860F1D143F2547374
:100B700058F80300BDE8F08138B50C6804F00F04A4
:100B80000134C4EBC40300EB431015462830FFF7D3
:100B9000A5FC012D00D038BD064807F03DF92146DF
:100BA000044807F089F90B210348BDE8384009F0F3
:100BB00035BC00BFD087FF1F58FE0000F0B50C68A1
:100BC00004F00F0504F0F004302C83B00F46064605
:100BD00005F101053ED01ADC14B1202C33D10124DB
:100BE000072D1CD9C5EBC50506EB4515283528464C
:100BF0000121FFF707FF28460121FFF707FF3A46CB
:100C00002146284603B0BDE8F040FFF777BC402CF2
:100C10001ED0502C17D1072D4FF00404E2D8012A22
:100C2000E0D129460C48019207F046F9019A0B4899
:100C3000114609F0F3FB2146074807F03DF9064845
:100C400007F0EAF8CEE7072DCCD8042CCADCE6E79B
:100C50000324C5E70224C3E7D087FF1F64FE00001A
:100C60002DE9F043002383B00646036000F5847449
:100C7000012504E001353F2D04F1E00466D0204653
:100C8000FFF7B4FE0028F5D04E4805F00BFD2946CD
:100C90004D4805F007FD2046FFF770FE0AF04AF9BF
:100CA00002460B46494805F0FDFC2046FFF734FD9F
:100CB00080462046FFF74CFD074640460AF03AF9C9
:100CC0008046384689460AF035F942464B46CDE91A
:100CD00000013F4805F0E6FC00212046FFF774FEC6
:100CE000012180462046FFF76FFE074640460AF086
:100CF00021F98046384689460AF01CF942464B469F
:100D0000CDE90001334805F0CDFC2046FFF736FE63
:100D1000014630680AF0B0FC30602046FFF770FDF5
:100D2000B1690AF04FFF002833D12046FFF7BCFD20
:100D3000F1690AF065FF00289CD02046FFF7B4FD5A
:100D400001353F2DF06104F1E00498D170680AF09C
:100D500047FD014630680AF04BFE71693060044679
:100D60000AF04EFF00B17461316920460AF02AFF93
:100D700000B134610B2007F073FE43F25073F35C53
:100D800060B99BB143F250730122F25403B0BDE845
:100D9000F0832046FFF734FDB061C6E753B943F254
:100DA00050730022F25403B0BDE8F0830A4805F006
:100DB000A7FCE7E7094805F08DFC43F250730022D9
:100DC000F254F0E75000010068FE0000A4FE0000AD
:100DD000B8FE0000E4FE000000FF000038FF000045
:100DE00070B5114B836000F55D550646083500F57A
:100DF000847402E0E034AC4213D02046FFF7F6FDE5
:100E00000028F7D02046FFF787FCB1680AF0DAFE29
:100E10000028EFD02046FFF77FFCE034AC42B06002
:100E2000EBD1B06870BD00BF0000A04070B50023DA
:100E300000F55D550646C360083500F5847402E090
:100E4000E034AC4213D02046FFF7D0FD0028F7D0A5
:100E50002046FFF77DFCF1680AF0D2FE0028EFD0B3
:100E60002046FFF775FCE034AC42F060EBD1F0684F
:100E700070BD00BF0068704741607047F8B500F56D
:100E80005D550F461646083500F5847402E0E034DF
:100E9000AC420FD02046FFF7A9FD0028F7D020462E
:100EA0003946FFF7ABFD20463146E034FFF7B2FD8F
:100EB000AC42EFD1F8BD00BF2DE9F84343F24C73CB
:100EC00000F55D550027C7502E462A4A2A4B42623C
:100ED00080464FF00009036208350C3600F5847433
:100EE00002E0E034A54213D02046FFF77FFD002842
:100EF000F7D03368013333602046FFF729FD1F49DF
:100F00000AF07EFE88B9E034A54207F10107EBD173
:100F100043F24C7358F80300C01B0AF061FC014611
:100F200048460AF065FDBDE8F8832046FFF710FD4E
:100F3000014648460AF0A0FB81462046FFF7B4FC74
:100F4000D8F820100AF05CFE70B92046FFF758FC74
:100F5000D8F824100AF036FE0028C2D02046FFF749
:100F60004FFCC8F82400BCE72046FFF79DFCC8F8FA
:100F70002000EAE700C0794400C079C400008CC2B8
:100F8000006A7047406A7047F8B500F55D5507463E
:100F90000026083500F5847402E0E034AC420FD03E
:100FA0002046FFF723FD0028F7D02046FFF7F2FB8D
:100FB000014630460AF060FBE034AC420646EFD111
:100FC00043F24C73F8580AF00BFC014630460AF025
:100FD0000FFDF8BD2DE9F04F06468FB096488B46C1
:100FE00005F008FB944805F005FB934805F002FB6B
:100FF00043F24C733046F2580D92FFF797FD736839
:101000000C930746306809F095FF804630468946C4
:10101000FFF7BAFF82463046B468F568FFF74CFF29
:1010200009F088FFCDE90A01214628460AF022FB93
:1010300082490AF029FC09F07DFFCDE90801284624
:1010400009F078FFCDE90601204609F073FFCDE9EC
:101050000401504609F06EFF0D9A0C9BCDE9020188
:10106000CDE90089114676483A4605F0C3FA724840
:1010700005F0C0FA06F584764FF001094FF0000A3A
:1010800007E009F10109B9F13F0F06F1E00600F0B0
:10109000CB803046FFF7AAFC0028F2D03046FFF79D
:1010A00025FB3046FFF726FB3046FFF727FB30468F
:1010B000FFF728FB0821634809F0B0F94946624868
:1010C00006F0FAFEB9F1090F40F3B18002215F4842
:1010D00009F0A4F93046FFF751FC09F02BFF5FFA45
:1010E0008BF802460B46CDF80080574806F0ECFE20
:1010F0000121574809F092F95546002420E00621C5
:10110000544809F08BF929464F4806F0D5FE0221D4
:10111000514809F083F921463046FFF7F7FA09F004
:1011200009FFCDF8008002460B46474806F0CCFE8A
:1011300001340121464809F071F90C2C09D03D46D3
:10114000092D05F10107DADC0121444809F066F9AF
:10115000D5E73D4806F060FE0921414809F05EF9F7
:1011600000213046FFF730FC09F0E4FE022502467C
:101170000B460095344806F0A7FE0A21394809F0CD
:101180004DF901213046FFF71FFC09F0D3FE009511
:1011900002460B462C4806F097FE0A21324809F019
:1011A0003DF929463046FFF70FFC09F0C3FE0095D4
:1011B00002460B46244806F087FE0A212B4809F018
:1011C0002DF903213046FFF7FFFB09F0B3FE009530
:1011D00002460B461C4806F077FE2146244809F0DB
:1011E0001DF93046FFF7FEFB00231022014616488A
:1011F00006F022FE08211F4809F010F93046FFF7DB
:10120000FBFA0023014610220F4806F015FE09F1F3
:1012100001090D4806F000FEB9F13F0F0AF10C0A72
:1012200006F1E0067FF435AF0FB0BDE8F08F012185
:101230000A4809F0F3F849E75000010000007A4439
:10124000E801010088020100D087FF1F1807010094
:1012500094020100980201005C0401006C0401008A
:10126000A0020100AC020100B8020100C4020100AA
:10127000D0020100E00201002DE9F04F85B000F539
:1012800084758A4603929B462E464FF0010806E07D
:1012900008F10108B8F13F0F06F1E0067BD03046B7
:1012A000FFF7A4FB0028F3D000230A2251467D4813
:1012B00006F0C2FD01217C4809F0B0F8039809F05E
:1012C00039FE00230246009376480B4606F0FCFDEB
:1012D0000121754809F0A2F85946724806F0ECFD64
:1012E0000121714809F09AF841466E4806F0E4FD84
:1012F00001216D4809F092F800244FF002092146BF
:101300003046FFF703FA09F015FECDF800900246CB
:101310000B46644806F0D8FD01340121624809F00B
:101320007DF8082C4FF00207E9D100213046FFF785
:101330004BFB09F0FFFD009702460B46594806F0AB
:10134000C3FD0121584809F069F801213046FFF733
:101350003BFB09F0EFFD009702460B46514806F0B3
:10136000B3FD0121504809F059F839463046FFF7DE
:101370002BFB09F0DFFD009702460B46494806F0BB
:10138000A3FD08F10108474806F046FDB8F13F0FFC
:1013900006F1E00683D101274FF0000904E0013790
:1013A0003F2F05F1E00579D02846FFF71FFB002805
:1013B000F5D000230A2251463C4806F03DFD0121AC
:1013C000394807F063FE039809F0B4FDCDF80090AA
:1013D00002460B46354806F077FD0121324807F0FA
:1013E00055FE5946314806F067FD01212E4807F0A9
:1013F0004DFE39462D4806F05FFD01212A4807F0D1
:1014000045FE00244FF0020821462846FFF77EF9EA
:1014100009F090FDCDF8008002460B46234806F007
:1014200053FD01340121204807F030FE082C4FF015
:101430000206E9D100212846FFF7C6FA09F07AFD35
:10144000009602460B46194806F03EFD012116485B
:1014500007F01CFE01212846FFF7B6FA09F06AFDE5
:10146000009602460B46114806F02EFD01210E485B
:1014700007F00CFE31462846FFF7A6FA09F05AFDA0
:10148000009602460B46094806F01EFD0137074844
:1014900006F0C2FC3F2F05F1E00585D105B0BDE89F
:1014A000F08F00BFD087FF1F64FE0000B487FF1FCE
:1014B0000A4A0B49906D536D03FB00F34FF47A70A9
:1014C00000FB03F0642310B50B600AF089F90549AD
:1014D000054C0AF08DFA206010BD00BF0CCCFF1F38
:1014E0003487FF1FE4388E3E24CDFF1FF8B53D48FA
:1014F0003D4C3E4D3E4E05F07DF83E4B3E4A3F484A
:101500003F495A6011271F703E4F3F4AD8601C6107
:1015100000203E4C5D615E623D4DDF624FF07C56C7
:101520000C2799619A623B493B4A18635C633B48CC
:101530003B4C9D635E6440F61C450A261F65394F8F
:101540009964DA64022101221862C3F8BC400020C9
:1015500032249D66DE6664254FF49676DF61DF6394
:1015600041F20407597059721A725A6583F84000A3
:10157000C3F89C401C665E66DE659D654FF05A0CA4
:101580001F674FF47A7E9867D967C3F88000C3F865
:101590008840C3F8A440244FC3F8A000234EC3F8EA
:1015A000AC20C3F8B010FF2441F28831052083F845
:1015B000C02040F2D662C3F8B450C3F874C0C3F878
:1015C0008CE0C3F89070C3F89460C3F8A840A3F807
:1015D000BA00C3F88410A3F8B810A3F89820A3F8B1
:1015E0009A20F8BDEC0201000000404033338340F4
:1015F000CDCCCC3D0CCCFF1F20A1070066668640F9
:10160000CDCC4C40000020C10000824200002042AE
:101610000000A0409A9979400AD7233D33337340A4
:101620009A99993ECDCC4C3E0000684200C02044BF
:10163000F0B5002185B00F2007F020FA00210E2020
:1016400007F01CFA0021112007F018FA00211020E1
:1016500007F014FA0021122007F010FA00211320DD
:1016600007F00CFA01210B2007F008FA01210C20E9
:1016700007F004FA0121142007F000FA01211520D7
:1016800007F0FCF90121162007F0F8F901211720D5
:1016900007F0F4F90121052007F0F0F9954C964D7B
:1016A0000121062007F0EAF901210D2007F0E6F9F3
:1016B00020880AF091F80146162007F049F92088A1
:1016C0000AF08AF80146172007F042F920880AF04C
:1016D00083F80146052007F03BF920880AF07CF8E2
:1016E00000240146062007F033F900942346834A7C
:1016F0008349844805F0FEF9E6B232467E498148C6
:1017000005F0A6F92B797C497E486FF3000301347C
:1017100032462B7105F092F9082CEDD10924E6B27E
:1017200032467549774805F093F92B797249754827
:1017300043F00103013432462B7105F07FF90D2C83
:10174000EDD1714C4FF0FF322068102105F09EFD65
:1017500020684FF0FF32102105F070FD20684FF037
:10176000FF32022105F07EFD20684FF0FF3202219A
:1017700005F082FD00220F21206805F091FD0C216B
:10178000624808F04BFE624806F046FB11216148B2
:1017900008F044FE5E4806F03FFB40F2836007F02D
:1017A00053FA5B4806F038FB17215B4808F036FE19
:1017B000574806F031FB594B1B789A0600F1D2804E
:1017C000564B1B781B0700F1D980544B1B785F07E1
:1017D00000F1E080514B1B789E0700F1E780504BF1
:1017E0001B781D0600F1EE804D4B1B785C0600F166
:1017F000F5804B4B1B78980600F1FC80484B1B781A
:10180000590700F10381464B1B781A0700F10A8142
:10181000434B1B789B0700F111813D4806F0FCFA11
:1018200072B6404A4CF220534DF628112024138002
:1018300023461180013BFDD13B4D3C483C490023F0
:101840004FF480562E8003800B8032F80E3C9BB202
:1018500043F0D30322F80E3C62B69D2007F0A0FDB2
:1018600021463448344D08F0D9FD294806F0D4FA11
:1018700005F1C4062F462C46601B06F039FD04F81E
:10188000010BB442F8D13B78112B01D0FFF72EFEAB
:10189000042004F003FE294B29482A4D00221A6037
:1018A00004F0CEFD01210D2007F0D4F8796D264813
:1018B000FFF7E2FA7A6C97F840102348FFF7DEFA58
:1018C0002248234B046803941B682249224A039E42
:1018D000006802901268214C2E6081FB0301DB1727
:1018E0001F48A3EB21130299216013FB02F303802D
:1018F00005B0F0BD3887FF1FDCCCFF1F08CFFF1FEE
:1019000020A107006CCDFF1F4CCDFF1F0C03010071
:10191000D087FF1F1C0301003003010001F00740C6
:1019200000F007400E200540042005400620054039
:1019300016200540340401000CCCFF1F8092FF1FCD
:10194000F892FF1F64CBFF1FF893FF1F30CFFF1FDC
:101950005487FF1F1F85EB515087FF1F6CCBFF1F64
:1019600014CDFF1F2121394808F058FD384806F0F2
:1019700053FA384B1B781B077FF527AF0C213648ED
:1019800008F04CFD324806F047FA324B1B785F07EF
:101990007FF520AF0E21314808F040FD2C4806F0BD
:1019A0003BFA2C4B1B789E077FF519AF17212C486B
:1019B00008F034FD264806F02FFA2A4B1B781D0646
:1019C0007FF512AF0E21284808F028FD204806F0C8
:1019D00023FA244B1B785C067FF50BAF12212348BA
:1019E00008F01CFD1A4806F017FA1E4B1B789806E3
:1019F0007FF504AF13211E4808F010FD144806F0CF
:101A00000BFA184B1B7859077FF5FDAE1C211948BE
:101A100008F004FD0E4806F0FFF9124B1B781A0778
:101A20007FF5F6AE1921144808F0F8FC084806F0D6
:101A3000F3F90C4B1B789B077FF5EFAE18210F488D
:101A400008F0ECFC024806F0E7F9E6E6480301007E
:101A5000D087FF1F01F007406C0301007C030100E9
:101A60008C03010000F00740A4030100B40301004F
:101A7000C8030100DC030100FC030100180401009D
:101A800070B5464C464D4748E66800232B70FFF77B
:101A9000CDF9014630460AF095F808B104232B70C1
:101AA0004048FFF79DF921690AF08CF818B12B78AE
:101AB00043F010032B703B48FFF762FAA16A0AF06B
:101AC0009FF818B12B7843F040032B700023354862
:101AD0006B70FFF757FAE16A314E0AF073F808B1FC
:101AE0000123737000232F48EB70FFF79FF9054621
:101AF0002C482B4EFFF774F90146284609F0BAFD31
:101B0000E16B0AF07DF808B10123F370264D2548FA
:101B100000232B70FFF78AF9616A0646E06809F036
:101B2000A9FD014630460AF06BF808B104232B707A
:101B30001C48FFF755F9616A0646206909F09CFDCB
:101B4000014630460AF03EF818B12B7843F01003F6
:101B50002B701448FFF714FAA16B0646A06A09F02F
:101B600089FD014630460AF04BF818B12B7843F056
:101B700040032B7000230B486B70FFF703FAA16B37
:101B80000546E06A084C09F077FD014628460AF050
:101B900019F808B10123637070BD00BF0CCCFF1FA2
:101BA000F4CBFF1FF893FF1F5092FF1F514B1B6890
:101BB000002B74D0F0B5504D2B680533B3F57A7F08
:101BC00083B040F38E80002300272B604B4CD4F869
:101BD000A40009F005FE0646D4F8A80009F000FEAE
:101BE000314609F047FD394609F04EFE444909F0F7
:101BF000FFFE314609F040FD0AF00CF801460620D0
:101C000006F0A8FD02213F4808F008FC3E4806F017
:101C100003F906213D4808F001FC286809F0E0FDC1
:101C20003B4909F031FE09F085F9022602460B46D0
:101C30000096354806F048F90D21364808F0EEFBCD
:101C4000D4F8A40009F0CCFD0746286809F0C8FDC7
:101C50002F4909F019FE0546D4F8A80009F0C0FD87
:101C6000394609F007FD0146284609F00DFE2449D2
:101C700009F0BEFE394609F0FFFC09F05BF9009659
:101C800002460B46204806F01FF931461D4808F071
:101C9000C5FB1D4803B0BDE8F04006F0BDB8174BCA
:101CA0001D4AD3F8A410D3F8A83012685B1A632B2E
:101CB0000BDD1A4803FB02F380FB0302DB17C3EBC7
:101CC00062131944062006F045BD154803FB0223A4
:101CD00080FB0302DB17C3EB22121144062006F03F
:101CE00039BD18462B6009F07BFD094909F0CCFD90
:101CF00007466BE77C92FF1FD0CCFF1F0CCCFF1F69
:101D00000000C84218070100D087FF1F58040100D7
:101D1000CDCCCC3D600401003487FF1F1F85EB5103
:101D2000CBF08D2870B5B548B54C06F075F8B348C2
:101D300006F072F8B14806F06FF80D21B14808F0CE
:101D40006DFBD4F8A030012B11D0AF4CAB482178FB
:101D500000230A2206F070F82378052B67D8DFE805
:101D600013F006010B01100115011A0101010921EF
:101D7000A64808F053FBA648FFF732F8216909F09E
:101D800021FF18B10F21A34808F048FBA048FFF736
:101D90004DF8E16809F034FF18B10E219E4808F0B3
:101DA0003DFB9B48FFF742F805469948FFF718F8B6
:101DB0000146284609F05EFCE16B09F021FF18B1ED
:101DC0001121964808F02AFB9148FFF775F8A16A9F
:101DD00009F016FF18B10C21914808F01FFB8C4840
:101DE000FFF76AF8E16A09F0EDFE18B10D218D48A0
:101DF00008F014FB8C4B86481B68012B00F0E88030
:101E0000FEF7EEFF21697E4D09F0FAFE78B18048B9
:101E1000FFF70CF8E96809F0D5FE40B17A4B1B7862
:101E2000052B00F0E6800821804808F0F7FA02212F
:101E30007F4808F0F3FA122006F012FE012800F0A5
:101E4000AF80112006F00CFE012800F0B380794B22
:101E50001B68012B00F0B78002217548764C08F012
:101E6000DDFA764B6548196806F026F8634805F0F8
:101E7000D3FF0421724808F0D1FA0B2006F0F0FDE0
:101E8000002301460A225D4805F0D6FF0C2006F02B
:101E9000E7FD002301460A22584805F0CDFF142033
:101EA00006F0DEFD002301460A22544805F0C4FF77
:101EB000152006F0D5FD0A22002301464F4805F003
:101EC000BBFF06215F4808F0A9FA2368DD074FF041
:101ED00001014CBF5C485D4808F0A0FA23689807F0
:101EE0004FF001014CBF5848584808F097FA236852
:101EF0005A074FF001014CBF5348544808F08EFA7E
:101F000023681B074CBF50485048012108F086FA4F
:101F100004214F4808F082FA112006F0A1FD0023A9
:101F200001460A22354805F087FF102006F098FD8B
:101F3000002301460A22314805F07EFF122006F0F8
:101F40008FFD002301460A222C4805F075FF13205F
:101F500006F086FD002301460A222848BDE87040AD
:101F600005F06ABF07213B4808F058FA5FE70621F1
:101F7000394808F053FA5AE70721384808F04EFA72
:101F800055E70721364808F049FA50E70821354857
:101F900008F044FA4BE70B21334808F03FFA46E7D4
:101FA0000E21324808F03AFA112006F059FD0128B6
:101FB0007FF44DAF0A212E4808F030FA1D4B1B6804
:101FC000012B7FF449AF11212A4808F027FA43E793
:101FD000FEF706FF216A09F013FE00283FF423AF45
:101FE0001621254808F01AFA0A21244808F016FAA2
:101FF0001DE70A21214808F011FA18E7D087FF1FD2
:102000000CCCFF1F7004010000CCFF1F80040100F6
:10201000F893FF1F8C0401009C040100AC04010034
:10202000C0040100D00401008892FF1F04050100D4
:1020300018070100F0CCFF1F40CDFF1F5C92FF1F6F
:1020400078050100800501008805010014120100D7
:102050008C05010040050100100501001805010074
:102060002C05010034050100200501004805010090
:102070005805010064050100E0040100F8040100B6
:102080002DE9F04F934C944FE36F012B8DB000F08E
:102090004981032B50D0914E914DA36F9148012B54
:1020A00009BF2968296801F10041296005F0EAFCAF
:1020B0003368002B40F0CE808A4805F0B9FCE36F0E
:1020C0003860012B064600F0D280874909F098FD60
:1020D00078B98649304609F075FD50B9844A854B78
:1020E00012680B920B9A1A6000232B600DB0BDE8AA
:1020F000F08FDFF8FC817F4CD8F800300A930A9803
:1021000023687D4FC01A09F067FB314609F0BCFB1C
:102110007A4909F06DFC794909F06AFC396809F0DF
:10212000ABFAD8F800300993099B2360002338608C
:102130002B600DB0BDE8F08FDFF8C881704DD8F886
:102140000000664E012300220F212B6005F0A8F845
:102150002B68012B336800F00381002B40F0A6812F
:102160000021D8F80000DFF8B891664D05F0EAF8D4
:1021700033681FFA80FBC9F800B0002B40F07B8168
:102180000021D8F80000564DDFF878A105F060F87E
:10219000B4F89A3040F6E44101FB0BF1B1FBF0F0EA
:1021A000C01A00B209F01CFB57498346D4F89000CE
:1021B00009F06AFB0146584609F01AFCD9F80030CC
:1021C0002860632BDFF858B100F3498100232B60AE
:1021D0003368002B3FF461AF02214C4808F01EF930
:1021E000D9F80020D8F8000040F6E443002103FBB2
:1021F00002F805F02DF8B8FBF0F009F0EDFA804692
:10220000B4F89A0009F0ECFA0146404609F032FAB7
:1022100008F090FE4FF0020802460B46CDF8008011
:102220003B4805F051FE4146384808F0F7F8286869
:1022300008F080FECDF8008002460B46344805F0D9
:1022400043FE4146334808F0E9F841462F4808F07C
:10225000E5F822E7234805F0EBFB08F06BFE0226C9
:1022600002460B4600962A4805F02EFE24E7244B32
:102270001B68012B00F02681022B7FF435AF264925
:1022800009F0BEFC30B92549304609F09BFC002816
:1022900000F04781DFF85880164CD8F800300793DB
:1022A00007982368144FC01A09F096FA314609F0CE
:1022B000EBFA124909F09CFB104909F099FB3968C7
:1022C00009F0DAF9D8F800300693069B38602360ED
:1022D0000AE700BF0CCCFF1FF8CBFF1FF0CBFF1F9E
:1022E00034CDFF1FF4CCFF1F0000FA430000FAC3F7
:1022F00030CFFF1F5892FF1F24CDFF1F00007A44EC
:102300002487FF1F4CCDFF1F17B7D13818070100D6
:10231000D087FF1FD005010000C82F4800A08CC641
:1023200058CDFF1F3D689849284609F04BFC30B155
:102330002846964909F064FC00287FF4FDAEDFF8DA
:102340005882934DD8F80000924E022300220E21AD
:102350002B6004F0A5FF2B68012B33687FF4FDAEE2
:10236000002B40F000810021D8F80000DFF86C92CB
:10237000894D04F0E7FF33681FFA80FBC9F800B00D
:10238000002B40F0D5800021D8F80000834D04F0E8
:102390005FFFB4F8983040F6E44A0AFB0BFBBBFB46
:1023A000F0F0C01A00B209F01BFA7D498346D4F858
:1023B000940009F069FA0146584609F019FBD9F86A
:1023C000003028600021D8F800000AFB03FA04F06E
:1023D0003FFFB4F89830BAFBF0F00FFA80FAC3EB85
:1023E0000A03002BB4F8BA20B8BF5B429342BCBFCB
:1023F00000232B603368002B3FF44FAE0221694865
:1024000008F00CF8D9F80020D8F8000040F6E443B2
:10241000002103FB02F804F01BFFB4F89810B8FB8E
:10242000F0F000B2411A604805F046FD02215D4817
:1024300007F0F4FF286808F07DFD4FF0020802461F
:102440000B46CDF80080584805F03EFD0321574863
:1024500007F0E4FF4146534807F0E0FF1DE6DAF8D5
:102460000000002104F0F4FEDBF8003064389842EC
:10247000FFF4ACAEACE60021286804F0E9FE40F6BB
:10248000E44100230A2201FB0BF1B1FBF0F14648C5
:1024900005F0D2FC0221434807F0C0FFB4F89A10BF
:1024A000414805F009FDD9F800B069E63E4805F05D
:1024B000B3FC0C213E4807F0B1FF0C213D4807F06A
:1024C000ADFF4DE63C4909F09BFB58B93B4930460E
:1024D00009F078FB30B93A4A3A4B12680592059AEE
:1024E0001A6001E6DFF8D880364CD8F80030049343
:1024F00004982368344FC01A09F06EF9314609F088
:10250000C3F9324909F074FA304909F071FA3968AF
:1025100009F0B2F8D8F800300393039B38602360C9
:10252000E2E5274A274B12680892089A1A60DBE511
:102530000021286804F08CFE40F6E44100230A22C2
:1025400001FB0BF1B1FBF0F1174805F075FC01211F
:102550001F4807F063FFB4F89810134805F0ACFC6F
:10256000D9F800B00FE7104805F056FCE36F012BD7
:102570004FF00B010CBF1748174807F04FFF0C2115
:102580000C4807F04BFFEEE600709446007094C6CE
:102590002487FF1FF0CBFF1F4CCDFF1F34CDFF1F43
:1025A00017B7D13818070100D087FF1FBC050100FD
:1025B000C0050100AC0501000000FA430000FAC3A9
:1025C00030CFFF1F5892FF1F24CDFF1F00007A4419
:1025D0006C04010094050100A005010058CDFF1F07
:1025E0002DE9F043AB4D2B6883B0002B00F08780C2
:1025F000A94CAA4EE36FAA4FA74D012B00F0BF8054
:10260000D4F88030DFF89082012B00F0ED80D8F80C
:102610005850D7F80090D8F8548005FB08F54FF4CF
:102620007A7000FB05F009F0DBF89E49DFF86C8258
:102630000546484609F028F9294609F0D9F99A498A
:1026400009F022F909F0E6FA632830604BDD2846EC
:10265000944909F0CDF96423C8F80030934B3860F1
:102660001B68002B48D0E36F8B4D012B00F0ED80F1
:10267000032B00F0FD80022B00F0008102218C482A
:1026800007F0CCFE8B4B186808F054FC022402467D
:102690000B460094884805F017FC2146874807F050
:1026A000BDFE2146824807F0B9FE3168824805F038
:1026B00003FC0621824807F0B1FE3868794909F029
:1026C000E3F808F037FC009402460B467A4805F020
:1026D000FBFB03217B4807F0A1FE774803B0BDE870
:1026E000F04305F099BB0028BCBF0023C8F80030B8
:1026F0006E4B1B68002BB6D103B0BDE8F083724867
:10270000654CFEF741FC7149A76EE66E09F0BCF816
:1027100009F0A6FA226F636FD21B9B1B80B2934213
:10272000A0EB0700C0F29D8003FB00F393FBF2F3E4
:1027300033445A4E5E483360022107F06FFE316821
:102740005D48574F05F0B8FB0221594807F066FE77
:102750003268A06D636D02FB00F003FB00F000EB3C
:102760008000400009F03CF84E4909F041F901238E
:102770002B60E36F3860012B474D7FF441AF524827
:10278000FEF702FC5149D5F86890D5F86C8009F045
:102790007BF809F065FA2A6F6B6FC9EB0202C8EB90
:1027A000030380B29A42C9EB00006CDD03FB00001A
:1027B000531C90FBF3F303EB0800A26D636D3060D4
:1027C00002FB00F003FB00F000EB8000400009F08A
:1027D00007F83449DFF8C08009F00AF9D4F88030EE
:1027E0003860012B7FF413AF3748FEF7CDFB374934
:1027F000D8F86890D8F86C5009F046F809F030FA2B
:10280000D8F87020D8F87430D4F85480C9EB02029C
:102810005B1B80B29A42C9EB0000C6BF03FB0000FD
:102820000132584390FBF2F02844A56D00FB05F0FF
:1028300008FB00F000EB8000400008F0D1FF1949D0
:1028400009F0D6F881463860E7E6214B1B68012B7A
:102850004FF00A010CBF1F481F4807F0DFFDEB6F68
:1028600006E703FB0000531C90FBF3F3334460E7DF
:1028700010211A4807F0D2FDE36FFCE60721184843
:1028800007F0CCFDFAE603FB00F393FBF2F303EB56
:10289000080092E7E4CCFF1F0CCCFF1F3487FF1F1A
:1028A00024CDFF1FE4388E3E0000C8422887FF1F5A
:1028B00018070100F8CBFF1FD087FF1FD0050100CC
:1028C0000806010010060100F893FF1F00007A447B
:1028D0002487FF1FD4050100E0050100EC0501007D
:1028E0000006010030B5112083B006F0B9F80128C8
:1028F00018D0122006F0B4F8012813D000210B20C4
:1029000006F0A8F800210C2006F0A4F800211520FC
:1029100006F0A0F82649274B0120002208701A6013
:1029200003B030BD0121152006F094F8224A234C53
:10293000234B1268D4F8841001921B68019A1D4D34
:102940000B4493424FF00201296005D901210C206C
:1029500006F080F803B030BDD4F88C0008F040FFDA
:10296000184B196809F02EF90028EFD101210B202E
:1029700006F070F894F8C03003242C6043B10C4B7F
:1029800002221A7000210C2006F064F803B030BD5A
:10299000122006F065F8012808BF054B4FF0110022
:1029A00008BF1C7006F05CF80128EBD1E7E700BF18
:1029B00000CCFF1FF492FF1F30CFFF1F0CCCFF1F76
:1029C00064CBFF1FF8CBFF1FF0B5684E684D34682D
:1029D0002B689C4287B039D014F0010155D014F017
:1029E000020149D014F004013DD0E3070ED52B6855
:1029F000DF070BD45F4F3A68002A00F082805E4BFD
:102A00001B680193019B93426DD83468A0070DD5D4
:102A10002B6899070AD4594F3A68002A4CD0564B74
:102A20001B680393039B934238D8346862070DD523
:102A30002B685B070BD4524F3A68002A7ED04E4B6E
:102A40001B680593059B934268D834680CB107B0A6
:102A5000F0BD2146162005F07DFE2146172005F029
:102A600079FE07B0F0BD052005F074FE2B683468D0
:102A700003F0FB032B60B8E7172005F06BFE2B6813
:102A8000346803F0FD032B60ACE7162005F062FE0E
:102A90002B68346803F0FE032B60A0E7394B172046
:102AA000D3F8881005F056FE2B68346843F0020313
:102AB00000222B603A60B9E7334805F0ADF90C21EC
:102AC000324807F0ABFC304805F0A6F9FF2117208B
:102AD00005F040FE284B2E4A1968029102991268AF
:102AE0000A443A609CE7274B1620D3F8881005F07B
:102AF00031FE2B68346843F0010300222B603A60FA
:102B000084E7FF21162005F025FE1B4B204A19689B
:102B10000091009912680A443A6071E7194B052048
:102B2000D3F8881005F016FE2B68346843F00403D0
:102B300000222B603A60002C89D18AE7124805F008
:102B40006BF90C21134807F069FC0F4805F064F994
:102B5000FF21052005F0FEFD074B0D4A1968049181
:102B6000049912680A443A606AE700BFF492FF1FB2
:102B700040CDFF1FD8CCFF1F30CFFF1FE8CCFF1F79
:102B8000ECCCFF1F0CCCFF1FD087FF1F14060100E9
:102B90003C87FF1F240601002DE9F047544EDFF863
:102BA0007481DFF874913068524D00220F2104F0D7
:102BB00077FB0023012222214F48C8F80030C9F8D2
:102BC000002007F02BFCD8F80030132B22DC40F655
:102BD000E44700213068B5F898A004F0B3FB002169
:102BE0000446306804F034FBA4B2012107FB04F46E
:102BF000B4FBF0F441485444A5F8984007F00EFCAB
:102C0000642005F063FFD8F800300133132BC8F8B7
:102C10000030DEDDB5F89830394A3A48A2FB03129D
:102C20009B1A02EB5303C3F30F131946A5F8983010
:102C300005F042F91D21344807F0F0FB022133482A
:102C400007F0ECFB2F4805F0E7F800231A460E21A9
:102C50003068C8F8003004F023FB02232221264804
:102C6000C9F8003007F0DAFBD8F80030132B22DC6B
:102C700040F6E44700213068B5F89A9004F062FB12
:102C800000210446306804F0E3FAA4B2012107FBF6
:102C900004F4B4FBF0F419484C44A5F89A4007F04A
:102CA000BDFB642005F012FFD8F800300133132B70
:102CB000C8F80030DEDDB5F89A30114A1148A2FBA1
:102CC00003129B1A02EB5303C3F30F131946A5F823
:102CD0009A3005F0F1F81D210D4807F09FFB022105
:102CE0000A4807F09BFB0748BDE8F04705F094B899
:102CF0004CCDFF1F0CCCFF1F3406010078060100ED
:102D000087611886D087FF1F580601001807010049
:102D10007C0601006092FF1F2487FF1F2DE9F84306
:102D2000C04BC14CC14E1B68306D40F2513108227E
:102D30002160E271002B40F06F8108F051FD716954
:102D4000054608F0A1FDBA49B84F08F09DFD08F00E
:102D500087FF80B203126372B64AB74B12681B68D2
:102D60002072A37228461B121512E3722273B169F6
:102D7000657308F089FDAE49AB4D08F085FD08F09C
:102D80006FFF83B21A122946AC48A373E27304F0B2
:102D9000A9F8AB4AAB4B12681988A172D3B223725F
:102DA00003EB83035B00237302EB820343F3D7132C
:102DB0004FEA212E12124FF008084FF00009294661
:102DC00063739E4884F80BE040F2553362722360CF
:102DD00084F8078084F80E9084F80F9004F082F84D
:102DE00040F256339848236084F80780FEF742F893
:102DF000964908F049FD08F033FF20729248FEF72B
:102E000039F8924908F040FD08F02AFF904A8F49AE
:102E1000C0F307236372106808F0EAFD08F0FAFEB9
:102E200040FA08F3A0728848E372FEF745F880493B
:102E300008F02AFD08F0EEFE20738348FEF73CF808
:102E40007B4908F021FD08F0E5FE40F30720294604
:102E500060737A4884F80E9084F80F9004F042F87A
:102E6000022005F033FE7B4A7B4B117821725178AA
:102E700090786172D178A0721A789878E172597856
:102E800022736173DA78A07340F25A3329466B4893
:102E9000E273236084F8078004F024F86F4B6748DE
:102EA0001A7822725A7862729A78A272DA78E2728A
:102EB0001A7922735A7962739A79DB79E373294616
:102EC00040F25E33A273236084F8078004F00AF8AE
:102ED000022005F0FBFD624B58481A7822725A789E
:102EE00062729A78A272DA78E2721A7922735A7947
:102EF00062739A79DB79E37329464FF45C7323603C
:102F000084F80780A27303F0EDFF564B1B68012B7A
:102F100000F0AE80022005F0D9FDB36D23730225C9
:102F200000221B12284640F273380827637322726E
:102F3000012362729922A273E372E373A572C4F84B
:102F40000080E77105F0C2FD3F48C4F80080E771DA
:102F5000FDF746FF444908F097FC08F081FE207217
:102F60003948FDF73DFF404908F08EFC08F078FE37
:102F7000C0F3072334486372FDF758FF3A4908F05D
:102F800083FC08F06DFEA0722F48FDF74FFF364915
:102F900008F07AFC08F064FEC0F307232A48E372C5
:102FA000FDF7F0FF314908F067FB08F059FE207388
:102FB0002548FDF7E7FF2D4908F05EFB08F050FEBD
:102FC000C0F3072320486373FDF7DAFF274908F0B1
:102FD00053FB08F045FEA0731B48FDF7D1FF2349C2
:102FE00008F04AFB08F03CFE0F49C0F307231348E2
:102FF000E37303F077FF284605F068FD726DB36D4B
:10300000E57112FB03F3C3F3072140F27932237217
:1030100061722260BDE8F88308F0E2FB316A054680
:103020008FE600BF8892FF1F6492FF1F0CCCFF1F2A
:103030000000204138CDFF1F7892FF1F6CCDFF1F8D
:103040003487FF1F3A87FF1FF893FF1F0000C84215
:10305000F8CBFF1FF4CBFF1F5092FF1F5887FF1FB5
:103060006087FF1FF0CCFF1F00007A443393884332
:103070002648FDF7B5FEF96C08F0FEFA81462348B4
:10308000FDF7D4FE0146484608F09CFD00283FF4B9
:1030900041AF40F2C3331D4885F807802B60FDF730
:1030A0009FFEBF6C394608F08DFDC8B118493846FF
:1030B00008F0EAFB08F0D4FD80B240FA08F3687229
:1030C0002B72002301270425032212491248A772FC
:1030D000E57222736373A373E37303F003FF19E7CD
:1030E0000A48FDF77DFE0A4908F0CEFB08F0B8FD5E
:1030F000C0F3072305482B72FDF772FE044908F060
:10310000C3FB08F0ADFD6872DBE700BFF893FF1F5B
:1031100000007A446492FF1F6CCDFF1F38B5164C37
:10312000164A2368101D12F8011F904241EA03233A
:10313000F9D12360124C03F100432360114BDB6F84
:10314000022B11D0104B1B68012B00D038BD0F484B
:1031500004F062FE21680D4804F0AEFE03210C4825
:10316000BDE8384007F05AB920680A4D08F038FB2E
:103170002860FEF785FFE5E73CCDFF1F5BCBFF1F17
:10318000EC92FF1F0CCCFF1F48CDFF1FD087FF1F05
:10319000A806010034CDFF1F30B54B4C4B4883B01F
:1031A000214603F097FD23683C2B68D0A3F19A02D7
:1031B000C52A0AD903F47F63B3F5B87F444D14D010
:1031C0002B68012B1DD003B030BD424B404D1B6816
:1031D000012B50D000223C493F48FDF7EFFC23680B
:1031E00003F47F63B3F5B87FEAD13A4B1B68012B38
:1031F00049D0002234493848FDF7BEFC2B68012B2A
:10320000E1D1344B1B68012BDDD1344B34481B68B2
:1032100001930A220023019904F00EFE22682A4B32
:10322000002ADB7949DB2F492F4809F0F5FA2E48AF
:1032300009F026FB01462C4807F0F0F82568224BE0
:1032400015F080452AD1DB798BB1631927491A7AA9
:10325000254809F0E1FA244809F012FB014622480A
:1032600007F0DCF80135E379EDB2AB42EDD81C484C
:1032700004F0D2FDA7E72A68012AABD1ABE7FFF73C
:103280004DFF236892E72A680F491348A2F1010213
:10329000B2FA82F25209FDF76FFC91E7144D124C1D
:1032A0000FCD0FC495E8030044F8040B204620F826
:1032B0001419152107F0B2F8D9E70E490A4822F08F
:1032C000604209F0A9FAB2E754CBFF1F6CCDFF1F93
:1032D0002887FF1F48CDFF1FF893FF1F30CFFF1F28
:1032E000D087FF1FD406010070CBFF1F000701002D
:1032F000E8060100AC060100A24B1B78052B00F08C
:10330000A1802DE9F04FA04CA04EA14D626EE36D5F
:10331000A048326083B02B60FDF734FEE16A08F00C
:1033200051FC08B100232B609A48FDF729FEA16AE1
:1033300008F066FC10B1002333602B609548FDF760
:1033400075FDE16808F05CFC08B100232B60914832
:10335000FDF76CFDE16808F053FC08B100232B6019
:103360008C48894FFDF73CFD216908F02BFC0028B3
:103370006ED0002333602B68854F002B53DD8548CA
:10338000DFF80482FDF7FCFD216B08F01BFC002830
:1033900040F0C480804B7F481B687B4F012B00F0BE
:1033A000FD80FDF743FDE1698046606908F062F940
:1033B0000146404608F024FC002834D0286808F074
:1033C0000FFA82467348FDF731FDD7F81480834623
:1033D000F969404608F04EF98146386E08F000FA67
:1033E0000446F86D08F0FCF9214608F043F9494617
:1033F0000746584608F03EF90146384608F044FAB8
:1034000049460746404608F035F90146384608F077
:10341000EFFA214608F030F90146504608F02AF943
:1034200008F0F8FB28603368584A002BAFBF2B68C0
:103430002B6800211160002B01DA00232B6003B000
:10344000BDE8F08F5149524A00230B60136070476A
:103450005048FDF7C5FCB96908F0B4FB002888D1D5
:103460003368DFF82891002B85DD4A48FDF78AFD97
:10347000796B08F0C5FB002840F0B3804548424F07
:10348000FDF7AEFC216908F0BBFB002800F09F802F
:103490004048DFF8F480FDF7A3FCD4F8BC100746E1
:1034A000A06908F0E9F80146384608F08BFB0028CF
:1034B0003FF461AF306808F093F982463548FDF774
:1034C0008FFC8346D8F86400D8F8187008F088F9A3
:1034D00039468146584608F0CDF8494683460020D3
:1034E00008F0C8F80146584608F0CEF9D8F8BC10E4
:1034F0008346384608F0C0F8394608F0BBF8014664
:10350000584608F075FA494608F0B6F801465046A4
:1035100008F0B0F808F07EFB30602CE7386808F05F
:103520005FF983461B48FDF72BFD0190D8F85C003E
:10353000D8F82CA008F054F9019B81465146184652
:1035400008F098F849460190002008F093F8019B94
:103550000146184608F098F951460190D8F8300015
:1035600008F088F8019B0146184608F041FA4946E0
:1035700008F082F80146584608F07CF808F04AFB4B
:10358000386007E700CCFF1F0CCCFF1F38CDFF1FB2
:103590007892FF1FF893FF1F8892FF1FFDF746FCEC
:1035A000E1698046206A08F065F80146404608F067
:1035B00027FB00283FF437AF286808F011F982464E
:1035C0001E48FDF733FCD7F82080834600E71B48F0
:1035D000FDF706FCB96908F013FB00287FF458AF2B
:1035E000C9E6D9F8000008F0FBF882461348FDF759
:1035F000C9FC0190786ED7F8348008F0F1F8019B8F
:1036000083464146184608F035F80146584608F00A
:103610003BF941468346B86A08F02CF80146584603
:1036200008F0E6F9002108F027F80146504608F0B6
:1036300021F808F0EFFAC9F800001FE7F893FF1F20
:1036400008B5274804F0E8FB0721264806F0E6FE07
:10365000112005F005FA0621F8B1234806F0DEFE38
:10366000102005F0FDF9062100B3204806F0D6FE33
:10367000122005F0F5F9062108B31D4806F0CEFE2C
:10368000132005F0EDF9062110BB1A4806F0C6FE1E
:103690001348BDE8084004F0BFBB174806F0BEFE63
:1036A000102005F0DDF906210028DED1134806F0D0
:1036B000B5FE122005F0D4F906210028DDD110480E
:1036C00006F0ACFE132005F0CBF906210028DCD073
:1036D0000C4806F0A3FE0248BDE8084004F09CBB7D
:1036E000D087FF1F0C070100140701002407010009
:1036F000340701004C0701001C0701002C070100E2
:103700003C0701004407010010B5254C2368042B39
:1037100027DC01210B2005F09DF901210C2005F08B
:1037200099F90121142005F095F90121152005F0E2
:1037300091F9FF21162005F00DF8FF21172005F063
:1037400009F8FF21052005F005F8FF21062005F006
:1037500001F8236801330A2B2360C4BF00232360D0
:1037600010BD00210B2005F075F900210C2005F09B
:1037700071F90021142005F06DF90021152005F0E4
:1037800069F90021162004F0E5FF0021172004F05C
:10379000E1FF0021052004F0DDFF0021D6E700BF96
:1037A0005492FF1F30B5092183B0AC4805F06EFC80
:1037B000222005F013FCAA4BD3F8A030012BA94B13
:1037C0001B7809D0052B10D8DFE813F02A012F0150
:1037D00039013E0134010B00002B00F03A81052B2A
:1037E00003D10721A04805F051FC222005F0F6FB8B
:1037F000FF2005F0F3FBFF2005F0F0FB9B4CFF20C2
:1038000005F0ECFB08219A4805F040FC2168994836
:1038100004F052FBFF2005F0E1FBFF2005F0DEFB8A
:10382000FF2005F0DBFB0921934805F02FFC216800
:10383000904804F041FBFF2005F0D0FBFF2005F08D
:10384000CDFBFF2005F0CAFB0C218C4805F01EFCC7
:103850008B4B8C49186808F0CBF807F06BFB002401
:1038600002460B460094834804F02EFBFF2005F02F
:10387000B5FBFF2005F0B2FBFF2005F0AFFB0921EF
:10388000814805F003FC8148FDF716FB07F052FB69
:10389000009402460B46774804F016FBFF2005F023
:1038A0009DFBFF2005F09AFBFF2005F097FB0C2104
:1038B000774805F0EBFB7548FDF764FB07F03AFB32
:1038C000009402460B466B4804F0FEFAFF2005F018
:1038D00085FBFF2005F082FBFF2005F07FFB0D211B
:1038E0006C4805F0D3FB6948FDF74AFB07F022FB63
:1038F000009402460B465F4804F0E6FAFF2005F00C
:103900006DFBFF2005F06AFBFF2005F067FB092136
:10391000614805F0BBFB5D48FDF7ACFA07F00AFB18
:10392000009402460B46534804F0CEFAFF2005F0FF
:1039300055FBFF2005F052FBFF2005F04FFB0C214B
:10394000564805F0A3FB5148FDF74AFA544907F0E1
:103950009BFF07F0EFFA009402460B46454804F03F
:10396000B3FAFF2005F03AFBFF2005F037FBFF20FC
:1039700005F034FB0D214B4805F088FB4348FDF76B
:1039800055FA474907F080FF07F0D4FA0094024641
:103990000B46384804F098FAFF2005F01FFBFF2083
:1039A00005F01CFBFF2005F019FB09213E4805F03E
:1039B0006DFB3E4B2F48196804F07EFAFF2005F09E
:1039C0000DFBFF2005F00AFBFF2005F007FB0E2191
:1039D000374805F05BFB2D48FDF728FA05462B48D4
:1039E000FDF7FEF90146284607F044FE2C4907F092
:1039F0004BFF07F09FFA009402460B461D4804F067
:103A000063FAFF2005F0EAFAFF2005F0E7FAFF204D
:103A100005F0E4FAFF2003B0BDE8304005F0DEBA5F
:103A20000621244805F032FBDFE60721224805F095
:103A30002DFBDAE60B21214805F028FBD5E607210E
:103A40001F4805F023FBD0E608211E4805F01EFBA9
:103A5000CBE608211C4805F019FBC6E65407010017
:103A60000CCCFF1F00CCFF1F400501003487FF1F57
:103A70006C070100B487FF1F78070100840701006D
:103A8000F8CBFF1F0000C84294070100F893FF1F06
:103A9000A0070100B0070100C0070100CC0701002A
:103AA00000007A44DC070100EC0701004887FF1F93
:103AB000F8070100100501001805010020050100AC
:103AC0002C05010034050100600701002DE9F041DB
:103AD0008D4DD5F8B030042B3ED0032B6ED0012B8A
:103AE00000F09880022B01D0BDE8F081874C884817
:103AF000237240F20E32012321462260E37103F06B
:103B0000F1F9844B1B685B00FF2BC8BFFF23042126
:103B100040224FF441702060E17122726372286D7F
:103B200007F05EFE696907F0AFFE7B49054608F0C5
:103B300067F8002800F0DE802946284607F09CFD43
:103B400008F08EF880B20312E072A3726F497048D9
:103B5000BDE8F04103F0C6B96C4C704AA37922600D
:103B600043F001030822E271A371286D07F038FECB
:103B7000696907F089FE6A4907F086FE08F070F867
:103B8000644B684A1B68126893FBF2F380B200260C
:103B90001A120712607221465D48E372A272277200
:103BA00026736673A673E67303F09CF9A279D5F8C1
:103BB000B03066F30002032BA27190D1534C286DF4
:103BC000A3720122E823072140F2FF2622726372CA
:103BD0002660E17107F004FE696907F055FE50495F
:103BE00007F052FE08F03CF84A4B4E4A1B68126838
:103BF00093FBF2F382B21E121712214644486373FC
:103C0000E2722773A67303F06DF9D5F8B030012B7B
:103C10007FF468AF444B3D4C1B6823600722802330
:103C20001020E271237204F01BFF002869D13F4B82
:103C30001B68DFF8E0803B4F286D344E03EB8303B5
:103C40005B001A12A3726272D8F800303A6893FBD4
:103C5000F2F31A126273A37307F0C2FD696907F0E9
:103C600013FE334B196807F005FD2D4907F00CFED4
:103C700007F0F6FF80B20312314620732448E37246
:103C800003F030F9022004F021FF2A4B1B68236067
:103C9000072280231020E271237204F0E1FE70BB42
:103CA000224B1B68286D03EB83035B001A127272B0
:103CB000B37207F095FD696907F0E6FD1E4B1968C0
:103CC00007F0D8FC164907F0DFFD07F0C9FF82B204
:103CD00016123868D8F80030227393FBF0F30B49C2
:103CE0000B48A3731A12E672627303F0FBF8D5F85F
:103CF000B030F7E601229023A272E37226E70F4B61
:103D0000CFE70E4B94E700BF0CCCFF1F6492FF1F60
:103D10006CCDFF1F7892FF1F00004843F4E50618A2
:103D2000000020413087FF1F6887FF1F2C87FF1F7F
:103D30007492FF1F6C87FF1F28CDFF1F4087FF1F56
:103D400070B50368C57984B0012D8DF805304FEA50
:103D500013230E468DF8043005F1010201A909DD97
:103D600007300D440DF1050310F8014F03F8014F22
:103D7000AB42F9D1034B04489B5D02F07DFB04B0DC
:103D800070BD00BF38120100F892FF1FF0B40D4B58
:103D90000D489C790822FF27CD26A225DA71002242
:103DA000B0216FF300041F729E72DD725A721A7393
:103DB0005A739A73DA7319609C711946F0BC03F058
:103DC00091B800BF6492FF1F6CCDFF1F2DE9F04139
:103DD0003C4E3D4D33780F2B04BF002333702B78BE
:103DE000082B44D0394F43F08003394A394C1268CC
:103DF0002360012A4FF00803E37144D068221023A6
:103E0000227263723B78334A0021022BA17233780D
:103E100009D84FEA0313D17211735173DBB209D180
:103E20000433937307E051731B0150200821DBB268
:103E3000D0721173A37329782648FFF781FFE073CE
:103E4000022004F043FE2349234803F04BF8327864
:103E50002B7822480132013332702B70FCF74CFE74
:103E600008B9BDE8F081BDE8F041FFF78FBF174FFB
:103E70003B78032B98BF01334FF0000298BF3B7093
:103E80002A708023B1E7DFF85C801448FCF7A8FFB4
:103E9000D8F84C1007F0F0FB114907F0F5FC07F0DB
:103EA000DFFE20720D48FCF79BFFD8F84C1007F09E
:103EB000E3FB0B4907F0E8FC07F0D2FEC0F3072054
:103EC00060729FE72CCDFF1F44CDFF1F50CDFF1F19
:103ED000F0CCFF1F6492FF1F6CCDFF1FF893FF1FF4
:103EE00000007A440CCCFF1FF0B5B14CB14D83B04B
:103EF00006F02EFA23682860042B00F0D782022BEC
:103F000056D0082B46D0072B40F07A81332801F099
:103F1000348400F3DB80312801F04284322842D11E
:103F200006F052FA002840F36981A348A34E04F03A
:103F300005F907F055FCA24907F0A6FC6123012210
:103F4000F06322602B601846A0F152031F2B2AD881
:103F5000DFE813F09F0B2900290029002900290020
:103F60002900290029002900290029002900290009
:103F70002900FC03210D76050C06E2042900290026
:103F8000290071042900240D290029002900290095
:103F900029008F0B322800F0A783712800F09C8045
:103FA000312800F0BC83732800F09A8003B0F0BD84
:103FB000A0F13103422BF6D801A252F823F000BF42
:103FC000D14D0000E94D0000054E00001F4E0000DD
:103FD000454E0000C54E0000A73F0000A73F00006F
:103FE000A73F0000A73F0000A73F0000A73F000039
:103FF000A73F0000A73F0000A73F0000A73F000029
:10400000A73F0000A73F0000A73F0000A73F000018
:10401000A73F0000A73F0000A73F0000A73F000008
:10402000A73F0000A73F0000A73F0000A73F0000F8
:10403000A73F0000A73F0000A73F0000A73F0000E8
:10404000A73F0000A73F0000A73F0000A73F0000D8
:10405000A73F0000A73F0000A73F0000A73F0000C8
:10406000A73F0000A73F0000A73F0000A73F0000B8
:10407000A73F0000A73F0000A73F0000A73F0000A8
:10408000A73F0000A73F0000DF4E0000A73F000051
:10409000A73F0000A73F0000A73F0000A73F000088
:1040A000A73F0000A73F0000A73F0000A73F000078
:1040B000A73F0000A73F0000A73F0000A73F000068
:1040C000D9400000A73F0000B74D0000342801F0A0
:1040D0007D8371287FF467AF0022732322602B60F9
:1040E0002368002B7FF462AF364E334803F094FE12
:1040F0000421354806F092F92F4803F08DFE102177
:10410000324806F08BF92C4803F086FE1321304824
:1041100006F084F92F4B2848196803F0CDFE264895
:1041200003F07AFE14212C4806F078F9224803F0B7
:1041300073FE1E21294806F071F91F4803F06CFE3A
:104140001521274806F06AF91B4803F065FE1E2179
:10415000244806F063F9184803F05EFE2021224847
:1041600006F05CF9144803F057FE19211F4806F0C9
:1041700055F9114803F050FE12211D4806F04EF982
:104180000D4803F049FE0F211A4806F047F90A4886
:1041900003F042FE0D21184806F040F9064803F0EE
:1041A0003BFE002201233260236003B0F0BD00BF5C
:1041B00054CDFF1F50CBFF1FD087FF1F0CCCFF1F1C
:1041C0006F12833A2887FF1F480B0100500B010034
:1041D000640B01004887FF1F780B0100900B010062
:1041E000B00B0100C80B0100E80B01000C0C010032
:1041F000280C01003C0C01004C0C010023682868CD
:10420000062B40F08D80A0F13103402B3FF6CBAE62
:1042100001A252F823F000BF8B4D0000394D000081
:10422000654D0000BD4C0000E34C0000014D000056
:10423000254D0000A73F0000A73F0000A73F00005A
:10424000A73F0000A73F0000A73F0000A73F0000D6
:10425000A73F0000A73F0000A73F0000A73F0000C6
:10426000A73F0000A73F0000A73F0000A73F0000B6
:10427000A73F0000A73F0000A73F0000A73F0000A6
:10428000A73F0000A73F0000A73F0000A73F000096
:10429000A73F0000A73F0000A73F0000A73F000086
:1042A000A73F0000A73F0000A73F0000A73F000076
:1042B000A73F0000A73F0000A73F0000A73F000066
:1042C000A73F0000A73F0000A73F0000A73F000056
:1042D000A73F0000A73F0000A73F0000A73F000046
:1042E000A73F0000A73F0000A73F0000A73F000036
:1042F000A73F0000A73F0000A73F0000A73F000026
:10430000A73F0000A73F0000A73F0000A73F000015
:10431000A73F0000A73F0000D9400000236828689D
:10432000052B15D1332801F08A8240F34B813528C3
:1043300001F06F82C1F2948271287FF434AEDE49BD
:10434000002373220B6023602A60C9E62368286873
:10435000032B40F0A480A0F13003422B3FF623AEA4
:1043600001A252F823F000BF75440000E954000098
:1043700011550000395500005B550000B95500008B
:10438000E155000009560000275600004B5600007A
:10439000A73F0000A73F0000A73F0000A73F000085
:1043A000A73F0000A73F0000A73F0000A73F000075
:1043B000A73F0000A73F0000A73F0000A73F000065
:1043C000A73F0000A73F0000A73F0000A73F000055
:1043D000A73F0000A73F0000A73F0000A73F000045
:1043E000A73F0000A73F0000A73F0000A73F000035
:1043F000A73F0000A73F0000A73F0000A73F000025
:10440000A73F0000A73F0000A73F0000A73F000014
:10441000A73F0000A73F0000A73F0000A73F000004
:10442000A73F0000A73F0000A73F0000AD540000D9
:10443000DF4F0000CB5400007D5500009B5500006D
:1044400037540000954F0000B94F0000A73F00000F
:10445000A73F0000A73F0000A73F0000A73F0000C4
:10446000A73F0000A73F0000A73F0000D940000081
:104470008D54000005F0A8FF002841F377818F4894
:104480008F4E03F05BFE01270346014662228D48F2
:10449000736527602A60FCF7EFFC23682868012B0E
:1044A0003FF452AD73287FF481AD19E6A0F13103DA
:1044B000412B3FF678AD01A252F823F08D4F00005A
:1044C0001B4F0000334F0000534F0000574F0000B8
:1044D000734F0000854F0000894F0000EB4E000035
:1044E000A73F0000A73F0000A73F0000A73F000034
:1044F000A73F0000A73F0000A73F0000A73F000024
:10450000A73F0000A73F0000A73F0000A73F000013
:10451000A73F0000A73F0000A73F0000A73F000003
:10452000A73F0000A73F0000A73F0000A73F0000F3
:10453000A73F0000A73F0000A73F0000A73F0000E3
:10454000A73F0000A73F0000A73F0000A73F0000D3
:10455000A73F0000A73F0000A73F0000A73F0000C3
:10456000A73F0000A73F0000A73F0000A73F0000B3
:10457000A73F0000A73F0000A73F0000A73F0000A3
:10458000914F0000A73F0000A73F0000A73F000099
:10459000A73F0000A73F0000A73F0000A73F000083
:1045A000A73F0000A73F0000A73F0000A73F000073
:1045B000A73F0000A73F0000A73F0000D940000030
:1045C000114F0000312801F0138132287FF4EBAC49
:1045D00005F0FAFE00287FF7B9AE3848384E03F0F0
:1045E000ADFD01226B23C6F88C0022602B6001E038
:1045F00005F0AEFE05F0E8FE0028F9D12F4803F0E3
:104600000BFC2E4803F008FC2C4803F005FC2B485B
:1046100003F002FC294803F0FFFB21212A4805F0A2
:10462000FDFE264803F0F8FB1521284805F0F6FEAC
:10463000D6F88410214803F03FFC0221244805F0FD
:10464000EDFE1E4803F0E8FB1E21224805F0E6FEC1
:10465000D6F88C10194803F02FFC03211E4805F0F2
:10466000DDFE164803F0D8FB1E211C4805F0D6FEDF
:10467000D6F88810114803F01FFC104803F0CCFB5B
:104680001D21174805F0CAFED6F8A4100B4803F008
:1046900013FC0A4803F0C0FB1E21124805F0BEFEC1
:1046A000D6F8A810054803F007FC044803F0B4FB53
:1046B000052323607AE400BF7C92FF1FD087FF1F91
:1046C0000CCCFF1FF893FF1F8C0A0100B00A0100F9
:1046D0009C090100C80A0100BC050100E80A0100AC
:1046E000080B0100280B010005F06EFE002840F3C6
:1046F000DD827748774E03F021FD07F071F87649A7
:1047000007F0C2F896F840100346024673487364F7
:10471000FCF7B4FB012369202360286014E405F052
:1047200053FE002840F3C68269486A4E03F006FD36
:10473000C0B286F8400002288ABF0021014686F8F0
:104740004010726C6548E3E705F002FE05F03CFEA0
:1047500005460028F8D15E485E4E03F05DFB5C48DC
:1047600003F05AFB5A4803F057FB594803F054FB37
:10477000574803F051FB1F21594805F04FFE54489C
:1047800003F04AFB1C21574805F048FE706A564961
:1047900007F07AF806F0CEFB009502460B464C482F
:1047A00003F092FB0221514805F038FE484803F01F
:1047B00033FB23214E4805F031FEF06B4A4907F0E8
:1047C00063F806F0B7FB009502460B46404803F03D
:1047D0007BFB0221454805F021FE3D4803F01CFB10
:1047E0001921444805F01AFEB06B06F0A3FB022520
:1047F0000B4602460095364803F066FB29463E48C4
:1048000005F00CFE324803F007FB19213B4805F088
:1048100005FEB6F8B8102E4803F04EFB03213848C9
:1048200005F0FCFD2A4803F0F7FA07232360FFF7A1
:10483000BDBB05F08DFD05F0C7FD05460028F8D18C
:104840002348244E03F0E8FA214803F0E5FA204813
:1048500003F0E2FA1E4803F0DFFA1D4803F0DCFA29
:104860001521284805F0DAFD194803F0D5FA18217A
:10487000254805F0D3FD2B460A2296F8401014482F
:1048800003F0DAFA124803F0C7FA28211F4805F0AE
:10489000C5FD706C144906F0F7FF06F04BFB009560
:1048A0000B4602460A4803F00FFB02210F4805F0B1
:1048B000B5FD074803F0B0FA1321154805F0AEFD29
:1048C000034803F0A9FA08232360FFF76FBB00BF7A
:1048D000D087FF1F0CCCFF1F6F12833AF893FF1F86
:1048E000E8090100080A010000007A447408010088
:1048F000280A01004C0A0100680A01006C0A010044
:10490000880A0100100C01002C0801004808010071
:104910007808010005F01CFD05F056FD054600284D
:10492000F8D17D487D4E03F077FA7B4803F074FAA6
:10493000794803F071FA784803F06EFA764803F08C
:104940006BFA1121764805F069FD734803F064FAAB
:104950002821744805F062FD7069734906F094FFE0
:1049600006F0E8FA009502460B466B4803F0ACFAF5
:1049700002216E4805F052FD674803F04DFA1621FA
:104980006B4805F04BFDF069674906F07DFF06F0C6
:10499000D1FA00950B4602465F4803F095FA0221D2
:1049A000624805F03BFD5C4803F036FAD6F8B030BB
:1049B000002B32DD1D215F4805F030FDF06D06F063
:1049C0000FFF5D4906F060FF06F0B4FA02250246CB
:1049D0000B460095504803F077FA0121574805F03F
:1049E0001DFD4D4803F018FA1F21554805F016FD2E
:1049F000306E06F0F5FE504906F046FF06F09AFAD2
:104A0000009502460B46444803F05EFA01214B48EC
:104A100005F004FD404803F0FFF91121494805F075
:104A2000FDFCD6F8B030052B00F25086DFE813F01D
:104A30008A0685064A06990694068F0605F088FCC4
:104A400005F0C2FC0028F9D13348344E03F0E4F9F4
:104A5000314803F0E1F9304803F0DEF92E4803F065
:104A6000DBF92D4803F0D8F91F21374805F0D6FCB3
:104A7000294803F0D1F91E21344805F0CFFC26481F
:104A800003F0CAF91A21324805F0C8FCF36F022B73
:104A900000F04387032B00F03787012B00F02B87B2
:104AA00009212C4805F0BAFC1B4803F0B5F9142184
:104AB00029481A4F05F0B2FCB16F174803F0FCF912
:104AC000154803F0A9F91C21244805F0A7FCD6F8E5
:104AD0008010114803F0F0F90F4803F09DF91C21F4
:104AE0001F4805F09BFCD6F8AC100B4803F0E4F926
:104AF000094803F091F9F56F25F00205012D00F04A
:104B0000CA861321174805F089FC034803F084F98D
:104B100002232360FFF74ABAD087FF1F0CCCFF1F88
:104B2000B40B01008C08010000007A4474080100F5
:104B3000B8080100D0080100CDCCCC3D980E010092
:104B4000F008010010090100580D0100780D010066
:104B5000980D0100100E01001C0E0100340E010022
:104B6000540E01007808010005F0F2FB05F02CFC62
:104B70000028F9D1BB4803F04FF9BA4803F04CF9CB
:104B8000B84803F049F9B74803F046F9B54803F0CF
:104B900043F91321B44805F041FCB24803F03CF955
:104BA0000D21B24805F03AFCAE4803F035F90F216B
:104BB000AF4805F033FCAF4BAA48196803F07CF905
:104BC000A84803F029F91321AB4805F027FCAB4BAB
:104BD000A448196803F070F9A24803F01DF91221E6
:104BE000A74805F01BFCA74B9E48196803F064F921
:104BF0009C4803F011F91121A34805F00FFCA34BC9
:104C00009848196803F058F9964803F005F90E2101
:104C10009F4805F003FC9F4B9248D3F8A01003F087
:104C20004BF9904803F0F8F819219B4805F0F6FB82
:104C30009A4B8C48196803F03FF98A4803F0ECF866
:104C40001121974805F0EAFB964B8648196803F056
:104C500033F9844803F0E0F81021934805F0DEFBB7
:104C6000924B8048196803F027F97E4803F0D4F886
:104C70001C218F4805F0D2FB8E4B7A48196803F04F
:104C80001BF9784803F0C8F817218B4805F0C6FBDC
:104C9000744803F0C1F81321884805F0BFFB714840
:104CA00003F0BAF804232360FFF780B9236828686B
:104CB000FFF729B9774E96F840003CE505F084FBF4
:104CC00000287FF72BAB6748724E03F037FA00EBF2
:104CD0008000430001226520336622602860FFF7D0
:104CE00033B96C4AD2F8B0300133052BC8BF00236A
:104CF000C2F8B0300123652023602860FFF724B993
:104D000005F062FB00287FF709AB5648614E03F0BF
:104D100015FA65230122C6F8B40022602B601846FC
:104D2000FFF712B95B4B93F8C020002A00F0A6856C
:104D3000002283F8C020DDE705F046FB00287FF75E
:104D4000EDAA4848534E03F0F9F906F049FD5C49D5
:104D500006F04EFE65230122F06122602B601846AA
:104D6000FFF7F2B805F030FB00287FF7D7AA3D48DF
:104D7000484E03F0E3F900EB800043000122652078
:104D8000F36522602860FFF7DFB805F01DFB0028FF
:104D90007FF7C4AA33483F4E03F0D0F906F020FD58
:104DA000474906F025FE65230122706122602B60D1
:104DB0001846FFF7C9B8374AD36F0133032BC8BF72
:104DC0000023D3670123632023602860FFF7BCB86A
:104DD000304EB36FB3FA83F35B0901226320B367EC
:104DE00022602860FFF7B0B82A4ED6F88030B3FAB8
:104DF00083F35B0901226320C6F8803022602860BB
:104E0000FFF7A2B80123236005F0DEFA0028D9DD00
:104E10001448204E03F092F9C6F8AC00D2E7012303
:104E2000236005F0D1FA002807DD0E48194E03F083
:104E300085F906F0D5FCC6F8940063202860236845
:104E4000FFF761B80123236005F0BEFA0028F4DD06
:104E50000448104E03F072F906F0C2FCC6F8900048
:104E6000EBE700BFD087FF1F5C0C0100700C010056
:104E7000800C010048CDFF1F900C0100F0CBFF1FFC
:104E8000A40C01001CCDFF1FB80C010004CCFF1FB7
:104E9000CC0C01000CCCFF1FDC0C01005C92FF1F4E
:104EA000F80C01007C92FF1F0C0D01004C92FF1FBB
:104EB000200D01004487FF1F400D0100780801000C
:104EC00000007A440123236005F07EFA0028B4DD57
:104ED0004A484B4E03F032F9A6F8BA00ADE7FDF7A9
:104EE0005BFE23682868FFF70CB80123236005F0F8
:104EF0006BFA002800F3C784424B1A68042A01DDCC
:104F000002221A6064232B6023686420FEF7F9BF35
:104F100001232360FEF73AFFF4E73B4A1368B3FA34
:104F200083F35B0901216420136021602860FFF78F
:104F30000BB8364A364F1368002B0CBF01210021F5
:104F40004FF001031160236040F0F08464222A6076
:104F5000DBE7304AE2E72A4ED6F8A030B3FA83F313
:104F60005B0901226420C6F8A03022602860FEF7A9
:104F7000EBBF012328482360FBF7D8FD274A2368AD
:104F80001060E3E7264AC9E7264AC7E7264AC5E78D
:104F9000264AC3E705F018FA00280DDD1748184E19
:104FA00003F0CCF806F01CFC214906F021FD01229B
:104FB0006223306222602B6005F006FA00280EDDC5
:104FC0000E480F4E03F0BAF806F00AFC184906F036
:104FD0000FFD01226223C6F8BC0022602B6005F0A1
:104FE000F3F9002840F3C2830448054E03F0A6F805
:104FF00001226223B06622602B601DE0D087FF1F74
:105000000CCCFF1F4487FF1FF0CBFF1F1CCDFF1FE1
:1050100054CDFF1F04CCFF1FF893FF1F5C92FF1FAE
:105020007C92FF1F4C92FF1F48CDFF1FD4CCFF1F67
:1050300000007A4405F08CF905F0C6F90546002811
:10504000F8D1C24802F0E8FEC04802F0E5FEBF48D1
:1050500002F0E2FEBD4802F0DFFEBC4802F0DCFEDA
:105060001521BB4805F0DAF9B84802F0D5FE142145
:10507000B84805F0D3F9B54802F0CEFE1B21B6487A
:1050800005F0CCF9B14802F0C7FE1321B34805F092
:10509000C5F9AE4802F0C0FEAC4802F0BDFEAB4818
:1050A00002F0BAFE2021AE4805F0B8F9F068AD492B
:1050B00006F0EAFB05F03EFF009502460B46A348CA
:1050C00002F002FF0221A84805F0A8F90221A74832
:1050D00005F0A4F99D4802F09FFE2121A44805F0A7
:1050E0009DF930699F4906F0CFFB05F023FF00953D
:1050F00002460B46954802F0E7FE02219A4805F069
:105100008DF90221994805F089F9904802F084FE52
:105110001F21984805F082F9B06A05F00BFF0227BD
:1051200002460B460097894802F0CEFE01219248C4
:1051300005F074F939468D4805F070F9834802F09E
:105140006BFE20218D4805F069F9F06A05F0F2FE4A
:10515000009702460B467D4802F0B6FE01218648C4
:1051600005F05CF93946814805F058F9774802F0B6
:1051700053FE2321824805F051F9B06C794906F0BD
:1051800083FB05F0D7FE009502460B466F4802F000
:105190009BFE3946744805F041F93946734805F0DD
:1051A0003DF96A4802F038FE1F21764805F036F9CD
:1051B000F06C6C4906F068FB05F0BCFE00950246F9
:1051C0000B46624802F080FE3946674805F026F932
:1051D0003946664805F022F95C4802F01DFE1921A7
:1051E000694805F01BF9B16D584802F065FE394673
:1051F000664805F013F939465C4805F00FF9534845
:1052000002F00AFE1821624805F008F9706E06F0F7
:10521000E7FA604906F038FB05F08CFE009702467D
:105220000B464A4802F050FE01215B4805F0F6F8B3
:1052300039464E4805F0F2F8444802F0EDFD2B21C6
:10524000564805F0EBF8B069464906F01DFB05F03D
:1052500071FE009502460B463C4802F035FE394689
:10526000414805F0DBF83946404805F0D7F83748A3
:1052700002F0D2FD1F214A4805F0D0F8716D334885
:1052800002F01AFE3946394805F0C8F82F4802F0F6
:10529000C3FD2021434805F0C1F8316D2B4802F0D1
:1052A0000BFE3946314805F0B9F8284802F0B4FD44
:1052B00010213D4805F0B2F8B16E244802F0FCFD23
:1052C0003946294805F0AAF83946284805F0A6F8D5
:1052D0001E4802F0A1FD1321344805F09FF8F16E3D
:1052E0001A4802F0E9FD0121314805F097F83946E6
:1052F0001E4805F093F8154802F08EFD10212D4848
:1053000005F08CF8316F114802F0D6FD3946164889
:1053100005F084F83946154805F080F80B4802F08E
:105320007BFD1421244805F079F8716F074802F0DD
:10533000C3FD01211E4805F071F839460B4805F000
:105340006DF8024802F068FD162137E0D087FF1F94
:10535000E00E0100F80E0100100F010078080100B6
:105360002C0F010000007A447408010018070100A6
:10537000500F0100740F0100940F0100980F0100FD
:10538000BC0F0100E00F0100001001001C10010023
:1053900020100100CDCCCC3D980E01003C10010046
:1053A0006810010088100100AC100100C01001005D
:1053B000D4100100D8100100EC100100B64805F02F
:1053C0002DF8306AB54906F05FFA05F0B3FD009597
:1053D00002460B46B24802F077FD3946B14805F067
:1053E0001DF83946B04805F019F8AD4802F014FD33
:1053F0002421AE4805F012F8D6F8BC00A74906F003
:1054000043FA05F097FD00950B460246A44802F0CA
:105410005BFD3946A34805F001F83946A24804F07F
:10542000FDFF9F4802F0F8FC9D4802F0F5FC0323C5
:105430002360FEF7BBBDFCF759F802219A489C4E49
:1054400004F0ECFF964802F0E7FC0221964804F0D5
:10545000E5FF934802F0E0FC0221934804F0DEFFF0
:105460008F4802F0D9FC1721924804F0D7FF8C48EE
:1054700002F0D2FC02218C4804F0D0FF884802F0F0
:10548000CBFC0122622322602B60D5E58A4B864843
:10549000874E002202211A6004F0C0FF804802F00B
:1054A000BBFC0B21854804F0B9FFE3E704F08CFF57
:1054B000002840F35B817A487D4E02F03FFE0122D6
:1054C0006223306522602B60B6E504F07DFF002882
:1054D00040F34C817248764E02F030FE0122622386
:1054E000F06622602B60A7E504F06EFF002840F311
:1054F0003D816B486E4E02F021FE06F071F967495E
:1055000006F076FA01226223F06022602B6093E5B8
:1055100004F05AFF002840F329816148644E02F0EC
:105520000DFE06F05DF95D4906F062FA0122622384
:10553000306122602B607FE504F046FF002840F3D5
:10554000158157485A4E02F0F9FD06F049F901223B
:105550006223B06222602B606EE504F035FF002804
:1055600040F304814E48524E02F0E8FD06F038F94F
:1055700001226223F06222602B605DE504F024FFCB
:10558000002840F3F3804648494E02F0D7FD01223F
:105590006223306722602B604EE504F015FF00287F
:1055A00040F3E4803E48424E02F0C8FD01226223EF
:1055B000706722602B603FE504F006FF002840F38F
:1055C000D58037483A4E02F0B9FD06F009F9334963
:1055D00006F00EFA01226223B06422602B602BE5F4
:1055E00004F0F2FE002840F3C1802D48304E02F056
:1055F000A5FD06F0F5F8294906F0FAF90122622323
:10560000F06422602B6017E504F0DEFE002840F312
:10561000AD802348264E02F091FD01226223B06541
:1056200022602B6008E504F0CFFE002840F39E8046
:105630001B481F4E02F082FD00EB80004300012159
:105640006222736621602A60F6E404F0BDFE002841
:1056500040F38C801248164E02F070FD06F0C0F840
:105660000E4906F0C5F901226223B06122602B6069
:10567000E2E4C42200210E48114E02F053FE2B68D2
:1056800001210022732B316022607EF48FACFEF783
:105690002CBD04F02BF800BF0411010000007A4477
:1056A000D087FF1F74080100180701001C110100BA
:1056B0000CCCFF1F08080100E4CCFF1F20080100EC
:1056C0002887FF1F0C21B74804F0A8FEB648B74D45
:1056D00002F0A2FBD6F8B030002B12DD1821B4483E
:1056E00004F09CFED5F8B410AF4802F0E5FB0221AF
:1056F000B04804F093FEAC4802F08EFBAA4802F0DA
:105700008BFB1B21AC4804F089FE96F8C030012BBE
:1057100015BF12211421A948A94804F07FFEA24810
:1057200002F07AFB1321A74804F078FE9E4802F0AD
:1057300073FB06232360FEF739BC0C21A24804F05A
:105740006DFEC3E70D21A14804F068FEBEE70B2102
:105750009F4804F063FEB9E70D219E4804F05EFE09
:10576000B4E70D219C4804F059FEAFE72368286890
:10577000012B7EF497AEFEF7E7BB04F025FE002870
:105780007EF73CAD8848894E02F0D8FC06F028F838
:1057900061230122B06322602B601846FEF7D4BB60
:1057A00004F012FE00287EF729AD7F487F4E02F0FC
:1057B000C5FC06F015F8894906F066F86123012258
:1057C000706222602B601846FEF7BEBB04F0FCFD41
:1057D00000287EF713AD7448744E02F0AFFC6123CD
:1057E0000122A6F8B80022602B601846FEF7ACBB79
:1057F00004F0EAFD00287EF7A9AD6B486B4E02F07D
:105800009DFC01226B23C6F8840022602B60FEF70A
:10581000F1BE04F0D9FD00287EF798AD6248634ED2
:1058200002F08CFC6E4BC6F8A80003221A60FCF74D
:10583000BDF901226B2322602B60FEF7DBBE04F072
:10584000C3FD00287EF782AD5748584E02F076FC23
:1058500001226B23C6F8880022602B60FEF7CABEC7
:1058600004F0B2FD00287EF771AD4F484F4E02F0B4
:1058700065FC5B4BC6F8A4000222D7E7012283F83F
:10588000C020FFF737BA484802F058FC554B024693
:105890001860FFF733BB1C21534804F0BFFDD7F855
:1058A0009400524905F0F0FF05F044FB00950246D4
:1058B0000B463D4802F008FB05214D4804F0AEFDC3
:1058C000394802F0A9FAFD6F012D45D0032D7FF470
:1058D00018A91C21474804F0A1FDB6F8BA103248B7
:1058E00002F0EAFA0321444804F098FD2E4802F041
:1058F00093FAFFF706B91E21404804F08FFD2A48AD
:1059000002F08AFAFFF7D3B820213D4804F086FD63
:10591000254802F081FAFFF7CAB81721394804F088
:105920007DFD214802F078FAFFF7C1B8364B00261A
:1059300031460B201E6003F08DF831460C2003F039
:1059400089F83146142003F085F83146152003F01C
:1059500081F83B68FFF7FABA1D212C4804F05EFD80
:10596000D7F89000214905F08FFF05F0E3FA009584
:105970000B4602460C4802F0A7FA05211C4804F029
:105980004DFD094802F048FAFB6F23F00203012B9A
:105990009FD0FFF7B6B8054EFFF74EBB034EFEF79C
:1059A00029BE00BF44090100D087FF1F0CCCFF1F98
:1059B000800901009C090100A0090100BC09010047
:1059C000D009010078080100340901002409010010
:1059D0007409010064090100540901006F12833A3F
:1059E0007C92FF1F4487FF1F740E0100CDCCCC3D7D
:1059F000940E0100BC0E0100DC0E0100B40D01008C
:105A0000D40D0100F80D0100F492FF1F9C0E01005F
:105A10002DE9F04F97B001E0FDF7BEFB744801F0AF
:105A200023F90028F8D104F0CFFC002801DDFEF7AF
:105A30005BFA704E704D3368012B13D0FCF7C4FF36
:105A4000D5F8A040012C00F0F7806C4F3B78052B77
:105A500000F28B81DFE813F01702AA018B01F0013D
:105A6000E1016E01664C2368664A0A9366490A9B07
:105A700010680988624F1B1A8B4200F2AB802368C2
:105A8000624A0C930C9B11685D4F5B1AB3F5FA7F69
:105A90003BD823685E4E1293129B316841F28832E4
:105AA0005B1A93421CD823685A4A1493149B1068BB
:105AB000D5F8B410504C524D1B1A8B420DD92B689F
:105AC0001593D4F8A03015991160012B00F00A82CB
:105AD0004A4B1B78032B00F0058217B0BDE8F08F0E
