:1000000000800020BD010000C19200007992000034
:1000100079920000799200007992000079920000B4
:10002000799200007992000079920000C19200005C
:10003000C19200007992000055B8000059B8000044
:10004000C1920000C1920000C1920000C192000064
:10005000C1920000C1920000C1920000C192000054
:10006000C1920000C1920000C1920000C192000044
:10007000C1920000C1920000C1920000C192000034
:10008000C1920000C1920000C1920000C192000024
:10009000C1920000C1920000C1920000C192000014
:1000A000C1920000C1920000C1920000C192000004
:1000B000C1920000018600000D860000118600003C
:1000C0001D8600002186000025860000C1920000E8
:1000D000C1920000C1920000C1920000C1920000D4
:1000E000C1920000C1920000C1920000C1920000C4
:1000F000C1920000C1920000C192000085A10000E1
:10010000C192000099A80000C1920000C1920000B5
:10011000C1920000C1920000C1920000C192000093
:10012000C1920000C1920000C1920000C192000083
:10013000C1920000C1920000C1920000C192000073
:10014000C1920000C1920000C1920000C192000063
:10015000C1920000C1920000C1920000C192000053
:10016000C192000089AB0000C1920000C192000062
:10017000C1920000C1920000C1920000C192000033
:10018000C1920000C1920000C1920000C192000023
:10019000C1920000C1920000C1920000C192000013
:1001A000C1920000C1920000C1920000C192000003
:1001B000C1920000C1920000C1920000564B4CF267
:1001C000205210B51A804DF628121A8000BF00BFC9
:1001D00009F07AF8514B4FF010621A60504A9A6059
:1001E000504ADA60504A136813F4807304D14F49BF
:1001F0000B604FF4A85313604D4B1A78110703D5C9
:100200001A7842F008021A704A4B4B492A221A7097
:100210004A4A4B4B8B4204D252F8040F43F8040B6A
:10022000F8E7484B484900228B4202D243F8042B9E
:10023000FAE74649464A002352F8230041F82300D2
:1002400001336F2BF8D1434B434A802103F8011B44
:100250009342FBD1414B3D4A1A60414B8A221A70AE
:10026000A3F5805324225A70A0221A709A7992071B
:10027000FCD59A79D406FCD43A4A937903F00C035E
:10028000082B384BF9D103221A7140225A719A79FE
:100290009006FCD5334A9179324B4906FBD5324A58
:1002A000324911600221516020221A709A7902F0BD
:1002B0000C020C2AFAD12E4B2E4A1A602E4B2F4AD2
:1002C0001A6000225A60072243F8042C2C4AC3F813
:1002D0000C2D62B609F02EFB144B1B68DA0705D50E
:1002E000284809F009F9284B284A1A60284B1B783E
:1002F0005B0609D5244C254B22689A4204D121483B
:1003000009F0FAF80023236008F0E4FF0DF08AFA00
:100310000BF0B4FDFEE700BF0E2005403080044026
:10032000823F04000100002B10D0034014D0034092
:1003300002D0074000E007404894FF1F70340100DE
:100340002087FF1F4894FF1FE4D5FF1F0082FF1F77
:100350000000000000E400E05FE400E008ED00E0E1
:100360000050064000400640448004400000030165
:1003700004800440C010050014E000E0FF76010096
:1003800000002020D61D21621CE00340A5C3945A22
:1003900000F00740FFFFFFFFFFFFFFFFFFFFFFFF32
:1003A000FFFFFFFFFFFFFFFFFFFFFFFFFFFFFFFF5D
:1003B000FFFFFFFFFFFFFFFFFFFFFFFFFFFFFFFF4D
:1003C000FFFFFFFFFFFFFFFFFFFFFFFFFFFFFFFF3D
:1003D000FFFFFFFFFFFFFFFFFFFFFFFFFFFFFFFF2D
:1003E000FFFFFFFFFFFFFFFFFFFFFFFFFFFFFFFF1D
:1003F000FFFFFFFFFFFFFFFFFFFFFFFFFFFFFFFF0D
:10040000FFFFFFFFFFFFFFFFFFFFFFFFDEF9FFFF23
:1004100010B5054C237833B9044B13B10448AFF33E
:1004200000800123237010BD4894FF1F00000000CE
:100430006C340100084B10B51BB108490848AFF3F4
:1004400000800848036803B910BD074B002BFBD0A0
:10045000BDE81040184700BF000000004C94FF1F8B
:100460006C3401004894FF1F00000000F0B400F15C
:100470002C06174F00243146031F00F15C0243F89D
:10048000044FB34241F8047F4FF0000542F8044F97
:10049000F5D100230F4A1049C0F89050C0F894508D
:1004A000C0F89850C0F89C50C0F8A050C0F8B050A8
:1004B000C0F8A420C0F8AC20C0F8A81080F8B8306C
:1004C00080F8B93080F8D030C0F8DC30F0BC70472C
:1004D0000000A040000048430000C8C210B4031F41
:1004E000002400F12C0143F8044F8B424FF000022E
:1004F000F9D10023C0F89020C0F89420C0F89820CB
:10050000C0F89C20C0F8A020C0F8E03080F8B830D7
:1005100080F8B93080F8D03010BC70472DE9F04138
:100520008046CE1D00F1900400F1A00716F8010FDF
:1005300028380CF085FD094944F8040F05460CF0F5
:100540008FFF38B1B8F9E4000CF07AFD29460CF0C1
:10055000C3FC2060BC42E9D1BDE8F081000020C2AC
:100560002DE9F043814685B0144604292BD8DFE8F5
:1005700001F0798EBB035100637A3F2B09D8207AB2
:1005800000EB03200CF05CFD75490CF061FEC9F82E
:100590001800E37A3F2B09D8A07A00EB03200CF077
:1005A0004FFD6F490CF054FEC9F81C00637B3F2BD4
:1005B00009D8207B00EB03200CF042FD68490CF0C9
:1005C00047FEC9F8200009F15C08464609F12C05F0
:1005D000A9F1040757F8044F55F8040F21460CF011
:1005E0003FFF30B1D9F8B41020460CF02FFF00B116
:1005F0002C6056F8041F20460CF032FF594920B1F8
:1006000020460CF02DFF00B134604545E2D105B025
:10061000BDE8F083637A3F2B09D8207A00EB0320F2
:100620000CF00EFD4E490CF013FEC9F82400E37ADD
:100630003F2B09D8A07A00EB03200CF001FD4849BC
:100640000CF006FEC9F82800637B3F2BBBD8207B4B
:1006500000EB03200CF0F4FC41490CF0F9FDC9F863
:100660002C00B0E7607A227AA37AE17A02EB0022CA
:1006700002EB034303EB0163C9F8DC30637B227BAD
:100680001B0203F470631344C9F8D8309BE7627A05
:1006900003933F2A0CD8207A00EB02200CF0D0FC08
:1006A0002F490CF0D5FD039BC9F80000012B44D065
:1006B000E37A3F2B09D8A07A00EB03200CF0C0FCB2
:1006C00027490CF0C5FDC9F80400637B3F2B3FF6BA
:1006D0007AAF207B00EB03200CF0B2FC20490CF039
:1006E000B7FDC9F808006EE7637A3F2B09D8207A76
:1006F00000EB03200CF0A4FC19490CF0A9FDC9F88B
:100700000C00E37A3F2B09D8A07A00EB03200CF011
:1007100097FC13490CF09CFDC9F81000637B3F2B3C
:100720003FF651AF207B00EB03200CF089FC0C4915
:100730000CF08EFDC9F8140045E70B480BF004FAE5
:10074000D9F800000CF026F8022502460B46009569
:1007500005480BF055FA04480BF0F6F9A8E700BF7E
:1007600000007A440000A040E489FF1F90F8C00018
:10077000704700BF90F8BC00704700BF90F8C400FD
:10078000704700BF90F8C800704700BF0C2994BFA5
:1007900050F82100002070472DE9F0410B4E8046B3
:1007A000041F00F12C0754F8045F314628460CF072
:1007B00039FE30B1D8F8B41028460CF051FE00B123
:1007C0002E46BC42EFD13046BDE8F081000020410A
:1007D0002DE9F041D0F8B4704FF00008041F00F18B
:1007E0002C0654F8045F394628460CF039FE0849B7
:1007F00048B128460CF016FE414620B128460CF0C0
:100800002FFE00B1A846B442EBD14046BDE8F081CE
:100810000000A0402DE9F047D0F8B47082464FF0B8
:100820000009041F00F12C064FF0000854F8045F83
:10083000394628460CF014FE0C4950B128460CF0FD
:10084000F1FD30B1484629460CF046FB08F101089D
:100850008146B442EAD1CAF8D48040460CF0F0FB9D
:10086000014648460CF0F4FCBDE8F0870000A040CB
:10087000D0F8D400704700BFD0F8D800704700BF50
:1008800038B5D0F89850D0F89440294620460CF05E
:10089000C9FD00B92C46204638BD00BF38B5D0F898
:1008A0009850D0F89440294620460CF0D9FD00B964
:1008B0002C46204638BD00BF70B5D0F89440124990
:1008C000054620460CF0CCFDD0B1204600210CF0AE
:1008D00003FB01240646D5F898500B4928460CF036
:1008E000BFFD28B1304629460CF0F6FA0134064621
:1008F00020460CF0A5FB014630460CF0A9FC70BD6B
:1009000000260446E7E700BF000020C22DE9F843B7
:100910000026D0F8B480C0F890608146041F00F132
:100920002C0754F8045F414628460CF099FD09490C
:1009300050B128460CF076FD30B1304629460CF017
:10094000CBFA0646C9F89000BC42EAD13046BDE871
:10095000F88300BF0000A04003299ABF00EB81008C
:10096000D0F89400002070473E2998BF80F8D0103E
:10097000704700BFD0F8DC00704700BF90F8B800A7
:10098000704700BF90F8B900704700BFC0F8CC10A6
:10099000704700BF80F8B810704700BF80F8B910EA
:1009A000704700BFC0F8B410704700BFA0F8E41053
:1009B000704700BF70B500F565550646043500F177
:1009C0002C042046E834FFF751FDAC42F9D106F57E
:1009D0008A75012428460021FFF7DCFF21462846BE
:1009E0000134FFF7C1FF3F2C05F1E805F2D143F6D2
:1009F0004C1400250548064A064B35550021706108
:100A0000B161F2613362304670BD00BF00007A44CC
:100A1000000048430000C8C270B500F565560436B2
:100A200000F58A74002507E0012520460021E834FE
:100A3000FFF7B4FFB4420AD02046FFF79FFF00281B
:100A4000F3D02046FFF79EFF0028EDD170BD284669
:100A500070BD00BF70B500F592560C3600F58A7473
:100A600002E0E834B4420CD02046FFF787FF054689
:100A70000028F6D02046FFF77DFFC307F1D52846B2
:100A800070BD0025284670BD2DE9F04143F6501396
:100A900000F56556374600228046C25004361037AE
:100AA00000F58A7402E0E834B4420DD02046FFF726
:100AB00065FF0028F7D020463D68FFF7D9FEE834EF
:100AC0002844B4423860F1D143F6501358F803007B
:100AD000BDE8F08138B500F58A74012504E00135E0
:100AE0003F2D04F1E80414D02046FFF747FF00280B
:100AF000F5D02046FFF7F2FC20460021FFF74AFF21
:100B0000294620460135FFF72FFF3F2D04F1E80469
:100B1000EAD138BD43F64813C058704738B50C6861
:100B200004F00F04E825013405FB04002C301546C1
:100B30001A46FFF7F3FC012D00D038BD06480BF034
:100B400003F8214604480BF053F80B210348BDE895
:100B500038400AF059BD00BFE489FF1FC0160100EC
:100B60002DE9F0410E68044606F00F0006F0F0068D
:100B7000302E0F46904600F101053CD019DC16B12D
:100B8000202E31D10126072D1BD9E82303FB054474
:100B90002C3420460121FFF7FDFE20460121FFF7FE
:100BA000FDFE43463A4631462046BDE8F041FFF798
:100BB000D7BC402E1DD0502E16D1072D4FF0040665
:100BC000E3D8B8F1010FE0D129460C480BF010F83A
:100BD00041460B480AF018FD314608480BF008F86A
:100BE00006480AF0B1FFD0E7072DCED8042ECCDCA2
:100BF000E7E70326C7E70226C5E700BFE489FF1F32
:100C0000CC1601002DE9F043002383B00646436073
:100C100000F58A74012504E001353F2D04F1E80454
:100C200066D02046FFF7AAFE0028F5D04E4806F011
:100C300071FF29464D4806F06DFF2046FFF766FE1E
:100C40000BF0A8FD02460B46494806F063FF20461C
:100C5000FFF7A2FD80462046FFF7BAFD0746404653
:100C60000BF098FD8046384689460BF093FD4246CE
:100C70004B46CDE900013F4806F04CFF00212046DD
:100C8000FFF76AFE012180462046FFF765FE074612
:100C900040460BF07FFD8046384689460BF07AFDD2
:100CA00042464B46CDE90001334806F033FF20466B
:100CB000FFF72CFE014670680CF00EF970602046BC
:100CC000FFF7DEFDF1690CF0ADFB002833D12046C3
:100CD000FFF7E4FD316A0CF0C3FB00289CD02046EE
:100CE000FFF7DCFD01353F2D306204F1E80498D1B7
:100CF000B0680CF0A5F9014670680CF0A9FAB1696A
:100D0000706004460CF0ACFB00B1B4617169204620
:100D10000CF088FB00B174610B2008F087FD43F6EE
:100D20004C13F35C60B99BB143F64C130122F254AF
:100D300003B0BDE8F0832046FFF7A2FDF061C6E7EF
:100D400053B943F64C130022F25403B0BDE8F083CC
:100D50000A4806F00DFFE7E7094806F0F3FE43F600
:100D60004C130022F254F0E7981F0100D016010046
:100D70000C170100201701004C1701006817010033
:100D8000A017010070B5114BC36000F5655506460C
:100D9000043500F58A7402E0E834AC4213D02046F2
:100DA000FFF7ECFD0028F7D02046FFF7F5FCF168CF
:100DB0000CF038FB0028EFD02046FFF7EDFCE834BC
:100DC000AC42F060EBD1F06870BD00BF0000A04005
:100DD00070B5002300F5655506460361043500F53E
:100DE0008A7402E0E834AC4213D02046FFF7C6FD17
:100DF0000028F7D02046FFF7EBFC31690CF030FB00
:100E00000028EFD02046FFF7E3FCE834AC42306125
:100E1000EBD1306970BD00BF40687047017070470A
:100E2000816070472DE9F04100F565558846174609
:100E30001EB2043500F58A7402E0E834AC4213D0E7
:100E40002046FFF79BFD0028F7D020464146FFF7DC
:100E50009DFD20463946FFF7A5FD20463146E83482
:100E6000FFF7A4FDAC42EBD1BDE8F0812DE9F843DA
:100E700043F6481300F565550027C7502E462A4A09
:100E80002A4B826280464FF00009436204350836DF
:100E900000F58A7402E0E834A54213D02046FFF73B
:100EA0006DFD0028F7D03368013333602046FFF72B
:100EB00003FD1F490CF0D4FA88B9E834A54207F1C4
:100EC0000107EBD143F6481358F80300C01B0CF0A0
:100ED000B7F8014648460CF0BBF9BDE8F883204658
:100EE000FFF7EAFC014648460BF0F6FF8146204634
:100EF000FFF7D4FCD8F824100CF0B2FA70B92046F1
:100F0000FFF7BEFCD8F828100CF08CFA0028C2D0ED
:100F10002046FFF7B5FCC8F82800BCE72046FFF7DD
:100F2000BDFCC8F82400EAE700C0794400C079C4D9
:100F300000008CC2406A7047806A7047F8B500F5BF
:100F4000655507460026043500F58A7402E0E8344A
:100F5000AC420FD02046FFF711FD0028F7D0204605
:100F6000FFF758FC014630460BF0B6FFE834AC42C0
:100F70000646EFD143F64813F8580CF061F80146E5
:100F800030460CF065F9F8BD2DE9F04F91B00446FC
:100F9000A3480D91154606F065FDA14806F062FDD7
:100FA0009F4806F05FFD43F648132046E658FFF7DA
:100FB0006BFD81466068D4F808B00BF0EBFBCDE91F
:100FC0000E012046FFF7BAFF82462046D4F8108073
:100FD000E768FFF74BFF0BF0DDFBCDE90A0139466F
:100FE00040460BF077FF8F490CF07EF80BF0D2FBF8
:100FF000CDE9080140460BF0CDFBCDE906013846AE
:101000000BF0C8FBCDE9040150460BF0C3FBDDE952
:101010000E23CDE90201CDE9002331465B464A4665
:10102000814806F01FFD7E4806F01CFD04F58A7419
:101030004FF001084FF0000BA94607E008F1010846
:10104000B8F13F0F04F1E80400F0DE802046FFF71E
:1010500095FC0028F2D02046FFF788FB2046FFF7DA
:1010600089FB2046FFF78AFB2046FFF78BFB082110
:101070006E480AF0C9FA41466D480AF0B9FDB8F168
:10108000090F40F3C78002216A480AF0BDFA2046E2
:10109000FFF73CFC0BF07EFB9DF8345000950246B8
:1010A0000B4663480AF0ACFD012163480AF0ACFA34
:1010B000B9F1000F2DD1DA464E4620E006215F48F7
:1010C0000AF0A2FA51465A480AF092FD02215C4801
:1010D0000AF09AFA31462046FFF758FB0BF05AFB0C
:1010E000009502460B4652480AF08AFD013601215E
:1010F00051480AF089FA0C2E00F08980BA46BAF1FC
:10110000090F0AF10107D9DC01214E480AF07CFAE7
:10111000D4E7B9F1010F2ED1DA4600261FE00621EF
:1011200046480AF071FA514641480AF061FD022131
:1011300043480AF069FA31462046FFF727FB0BF0D7
:1011400029FB009502460B4639480AF059FD013645
:10115000012139480AF058FA082E0AD0BA46BAF1E5
:10116000090F0AF10107DADC012136480AF04CFACE
:10117000D5E70BF1080B2E480AF0E6FC09213248AE
:101180000AF042FA00212046FFF7E6FB0BF002FBD3
:10119000022502460B46009525480AF031FD0A213A
:1011A0002A480AF031FA01212046FFF7D5FB0BF05F
:1011B000F1FA009502460B461D480AF021FD0C216C
:1011C00023480AF021FA2046FFF7D4FB002310221F
:1011D000014617480AF0CCFC08211E480AF014FA10
:1011E0002046FFF749FB00230146102210480AF071
:1011F000BFFC08F101080E480AF0A6FCB8F13F0F49
:1012000004F1E8047FF422AF11B0BDE8F08F0BF1D8
:101210000C0BB0E701210B480AF0F6F933E700BFE9
:10122000981F010000007A44501A0100F01A0100D2
:10123000E489FF1F8C1E0100FC1A0100001B010045
:10124000641B0100A81F0100081B0100141B010002
:10125000201B0100301B01002DE9F04F85B000F587
:101260008A758A4603929B462E464FF0010806E097
:1012700008F10108B8F13F0F06F1E8067BD03046CF
:10128000FFF77CFB0028F3D000230A2251467D485B
:101290000AF06EFC01217C480AF0B6F903980BF0C5
:1012A00079FA00230246009376480B460AF0A8FC20
:1012B000012175480AF0A8F9594672480AF098FCCD
:1012C000012171480AF0A0F941466E480AF090FCED
:1012D00001216D480AF098F900244FF002092146D7
:1012E0003046FFF753FA0BF055FACDF8009002465E
:1012F0000B4664480AF084FC0134012162480AF07C
:1013000083F9082C4FF00207E9D100213046FFF79E
:1013100023FB0BF03FFA009702460B4659480AF0B0
:101320006FFC012158480AF06FF901213046FFF7A0
:1013300013FB0BF02FFA009702460B4651480AF0B8
:101340005FFC012150480AF05FF939463046FFF74B
:1013500003FB0BF01FFA009702460B4649480AF0C0
:101360004FFC08F1010847480AF0EEFBB8F13F0FC7
:1013700006F1E80683D101274FF0000904E00137A8
:101380003F2F05F1E80579D02846FFF7F7FA002846
:10139000F5D000230A2251463C480AF0E9FB01211E
:1013A000394808F09BFD03980BF0F4F9CDF8009054
:1013B00002460B4635480AF023FC0121324808F06A
:1013C0008DFD594631480AF013FC01212E4808F0E2
:1013D00085FD39462D480AF00BFC01212A4808F00A
:1013E0007DFD00244FF0020821462846FFF7CEF984
:1013F0000BF0D0F9CDF8008002460B4623480AF0E6
:10140000FFFB01340121204808F068FD082C4FF053
:101410000206E9D100212846FFF79EFA0BF0BAF93F
:10142000009602460B4619480AF0EAFB01211648CD
:1014300008F054FD01212846FFF78EFA0BF0AAF9B7
:10144000009602460B4611480AF0DAFB01210E48CD
:1014500008F044FD31462846FFF77EFA0BF09AF972
:10146000009602460B4609480AF0CAFB01370748B6
:101470000AF06AFB3F2F05F1E80585D105B0BDE80C
:10148000F08F00BFE489FF1FCC160100B889FF1F51
:1014900010B5132008F0CAF9012815D008F0DAF9C0
:1014A0000F4B104A1B6812880F49C01A642303FBB4
:1014B00000F092B2B0FBF2F000EB8000C0EB001045
:1014C000C00080B2088010BD054C08F0C3F9236845
:1014D000044AC01A80B2108008F0BCF9206010BD28
:1014E00084D1FF1F10D1FF1F94D1FF1F0A4A0B495F
:1014F000106ED36D03FB00F34FF47A7000FB03F022
:10150000642310B50B600BF09BFD0549054C0BF0F7
:101510009FFE206010BD00BF30D0FF1F1088FF1F4E
:10152000E4388E3E70D1FF1F10B4019C521AA4EB18
:10153000030412D0401A002C04FB00F002EBD2711D
:1015400011DB00EB610101FB02F0002891FBF2F1DD
:101550000B4414DB184610BC704704EBD47003EB4B
:10156000600010BC7047A0EB610000FB02F1002995
:1015700090FBF2F01844EEDB013010BC7047581EAF
:1015800010BC704710B5074C20460AF0DDFA064B38
:10159000204619680AF02CFB03210448BDE81040DE
:1015A0000AF032B8E489FF1F0495FF1F3C1B0100BD
:1015B00038B5044608460D460CF022FF2368024663
:1015C00029465B6820469847054620460AF0BCFA43
:1015D000284438BD2DE9F8434848494E494F4A4C04
:1015E00006F040FA494B4A494A4A4B48596011258E
:1015F0001D704A4D4A49DA601E6100224FF4FA76A6
:101600009F619C62474F484C1D63484DD861D96229
:101610004FF07C5046499A639E863C220C26DF633D
:101620001C64444F444C5D65444DD86419650220E8
:101630000121A3F8A8209E65002264265F62C3F8FA
:10164000C8404FF4967732241D625D615D6440F6B8
:101650001C45587058721972D96583F848201E6667
:10166000DF665F669C664FF00A091D6741F2040859
:10167000C3F88020C3F88400C3F8D410C3F88820CE
:10168000C3F89040C3F8B0404FF05A0CC3F8AC20F8
:10169000C3F8B810C3F8BC004FF47A7EC3F8C0603A
:1016A000274F83F8CC1083F8CD10264E83F8CE2038
:1016B00041F28831A3F8D02044F6206540F2D6628A
:1016C000FF240520C3F87490C3F87880C3F87CC069
:1016D000C3F894E0C3F89870C3F89C60C3F8A450B2
:1016E000C3F8B440A3F8C600C3F88C10A3F8C41024
:1016F000A3F8A020A3F8A220BDE8F883401B0100B6
:101700000000404033338340CDCCCC3D30D0FF1F70
:1017100020A1070066668640CDCC4C40000020C169
:1017200000008242000020420000A0400AD7233D72
:101730009A997940333373409A99993ECDCC4C3E77
:101740000000684200C0204470B5464C464D4748F2
:10175000E66800232B70FFF73BFB014630460BF099
:1017600061FE08B104232B704048FFF70BFB216991
:101770000BF058FE18B12B7843F010032B703B4848
:10178000FFF7D8FBE16A0BF06BFE18B12B7843F042
:1017900040032B70002335486B70FFF7CDFB216BA6
:1017A000314E0BF03FFE08B10123737000232F4828
:1017B000EB70FFF70DFB05462C482B4EFFF7E2FAC6
:1017C000014628460BF086FB616C0BF049FE08B120
:1017D0000123F370264D254800232B70FFF7F8FAFC
:1017E000A16A0646E0680BF075FB014630460BF037
:1017F00037FE08B104232B701C48FFF7C3FAA16A17
:10180000064620690BF068FB014630460BF00AFEE5
:1018100018B12B7843F010032B701448FFF78AFBA4
:10182000216C0646E06A0BF055FB014630460BF092
:1018300017FE18B12B7843F040032B7000230B48A0
:101840006B70FFF779FB216C0546206B084C0BF0A1
:1018500043FB014628460BF0E5FD08B10123637008
:1018600070BD00BF30D0FF1F14D0FF1F1496FF1FA4
:101870006894FF1F544B1B68002B74D0F0B5534D78
:101880002B680533B3F57A7F83B040F3858000235E
:1018900000272B604E4CD4F8B0000BF0D1FB06466D
:1018A000D4F8B4000BF0CCFB31460BF013FB3946F7
:1018B0000BF01AFC47490BF0CBFC31460BF00CFB4C
:1018C0000BF0D8FD0146062007F02AFE022142480F
:1018D00009F09AFE41480AF037F90621404809F01C
:1018E00093FE28680BF0ACFB3E490BF0FDFB0AF0C1
:1018F00051FF022602460B46009638480AF080F94E
:101900000D21394809F080FED4F8B0000BF098FBA7
:10191000074628680BF094FB32490BF0E5FB0546BF
:10192000D4F8B4000BF08CFB39460BF0D3FA014627
:1019300028460BF0D9FB27490BF08AFC39460BF0FF
:10194000CBFA0AF027FF009602460B4623480AF01E
:1019500057F93146204809F057FE204803B0BDE84A
:10196000F0400AF0F1B81A4B2048D3F8B020D3F871
:10197000B4100368891A002903FB01F31C4914DB26
:10198000323381FB0310D917C1EB6011002B1144D6
:1019900016DB062007F0C4BD18462B600BF050FB89
:1019A00010490BF0A1FB074674E7323B81FB0310A3
:1019B000D917C1EB6011002B0A4403DB511CE8E787
:1019C0000139E6E71146E4E79094FF1F08D1FF1FB5
:1019D00030D0FF1F0000C8428C1E0100E489FF1FA9
:1019E000601B0100CDCCCC3D681B01001088FF1F9F
:1019F0001F85EB5170B5B648B64C84B00AF0A4F818
:101A0000B3480AF0A1F8B2480AF09EF80D21B24896
:101A100009F0FAFDD4F8AC30012B11D0AF4DAC4831
:101A2000297800230A220AF0A3F82B78052B6ED818
:101A3000DFE813F0920197019C01A101A601AB011F
:101A40000921A74809F0E0FDA648FFF79BF92169A5
:101A50000BF0E8FC18B10F21A34809F0D5FDA1480F
:101A6000FFF7B6F9E1680BF0FBFC18B10E219F48B7
:101A700009F0CAFD9B48FFF7ABF905469948FFF707
:101A800081F9014628460BF025FA616C0BF0E8FC61
:101A900018B11121964809F0B7FD9248FFF7E6F911
:101AA000E16A0BF0DDFC18B10C21924809F0ACFDA5
:101AB0008C48FFF7DBF9216B0BF0B4FC18B10D215A
:101AC0008D4809F0A1FD8D4B86481B68012B00F065
:101AD0009F81FFF757F921697E4D0BF0C1FC00286B
:101AE00000F038817F48FFF773F9E9687B4D0BF010
:101AF00099FC60B12B78052B00F0A081804809216A
:101B000009F082FD7F4B724819680AF071F80221D2
:101B10007D4809F079FD122007F088FE012800F0C9
:101B20003981112007F082FE012800F03D81774BBA
:101B30001C68012C00F0418102217348744C09F0AB
:101B400063FD744B624819680AF052F8604809F066
:101B5000FBFF0421704809F057FD0B2007F066FEDB
:101B6000002301460A225A480AF002F80C2007F026
:101B70005DFE002301460A22554809F0F9FF1420B2
:101B800007F054FE002301460A22514809F0F0FFF5
:101B9000152007F04BFE0A22002301464C4809F0AD
:101BA000E7FF06215D4809F02FFD2368DE074FF0AF
:101BB00001014CBF5A485B4809F026FD236898078D
:101BC0004FF001014CBF5648564809F01DFD2368EF
:101BD0005A074FF001014CBF5148524809F014FD1B
:101BE00023681B074CBF4E484E48012109F00CFDED
:101BF00004214D4809F008FD112007F017FE0023CD
:101C000001460A22324809F0B3FF102007F00EFE09
:101C1000002301460A222E4809F0AAFF122007F0ED
:101C200005FE002301460A22294809F0A1FF1320DE
:101C300007F0FCFD0A2200230146254809F098FF21
:101C400018213A4809F0E0FC394B18680BF0F8F914
:101C500038490BF049FA0AF09DFD002402460B4674
:101C600000941B4809F0CCFF1D21334809F0CCFC3F
:101C7000324B18680BF0E4F92E490BF035FA0AF0F4
:101C800089FD00940B460246114809F0B9FF022174
:101C90002B4809F0B9FC2B78032B02D0294B1B7879
:101CA000A3B11421284809F0AFFC284B188880B252
:101CB0000BF0C6F926490BF017FA0AF06BFD002469
:101CC00002460B460094024809F09AFF04B070BD2A
:101CD000E489FF1F30D0FF1F781B010020D0FF1FB9
:101CE000881B01001496FF1F941B0100A41B010018
:101CF000B41B0100C81B0100D81B0100A094FF1FEA
:101D0000181C01009894FF1F8C1E010028D1FF1F92
:101D100098D1FF1F6C94FF1F901C0100981C0100BC
:101D2000A01C01000C2E0100A41C0100AC1C010031
:101D30008C94FF1FCDCCCC3DC81C01008CD1FF1F63
:101D4000E81C010080CFFF1FEC1C010094D1FF1F95
:101D50006F12833A3B4DDAE606213B4809F054FC0A
:101D6000D5E60721394809F04FFCD0E6072138486D
:101D700009F04AFCCBE60821364809F045FCC6E6E6
:101D80000B21354809F040FCC1E60721334809F032
:101D90003BFCBCE60E21324809F036FC112007F06E
:101DA00045FD01287FF4C3AE0A212E4809F02CFC22
:101DB0002D4B1C68012C7FF4BFAE11212B4809F07C
:101DC00023FC21462A4809F01FFC2A4B2A4A1B689B
:101DD0000393039B1068C01A0BF02EF927490BF0F0
:101DE00083F90AF0D7FC002602460B4600962448E9
:101DF00009F006FF21461E4809F006FC214B204849
:101E0000196809F0F5FE2146194809F0FDFB93E633
:101E1000FEF7B8FF616A0BF023FB48B116211A48A0
:101E2000084D09F0F1FB0A21184809F0EDFB6EE6B8
:101E300008211748034D09F0E7FB68E60A2113481B
:101E40005EE600BF20D0FF1F241C01002C1C0100F7
:101E5000401C0100481C0100341C0100541C0100FE
:101E60005C1C01006C1C010028D1FF1F781C0100C4
:101E70008C1C01006CD3FF1F64D1FF1F6F12833ACB
:101E8000E489FF1F0895FF1FE81B0100001C0100EB
:101E90000C1C01002DE9F04F954CD4F88430012B37
:101EA0008DB000F04981032B924F53D0924E934D49
:101EB000D4F880309248012B09BF2968296801F1C4
:101EC0000041296006F05AFF3368002B40F0C780BC
:101ED0008B4806F029FFD4F884303860012B064681
:101EE000834A00F0C98087490BF0BAFA78B986496D
:101EF00030460BF097FA50B9844A854B12680B9222
:101F00000B9A1A6000232B600DB0BDE8F08FDFF84C
:101F1000FC817F4CD8F800300A930A9823687D4FE3
:101F2000C01A0BF089F831460BF0DEF87A490BF055
:101F30008FF979490BF08CF939680AF0CDFFD8F8A0
:101F400000300993099B2360002338602B600DB09B
:101F5000BDE8F08FDFF8D881704DD8F80000664EEC
:101F6000012300220F212B6006F092FB2B68012B2E
:101F7000336800F00781002B40F08B81D8F80030E7
:101F8000DFF8B091D3F88400436B19698DB2C9F8BA
:101F9000005006F003FCB4F8A22040F6E44303FB33
:101FA00005F1B1FBF0F0801A00B20BF049F85C4982
:101FB000524D8246D4F898000BF096F801465046F0
:101FC0000BF046F9D9F800302860632BDFF864A1E4
:101FD00000F3528100232B603368002B3FF468AF7D
:101FE0000221504809F010FBD8F80030D9F8002041
:101FF000D3F8840040F6E44303FB02F806F0CEFB7E
:10200000B8FBF0F00BF018F88046B4F8A2000BF023
:1020100017F8014640460AF05DFF0AF0BBFB4FF09F
:10202000020802460B46CDF800803F4809F0E8FD63
:1020300041463C4809F0E8FA28680AF0ABFBCDF8C5
:10204000008002460B46384809F0DAFD4146374821
:1020500009F0DAFA4146334809F0D6FA28E7284869
:1020600006F062FE0AF096FB022602460B46009638
:102070002D4809F0C5FD2BE7284B1B68012B00F00C
:102080004181022B7FF43EAFD2F8A44020460AF0F3
:10209000D7FF014630460BF0E3F948B960420AF039
:1020A000CFFF014630460BF0BDF9002800F0598102
:1020B000DFF85880164CD8F800300793079823684B
:1020C000144FC01A0AF0B8FF31460BF00DF8124950
:1020D0000BF0BEF810490BF0BBF839680AF0FCFEB3
:1020E000D8F800300693069B386023600AE700BFEB
:1020F00030D0FF1F18D0FF1F58D1FF1F88D1FF1FFE
:1021000034D1FF1F0000FA430000FAC36CD3FF1F55
:1021100010D0FF1F70D1FF1F00007A443088FF1FCE
:1021200017B7D1388C1E0100E489FF1F401D010044
:10213000A8D1FF1FB0D1FF1FAC4FD4F8A4603D68F9
:1021400030460AF07DFF29460BF08AF948B170420B
:102150000AF076FF014628460BF082F900287FF44A
:10216000F9AEDFF8C882A24DD8F80000A14E0223D4
:1021700000220E212B6006F08BFA2B68012B3368AE
:102180007FF4F9AE002B40F0F380D8F80030DFF890
:10219000AC92D3F88400436B19691FFA81FBC9F82C
:1021A00000B006F0FBFAB4F8A030934D40F6E44AD4
:1021B0000AFB0BFBBBFBF0F0C01A00B20AF040FFB9
:1021C0008E498346D4F89C000AF08EFF014658469B
:1021D0000BF03EF8D8F80020D9F800302860D2F88B
:1021E00084000AFB03FA06F0D9FAB4F8A030BAFB6F
:1021F000F0F00FFA80FAC3EB0A03002BB4F8C62004
:10220000B8BF5B429342BCBF00232B603368002BF6
:102210003FF44EAE02217A4809F0F6F9D8F80030C2
:10222000D9F80020D3F8840040F6E44303FB02F819
:1022300006F0B4FAB4F8A010B8FBF0F000B2411AFE
:10224000704809F0D5FC02216D4809F0DDF92868D5
:102250000AF0A0FA4FF0020802460B46CDF80080C3
:10226000684809F0CDFC0321674809F0CDF94146E3
:10227000634809F0C9F91BE6D8F80030D3F88400A8
:1022800006F08CFADAF8003064389842FFF4A2AE17
:10229000A2E65C48DFF8A491DFF890A109F054FCB5
:1022A0000C215A4809F0B0F90C21594809F0ACF951
:1022B000D8F800203368D2F88400426B11698DB2DF
:1022C000C9F80050002B3FF464AE06F067FA40F600
:1022D000E44100230A2201FB05F1B1FBF0F149487A
:1022E00009F046FC0221464809F08EF9B4F8A21024
:1022F000444809F07DFCDAF80030D9F80050D3F8F2
:10230000840046E643490BF0ABF858B942493046E1
:102310000BF088F830B9414A414B12680592059A92
:102320001A60EFE5DFF8F4803D4CD8F800300493F4
:10233000049823683B4FC01A0AF07EFE31460AF02B
:10234000D3FE39490AF084FF37490AF081FF396822
:102350000AF0C2FDD8F800300393039B3860236075
:10236000D0E52E4A2E4B12680892089A1A60C9E5E9
:102370002448DFF8C8902D4D09F0E6FBD4F88430EE
:10238000012B4FF00B010CBF29482A4809F03CF9FA
:102390000C211F4809F038F9D8F800203368D2F82A
:1023A0008400426B11691FFA81FBC9F800B0002B51
:1023B0003FF4F7AE06F0F2F940F6E44100230A22BA
:1023C00001FB0BF1B1FBF0F10E4809F0D1FB01214B
:1023D000194809F019F9B4F8A0100A4809F008FCE6
:1023E0002B68D9F800B0D3F88400DAE618D0FF1FC4
:1023F0003088FF1F58D1FF1F88D1FF1F17B7D13872
:102400008C1E0100E489FF1F2C1D0100301D0100FE
:102410001C1D01000000FA430000FAC36CD3FF1F2B
:1024200010D0FF1F70D1FF1F00007A44A8D1FF1FFA
:10243000041D0100101D0100A81F0100B0D1FF1FE5
:102440002DE9F04F914C236885B0002B7BD0904D47
:10245000DFF848828F4FDFF88892D5F888308C4EAD
:10246000012B00F08B80346ED7F800A0F66D04FBD2
:1024700006F44FF47A7000FB04F00AF0E1FD86499F
:10248000864E044650460AF02FFE21460AF0E0FE32
:1024900083490AF029FE0AF0EDFF6328C8F800001E
:1024A0004CDD20467C490AF0D3FE6423386033605B
:1024B000D9F80030002B3ED0D5F88430744C012B75
:1024C00000F08280032B00F0D580022B00F0D98031
:1024D0000221744809F098F8734B18680AF05AF909
:1024E000022402460B460094704809F089FB2146FD
:1024F0006F4809F089F821466A4809F085F8D8F84C
:1025000000106A4809F074FB06216A4809F07CF85B
:10251000386861490AF0E8FD0AF03CF90094024687
:102520000B46624809F06CFB0321634809F06CF824
:102530005E4809F009FB05B0BDE8F08F0028BCBF7C
:1025400000233360B4E75D4E514D33680293029A25
:1025500042F228339A4244D833680393039A42F2F2
:1025600010739A4246D8D5F88830DFF83081494F49
:10257000DFF86C91464E012B7FF475AF5048FEF7A3
:10258000DDFC5049D6F878A0346FD6F874B00AF064
:10259000ABFD0AF095FFF36F0093524621465B4670
:1025A00080B2FEF7C1FF346EF66D04FB00F006FB4F
:1025B00000F000EB800040000AF042FD36490AF0CE
:1025C00047FE8246386052E73F4B1B68012B4FF0B5
:1025D0000A010CBF3D483E4809F016F8D4F8843093
:1025E00070E73748B5F9D030EA6C95F84810FEF737
:1025F00019FCB1E73248DFF8A480FEF79FFC3149AF
:10260000D5F87490AF6F2E6F0AF06EFD0AF058FF88
:10261000EB6F00933A464B46314680B2FEF784FF9B
:102620002A6EEB6DC8F8000002FB00F003FB00F01F
:1026300000EB800040000AF003FDDFF8A49016498B
:10264000144F0AF005FED9F80030386001222260EC
:10265000002B3FF402AF0221124808F0D5FF1348C7
:1026600009F072FA59211B4808F0CEFF0F4809F013
:102670006BFAF2E61021184808F0C6FFD5F884304E
:1026800023E70721154808F0BFFF21E71CD1FF1FF2
:1026900030D0FF1F70D1FF1FE4388E3E1088FF1F1F
:1026A0000000C8428C1E010018D0FF1FE489FF1FE4
:1026B000401D0100D41D0100DC1D01006CD3FF1F73
:1026C0001496FF1F00007A443088FF1FA01D0100F0
:1026D000AC1D0100441D0100B81D0100CC1D01000E
:1026E0000088FF1F30B5112083B007F09FF8012844
:1026F00018D0122007F09AF8012813D000210B20DF
:1027000007F08EF800210C2007F08AF80021152030
:1027100007F086F82649274B0120002208701A602E
:1027200003B030BD0121152007F07AF8224A234C6E
:10273000234B1268D4F88C1001921B68019A1D4D2E
:102740000B4493424FF00201296005D901210C206E
:1027500007F066F803B030BDD4F894000AF070FCBE
:10276000184B19680AF05EFE0028EFD101210B20FA
:1027700007F056F894F8CC3003242C6043B10C4B8E
:1027800002221A7000210C2007F04AF803B030BD75
:10279000122007F04BF8012808BF054B4FF011003D
:1027A00008BF1C7007F042F80128EBD1E7E700BF33
:1027B00020D0FF1F1095FF1F6CD3FF1F30D0FF1FCD
:1027C0007CCFFF1F18D0FF1FF0B5684E684D3468EE
:1027D0002B689C4287B039D014F0010155D014F019
:1027E000020149D014F004013DD0E3070ED52B6857
:1027F000DF070BD45F4F3A68002A00F082805E4BFF
:102800001B680193019B93426DD83468A0070DD5D6
:102810002B6899070AD4594F3A68002A4CD0564B76
:102820001B680393039B934238D8346862070DD525
:102830002B685B070BD4524F3A68002A7ED04E4B70
:102840001B680593059B934268D834680CB107B0A8
:10285000F0BD2146162006F063FE2146172006F043
:102860005FFE07B0F0BD052006F05AFE2B68346805
:1028700003F0FB032B60B8E7172006F051FE2B682E
:10288000346803F0FD032B60ACE7162006F048FE29
:102890002B68346803F0FE032B60A0E7394B172048
:1028A000D3F8901006F03CFE2B68346843F0020326
:1028B00000222B603A60B9E7334809F045F90C2152
:1028C000324808F0A1FE304809F03EF9FF211720F8
:1028D00006F026FE284B2E4A1968029102991268CA
:1028E0000A443A609CE7274B1620D3F8901006F074
:1028F00017FE2B68346843F0010300222B603A6016
:1029000084E7FF21162006F00BFE1B4B204A1968B6
:102910000091009912680A443A6071E7194B05204A
:10292000D3F8901006F0FCFD2B68346843F00403E4
:1029300000222B603A60002C89D18AE7124809F006
:1029400003F90C21134808F05FFE0F4809F0FCF86A
:10295000FF21052006F0E4FD074B0D4A196804919C
:10296000049912680A443A606AE700BF1095FF1F95
:1029700098D1FF1F0CD1FF1F6CD3FF1F20D1FF1F69
:1029800024D1FF1F30D0FF1FE489FF1FE01D01008D
:102990001888FF1FF01D01002DE9F047534EDFF8A6
:1029A00070813368DFF86C91D3F88400504D0F21AB
:1029B00006F072F90023012222214E48C8F80030A7
:1029C000C9F8002008F020FED8F80030132B20DCD6
:1029D00040F6E4473368B5F8A0A0D3F88400436B11
:1029E0001C6905F0DBFEA4B2012107FB04F4B4FB73
:1029F000F0F441485444A5F8A04008F005FE6420D6
:102A000006F04AFFD8F800300133132BC8F8003025
:102A1000E0DDB5F8A030394A3948A2FB03129B1A11
:102A200002EB5303C3F30F131946A5F8A03009F0C6
:102A3000DFF81D21334808F0E7FD0221324808F095
:102A4000E3FD2F4809F080F800231A460E21306874
:102A5000C8F8003005F01CFE022322212548C9F8E1
:102A6000003008F0D1FDD8F80030132B20DC40F600
:102A7000E4473368B5F8A290D3F88400436B1C692F
:102A800005F08CFEA4B2012107FB04F4B4FBF0F4C2
:102A900019484C44A5F8A24008F0B6FD642006F0A1
:102AA000FBFED8F800300133132BC8F80030E0DD0E
:102AB000B5F8A230114A1248A2FB03129B1A02EB8E
:102AC0005303C3F30F131946A5F8A23009F090F889
:102AD0001D210E4808F098FD02210B4808F094FDD6
:102AE0000748BDE8F04709F02FB800BFA8D1FF1F85
:102AF00030D0FF1F001E0100441E010087611886B0
:102B0000E489FF1F241E01008C1E0100481E0100E5
:102B10007494FF1F3088FF1F2DE9F04FC54DD5F885
:102B2000BC309A1F012A85B040F2AF81C24BC34C22
:102B30001B68A86D40F2513108222160E271002B20
:102B400000F09E810AF07CFA696A06460AF0CCFA27
:102B5000BB49B84F0AF0C8FA0AF0B2FC80B20312BF
:102B60006372B84AB84B12681B68E9692072A37295
:102B700030461B121612E372227366730AF0B4FA1F
:102B8000AF49AE4E0AF0B0FA0AF09AFC83B21A12BC
:102B90003146AE48A373E27305F0D2FBAC4AAD4BAD
:102BA00012681988A172D3B2237203EB83035B000E
:102BB000237302EB820343F3D7134FEA212E121241
:102BC0004FF008084FF00009314663739F4884F8BE
:102BD0000BE040F255336272236084F8078084F87A
:102BE0000E9084F80F9005F0ABFB40F256339A48F4
:102BF000236084F80780FEF70FF998490AF074FA09
:102C00000AF05EFC20729448FEF706F993490AF038
:102C10006BFA0AF055FC924A9049C0F307231068FA
:102C200063720AF015FB0AF025FC40FA08F3A07263
:102C30008948E372FEF71AF981490AF055FA0AF059
:102C400019FC20738448FEF711F97D490AF04CFA0B
:102C50000AF010FC40F30720314660737B4884F88B
:102C60000E9084F80F9005F06BFB022006F014FE26
:102C70007C4A7D4B11782172517890786172D178BD
:102C8000A0721A789878E172597822736173DA78B1
:102C9000A07340F25A3331466C48E273236084F8E3
:102CA000078005F04DFB714B68481A7822725A78FC
:102CB00062729A78A272DA78E2721A7922735A7979
:102CC00062739A79DB79E373314640F25E33A27323
:102CD000236084F8078005F033FB022006F0DCFD5A
:102CE000634B5A481A7822725A7862729A78A272A2
:102CF000DA78E2721A7922735A7962739A79DB79F7
:102D0000E37331464FF45C73236084F80780A27349
:102D100005F016FB574B1B68012B00F0898202203F
:102D200006F0BAFD082640F273334B482360E67183
:102D3000FEF728F850490AF0D7F90AF0C1FB2072D3
:102D40004548FEF71FF84C490AF0CEF90AF0B8FBE7
:102D5000C0F3072340486372FEF73AF846490AF089
:102D6000C3F90AF0ADFBA0723B48FEF731F84249C7
:102D70000AF0BAF90AF0A4FBC0F307233648E3725D
:102D8000FEF7DAF83D490AF0A7F80AF099FB20733C
:102D90003148FEF7D1F839490AF09EF80AF090FB65
:102DA000C0F307232C486373FEF7C4F833490AF0D5
:102DB00093F80AF085FBA0732748FEF7BBF82F496C
:102DC0000AF08AF80AF07CFB1C49C0F307231F486D
:102DD000E37305F0B5FA022006F05EFDE96D2B6E97
:102DE000022211FB03F3104640F27931C3F30725A9
:102DF000E27121602372657206F04EFD40F272337B
:102E000015482360E671FDF785FE20721248FDF734
:102E100081FE002340FA06F208490C486272A37250
:102E2000E37223736373A373E37305B0BDE8F04FDC
:102E300005F086BA30D0FF1FA094FF1F7894FF1FC3
:102E4000000020418CD1FF1F8C94FF1FC4D1FF1FB5
:102E50001088FF1F1688FF1F1496FF1F0000C8422E
:102E600018D0FF1F14D0FF1F6894FF1F4088FF1F5A
:102E70004888FF1F28D1FF1F00007A4433938843FE
:102E80000AF0DEF8A969064660E6072BD54C00F08B
:102E90001182D54B0093DFF880A3D44BDFF87C83FD
:102EA000DFF87C93D24F0193DFF838B3D148592330
:102EB0004FF4C36E002642225946C4F800E0A372C4
:102EC0004FF0080E02934FF0440384F807E062725B
:102ED0000392E372267226736673A673E67305F097
:102EE0002FFA022006F0D8FC4FF00803E371029B92
:102EF000039AA3724FF4BB6E4FF044035946BD488A
:102F00006272E372C4F800E0267226736673A673D9
:102F1000E67305F015FA022006F0BEFCEA6D296E94
:102F2000A86DA6724FF00803E37102FB01F311FBD9
:102F300002F103EBC30203EB820300FB03F301EB9B
:102F4000C10201EB82011B1211FB00F24FF4AB6EC8
:102F500003202373122359466273C4F800E007224A
:102F60004FF0050E207263720293A24884F80EE0BF
:102F70004FF00403E372E27305F0E2F9022006F079
:102F80008BFC029BA3724FF0080034224F234FF4B6
:102F9000B36E5946E0712672667226736673954861
:102FA000E2724FF00406E373C4F800E0A67305F084
:102FB000C7F9022006F070FC4FF00802DAF8003082
:102FC000E2714FF456722260002B40F06B818A4B05
:102FD000986D0AF035F8884B996906460AF084F82E
:102FE00086490AF081F80AF06BFA80B203128BF876
:102FF0000830E9698BF8090030460AF075F87F4916
:103000000AF072F80AF05CFAD8F80020D9F800301B
:103010007449637380B215121B120612E072754870
:103020002373E273A672A57305F08AF9022006F0F5
:1030300033FC009B3E681D88714B72491868E5722D
:1030400006EB8603642202FB06F203EB83039B007C
:1030500012122E124FF47677082563722272A6722E
:103060002760E5710AF040F80AF02AFA83B243FAC1
:1030700005F70026F9225B495E486373A273277344
:10308000E67305F05DF9022006F006FC4FF48B6054
:103090004FF0120E562278235249206034275548AB
:1030A00084F80AE0A273E373E571267266722673F0
:1030B0006673E77205F044F9022006F0EDFB4FF469
:1030C000A36351482360E571FDF734FF4B490AF0D3
:1030D0000BF80AF0F5F9C0F307234B482372FDF70C
:1030E00029FF46490AF000F80AF0EAF960724648FA
:1030F000FDF722FF414909F0F7FF0AF0E1F9C0F3BB
:1031000007234148A372FDF717FF3C4909F0ECFF84
:103110000AF0D6F9FF233349E0723648237363730C
:10312000A373E37305F00CF9022006F0B5FB4FF42E
:103130009B6335482360E571FDF76EFE2F4909F06A
:10314000D3FF0AF0BDF9C0F307232F482372FDF720
:1031500063FE2A4909F0C8FF0AF0B2F9019B2B4926
:10316000607218680AF074F80AF084F940FA05F2FF
:1031700003462548A272E372FDF778FE1F4909F065
:10318000B3FF0AF077F940F307231F482373FDF7D5
:103190006DFE1A4909F0A8FF0AF06CF903231149E2
:1031A00060731448A373E57305F0CAF8022006F0B3
:1031B00073FB174A174B5178907892F800C092F839
:1031C00003E01F785E78DA78E5719D7861724FF4DC
:1031D000AC73A07284F808C00249064884F80BE07A
:1031E00020E000BF7894FF1F1688FF1F18D0FF1F34
:1031F0001088FF1FC4D1FF1F30D0FF1F00002041E7
:1032000070D1FF1F620B363B1496FF1F0000C842AF
:1032100014D0FF1F6894FF1FA094FF1F8C94FF1F02
:103220008CD1FF1F27736673A573E2732360FCE5DF
:103230009E48FDF7A7FD796D09F04EFE81469B483B
:10324000FDF7C6FD014648460AF0ECF800283FF4B9
:1032500066AD40F2C333954886F807803360FDF7CA
:1032600091FD3F6D39460AF0DDF8002800F0088135
:103270008F49384609F038FF0AF022F980B240FA47
:1032800008F3707233720023012704260322894950
:103290008948A772E67222736373A373E37305F020
:1032A0004FF83CE5854B986D09F0CAFE834B064606
:1032B000596A93E640F25931012650234E2221608B
:1032C00026732146082663737B48DFF810A2A27399
:1032D000002323726372A372E372E373E67105F055
:1032E0002FF8022006F0D8FADAF80030E67140F242
:1032F00051322260A86D002B40F0B38009F0A0FE8F
:10330000A96909F0F1FE6E4909F0EEFE0AF0D8F85D
:1033100080B240FA06F320726372DFF8C481DFF8EE
:10332000C491D8F80030D9F80020664E6149009663
:103330004FEA222E0026A3725F4822731B12E3720B
:1033400084F80DE0604FA673E67304F0F9FF0220E5
:1033500006F0A2FA009A3B68128823721B124FEA09
:10336000222E544963724FF0080B40F255335248F5
:1033700084F80BE0A272236084F807B026736673AA
:10338000A673E67304F0DCFF022006F085FA40F233
:103390005633464884F807B02360FDF73DFD4B4B9C
:1033A0004B49019309F0A0FE0AF08AF820723F48C9
:1033B000FDF732FD464909F097FE0AF081F8019ABF
:1033C0004349C0F307231068637209F041FF0AF014
:1033D00051F840FA0BF203463448E272A372FDF74B
:1033E00045FD374909F080FE0AF044F820732F4864
:1033F000FDF73CFD324909F077FE0AF03BF82D4914
:10340000A67340F307232C486373E67304F098FF18
:10341000022006F041FA4FF0020B4FF45772C0231E
:103420002449254822602372667284F807B004F0AC
:1034300087FF584606F030FA40F25E30254B264AA8
:1034400020601C491C48637284F807B0227204F0A3
:1034500077FFD5F8BC30062B3FF426AD05B0BDE8AC
:10346000F08F09F0EDFD696A09F03EFE144909F09C
:103470003BFE0AF025F880B20312207263724CE71B
:103480000A48FDF77FFC0A4909F02EFE0AF018F8F9
:10349000C0F3072305483372FDF774FC044909F0B3
:1034A00023FE0AF00DF87072EDE600BF1496FF1FC0
:1034B00000007A447894FF1FC4D1FF1F30D0FF1F53
:1034C000000020411688FF1F1088FF1F18D0FF1F23
:1034D0000000C8426C1E0100681E0100A094FF1F7E
:1034E0008C94FF1F8CD1FF1F10B5144C144A236815
:1034F000101D12F8011F904241EA0323F9D1114A2D
:10350000236003F1004313600F4BD3F88430022B88
:103510000CD00E4B1B68012B00D010BD0C4B1B6850
:10352000012BFAD1BDE81040FEF72CB81068094C09
:1035300009F086FD2060FEF7ADFCEAE790D1FF1FA1
:1035400073CFFF1F0495FF1F30D0FF1FA4D1FF1FB3
:103550000088FF1F88D1FF1F70B5224A224C507A85
:10356000937A2168D27A214E214D43EA002342EA20
:1035700003230129184633602B6019D01D4BD3F863
:103580008430A0F50000022B286024D02368012B92
:1035900000D070BD184B1B68012BFAD12968174861
:1035A00008F026FB03211648BDE8704008F02CB84F
:1035B000114B1B68012BE1D1104808F0C5FA00231C
:1035C000102229680D4808F0D3FA03210D4808F0AD
:1035D0001BF82868D2E709F033FD0B4B1860FEF7A3
:1035E00059FCD3E76CCFFF1FA4D1FF1F90D1FF1F61
:1035F0000495FF1F30D0FF1F0088FF1FE489FF1FC5
:103600003C1B01007C1E010088D1FF1F9A4B1B78D8
:10361000052B00F09B802DE9F04F984C984E994D6A
:10362000E26E636E9848326083B02B60FDF784FCD5
:10363000216B09F0F7FE08B100232B609248FDF7DB
:1036400079FCE16A09F00CFF10B1002333602B60B4
:103650008D48FDF7BDFBE16809F002FF08B10023CA
:103660002B608948FDF7B4FBE16809F0F9FE08B169
:1036700000232B608448814FFDF784FB216909F00A
:10368000D1FE002868D0002333602B687D4F002BCB
:103690004DDD7D48DFF8E481FDF74EFCA16B09F0BC
:1036A000C1FE002840F0B480784B77481B68734F08
:1036B000012B00F0ED80FDF78BFB216A8046A069AD
:1036C00009F008FC0146404609F0CAFE00282ED049
:1036D000286809F0B5FC81466B48FDF779FBBC69A9
:1036E000396A8246204609F0F5FBBB6E8046786E4B
:1036F000C01A09F0A5FC41460746504609F0EAFB0E
:103700000146384609F0F0FC41460746204609F0DC
:10371000E1FB0146384609F09BFD002109F0DCFB86
:103720000146484609F0D6FB09F0A4FE286033683C
:10373000534A002BAFBF2B682B6800211160002B70
:1037400001DA00232B6003B0BDE8F08F4C494D4AED
:1037500000230B60136070474B48FDF713FBF969BA
:1037600009F060FE00288ED13368DFF81491002B39
:103770008BDD4548FDF7DEFBF96B09F071FE002893
:1037800040F0CA804048DFF8F480FDF7FBFAD4F837
:10379000C8100746E06909F09FFB0146384609F06A
:1037A00041FE00283FF471AF306809F049FC8246C1
:1037B0003548FDF7E7FA8346D8F86C00D8F81C7056
:1037C00009F03EFC39468146584609F083FB4946DC
:1037D0008346002009F07EFB0146584609F084FC30
:1037E000D8F8C8108346384609F076FB394609F008
:1037F00071FB0146584609F02BFD494609F06CFB68
:103800000146504609F066FB09F034FE30603CE7A3
:10381000386809F015FC83461B48FDF78DFB0190C5
:10382000D8F86400D8F830A009F00AFC019B814662
:103830005146184609F04EFB49460190002009F018
:1038400049FB019B0146184609F04EFC5146019088
:10385000D8F8380009F03EFB019B0146184609F0F4
:10386000F7FC494609F038FB0146584609F032FB9F
:1038700009F000FE386017E720D0FF1F30D0FF1F8F
:103880008CD1FF1F8C94FF1F1496FF1FA094FF1F65
:10389000FDF79EFA216A8046606A09F01BFB01462B
:1038A000404609F0DDFD00283FF441AF286809F0EB
:1038B000C7FB82462F48FDF78BFAD7F82480396A78
:1038C0008346404609F006FB8146B86E09F0B8FB16
:1038D0000446786E09F0B4FB214609F0FBFA49462C
:1038E0000746584609F0F6FA0146384609F0FCFB4F
:1038F00049460746404609F0EDFA0146384609F0C8
:10390000A7FC214609F0E8FA0146504609F0E2FA20
:1039100009F0B0FD28600AE7D9F8000009F090FB33
:1039200082461448FDF706FB0190F86ED7F83C80FC
:1039300009F086FB019B83464146184609F0CAFA06
:103940000146584609F0D0FB41468346F86A09F023
:10395000C1FA0146584609F07BFC002109F0BCFA87
:103960000146504609F0B6FA09F084FDC9F8000096
:1039700008E700BF1496FF1F08B5274808F0E4F8D1
:103980000721264807F040FE112005F04FFF0621D1
:10399000F8B1234807F038FE102005F047FF062154
:1039A00000B3204807F030FE122005F03FFF06214B
:1039B00008B31D4807F028FE132005F037FF062145
:1039C00010BB1A4807F020FE1348BDE8084008F075
:1039D000BBB8174807F018FE102005F027FF062196
:1039E0000028DED1134807F00FFE122005F01EFF5D
:1039F00006210028DDD1104807F006FE132005F04F
:103A000015FF06210028DCD00C4807F0FDFD024818
:103A1000BDE8084008F098B8E489FF1F801E010047
:103A2000881E0100981E0100A81E0100C01E010092
:103A3000901E0100A01E0100B01E0100B81E010072
:103A400010B5254C2368042B27DC01210B2005F041
:103A5000E7FE01210C2005F0E3FE0121142005F012
:103A6000DFFE0121152005F0DBFEFF21162005F009
:103A700057FDFF21172005F053FDFF21052005F01C
:103A80004FFDFF21062005F04BFD236801330A2B73
:103A90002360C4BF0023236010BD00210B2005F06C
:103AA000BFFE00210C2005F0BBFE0021142005F014
:103AB000B7FE0021152005F0B3FE0021162005F009
:103AC0002FFD0021172005F02BFD0021052005F01A
:103AD00027FD0021D6E700BF74D1FF1F30B50921B3
:103AE00083B0B74806F0FAF9222006F085F9B54B05
:103AF000D3F8AC30012BB44B1B7809D0052B10D870
:103B0000DFE813F03F0144014E01530149010B006E
:103B1000002B00F04F81052B03D10721AB4806F0A5
:103B2000DDF9222006F068F9FF2006F065F9FF2094
:103B300006F062F9A64CFF2006F05EF90821A548C0
:103B400006F0CCF92168A44808F052F8FF2006F0EE
:103B500053F9FF2006F050F9FF2006F04DF9092136
:103B60009E4806F0BBF921689B4808F041F8FF2009
:103B700006F042F9FF2006F03FF9FF2006F03CF97D
:103B80000C21974806F0AAF9964B9749186809F056
:103B90005FFB08F0FFFD002402460B4600948E48B0
:103BA00008F02EF8FF2006F027F9FF2006F024F990
:103BB000FF2006F021F909218C4806F08FF98C4886
:103BC000FDF754F908F0E6FD009402460B468248E2
:103BD00008F016F8FF2006F00FF9FF2006F00CF9A8
:103BE000FF2006F009F90C21824806F077F9804899
:103BF000FDF7A2F908F0CEFD009402460B46764888
:103C000007F0FEFFFF2006F0F7F8FF2006F0F4F8BB
:103C1000FF2006F0F1F80D21774806F05FF97448AF
:103C2000FDF788F908F0B6FD009402460B466A4895
:103C300007F0E6FFFF2006F0DFF8FF2006F0DCF8D3
:103C4000FF2006F0D9F809216C4806F047F96848CA
:103C5000FDF7E2F86A4909F047FA08F09BFD009485
:103C600002460B465C4807F0CBFFFF2006F0C4F885
:103C7000FF2006F0C1F8FF2006F0BEF80C216148D5
:103C800006F02CF95A48FDF77DF85F4909F02CFA47
:103C900008F080FD009402460B464F4807F0B0FF45
:103CA000FF2006F0A9F8FF2006F0A6F8FF2006F096
:103CB000A3F80D21554806F011F94D48FDF788F895
:103CC000514909F011FA08F065FD009402460B46CF
:103CD000414807F095FFFF2006F08EF8FF2006F020
:103CE0008BF8FF2006F088F80921494806F0F6F81D
:103CF000484B3948196807F07BFFFF2006F07CF835
:103D0000FF2006F079F8FF2006F076F80E214248F1
:103D100006F0E4F83648FDF75BF805463448FDF751
:103D200031F80146284609F0D5F8374909F0DCF9A1
:103D300008F030FD009402460B46274807F060FF6C
:103D4000FF2006F059F8FF2006F056F8FF2006F095
:103D500053F80C21314806F0C1F8314B1E48196860
:103D6000012918BF214607F043FFFF2006F044F861
:103D7000FF2006F041F8FF2003B0BDE8304006F018
:103D80003BB80621274806F0A9F8CAE607212648CD
:103D900006F0A4F8C5E60B21244806F09FF8C0E61B
:103DA0000721234806F09AF8BBE60821214806F0CF
:103DB00095F8B6E60821204806F090F8B1E600BF75
:103DC000C81E010030D0FF1F20D0FF1F541C01006F
:103DD0001088FF1FE01E0100B889FF1FEC1E0100C4
:103DE000F81E010018D0FF1F0000C842081F010084
:103DF0001496FF1F141F0100241F0100341F01002F
:103E000000002041401F010000007A44501F0100C3
:103E1000601F01002C88FF1F6C1F01007C1F010028
:103E200028D1FF1F241C01002C1C0100341C0100A0
:103E3000401C0100481C0100D41E01002DE9F04186
:103E4000BE4A13889BB282B08BB9BD4DD5F8BC3049
:103E5000BB4E042B65D0032B00F09880012B00F0A3
:103E6000C180022B00F0338102B0BDE8F0811088E0
:103E7000B34D80B209F0E4F8B24909F035F9B24B1C
:103E80000446188809F0DCF80146204609F02CF9B0
:103E9000AE4B0446188809F0D3F80146204609F0D5
:103EA00023F9AB4909F020F909F00AFB80B209F0C7
:103EB000C7F80646A86D09F0C3F8A96909F014F916
:103EC0000146304609F0C4F909F0D4FAA14B1A684A
:103ED0009042B8BF1860A04B1B780446002BB5D0A9
:103EE0009E4807F031FE0C219D4807F08DFB3046BF
:103EF000974909F0F9F808F04DFC00260B460246F8
:103F0000009696488E4E07F07BFE0D21954807F0EF
:103F10007BFB2146914807F06BFED5F8BC30042BA3
:103F200099D1914C914AA379226043F00103082270
:103F3000E271A371B06D09F083F8B16909F0D4F8AA
:103F40008B4909F0D1F809F0BBFA824B894A1B680A
:103F5000126893FBF2F380B200271A124FEA202E68
:103F6000607221468448E372A27284F808E02773E5
:103F70006773A773E77304F0E3F9A279D6F8BC304E
:103F800067F30002032BA2717FF468AF764CA86D33
:103F9000A3720122E823072140F2FF2622726372F6
:103FA0002660E17109F04CF8A96909F09DF87049A3
:103FB00009F09AF809F084FA664B6E4A1B68126899
:103FC00093FBF2F382B21E12171221466A48637302
:103FD000E2722773A67304F0B3F9D5F8BC30012B55
:103FE0007FF43FAF654B604C1B6823600722802342
:103FF0001020E271237205F019FC002840F0D180F6
:104000005F4B1B68DFF84C815A4FA86D564E03EB8F
:1040100083035B001A12A3726272D8F800303A6808
:1040200093FBF2F31A126273A37309F009F8A969FA
:1040300009F05AF8534B196808F04CFF4C4909F045
:1040400053F809F03DFA80B20312314620734A4812
:10405000E37204F075F9022005F01EFC4A4B1B6860
:104060002360072280231020E271237205F0DEFB1B
:10407000002840F09480424B1B68A86D03EB83033B
:104080005B001A127272B37208F0DAFFA96909F0C4
:104090002BF83E4B196808F01DFF354909F024F84C
:1040A00009F00EFA82B216123868D8F8003022737E
:1040B00093FBF0F32C493048A3731A12E672627333
:1040C00004F03EF9D5F8BC30022B7FF4CDAE264C7F
:1040D0002948237240F20E32012321462260E37107
:1040E00004F02EF91B4B1B685B00FF2BC8BFFF239E
:1040F000042140224FF441702060E171227263720A
:10410000A86D08F09DFFA96908F0EEFF204905465B
:1041100009F0A6F900283DD02946284608F0DCFE23
:1041200009F0CEF980B20312E072A3720E49124870
:1041300002B0BDE8F04104F003B900BF94D1FF1F05
:1041400030D0FF1F6F12833A3888FF1F2088FF1F6F
:10415000CDCCCC3D8C94FF1F80CFFF1FE489FF1F87
:104160008C1F01009C1F01007894FF1FF4E50618C6
:10417000000020410C88FF1FC4D1FF1F5088FF1F83
:104180000888FF1F8894FF1F5488FF1F8CCFFF1FD4
:104190000000484301229023A272E372C6E7024B5B
:1041A0006AE7014B2DE700BF2488FF1F70B5036845
:1041B000C57984B0012D8DF805304FEA13230E46E2
:1041C0008DF8043005F1010201A909DD07300D4425
:1041D0000DF1050310F8014F03F8014FAB42F9D17F
:1041E000034B04489B5D03F07FFB04B070BD00BF30
:1041F000302E01001495FF1FF0B40D4B0D489C7933
:104200000822FF27CD26A225DA710022B0216FF304
:1042100000041F729E72DD725A721A735A739A7377
:10422000DA7319609C711946F0BC04F089B800BFBC
:104230007894FF1FC4D1FF1F2DE9F0416F4D2B78FB
:104240000F2B82B000F088806D4B93F8CE206D4E1E
:10425000002A50D13378082B00F0B580DFF8DC81DC
:1042600043F08003684F694C3A682360012A4FF09D
:104270000803E37154D0682210232272637298F805
:10428000003062490022022BA2720AD82B78CA722F
:104290004FEA03130A734A73DBB210D104338B73F2
:1042A0000EE03B68012B04BF08230B732B7818BF6B
:1042B0000A73502000221B01C872DBB26273A37321
:1042C00031785248FFF772FFE073022005F0E4FAFC
:1042D0004E494F4804F034F82A7833784D4801327B
:1042E00001332A703370FCF7B5FB08B1FFF784FF88
:1042F00002B0BDE8F081012A0CD133780C2BADD18E
:10430000DFF8388198F800300022032B327061D931
:104310008023A7E73378DFF8248143F08003A1E707
:104320003D4B1B78002BA6D13A48FCF72BFD3B49AF
:1043300008F0DAFE09F0C4F800F10A0335482372E8
:10434000FCF720FD354908F0CFFE09F0B9F880B23E
:104350000A300012607292E7314E324C336800939B
:10436000009A2168002391422B7023D22E4FDFF850
:10437000A8E03B6827480122134411463B608EF8B1
:104380000020FCF74BFD294B1B68012B27D0284B45
:104390003A681B689A421A4B7FF757AF326801920E
:1043A000B3F8A810019A3C314FF47A7000FB012257
:1043B00022604AE718491C4A0B70164813601946D8
:1043C000FCF72CFD40E7DFF87480327098F800307D
:1043D000032B9DD8013388F80030802342E715482D
:1043E00007F0B2FB1321144807F00EF9114807F04B
:1043F000ABFB104807F0A8FBC9E700BF78D1FF1F4F
:1044000030D0FF1FA0D1FF1F28D1FF1F7894FF1FBE
:10441000C4D1FF1F1496FF1F80D1FF1F00007A44F4
:104420006CD3FF1F64D1FF1F0895FF1F0088FF1F7B
:104430001C88FF1FE489FF1FAC1F01002CD0FF1F49
:104440002DE9F0419A4C9B4D82B007F077F8236834
:104450002860042B00F01283022B4BD0082B00F0B5
:104460009380072B40F04E81332801F01B8600F328
:104470009383312801F00086322840F0138107F041
:1044800099F8002840F33C818B488C4E07F0F2FCF1
:1044900008F0D6FD8A4908F027FE612301227064E6
:1044A00022602B601846A0F152031F2B00F2FA8005
:1044B000DFE813F0C60DF800F800F800F800F80087
:1044C000F800F800F800F800F800F800F800F8002C
:1044D000F800C503430F4C05EA05B604F800F800E0
:1044E000F8003804F800460FF800F800F800F8006B
:1044F000F800CB0DA0F13103422B00F2D380DFE8AE
:1045000013F0720880088E082A083D084C085908E4
:104510009B08D100D100D100D100D100D100D10041
:10452000D100D100D100D100D100D100D100D10003
:10453000D100D100D100D100D100D100D100D100F3
:10454000D100D100D100D100D100D100D100D100E3
:10455000D100D100D100D100D100D100D100D100D3
:10456000D100D100D100A808D100D100D100D100E4
:10457000D100D100D100D100D100D100D100D100B3
:10458000D1004E00D1006808322800F0328340F399
:104590001683342800F04983712840F0838000227C
:1045A000732322602B602368002B7ED1454E424846
:1045B00007F0CAFA0421444807F026F83E4807F0FD
:1045C000C3FA1021414807F01FF83B4807F0BCFA36
:1045D00013213F4807F018F83E4B3748196807F099
:1045E00007FB354807F0B0FA14213B4807F00CF8F8
:1045F000314807F0A9FA1E21384807F005F82E487F
:1046000007F0A2FA1521364806F0FEFF2A4807F007
:104610009BFA1E21334806F0F7FF274807F094FA6B
:104620002021314806F0F0FF234807F08DFA1921C8
:104630002E4806F0E9FF204807F086FA12212C48A0
:1046400006F0E2FF1C4807F07FFA0F21294806F028
:10465000DBFF194807F078FA0D21274806F0D4FF50
:10466000154807F071FA002201233260236002B07E
:10467000BDE8F08106F09EFF002841F3F6840E4865
:104680000E4E07F0F7FB01270346014662221B4846
:10469000F36527602A60FCF7C3FB23682868012BB9
:1046A0003FF401AF73283FF47EAF02B0BDE8F08164
:1046B000ACD1FF1F68CFFF1FE489FF1F30D0FF1F61
:1046C0006F12833A0088FF1FC4230100CC2301002E
:1046D000E02301002C88FF1FF42301000C240100BB
:1046E0002C240100442401006424010088240100DA
:1046F000A4240100B8240100C82401001496FF1F5F
:1047000023682868062B40F08B80A0F13103402BF2
:10471000C8D801A252F823F037540000A554000075
:104720000B550000D1540000F75400006354000002
:1047300087540000A546000011540000A546000063
:10474000A5460000A5460000A5460000A5460000BD
:10475000A5460000A5460000A5460000A5460000AD
:10476000A5460000A5460000A5460000A54600009D
:10477000A5460000A5460000A5460000A54600008D
:10478000A5460000A5460000A5460000A54600007D
:10479000A5460000A5460000A5460000A54600006D
:1047A000A5460000A5460000A5460000A54600005D
:1047B000A5460000A5460000A5460000A54600004D
:1047C000A5460000A5460000A5460000A54600003D
:1047D000A5460000A5460000A5460000A54600002D
:1047E000A5460000A5460000A5460000A54600001D
:1047F000A5460000A5460000A5460000A54600000D
:10480000A5460000A5460000A5460000A5460000FC
:10481000A5460000A54600009F45000023682868C3
:10482000052B40F08D80A0F13103402B3FF63AAFCD
:1048300001A252F823F000BFE9510000DD52000050
:10484000FD5200001D530000475300006353000059
:10485000A5460000A5460000A5460000A5460000AC
:10486000A5460000A5460000A5460000A54600009C
:10487000A5460000A5460000A5460000A54600008C
:10488000A5460000A5460000A5460000A54600007C
:10489000A5460000A5460000A5460000A54600006C
:1048A000A5460000A5460000A5460000A54600005C
:1048B000A5460000A5460000A5460000A54600004C
:1048C000A5460000A5460000A5460000A54600003C
:1048D000A5460000A5460000A5460000A54600002C
:1048E000A5460000A5460000A5460000A54600001C
:1048F000A5460000A5460000A5460000A54600000C
:10490000A5460000A5460000A5460000A5460000FB
:10491000A5460000A5460000A5460000A5460000EB
:10492000A5460000A5460000A5460000A5460000DB
:10493000A5460000A54600007D53000023682868B6
:10494000032B7FF4ACAEA0F13003482B3FF6AAAEA8
:1049500001A252F823F000BF75460000AD5E0000D2
:10496000D55E0000FD5E0000875C0000A95C0000D1
:10497000D15C0000F95C0000175D00003B5D0000A9
:10498000A5460000A5460000A5460000A54600007B
:10499000A5460000A5460000A5460000A54600006B
:1049A000A5460000A5460000A5460000A54600005B
:1049B000A5460000A5460000A5460000A54600004B
:1049C000A5460000A5460000A5460000A54600003B
:1049D000A5460000A5460000A5460000A54600002B
:1049E000A5460000A5460000A5460000A54600001B
:1049F000A5460000A5460000A5460000A54600000B
:104A0000A5460000A5460000A5460000A5460000FA
:104A1000A5460000A5460000A5460000635D000015
:104A2000815D00009F5D0000BD5D0000DB5D00005A
:104A3000F95D00006B5700008F570000A54600008D
:104A4000B55700004F5E0000A5460000A5460000D7
:104A5000A5460000A5460000A54600009F450000B1
:104A60001F5F0000A5460000A5460000A546000007
:104A7000A5460000A54600003F5F0000A0F13003FE
:104A8000422B3FF60FAE01A252F823F0C9560000A8
:104A9000DD560000E1560000E55600000557000015
:104AA0004F570000395700004B5700005F56000079
:104AB00077560000A5460000A5460000A546000068
:104AC000A5460000A5460000A5460000A54600003A
:104AD000A5460000A5460000A5460000A54600002A
:104AE000A5460000A5460000A5460000A54600001A
:104AF000A5460000A5460000A5460000A54600000A
:104B0000A5460000A5460000A5460000A5460000F9
:104B1000A5460000A5460000A5460000A5460000E9
:104B2000A5460000A5460000A5460000A5460000D9
:104B3000A5460000A5460000A5460000A5460000C9
:104B4000A5460000A5460000A5460000A5460000B9
:104B5000A5460000A5560000A5460000A546000099
:104B6000A5460000A5460000A5460000A546000099
:104B7000A5460000A5460000A5460000A546000089
:104B8000A5460000A5460000A5460000A546000079
:104B90009F450000BF56000034287FF4FDAC06F0AE
:104BA00009FD00287FF7ACAD8A488B4E07F062F90B
:104BB00061230122B08622602B60184673E43128FD
:104BC0007FF470AD06F0F6FC002840F3BF84814806
:104BD000814E07F04FF9C0B286F8480002288ABF1C
:104BE0000021014686F84810B6F9D030F26C7B48B7
:104BF00014E006F0DFFC00281CDD7648764E07F056
:104C000039F908F01DFA764908F06EFAB6F9D03095
:104C100096F84810074602467048F764FCF702F918
:104C200001236920236028603DE406F0C3FC0028CE
:104C300000F37E842368286813E406F07FFC06F006
:104C4000B9FC05460028F8D16248634E06F07CFFA7
:104C5000604806F079FF5F4806F076FF5D4806F091
:104C600073FF5C4806F070FF1F215E4806F0CCFC25
:104C7000584806F069FF1C215B4806F0C5FCB06A85
:104C80005A4908F031FA07F085FD009502460B46B7
:104C9000504806F0B5FF0221554806F0B5FC4D48D6
:104CA00006F052FF2321534806F0AEFC706C4F49CA
:104CB00008F01AFA07F06EFD009502460B464548CB
:104CC00006F09EFF02214A4806F09EFC414806F08D
:104CD0003BFF1921484806F097FC306C07F05AFD5D
:104CE00002250B46024600953A4806F089FF294600
:104CF000424806F089FC374806F026FF222140484A
:104D000006F082FCB18E334806F072FF03213D4865
:104D100006F07AFC2F4806F017FF07232360C4E44F
:104D200006F00CFC06F046FC05460028F8D12948A0
:104D3000294E06F009FF274806F006FF254806F031
:104D400003FF244806F000FF224806F0FDFE15216F
:104D50002D4806F059FC1F4806F0F6FE18212B4896
:104D600006F052FC2B460A2296F84810194806F025
:104D7000FFFE184806F0E8FE2821254806F044FC0E
:104D8000F06C1A4908F0B0F907F004FD00950B46E5
:104D90000246104806F034FF0221154806F034FCA4
:104DA0000C4806F0D1FE18211A4806F02DFCB6F981
:104DB000D010084806F01CFF064806F0C5FE132177
:104DC000154806F021FC034806F0BEFE08232360C8
:104DD0006BE400BFE489FF1F30D0FF1F1496FF1F54
:104DE0006F12833A102201003022010000007A4441
:104DF0002C20010050220100742201000C2201002D
:104E000090220100B42201008C240100E41F010063
:104E100000200100302001004C20010006F08EFB34
:104E200006F0C8FB05460028F8D18248824E06F0FD
:104E30008BFE804806F088FE7E4806F085FE7D48A1
:104E400006F082FE7B4806F07FFE11217B4806F0CB
:104E5000DBFB784806F078FE2821794806F0D4FB81
:104E6000B069784908F040F907F094FC00950246D3
:104E70000B46704806F0C4FE0221734806F0C4FBDE
:104E80006C4806F061FE1621704806F0BDFB306AE2
:104E90006C4908F029F907F07DFC00950B460246A5
:104EA000644806F0ADFE0221674806F0ADFB61489C
:104EB00006F04AFED6F8BC30002B32DD1D216448D6
:104EC00006F0A2FB706E08F0BBF8624908F00CF91E
:104ED00007F060FC022502460B460095554806F097
:104EE0008FFE01215C4806F08FFB524806F02CFE35
:104EF0001F215A4806F088FBB06E08F0A1F855490A
:104F000008F0F2F807F046FC009502460B464948C7
:104F100006F076FE0121504806F076FB454806F083
:104F200013FE11214E4806F06FFBD6F8BC30072B5C
:104F300001F21480DFE813F07A087F087508700822
:104F40006B08660861080E0806F0F8FA06F032FBF6
:104F50000028F9D13748384E06F0F6FD354806F0FE
:104F6000F3FD344806F0F0FD324806F0EDFD31481F
:104F700006F0EAFD1F213B4806F046FB2D4806F0EF
:104F8000E3FD1E21384806F03FFB2A4806F0DCFD11
:104F90001A21364806F038FBD6F88430022B01F08F
:104FA0006581032B01F05981012B01F068810921F2
:104FB0002F4806F029FB1F4806F0C6FD14212D4896
:104FC000DFF8748006F020FBD6F88010194806F050
:104FD0000FFE184806F0B8FD1C21274806F014FB08
:104FE000D6F88810134806F003FE124806F0ACFD10
:104FF0001C21224806F008FBD6F8B8100D4806F030
:10500000F7FD0C4806F0A0FDD6F8845025F0020705
:10501000012F01F05F80022D01F0628113211848F9
:1050200006F0F2FA034806F08FFD02232360FFF733
:105030003CBB00BFE489FF1F30D0FF1F30240100BC
:105040006020010000007A442C2001008C20010027
:10505000A4200100CDCCCC3D4C270100C420010090
:10506000E42001000C2601002C2601004C26010042
:10507000C4260100D0260100E8260100082701000F
:105080004C20010006F05AFA06F094FA0028F9D1F3
:10509000BE48BF4D06F058FDBC4806F055FDBB4864
:1050A00006F052FDB94806F04FFDB84806F04CFD39
:1050B0001321B84806F0A8FAB44806F045FD0D21C2
:1050C000B54806F0A1FAB14806F03EFD0F21B348FD
:1050D00006F09AFAB24BAD48196806F089FDAB4864
:1050E00006F032FD1321AF4806F08EFAAE4BA7480A
:1050F000196806F07DFDA54806F026FD1221AB4893
:1051000006F082FAAA4BA148196806F071FD9F4883
:1051100006F01AFD1121A74806F076FAA64B9B4827
:10512000196806F065FD994806F00EFD0E21A348AA
:1051300006F06AFAD5F8AC10944806F059FD934889
:1051400006F002FD19219E4806F05EFA9D4B8F483D
:10515000196806F04DFD8D4806F0F6FC11219A48BD
:1051600006F052FA994B8948196806F041FD8748C4
:1051700006F0EAFC1021964806F046FA954B834863
:10518000196806F035FD814806F0DEFC1C219248C6
:1051900006F03AFA914B7D48196806F029FD7B48E4
:1051A00006F0D2FC16218E4806F02EFAB5F8A810AB
:1051B000764806F01DFD1E218A4806F025FA734840
:1051C00006F0C2FC1721884806F01EFA6F4806F068
:1051D000BBFC1321854806F017FA6C4806F0B4FCB6
:1051E00004232360FFF761BA06F0E4F900287FF793
:1051F000A5AB6648664E06F03DFE01226B23C6F85D
:105200008C0022602B6001E006F098F906F0D2F9DC
:105210000028F9D15D485E4D06F096FC5B4806F02B
:1052200093FC5A4806F090FC584806F08DFC57480D
:1052300006F08AFC21216E4806F0E6F9534806F094
:1052400083FC15216B4806F0DFF9D6F88C104F4827
:1052500006F0CEFC0221684806F0D6F94B4806F06D
:1052600073FC1E21654806F0CFF9D6F89410474824
:1052700006F0BEFC0321624806F0C6F9434806F07A
:1052800063FC1E215F4806F0BFF9D6F890103F4836
:1052900006F0AEFC3D4806F057FC1D215A4806F0CA
:1052A000B3F9D6F8B010394806F0A2FC374806F03A
:1052B0004BFC1E21554806F0A7F9D6F8B410334828
:1052C00006F096FC314806F03FFCD6F8AC30012BD6
:1052D00000F0F48705232360FFF7E7B906F06AF9C9
:1052E00000287FF72BAB2948294E06F0C3FD012289
:1052F0006B23C6F8940022602B6087E706F05AF90A
:1053000000287FF71BAB2148214E06F0B3FD012298
:105310006B23C6F8900022602B6077E706F04AF90D
:1053200000287FF70BAB1948194E06F0A3FD274B59
:10533000C6F8B00002221A60FCF79CFA01226B2327
:1053400022602B6062E706F035F900287FF7F6AAA5
:105350000E480F4E06F08EFD1C4BC6F8B40003221B
:10536000E9E70B4E96F8CD30B3FA83F35B090121E0
:105370006B2286F8CD3021602A6047E7134900236D
:1053800073220B6023602A60FFF70DB9E489FF1FC9
:1053900030D0FF1FD8240100EC240100FC240100C0
:1053A000A4D1FF1F0C25010058D1FF1F20250100AB
:1053B00060D1FF1F3425010024D0FF1F48250100C4
:1053C000582501006C94FF1F742501009094FF1F65
:1053D000882501006494FF1F9C2501002888FF1F79
:1053E000BC250100D4250100F42501004C2001005A
:1053F000B8220100DC220100A0210100F4220100FA
:105400002C1D01001423010034230100542301004A
:1054100006F0D0F800287FF701AABB48BB4E06F083
:1054200029FD07F00DFE65230122B06322602B6089
:105430001846FFF738B806F0BDF800287FF7EEA948
:10544000B148B24E06F016FD07F0FAFDB04907F07C
:10545000FFFE65230122B06122602B601846FFF732
:1054600022B806F0A7F800287FF7D8A9A648A74ECB
:1054700006F000FD65230122C6F8C00022602B6003
:105480001846FFF710B8A14B93F8CC20002A00F083
:105490001C86002283F8CC2001236520236028602D
:1054A000FFF701B806F086F800287FF7B7A99648FD
:1054B000964E06F0DFFC07F0C3FD954907F0C8FEE5
:1054C00065230122306222602B601846FEF7EBBF95
:1054D00006F070F800287FF7A1A98B488B4E06F0E4
:1054E000C9FC00EB8000430001226520B366226006
:1054F0002860FEF7D8BF854AD2F8BC300133072BAD
:10550000C8BF0023C2F8BC30C6E706F053F8002835
:105510007FF784A97C487D4E06F0ACFC00EB800050
:10552000430001226520736622602860FEF7BBBF3E
:105530007548764E06F09EFC07B23B46F26C96F834
:1055400048107448A6F8D070FFF768BB6F4E96F805
:105550004800FFF743BB0123236006F02BF8002827
:1055600007DD6948694E06F085FC07F069FDC6F85D
:105570009C00632028602368FEF773BF012323602B
:1055800006F018F80028F4DD5F48604E06F072FC63
:1055900007F056FDC6F89800EBE70123236006F0FC
:1055A00009F80028E5DD5848584E06F063FCA6F8D7
:1055B000C600DEE7554AD2F8D4300133042BC8BF09
:1055C0000123C2F8D4300123632023602860FEF752
:1055D0006ABF4E4AD2F884300133032BC8BF002380
:1055E000C2F88430EFE7494ED6F88030B3FA83F33F
:1055F0005B0901226320C6F8803022602860FEF734
:1056000052BF424ED6F88830B3FA83F35B090122C9
:105610006320C6F8883022602860FEF744BF01236B
:10562000236005F0C7FF0028CDDD3748374E06F070
:1056300021FCC6F8B800C6E70123236005F0BAFFD5
:105640000028C0DD3048314E06F014FCC6F8A40036
:10565000B9E7FDF7A1F923682868FEF7FFBE2E4AD7
:105660001368B3FA83F35B0901216420136021609E
:105670002860FEF718BF0123236005F09BFF002878
:1056800000F3DC85254B1A68042A01DD02221A602A
:1056900064232B602368082B4FF064007EF4E1AE96
:1056A000FEF772BF0123236005F084FF0028EFDDC1
:1056B0001548164E06F0DEFBA6F8A800E8E7012321
:1056C0002360FEF799FDE3E7154A137801214B406B
:1056D0006420137021602860FEF7E5BE114ABFE721
:1056E000114ABDE7114A124F1368002B0CBF01216C
:1056F00000214FF001031160236040F0C98564224E
:105700002A60C8E70B4AABE7E489FF1F30D0FF1FD0
:1057100000007A441496FF1F6494FF1F2888FF1F1F
:1057200080CFFF1FA4D1FF1F58D1FF1F60D1FF1FE3
:10573000ACD1FF1F24D0FF1F012327482360FBF7B4
:10574000A3F9264A23681060D9E7254A88E7254E41
:10575000D6F8AC30B3FA83F35B0901226420C6F8B3
:10576000AC3022602860FEF79EBE05F023FF0028C3
:105770000DDD1D481B4E06F07DFB07F061FC1B494B
:1057800007F066FD01226223706222602B6005F043
:1057900011FF00280EDD1448124E06F06BFB07F0D7
:1057A0004FFC124907F054FD01226223C6F8C800DD
:1057B00022602B6005F0FEFE002840F356840A4864
:1057C000084E06F057FB07F03BFC01226223F06312
:1057D00022602B600EE000BF1496FF1F6C94FF1F29
:1057E0009094FF1F30D0FF1FE489FF1F00007A4410
:1057F00005F0A4FE05F0DEFE05460028F8D1C348FA
:10580000DFF8788306F0A0F9C04806F09DF9BF489C
:1058100006F09AF9BD4806F097F9BC4806F094F9ED
:105820001521BB4805F0F0FEB84806F08DF91421AB
:10583000B84805F0E9FEB54806F086F91B21B648E0
:1058400005F0E2FEB14806F07FF91321B34805F0F8
:10585000DBFEAE4806F078F9AC4806F075F9AB48C7
:1058600006F072F92021AE4805F0CEFEF068AD4991
:1058700007F03AFC06F08EFF009502460B46A3485F
:1058800006F0BEF90221A84805F0BEFE0221A74895
:1058900005F0BAFE9D4806F057F92121A44805F00D
:1058A000B3FE30699F4907F01FFC06F073FF0095B7
:1058B00002460B46954806F0A3F902219A4805F0E6
:1058C000A3FE0221994805F09FFE904806F03CF99E
:1058D0001F21984805F098FEF06A06F05BFF02274A
:1058E00002460B460097894806F08AF90121924842
:1058F00005F08AFE39468D4805F086FE834806F09D
:1059000023F920218D4805F07FFE306B06F042FF21
:10591000009702460B467D4806F072F90121864841
:1059200005F072FE3946814805F06EFE774806F0B4
:105930000BF92321824805F067FE306D794907F0A5
:10594000D3FB06F027FF009502460B466F4806F092
:1059500057F93946744805F057FE3946734805F043
:1059600053FE6A4806F0F0F81F21764805F04CFE19
:10597000706D6C4907F0B8FB06F00CFF009502460D
:105980000B46624806F03CF93946674805F03CFE94
:105990003946664805F038FE5C4806F0D5F819210E
:1059A000694805F031FE316E584806F021F9394654
:1059B000664805F029FE39465C4805F025FE534847
:1059C00006F0C2F81821624805F01EFEF06E07F0DE
:1059D00037FB604907F088FB06F0DCFE00970246C3
:1059E0000B464A4806F00CF901215B4805F00CFE15
:1059F00039464E4805F008FE444806F0A5F82B212C
:105A0000564805F001FEF069464907F06DFB06F0C7
:105A1000C1FE009502460B463C4806F0F1F83946B7
:105A2000414805F0F1FD3946404805F0EDFD3748A5
:105A300006F08AF81F214A4805F0E6FDF16D33486B
:105A400006F0D6F83946394805F0DEFD2F4806F055
:105A50007BF82021434805F0D7FDB16D2B4806F0B7
:105A6000C7F83946314805F0CFFD284806F06CF8F4
:105A700010213D4805F0C8FD316F244806F0B8F804
:105A80003946294805F0C0FD3946284805F0BCFDD7
:105A90001E4806F059F81321344805F0B5FD716F22
:105AA0001A4806F0A5F80121314805F0ADFD394648
:105AB0001E4805F0A9FD154806F046F810212D48AE
:105AC00005F0A2FDB16F114806F092F8394616486C
:105AD00005F09AFD3946154805F096FD0B4806F08D
