:1000000000800020BD010000E18300009983000012
:100010009983000099830000998300009983000070
:10002000998300009983000099830000E183000018
:10003000E183000099830000F5790000F97A00005F
:10004000E1830000E1830000E1830000E183000020
:10005000E1830000E1830000E1830000E183000010
:10006000E1830000E1830000E1830000E183000000
:10007000E1830000E1830000E1830000E1830000F0
:10008000E1830000E1830000E1830000E1830000E0
:10009000E1830000E1830000E1830000E1830000D0
:1000A000E1830000E1830000E1830000E1830000C0
:1000B000E1830000E16F0000ED6F0000F16F0000D0
:1000C000FD6F00000170000005700000E18300007A
:1000D000E1830000E1830000E1830000E183000090
:1000E000E1830000E1830000E1830000E183000080
:1000F000E183000029A50000E1830000D590000005
:10010000E1830000A1920000E1830000E183000090
:10011000E1830000E1830000E1830000E18300004F
:10012000E1830000E1830000E1830000E18300003F
:10013000E1830000E1830000E1830000E18300002F
:10014000E1830000E1830000E1830000E18300001F
:10015000E1830000E1830000E1830000E18300000F
:10016000E183000031950000E1830000E18300009D
:10017000E1830000E1830000E1830000E1830000EF
:10018000E1830000E1830000E1830000E1830000DF
:10019000E1830000E1830000E1830000E1830000CF
:1001A000E1830000E1830000E1830000E1830000BF
:1001B000E1830000E1830000E1830000564B4CF234
:1001C000205210B51A804DF628121A8000BF00BFC9
:1001D00008F00AF9514B4FF010621A60504A9A60C9
:1001E000504ADA60504A136813F4807304D14F49BF
:1001F0000B604FF4A85313604D4B1A78110703D5C9
:100200001A7842F008021A704A4B4B492A221A7097
:100210004A4A4B4B8B4204D252F8040F43F8040B6A
:10022000F8E7484B484900228B4202D243F8042B9E
:10023000FAE74649464A002352F8230041F82300D2
:1002400001336F2BF8D1434B434A802103F8011B44
:100250009342FBD1414B3D4A1A60414B8A221A70AE
:10026000A3F5805324225A70A0221A709A7992071B
:10027000FCD59A79D406FCD43A4A937903F00C035E
:10028000082B384BF9D103221A7140225A719A79FE
:100290009006FCD5334A9179324B4906FBD5324A58
:1002A000324911600221516020221A709A7902F0BD
:1002B0000C020C2AFAD12E4B2E4A1A602E4B2F4AD2
:1002C0001A6000225A60072243F8042C2C4AC3F813
:1002D0000C2D62B608F068FB144B1B68DA0705D5D5
:1002E000284808F045F9284B284A1A60284B1B7803
:1002F0005B0609D5244C254B22689A4204D121483B
:1003000008F036F9002323600BF0F0FB08F072F8D8
:1003100007F0A0FFFEE700BF0E200540308004403C
:10032000823F04000100002B10D0034014D0034092
:1003300002D0074000E007403092FF1F0C1601007A
:100340002087FF1F3092FF1F0CD1FF1F0082FF1F6D
:100350000000000000E400E05FE400E008ED00E0E1
:100360000050064000400640448004400000030165
:1003700004800440C010050014E000E0FF76010096
:100380000000202079BC5E5E1CE00340A5C3945AA7
:1003900000F00740FFFFFFFFFFFFFFFFFFFFFFFF32
:1003A000FFFFFFFFFFFFFFFFFFFFFFFFFFFFFFFF5D
:1003B000FFFFFFFFFFFFFFFFFFFFFFFFFFFFFFFF4D
:1003C000FFFFFFFFFFFFFFFFFFFFFFFFFFFFFFFF3D
:1003D000FFFFFFFFFFFFFFFFFFFFFFFFFFFFFFFF2D
:1003E000FFFFFFFFFFFFFFFFFFFFFFFFFFFFFFFF1D
:1003F000FFFFFFFFFFFFFFFFFFFFFFFFFFFFFFFF0D
:10040000FFFFFFFFFFFFFFFFFFFFFFFFDEF9FFFF23
:1004100010B5054C237833B9044B13B10448AFF33E
:1004200000800123237010BD3092FF1F00000000E8
:1004300008160100084B10B51BB108490848AFF376
:1004400000800848036803B910BD074B002BFBD0A0
:10045000BDE81040184700BF000000003492FF1FA5
:10046000081601003092FF1F00000000F0B400F1F8
:100470002C06164F00243146031F00F15C0243F89E
:10048000044FB34241F8047F4FF0000542F8044F97
:10049000F5D100230E4A0F49C0F89050C0F894508F
:1004A000C0F89850C0F89C50C0F8A050C0F8B050A8
:1004B000C0F8A420C0F8AC20C0F8A81080F8B8306C
:1004C00080F8B93080F8D030F0BC70470000A04010
:1004D000000048430000C8C270B5CD1D00F1900473
:1004E00000F1A00615F8010F28380BF099F844F830
:1004F000040FB442F6D170BD01392DE9F8438146AD
:100500001546032900F2D280DFE801F0A77D5302EF
:10051000537A107A03F02F0300EB03200BF080F8DE
:1005200063490BF085F9C9F82400EB7AA87A03F047
:100530002F0300EB03200BF073F85D490BF078F903
:10054000C9F828006B7B287B03F02F0300EB032006
:100550000BF066F856490BF06BF9D9F80040C9F872
:100560002C0009F13006C84609F16005002701E0BA
:1005700058F8044F306821460BF062FA01372146E3
:1005800028B1D9F8B4000BF047FA00B13460214625
:1005900028680BF037FA0436464920B120460BF0A4
:1005A0004FFA00B12C600C2F05F10405E0D1BDE835
:1005B000F883537A107A03F02F0300EB03200BF03B
:1005C0002FF83B490BF034F9C9F81800EB7AA87AF8
:1005D00003F02F0300EB03200BF022F834490BF05B
:1005E00027F9C9F81C006B7B287B03F02F0300EB75
:1005F00003200BF015F82E490BF01AF9D9F800403A
:10060000C9F82000ADE7537A107A03F02F0300EB0E
:1006100003200BF005F826490BF00AF9C9F80C0085
:10062000EB7AA87A03F02F0300EB03200AF0F8FF1F
:100630001F490BF0FDF8C9F810006B7B287B03F015
:100640002F0300EB03200AF0EBFF19490BF0F0F841
:10065000D9F80040C9F8140083E7537A107A03F000
:100660002F0300EB03200AF0DBFF11490BF0E0F849
:10067000C9F80000EB7A0446A87A03F02F0300EBD8
:1006800003200AF0CDFF0A490BF0D2F8C9F80400A4
:100690006B7B287B03F02F0300EB03200AF0C0FFE5
:1006A00003490BF0C5F8C9F808005AE7046858E791
:1006B00000007A440000A04090F8C000704700BFDE
:1006C00090F8BC00704700BF90F8C400704700BFAE
:1006D00090F8C800704700BF0C2994BF50F8210063
:1006E000002070472DE9F0410B4E8046041F00F1B9
:1006F0002C0754F8045F314628460BF083F930B1DB
:10070000D8F8B41028460BF09BF900B12E46BC4235
:10071000EFD13046BDE8F081000020412DE9F041E5
:10072000D0F8B4704FF00008041F00F12C0654F804
:10073000045F394628460BF083F9084948B128463A
:100740000BF060F9414620B128460BF079F900B171
:10075000A846B442EBD14046BDE8F0810000A0407D
:100760002DE9F047D0F8B47082464FF00009041F1D
:1007700000F12C064FF0000854F8045F3946284673
:100780000BF05EF90C4950B128460BF03BF930B143
:10079000484629460AF090FE08F101088146B44215
:1007A000EAD1CAF8D48040460AF03AFF01464846EA
:1007B0000BF03EF8BDE8F0870000A040D0F8D40070
:1007C000704700BFF8B5D0F89860D0F89450044650
:1007D000314628460BF016F9D4F89C70002830D129
:1007E000D4F8A040314628460BF02AF950B13946DA
:1007F00030460BF007F928B1214630460BF002F9DC
:1008000000282FD1394628460BF01AF948B139464D
:1008100030460BF015F920B1214638460BF0F2F8BE
:1008200010BB304621460BF00BF948B13846214643
:100830000BF006F920B1284621460BF001F978B9F2
:10084000F8BD284639460BF0DDF8D4F8A040002862
:10085000C8D0284621460BF0D5F80028C2D02C4637
:100860002046F8BD3446FBE73C46F9E7F8B5D0F83A
:100870009860D0F894500446314628460BF0E0F8D2
:10088000D4F89C70002830D1D4F8A04031462846D6
:100890000BF0B8F850B1394630460BF0D1F828B11A
:1008A000214630460BF0CCF800282FD13946284697
:1008B0000BF0A8F848B1394630460BF0A3F820B148
:1008C000214638460BF0BCF810BB304621460BF0F1
:1008D00099F848B1384621460BF094F820B12846E3
:1008E00021460BF08FF878B9F8BD284639460BF051
:1008F000A7F8D4F8A0400028C8D0284621460BF01D
:100900009FF80028C2D02C462046F8BD3446FBE7AD
:100910003C46F9E710B50446D0F89810D0F894009A
:100920000AF0CAFDD4F89C100AF0C6FDD4F8A01055
:100930000AF0C2FD4FF07A510AF0C6FE10BD00BFAA
:100940002DE9F8430026D0F8B480C0F890608146C5
:10095000041F00F12C0754F8045F414628460BF0B1
:100960006FF8094950B128460BF04CF830B13046C9
:1009700029460AF0A1FD0646C9F89000BC42EAD11A
:100980003046BDE8F88300BF0000A04003299ABFAD
:1009900000EB8100D0F89400002070473E2998BFFA
:1009A00080F8D010704700BF90F8B800704700BFC3
:1009B00090F8B900704700BFC0F8CC10704700BF76
:1009C00080F8B810704700BF80F8B910704700BFBA
:1009D00030B50F4CC0F8B41083B020460D4607F078
:1009E00039F9204607F036F928460AF0C3F90225FE
:1009F00002460B460095204607F086F9204607F090
:100A000029F9204603B0BDE8304007F023B900BF04
:100A1000D087FF1F70B500F5595506460C3500F11B
:100A200028042046DC34FFF721FDAC42F9D106F55D
:100A30008275012428460021FFF7C2FF214628467F
:100A40000134FFF7ABFF3F2C05F1DC05F2D143F297
:100A5000546400250548064A064B3555002130618F
:100A60007161B261F361304670BD00BF00007A442D
:100A7000000048430000C8C270B500F559560C3656
:100A800000F58274002507E0012520460021DC34B2
:100A9000FFF79AFFB4420AD02046FFF785FF0028EF
:100AA000F3D02046FFF784FF0028EDD170BD284623
:100AB00070BD00BF2DE9F04143F2586300F559566F
:100AC000374600228046C2500C36183700F5827433
:100AD00002E0DC34B4420DD02046FFF765FF002869
:100AE000F7D020463D68FFF769FEDC342844B44265
:100AF0003860F1D143F2586358F80300BDE8F08143
:100B000038B50C6804F00F04DC23013403FB040047
:100B100015462830FFF7E0FC012D00D038BD06480F
:100B200007F098F82146044807F0E4F80B21034841
:100B3000BDE8384009F092BBD087FF1F98FC000049
:100B4000F0B50E6806F00F0506F0F006302E83B003
:100B50000F46044605F101053CD032DD402E18D089
:100B6000502E32D10426072D17D9DC2303FB054470
:100B7000283420460121FFF723FF20460121FFF7FB
:100B800023FF3A463146204603B0BDE8F040FFF768
:100B9000B3BC072D4FF00306E7D8012AE5D129465B
:100BA0000D48019207F0A6F8019A0C48114609F089
:100BB00055FB3146084807F09DF8074807F04AF80A
:100BC000D3E7202E01D10126CDE7072DCDD8042E65
:100BD000CBDCE2E70226C6E7D087FF1FA4FC0000BB
:100BE0002DE9F043002383B00646036000F58274CC
:100BF000012504E001353F2D04F1DC0466D02046D8
:100C0000FFF7D2FE0028F5D04E4805F069FC2946D2
:100C10004D4805F065FC2046FFF792FE0AF0AAF861
:100C200002460B46494805F05BFC2046FFF75AFD9B
:100C300080462046FFF772FD074640460AF09AF8C4
:100C40008046384689460AF095F842464B46CDE93B
:100C500000013F4805F044FC00212046FFF796FEC6
:100C6000012180462046FFF791FE074640460AF0E4
:100C700081F88046384689460AF07CF842464B4661
:100C8000CDE90001334805F02BFC2046FFF758FE64
:100C9000014630680AF010FC30602046FFF792FDF4
:100CA000B1690AF0AFFE002833D12046FFF7DEFD20
:100CB000F1690AF0C5FE00289CD02046FFF7D6FD5A
:100CC00001353F2DF06104F1DC0498D170680AF021
:100CD000A7FC014630680AF0ABFD7169306004463C
:100CE0000AF0AEFE00B17461316920460AF08AFE56
:100CF00000B134610B2007F0D3FD43F25463F35C81
:100D000060B99BB143F254630122F25403B0BDE8D1
:100D1000F0832046FFF756FDB061C6E753B943F2B2
:100D200054630022F25403B0BDE8F0830A4805F092
:100D300005FCE7E7094805F0EBFB43F254630022AA
:100D4000F254F0E790FE0000A8FC0000E4FC000074
:100D5000F8FC000024FD000040FD000078FD0000CC
:100D600070B5114B836000F5595506460C3500F5FA
:100D7000827402E0DC34AC4213D02046FFF714FE4C
:100D80000028F7D02046FFF7ADFCB1680AF03AFE24
:100D90000028EFD02046FFF7A5FCDC34AC42B06061
:100DA000EBD1B06870BD00BF0000A04070B500235B
:100DB00000F559550646C3600C3500F5827402E013
:100DC000DC34AC4213D02046FFF7EEFD0028F7D00C
:100DD0002046FFF7A3FCF1680AF032FE0028EFD0AE
:100DE0002046FFF79BFCDC34AC42F060EBD1F068AE
:100DF00070BD00BF0068704741607047F8B500F5EE
:100E000059550F4616460C3500F5827402E0DC3465
:100E1000AC420FD02046FFF7C7FD0028F7D0204690
:100E20003946FFF7C9FD20463146DC34FFF7D0FDD7
:100E3000AC42EFD1F8BD00BF2DE9F84343F2506357
:100E400000F559550027C7502E462A4A2A4B4262C0
:100E500080464FF0000903620C35103600F58274AD
:100E600002E0DC34A54213D02046FFF79DFD0028A8
:100E7000F7D03368013333602046FFF74BFD1F493D
:100E80000AF0DEFD88B9DC34A54207F10107EBD199
:100E900043F2506358F80300C01B0AF0C1FB01463F
:100EA00048460AF0C5FCBDE8F8832046FFF732FD4E
:100EB000014648460AF000FB81462046FFF7D6FC73
:100EC000D8F820100AF0BCFD70B92046FFF77AFC74
:100ED000D8F824100AF096FD0028C2D02046FFF76B
:100EE00071FCC8F82400BCE72046FFF7BFFCC8F837
:100EF0002000EAE700C0794400C079C400008CC239
:100F0000006A7047406A7047F8B500F559550746C2
:100F100000260C3500F5827402E0DC34AC420FD0C0
:100F20002046FFF741FD0028F7D02046FFF718FCC8
:100F3000014630460AF0C0FADC34AC420646EFD136
:100F400043F25063F8580AF06BFB014630460AF052
:100F50006FFCF8BD2DE9F04F06468FB08B488B46ED
:100F600005F066FA894805F063FA884805F060FAEA
:100F700043F250633046F2580D92FFF79BFD7368C1
:100F80000C930746306809F0F5FE804630468946E6
:100F9000FFF7BAFF82463046B468F568FFF74CFFAA
:100FA00009F0E8FECDE90A01214628460AF082FA56
:100FB00077490AF089FB09F0DDFECDE908012846F2
:100FC00009F0D8FECDE90601204609F0D3FECDE9AF
:100FD0000401504609F0CEFE0D9A0C9BCDE90201AA
:100FE000CDE9008911466B483A4605F021FA674879
:100FF00005F01EFA06F582764FF001094FF0000A5F
:1010000007E009F10109B9F13F0F06F1DC0600F034
:10101000B5803046FFF7C8FC0028F2D03046FFF715
:101020004BFB3046FFF74CFB3046FFF74DFB30469D
:10103000FFF74EFB0821584809F010F94946574878
:1010400006F058FEB9F1090F40F39B800221544885
:1010500009F004F93046FFF773FC09F08BFE5FFAE4
:101060008BF802460B46CDF800804C4806F04CFE4B
:1010700001214C4809F0F2F85546002420E00621F1
:10108000494809F0EBF82946444806F033FE0221AE
:10109000464809F0E3F821463046FFF71DFB09F00A
:1010A00069FECDF8008002460B463C4806F02CFE57
:1010B000013401213B4809F0D1F80C2C09D03D4600
:1010C000092D05F10107DADC0121394809F0C6F8DC
:1010D000D5E7324806F0BEFD0921364809F0BEF8D2
:1010E00000213046FFF752FC09F044FE022402467C
:1010F0000B460094294806F007FE0A212E4809F005
:10110000ADF801213046FFF741FC09F033FE0094B1
:1011100002460B46214806F0F7FD0A21274809F050
:101120009DF821463046FFF731FC09F023FE00947C
:1011300002460B46194806F0E7FD0A21204809F04F
:101140008DF803213046FFF721FC09F013FE0094CF
:1011500002460B46114806F0D7FD0121194809F057
:101160007DF809F101090D4806F074FDB9F13F0F52
:101170000AF10C0A06F1DC067FF44BAF0FB0BDE8B4
:10118000F08F01210A4809F069F85FE790FE00003E
:1011900000007A4428000100C8000100D087FF1F2A
:1011A000600E0100D4000100D8000100840201009B
:1011B00094020100E0000100EC000100F8000100D1
:1011C00004010100100101002DE9F04F85B000F588
:1011D00082758A4603929B462E464FF0010806E030
:1011E00008F10108B8F13F0F06F1DC067BD030466C
:1011F000FFF7DAFB0028F3D000230A2251467D488E
:1012000006F038FD01217C4809F028F8039809F020
:10121000B1FD00230246009376480B4606F074FDAC
:101220000121754809F01AF85946724806F062FD26
:101230000121714809F012F841466E4806F05AFD46
:1012400001216D4809F00AF800244FF002092146F7
:101250003046FFF741FA09F08DFDCDF800900246C7
:101260000B46644806F050FD01340121624808F045
:10127000F5FF082C4FF00207E9D100213046FFF7B7
:1012800085FB09F077FD009702460B46594806F0AA
:101290003BFD0121584808F0E1FF01213046FFF7EE
:1012A00075FB09F067FD009702460B46514806F0B2
:1012B0002BFD0121504808F0D1FF39463046FFF799
:1012C00065FB09F057FD009702460B46494806F0BA
:1012D0001BFD08F10108474806F0BCFCB8F13F0FC0
:1012E00006F1DC0683D101274FF0000904E0013745
:1012F0003F2F05F1DC0579D02846FFF755FB002884
:10130000F5D000230A2251463C4806F0B3FC0121E7
:10131000394807F0DBFD039809F02CFDCDF800906B
:1013200002460B46354806F0EFFC0121324807F033
:10133000CDFD5946314806F0DDFC01212E4807F06D
:10134000C5FD39462D4806F0D5FC01212A4807F095
:10135000BDFD00244FF0020821462846FFF7BCF9E6
:1013600009F008FDCDF8008002460B46234806F040
:10137000CBFC01340121204807F0A8FD082C4FF0D8
:101380000206E9D100212846FFF700FB09F0F2FC34
:10139000009602460B46194806F0B6FC0121164895
:1013A00007F094FD01212846FFF7F0FA09F0E2FC6E
:1013B000009602460B46114806F0A6FC01210E4895
:1013C00007F084FD31462846FFF7E0FA09F0D2FC29
:1013D000009602460B46094806F096FC013707487E
:1013E00006F038FC3F2F05F1DC0585D105B0BDE8DE
:1013F000F08F00BFD087FF1FA4FC0000B487FF1F41
:101400000A4A0B49906D536D03FB00F34FF47A7059
:1014100000FB03F0642310B50B600AF001F90549E5
:10142000054C0AF005FA206010BD00BF10CBFF1F6D
:101430003487FF1FE4388E3E28CCFF1FF8B53D48A7
:101440003D4C3E4D3E4E04F0F3FF3E4B3E4A3F487E
:101450003F495A6011271F703E4F3F4AD8601C61B8
:1014600000203E4C5D615E623D4DDF624FF07C5678
:101470000C2799619A623B493B4A18635C633B487D
:101480003B4C9D635E6440F61C450A261F65394F40
:101490009964DA64022101221862C3F8BC4000207A
:1014A00032249D66DE6664254FF49676DF61DF6345
:1014B00041F20407597059721A725A6583F8400054
:1014C000C3F89C401C665E66DE659D654FF05A0C55
:1014D0001F674FF47A7E9867D967C3F88000C3F816
:1014E0008840C3F8A440244FC3F8A000234EC3F89B
:1014F000AC20C3F8B010FF2441F28831052083F8F6
:10150000C02040F2D662C3F8B450C3F874C0C3F828
:101510008CE0C3F89070C3F89460C3F8A840A3F8B7
:10152000BA00C3F88410A3F8B810A3F89820A3F861
:101530009A20F8BD1401010000004040333383407D
:10154000CDCCCC3D10CBFF1F20A1070066668640A6
:10155000CDCC4C40000020C100008242000020425F
:101560000000A0409A9979400AD7233D3333734055
:101570009A99993ECDCC4C3E0000684200C0204470
:10158000F0B5002185B00F2007F098F900210E205A
:1015900007F094F90021112007F090F900211020A4
:1015A00007F08CF90021122007F088F900211320A0
:1015B00007F084F901210B2007F080F901210C20AC
:1015C00007F07CF90121142007F078F9012115209A
:1015D00007F074F90121162007F070F90121172096
:1015E00007F06CF90121052007F068F9954C964D3C
:1015F0000121062007F062F901210D2007F05EF9B4
:1016000020880AF009F80146162007F0C1F8208862
:101610000AF002F80146172007F0BAF8208809F00E
:10162000FBFF0146052007F0B3F8208809F0F4FF1E
:1016300000240146062007F0ABF800942346834AB5
:101640008349844805F074F9E6B232467E49814800
:1016500005F01CF92B797C497E486FF300030134B7
:1016600032462B7105F008F9082CEDD10924E6B2B9
:1016700032467549774805F009F92B797249754862
:1016800043F00103013432462B7105F0F5F80D2CBF
:10169000EDD1714C4FF0FF322068102105F014FDA0
:1016A00020684FF0FF32102105F0E6FC20684FF073
:1016B000FF32022105F0F4FC20684FF0FF320221D6
:1016C00005F0F8FC00220F21206805F007FD0C2131
:1016D000624808F0C3FD624806F0BCFA1121614877
:1016E00008F0BCFD5E4806F0B5FA40F2836007F0F2
:1016F000CBF95B4806F0AEFA17215B4808F0AEFD67
:10170000574806F0A7FA594B1B789A0600F1D28089
:10171000564B1B781B0700F1D980544B1B785F0791
:1017200000F1E080514B1B789E0700F1E780504BA1
:101730001B781D0600F1EE804D4B1B785C0600F116
:10174000F5804B4B1B78980600F1FC80484B1B78CA
:10175000590700F10381464B1B781A0700F10A81F3
:10176000434B1B789B0700F111813D4806F072FA4C
:1017700072B6404A4CF220534DF6281120241380B3
:1017800023461180013BFDD13B4D3C483C490023A1
:101790004FF480562E8003800B8032F80E3C9BB2B3
:1017A00043F0D30322F80E3C62B69D2007F018FDEB
:1017B00021463448344D08F051FD294806F04AFAD4
:1017C00005F1C4062F462C46601B06F0B1FC04F858
:1017D000010BB442F8D13B78112B01D0FFF72EFE5C
:1017E000042004F079FD294B29482A4D00221A6073
:1017F00004F044FD01210D2007F04CF8796D2648D6
:10180000FFF7FAFA7A6C97F840102348FFF7F6FAD8
:101810002248234B046803941B682249224A039EF2
:10182000006802901268214C2E6081FB0301DB17D7
:101830001F48A3EB21130299216013FB02F30380DD
:1018400005B0F0BD3887FF1FE0CBFF1F0CCEFF1F98
:1018500020A1070070CCFF1F50CCFF1F34010100F6
:10186000D087FF1F440101005801010001F007402B
:1018700000F007400E2005400420054006200540EA
:10188000162005405C02010010CBFF1F8092FF1F55
:10189000F892FF1F68CAFF1FF893FF1F34CEFF1F87
:1018A0005487FF1F1F85EB515087FF1F70CAFF1F12
:1018B00014CCFF1F2121394808F0D0FC384806F02D
:1018C000C9F9384B1B781B077FF527AF0C21364829
:1018D00008F0C4FC324806F0BDF9324B1B785F07B4
:1018E0007FF520AF0E21314808F0B8FC2C4806F0F7
:1018F000B1F92C4B1B789E077FF519AF17212C48A7
:1019000008F0ACFC264806F0A5F92A4B1B781D060A
:101910007FF512AF0E21284808F0A0FC204806F001
:1019200099F9244B1B785C067FF50BAF12212348F5
:1019300008F094FC1A4806F08DF91E4B1B789806A7
:101940007FF504AF13211E4808F088FC144806F008
:1019500081F9184B1B7859077FF5FDAE1C211948FA
:1019600008F07CFC0E4806F075F9124B1B781A073C
:101970007FF5F6AE1921144808F070FC084806F00F
:1019800069F90C4B1B789B077FF5EFAE18210F48C8
:1019900008F064FC024806F05DF9E6E6700101001B
:1019A000D087FF1F01F0074094010100A40101004E
:1019B000B401010000F00740CC010100DC0101008E
:1019C000F0010100040201002402010040020100B4
:1019D00070B5464C464D4748E66800232B70FFF72C
:1019E000E5F9014630460AF00DF808B104232B70E2
:1019F0004048FFF7B5F921690AF004F818B12B78CF
:101A000043F010032B703B48FFF77AFAA16A0AF003
:101A100017F818B12B7843F040032B70002335489A
:101A20006B70FFF76FFAE16A314E09F0EBFF08B116
:101A30000123737000232F48EB70FFF7B7F90546B9
:101A40002C482B4EFFF78CF90146284609F032FD51
:101A5000E16B09F0F5FF08B10123F370264D25482D
:101A600000232B70FFF7A2F9616A0646E06809F0CF
:101A700021FD0146304609F0E3FF08B104232B7035
:101A80001C48FFF76DF9616A0646206909F014FDEC
:101A90000146304609F0B6FF18B12B7843F0100329
:101AA0002B701448FFF72CFAA16B0646A06A09F0C8
:101AB00001FD0146304609F0C3FF18B12B7843F011
:101AC00040032B7000230B486B70FFF71BFAA16BD0
:101AD0000546E06A084C09F0EFFC0146284609F08B
:101AE00091FF08B10123637070BD00BF10CBFF1FD1
:101AF000F8CAFF1FF893FF1F5092FF1F514B1B683E
:101B0000002B74D0F0B5504D2B680533B3F57A7FB8
:101B100083B040F38E80002300272B604B4CD4F819
:101B2000A40009F07DFD0646D4F8A80009F078FD70
:101B3000314609F0BFFC394609F0C6FD444909F0B9
:101B400077FE314609F0B8FC09F084FF0146062013
:101B500006F020FD02213F4808F080FB3E4806F0D9
:101B600079F806213D4808F079FB286809F058FD0E
:101B70003B4909F0A9FD09F0FDF8022602460B4693
:101B80000096354806F0C0F80D21364808F066FB8F
:101B9000D4F8A40009F044FD0746286809F040FD88
:101BA0002F4909F091FD0546D4F8A80009F038FD49
:101BB000394609F07FFC0146284609F085FD244995
:101BC00009F036FE394609F077FC09F0D3F80096A3
:101BD00002460B46204806F097F831461D4808F0AB
:101BE0003DFB1D4803B0BDE8F04006F033B8174B8D
:101BF0001D4AD3F8A410D3F8A83012685B1A632BDF
:101C00000BDD1A4803FB02F380FB0302DB17C3EB77
:101C100062131944062006F0BDBC154803FB0223DD
:101C200080FB0302DB17C3EB22121144062006F0EF
:101C3000B1BC18462B6009F0F3FC094909F044FDDA
:101C400007466BE77C92FF1FD4CBFF1F10CBFF1F13
:101C50000000C842600E0100D087FF1F8002010013
:101C6000CDCCCC3D880201003487FF1F1F85EB518E
:101C7000CBF08D2870B5AE48AE4C05F0EBFFAC480C
:101C800005F0E8FFAA4805F0E5FF0D21AA4808F095
:101C9000E5FAD4F8A030012B11D0A84CA448217843
:101CA00000230A2205F0E6FF2378052B67D8DFE83A
:101CB00013F0010106010B0110011501FC000921BF
:101CC0009F4808F0CBFA9F48FFF74AF8216909F0CE
:101CD00099FE18B10F219C4808F0C0FA9948FFF707
:101CE00065F8E16809F0ACFE18B10E21974808F0DC
:101CF000B5FA9448FFF75AF805469248FFF730F8CE
:101D00000146284609F0D6FBE16B09F099FE18B1AF
:101D100011218F4808F0A2FA8A48FFF78DF8A16ACE
:101D200009F08EFE18B10C218A4808F097FA854810
:101D3000FFF782F8E16A09F065FE18B10D218648C7
:101D400008F08CFA854B7F481B68012B00F0DA8085
:101D5000FFF706F82169774D09F072FE78B17948EE
:101D6000FFF724F8E96809F04DFE40B1734B1B788A
:101D7000052B00F0D8800821794808F06FFA02217D
:101D8000784808F06BFA122006F08AFD012800F06E
:101D9000AA80112006F084FD012800F0AE80022107
:101DA0007048714C08F05AFA704B6148196805F098
:101DB000A1FF5F4805F04EFF04216D4808F04EFA80
:101DC0000B2006F06DFD002301460A22584805F05D
:101DD00051FF0C2006F064FD002301460A225448FE
:101DE00005F048FF142006F05BFD002301460A229F
:101DF0004F4805F03FFF152006F052FD0A22002350
:101E000001464B4805F036FF06215A4808F026FAED
:101E10002368DD074FF001014CBF5748574808F0D1
:101E20001DFA236898074FF001014CBF52485348F0
:101E300008F014FA23685A074FF001014CBF4E48CE
:101E40004E4808F00BFA23681B074CBF4A484B4822
:101E5000012108F003FA0421494808F0FFF9112094
:101E600006F01EFD002301460A22314805F002FF5C
:101E7000102006F015FD002301460A222C4805F02B
:101E8000F9FE122006F00CFD002301460A22284824
:101E900005F0F0FE132006F003FD002301460A22A0
:101EA0002348BDE8704005F0E5BE0721354808F03D
:101EB000D5F964E70621344808F0D0F95FE7072137
:101EC000324808F0CBF95AE70721314808F0C6F943
:101ED00055E708212F4808F0C1F950E70B212E489B
:101EE00008F0BCF94BE70E212C4808F0B7F9112097
:101EF00006F0D6FC01287FF452AF0A21284808F0EA
:101F0000ADF94CE7FEF72CFF216A09F099FD002896
:101F10003FF431AF1621234808F0A0F90A212248E6
:101F200008F09CF92BE70A211F4808F097F926E7EB
:101F3000D087FF1F10CBFF1F9802010004CBFF1FAB
:101F4000A8020100F893FF1FB4020100C4020100BF
:101F5000D4020100E8020100F80201008892FF1F8C
:101F60002C030100600E010044CCFF1F5C92FF1F98
:101F70008C030100940301009C0301002010010068
:101F8000A0030100680301003803010040030100C1
:101F9000540301005C0301004803010070030100C9
:101FA0008003010008030100200301002DE9F04F28
:101FB000934C944FE36F012B8DB000F04981032BBC
:101FC00050D0914E914DA36F9148012B09BF2968C4
:101FD000296801F10041296005F072FC3368002B8B
:101FE00040F0CE808A4805F041FCE36F3860012B59
:101FF000064600F0D280874909F022FD78B986496B
:10200000304609F0FFFC50B9844A854B12680B92A8
:102010000B9A1A6000232B600DB0BDE8F08FDFF83B
:10202000FC817F4CD8F800300A930A9823687D4FD2
:10203000C01A09F0F1FA314609F046FB7A4909F075
:10204000F7FB794909F0F4FB396809F035FAD8F85B
:1020500000300993099B2360002338602B600DB08A
:10206000BDE8F08FDFF8C881704DD8F80000664EEB
:10207000012300220F212B6005F030F82B68012B83
:10208000336800F00381002B40F0A6810021D8F8CE
:102090000000DFF8B891664D05F072F833681FFA5A
:1020A00080FBC9F800B0002B40F07B810021D8F8FC
:1020B0000000564DDFF878A104F0E8FFB4F89A303C
:1020C00040F6E44101FB0BF1B1FBF0F0C01A00B2A5
:1020D00009F0A6FA57498346D4F8900009F0F4FABB
:1020E0000146584609F0A4FBD9F800302860632B5C
:1020F000DFF858B100F3498100232B603368002BCF
:102100003FF461AF02214C4808F0A8F8D9F800204C
:10211000D8F8000040F6E443002103FB02F804F085
:10212000B5FFB8FBF0F009F077FA8046B4F89A00F2
:1021300009F076FA0146404609F0BCF908F01AFEAB
:102140004FF0020802460B46CDF800803B4805F0F0
:10215000DBFD4146384808F081F8286808F00AFE9F
:10216000CDF8008002460B46344805F0CDFD4146CF
:10217000334808F073F841462F4808F06FF822E71B
:10218000234805F073FB08F0F5FD022602460B46D6
:1021900000962A4805F0B8FD24E7244B1B68012B64
:1021A00000F02681022B7FF435AF264909F048FC68
:1021B00030B92549304609F025FC002800F0478158
:1021C000DFF85880164CD8F800300793079823683A
:1021D000144FC01A09F020FA314609F075FA124975
:1021E00009F026FB104909F023FB396809F064F96E
:1021F000D8F800300693069B386023600AE700BFDA
:1022000010CBFF1FFCCAFF1FF4CAFF1F38CCFF1FF3
:10221000F4CBFF1F0000FA430000FAC334CEFF1FC7
:102220005892FF1F28CCFF1F00007A442487FF1F0D
:1022300050CCFF1F17B7D138600E0100D087FF1FA9
:10224000E403010000C82F4800A08CC65CCCFF1F2F
:102250003D689849284609F0D5FB30B12846964993
:1022600009F0EEFB00287FF4FDAEDFF85882934DB5
:10227000D8F80000924E022300220E212B6004F0B9
:102280002DFF2B68012B33687FF4FDAE002B40F04F
:1022900000810021D8F80000DFF86C92894D04F02D
:1022A0006FFF33681FFA80FBC9F800B0002B40F0C5
:1022B000D5800021D8F80000834D04F0E7FEB4F883
:1022C000983040F6E44A0AFB0BFBBBFBF0F0C01A67
:1022D00000B209F0A5F97D498346D4F8940009F0CD
:1022E000F3F90146584609F0A3FAD9F800302860FE
:1022F0000021D8F800000AFB03FA04F0C7FEB4F886
:102300009830BAFBF0F00FFA80FAC3EB0A03002B07
:10231000B4F8BA20B8BF5B429342BCBF00232B6025
:102320003368002B3FF44FAE0221694807F096FF57
:10233000D9F80020D8F8000040F6E443002103FB60
:1023400002F804F0A3FEB4F89810B8FBF0F000B265
:10235000411A604805F0CEFC02215D4807F07EFF7F
:10236000286808F007FD4FF0020802460B46CDF83A
:102370000080584805F0C8FC0321574807F06EFF5D
:102380004146534807F06AFF1DE6DAF800000021D5
:1023900004F07CFEDBF8003064389842FFF4ACAE09
:1023A000ACE60021286804F071FE40F6E441002309
:1023B0000A2201FB0BF1B1FBF0F1464805F05AFC93
:1023C0000221434807F04AFFB4F89A10414805F04B
:1023D00091FCD9F800B069E63E4805F03BFC0C21C1
:1023E0003E4807F03BFF0C213D4807F037FF4DE624
:1023F0003C4909F025FB58B93B49304609F002FB3E
:1024000030B93A4A3A4B12680592059A1A6001E6C9
:10241000DFF8D880364CD8F800300493049823684D
:10242000344FC01A09F0F8F8314609F04DF9324935
:1024300009F0FEF9304909F0FBF9396809F03CF878
:10244000D8F800300393039B38602360E2E5274A05
:10245000274B12680892089A1A60DBE50021286869
:1024600004F014FE40F6E44100230A2201FB0BF1C4
:10247000B1FBF0F1174805F0FDFB01211F4807F003
:10248000EDFEB4F89810134805F034FCD9F800B00C
:102490000FE7104805F0DEFBE36F012B4FF00B0157
:1024A0000CBF1748174807F0D9FE0C210C4807F05D
:1024B000D5FEEEE600709446007094C62487FF1F98
:1024C000F4CAFF1F50CCFF1F38CCFF1F17B7D138FD
:1024D000600E0100D087FF1FD0030100D40301006C
:1024E000C00301000000FA430000FAC334CEFF1F0E
:1024F0005892FF1F28CCFF1F00007A44940201006D
:10250000A8030100B40301005CCCFF1F2DE9F043D8
:10251000AB4D2B6883B0002B00F08780A94CAA4EEE
:10252000E36FAA4FA74D012B00F0BF80D4F8803095
:10253000DFF89082012B00F0ED80D8F85850D7F8E2
:102540000090D8F8548005FB08F54FF47A7000FB32
:1025500005F009F065F89E49DFF86C8205464846AB
:1025600009F0B2F8294609F063F99A4909F0ACF884
:1025700009F070FA632830604BDD2846944909F071
:1025800057F96423C8F80030934B38601B68002B60
:1025900048D0E36F8B4D012B00F0ED80032B00F052
:1025A000FD80022B00F0008102218C4807F056FECE
:1025B0008B4B186808F0DEFB022402460B460094A1
:1025C000884805F0A1FB2146874807F047FE2146D1
:1025D000824807F043FE3168824805F08BFB0621F4
:1025E000824807F03BFE3868794909F06DF808F039
:1025F000C1FB009402460B467A4805F085FB032197
:102600007B4807F02BFE774803B0BDE8F04305F0A8
:1026100021BB0028BCBF0023C8F800306E4B1B68EC
:10262000002BB6D103B0BDE8F0837248654CFEF7CD
:102630006BFC7149A76EE66E09F046F809F030FAB6
:10264000226F636FD21B9B1B80B29342A0EB0700EB
:10265000C0F29D8003FB00F393FBF2F333445A4E28
:102660005E483360022107F0F9FD31685D48574F3D
:1026700005F040FB0221594807F0F0FD3268A06DDB
:10268000636D02FB00F003FB00F000EB80004000F4
:1026900008F0C6FF4E4909F0CBF801232B60E36F29
:1026A0003860012B474D7FF441AF5248FEF72CFCB8
:1026B0005149D5F86890D5F86C8009F005F809F013
:1026C000EFF92A6F6B6FC9EB0202C8EB030380B20C
:1026D0009A42C9EB00006CDD03FB0000531C90FB29
:1026E000F3F303EB0800A26D636D306002FB00F0B2
:1026F00003FB00F000EB8000400008F091FF34493C
:10270000DFF8C08009F094F8D4F880303860012BED
:102710007FF413AF3748FEF7F7FB3749D8F86890D6
:10272000D8F86C5008F0D0FF09F0BAF9D8F870204A
:10273000D8F87430D4F85480C9EB02025B1B80B225
:102740009A42C9EB0000C6BF03FB000001325843A8
:1027500090FBF2F02844A56D00FB05F008FB00F0AB
:1027600000EB8000400008F05BFF194909F060F8B9
:1027700081463860E7E6214B1B68012B4FF00A01C8
:102780000CBF1F481F4807F069FDEB6F06E703FB0E
:102790000000531C90FBF3F3334460E710211A4808
:1027A00007F05CFDE36FFCE60721184807F056FDD3
:1027B000FAE603FB00F393FBF2F303EB080092E766
:1027C000E8CBFF1F10CBFF1F3487FF1F28CCFF1F54
:1027D000E4388E3E0000C8422887FF1F600E0100CB
:1027E000FCCAFF1FD087FF1FE40301001C04010087
:1027F00024040100F893FF1F00007A442487FF1F80
:10280000E8030100F40301000004010014040100C6
:1028100030B5112083B006F043F8012818D01220FB
:1028200006F03EF8012813D000210B2006F032F804
:1028300000210C2006F02EF80021152006F02AF8C1
:102840002649274B0120002208701A6003B030BDD2
:102850000121152006F01EF8224A234C234B126852
:10286000D4F8841001921B68019A1D4D0B449342C9
:102870004FF00201296005D901210C2006F00AF869
:1028800003B030BDD4F88C0008F0CAFE184B1968AC
:1028900009F0B8F80028EFD101210B2005F0FAFF6C
:1028A00094F8C03003242C6043B10C4B02221A7000
:1028B00000210C2005F0EEFF03B030BD122005F022
:1028C000EFFF012808BF054B4FF0110008BF1C7037
:1028D00005F0E6FF0128EBD1E7E700BF04CBFF1FBF
:1028E000F492FF1F34CEFF1F10CBFF1F68CAFF1FDB
:1028F000FCCAFF1FF0B5684E684D34682B689C42D7
:1029000087B039D014F0010155D014F0020149D03C
:1029100014F004013DD0E3070ED52B68DF070BD47C
:102920005F4F3A68002A00F082805E4B1B6801937B
:10293000019B93426DD83468A0070DD52B68990789
:102940000AD4594F3A68002A4CD0564B1B6803935F
:10295000039B934238D8346862070DD52B685B0718
:102960000BD4524F3A68002A7ED04E4B1B68059319
:10297000059B934268D834680CB107B0F0BD21467E
:10298000162005F007FE2146172005F003FE07B0CC
:10299000F0BD052005F0FEFD2B68346803F0FB0355
:1029A0002B60B8E7172005F0F5FD2B68346803F0BD
:1029B000FD032B60ACE7162005F0ECFD2B683468B6
:1029C00003F0FE032B60A0E7394B1720D3F88810E3
:1029D00005F0E0FD2B68346843F0020300222B6011
:1029E0003A60B9E7334805F035F90C21324807F071
:1029F00035FC304805F02EF9FF21172005F0CAFDFF
:102A0000284B2E4A19680291029912680A443A60CA
:102A10009CE7274B1620D3F8881005F0BBFD2B68E8
:102A2000346843F0010300222B603A6084E7FF2101
:102A3000162005F0AFFD1B4B204A19680091009944
:102A400012680A443A6071E7194B0520D3F88810E0
:102A500005F0A0FD2B68346843F0040300222B60CE
:102A60003A60002C89D18AE7124805F0F3F80C216E
:102A7000134807F0F3FB0F4805F0ECF8FF210520A1
:102A800005F088FD074B0D4A1968049104991268F6
:102A90000A443A606AE700BFF492FF1F44CCFF1F6C
:102AA000DCCBFF1F34CEFF1FECCBFF1FF0CBFF1F93
:102AB00010CBFF1FD087FF1F280401003C87FF1F9A
:102AC000380401002DE9F047544EDFF87481DFF837
:102AD00074913068524D00220F2104F0FFFA002358
:102AE000012222214F48C8F80030C9F8002007F021
:102AF000B5FBD8F80030132B22DC40F6E447002168
:102B00003068B5F898A004F03BFB0021044630681B
:102B100004F0BCFAA4B2012107FB04F4B4FBF0F406
:102B200041485444A5F8984007F098FB642005F00C
:102B3000EDFED8F800300133132BC8F80030DEDD8D
:102B4000B5F89830394A3A48A2FB03129B1A02EBB7
:102B50005303C3F30F131946A5F8983005F0CAF8CC
:102B60001D21344807F07AFB0221334807F076FB39
:102B70002F4805F06FF800231A460E213068C8F878
:102B8000003004F0ABFA022322212648C9F80030B5
:102B900007F064FBD8F80030132B22DC40F6E44742
:102BA00000213068B5F89A9004F0EAFA0021044652
:102BB000306804F06BFAA4B2012107FB04F4B4FB03
:102BC000F0F419484C44A5F89A4007F047FB6420FC
:102BD00005F09CFED8F800300133132BC8F8003004
:102BE000DEDDB5F89A30114A1148A2FB03129B1A98
:102BF00002EB5303C3F30F131946A5F89A3005F0FF
:102C000079F81D210D4807F029FB02210A4807F039
:102C100025FB0748BDE8F04705F01CB850CCFF1F66
:102C200010CBFF1F480401008C0401008761188647
:102C3000D087FF1F6C040100600E010090040100AA
:102C40006092FF1F2487FF1F2DE9F843C04BC14C42
:102C5000C14E1B68306D40F2513108222160E27193
:102C6000002B40F06F8108F0DBFC7169054608F02D
:102C70002BFDBA49B84F08F027FD08F011FF80B2CC
:102C800003126372B64AB74B12681B682072A372B4
:102C900028461B121512E3722273B169657308F09E
:102CA00013FDAE49AB4D08F00FFD08F0F9FE83B2FD
:102CB0001A122946AC48A373E27304F031F8AB4A08
:102CC000AB4B12681988A172D3B2237203EB830352
:102CD0005B00237302EB820343F3D7134FEA212EE9
:102CE00012124FF008084FF00009294663739E48FE
:102CF00084F80BE040F255336272236084F8078059
:102D000084F80E9084F80F9004F00AF840F25633DD
:102D10009848236084F80780FEF76CF8964908F01D
:102D2000D3FC08F0BDFE20729248FEF763F892498A
:102D300008F0CAFC08F0B4FE904A8F49C0F307239C
:102D40006372106808F074FD08F084FE40FA08F31E
:102D5000A0728848E372FEF76FF8804908F0B4FC6F
:102D600008F078FE20738348FEF766F87B4908F088
:102D7000ABFC08F06FFE40F30720294660737A48E9
:102D800084F80E9084F80F9003F0CAFF022005F03B
:102D9000BDFD7B4A7B4B117821725178907861722E
:102DA000D178A0721A789878E17259782273617399
:102DB000DA78A07340F25A3329466B48E2732360F5
:102DC00084F8078003F0ACFF6F4B67481A782272D3
:102DD0005A7862729A78A272DA78E2721A79227359
:102DE0005A7962739A79DB79E373294640F25E334C
:102DF000A273236084F8078003F092FF022005F09D
:102E000085FD624B58481A7822725A7862729A7815
:102E1000A272DA78E2721A7922735A7962739A7915
:102E2000DB79E37329464FF45C73236084F80780F1
:102E3000A27303F075FF564B1B68012B00F0AE80A8
:102E4000022005F063FDB36D2373022500221B12DF
:102E5000284640F273380827637322720123627296
:102E60009922A273E372E373A572C4F80080E7713C
:102E700005F04CFD3F48C4F80080E771FDF770FF96
:102E8000444908F021FC08F00BFE20723948FDF798
:102E900067FF404908F018FC08F002FEC0F3072362
:102EA00034486372FDF782FF3A4908F00DFC08F0E0
:102EB000F7FDA0722F48FDF779FF364908F004FCB2
:102EC00008F0EEFDC0F307232A48E372FEF71AF874
:102ED000314908F0F1FA08F0E3FD20732548FEF7C8
:102EE00011F82D4908F0E8FA08F0DAFDC0F30723DD
:102EF00020486373FEF704F8274908F0DDFA08F06C
:102F0000CFFDA0731B48FDF7FBFF234908F0D4FA5F
:102F100008F0C6FD0F49C0F307231348E37303F01D
:102F2000FFFE284605F0F2FC726DB36DE57112FBF1
:102F300003F3C3F3072140F27932237261722260F6
:102F4000BDE8F88308F06CFB316A05468FE600BFE8
:102F50008892FF1F6492FF1F10CBFF1F00002041CB
:102F60003CCCFF1F7892FF1F70CCFF1F3487FF1FE0
:102F70003A87FF1FF893FF1F0000C842FCCAFF1FDB
:102F8000F8CAFF1F5092FF1F5887FF1F6087FF1F5F
:102F90001CCCFF1F00007A44339388432648FDF77A
:102FA000DFFEF96C08F088FA81462348FDF7FEFE43
:102FB0000146484608F026FD00283FF441AF40F2A4
:102FC000C3331D4885F807802B60FDF7C9FEBF6C31
:102FD000394608F017FDC8B11849384608F074FBA7
:102FE00008F05EFD80B240FA08F368722B7200238D
:102FF00001270425032212491248A772E5722273A1
:103000006373A373E37303F08BFE19E70A48FDF7BC
:10301000A7FE0A4908F058FB08F042FDC0F3072359
:1030200005482B72FDF79CFE044908F04DFB08F0A3
:1030300037FD6872DBE700BFF893FF1F00007A449A
:103040006492FF1F70CCFF1FF0B58D4C8D4D83B087
:1030500007F09EF823682860042B00F08F82022B73
:103060004AD0082B00F09180072B40F031813328A3
:1030700001F0FF8300F39580312801F0E4833228CA
:1030800040F08B8007F0C0F8002840F31F817E4895
:103090007E4E04F073FF08F0C3FA7D4908F014FB7C
:1030A00061230122F06322602B601846A0F15203D5
:1030B0001F2B72D8DFE813F0430B71007100710011
:1030C0007100710071007100710071007100710078
:1030D000710071007100B103D80C2805BE0594047D
:1030E00071007100710025047100D50C7100710030
:1030F000710071007100450BA0F13103422B4CD8D7
:10310000DFE813F0CF06DB06E906F60609074A07F3
:103110004B004B004B004B004B004B004B004B0057
:103120004B004B004B004B004B004B004B004B0047
:103130004B004B004B004B004B004B004B004B0037
:103140004B004B004B004B004B004B004B004B0027
:103150004B004B004B004B004B004B004B004B0017
:103160004B004B004B004B0057074B004B004B00F4
:103170004B004B004B004B004B004B004B004B00F7
:103180004B004B0054004B00C206322800F0128363
:1031900071280BD0312800F0228373280AD003B0A5
:1031A000F0BD342801F078837128F6D10022732312
:1031B00022602B602368002BF1D1364E324804F098
:1031C00049FD0421344807F049F82F4804F042FD36
:1031D0001021324807F042F82B4804F03BFD132140
:1031E0002F4807F03BF82F4B2748196804F082FD61
:1031F000254804F02FFD14212B4807F02FF8224812
:1032000004F028FD1E21294807F028F81E4804F084
:1032100021FD1521264807F021F81B4804F01AFD6E
:103220001E21244807F01AF8174804F013FD202146
:10323000214807F013F8144804F00CFD19211F4829
:1032400007F00CF8104804F005FD12211C4807F0A7
:1032500005F80D4804F0FEFC0F211A4806F0FEFFA9
:10326000094804F0F7FC0D21174806F0F7FF06485F
:1032700004F0F0FC002201233260236003B0F0BDB3
:1032800058CCFF1F54CAFF1FD087FF1F10CBFF1F52
:103290006F12833A2887FF1FFC0701000408010012
:1032A000180801004887FF1F2C080100440801008E
:1032B000640801007C0801009C080100C0080100AE
:1032C000DC080100F00801000009010023682868FB
:1032D000062B40F08D80A0F13103402B3FF65DAF0F
:1032E00001A252F823F000BF393E0000E73D000084
:1032F000133E00008F3D0000B53D0000653E00001C
:10330000D33D00009B3100009B3100009B31000049
:103310009B3100009B3100009B3100009B3100007D
:103320009B3100009B3100009B3100009B3100006D
:103330009B3100009B3100009B3100009B3100005D
:103340009B3100009B3100009B3100009B3100004D
:103350009B3100009B3100009B3100009B3100003D
:103360009B3100009B3100009B3100009B3100002D
:103370009B3100009B3100009B3100009B3100001D
:103380009B3100009B3100009B3100009B3100000D
:103390009B3100009B3100009B3100009B310000FD
:1033A0009B3100009B3100009B3100009B310000ED
:1033B0009B3100009B3100009B3100009B310000DD
:1033C0009B3100009B3100009B3100009B310000CD
:1033D0009B3100009B3100009B3100009B310000BD
:1033E0009B3100009B310000AD310000236828684C
:1033F000052B15D1332801F0728240F3498135281D
:1034000001F09482C1F27C8271287FF4C6AEDD495E
:10341000002373220B6023602A60CBE623682868B0
:10342000032B40F0A480A0F13003422B3FF6B5AE51
:1034300001A252F823F000BF45350000AB46000062
:10344000D3460000FB4600001D4700003945000040
:103450006145000089450000A7450000CB450000FC
:103460009B3100009B3100009B3100009B3100002C
:103470009B3100009B3100009B3100009B3100001C
:103480009B3100009B3100009B3100009B3100000C
:103490009B3100009B3100009B3100009B310000FC
:1034A0009B3100009B3100009B3100009B310000EC
:1034B0009B3100009B3100009B3100009B310000DC
:1034C0009B3100009B3100009B3100009B310000CC
:1034D0009B3100009B3100009B3100009B310000BC
:1034E0009B3100009B3100009B3100009B310000AC
:1034F0009B3100009B3100009B310000F345000030
:10350000A9400000114600002F4600004D46000073
:103510006B4600005F400000834000009B310000CC
:103520009B3100009B3100009B3100009B3100006B
:103530009B3100009B3100009B310000AD31000049
:103540000345000006F060FE002841F375818E48B7
:103550008E4E04F013FD01270346014662228C487B
:10356000736527602A60FDF747FC23682868012BF4
:103570003FF49CAD73287FF412AE1BE6A0F131033B
:10358000402B3FF60AAE01A252F823F0BF3F0000E5
:10359000DB3F0000DF3F0000034000000740000069
:1035A0002340000035400000394000003D4000004D
:1035B0009B3100009B3100009B3100009B310000DB
:1035C0009B3100009B3100009B3100009B310000CB
:1035D0009B3100009B3100009B3100009B310000BB
:1035E0009B3100009B3100009B3100009B310000AB
:1035F0009B3100009B3100009B3100009B3100009B
:103600009B3100009B3100009B3100009B3100008A
:103610009B3100009B3100009B3100009B3100007A
:103620009B3100009B3100009B3100009B3100006A
:103630009B3100009B3100009B3100009B3100005A
:103640009B3100009B3100009B3100009B3100004A
:10365000D73F00009B3100009B3100009B310000F0
:103660009B3100009B3100009B3100009B3100002A
:103670009B3100009B3100009B3100009B3100001A
:103680009B3100009B3100009B310000AD310000F8
:10369000312801F0138132287FF47FAD06F0B4FDAC
:1036A00000287FF7BBAE3848384E04F067FC012293
:1036B0006B23C6F88C0022602B6001E006F068FDE9
:1036C00006F0A2FD0028F9D12F4804F0C3FA2E48D5
:1036D00004F0C0FA2C4804F0BDFA2B4804F0BAFA02
:1036E000294804F0B7FA21212A4806F0B7FD2648F8
:1036F00004F0B0FA1521284806F0B0FDD6F8841081
:10370000214804F0F7FA0221244806F0A7FD1E48DC
:1037100004F0A0FA1E21224806F0A0FDD6F88C1075
:10372000194804F0E7FA03211E4806F097FD1648F1
:1037300004F090FA1E211C4806F090FDD6F888107F
:10374000114804F0D7FA104804F084FA1D211748F4
:1037500006F084FDD6F8A4100B4804F0CBFA0A4812
:1037600004F078FA1E21124806F078FDD6F8A81069
:10377000054804F0BFFA044804F06CFA05232360FE
:103780000DE500BF7C92FF1FD087FF1F10CBFF1FEE
:10379000F893FF1F40070100640701005006010075
:1037A0007C070100D00301009C070100BC07010059
:1037B000DC07010006F028FD002840F3E08276488F
:1037C000764E04F0DBFB07F02BFF754907F07CFF1A
:1037D0000346024696F840107248736414E006F0FF
:1037E00013FD002840F3CF826B486C4E04F0C6FBFB
:1037F000C0B286F84000022894BF01460021726CD6
:10380000684888BF86F84010FDF7F8FA0123692060
:10381000236028604AE406F0BBFC06F0F5FC054690
:103820000028F8D15C485D4E04F014FA5A4804F0C0
:1038300011FA594804F00EFA574804F00BFA5648AA
:1038400004F008FA1F21584806F008FD524804F019
:1038500001FA1C21554806F001FD706A544907F031
:1038600033FF07F087FA009502460B464A4804F0FA
:103870004BFA02214F4806F0F1FC474804F0EAF900
:1038800023214D4806F0EAFCF06B494907F01CFF84
:1038900007F070FA009502460B463F4804F034FAF0
:1038A0000221444806F0DAFC3B4804F0D3F9192120
:1038B000424806F0D3FCB06B07F05CFA02250B46D9
:1038C00002460095344804F01FFA29463C4806F0A9
:1038D000C5FC314804F0BEF919213A4806F0BEFC97
:1038E000B6F8B8102C4804F005FA0321364806F063
:1038F000B5FC294804F0AEF9072323604FE406F035
:1039000047FC06F081FC05460028F8D12248234EEA
:1039100004F0A0F9204804F09DF91F4804F09AF93A
:103920001D4804F097F91C4804F094F91521274824
:1039300006F094FC184804F08DF91821244806F08C
:103940008DFC2B460A2296F84010134804F092F999
:10395000114804F07FF928211E4806F07FFC706CA6
:10396000134907F0B1FE07F005FA00950B46024631
:10397000094804F0C9F902210E4806F06FFC064818
:1039800004F068F91321144806F068FC024804F0BA
:1039900061F90823236002E4D087FF1F10CBFF1FCB
:1039A0006F12833AF893FF1F9C060100BC060100CA
:1039B00000007A4428050100DC0601000007010030
:1039C0001C070100200701003C070100C40801009A
:1039D000E0040100FC0401002C05010006F0D8FB06
:1039E00006F012FC05460028F8D17D487D4E04F013
:1039F00031F97B4804F02EF9794804F02BF9784826
:103A000004F028F9764804F025F91121764806F0EB
:103A100025FC734804F01EF92821744806F01EFCAA
:103A20007069734907F050FE07F0A4F9009502464B
:103A30000B466B4804F068F902216E4806F00EFC54
:103A4000674804F007F916216B4806F007FCF06997
:103A5000674907F039FE07F08DF900950B460246DD
:103A60005F4804F051F90221624806F0F7FB5C4818
:103A700004F0F0F8D6F8B030002B32DD1D215F489D
:103A800006F0ECFBF06D07F0CBFD5D4907F01CFE86
:103A900007F070F9022502460B460095504804F0E5
:103AA00033F90121574806F0D9FB4D4804F0D2F80C
:103AB0001F21554806F0D2FB306E07F0B1FD50498A
:103AC00007F002FE07F056F9009502460B464448FF
:103AD00004F01AF901214B4806F0C0FB404804F0FD
:103AE000B9F81121494806F0B9FBD6F8B030052BDA
:103AF00000F25286DFE813F096069B0691068C06CC
:103B000087064C0606F044FB06F07EFB0028F9D140
:103B10003348344E04F09EF8314804F09BF83048A6
:103B200004F098F82E4804F095F82D4804F092F827
:103B30001F21374806F092FB294804F08BF81E211C
:103B4000344806F08BFB264804F084F81A213248EA
:103B500006F084FBF36F022B00F04587032B00F087
:103B60003987012B00F02D8709212C4806F076FBC0
:103B70001B4804F06FF8142129481A4F06F06EFB19
:103B8000B16F174804F0B6F8154804F063F81C212B
:103B9000244806F063FBD6F88010114804F0AAF818
:103BA0000F4804F057F81C211F4806F057FBD6F8C1
:103BB000AC100B4804F09EF8094804F04BF8F56F80
:103BC00025F00205012D00F0CC861321174806F0E0
:103BD00045FB034804F03EF802232360FFF7DFBAF9
:103BE000D087FF1F10CBFF1F6808010040050100B0
:103BF00000007A44280501006C05010084050100DD
:103C0000CDCCCC3D480B0100A4050100C40501004A
:103C1000080A0100280A0100480A0100C00A010040
:103C2000CC0A0100E40A0100040B01002C0501008C
:103C300006F0AEFA06F0E8FA0028F9D1BD4804F023
:103C400009F8BC4804F006F8BA4804F003F8B9488B
:103C500004F000F8B74803F0FDFF1321B64806F062
:103C6000FDFAB44803F0F6FF0D21B44806F0F6FA69
:103C7000B04803F0EFFF0F21B14806F0EFFAB14B67
:103C8000AC48196804F036F8AA4803F0E3FF1321A2
:103C9000AD4806F0E3FAAD4BA648196804F02AF8DF
:103CA000A44803F0D7FF1221A94806F0D7FAA94B80
:103CB000A048196804F01EF89E4803F0CBFF1121BC
:103CC000A54806F0CBFAA54B9A48196804F012F8FB
:103CD000984803F0BFFF0E21A14806F0BFFAA14BA0
:103CE0009448D3F8A01004F005F8924803F0B2FF0E
:103CF00019219D4806F0B2FA9C4B8E48196803F0D2
:103D0000F9FF8C4803F0A6FF1121994806F0A6FAA6
:103D1000984B8848196803F0EDFF864803F09AFF36
:103D20001021954806F09AFA944B8248196803F0DE
:103D3000E1FF804803F08EFF1C21914806F08EFAC7
:103D4000904B7C48196803F0D5FF7A4803F082FF56
:103D500013218D4806F082FA8C4B7648196803F0DF
:103D6000C9FF744803F076FF1321894806F076FAFC
:103D7000704803F06FFF04232360FFF710BA236835
:103D80002868FFF771B9774E96F8400033E506F0E2
:103D90003BFA00287FF72AAB6648724E04F0EEF833
:103DA00000EB80004300012265203366226028601A
:103DB000FFF77CB96B4AD2F8B0300133052BC8BF8E
:103DC0000023C2F8B0300123652023602860FFF78C
:103DD0006DB9644B93F8C020002A00F0B58500222D
:103DE00083F8C020EFE706F00FFA00287FF7FEAA5D
:103DF00050485C4E04F0C2F807F012FC654907F029
:103E000017FD65230122F06122602B601846FFF741
:103E10004DB906F0F9F900287FF7E8AA4548514E58
:103E200004F0ACF800EB8000430001226520F3654C
:103E300022602860FFF73AB906F0E6F900287FF71C
:103E4000D5AA3C48474E04F099F807F0E9FB5149E0
:103E500007F0EEFC65230122706122602B6018469A
:103E6000FFF724B906F0D0F900287FF7BFAA314840
:103E70003C4E04F083F865230122C6F8B4002260AA
:103E80002B601846FFF712B9364AD36F0133032B64
:103E9000C8BF0023D3670123632023602860FFF796
:103EA00005B9304EB36FB3FA83F35B090122632087
:103EB000B36722602860FFF7F9B82A4ED6F8803041
:103EC000B3FA83F35B0901226320C6F880302260D5
:103ED0002860FFF7EBB80123236006F095F900286E
:103EE000D9DD14481F4E04F049F8C6F8AC00D2E7FB
:103EF0000123236006F088F9002807DD0D48194EDC
:103F000004F03CF807F08CFBC6F8940063202860AE
:103F10002368FFF7A9B80123236006F075F900288C
:103F2000F4DD04480F4E04F029F807F079FBC6F8D9
:103F30009000EBE7D087FF1F100901002409010062
:103F4000340901004CCCFF1F44090100F4CAFF1FD3
:103F50005809010020CCFF1F6C09010008CBFF1F8E
:103F60008009010010CBFF1F900901005C92FF1F28
:103F7000AC0901007C92FF1FC00901004C92FF1F99
:103F8000D40901004487FF1FF4090100D8CBFF1FAB
:103F90002C05010000007A440123236006F034F967
:103FA0000028B3DD4848494E03F0E8FFA6F8BA0000
:103FB000ACE7FEF787FD23682868FFF752B8444A4C
:103FC0001368B3FA83F35B09012164201360216055
:103FD0002860FFF76BB83F4AF2E73F4AF0E73F4AF5
:103FE0003F4F1368002B0CBF012100214FF001034C
:103FF0001160236040F0008564222A606420FFF78E
:1040000030B8384ADCE7314ED6F8A030B3FA83F343
:104010005B0901226420C6F8A03022602860FFF707
:1040200045B8012330482360FCF744FD2F4A23683C
:104030001060E1E72E4AC3E72E4AC1E7012323605F
:1040400006F0E2F8002800F384842B4B1A68042A57
:10405000C4BF02221A6064232B602368CEE706F0F7
:10406000D3F800280DDD1848184E03F087FF07F03D
:10407000D7FA224907F0DCFB01226223306222607A
:104080002B6006F0C1F800280EDD0F480F4E03F03C
:1040900075FF07F0C5FA194907F0CAFB0122622330
:1040A000C6F8BC0022602B6006F0AEF8002840F392
:1040B000C3830548054E03F061FF01226223B06609
:1040C00022602B601EE000BFD087FF1F10CBFF1FB8
:1040D0004CCCFF1FD8CBFF1FF4CAFF1F20CCFF1F03
:1040E00058CCFF1F08CBFF1FF893FF1F5C92FF1FE8
:1040F0007C92FF1F4C92FF1F4487FF1F00007A44F1
:1041000006F046F806F080F805460028F8D1C248C7
:1041100003F0A0FDC04803F09DFDBF4803F09AFDE9
:10412000BD4803F097FDBC4803F094FD1521BB4842
:1041300006F094F8B84803F08DFD1421B84806F055
:104140008DF8B54803F086FD1B21B64806F086F8C9
:10415000B14803F07FFD1321B34806F07FF8AE4865
:1041600003F078FDAC4803F075FDAB4803F072FD39
:104170002021AE4806F072F8F068AD4907F0A4FAC5
:1041800006F0F8FD009502460B46A34803F0BCFD7F
:104190000221A84806F062F80221A74806F05EF85E
:1041A0009D4803F057FD2121A44806F057F83069D7
:1041B0009F4907F089FA06F0DDFD009502460B469F
:1041C000954803F0A1FD02219A4806F047F8022124
:1041D000994806F043F8904803F03CFD1F219848A9
:1041E00006F03CF8B06A06F0C5FD022702460B4611
:1041F0000097894803F088FD0121924806F02EF8C7
:1042000039468D4806F02AF8834803F023FD202123
:104210008D4806F023F8F06A06F0ACFD00970246E0
:104220000B467D4803F070FD0121864806F016F824
:104230003946814806F012F8774803F00BFD232138
:10424000824806F00BF8B06C794907F03DFA06F0A9
:1042500091FD009502460B466F4803F055FD394627
:10426000744805F0FBFF3946734805F0F7FF6A48CC
:1042700003F0F0FC1F21764805F0F0FFF06C6C496C
:1042800007F022FA06F076FD009502460B466248DA
:1042900003F03AFD3946674805F0E0FF39466648C5
:1042A00005F0DCFF5C4803F0D5FC1921694805F0F6
:1042B000D5FFB16D584803F01DFD3946664805F03D
:1042C000CDFF39465C4805F0C9FF534803F0C2FCF6
:1042D0001821624805F0C2FF706E07F0A1F960492D
:1042E00007F0F2F906F046FD009702460B464A48F1
:1042F00003F00AFD01215B4805F0B0FF39464E4846
:1043000005F0ACFF444803F0A5FC2B21564805F00E
:10431000A5FFB069464907F0D7F906F02BFD0095D7
:1043200002460B463C4803F0EFFC3946414805F095
:1043300095FF3946404805F091FF374803F08AFC65
:104340001F214A4805F08AFF716D334803F0D2FC03
:104350003946394805F082FF2F4803F07BFC2021C5
:10436000434805F07BFF316D2B4803F0C3FC394611
:10437000314805F073FF284803F06CFC10213D48DC
:1043800005F06CFFB16E244803F0B4FC39462948AF
:1043900005F064FF3946284805F060FF1E4803F029
:1043A00059FC1321344805F059FFF16E1A4803F007
:1043B000A1FC0121314805F051FF39461E4805F0A6
:1043C0004DFF154803F046FC10212D4805F046FF2F
:1043D000316F114803F08EFC3946164805F03EFF58
:1043E0003946154805F03AFF0B4803F033FC142119
:1043F000244805F033FF716F074803F07BFC01216F
:104400001E4805F02BFF39460B4805F027FF0248F0
:1044100003F020FC162137E0D087FF1F900B01002E
:10442000A80B0100C00B01002C050100DC0B0100F2
:1044300000007A4428050100600E0100000C010014
:10444000240C010010010100440C0100680C010063
:104450008C0C0100AC0C0100C80C0100CC0C01005C
:10446000CDCCCC3D480B0100E80C0100140D01003F
:10447000340D0100580D01006C0D0100800D01008C
:10448000840D0100980D0100B64805F0E7FE306A82
:10449000B54907F019F906F06DFC009502460B4688
:1044A000B24803F031FC3946B14805F0D7FE394631
:1044B000B04805F0D3FEAD4803F0CCFB2421AE4854
:1044C00005F0CCFED6F8BC00A74907F0FDF806F0D1
:1044D00051FC00950B460246A44803F015FC3946F2
:1044E000A34805F0BBFE3946A24805F0B7FE9F4839
:1044F00003F0B0FB9D4803F0ADFB03232360FEF700
:104500004EBE9E4B9B489E4E002202211A6005F033
:10451000A5FE964803F09EFB0B219A4805F09EFEEF
:104520000221944805F09AFE904803F093FB012283
:10453000622322602B60E5E505F066FE002840F36B
:104540007B818A488E4E03F019FD07F069F8864991
:1045500007F06EF901226223B06422602B60D1E57E
:1045600005F052FE002840F367818048844E03F036
:1045700005FD07F055F87C4907F05AF9012262233E
:10458000F06422602B60BDE505F03EFE002840F39C
:10459000538176487A4E03F0F1FC01226223B06524
:1045A00022602B60AEE505F02FFE002840F3448129
:1045B0006E48734E03F0E2FC00EB800043000121E3
:1045C0006222736621602A609CE505F01DFE0028CA
:1045D00040F3328165486A4E03F0D0FC07F020F8C2
:1045E000614907F025F901226223B06122602B6046
:1045F00088E505F009FE002840F31E815B48604E07
:1046000003F0BCFC01226223306522602B6079E557
:1046100005F0FAFD002840F30F815448584E03F08E
:10462000ADFC01226223F06622602B606AE505F092
:10463000EBFD002840F300814C48514E03F09EFCF6
:1046400001226223306722602B605BE505F0DCFD10
:10465000002840F3F1804548494E03F08FFC0122C9
:104660006223706722602B604CE5FCF7E7FE0221B5
:104670004048434E05F0F2FD3C4803F0EBFA0221BE
:104680003C4805F0EBFD394803F0E4FA02213948D3
:1046900005F0E4FD354803F0DDFA17213A4805F04E
:1046A000DDFD324803F0D6FA3AE705F0ADFD00280B
:1046B00040F3C2802D48324E03F060FC06F0B0FF9C
:1046C000294907F0B5F801226223F06022602B60CF
:1046D00018E505F099FD002840F3AE802348284EE8
:1046E00003F04CFC06F09CFF1F4907F0A1F80122E3
:1046F0006223306122602B6004E505F085FD00280F
:1047000040F39A8019481E4E03F038FC06F088FFEB
:1047100001226223B06222602B60F3E405F074FD95
:10472000002840F389801148154E03F027FC06F05D
:1047300077FF01226223F06222602B60E2E404F042
:10474000F5FEC42200210E48104E03F00BFD2B682D
:1047500001210022732B316022607EF420ADFEF730
:104760002DBD00BFB00D010000007A44D087FF1FAF
:1047700028050100600E0100C80D0100E8CBFF1FF5
:1047800010CBFF1FD4040100BC0401002887FF1FC9
:104790000B21B74805F062FDB648B74D03F05AFA51
:1047A000D6F8B030002B12DD1821B44805F056FDC4
:1047B000D5F8B410AF4803F09DFA0221B04805F0D7
:1047C0004DFDAC4803F046FAAA4803F043FA1B211A
:1047D000AC4805F043FD96F8C030012B15BF1221FF
:1047E0001421A948A94805F039FDA24803F032FA7E
:1047F0001321A74805F032FD9E4803F02BFA06234B
:104800002360FEF7CCBC0D21A24805F027FDC3E7CD
:104810000D21A14805F022FDBEE70C219F4805F0BF
:104820001DFDB9E70D219E4805F018FDB4E70C21E8
:104830009C4805F013FDAFE723682868012B7EF440
:1048400099AEFEF733BC05F0DFFC00287EF73EADE5
:104850008848894E03F092FB06F0E2FE924906F08A
:1048600033FF61230122706222602B601846FEF73D
:104870001DBC05F0C9FC00287EF728AD7D487E4EA2
:1048800003F07CFB06F0CCFE61230122B0632260C2
:104890002B601846FEF70ABC05F0B6FC00287EF730
:1048A00015AD7448744E03F069FB61230122A6F82C
:1048B000B80022602B601846FEF7F8BB05F0A4FC98
:1048C00000287EF7ABAD6B486B4E03F057FB01221F
:1048D0006B23C6F8840022602B60FEF7F1BE05F062
:1048E00093FC00287EF79AAD6248634E03F046FBC6
:1048F00001226B23C6F8880022602B60FEF7E0BE21
:1049000005F082FC00287EF789AD5A485A4E03F024
:1049100035FB664BC6F8A40002221A60FDF7EEF8DC
:1049200001226B2322602B60FEF7CABE05F06CFCEF
:1049300000287EF773AD4F484F4E03F01FFB5B4BD3
:10494000C6F8A8000322E8E7012283F8C020FFF799
:104950003ABA484803F012FB554B02461860FFF77D
:1049600076BB1C21534805F079FCD7F894005249D6
:1049700006F0AAFE06F0FEF9009502460B463D48F9
:1049800003F0C2F905214D4805F068FC394803F0F1
:1049900061F9FD6F012D45D0032D7FF416A91C216F
:1049A000474805F05BFCB6F8BA10324803F0A2F9AC
:1049B0000321444805F052FC2E4803F04BF9FFF761
:1049C00004B91E21404805F049FC2A4803F042F989
:1049D000FFF7D1B820213D4805F040FC254803F001
:1049E00039F9FFF7C8B81721394805F037FC2148D5
:1049F00003F030F9FFF7BFB8364B002631460B20E5
:104A00001E6003F047FF31460C2003F043FF3146A0
:104A1000142003F03FFF3146152003F03BFF3B68B5
:104A2000FFF7EABA1D212C4805F018FCD7F89000D2
:104A3000214906F049FE06F09DF900950B46024615
:104A40000C4803F061F905211C4805F007FC0948F2
:104A500003F000F9FB6F23F00203012B9FD0FFF757
:104A6000B4B8054EFEF72CBE034EFFF74BBB00BF9C
:104A700028060100D087FF1F10CBFF1F340601005E
:104A80005006010054060100700601008406010072
:104A90002C0501001806010008060100F8050100B8
:104AA000D8050100E80501006F12833A7C92FF1FD0
:104AB0004487FF1F240B0100CDCCCC3D440B0100EB
:104AC0006C0B01008C0B0100640A0100840A0100D8
:104AD000A80A0100F492FF1F4C0B010038B5164CD8
:104AE000164A2368101D12F8011F904241EA032361
:104AF000F9D12360124C03F100432360114BDB6FAB
:104B0000022B11D0104B1B68012B00D038BD0F4871
:104B100003F0A0F821680D4803F0ECF803210C48DD
:104B2000BDE8384005F09ABB20680A4D06F078FDD4
:104B30002860FDF73BFAE5E740CCFF1F5FCAFF1F87
:104B4000EC92FF1F10CBFF1F4CCCFF1FD087FF1F25
:104B5000F00D010038CCFF1F30B54B4C4B4883B0F3
:104B6000214601F0D5FF23683C2B68D0A3F19A02BF
:104B7000C52A0AD903F47F63B3F5B87F444D14D036
:104B80002B68012B1DD003B030BD424B404D1B683C
:104B9000012B50D000223C493F48FBF7D1FF23684E
:104BA00003F47F63B3F5B87FEAD13A4B1B68012B5E
:104BB00049D0002234493848FBF7A2FF2B68012B6B
:104BC000E1D1344B1B68012BDDD1344B34481B68D9
:104BD00001930A220023019903F04CF822682A4B22
:104BE000002ADB7949DB2F492F4807F035FD2E4895
:104BF00007F066FD01462C4805F030FB2568224B86
:104C000015F080452AD1DB798BB1631927491A7ACF
:104C1000254807F021FD244807F052FD01462248AF
:104C200005F01CFB0135E379EDB2AB42EDD81C4831
:104C300003F010F8A7E72A68012AABD1ABE7FFF72A
:104C40004DFF236892E72A680F491348A2F1010239
:104C5000B2FA82F25209FBF753FF91E7144D124C5E
:104C60000FCD0FC495E8030044F8040B204620F84C
:104C70001419152105F0F2FAD9E70E490A4822F075
:104C8000604207F0E9FCB2E758CAFF1F70CCFF1F73
:104C90002887FF1F4CCCFF1FF893FF1F34CEFF1F48
:104CA000D087FF1F1C0E010074CAFF1F480E0100B1
:104CB000300E0100F40D0100A24B1B78052B00F013
:104CC000A1802DE9F04FA04CA04EA14D626EE36D86
:104CD000A048326083B02B60FCF714F9E16A06F05B
:104CE00091FE08B100232B609A48FCF709F9A16AEC
:104CF00006F0A6FE10B1002333602B609548FCF748
:104D000055F8E16806F09CFE08B100232B6091483D
:104D1000FCF74CF8E16806F093FE08B100232B6025
:104D20008C48894FFCF71CF8216906F06BFE0028BF
:104D30006ED0002333602B68854F002B53DD8548F0
:104D4000DFF80482FCF7DCF8216B06F05BFE00283C
:104D500040F0C480804B7F481B687B4F012B00F0E4
:104D6000FD80FCF723F8E1698046606906F0A2FB4C
:104D70000146404606F064FE002834D0286806F05C
:104D80004FFC82467348FCF711F8D7F8148083462D
:104D9000F969404606F08EFB8146386E06F040FC0D
:104DA0000446F86D06F03CFC214606F083FB4946BC
:104DB0000746584606F07EFB0146384606F084FC5E
:104DC00049460746404606F075FB0146384606F060
:104DD0002FFD214606F070FB0146504606F06AFBA7
:104DE00006F038FE28603368584A002BAFBF2B68A6
:104DF0002B6800211160002B01DA00232B6003B027
:104E0000BDE8F08F5149524A00230B601360704790
:104E10005048FBF7A5FFB96906F0F4FD002888D1DA
:104E20003368DFF82891002B85DD4A48FCF76AF8E3
:104E3000796B06F005FE002840F0B3804548424FEC
:104E4000FBF78EFF216906F0FBFD002800F09F8034
:104E50004048DFF8F480FBF783FFD4F8BC10074626
:104E6000A06906F029FB0146384606F0CBFD002874
:104E70003FF461AF306806F0D3FB82463548FBF75C
:104E80006FFF8346D8F86400D8F8187006F0C8FBA6
:104E900039468146584606F00DFB494683460020B8
:104EA00006F008FB0146584606F00EFCD8F8BC1088
:104EB0008346384606F000FB394606F0FBFA014609
:104EC000584606F0B5FC494606F0F6FA014650464B
:104ED00006F0F0FA06F0BEFD30602CE7386806F008
:104EE0009FFB83461B48FCF70BF80190D8F85C0049
:104EF000D8F82CA006F094FB019B81465146184639
:104F000006F0D8FA49460190002006F0D3FA019B3A
:104F10000146184606F0D8FB51460190D8F83000FB
:104F200006F0C8FA019B0146184606F081FC494686
:104F300006F0C2FA0146584606F0BCFA06F08AFDB1
:104F4000386007E704CBFF1F10CBFF1F3CCCFF1FCF
:104F50007892FF1FF893FF1F8892FF1FFBF726FF31
:104F6000E1698046206A06F0A5FA0146404606F04F
:104F700067FD00283FF437AF286806F051FB8246F2
:104F80001E48FBF713FFD7F82080834600E71B4835
:104F9000FBF7E6FEB96906F053FD00287FF458AF31
:104FA000C9E6D9F8000006F03BFB82461348FBF740
:104FB000A9FF0190786ED7F8348006F031FB019B91
:104FC00083464146184606F075FA0146584606F0F3
:104FD0007BFB41468346B86A06F06CFA01465846A8
:104FE00006F026FC002106F067FA0146504606F05E
:104FF00061FA06F02FFDC9F800001FE7F893FF1FC4
:1050000008B5274802F026FE0721264805F026F9B4
:10501000112003F045FC0621F8B1234805F01EF9E4
:10502000102003F03DFC062100B3204805F016F9DE
:10503000122003F035FC062108B31D4805F00EF9D7
:10504000132003F02DFC062110BB1A4805F006F9C9
:105050001348BDE8084002F0FDBD174805F0FEF812
:10506000102003F01DFC06210028DED1134805F0B6
:10507000F5F8122003F014FC06210028DDD11048B9
:1050800005F0ECF8132003F00BFC06210028DCD01F
:105090000C4805F0E3F80248BDE8084002F0DABD2C
:1050A000D087FF1F540E01005C0E01006C0E010042
:1050B0007C0E0100940E0100640E0100740E0100CC
:1050C000840E01008C0E010010B5254C2368042BC2
:1050D00027DC01210B2003F0DDFB01210C2003F074
:1050E000D9FB0121142003F0D5FB0121152003F089
:1050F000D1FBFF21162003F04DFAFF21172003F00A
:1051000049FAFF21052003F045FAFF21062003F0AC
:1051100041FA236801330A2B2360C4BF00232360B4
:1051200010BD00210B2003F0B5FB00210C2003F083
:10513000B1FB0021142003F0ADFB0021152003F08A
:10514000A9FB0021162003F025FA0021172003F007
:1051500021FA0021052003F01DFA0021D6E700BF47
:105160005492FF1F30B5092183B0AC4803F0AEFE66
:10517000222003F053FEAA4BD3F8A030012BA94BF9
:105180001B7809D0052B10D8DFE813F02A012F0176
:1051900039013E0134010B00002B00F03A81052B50
:1051A00003D10721A04803F091FE222003F036FE30
:1051B000FF2003F033FEFF2003F030FE9B4CFF2066
:1051C00003F02CFE08219A4803F080FE21689948DC
:1051D00002F090FDFF2003F021FEFF2003F01EFEF1
:1051E000FF2003F01BFE0921934803F06FFE2168A6
:1051F000904802F07FFDFF2003F010FEFF2003F037
:105200000DFEFF2003F00AFE0C218C4803F05EFE29
:105210008B4B8C49186806F00BFB05F0ABFD0024A6
:1052200002460B460094834802F06EFDFF2003F017
:10523000F5FDFF2003F0F2FDFF2003F0EFFD092153
:10524000814803F043FE8148FBF7F6FD05F092FD2F
:10525000009402460B46774802F056FDFF2003F00B
:10526000DDFDFF2003F0DAFDFF2003F0D7FD0C2168
:10527000774803F02BFE7548FBF744FE05F07AFDF6
:10528000009402460B466B4802F03EFDFF2003F0FF
:10529000C5FDFF2003F0C2FDFF2003F0BFFD0D217F
:1052A0006C4803F013FE6948FBF72AFE05F062FD27
:1052B000009402460B465F4802F026FDFF2003F0F3
:1052C000ADFDFF2003F0AAFDFF2003F0A7FD09219B
:1052D000614803F0FBFD5D48FBF78CFD05F04AFDDE
:1052E000009402460B46534802F00EFDFF2003F0E7
:1052F00095FDFF2003F092FDFF2003F08FFD0C21B0
:10530000564803F0E3FD5148FBF72AFD544906F0E7
:10531000DBF905F02FFD009402460B46454802F0EC
:10532000F3FCFF2003F07AFDFF2003F077FDFF2060
:1053300003F074FD0D214B4803F0C8FD4348FBF713
:1053400035FD474906F0C0F905F014FD009402460A
:105350000B46384802F0D8FCFF2003F05FFDFF2029
:1053600003F05CFDFF2003F059FD09213E4803F0E6
:10537000ADFD3E4B2F48196802F0BCFCFF2003F046
:105380004DFDFF2003F04AFDFF2003F047FD0E21F5
:10539000374803F09BFD2D48FBF708FD05462B48D9
:1053A000FBF7DEFC0146284606F084F82C4906F09F
:1053B0008BF905F0DFFC009402460B461D4802F015
:1053C000A3FCFF2003F02AFDFF2003F027FDFF20B0
:1053D00003F024FDFF2003B0BDE8304003F01EBD04
:1053E0000621244803F072FDDFE60721224803F07E
:1053F0006DFDDAE60B21214803F068FDD5E60721B3
:105400001F4803F063FDD0E608211E4803F05EFD4F
:10541000CBE608211C4803F059FDC6E69C0E0100AE
:1054200010CBFF1F04CBFF1F680301003487FF1F51
:10543000B40E0100B487FF1FC00E0100CC0E0100A6
:10544000FCCAFF1F0000C842DC0E0100F893FF1FDA
:10545000E80E0100F80E0100080F0100140F010012
:1054600000007A44240F0100340F01004887FF1F19
:10547000400F010038030100400301004803010010
:10548000540301005C030100A80E01002DE9F04166
:105490008D4DD5F8B030042B3ED0032B6ED0012BB0
:1054A00000F09880022B01D0BDE8F081874C88483D
:1054B000237240F20E32012321462260E37101F093
:1054C0002FFC844B1B685B00FF2BC8BFFF2304210C
:1054D00040224FF441702060E17122726372286DA6
:1054E00006F09EF8696906F0EFF87B49054606F07C
:1054F000A7FA002800F0DE802946284605F0DCFFE8
:1055000006F0CEFA80B20312E072A3726F497048BF
:10551000BDE8F04101F004BC6C4C704AA3792260F4
:1055200043F001030822E271A371286D06F078F8B8
:10553000696906F0C9F86A4906F0C6F806F0B0FADB
:10554000644B684A1B68126893FBF2F380B2002632
:105550001A120712607221465D48E372A272277226
:1055600026736673A673E67301F0DAFBA279D5F8A9
:10557000B03066F30002032BA27190D1534C286D1A
:10558000A3720122E823072140F2FF2622726372F0
:105590002660E17106F044F8696906F095F8504913
:1055A00006F092F806F07CFA4A4B4E4A1B681268E5
:1055B00093FBF2F382B21E12171221464448637322
:1055C000E2722773A67301F0ABFBD5F8B030012B64
:1055D0007FF468AF444B3D4C1B6823600722802357
:1055E0001020E271237203F05BF9002869D13F4B70
:1055F0001B68DFF8E0803B4F286D344E03EB8303DC
:105600005B001A12A3726272D8F800303A6893FBFA
:10561000F2F31A126273A37306F002F8696906F0D6
:1056200053F8334B196805F045FF2D4906F04CF847
:1056300006F036FA80B20312314620732448E37232
:1056400001F06EFB022003F061F92A4B1B68236016
:10565000072280231020E271237203F021F970BB2E
:10566000224B1B68286D03EB83035B001A127272D6
:10567000B37205F0D5FF696906F026F81E4B19686C
:1056800005F018FF164906F01FF806F009FA82B275
:1056900016123868D8F80030227393FBF0F30B49E8
:1056A0000B48A3731A12E672627301F039FBD5F846
:1056B000B030F7E601229023A272E37226E70F4B87
:1056C000CFE70E4B94E700BF10CBFF1F6492FF1F84
:1056D00070CCFF1F7892FF1F00004843F4E50618C6
:1056E000000020413087FF1F6887FF1F2C87FF1FA6
:1056F0007492FF1F6C87FF1F2CCCFF1F4087FF1F7A
:1057000070B50368C57984B0012D8DF805304FEA76
:1057100013230E468DF8043005F1010201A909DDBD
:1057200007300D440DF1050310F8014F03F8014F48
:10573000AB42F9D1034B04489B5D00F0BBFD04B0C4
:1057400070BD00BF44100100F892FF1FF8B5364E3F
:10575000364D33780F2B04BF002333702B78082B82
:1057600055D0334F43F08003324A334C12682360E4
:105770000823E371002A35D1C722102322726372F5
:105780002E4B1B6803B1AA23A3723B78022B3378FC
:105790000CD84FF000024FEA03132749E272DBB244
:1057A000227362730AD104338B7308E050201B010B
:1057B00010210022DBB2E07221736273A373297897
:1057C0001D48FFF79DFFE073022003F09FF81A4980
:1057D0001B4801F0A5FA32782B7801320133327080
:1057E0002B70F8BD1748FBF7BBFA174905F06CFFA3
:1057F00006F056F920721348FBF7B2FA124905F089
:1058000063FF06F04DF9C0F307206072B8E7084F58
:105810003B78032B98BF01334FF0000298BF3B70D9
:105820002A708023A0E700BF30CCFF1F48CCFF1FA9
:1058300054CCFF1F1CCCFF1F6492FF1FD8CBFF1F4F
:1058400070CCFF1FF893FF1F00007A442DE9F04F42
:1058500097B001E0FFF780F9744801F023F90028C0
:10586000F8D104F0D1FC002801DDFDF7EDFB704E0E
:10587000704D3368012B13D0FDF73CF8D5F8A040EC
:10588000012C00F0F7806C4F3B78052B00F28B81E8
:10589000DFE813F01702AA018B01F001E1016E01AC
:1058A000664C2368664A0A9366490A9B1068098811
:1058B000624F1B1A8B4200F2AB802368624A0C9342
:1058C0000C9B11685D4F5B1AB3F5FA7F3BD82368D8
:1058D0005E4E1293129B316841F288325B1A9342FA
:1058E0001CD823685A4A1493149B1068D5F8B41036
:1058F000504C524D1B1A8B420DD92B681593D4F87E
:10590000A03015991160012B00F00A824A4B1B78D8
:10591000032B00F0058217B0BDE8F08F4D48FBF770
:10592000ABF800287BD14C4B1B68002B40F09182D8
:1059300041494A4B0520042208701A6023681393DA
:10594000139B3360CDE73B680D930D9B414813607B
:10595000FBF746F9D5F8A030DFF8D880012B00F02E
:10596000FD803C48FBF7FCF9D8F8101006F04AF827
:10597000002800F057822368394A0E930E9B126864
:105980009A4240F2F0802C49DFF8CC80334AD8F8B4
:1059900000300520087002211160002B40F0C88102
:1059A000304F3B68002B40F0CE812F4B1B68002B03
:1059B00040F0C6813368002B00F0B781FFF784FB0D
:1059C0002A4EFCF7A3FDFFF777F9FDF73DF93368A1
:1059D000002B40F0928123681193119A40F2DC531E
:1059E0009A4240F28A811B48FBF764F83060FBF76B
:1059F000EFFF3B68012B01D0FFF7B4FB72B61C4BE5
:105A00004AF202614BF2804219801A8062B65EE768
:105A10003B680B930B9B1360FFF798FE4DE7064B1B
:105A20001A78052A8AD100221A7087E770CCFF1FE6
:105A300020CCFF1F10CBFF1F04CBFF1F34CEFF1F56
:105A400000CBFF1F2087FF1FF092FF1F0CCBFF1F13
:105A500024CCFF1FF893FF1F2887FF1F8492FF1F8E
:105A600034CCFF1F4C92FF1F08CBFF1F5C92FF1F1F
:105A70000C200540B94B1B78052B00F09181B84FE5
:105A8000DFF814833B68112043F004033B6002F00D
:105A900007FFD8F80030002800F092810BB9C8F851
:105AA0000040B048B04CFBF781F9A96C05F0C8FF85
:105AB000002840F05382AD4B00221A60D8F80080D5
:105AC000A848B8F1010F00F02082FBF76FF9E968F0
:105AD000DFF8948205F0B4FF002800F05482A44C53
