:1000000000800020BD0100009D920000559200007C
:100010005592000055920000559200005592000044
:100020005592000055920000559200009D920000EC
:100030009D9200005592000031B8000035B80000D4
:100040009D9200009D9200009D9200009D920000F4
:100050009D9200009D9200009D9200009D920000E4
:100060009D9200009D9200009D9200009D920000D4
:100070009D9200009D9200009D9200009D920000C4
:100080009D9200009D9200009D9200009D920000B4
:100090009D9200009D9200009D9200009D920000A4
:1000A0009D9200009D9200009D9200009D92000094
:1000B0009D920000DD850000E9850000ED850000CF
:1000C000F9850000FD850000018600009D9200007A
:1000D0009D9200009D9200009D9200009D92000064
:1000E0009D9200009D9200009D9200009D92000054
:1000F0009D9200009D9200009D92000061A1000071
:100100009D92000075A800009D9200009D92000045
:100110009D9200009D9200009D9200009D92000023
:100120009D9200009D9200009D9200009D92000013
:100130009D9200009D9200009D9200009D92000003
:100140009D9200009D9200009D9200009D920000F3
:100150009D9200009D9200009D9200009D920000E3
:100160009D92000065AB00009D9200009D920000F2
:100170009D9200009D9200009D9200009D920000C3
:100180009D9200009D9200009D9200009D920000B3
:100190009D9200009D9200009D9200009D920000A3
:1001A0009D9200009D9200009D9200009D92000093
:1001B0009D9200009D9200009D920000564B4CF2D3
:1001C000205210B51A804DF628121A8000BF00BFC9
:1001D00009F068F8514B4FF010621A60504A9A606B
:1001E000504ADA60504A136813F4807304D14F49BF
:1001F0000B604FF4A85313604D4B1A78110703D5C9
:100200001A7842F008021A704A4B4B492A221A7097
:100210004A4A4B4B8B4204D252F8040F43F8040B6A
:10022000F8E7484B484900228B4202D243F8042B9E
:10023000FAE74649464A002352F8230041F82300D2
:1002400001336F2BF8D1434B434A802103F8011B44
:100250009342FBD1414B3D4A1A60414B8A221A70AE
:10026000A3F5805324225A70A0221A709A7992071B
:10027000FCD59A79D406FCD43A4A937903F00C035E
:10028000082B384BF9D103221A7140225A719A79FE
:100290009006FCD5334A9179324B4906FBD5324A58
:1002A000324911600221516020221A709A7902F0BD
:1002B0000C020C2AFAD12E4B2E4A1A602E4B2F4AD2
:1002C0001A6000225A60072243F8042C2C4AC3F813
:1002D0000C2D62B609F01CFB144B1B68DA0705D520
:1002E000284809F0F7F8284B284A1A60284B1B7851
:1002F0005B0609D5244C254B22689A4204D121483B
:1003000009F0E8F80023236008F0D2FF0DF07AFA34
:100310000BF0A4FDFEE700BF0E2005403080044036
:10032000823F04000100002B10D0034014D0034092
:1003300002D0074000E007404094FF1F3034010026
:100340002087FF1F4094FF1FDCD5FF1F0082FF1F87
:100350000000000000E400E05FE400E008ED00E0E1
:100360000050064000400640448004400000030165
:1003700004800440C010050014E000E0FF76010096
:1003800000002020F01821621CE00340A5C3945A0D
:1003900000F00740FFFFFFFFFFFFFFFFFFFFFFFF32
:1003A000FFFFFFFFFFFFFFFFFFFFFFFFFFFFFFFF5D
:1003B000FFFFFFFFFFFFFFFFFFFFFFFFFFFFFFFF4D
:1003C000FFFFFFFFFFFFFFFFFFFFFFFFFFFFFFFF3D
:1003D000FFFFFFFFFFFFFFFFFFFFFFFFFFFFFFFF2D
:1003E000FFFFFFFFFFFFFFFFFFFFFFFFFFFFFFFF1D
:1003F000FFFFFFFFFFFFFFFFFFFFFFFFFFFFFFFF0D
:10040000FFFFFFFFFFFFFFFFFFFFFFFFDEF9FFFF23
:1004100010B5054C237833B9044B13B10448AFF33E
:1004200000800123237010BD4094FF1F00000000D6
:100430002C340100084B10B51BB108490848AFF334
:1004400000800848036803B910BD074B002BFBD0A0
:10045000BDE81040184700BF000000004494FF1F93
:100460002C3401004094FF1F00000000F0B400F1A4
:100470002C06174F00243146031F00F15C0243F89D
:10048000044FB34241F8047F4FF0000542F8044F97
:10049000F5D100230F4A1049C0F89050C0F894508D
:1004A000C0F89850C0F89C50C0F8A050C0F8B050A8
:1004B000C0F8A420C0F8AC20C0F8A81080F8B8306C
:1004C00080F8B93080F8D030C0F8DC30F0BC70472C
:1004D0000000A040000048430000C8C210B4031F41
:1004E000002400F12C0143F8044F8B424FF000022E
:1004F000F9D10023C0F89020C0F89420C0F89820CB
:10050000C0F89C20C0F8A020C0F8E03080F8B830D7
:1005100080F8B93080F8D03010BC70472DE9F04138
:100520008046CE1D00F1900400F1A00716F8010FDF
:1005300028380CF075FD094944F8040F05460CF005
:100540007FFF38B1B8F9E4000CF06AFD29460CF0E1
:10055000B3FC2060BC42E9D1BDE8F081000020C2BC
:100560002DE9F043814685B0144604292BD8DFE8F5
:1005700001F0798EBB035100637A3F2B09D8207AB2
:1005800000EB03200CF04CFD75490CF051FEC9F84E
:100590001800E37A3F2B09D8A07A00EB03200CF077
:1005A0003FFD6F490CF044FEC9F81C00637B3F2BF4
:1005B00009D8207B00EB03200CF032FD68490CF0D9
:1005C00037FEC9F8200009F15C08464609F12C0500
:1005D000A9F1040757F8044F55F8040F21460CF011
:1005E0002FFF30B1D9F8B41020460CF01FFF00B136
:1005F0002C6056F8041F20460CF022FF594920B108
:1006000020460CF01DFF00B134604545E2D105B035
:10061000BDE8F083637A3F2B09D8207A00EB0320F2
:100620000CF0FEFC4E490CF003FEC9F82400E37AFE
:100630003F2B09D8A07A00EB03200CF0F1FC4849CD
:100640000CF0F6FDC9F82800637B3F2BBBD8207B5C
:1006500000EB03200CF0E4FC41490CF0E9FDC9F883
:100660002C00B0E7607A227AA37AE17A02EB0022CA
:1006700002EB034303EB0163C9F8DC30637B227BAD
:100680001B0203F470631344C9F8D8309BE7627A05
:1006900003933F2A0CD8207A00EB02200CF0C0FC18
:1006A0002F490CF0C5FD039BC9F80000012B44D075
:1006B000E37A3F2B09D8A07A00EB03200CF0B0FCC2
:1006C00027490CF0B5FDC9F80400637B3F2B3FF6CA
:1006D0007AAF207B00EB03200CF0A2FC20490CF049
:1006E000A7FDC9F808006EE7637A3F2B09D8207A86
:1006F00000EB03200CF094FC19490CF099FDC9F8AB
:100700000C00E37A3F2B09D8A07A00EB03200CF011
:1007100087FC13490CF08CFDC9F81000637B3F2B5C
:100720003FF651AF207B00EB03200CF079FC0C4925
:100730000CF07EFDC9F8140045E70B480BF0F2F908
:10074000D9F800000CF016F8022502460B46009579
:1007500005480BF045FA04480BF0E4F9A8E700BFA0
:1007600000007A440000A040E089FF1F90F8C0001C
:10077000704700BF90F8BC00704700BF90F8C400FD
:10078000704700BF90F8C800704700BF0C2994BFA5
:1007900050F82100002070472DE9F0410B4E8046B3
:1007A000041F00F12C0754F8045F314628460CF072
:1007B00029FE30B1D8F8B41028460CF041FE00B143
:1007C0002E46BC42EFD13046BDE8F081000020410A
:1007D0002DE9F041D0F8B4704FF00008041F00F18B
:1007E0002C0654F8045F394628460CF029FE0849C7
:1007F00048B128460CF006FE414620B128460CF0D0
:100800001FFE00B1A846B442EBD14046BDE8F081DE
:100810000000A0402DE9F047D0F8B47082464FF0B8
:100820000009041F00F12C064FF0000854F8045F83
:10083000394628460CF004FE0C4950B128460CF00D
:10084000E1FD30B1484629460CF036FB08F10108BD
:100850008146B442EAD1CAF8D48040460CF0E0FBAD
:10086000014648460CF0E4FCBDE8F0870000A040DB
:10087000D0F8D400704700BFD0F8D800704700BF50
:1008800038B5D0F89850D0F89440294620460CF05E
:10089000B9FD00B92C46204638BD00BF38B5D0F8A8
:1008A0009850D0F89440294620460CF0C9FD00B974
:1008B0002C46204638BD00BF70B5D0F89440124990
:1008C000054620460CF0BCFDD0B1204600210CF0BE
:1008D000F3FA01240646D5F898500B4928460CF047
:1008E000AFFD28B1304629460CF0E6FA0134064641
:1008F00020460CF095FB014630460CF099FC70BD8B
:1009000000260446E7E700BF000020C22DE9F843B7
:100910000026D0F8B480C0F890608146041F00F132
:100920002C0754F8045F414628460CF089FD09491C
:1009300050B128460CF066FD30B1304629460CF027
:10094000BBFA0646C9F89000BC42EAD13046BDE881
:10095000F88300BF0000A04003299ABF00EB81008C
:10096000D0F89400002070473E2998BF80F8D0103E
:10097000704700BFD0F8DC00704700BF90F8B800A7
:10098000704700BF90F8B900704700BFC0F8CC10A6
:10099000704700BF80F8B810704700BF80F8B910EA
:1009A000704700BFC0F8B410704700BFA0F8E41053
:1009B000704700BF70B500F565550646043500F177
:1009C0002C042046E834FFF751FDAC42F9D106F57E
:1009D0008A75012428460021FFF7DCFF21462846BE
:1009E0000134FFF7C1FF3F2C05F1E805F2D143F6D2
:1009F0004C1400250548064A064B35550021706108
:100A0000B161F2613362304670BD00BF00007A44CC
:100A1000000048430000C8C270B500F565560436B2
:100A200000F58A74002507E0012520460021E834FE
:100A3000FFF7B4FFB4420AD02046FFF79FFF00281B
:100A4000F3D02046FFF79EFF0028EDD170BD284669
:100A500070BD00BF70B500F592560C3600F58A7473
:100A600002E0E834B4420CD02046FFF787FF054689
:100A70000028F6D02046FFF77DFFC307F1D52846B2
:100A800070BD0025284670BD2DE9F04143F6501396
:100A900000F56556374600228046C25004361037AE
:100AA00000F58A7402E0E834B4420DD02046FFF726
:100AB00065FF0028F7D020463D68FFF7D9FEE834EF
:100AC0002844B4423860F1D143F6501358F803007B
:100AD000BDE8F08138B500F58A74012504E00135E0
:100AE0003F2D04F1E80414D02046FFF747FF00280B
:100AF000F5D02046FFF7F2FC20460021FFF74AFF21
:100B0000294620460135FFF72FFF3F2D04F1E80469
:100B1000EAD138BD43F64813C058704738B50C6861
:100B200004F00F04E825013405FB04002C301546C1
:100B30001A46FFF7F3FC012D00D038BD06480AF035
:100B4000F1FF214604480BF041F80B210348BDE8B2
:100B500038400AF047BD00BFE089FF1F8016010042
:100B60002DE9F0410E68044606F00F0006F0F0068D
:100B7000302E0F46904600F101053CD019DC16B12D
:100B8000202E31D10126072D1BD9E82303FB054474
:100B90002C3420460121FFF7FDFE20460121FFF7FE
:100BA000FDFE43463A4631462046BDE8F041FFF798
:100BB000D7BC402E1DD0502E16D1072D4FF0040665
:100BC000E3D8B8F1010FE0D129460C480AF0FEFF46
:100BD00041460B480AF006FD314608480AF0F6FF88
:100BE00006480AF09FFFD0E7072DCED8042ECCDCB4
:100BF000E7E70326C7E70226C5E700BFE089FF1F36
:100C00008C1601002DE9F043002383B006464360B3
:100C100000F58A74012504E001353F2D04F1E80454
:100C200066D02046FFF7AAFE0028F5D04E4806F011
:100C30005FFF29464D4806F05BFF2046FFF766FE42
:100C40000BF098FD02460B46494806F051FF20463E
:100C5000FFF7A2FD80462046FFF7BAFD0746404653
:100C60000BF088FD8046384689460BF083FD4246EE
:100C70004B46CDE900013F4806F03AFF00212046EF
:100C8000FFF76AFE012180462046FFF765FE074612
:100C900040460BF06FFD8046384689460BF06AFDF2
:100CA00042464B46CDE90001334806F021FF20467D
:100CB000FFF72CFE014670680CF0FEF870602046CD
:100CC000FFF7DEFDF1690CF09DFB002833D12046D3
:100CD000FFF7E4FD316A0CF0B3FB00289CD02046FE
:100CE000FFF7DCFD01353F2D306204F1E80498D1B7
:100CF000B0680CF095F9014670680CF099FAB1698A
:100D0000706004460CF09CFB00B1B4617169204630
:100D10000CF078FB00B174610B2008F075FD43F610
:100D20004C13F35C60B99BB143F64C130122F254AF
:100D300003B0BDE8F0832046FFF7A2FDF061C6E7EF
:100D400053B943F64C130022F25403B0BDE8F083CC
:100D50000A4806F0FBFEE7E7094806F0E1FE43F625
:100D60004C130022F254F0E7581F010090160100C6
:100D7000CC160100E01601000C1701002817010035
:100D80006017010070B5114BC36000F5655506464C
:100D9000043500F58A7402E0E834AC4213D02046F2
:100DA000FFF7ECFD0028F7D02046FFF7F5FCF168CF
:100DB0000CF028FB0028EFD02046FFF7EDFCE834CC
:100DC000AC42F060EBD1F06870BD00BF0000A04005
:100DD00070B5002300F5655506460361043500F53E
:100DE0008A7402E0E834AC4213D02046FFF7C6FD17
:100DF0000028F7D02046FFF7EBFC31690CF020FB10
:100E00000028EFD02046FFF7E3FCE834AC42306125
:100E1000EBD1306970BD00BF40687047017070470A
:100E2000816070472DE9F04100F565558846174609
:100E30001EB2043500F58A7402E0E834AC4213D0E7
:100E40002046FFF79BFD0028F7D020464146FFF7DC
:100E50009DFD20463946FFF7A5FD20463146E83482
:100E6000FFF7A4FDAC42EBD1BDE8F0812DE9F843DA
:100E700043F6481300F565550027C7502E462A4A09
:100E80002A4B826280464FF00009436204350836DF
:100E900000F58A7402E0E834A54213D02046FFF73B
:100EA0006DFD0028F7D03368013333602046FFF72B
:100EB00003FD1F490CF0C4FA88B9E834A54207F1D4
:100EC0000107EBD143F6481358F80300C01B0CF0A0
:100ED000A7F8014648460CF0ABF9BDE8F883204678
:100EE000FFF7EAFC014648460BF0E6FF8146204644
:100EF000FFF7D4FCD8F824100CF0A2FA70B9204601
:100F0000FFF7BEFCD8F828100CF07CFA0028C2D0FD
:100F10002046FFF7B5FCC8F82800BCE72046FFF7DD
:100F2000BDFCC8F82400EAE700C0794400C079C4D9
:100F300000008CC2406A7047806A7047F8B500F5BF
:100F4000655507460026043500F58A7402E0E8344A
:100F5000AC420FD02046FFF711FD0028F7D0204605
:100F6000FFF758FC014630460BF0A6FFE834AC42D0
:100F70000646EFD143F64813F8580CF051F80146F5
:100F800030460CF055F9F8BD2DE9F04F91B004460C
:100F9000A3480D91154606F053FDA14806F050FDFB
:100FA0009F4806F04DFD43F648132046E658FFF7EC
:100FB0006BFD81466068D4F808B00BF0DBFBCDE92F
:100FC0000E012046FFF7BAFF82462046D4F8108073
:100FD000E768FFF74BFF0BF0CDFBCDE90A0139467F
:100FE00040460BF067FF8F490CF06EF80BF0C2FB28
:100FF000CDE9080140460BF0BDFBCDE906013846BE
:101000000BF0B8FBCDE9040150460BF0B3FBDDE972
:101010000E23CDE90201CDE9002331465B464A4665
:10102000814806F00DFD7E4806F00AFD04F58A743D
:101030004FF001084FF0000BA94607E008F1010846
:10104000B8F13F0F04F1E80400F0DE802046FFF71E
:1010500095FC0028F2D02046FFF788FB2046FFF7DA
:1010600089FB2046FFF78AFB2046FFF78BFB082110
:101070006E480AF0B7FA41466D480AF0A7FDB8F18C
:10108000090F40F3C78002216A480AF0ABFA2046F4
:10109000FFF73CFC0BF06EFB9DF8345000950246C8
:1010A0000B4663480AF09CFD012163480AF09AFA56
:1010B000B9F1000F2DD1DA464E4620E006215F48F7
:1010C0000AF090FA51465A480AF080FD02215C4825
:1010D0000AF088FA31462046FFF758FB0BF04AFB2E
:1010E000009502460B4652480AF07AFD013601216E
:1010F00051480AF077FA0C2E00F08980BA46BAF10E
:10110000090F0AF10107D9DC01214E480AF06AFAF9
:10111000D4E7B9F1010F2ED1DA4600261FE00621EF
:1011200046480AF05FFA514641480AF04FFD022155
:1011300043480AF057FA31462046FFF727FB0BF0E9
:1011400019FB009502460B4639480AF049FD013665
:10115000012139480AF046FA082E0AD0BA46BAF1F7
:10116000090F0AF10107DADC012136480AF03AFAE0
:10117000D5E70BF1080B2E480AF0D4FC09213248C0
:101180000AF030FA00212046FFF7E6FB0BF0F2FAF6
:10119000022502460B46009525480AF021FD0A214A
:1011A0002A480AF01FFA01212046FFF7D5FB0BF071
:1011B000E1FA009502460B461D480AF011FD0C218C
:1011C00023480AF00FFA2046FFF7D4FB0023102231
:1011D000014617480AF0BAFC08211E480AF002FA34
:1011E0002046FFF749FB00230146102210480AF071
:1011F000ADFC08F101080E480AF094FCB8F13F0F6D
:1012000004F1E8047FF422AF11B0BDE8F08F0BF1D8
:101210000C0BB0E701210B480AF0E4F933E700BFFB
:10122000581F010000007A44101A0100B01A010092
:10123000E089FF1F4C1E0100BC1A0100C01A01000A
:10124000241B0100681F0100C81A0100D41A010004
:10125000E01A0100F01A01002DE9F04F85B000F509
:101260008A758A4603929B462E464FF0010806E097
:1012700008F10108B8F13F0F06F1E8067BD03046CF
:10128000FFF77CFB0028F3D000230A2251467D485B
:101290000AF05CFC01217C480AF0A4F903980BF0E9
:1012A00069FA00230246009376480B460AF098FC40
:1012B000012175480AF096F9594672480AF086FCF1
:1012C000012171480AF08EF941466E480AF07EFC11
:1012D00001216D480AF086F900244FF002092146E9
:1012E0003046FFF753FA0BF045FACDF8009002466E
:1012F0000B4664480AF074FC0134012162480AF08C
:1013000071F9082C4FF00207E9D100213046FFF7B0
:1013100023FB0BF02FFA009702460B4659480AF0C0
:101320005FFC012158480AF05DF901213046FFF7C2
:1013300013FB0BF01FFA009702460B4651480AF0C8
:101340004FFC012150480AF04DF939463046FFF76D
:1013500003FB0BF00FFA009702460B4649480AF0D0
:101360003FFC08F1010847480AF0DCFBB8F13F0FE9
:1013700006F1E80683D101274FF0000904E00137A8
:101380003F2F05F1E80579D02846FFF7F7FA002846
:10139000F5D000230A2251463C480AF0D7FB012130
:1013A000394808F089FD03980BF0E4F9CDF8009076
:1013B00002460B4635480AF013FC0121324808F07A
:1013C0007BFD594631480AF001FC01212E4808F006
:1013D00073FD39462D480AF0F9FB01212A4808F02F
:1013E0006BFD00244FF0020821462846FFF7CEF996
:1013F0000BF0C0F9CDF8008002460B4623480AF0F6
:10140000EFFB01340121204808F056FD082C4FF075
:101410000206E9D100212846FFF79EFA0BF0AAF94F
:10142000009602460B4619480AF0DAFB01211648DD
:1014300008F042FD01212846FFF78EFA0BF09AF9D9
:10144000009602460B4611480AF0CAFB01210E48DD
:1014500008F032FD31462846FFF77EFA0BF08AF994
:10146000009602460B4609480AF0BAFB01370748C6
:101470000AF058FB3F2F05F1E80585D105B0BDE81E
:10148000F08F00BFE089FF1F8C160100B489FF1F99
:1014900010B5132008F0B8F9012815D008F0C8F9E4
:1014A0000F4B104A1B6812880F49C01A642303FBB4
:1014B00000F092B2B0FBF2F000EB8000C0EB001045
:1014C000C00080B2088010BD054C08F0B1F9236857
:1014D000044AC01A80B2108008F0AAF9206010BD3A
:1014E0007CD1FF1F10D1FF1F8CD1FF1F0A4A0B496F
:1014F000106ED36D03FB00F34FF47A7000FB03F022
:10150000642310B50B600BF08BFD0549054C0BF007
:101510008FFE206010BD00BF30D0FF1F1088FF1F5E
:10152000E4388E3E68D1FF1F10B4019C521AA4EB20
:10153000030412D0401A002C04FB00F002EBD2711D
:1015400011DB00EB610101FB02F0002891FBF2F1DD
:101550000B4414DB184610BC704704EBD47003EB4B
:10156000600010BC7047A0EB610000FB02F1002995
:1015700090FBF2F01844EEDB013010BC7047581EAF
:1015800010BC704710B5074C20460AF0CBFA064B4A
:10159000204619680AF01AFB03210448BDE81040F0
:1015A0000AF020B8E089FF1FFC94FF1FFC1A01001D
:1015B00038B5044608460D460CF002FF2368024683
:1015C00029465B6820469847054620460AF0AAFA55
:1015D000284438BD2DE9F8434848494E494F4A4C04
:1015E00006F02EFA494B4A494A4A4B4859601125A0
:1015F0001D704A4D4A49DA601E6100224FF4FA76A6
:101600009F619C62474F484C1D63484DD861D96229
:101610004FF07C5046499A639E863C220C26DF633D
:101620001C64444F444C5D65444DD86419650220E8
:101630000121A3F8A8209E65002264265F62C3F8FA
:10164000C8404FF4967732241D625D615D6440F6B8
:101650001C45587058721972D96583F848201E6667
:10166000DF665F669C664FF00A091D6741F2040859
:10167000C3F88020C3F88400C3F8D410C3F88820CE
:10168000C3F89040C3F8B0404FF05A0CC3F8AC20F8
:10169000C3F8B810C3F8BC004FF47A7EC3F8C0603A
:1016A000274F83F8CC1083F8CD10264E83F8CE2038
:1016B00041F28831A3F8D02044F6206540F2D6628A
:1016C000FF240520C3F87490C3F87880C3F87CC069
:1016D000C3F894E0C3F89870C3F89C60C3F8A450B2
:1016E000C3F8B440A3F8C600C3F88C10A3F8C41024
:1016F000A3F8A020A3F8A220BDE8F883001B0100F6
:101700000000404033338340CDCCCC3D30D0FF1F70
:1017100020A1070066668640CDCC4C40000020C169
:1017200000008242000020420000A0400AD7233D72
:101730009A997940333373409A99993ECDCC4C3E77
:101740000000684200C0204470B5464C464D4748F2
:10175000E66800232B70FFF73BFB014630460BF099
:1017600051FE08B104232B704048FFF70BFB2169A1
:101770000BF048FE18B12B7843F010032B703B4858
:10178000FFF7D8FBE16A0BF05BFE18B12B7843F052
:1017900040032B70002335486B70FFF7CDFB216BA6
:1017A000314E0BF02FFE08B10123737000232F4838
:1017B000EB70FFF70DFB05462C482B4EFFF7E2FAC6
:1017C000014628460BF076FB616C0BF039FE08B140
:1017D0000123F370264D254800232B70FFF7F8FAFC
:1017E000A16A0646E0680BF065FB014630460BF047
:1017F00027FE08B104232B701C48FFF7C3FAA16A27
:10180000064620690BF058FB014630460BF0FAFD06
:1018100018B12B7843F010032B701448FFF78AFBA4
:10182000216C0646E06A0BF045FB014630460BF0A2
:1018300007FE18B12B7843F040032B7000230B48B0
:101840006B70FFF779FB216C0546206B084C0BF0A1
:1018500033FB014628460BF0D5FD08B10123637028
:1018600070BD00BF30D0FF1F14D0FF1F0C96FF1FAC
:101870006494FF1F544B1B68002B74D0F0B5534D7C
:101880002B680533B3F57A7F83B040F3858000235E
:1018900000272B604E4CD4F8B0000BF0C1FB06467D
:1018A000D4F8B4000BF0BCFB31460BF003FB394617
:1018B0000BF00AFC47490BF0BBFC31460BF0FCFA7D
:1018C0000BF0C8FD0146062007F018FE0221424831
:1018D00009F088FE41480AF025F90621404809F040
:1018E00081FE28680BF09CFB3E490BF0EDFB0AF0F3
:1018F00041FF022602460B46009638480AF070F96E
:101900000D21394809F06EFED4F8B0000BF088FBC9
:10191000074628680BF084FB32490BF0D5FB0546DF
:10192000D4F8B4000BF07CFB39460BF0C3FA014647
:1019300028460BF0C9FB27490BF07AFC39460BF01F
:10194000BBFA0AF017FF009602460B4623480AF03E
:1019500047F93146204809F045FE204803B0BDE86C
:10196000F0400AF0DFB81A4B2048D3F8B020D3F883
:10197000B4100368891A002903FB01F31C4914DB26
:10198000323381FB0310D917C1EB6011002B1144D6
:1019900016DB062007F0B2BD18462B600BF040FBAB
:1019A00010490BF091FB074674E7323B81FB0310B3
:1019B000D917C1EB6011002B0A4403DB511CE8E787
:1019C0000139E6E71146E4E78894FF1F08D1FF1FBD
:1019D00030D0FF1F0000C8424C1E0100E089FF1FED
:1019E000201B0100CDCCCC3D281B01001088FF1F1F
:1019F0001F85EB5170B5B648B64C84B00AF092F82A
:101A0000B3480AF08FF8B2480AF08CF80D21B248BA
:101A100009F0E8FDD4F8AC30012B11D0AF4DAC4843
:101A2000297800230A220AF091F82B78052B6ED82A
:101A3000DFE813F0920197019C01A101A601AB011F
:101A40000921A74809F0CEFDA648FFF79BF92169B7
:101A50000BF0D8FC18B10F21A34809F0C3FDA14831
:101A6000FFF7B6F9E1680BF0EBFC18B10E219F48C7
:101A700009F0B8FD9B48FFF7ABF905469948FFF719
:101A800081F9014628460BF015FA616C0BF0D8FC81
:101A900018B11121964809F0A5FD9248FFF7E6F923
:101AA000E16A0BF0CDFC18B10C21924809F09AFDC7
:101AB0008C48FFF7DBF9216B0BF0A4FC18B10D216A
:101AC0008D4809F08FFD8D4B86481B68012B00F077
:101AD0009681FFF757F921697E4D0BF0B1FC002884
:101AE00000F038817F48FFF773F9E9687B4D0BF010
:101AF00089FC60B12B78052B00F097818048092183
:101B000009F070FD7F4B724819680AF05FF80221F6
:101B10007D4809F067FD122007F076FE012800F0ED
:101B20003981112007F070FE012800F03D81774BCC
:101B30001C68012C00F0418102217348744C09F0AB
:101B400051FD744B624819680AF040F8604809F08A
:101B5000E9FF0421704809F045FD0B2007F054FE11
:101B6000002301460A225A4809F0F0FF0C2007F032
:101B70004BFE002301460A22554809F0E7FF1420D6
:101B800007F042FE002301460A22514809F0DEFF19
:101B9000152007F039FE0A22002301464C4809F0BF
:101BA000D5FF06215D4809F01DFD2368DE074FF0D3
:101BB00001014CBF5A485B4809F014FD236898079F
:101BC0004FF001014CBF5648564809F00BFD236801
:101BD0005A074FF001014CBF5148524809F002FD2D
:101BE00023681B074CBF4E484E48012109F0FAFC00
:101BF00004214D4809F0F6FC112007F005FE0023F2
:101C000001460A22324809F0A1FF102007F0FCFD2E
:101C1000002301460A222E4809F098FF122007F0FF
:101C2000F3FD002301460A22294809F08FFF132003
:101C300007F0EAFD0A2200230146254809F086FF45
:101C400018213A4809F0CEFC394B18680BF0E8F936
:101C500038490BF039FA0AF08DFD002402460B4694
:101C600000941B4809F0BCFF1D21334809F0BAFC61
:101C7000324B18680BF0D4F92E490BF025FA0AF014
:101C800079FD00940B460246114809F0A9FF022194
:101C90002B4809F0A7FC2B78032B02D0294B1B788B
:101CA000A3B11421284809F09DFC284B188880B264
:101CB0000BF0B6F926490BF007FA0AF05BFD002499
:101CC00002460B460094024809F08AFF04B070BD3A
:101CD000E089FF1F30D0FF1F381B010020D0FF1FFD
:101CE000481B01000C96FF1F541B0100641B0100E0
:101CF000741B0100881B0100981B01009894FF1FB2
:101D0000D81B01009094FF1F4C1E010028D1FF1F1B
:101D100090D1FF1F6894FF1F501C0100581C010048
:101D2000601C0100CC2D0100641C01006C1C010032
:101D30008494FF1FCDCCCC3D881C010084D1FF1FB3
:101D4000A81C010078CFFF1FAC1C01008CD1FF1F25
:101D50006F12833A364DDAE60621364809F042FC26
:101D6000D5E60721344809F03DFCD0E60721334889
:101D700009F038FCCBE60821314809F033FCC6E60F
:101D80000B21304809F02EFCC1E607212E4809F04E
:101D900029FCBCE60E212D4809F024FC112007F097
:101DA00033FD01287FF4C3AE0A21294809F01AFC4B
:101DB000284B1C68012C7FF4BFAE1121264809F086
:101DC00011FC2146254809F00DFC254B254A1B68CE
:101DD0000393039B1068C01A0BF01EF922490BF005
:101DE00073F90AF0C7FC002602460B4600961F480E
:101DF00009F0F6FE2146194809F0F4FB9CE6FEF7CF
:101E0000C1FF616A0BF01CFB48B116211848084D50
:101E100009F0E8FB0A21174809F0E4FB77E60821FE
:101E20001548034D09F0DEFB71E60A21114867E60B
:101E300020D0FF1FE41B0100EC1B0100001C01006F
:101E4000081C0100F41B0100141C01001C1C0100F3
:101E50002C1C010028D1FF1F381C01004C1C010064
:101E600064D3FF1F5CD1FF1F6F12833AE089FF1F0D
:101E7000A81B0100C01B0100CC1B01002DE9F04F85
:101E8000954CD4F88430012B8DB000F04981032BA0
:101E9000924F53D0924E934DD4F880309248012BFC
:101EA00009BF2968296801F10041296006F054FF43
:101EB0003368002B40F0C7808B4806F023FFD4F82E
:101EC00084303860012B0646834A00F0C980874978
:101ED0000BF0B6FA78B9864930460BF093FA50B950
:101EE000844A854B12680B920B9A1A6000232B6070
:101EF0000DB0BDE8F08FDFF8FC817F4CD8F80030E2
:101F00000A930A9823687D4FC01A0BF085F8314672
:101F10000BF0DAF87A490BF08BF979490BF088F974
:101F200039680AF0C9FFD8F800300993099B23608B
:101F3000002338602B600DB0BDE8F08FDFF8D8814A
:101F4000704DD8F80000664E012300220F212B604F
:101F500006F08CFB2B68012B336800F00781002B07
:101F600040F08B81D8F80030DFF8B091D3F88400CE
:101F7000436B19698DB2C9F8005006F0FDFBB4F847
:101F8000A22040F6E44303FB05F1B1FBF0F0801A18
:101F900000B20BF045F85C49524D8246D4F89800E7
:101FA0000BF092F8014650460BF042F9D9F8003098
:101FB0002860632BDFF864A100F3528100232B60BB
:101FC0003368002B3FF468AF0221504809F00AFB48
:101FD000D8F80030D9F80020D3F8840040F6E44364
:101FE00003FB02F806F0C8FBB8FBF0F00BF014F8A6
:101FF0008046B4F8A2000BF013F8014640460AF000
:1020000059FF0AF0B7FB4FF0020802460B46CDF825
:1020100000803F4809F0E4FD41463C4809F0E2FAFF
:1020200028680AF0A7FBCDF8008002460B46384826
:1020300009F0D6FD4146374809F0D4FA4146334805
:1020400009F0D0FA28E7284806F05CFE0AF092FB77
:10205000022602460B4600962D4809F0C1FD2BE7EB
:10206000284B1B68012B00F04181022B7FF43EAF0F
:10207000D2F8A44020460AF0D3FF014630460BF0C8
:10208000DFF948B960420AF0CBFF014630460BF059
:10209000B9F9002800F05981DFF85880164CD8F8BB
:1020A0000030079307982368144FC01A0AF0B4FF52
:1020B00031460BF009F812490BF0BAF810490BF051
:1020C000B7F839680AF0F8FED8F800300693069B96
:1020D000386023600AE700BF30D0FF1F18D0FF1F11
:1020E00008D0FF1F80D1FF1F30D1FF1F0000FA432F
:1020F0000000FAC364D3FF1F10D0FF1F68D1FF1F79
:1021000000007A442888FF1F17B7D1384C1E010001
:10211000E089FF1F001D0100A0D1FF1FA8D1FF1FF4
:10212000AC4FD4F8A4603D6830460AF079FF2946E8
:102130000BF086F948B170420AF072FF014628465A
:102140000BF07EF900287FF4F9AEDFF8C882A24DCB
:10215000D8F80000A14E022300220E212B6006F0C9
:1021600085FA2B68012B33687FF4F9AE002B40F021
:10217000F380D8F80030DFF8AC92D3F88400436BDA
:1021800019691FFA81FBC9F800B006F0F5FAB4F836
:10219000A030934D40F6E44A0AFB0BFBBBFBF0F08A
:1021A000C01A00B20AF03CFF8E498346D4F89C0066
:1021B0000AF08AFF014658460BF03AF8D8F800209A
:1021C000D9F800302860D2F884000AFB03FA06F040
:1021D000D3FAB4F8A030BAFBF0F00FFA80FAC3EBF0
:1021E0000A03002BB4F8C620B8BF5B429342BCBFC1
:1021F00000232B603368002B3FF44EAE02217A4857
:1022000009F0F0F9D8F80030D9F80020D3F88400AC
:1022100040F6E44303FB02F806F0AEFAB4F8A0106F
:10222000B8FBF0F000B2411A704809F0CFFC02216F
:102230006D4809F0D7F928680AF09CFA4FF00208B7
:1022400002460B46CDF80080684809F0C9FC03211E
:10225000674809F0C7F94146634809F0C3F91BE62E
:10226000D8F80030D3F8840006F086FADAF80030A7
:1022700064389842FFF4A2AEA2E65C48DFF8A4916D
:10228000DFF890A109F04EFC0C215A4809F0AAF998
:102290000C21594809F0A6F9D8F800203368D2F883
:1022A0008400426B11698DB2C9F80050002B3FF4D5
:1022B00064AE06F061FA40F6E44100230A2201FB15
:1022C00005F1B1FBF0F1494809F040FC0221464814
:1022D00009F088F9B4F8A210444809F077FCDAF85C
:1022E0000030D9F80050D3F8840046E643490BF09B
:1022F000A7F858B9424930460BF084F830B9414A42
:10230000414B12680592059A1A60EFE5DFF8F480F8
:102310003D4CD8F800300493049823683B4FC01A12
:102320000AF07AFE31460AF0CFFE39490AF080FF02
:1023300037490AF07DFF39680AF0BEFDD8F8003051
:102340000393039B38602360D0E52E4A2E4B12681E
:102350000892089A1A60C9E52448DFF8C8902D4D04
:1023600009F0E0FBD4F88430012B4FF00B010CBFD7
:1023700029482A4809F036F90C211F4809F032F99A
:10238000D8F800203368D2F88400426B11691FFA34
:1023900081FBC9F800B0002B3FF4F7AE06F0ECF972
:1023A00040F6E44100230A2201FB0BF1B1FBF0F1FE
:1023B0000E4809F0CBFB0121194809F013F9B4F8D4
:1023C000A0100A4809F002FC2B68D9F800B0D3F835
:1023D0008400DAE618D0FF1F2888FF1F08D0FF1FEF
:1023E00080D1FF1F17B7D1384C1E0100E089FF1FB5
:1023F000EC1C0100F01C0100DC1C01000000FA4391
:102400000000FAC364D3FF1F10D0FF1F68D1FF1F65
:1024100000007A44A0D1FF1FC41C0100D01C0100A1
:10242000681F0100A8D1FF1F2DE9F04F914C2368D0
:1024300085B0002B7BD0904DDFF848828F4FDFF8BE
:102440008892D5F888308C4E012B00F08B80346E4A
:10245000D7F800A0F66D04FB06F44FF47A7000FB89
:1024600004F00AF0DDFD8649864E044650460AF027
:102470002BFE21460AF0DCFE83490AF025FE0AF015
:10248000E9FF6328C8F800004CDD20467C490AF0CB
:10249000CFFE642338603360D9F80030002B3ED083
:1024A000D5F88430744C012B00F08280032B00F0AF
:1024B000D580022B00F0D9800221744809F092F8EF
:1024C000734B18680AF056F9022402460B46009432
:1024D000704809F085FB21466F4809F083F82146D2
:1024E0006A4809F07FF8D8F800106A4809F06EFBD6
:1024F00006216A4809F076F8386861490AF0E4FD77
:102500000AF038F9009402460B46624809F068FB6D
:102510000321634809F066F85E4809F003FB05B043
:10252000BDE8F08F0028BCBF00233360B4E75D4EE8
:10253000514D33680293029A42F228339A4244D8AA
:1025400033680393039A42F210739A4246D8D5F83F
:102550008830DFF83081494FDFF86C91464E012B0F
:102560007FF475AF5048FEF7E9FC5049D6F878A0E3
:10257000346FD6F874B00AF0A7FD0AF091FFF36F3C
:102580000093524621465B4680B2FEF7CDFF346E83
:10259000F66D04FB00F006FB00F000EB800040004D
:1025A0000AF03EFD36490AF043FE8246386052E7A3
:1025B0003F4B1B68012B4FF00A010CBF3D483E48C2
:1025C00009F010F8D4F8843070E73748B5F9D03006
:1025D000EA6C95F84810FEF725FCB1E73248DFF8C1
:1025E000A480FEF7ABFC3149D5F87490AF6F2E6F25
:1025F0000AF06AFD0AF054FFEB6F00933A464B462F
:10260000314680B2FEF790FF2A6EEB6DC8F80000ED
:1026100002FB00F003FB00F000EB800040000AF03A
:10262000FFFCDFF8A4901649144F0AF001FED9F818
:102630000030386001222260002B3FF402AF0221FB
:10264000124808F0CFFF134809F06CFA59211B48D3
:1026500008F0C8FF0F4809F065FAF2E610211848A3
:1026600008F0C0FFD5F8843023E70721154808F0AB
:10267000B9FF21E71CD1FF1F30D0FF1F68D1FF1F1A
:10268000E4388E3E1088FF1F0000C8424C1E010037
:1026900018D0FF1FE089FF1F001D0100941D0100DD
:1026A0009C1D010064D3FF1F0C96FF1F00007A449D
:1026B0002888FF1F601D01006C1D0100041D010022
:1026C000781D01008C1D01000088FF1F30B511200E
:1026D00083B007F099F8012818D0122007F094F879
:1026E000012813D000210B2007F088F800210C20CE
:1026F00007F084F80021152007F080F82649274BC1
:102700000120002208701A6003B030BD012115209D
:1027100007F074F8224A234C234B1268D4F88C102B
:1027200001921B68019A1D4D0B4493424FF0020128
:10273000296005D901210C2007F060F803B030BDF5
:10274000D4F894000AF06CFC184B19680AF05AFE91
:102750000028EFD101210B2007F050F894F8CC307D
:1027600003242C6043B10C4B02221A7000210C2070
:1027700007F044F803B030BD122007F045F80128F7
:1027800008BF054B4FF0110008BF1C7007F03CF864
:102790000128EBD1E7E700BF20D0FF1F0895FF1FFE
:1027A00064D3FF1F30D0FF1F74CFFF1F18D0FF1F4F
:1027B000F0B5684E684D34682B689C4287B039D0BC
:1027C00014F0010155D014F0020149D014F00401B5
:1027D0003DD0E3070ED52B68DF070BD45F4F3A6877
:1027E000002A00F082805E4B1B680193019B93429C
:1027F0006DD83468A0070DD52B6899070AD4594FB6
:102800003A68002A4CD0564B1B680393039B9342B3
:1028100038D8346862070DD52B685B070BD4524F4C
:102820003A68002A7ED04E4B1B680593059B934265
:1028300068D834680CB107B0F0BD2146162006F008
:102840005DFE2146172006F059FE07B0F0BD0520B9
:1028500006F054FE2B68346803F0FB032B60B8E7E6
:10286000172006F04BFE2B68346803F0FD032B6045
:10287000ACE7162006F042FE2B68346803F0FE0336
:102880002B60A0E7394B1720D3F8901006F036FEE6
:102890002B68346843F0020300222B603A60B9E7EA
:1028A000334809F03FF90C21324808F09BFE3048CC
:1028B00009F038F9FF21172006F020FE284B2E4A98
:1028C00019680291029912680A443A609CE7274B02
:1028D0001620D3F8901006F011FE2B68346843F0F0
:1028E000010300222B603A6084E7FF21162006F0E6
:1028F00005FE1B4B204A19680091009912680A4492
:102900003A6071E7194B0520D3F8901006F0F6FDF8
:102910002B68346843F0040300222B603A60002CDB
:1029200089D18AE7124809F0FDF80C21134808F014
:1029300059FE0F4809F0F6F8FF21052006F0DEFDEC
:10294000074B0D4A19680491049912680A443A60C9
:102950006AE700BF0895FF1F90D1FF1F0CD1FF1F32
:1029600064D3FF1F20D1FF1F24D1FF1F30D0FF1FD2
:10297000E089FF1FA01D01001888FF1FB01D010086
:102980002DE9F047534EDFF870813368DFF86C9122
:10299000D3F88400504D0F2106F06CF9002301227A
:1029A00022214E48C8F80030C9F8002008F01AFE6D
:1029B000D8F80030132B20DC40F6E4473368B5F834
:1029C000A0A0D3F88400436B1C6905F0D5FEA4B227
:1029D000012107FB04F4B4FBF0F441485444A5F88A
:1029E000A04008F0FFFD642006F044FFD8F8003056
:1029F0000133132BC8F80030E0DDB5F8A030394AB8
:102A00003948A2FB03129B1A02EB5303C3F30F13C3
:102A10001946A5F8A03009F0D9F81D21334808F06F
:102A2000E1FD0221324808F0DDFD2F4809F07AF877
:102A300000231A460E213068C8F8003005F016FE53
:102A4000022322212548C9F8003008F0CBFDD8F830
:102A50000030132B20DC40F6E4473368B5F8A29031
:102A6000D3F88400436B1C6905F086FEA4B20121F3
:102A700007FB04F4B4FBF0F419484C44A5F8A24059
:102A800008F0B0FD642006F0F5FED8F80030013300
:102A9000132BC8F80030E0DDB5F8A230114A124817
:102AA000A2FB03129B1A02EB5303C3F30F13194645
:102AB000A5F8A23009F08AF81D210E4808F092FD11
:102AC00002210B4808F08EFD0748BDE8F04709F0E9
:102AD00029B800BFA0D1FF1F30D0FF1FC01D0100CB
:102AE000041E010087611886E089FF1FE41D0100B4
:102AF0004C1E0100081E01007094FF1F2888FF1F54
:102B00002DE9F04FC54DD5F8BC309A1F012A85B08C
:102B100040F2AF81C24BC34C1B68A86D40F25131EB
:102B200008222160E271002B00F09E810AF078FA01
:102B3000696A06460AF0C8FABB49B84F0AF0C4FAF7
:102B40000AF0AEFC80B203126372B84AB84B126846
:102B50001B68E9692072A37230461B121612E372D9
:102B6000227366730AF0B0FAAF49AE4E0AF0ACFABF
:102B70000AF096FC83B21A123146AE48A373E27390
:102B800005F0CCFBAC4AAD4B12681988A172D3B2E8
:102B9000237203EB83035B00237302EB820343F393
:102BA000D7134FEA212E12124FF008084FF00009F8
:102BB000314663739F4884F80BE040F255336272EC
:102BC000236084F8078084F80E9084F80F9005F055
:102BD000A5FB40F256339A48236084F80780FEF73D
:102BE0001BF998490AF070FA0AF05AFC20729448CE
:102BF000FEF712F993490AF067FA0AF051FC924A7B
:102C00009049C0F30723106863720AF011FB0AF0C1
:102C100021FC40FA08F3A0728948E372FEF726F916
:102C200081490AF051FA0AF015FC20738448FEF736
:102C30001DF97D490AF048FA0AF00CFC40F3072020
:102C4000314660737B4884F80E9084F80F9005F04D
:102C500065FB022006F00EFE7C4A7D4B1178217246
:102C6000517890786172D178A0721A789878E17270
:102C7000597822736173DA78A07340F25A3331467F
:102C80006C48E273236084F8078005F047FB714BC2
:102C900068481A7822725A7862729A78A272DA7840
:102CA000E2721A7922735A7962739A79DB79E37343
:102CB000314640F25E33A273236084F8078005F04A
:102CC0002DFB022006F0D6FD634B5A481A7822727B
:102CD0005A7862729A78A272DA78E2721A7922735A
:102CE0005A7962739A79DB79E37331464FF45C73F6
:102CF000236084F80780A27305F010FB574B1B6814
:102D0000012B00F08982022006F0B4FD082640F273
:102D100073334B482360E671FEF734F850490AF0EC
:102D2000D3F90AF0BDFB20724548FEF72BF84C4959
:102D30000AF0CAF90AF0B4FBC0F3072340486372F3
:102D4000FEF746F846490AF0BFF90AF0A9FBA0725F
:102D50003B48FEF73DF842490AF0B6F90AF0A0FBFD
:102D6000C0F307233648E372FEF7E6F83D490AF060
:102D7000A3F80AF095FB20733148FEF7DDF83949D6
:102D80000AF09AF80AF08CFBC0F307232C4863730F
:102D9000FEF7D0F833490AF08FF80AF081FBA073F0
:102DA0002748FEF7C7F82F490AF086F80AF078FBA3
:102DB0001C49C0F307231F48E37305F0AFFA022054
:102DC00006F058FDE96D2B6E022211FB03F310464D
:102DD00040F27931C3F30725E271216023726572F5
:102DE00006F048FD40F2723315482360E671FDF7A6
:102DF00091FE20721248FDF78DFE002340FA06F284
:102E000008490C486272A372E37223736373A3735D
:102E1000E37305B0BDE8F04F05F080BA30D0FF1F76
:102E20009894FF1F7494FF1F0000204184D1FF1F5E
:102E30008494FF1FBCD1FF1F1088FF1F1688FF1F3F
:102E40000C96FF1F0000C84218D0FF1F14D0FF1FB0
:102E50006494FF1F3C88FF1F4488FF1F28D1FF1F79
:102E600000007A44339388430AF0DAF8A9690646E9
:102E700060E6072BD54C00F01182D54B0093DFF8AC
:102E800080A3D44BDFF87C83DFF87C93D24F01938F
:102E9000DFF838B3D14859234FF4C36E00264222DD
:102EA0005946C4F800E0A3724FF0080E02934FF0A9
:102EB000440384F807E062720392E3722672267379
:102EC0006673A673E67305F029FA022006F0D2FCB9
:102ED0004FF00803E371029B039AA3724FF4BB6E99
:102EE0004FF044035946BD486272E372C4F800E0F3
:102EF000267226736673A673E67305F00FFA022036
:102F000006F0B8FCEA6D296EA86DA6724FF00803B2
:102F1000E37102FB01F311FB02F103EBC30203EBCC
:102F2000820300FB03F301EBC10201EB82011B12E0
:102F300011FB00F24FF4AB6E0320237312235946AA
:102F40006273C4F800E007224FF0050E207263722E
:102F50000293A24884F80EE04FF00403E372E27398
:102F600005F0DCF9022006F085FC029BA3724FF00D
:102F7000080034224F234FF4B36E5946E071267295
:102F80006672267366739548E2724FF00406E37327
:102F9000C4F800E0A67305F0C1F9022006F06AFC4F
:102FA0004FF00802DAF80030E2714FF456722260F6
:102FB000002B40F06B818A4B986D0AF031F8884BFA
:102FC000996906460AF080F886490AF07DF80AF009
:102FD00067FA80B203128BF80830E9698BF80900B0
:102FE00030460AF071F87F490AF06EF80AF058FA94
:102FF000D8F80020D9F800307449637380B21512F4
:103000001B120612E07275482373E273A672A57351
:1030100005F084F9022006F02DFC009B3E681D8817
:10302000714B72491868E57206EB8603642202FB55
:1030300006F203EB83039B0012122E124FF47677F5
:10304000082563722272A6722760E5710AF03CF8C7
:103050000AF026FA83B243FA05F70026F9225B4903
:103060005E486373A2732773E67305F057F9022075
:1030700006F000FC4FF48B604FF0120E56227823BE
:10308000524920603427554884F80AE0A273E3735C
:10309000E5712672667226736673E77205F03EF973
:1030A000022006F0E7FB4FF4A36351482360E5716B
:1030B000FDF740FF4B490AF007F80AF0F1F9C0F3B9
:1030C00007234B482372FDF735FF464909F0FCFF03
:1030D0000AF0E6F960724648FDF72EFF414909F013
:1030E000F3FF0AF0DDF9C0F307234148A372FDF7AF
:1030F00023FF3C4909F0E8FF0AF0D2F9FF233349E6
:10310000E072364823736373A373E37305F006F923
:10311000022006F0AFFB4FF49B6335482360E57156
:10312000FDF77AFE2F4909F0CFFF0AF0B9F9C0F395
:1031300007232F482372FDF76FFE2A4909F0C4FFC9
:103140000AF0AEF9019B2B49607218680AF070F81A
:103150000AF080F940FA05F203462548A272E372AC
:10316000FDF784FE1F4909F0AFFF0AF073F940F341
:1031700007231F482373FDF779FE1A4909F0A4FFBE
:103180000AF068F90323114960731448A373E573C7
:1031900005F0C4F8022006F06DFB174A174B517872
:1031A000907892F800C092F803E01F785E78DA78A1
:1031B000E5719D7861724FF4AC73A07284F808C019
:1031C0000249064884F80BE020E000BF7494FF1F1A
:1031D0001688FF1F18D0FF1F1088FF1FBCD1FF1FCC
:1031E00030D0FF1F0000204168D1FF1F620B363B2B
:1031F0000C96FF1F0000C84214D0FF1F6494FF1FED
:103200009894FF1F8494FF1F84D1FF1F2773667358
:10321000A573E2732360FCE59E48FDF7B3FD796D6D
:1032200009F04AFE81469B48FDF7D2FD014648461B
:103230000AF0E8F800283FF466AD40F2C333954841
:1032400086F807803360FDF79DFD3F6D39460AF033
:10325000D9F8002800F008818F49384609F034FF7A
:103260000AF01EF980B240FA08F37072337200233C
:1032700001270426032289498948A772E67222732E
:103280006373A373E37305F049F83CE5854B986DD0
:1032900009F0C6FE834B0646596A93E640F259315F
:1032A000012650234E22216026732146082663738F
:1032B0007B48DFF810A2A273002323726372A3720B
:1032C000E372E373E67105F029F8022006F0D2FA02
:1032D000DAF80030E67140F251322260A86D002B1E
:1032E00040F0B38009F09CFEA96909F0EDFE6E493B
:1032F00009F0EAFE0AF0D4F880B240FA06F3207230
:103300006372DFF8C481DFF8C491D8F80030D9F8CF
:103310000020664E614900964FEA222E0026A372D5
:103320005F4822731B12E37284F80DE0604FA673AE
:10333000E67304F0F3FF022006F09CFA009A3B6863
:10334000128823721B124FEA222E544963724FF0E7
:10335000080B40F25533524884F80BE0A272236008
:1033600084F807B026736673A673E67304F0D6FF7D
:10337000022006F07FFA40F25633464884F807B040
:103380002360FDF749FD4B4B4B49019309F09CFE2F
:103390000AF086F820723F48FDF73EFD464909F0E5
:1033A00093FE0AF07DF8019A4349C0F307231068A1
:1033B000637209F03DFF0AF04DF840FA0BF2034644
:1033C0003448E272A372FDF751FD374909F07CFEE3
:1033D0000AF040F820732F48FDF748FD324909F004
:1033E00073FE0AF037F82D49A67340F307232C48E3
:1033F0006373E67304F092FF022006F03BFA4FF08D
:10340000020B4FF45772C0232449254822602372CF
:10341000667284F807B004F081FF584606F02AFA75
:1034200040F25E30254B264A20601C491C486372DE
:1034300084F807B0227204F071FFD5F8BC30062B77
:103440003FF426AD05B0BDE8F08F09F0E9FD696AEB
:1034500009F03AFE144909F037FE0AF021F880B26B
:103460000312207263724CE70A48FDF78BFC0A498D
:1034700009F02AFE0AF014F8C0F307230548337256
:10348000FDF780FC044909F01FFE0AF009F870728C
:10349000EDE600BF0C96FF1F00007A447494FF1FF6
:1034A000BCD1FF1F30D0FF1F000020411688FF1F36
:1034B0001088FF1F18D0FF1F0000C8422C1E0100FB
:1034C000281E01009894FF1F8494FF1F84D1FF1FC2
:1034D00010B5144C144A2368101D12F8011F9042B5
:1034E00041EA0323F9D1114A236003F10043136039
:1034F0000F4BD3F88430022B0CD00E4B1B68012BE2
:1035000000D010BD0C4B1B68012BFAD1BDE8104058
:10351000FEF738B81068094C09F082FD2060FEF70C
:10352000ADFCEAE788D1FF1F6BCFFF1FFC94FF1FA4
:1035300030D0FF1F9CD1FF1F0088FF1F80D1FF1FCD
:1035400070B5224A224C507A937A2168D27A214E61
:10355000214D43EA002342EA032301291846336040
:103560002B6019D01D4BD3F88430A0F50000022B3E
:10357000286024D02368012B00D070BD184B1B6835
:10358000012BFAD12968174808F020FB03211648BF
:10359000BDE8704008F026B8114B1B68012BE1D143
:1035A000104808F0BFFA0023102229680D4808F0DF
:1035B000CDFA03210D4808F015F82868D2E709F084
:1035C0002FFD0B4B1860FEF759FCD3E764CFFF1FAC
:1035D0009CD1FF1F88D1FF1FFC94FF1F30D0FF1F1D
:1035E0000088FF1FE089FF1FFC1A01003C1E01003C
:1035F00080D1FF1F9A4B1B78052B00F09B802DE993
:10360000F04F984C984E994DE26E636E9848326038
:1036100083B02B60FDF790FC216B09F0F3FE08B13D
:1036200000232B609248FDF785FCE16A09F008FF52
:1036300010B1002333602B608D48FDF7C9FBE168B2
:1036400009F0FEFE08B100232B608948FDF7C0FB9E
:10365000E16809F0F5FE08B100232B608448814F32
:10366000FDF790FB216909F0CDFE002868D000230A
:1036700033602B687D4F002B4DDD7D48DFF8E48102
:10368000FDF75AFCA16B09F0BDFE002840F0B480A4
:10369000784B77481B68734F012B00F0ED80FDF7E6
:1036A00097FB216A8046A06909F004FC0146404668
:1036B00009F0C6FE00282ED0286809F0B1FC81462A
:1036C0006B48FDF785FBBC69396A8246204609F0E4
:1036D000F1FBBB6E8046786EC01A09F0A1FC414632
:1036E0000746504609F0E6FB0146384609F0ECFC77
:1036F00041460746204609F0DDFB0146384609F001
:1037000097FD002109F0D8FB0146484609F0D2FB9D
:1037100009F0A0FE28603368534A002BAFBF2B6826
:103720002B6800211160002B01DA00232B6003B00D
:10373000BDE8F08F4C494D4A00230B601360704781
:103740004B48FDF71FFBF96909F05CFE00288ED19C
:103750003368DFF81491002B8BDD4548FDF7EAFB59
:10376000F96B09F06DFE002840F0CA804048DFF890
:10377000F480FDF707FBD4F8C8100746E06909F0AC
:103780009BFB0146384609F03DFE00283FF471AF2F
:10379000306809F045FC82463548FDF7F3FA834668
:1037A000D8F86C00D8F81C7009F03AFC394681460C
:1037B000584609F07FFB49468346002009F07AFB12
:1037C0000146584609F080FCD8F8C81083463846B0
:1037D00009F072FB394609F06DFB0146584609F0C5
:1037E00027FD494609F068FB0146504609F062FB97
:1037F00009F030FE30603CE7386809F011FC834680
:103800001B48FDF799FB0190D8F86400D8F830A068
:1038100009F006FC019B81465146184609F04AFB17
:1038200049460190002009F045FB019B01461846DE
:1038300009F04AFC51460190D8F8380009F03AFBEB
:10384000019B0146184609F0F3FC494609F034FB98
:103850000146584609F02EFB09F0FCFD386017E7D9
:1038600020D0FF1F30D0FF1F84D1FF1F8494FF1F83
:103870000C96FF1F9894FF1FFDF7AAFA216A804655
:10388000606A09F017FB0146404609F0D9FD00289F
:103890003FF441AF286809F0C3FB82462F48FDF78B
:1038A00097FAD7F82480396A8346404609F002FB2C
:1038B0008146B86E09F0B4FB0446786E09F0B0FB9F
:1038C000214609F0F7FA49460746584609F0F2FA48
:1038D0000146384609F0F8FB49460746404609F0DC
:1038E000E9FA0146384609F0A3FC214609F0E4FA5A
:1038F0000146504609F0DEFA09F0ACFD28600AE7FF
:10390000D9F8000009F08CFB82461448FDF712FB41
:103910000190F86ED7F83C8009F082FB019B83464A
:103920004146184609F0C6FA0146584609F0CCFB54
:1039300041468346F86A09F0BDFA0146584609F047
:1039400077FC002109F0B8FA0146504609F0B2FAB6
:1039500009F080FDC9F8000008E700BF0C96FF1FC2
:1039600008B5274808F0DEF80721264807F03AFE98
:10397000112005F049FF0621F8B1234807F032FE77
:10398000102005F041FF062100B3204807F02AFE71
:10399000122005F039FF062108B31D4807F022FE6A
:1039A000132005F031FF062110BB1A4807F01AFE5C
:1039B0001348BDE8084008F0B5B8174807F012FEF4
:1039C000102005F021FF06210028DED1134807F062
:1039D00009FE122005F018FF06210028DDD110484D
:1039E00007F000FE132005F00FFF06210028DCD0B1
:1039F0000C4807F0F7FD0248BDE8084008F092B80F
:103A0000E089FF1F401E0100481E0100581E0100F2
:103A1000681E0100801E0100501E0100601E010092
:103A2000701E0100781E010010B5254C2368042B80
:103A300027DC01210B2005F0E1FE01210C2005F01F
:103A4000DDFE0121142005F0D9FE0121152005F02D
:103A5000D5FEFF21162005F051FDFF21172005F0AE
:103A60004DFDFF21052005F049FDFF21062005F051
:103A700045FD236801330A2B2360C4BF0023236064
:103A800010BD00210B2005F0B9FE00210C2005F02F
:103A9000B5FE0021142005F0B1FE0021152005F02F
:103AA000ADFE0021162005F029FD0021172005F0AC
:103AB00025FD0021052005F021FD0021D6E700BFEE
:103AC0006CD1FF1F30B5092183B0B74806F0F4F977
:103AD000222006F07FF9B54BD3F8AC30012BB44B64
:103AE0001B7809D0052B10D8DFE813F03F01440103
:103AF0004E01530149010B00002B00F04F81052BB3
:103B000003D10721AB4806F0D7F9222006F062F96D
:103B1000FF2006F05FF9FF2006F05CF9A64CFF20BD
:103B200006F058F90821A54806F0C6F92168A4480E
:103B300008F04CF8FF2006F04DF9FF2006F04AF996
:103B4000FF2006F047F909219E4806F0B5F92168E3
:103B50009B4808F03BF8FF2006F03CF9FF2006F0F8
:103B600039F9FF2006F036F90C21974806F0A4F940
:103B7000964B9749186809F05BFB08F0FBFD0024A1
:103B800002460B4600948E4808F02AF8FF2006F003
:103B900021F9FF2006F01EF9FF2006F01BF909218C
:103BA0008C4806F089F98C48FDF760F908F0E2FDD1
:103BB000009402460B46824808F012F8FF2006F0F7
:103BC00009F9FF2006F006F9FF2006F003F90C21A1
:103BD000824806F071F98048FDF7AEF908F0CAFD99
:103BE000009402460B46764807F0FAFFFF2006F0E5
:103BF000F1F8FF2006F0EEF8FF2006F0EBF80D21BB
:103C0000774806F059F97448FDF794F908F0B2FDC9
:103C1000009402460B466A4807F0E2FFFF2006F0D8
:103C2000D9F8FF2006F0D6F8FF2006F0D3F80921D6
:103C30006C4806F041F96848FDF7EEF86A4909F06A
:103C400043FA08F097FD009402460B465C4807F0E3
:103C5000C7FFFF2006F0BEF8FF2006F0BBF8FF20EC
:103C600006F0B8F80C21614806F026F95A48FDF72D
:103C700089F85F4909F028FA08F07CFD00940246B3
:103C80000B464F4807F0ACFFFF2006F0A3F8FF20DB
:103C900006F0A0F8FF2006F09DF80D21554806F02B
:103CA0000BF94D48FDF794F8514909F00DFA08F069
:103CB00061FD009402460B46414807F091FFFF204A
:103CC00006F088F8FF2006F085F8FF2006F082F85D
:103CD0000921494806F0F0F8484B3948196807F0BF
:103CE00075FFFF2006F076F8FF2006F073F8FF203E
:103CF00006F070F80E21424806F0DEF83648FDF76F
:103D000067F805463448FDF73DF80146284609F0B6
:103D1000D1F8374909F0D8F908F02CFD0094024693
:103D20000B46274807F05CFFFF2006F053F8FF2002
:103D300006F050F8FF2006F04DF80C21314806F04F
:103D4000BBF8314B1E481968012918BF214607F0FE
:103D50003DFFFF2006F03EF8FF2006F03BF8FF2075
:103D600003B0BDE8304006F035B80621274806F01C
:103D7000A3F8CAE60721264806F09EF8C5E60B21FF
:103D8000244806F099F8C0E60721234806F094F885
:103D9000BBE60821214806F08FF8B6E60821204846
:103DA00006F08AF8B1E600BF881E010030D0FF1F80
:103DB00020D0FF1F141C01001088FF1FA01E01004F
:103DC000B489FF1FAC1E0100B81E010018D0FF1FF0
:103DD0000000C842C81E01000C96FF1FD41E01003F
:103DE000E41E0100F41E010000002041001F01003C
:103DF00000007A44101F0100201F01002488FF1FCB
:103E00002C1F01003C1F010028D1FF1FE41B0100F3
:103E1000EC1B0100F41B0100001C0100081C010048
:103E2000941E01002DE9F041BE4A13889BB282B076
:103E30008BB9BD4DD5F8BC30BB4E042B65D0032BE0
:103E400000F09880012B00F0C180022B00F033813C
:103E500002B0BDE8F0811088B34D80B209F0E0F8FF
:103E6000B24909F031F9B24B0446188809F0D8F884
:103E70000146204609F028F9AE4B0446188809F09F
:103E8000CFF80146204609F01FF9AB4909F01CF9AB
:103E900009F006FB80B209F0C3F80646A86D09F0E8
:103EA000BFF8A96909F010F90146304609F0C0F9D8
:103EB00009F0D0FAA14B1A689042B8BF1860A04B25
:103EC0001B780446002BB5D09E4807F02BFE0C2132
:103ED0009D4807F087FB3046974909F0F5F808F050
:103EE00049FC00260B460246009696488E4E07F087
:103EF00077FE0D21954807F075FB2146914807F0A4
:103F000065FED5F8BC30042B99D1914C914AA37928
:103F1000226043F001030822E271A371B06D09F041
:103F20007FF8B16909F0D0F88B4909F0CDF809F0B4
:103F3000B7FA824B894A1B68126893FBF2F380B28E
:103F400000271A124FEA202E607221468448E3723D
:103F5000A27284F808E027736773A773E77304F00D
:103F6000DDF9A279D6F8BC3067F30002032BA27109
:103F70007FF468AF764CA86DA3720122E823072175
:103F800040F2FF26227263722660E17109F048F860
:103F9000A96909F099F8704909F096F809F080FAD2
:103FA000664B6E4A1B68126893FBF2F382B21E12D4
:103FB000171221466A486373E2722773A67304F0EE
:103FC000ADF9D5F8BC30012B7FF43FAF654B604CA9
:103FD0001B682360072280231020E271237205F002
:103FE00013FC002840F0D1805F4B1B68DFF84C8148
:103FF0005A4FA86D564E03EB83035B001A12A3724F
:104000006272D8F800303A6893FBF2F31A126273C6
:10401000A37309F005F8A96909F056F8534B19681C
:1040200008F048FF4C4909F04FF809F039FA80B21E
:104030000312314620734A48E37204F06FF90220FC
:1040400005F018FC4A4B1B682360072280231020D0
:10405000E271237205F0D8FB002840F09480424BB7
:104060001B68A86D03EB83035B001A127272B372B4
:1040700008F0D6FFA96909F027F83E4B196808F047
:1040800019FF354909F020F809F00AFA82B2161230
:104090003868D8F80030227393FBF0F32C4930488D
:1040A000A3731A12E672627304F038F9D5F8BC30C3
:1040B000022B7FF4CDAE264C2948237240F20E32FB
:1040C000012321462260E37104F028F91B4B1B6891
:1040D0005B00FF2BC8BFFF23042140224FF4417037
:1040E0002060E17122726372A86D08F099FFA969DE
:1040F00008F0EAFF2049054609F0A2F900283DD062
:104100002946284608F0D8FE09F0CAF980B2031201
:10411000E072A3720E49124802B0BDE8F04104F00B
:10412000FDB800BF8CD1FF1F30D0FF1F6F12833A44
:104130003888FF1F0888FF1FCDCCCC3D8494FF1F1B
:1041400078CFFF1FE089FF1F4C1F01005C1F01009B
:104150007494FF1FF4E50618000020410C88FF1F2F
:10416000BCD1FF1F4C88FF1F0488FF1F6094FF1FF6
:104170005088FF1F84CFFF1F000048430122902377
:10418000A272E372C6E7024B6AE7014B2DE700BF5C
:104190001C88FF1F70B50368C57984B0012D8DF8A8
:1041A00005304FEA13230E468DF8043005F1010265
:1041B00001A909DD07300D440DF1050310F8014F89
:1041C00003F8014FAB42F9D1034B04489B5D03F068
:1041D00079FB04B070BD00BFF02D01000C95FF1FEE
:1041E000F0B40D4B0D489C790822FF27CD26A2255F
:1041F000DA710022B0216FF300041F729E72DD722B
:104200005A721A735A739A73DA7319609C71194649
:10421000F0BC04F083B800BF7494FF1FBCD1FF1F33
:104220002DE9F0416D4D2B780F2B82B000F0888086
:104230006B4B93F8CE206B4E002A50D13378082B6D
:1042400000F09580DFF8D08143F08003664F674C23
:104250003A682360012A4FF00803E37154D06822C2
:1042600010232272637298F8003060490022022BFA
:10427000A2720AD82B78CA724FEA03130A734A73E0
:10428000DBB210D104338B730EE03B68012B04BF0B
:1042900008230B732B7818BF0A73502000221B01D0
:1042A000C872DBB26273A37331785048FFF772FFB4
:1042B000E073022005F0DEFA4C494D4804F02EF878
:1042C0002A7833784B48013201332A703370FCF777
:1042D000C1FB08B1FFF784FF02B0BDE8F081012AFD
:1042E0000CD133780C2BADD1DFF82C8198F800304D
:1042F0000022032B327041D98023A7E73378DFF8FF
:10430000188143F08003A1E73B4B1B78002BA6D11B
:104310003848FCF737FD394908F0D6FE09F0C0F8F7
:1043200000F10A0333482372FCF72CFD334908F0EF
:10433000CBFE09F0B5F880B20A300012607292E745
:104340002F4C304E236800933268009B00219A4224
:1043500029702D4A02D21368012B14DD0023264C4C
:104360002448237019461360FCF758FD60E7DFF816
:10437000A880327098F80030032BBDD8013388F83C
:104380000030802362E70127DFF86CE019488EF8DF
:1043900000703B4439461360FCF740FD1B4B1B6823
:1043A000BB420CD00E4B22680192B3F8A810019AC0
:1043B0003C314FF47A7000FB0122326039E7144837
:1043C00007F0B0FB1321134807F00CF9104807F071
:1043D000A9FB0F4807F0A6FBE4E700BF70D1FF1F61
:1043E00030D0FF1F98D1FF1F28D1FF1F7494FF1FEB
:1043F000BCD1FF1F0C96FF1F78D1FF1F00007A442D
:1044000064D3FF1F5CD1FF1F0095FF1F0088FF1FB3
:10441000E089FF1F6C1F01002CD0FF1F2DE9F04128
:104420009A4C9B4D82B007F077F823682860042BE4
:1044300000F01283022B4BD0082B00F09380072B47
:1044400040F04E81332801F01B8600F3938331281E
:1044500001F00086322840F0138107F099F8002817
:1044600040F33C818B488C4E07F0F4FC08F0D8FDFB
:104470008A4908F029FE61230122706422602B60C2
:104480001846A0F152031F2B00F2FA80DFE813F068
:10449000C60DF800F800F800F800F800F800F80081
:1044A000F800F800F800F800F800F800F800C5037C
:1044B000430F4C05EA05B604F800F800F80038048C
:1044C000F800460FF800F800F800F800F800CB0DEF
:1044D000A0F13103422B00F2D380DFE813F0720821
:1044E00080088E082A083D084C0859089B08D1000E
:1044F000D100D100D100D100D100D100D100D10034
:10450000D100D100D100D100D100D100D100D10023
:10451000D100D100D100D100D100D100D100D10013
:10452000D100D100D100D100D100D100D100D10003
:10453000D100D100D100D100D100D100D100D100F3
:10454000D100A808D100D100D100D100D100D10004
:10455000D100D100D100D100D100D100D1004E0056
:10456000D1006808322800F0328340F316833428E3
:1045700000F04983712840F0838000227323226079
:104580002B602368002B7ED1454E424807F0CAFAC3
:104590000421444807F026F83E4807F0C3FA1021EA
:1045A000414807F01FF83B4807F0BCFA13213F4889
:1045B00007F018F83E4B3748196807F007FB3548F5
:1045C00007F0B0FA14213B4807F00CF8314807F027
:1045D000A9FA1E21384807F005F82E4807F0A2FA7C
:1045E0001521364806F0FEFF2A4807F09BFA1E21E7
:1045F000334806F0F7FF274807F094FA20213148A6
:1046000006F0F0FF234807F08DFA19212E4806F036
:10461000E9FF204807F086FA12212C4806F0E2FF55
:104620001C4807F07FFA0F21294806F0DBFF1948E4
:1046300007F078FA0D21274806F0D4FF154807F057
:1046400071FA002201233260236002B0BDE8F081DC
:1046500006F09EFF002841F3F6840E480E4E07F048
:10466000F9FB01270346014662221B48F3652760D8
:104670002A60FCF7D5FB23682868012B3FF401AFC3
:1046800073283FF47EAF02B0BDE8F081A4D1FF1FD4
:1046900060CFFF1FE089FF1F30D0FF1F6F12833AEA
:1046A0000088FF1F842301008C230100A023010048
:1046B0002488FF1FB4230100CC230100EC23010058
:1046C0000424010024240100482401006424010082
:1046D00078240100882401000C96FF1F23682868B5
:1046E000062B40F08B80A0F13103402BC8D801A2EB
:1046F00052F823F01354000081540000E7540000E6
:10470000AD540000D35400003F5400006354000037
:1047100081460000ED530000814600008146000004
:10472000814600008146000081460000814600006D
:10473000814600008146000081460000814600005D
:10474000814600008146000081460000814600004D
:10475000814600008146000081460000814600003D
:10476000814600008146000081460000814600002D
:10477000814600008146000081460000814600001D
:10478000814600008146000081460000814600000D
:1047900081460000814600008146000081460000FD
:1047A00081460000814600008146000081460000ED
:1047B00081460000814600008146000081460000DD
:1047C00081460000814600008146000081460000CD
:1047D00081460000814600008146000081460000BD
:1047E00081460000814600008146000081460000AD
:1047F000814600007B45000023682868052B40F0B7
:104800008D80A0F13103402B3FF63AAF01A252F860
:1048100023F000BFC5510000B9520000D95200007A
:10482000F9520000235300003F530000814600006E
:10483000814600008146000081460000814600005C
:10484000814600008146000081460000814600004C
:10485000814600008146000081460000814600003C
:10486000814600008146000081460000814600002C
:10487000814600008146000081460000814600001C
:10488000814600008146000081460000814600000C
:1048900081460000814600008146000081460000FC
:1048A00081460000814600008146000081460000EC
:1048B00081460000814600008146000081460000DC
:1048C00081460000814600008146000081460000CC
:1048D00081460000814600008146000081460000BC
:1048E00081460000814600008146000081460000AC
:1048F000814600008146000081460000814600009C
:10490000814600008146000081460000814600008B
:10491000814600005953000023682868032B7FF468
:10492000ACAEA0F13003482B3FF6AAAE01A252F87C
:1049300023F000BF51460000895E0000B15E000018
:10494000D95E0000635C0000855C0000AD5C000087
:10495000D55C0000F35C0000175D0000814600009C
:10496000814600008146000081460000814600002B
:10497000814600008146000081460000814600001B
:10498000814600008146000081460000814600000B
:1049900081460000814600008146000081460000FB
:1049A00081460000814600008146000081460000EB
:1049B00081460000814600008146000081460000DB
:1049C00081460000814600008146000081460000CB
:1049D00081460000814600008146000081460000BB
:1049E00081460000814600008146000081460000AB
:1049F00081460000814600003F5D00005D5D0000D3
:104A00007B5D0000995D0000B75D0000D55D000092
:104A1000475700006B570000814600009157000087
:104A20002B5E0000814600008146000081460000A8
:104A300081460000814600007B450000FB5E0000CF
:104A4000814600008146000081460000814600004A
:104A5000814600001B5F0000A0F13003422B3FF6AF
:104A60000FAE01A252F823F0A5560000B95600007F
:104A7000BD560000C1560000E15600002B57000053
:104A800015570000275700003B5600005356000002
:104A900081460000814600008146000081460000FA
:104AA00081460000814600008146000081460000EA
:104AB00081460000814600008146000081460000DA
:104AC00081460000814600008146000081460000CA
:104AD00081460000814600008146000081460000BA
:104AE00081460000814600008146000081460000AA
:104AF000814600008146000081460000814600009A
:104B00008146000081460000814600008146000089
:104B10008146000081460000814600008146000079
:104B20008146000081460000814600008146000069
:104B30008156000081460000814600008146000049
:104B40008146000081460000814600008146000049
:104B50008146000081460000814600008146000039
:104B60008146000081460000814600007B45000030
:104B70009B56000034287FF4FDAC06F009FD0028A8
:104B80007FF7ACAD8A488B4E07F064F961230122B0
:104B9000B08622602B60184673E431287FF470AD34
:104BA00006F0F6FC002840F3BF848148814E07F0F0
:104BB00051F9C0B286F8480002288ABF0021014698
:104BC00086F84810B6F9D030F26C7B4814E006F055
:104BD000DFFC00281CDD7648764E07F03BF908F034
:104BE0001FFA764908F070FAB6F9D03096F84810F6
:104BF000074602467048F764FCF714F90123692060
:104C0000236028603DE406F0C3FC002800F37E84A6
:104C10002368286813E406F07FFC06F0B9FC05461B
:104C20000028F8D16248634E06F07CFF604806F029
:104C300079FF5F4806F076FF5D4806F073FF5C4839
:104C400006F070FF1F215E4806F0CCFC584806F0C5
:104C500069FF1C215B4806F0C5FCB06A5A4908F0A0
:104C600033FA07F087FD009502460B46504806F0E0
:104C7000B7FF0221554806F0B5FC4D4806F052FF3B
:104C80002321534806F0AEFC706C4F4908F01CFA23
:104C900007F070FD009502460B46454806F0A0FF60
:104CA00002214A4806F09EFC414806F03BFF1921CC
:104CB000484806F097FC306C07F05CFD02250B4677
:104CC000024600953A4806F08BFF2946424806F016
:104CD00089FC374806F026FF2221404806F082FC76
:104CE000B18E334806F072FF03213D4806F07AFC8E
:104CF0002F4806F017FF07232360C4E406F00CFCDE
:104D000006F046FC05460028F8D12948294E06F051
:104D100009FF274806F006FF254806F003FF244850
:104D200006F000FF224806F0FDFE15212D4806F092
:104D300059FC1F4806F0F6FE18212B4806F052FCDD
:104D40002B460A2296F84810194806F0FFFE18482C
:104D500006F0E8FE2821254806F044FCF06C1A49CC
:104D600008F0B2F907F006FD00950B460246104820
:104D700006F036FF0221154806F034FC0C4806F018
:104D8000D1FE18211A4806F02DFCB6F9D0100848BB
:104D900006F01CFF064806F0C5FE1321154806F074
:104DA00021FC034806F0BEFE082323606BE400BF2D
:104DB000E089FF1F30D0FF1F0C96FF1F6F12833A50
:104DC000D0210100F021010000007A44EC1F010015
:104DD0001022010034220100CC21010050220100E8
:104DE000742201004C240100A41F0100C01F010017
:104DF000F01F01000C20010006F08EFB06F0C8FB3E
:104E000005460028F8D18248824E06F08BFE804885
:104E100006F088FE7E4806F085FE7D4806F082FE9C
:104E20007B4806F07FFE11217B4806F0DBFB7848CB
:104E300006F078FE2821794806F0D4FBB06978495D
:104E400008F042F907F096FC009502460B467048C0
:104E500006F0C6FE0221734806F0C4FB6C4806F05B
:104E600061FE1621704806F0BDFB306A6C4908F0FF
:104E70002BF907F07FFC00950B460246644806F0CC
:104E8000AFFE0221674806F0ADFB614806F04AFE1E
:104E9000D6F8BC30002B32DD1D21644806F0A2FBA1
:104EA000706E08F0BDF8624908F00EF907F062FC78
:104EB000022502460B460095554806F091FE012159
:104EC0005C4806F08FFB524806F02CFE1F215A4822
:104ED00006F088FBB06E08F0A3F8554908F0F4F826
:104EE00007F048FC009502460B46494806F078FE5C
:104EF0000121504806F076FB454806F013FE1121CB
:104F00004E4806F06FFBD6F8BC30072B01F2148038
:104F1000DFE813F07A087F08750870086B086608E8
:104F200061080E0806F0F8FA06F032FB0028F9D105
:104F30003748384E06F0F6FD354806F0F3FD3448A4
:104F400006F0F0FD324806F0EDFD314806F0EAFDCE
:104F50001F213B4806F046FB2D4806F0E3FD1E21CD
:104F6000384806F03FFB2A4806F0DCFD1A21364897
:104F700006F038FBD6F88430022B01F06581032B54
:104F800001F05981012B01F0688109212F4806F0B9
:104F900029FB1F4806F0C6FD14212D48DFF8748058
:104FA00006F020FBD6F88010194806F00FFE1848CE
:104FB00006F0B8FD1C21274806F014FBD6F888102F
:104FC000134806F003FE124806F0ACFD1C212248EF
:104FD00006F008FBD6F8B8100D4806F0F7FD0C48AF
:104FE00006F0A0FDD6F8845025F00207012F01F04D
:104FF0005F80022D01F062811321184806F0F2FA59
:10500000034806F08FFD02232360FFF73CBB00BF7F
:10501000E089FF1F30D0FF1FF02301002020010096
:1050200000007A44EC1F01004C20010064200100C4
:10503000CDCCCC3D0C27010084200100A420010030
:10504000CC250100EC2501000C260100842601007E
:1050500090260100A8260100C82601000C200100AE
:1050600006F05AFA06F094FA0028F9D1BE48BF4D6E
:1050700006F058FDBC4806F055FDBB4806F052FD51
:10508000B94806F04FFDB84806F04CFD1321B8486A
:1050900006F0A8FAB44806F045FD0D21B54806F023
:1050A000A1FAB14806F03EFD0F21B34806F09AFA86
:1050B000B24BAD48196806F089FDAB4806F032FDE9
:1050C0001321AF4806F08EFAAE4BA748196806F0D8
:1050D0007DFDA54806F026FD1221AB4806F082FAB8
:1050E000AA4BA148196806F071FD9F4806F01AFD09
:1050F0001121A74806F076FAA64B9B48196806F0DE
:1051000065FD994806F00EFD0E21A34806F06AFAE7
:10511000D5F8AC10944806F059FD934806F002FD0E
:1051200019219E4806F05EFA9D4B8F48196806F0DB
:105130004DFD8D4806F0F6FC11219A4806F052FA12
:10514000994B8948196806F041FD874806F0EAFC4A
:105150001021964806F046FA954B8348196806F0E8
:1051600035FD814806F0DEFC1C21924806F03AFA33
:10517000914B7D48196806F029FD7B4806F0D2FC6A
:1051800016218E4806F02EFAB5F8A810764806F0DB
:105190001DFD1E218A4806F025FA734806F0C2FC60
:1051A0001721884806F01EFA6F4806F0BBFC132151
:1051B000854806F017FA6C4806F0B4FC0423236017
:1051C000FFF761BA06F0E4F900287FF7A5AB66485F
:1051D000664E06F03FFE01226B23C6F88C0022606B
:1051E0002B6001E006F098F906F0D2F90028F9D119
:1051F0005D485E4D06F096FC5B4806F093FC5A480D
:1052000006F090FC584806F08DFC574806F08AFCE2
:1052100021216E4806F0E6F9534806F083FC15217B
:105220006B4806F0DFF9D6F88C104F4806F0CEFC3C
:105230000221684806F0D6F94B4806F073FC1E219F
:10524000654806F0CFF9D6F89410474806F0BEFC42
:105250000321624806F0C6F9434806F063FC1E21AC
:105260005F4806F0BFF9D6F890103F4806F0AEFC54
:105270003D4806F057FC1D215A4806F0B3F9D6F810
:10528000B010394806F0A2FC374806F04BFC1E214E
:10529000554806F0A7F9D6F8B410334806F096FC46
:1052A000314806F03FFCD6F8AC30012B00F0F48713
:1052B00005232360FFF7E7B906F06AF900287FF7B6
:1052C0002BAB2948294E06F0C5FD01226B23C6F8F9
:1052D000940022602B6087E706F05AF900287FF7D8
:1052E0001BAB2148214E06F0B5FD01226B23C6F809
:1052F000900022602B6077E706F04AF900287FF7DC
:105300000BAB1948194E06F0A5FD274BC6F8B000A7
:1053100002221A60FCF7AEFA01226B2322602B6096
:1053200062E706F035F900287FF7F6AA0E480F4E1F
:1053300006F090FD1C4BC6F8B4000322E9E70B4EC3
:1053400096F8CD30B3FA83F35B0901216B2286F81E
:10535000CD3021602A6047E71349002373220B6098
:1053600023602A60FFF70DB9E089FF1F30D0FF1FCF
:1053700098240100AC240100BC2401009CD1FF1F33
:10538000CC24010008D0FF1FE024010058D1FF1FEA
:10539000F424010024D0FF1F082501001825010076
:1053A0006894FF1F342501008894FF1F48250100E1
:1053B0005C94FF1F5C2501002088FF1F7C250100F5
:1053C00094250100B42501000C2001007822010081
:1053D0009C22010060210100B4220100EC1C0100AC
:1053E000D4220100F42201001423010006F0D0F8B9
:1053F00000287FF701AABB48BB4E06F02BFD07F043
:105400000FFE65230122B06322602B601846FFF770
:1054100038B806F0BDF800287FF7EEA9B148B24EC3
:1054200006F018FD07F0FCFDB04907F001FF652309
:105430000122B06122602B601846FFF722B806F007
:10544000A7F800287FF7D8A9A648A74E06F002FDC6
:1054500065230122C6F8C00022602B601846FFF7C2
:1054600010B8A14B93F8CC20002A00F01C86002233
:1054700083F8CC200123652023602860FFF701B862
:1054800006F086F800287FF7B7A99648964E06F0F2
:10549000E1FC07F0C5FD954907F0CAFE652301222E
:1054A000306222602B601846FEF7EBBF06F070F802
:1054B00000287FF7A1A98B488B4E06F0CBFC00EBB0
:1054C0008000430001226520B36622602860FEF759
:1054D000D8BF854AD2F8BC300133072BC8BF0023A0
:1054E000C2F8BC30C6E706F053F800287FF784A95D
:1054F0007C487D4E06F0AEFC00EB800043000122AC
:105500006520736622602860FEF7BBBF7548764E43
:1055100006F0A0FC07B23B46F26C96F848107448BF
:10552000A6F8D070FFF768BB6F4E96F84800FFF7FB
:1055300043BB0123236006F02BF8002807DD6948F0
:10554000694E06F087FC07F06BFDC6F89C006320EF
:1055500028602368FEF773BF0123236006F018F864
:105560000028F4DD5F48604E06F074FC07F058FD3B
:10557000C6F89800EBE70123236006F009F800283D
:10558000E5DD5848584E06F065FCA6F8C600DEE793
:10559000554AD2F8D4300133042BC8BF0123C2F8D6
:1055A000D4300123632023602860FEF76ABF4E4A8F
:1055B000D2F884300133032BC8BF0023C2F88430F3
:1055C000EFE7494ED6F88030B3FA83F35B09012246
:1055D0006320C6F8803022602860FEF752BF424E3A
:1055E000D6F88830B3FA83F35B0901226320C6F84A
:1055F000883022602860FEF744BF0123236005F055
:10560000C7FF0028CDDD3748374E06F023FCC6F82B
:10561000B800C6E70123236005F0BAFF0028C0DD0B
:105620003048314E06F016FCC6F8A400B9E7FDF785
:10563000A7F923682868FEF7FFBE2E4A1368B3FA5D
:1056400083F35B0901216420136021602860FEF769
:1056500018BF0123236005F09BFF002800F3DC85C1
:10566000254B1A68042A01DD02221A6064232B608C
:105670002368082B4FF064007EF4E1AEFEF772BFA2
:105680000123236005F084FF0028EFDD1548164E46
:1056900006F0E0FBA6F8A800E8E701232360FEF788
:1056A0009FFDE3E7154A137801214B4064201370F6
:1056B00021602860FEF7E5BE114ABFE7114ABDE749
:1056C000114A124F1368002B0CBF012100214FF02B
:1056D00001031160236040F0C98564222A60C8E795
:1056E0000B4AABE7E089FF1F30D0FF1F00007A4470
:1056F0000C96FF1F5C94FF1F2088FF1F78CFFF1FB1
:105700009CD1FF1F08D0FF1F58D1FF1FA4D1FF1F3E
:1057100024D0FF1F012327482360FBF7B5F9264A51
:1057200023681060D9E7254A88E7254ED6F8AC30C3
:10573000B3FA83F35B0901226420C6F8AC3022601F
:105740002860FEF79EBE05F023FF00280DDD1D48F2
:105750001B4E06F07FFB07F063FC1B4907F068FD5A
:1057600001226223706222602B6005F011FF002885
:105770000EDD1448124E06F06DFB07F051FC124985
:1057800007F056FD01226223C6F8C80022602B6094
:1057900005F0FEFE002840F356840A48084E06F045
:1057A00059FB07F03DFC01226223F06322602B606D
:1057B0000EE000BF0C96FF1F6894FF1F8894FF1F28
:1057C00030D0FF1FE089FF1F00007A4405F0A4FEDF
:1057D00005F0DEFE05460028F8D1C348DFF87883DF
:1057E00006F0A0F9C04806F09DF9BF4806F09AF906
:1057F000BD4806F097F9BC4806F094F91521BB485E
:1058000005F0F0FEB84806F08DF91421B84805F00F
:10581000E9FEB54806F086F91B21B64805F0E2FE20
:10582000B14806F07FF91321B34805F0DBFEAE481E
:1058300006F078F9AC4806F075F9AB4806F072F955
:105840002021AE4805F0CEFEF068AD4907F03CFCE3
:1058500006F090FF009502460B46A34806F0C0F9FB
:105860000221A84805F0BEFE0221A74805F0BAFEB5
:105870009D4806F057F92121A44805F0B3FE306990
:105880009F4907F021FC06F075FF009502460B4684
:10589000954806F0A5F902219A4805F0A3FE0221D9
:1058A000994805F09FFE904806F03CF91F21984862
:1058B00005F098FEF06A06F05DFF022702460B46EF
:1058C0000097894806F08CF90121924805F08AFE7C
:1058D00039468D4805F086FE834806F023F92021DD
:1058E0008D4805F07FFE306B06F044FF00970246BE
:1058F0000B467D4806F074F90121864805F072FEDA
:105900003946814805F06EFE774806F00BF92321F1
:10591000824805F067FE306D794907F0D5FB06F047
:1059200029FF009502460B466F4806F059F93946A3
:10593000744805F057FE3946734805F053FE6A482F
:1059400006F0F0F81F21764805F04CFE706D6C49AA
:1059500007F0BAFB06F00EFF009502460B466248C0
:1059600006F03EF93946674805F03CFE3946664880
:1059700005F038FE5C4806F0D5F81921694805F0B5
:1059800031FE316E584806F021F93946664805F077
:1059900029FE39465C4805F025FE534806F0C2F85A
:1059A0001821624805F01EFEF06E07F039FB6049D1
:1059B00007F08AFB06F0DEFE009702460B464A48D7
:1059C00006F00EF901215B4805F00CFE39464E4801
:1059D00005F008FE444806F0A5F82B21564805F0CE
:1059E00001FEF069464907F06FFB06F0C3FE009523
:1059F00002460B463C4806F0F3F83946414805F0AC
:105A0000F1FD3946404805F0EDFD374806F08AF8CB
:105A10001F214A4805F0E6FDF16D334806F0D6F83F
:105A20003946394805F0DEFD2F4806F07BF8202185
:105A3000434805F0D7FDB16D2B4806F0C7F839464D
:105A4000314805F0CFFD284806F06CF810213D489C
:105A500005F0C8FD316F244806F0B8F839462948EA
:105A600005F0C0FD3946284805F0BCFD1E4806F08B
:105A700059F81321344805F0B5FD716F1A4806F046
:105A8000A5F80121314805F0ADFD39461E4805F065
:105A9000A9FD154806F046F810212D4805F0A2FD95
:105AA000B16F114806F092F83946164805F09AFD94
:105AB0003946154805F096FD0B4806F033F81421D9
:105AC000244805F08FFDF16F074806F07FF80121AB
:105AD0001E4805F087FD39460B4805F083FD024856
