:1000000000800020BD010000918B0000498B0000A2
:10001000498B0000498B0000498B0000498B000090
:10002000498B0000498B0000498B0000918B000038
:10003000918B0000498B000051AD000055AE0000CF
:10004000918B0000918B0000918B0000918B000040
:10005000918B0000918B0000918B0000918B000030
:10006000918B0000918B0000918B0000918B000020
:10007000918B0000918B0000918B0000918B000010
:10008000918B0000918B0000918B0000918B000000
:10009000918B0000918B0000918B0000918B0000F0
:1000A000918B0000918B0000918B0000918B0000E0
:1000B000918B00007980000085800000898000001D
:1000C00095800000998000009D800000918B0000C9
:1000D000918B0000918B0000918B0000918B0000B0
:1000E000918B0000918B0000918B0000918B0000A0
:1000F000918B00005DB50000918B00002D990000F0
:10010000918B0000F99A0000918B0000918B000008
:10011000918B0000918B0000918B0000918B00006F
:10012000918B0000918B0000918B0000918B00005F
:10013000918B0000918B0000918B0000918B00004F
:10014000918B0000918B0000918B0000918B00003F
:10015000918B0000918B0000918B0000918B00002F
:10016000918B0000859D0000918B0000918B000019
:10017000918B0000918B0000918B0000918B00000F
:10018000918B0000918B0000918B0000918B0000FF
:10019000918B0000918B0000918B0000918B0000EF
:1001A000918B0000918B0000918B0000918B0000DF
:1001B000918B0000918B0000918B0000564B4CF20C
:1001C000205210B51A804DF628121A8000BF00BFC9
:1001D00008F0E2FC514B4FF010621A60504A9A60EE
:1001E000504ADA60504A136813F4807304D14F49BF
:1001F0000B604FF4A85313604D4B1A78110703D5C9
:100200001A7842F008021A704A4B4B492A221A7097
:100210004A4A4B4B8B4204D252F8040F43F8040B6A
:10022000F8E7484B484900228B4202D243F8042B9E
:10023000FAE74649464A002352F8230041F82300D2
:1002400001336F2BF8D1434B434A802103F8011B44
:100250009342FBD1414B3D4A1A60414B8A221A70AE
:10026000A3F5805324225A70A0221A709A7992071B
:10027000FCD59A79D406FCD43A4A937903F00C035E
:10028000082B384BF9D103221A7140225A719A79FE
:100290009006FCD5334A9179324B4906FBD5324A58
:1002A000324911600221516020221A709A7902F0BD
:1002B0000C020C2AFAD12E4B2E4A1A602E4B2F4AD2
:1002C0001A6000225A60072243F8042C2C4AC3F813
:1002D0000C2D62B608F094FF144B1B68DA0705D5A5
:1002E000284808F071FD284B284A1A60284B1B78D3
:1002F0005B0609D5244C254B22689A4204D121483B
:1003000008F062FD002323600CF010FC08F04AFCAA
:100310000AF0E4FFFEE700BF0E20054030800440F5
:10032000823F04000100002B10D0034014D0034092
:1003300002D0074000E00740F893FF1F4C2901005E
:100340002087FF1FF893FF1F00D6FF1F0082FF1FAB
:100350000000000000E400E05FE400E008ED00E0E1
:100360000050064000400640448004400000030165
:1003700004800440C010050014E000E0FF76010096
:1003800000002020F60A975F1CE00340A5C3945AA2
:1003900000F00740FFFFFFFFFFFFFFFFFFFFFFFF32
:1003A000FFFFFFFFFFFFFFFFFFFFFFFFFFFFFFFF5D
:1003B000FFFFFFFFFFFFFFFFFFFFFFFFFFFFFFFF4D
:1003C000FFFFFFFFFFFFFFFFFFFFFFFFFFFFFFFF3D
:1003D000FFFFFFFFFFFFFFFFFFFFFFFFFFFFFFFF2D
:1003E000FFFFFFFFFFFFFFFFFFFFFFFFFFFFFFFF1D
:1003F000FFFFFFFFFFFFFFFFFFFFFFFFFFFFFFFF0D
:10040000FFFFFFFFFFFFFFFFFFFFFFFFDEF9FFFF23
:1004100010B5054C237833B9044B13B10448AFF33E
:1004200000800123237010BDF893FF1F000000001F
:1004300048290100084B10B51BB108490848AFF323
:1004400000800848036803B910BD074B002BFBD0A0
:10045000BDE81040184700BF00000000FC93FF1FDC
:1004600048290100F893FF1F00000000F0B400F1DC
:100470002C06174F00243146031F00F15C0243F89D
:10048000044FB34241F8047F4FF0000542F8044F97
:10049000F5D100230F4A1049C0F89050C0F894508D
:1004A000C0F89850C0F89C50C0F8A050C0F8B050A8
:1004B000C0F8A420C0F8AC20C0F8A81080F8B8306C
:1004C00080F8B93080F8D030C0F8DC30F0BC70472C
:1004D0000000A040000048430000C8C210B4031F41
:1004E000002400F12C0143F8044F8B424FF000022E
:1004F000F9D10023C0F89020C0F89420C0F89820CB
:10050000C0F89C20C0F8A020C0F8E03080F8B830D7
:1005100080F8B93080F8D03010BC70472DE9F04138
:100520008046CE1D00F1900400F1A00716F8010FDF
:1005300028380CF095F8094944F8040F05460CF0EA
:100540009FFA38B1B8F9E4000CF08AF829460BF0AC
:10055000D3FF2060BC42E9D1BDE8F081000020C299
:100560002DE9F043814685B0144604292BD8DFE8F5
:1005700001F0798EBB035100637A3F2B09D8207AB2
:1005800000EB03200CF06CF875490CF071F9C9F818
:100590001800E37A3F2B09D8A07A00EB03200CF077
:1005A0005FF86F490CF064F9C9F81C00637B3F2BBE
:1005B00009D8207B00EB03200CF052F868490CF0BE
:1005C00057F9C9F8200009F15C08464609F12C05E5
:1005D000A9F1040757F8044F55F8040F21460CF011
:1005E0004FFA30B1D9F8B41020460CF03FFA00B100
:1005F0002C6056F8041F20460CF042FA594920B1ED
:1006000020460CF03DFA00B134604545E2D105B01A
:10061000BDE8F083637A3F2B09D8207A00EB0320F2
:100620000CF01EF84E490CF023F9C9F82400E37AC7
:100630003F2B09D8A07A00EB03200CF011F84849B1
:100640000CF016F9C9F82800637B3F2BBBD8207B40
:1006500000EB03200CF004F841490CF009F9C9F84B
:100660002C00B0E7607A227AA37AE17A02EB0022CA
:1006700002EB034303EB0163C9F8DC30637B227BAD
:100680001B0203F470631344C9F8D8309BE7627A05
:1006900003933F2A0CD8207A00EB02200BF0E0FFF6
:1006A0002F490CF0E5F8039BC9F80000012B44D05A
:1006B000E37A3F2B09D8A07A00EB03200BF0D0FFA0
:1006C00027490CF0D5F8C9F80400637B3F2B3FF6AF
:1006D0007AAF207B00EB03200BF0C2FF20490CF027
:1006E000C7F8C9F808006EE7637A3F2B09D8207A6B
:1006F00000EB03200BF0B4FF19490CF0B9F8C9F86E
:100700000C00E37A3F2B09D8A07A00EB03200BF012
:10071000A7FF13490CF0ACF8C9F81000637B3F2B1E
:100720003FF651AF207B00EB03200BF099FF0C4903
:100730000CF09EF8C9F8140045E70B480AF038FCA5
:10074000D9F800000BF036FB022502460B46009557
:1007500005480AF085FC04480AF02AFCA8E700BF17
:1007600000007A440000A0409889FF1F90F8C00064
:10077000704700BF90F8BC00704700BF90F8C400FD
:10078000704700BF90F8C800704700BF0C2994BFA5
:1007900050F82100002070472DE9F0410B4E8046B3
:1007A000041F00F12C0754F8045F314628460CF072
:1007B00049F930B1D8F8B41028460CF061F900B10D
:1007C0002E46BC42EFD13046BDE8F081000020410A
:1007D0002DE9F041D0F8B4704FF00008041F00F18B
:1007E0002C0654F8045F394628460CF049F90849AC
:1007F00048B128460CF026F9414620B128460CF0B5
:100800003FF900B1A846B442EBD14046BDE8F081C3
:100810000000A0402DE9F047D0F8B47082464FF0B8
:100820000009041F00F12C064FF0000854F8045F83
:10083000394628460CF024F90C4950B128460CF0F2
:1008400001F930B1484629460BF056FE08F101087F
:100850008146B442EAD1CAF8D48040460BF000FF8A
:10086000014648460CF004F8BDE8F0870000A040BF
:10087000D0F8D400704700BFD0F8D800704700BF50
:1008800038B5D0F89850D0F89440294620460CF05E
:10089000D9F800B92C46204638BD00BF38B5D0F88D
:1008A0009850D0F89440294620460CF0E9F800B959
:1008B0002C46204638BD00BF70B5D0F89440124990
:1008C000054620460CF0DCF8D0B1204600210BF0A4
:1008D00013FE01240646D5F898500B4928460CF023
:1008E000CFF828B1304629460BF006FE0134064603
:1008F00020460BF0B5FE014630460BF0B9FF70BD47
:1009000000260446E7E700BF000020C22DE9F843B7
:100910000026D0F8B480C0F890608146041F00F132
:100920002C0754F8045F414628460CF0A9F8094901
:1009300050B128460CF086F830B1304629460BF00D
:10094000DBFD0646C9F89000BC42EAD13046BDE85E
:10095000F88300BF0000A04003299ABF00EB81008C
:10096000D0F89400002070473E2998BF80F8D0103E
:10097000704700BFD0F8DC00704700BF90F8B800A7
:10098000704700BF90F8B900704700BFC0F8CC10A6
:10099000704700BF80F8B810704700BF80F8B910EA
:1009A000704700BFC0F8B410704700BFA0F8E41053
:1009B000704700BF70B500F565550646043500F177
:1009C0002C042046E834FFF751FDAC42F9D106F57E
:1009D0008A75012428460021FFF7DCFF21462846BE
:1009E0000134FFF7C1FF3F2C05F1E805F2D143F6D2
:1009F0004C1400250548064A064B35550021706108
:100A0000B161F2613362304670BD00BF00007A44CC
:100A1000000048430000C8C270B500F565560436B2
:100A200000F58A74002507E0012520460021E834FE
:100A3000FFF7B4FFB4420AD02046FFF79FFF00281B
:100A4000F3D02046FFF79EFF0028EDD170BD284669
:100A500070BD00BF70B500F592560C3600F58A7473
:100A600002E0E834B4420CD02046FFF787FF054689
:100A70000028F6D02046FFF77DFFC307F1D52846B2
:100A800070BD0025284670BD2DE9F04143F6501396
:100A900000F56556374600228046C25004361037AE
:100AA00000F58A7402E0E834B4420DD02046FFF726
:100AB00065FF0028F7D020463D68FFF7D9FEE834EF
:100AC0002844B4423860F1D143F6501358F803007B
:100AD000BDE8F08138B500F58A74012504E00135E0
:100AE0003F2D04F1E80414D02046FFF747FF00280B
:100AF000F5D02046FFF7F2FC20460021FFF74AFF21
:100B0000294620460135FFF72FFF3F2D04F1E80469
:100B1000EAD138BD43F64813C058704738B50C6861
:100B200004F00F04E825013405FB04002C301546C1
:100B30001A46FFF7F3FC012D00D038BD06480AF035
:100B400037FA214604480AF083FA0B210348BDE82E
:100B5000384009F097BF00BF9889FF1FD80C0100EB
:100B60002DE9F0410E68044606F00F0006F0F0068D
:100B7000302E0F46904600F101053CD019DC16B12D
:100B8000202E31D10126072D1BD9E82303FB054474
:100B90002C3420460121FFF7FDFE20460121FFF7FE
:100BA000FDFE43463A4631462046BDE8F041FFF798
:100BB000D7BC402E1DD0502E16D1072D4FF0040665
:100BC000E3D8B8F1010FE0D129460C480AF040FA09
:100BD00041460B4809F056FF314608480AF038FAFA
:100BE00006480AF0E5F9D0E7072DCED8042ECCDC74
:100BF000E7E70326C7E70226C5E700BF9889FF1F7E
:100C0000E40C01002DE9F043002383B00646436065
:100C100000F58A74012504E001353F2D04F1E80454
:100C200066D02046FFF7AAFE0028F5D04E4806F011
:100C3000A3FC29464D4806F09FFC2046FFF766FEC0
:100C40000BF0B8F802460B46494806F095FC2046E2
:100C5000FFF7A2FD80462046FFF7BAFD0746404653
:100C60000BF0A8F88046384689460BF0A3F84246B8
:100C70004B46CDE900013F4806F07EFC00212046AE
:100C8000FFF76AFE012180462046FFF765FE074612
:100C900040460BF08FF88046384689460BF08AF8BC
:100CA00042464B46CDE90001334806F065FC20463C
:100CB000FFF72CFE014670680BF01EFC70602046AA
:100CC000FFF7DEFDF1690BF0BDFE002833D12046B1
:100CD000FFF7E4FD316A0BF0D3FE00289CD02046DC
:100CE000FFF7DCFD01353F2D306204F1E80498D1B7
:100CF000B0680BF0B5FC014670680BF0B9FDB16946
:100D0000706004460BF0BCFE00B1B461716920460E
:100D10000BF098FE00B174610B2008F0EDF943F67A
:100D20004C13F35C60B99BB143F64C130122F254AF
:100D300003B0BDE8F0832046FFF7A2FDF061C6E7EF
:100D400053B943F64C130022F25403B0BDE8F083CC
:100D50000A4806F03FFCE7E7094806F025FC43F6A1
:100D60004C130022F254F0E734170100E80C0100A4
:100D7000240D0100380D0100640D0100800D0100FB
:100D8000B80D010070B5114BC36000F565550646FE
:100D9000043500F58A7402E0E834AC4213D02046F2
:100DA000FFF7ECFD0028F7D02046FFF7F5FCF168CF
:100DB0000BF048FE0028EFD02046FFF7EDFCE834AA
:100DC000AC42F060EBD1F06870BD00BF0000A04005
:100DD00070B5002300F5655506460361043500F53E
:100DE0008A7402E0E834AC4213D02046FFF7C6FD17
:100DF0000028F7D02046FFF7EBFC31690BF040FEEE
:100E00000028EFD02046FFF7E3FCE834AC42306125
:100E1000EBD1306970BD00BF40687047017070470A
:100E2000816070472DE9F04100F565558846174609
:100E30001EB2043500F58A7402E0E834AC4213D0E7
:100E40002046FFF79BFD0028F7D020464146FFF7DC
:100E50009DFD20463946FFF7A5FD20463146E83482
:100E6000FFF7A4FDAC42EBD1BDE8F0812DE9F843DA
:100E700043F6481300F565550027C7502E462A4A09
:100E80002A4B826280464FF00009436204350836DF
:100E900000F58A7402E0E834A54213D02046FFF73B
:100EA0006DFD0028F7D03368013333602046FFF72B
:100EB00003FD1F490BF0E4FD88B9E834A54207F1B2
:100EC0000107EBD143F6481358F80300C01B0BF0A1
:100ED000C7FB014648460BF0CBFCBDE8F883204633
:100EE000FFF7EAFC014648460BF006FB8146204628
:100EF000FFF7D4FCD8F824100BF0C2FD70B92046DF
:100F0000FFF7BEFCD8F828100BF09CFD0028C2D0DB
:100F10002046FFF7B5FCC8F82800BCE72046FFF7DD
:100F2000BDFCC8F82400EAE700C0794400C079C4D9
:100F300000008CC2406A7047806A7047F8B500F5BF
:100F4000655507460026043500F58A7402E0E8344A
:100F5000AC420FD02046FFF711FD0028F7D0204605
:100F6000FFF758FC014630460BF0C6FAE834AC42B5
:100F70000646EFD143F64813F8580BF071FB0146D3
:100F800030460BF075FCF8BD2DE9F04F91B00446EA
:100F9000A3480D91154606F097FAA14806F094FA79
:100FA0009F4806F091FA43F648132046E658FFF7AB
:100FB0006BFD81466068D4F808B00AF0FBFECDE90D
:100FC0000E012046FFF7BAFF82462046D4F8108073
:100FD000E768FFF74BFF0AF0EDFECDE90A0139465D
:100FE00040460BF087FA8F490BF08EFB0AF0E2FEC9
:100FF000CDE9080140460AF0DDFECDE9060138469C
:101000000AF0D8FECDE9040150460AF0D3FEDDE92E
:101010000E23CDE90201CDE9002331465B464A4665
:10102000814806F051FA7E4806F04EFA04F58A74BB
:101030004FF001084FF0000BA94607E008F1010846
:10104000B8F13F0F04F1E80400F0DE802046FFF71E
:1010500095FC0028F2D02046FFF788FB2046FFF7DA
:1010600089FB2046FFF78AFB2046FFF78BFB082110
:101070006E4809F007FD41466D4809F0E9FFB8F1F7
:10108000090F40F3C78002216A4809F0FBFC2046A3
:10109000FFF73CFC0AF08EFE9DF8345000950246A6
:1010A0000B46634809F0DCFF0121634809F0EAFCC4
:1010B000B9F1000F2DD1DA464E4620E006215F48F7
:1010C00009F0E0FC51465A4809F0C2FF02215C4891
:1010D00009F0D8FC31462046FFF758FB0AF06AFEBB
:1010E000009502460B46524809F0BAFF013601212D
:1010F000514809F0C7FC0C2E00F08980BA46BAF1BD
:10110000090F0AF10107D9DC01214E4809F0BAFCA8
:10111000D4E7B9F1010F2ED1DA4600261FE00621EF
:10112000464809F0AFFC5146414809F091FF0221C1
:10113000434809F0A7FC31462046FFF727FB0AF099
:1011400039FE009502460B46394809F089FF013601
:101150000121394809F096FC082E0AD0BA46BAF1A6
:10116000090F0AF10107DADC0121364809F08AFC8F
:10117000D5E70BF1080B2E4809F01AFF0921324878
:1011800009F080FC00212046FFF7E6FB0AF012FE82
:10119000022502460B460095254809F061FF0A2109
:1011A0002A4809F06FFC01212046FFF7D5FB0AF021
:1011B00001FE009502460B461D4809F051FF0C2127
:1011C000234809F05FFC2046FFF7D4FB00231022E0
:1011D0000146174809F0FCFE08211E4809F052FCA0
:1011E0002046FFF749FB002301461022104809F072
:1011F000EFFE08F101080E4809F0DAFEB8F13F0FE2
:1012000004F1E8047FF422AF11B0BDE8F08F0BF1D8
:101210000C0BB0E701210B4809F034FC33E700BFA9
:101220003417010000007A44681001000811010021
:101230009889FF1F381601001411010018110100D0
:10124000C412010044170100201101002C110100FB
:1012500038110100481101002DE9F04F85B000F56B
:101260008A758A4603929B462E464FF0010806E097
:1012700008F10108B8F13F0F06F1E8067BD03046CF
:10128000FFF77CFB0028F3D000230A2251467D485B
:1012900009F09EFE01217C4809F0F4FB03980AF056
:1012A00089FD00230246009376480B4609F0D8FEDC
:1012B0000121754809F0E6FB5946724809F0C8FE5D
:1012C0000121714809F0DEFB41466E4809F0C0FE7D
:1012D00001216D4809F0D6FB00244FF00209214698
:1012E0003046FFF753FA0AF065FDCDF8009002464C
:1012F0000B46644809F0B4FE01340121624809F04C
:10130000C1FB082C4FF00207E9D100213046FFF75E
:1013100023FB0AF04FFD009702460B46594809F09F
:101320009FFE0121584809F0ADFB01213046FFF72F
:1013300013FB0AF03FFD009702460B46514809F0A7
:101340008FFE0121504809F09DFB39463046FFF7DA
:1013500003FB0AF02FFD009702460B46494809F0AF
:101360007FFE08F10108474809F022FEB8F13F0F5F
:1013700006F1E80683D101274FF0000904E00137A8
:101380003F2F05F1E80579D02846FFF7F7FA002846
:10139000F5D000230A2251463C4809F019FE0121EC
:1013A000394808F0BFF903980AF004FDCDF8009021
:1013B00002460B46354809F053FE0121324808F039
:1013C000B1F95946314809F043FE01212E4808F091
:1013D000A9F939462D4809F03BFE01212A4808F0B9
:1013E000A1F900244FF0020821462846FFF7CEF964
:1013F0000AF0E0FCCDF8008002460B46234809F0D5
:101400002FFE01340121204808F08CF9082C4FF000
:101410000206E9D100212846FFF79EFA0AF0CAFC2D
:10142000009602460B46194809F01AFE012116489B
:1014300008F078F901212846FFF78EFA0AF0BAFC85
:10144000009602460B46114809F00AFE01210E489B
:1014500008F068F931462846FFF77EFA0AF0AAFC40
:10146000009602460B46094809F0FAFD0137074885
:1014700009F09EFD3F2F05F1E80585D105B0BDE8D7
:10148000F08F00BF9889FF1FE40C01008889FF1FBF
:1014900010B5132007F030FE012815D007F040FEEC
:1014A0000F4B104A1B6812880F49C01A642303FBB4
:1014B00000F092B2B0FBF2F000EB8000C0EB001045
:1014C000C00080B2088010BD054C07F029FE2368DB
:1014D000044AC01A80B2108007F022FE206010BDBE
:1014E0001CD1FF1FB4D0FF1F2CD1FF1F0A4A0B498C
:1014F000106ED36D03FB00F34FF47A7000FB03F022
:10150000642310B50B600BF0ABF80549054C0BF0EC
:10151000AFF9206010BD00BFD8CFFF1F1088FF1F9C
:10152000E4388E3E08D1FF1F38B5044608460D4604
:101530000CF0E6F82368024629465B682046984787
:101540000546204609F034FD284438BD2DE9F8430E
:101550004748484E484F494C05F0B6FF484B49496B
:10156000494A4A48596011251D70494D4949DA6078
:101570001E6100224FF4FA769F619C62464F474CF1
:101580001D63474DD861D9624FF07C5045499A633D
:101590009E863C220C26DF631C64434F434C5D65F2
:1015A000434DD864196502200121A3F8A8209E6547
:1015B000002264265F62C3F8C8404FF49677322455
:1015C0001D625D615D6440F61C4558705872197269
:1015D000D96583F848201E66DF665F669C664FF01B
:1015E0000A091D6741F20408C3F88020C3F884008B
:1015F000C3F88820C3F89040C3F8B0404FF05A0CAD
:10160000C3F8AC20C3F8B810C3F8BC004FF47A7E1E
:10161000C3F8C060274F83F8CC1083F8CD10264E56
:1016200083F8CE2041F28831A3F8D02044F620651B
:1016300040F2D662FF240520C3F87490C3F8788086
:10164000C3F87CC0C3F894E0C3F89870C3F89C60FA
:10165000C3F8A450C3F8B440A3F8C600C3F88C1074
:10166000A3F8C410A3F8A020A3F8A220BDE8F88333
:10167000541101000000404033338340CDCCCC3DB9
:10168000D8CFFF1F20A1070066668640CDCC4C4016
:10169000000020C100008242000020420000A04063
:1016A0000AD7233D9A997940333373409A99993EEA
:1016B000CDCC4C3E0000684200C02044F0B5002173
:1016C00085B0112007F026FD0021102007F022FD33
:1016D0000021122007F01EFD0021132007F01AFD43
:1016E00001210B2007F016FD01210C2007F012FD4F
:1016F0000121142007F00EFD0121152007F00AFD3D
:101700000121162007F006FD0121172007F002FD38
:101710000121052007F0FEFC994C9A4D012106207D
:1017200007F0F8FC01210D2007F0F4FC20880AF0F6
:1017300093FF0146162007F057FC20880AF08CFF23
:101740000146172007F050FC20880AF085FF01466B
:10175000052007F049FC20880AF07EFF002401469E
:10176000062007F041FC00942346874A87498848B1
:1017700006F02AF9E6B232468249854806F0D2F8E8
:101780002B79804982486FF30003013432462B7174
:1017900006F0BEF8082CEDD10924E6B232467949AC
:1017A0007B4806F0BFF82B797649794843F001036E
:1017B000013432462B7106F0ABF80D2CEDD1754C8F
:1017C00023681021D3F8840006F0D0FD236810218F
:1017D000D3F8840006F05EFE23680221D3F884006B
:1017E00006F01AFD23680221D3F8840006F0A2FE59
:1017F00023680F21D3F8840006F08AFF0C21664885
:1018000009F040F9654809F0D3FB1121644809F05B
:1018100039F9624809F0CCFB40F2836007F060FDC3
:101820005E4809F0C5FB17215E4809F02BF95B48BB
:1018300009F0BEFB5C4B1B789A0600F1DB805A4B2B
:101840001B781B0700F1E280574B1B785F0700F104
:10185000E980554B1B789E0700F1F080534B1B78B5
:101860001D0600F1F780514B1B785C0600F1FE80ED
:101870004E4B1B78980600F105814C4B1B7859079D
:1018800000F10C81494B1B781A0700F11381474B7B
:101890001B789B0700F11A81404809F089FB72B65A
:1018A000434A4CF220534DF628112024138023463E
:1018B0001180013BFDD13F4D3F48404900234FF48B
:1018C00080562E8003800B8032F80E3C9BB243F092
:1018D000D30322F80E3C62B69D2008F0ADF82146F5
:1018E0003748384D09F0CEF82C4809F061FB05F176
:1018F000D4062F462C46601B07F094F804F8010B21
:10190000B442F8D13B78112B01D0FFF71FFE042021
:1019100005F02EFD2C4B2D482D4D00221A6005F0B0
:10192000F9FC01210D2007F0E1FBF96D2948FFF7D3
:1019300077FAB7F9D030FA6C97F848102548FFF7D6
:1019400071FA2548254B046803941B682449254AED
:10195000039E0068029012682E6081FB03012248FA
:10196000029D224C0560DB17A3EB211313FB02F34E
:101970001F4923800422132007F0AAF905B0F0BD07
:101980001488FF1FB8D0FF1FFCD2FF1F20A1070043
:1019900060D1FF1F40D1FF1F741101009889FF1F04
:1019A000841101009811010001F0074000F0074088
:1019B0000E20054004200540062005401620054065
:1019C0009C120100D8CFFF1F4894FF1FC094FF1F37
:1019D00028CFFF1FC095FF1F08D3FF1F3488FF1FAC
:1019E0001F85EB513088FF1F34CFFF1FF0D0FF1F42
:1019F000911400002121394809F044F8384809F0D1
:101A0000D7FA384B1B781B077FF51EAF0C213648E1
:101A100009F038F8324809F0CBFA324B1B785F07EF
:101A20007FF517AF0E21314809F02CF82C4809F04A
:101A3000BFFA2C4B1B789E077FF510AF17212C485F
:101A400009F020F8264809F0B3FA2A4B1B781D0646
:101A50007FF509AF0E21284809F014F8204809F055
:101A6000A7FA244B1B785C067FF502AF12212348AE
:101A700009F008F81A4809F09BFA1E4B1B789806E3
:101A80007FF5FBAE13211E4808F0FCFF144809F057
:101A90008FFA184B1B7859077FF5F4AE1C211948B3
:101AA00008F0F0FF0E4809F083FA124B1B781A0772
:101AB0007FF5EDAE1921144808F0E4FF084809F05D
:101AC00077FA0C4B1B789B077FF5E6AE18210F4881
:101AD00008F0D8FF024809F06BFADDE6B01101000A
:101AE0009889FF1F01F00740D4110100E4110100A3
:101AF000F411010000F007400C1201001C1201005B
:101B00003012010044120100641201008012010031
:101B100070B5464C464D4748E66800232B70FFF7EA
:101B200057F9014630460AF08DFF08B104232B70A7
:101B30004048FFF727F921690AF084FF18B12B7894
:101B400043F010032B703B48FFF7F4F9E16A0AF009
:101B500097FF18B12B7843F040032B7000233548D2
:101B60006B70FFF7E9F9216B314E0AF06BFF08B19A
:101B70000123737000232F48EB70FFF729F9054606
:101B80002C482B4EFFF7FEF8014628460AF0B2FC1F
:101B9000616C0AF075FF08B10123F370264D2548EA
:101BA00000232B70FFF714F9A16A0646E0680AF0DB
:101BB000A1FC014630460AF063FF08B104232B70F4
:101BC0001C48FFF7DFF8A16A064620690AF094FC7A
:101BD000014630460AF036FF18B12B7843F0100367
:101BE0002B701448FFF7A6F9216C0646E06A0AF04C
:101BF00081FC014630460AF043FF18B12B7843F0D0
:101C000040032B7000230B486B70FFF795F9216C94
:101C10000546206B084C0AF06FFC014628460AF086
:101C200011FF08B10123637070BD00BFD8CFFF1F43
:101C3000C0CFFF1FC095FF1F1C94FF1F514B1B6897
:101C4000002B74D0F0B5504D2B680533B3F57A7F77
:101C500083B040F38E80002300272B604B4CD4F8D8
:101C6000B0000AF0FDFC0646D4F8B4000AF0F8FC17
:101C700031460AF03FFC39460AF046FD44490AF075
:101C8000F7FD31460AF038FC0AF004FF0146062051
:101C900007F0ACF802213F4808F0F4FE3E4809F096
:101CA00087F906213D4808F0EDFE28680AF0D8FCC7
:101CB0003B490AF029FD0AF07DF8022602460B4650
:101CC0000096354809F0CCF90D21364808F0DAFEC7
:101CD000D4F8B0000AF0C4FC074628680AF0C0FC3B
:101CE0002F490AF011FD0546D4F8B4000AF0B8FCFB
:101CF00039460AF0FFFB014628460AF005FD244953
:101D00000AF0B6FD39460AF0F7FB0AF053F80096E0
:101D100002460B46204809F0A3F931461D4808F059
:101D2000B1FE1D4803B0BDE8F04009F041B9174BC2
:101D30001D4AD3F8B010D3F8B43012685B1A632B85
:101D40000BDD1A4803FB02F380FB0302DB17C3EB36
:101D500062131944062007F049B8154803FB022313
:101D600080FB0302DB17C3EB22121144062007F0AD
:101D70003DB818462B600AF073FC09490AF0C4FC10
:101D800007466BE74494FF1FACD0FF1FD8CFFF1F5F
:101D90000000C842381601009889FF1FC0120100D8
:101DA000CDCCCC3DC81201001088FF1F1F85EB5120
:101DB000CBF08D2870B5B548B54C84B009F0F8F873
:101DC000B24809F0F5F8B14809F0F2F80D21B14830
:101DD00008F058FED4F8AC30012B11D0AE4DAB4812
:101DE000297800230A2209F0F3F82B78052B69D80B
:101DF000DFE813F08C01910196019B01A001A50180
:101E00000921A64808F03EFEA548FEF7BBFF216960
:101E10000AF018FE18B10F21A24808F033FEA048BE
:101E2000FEF7D6FFE1680AF02BFE18B10E219E489E
:101E300008F028FE9A48FEF7CBFF05469848FEF7C3
:101E4000A1FF014628460AF055FB616C0AF018FE16
:101E500018B11121954808F015FE9148FFF706F8D2
:101E6000E16A0AF00DFE18B10C21914808F00AFE53
:101E70008B48FEF7FBFF216B0AF0E4FD18B10D2142
:101E80008C4808F0FFFD8C4B85481B68012B00F047
:101E90009081FEF777FF21697D4D0AF0F1FD002862
:101EA00000F0F1807E48FEF793FFE9687A4D0AF072
:101EB000C9FD38B12B78052B00F08D8108217F48B2
:101EC00008F0E0FD02217E4808F0DCFD122007F05A
:101ED00013F9012800F03881112007F00DF90128CD
:101EE00000F03C81774B1C68012C00F040810221FE
:101EF0007348754C08F0C6FD744B6448196809F0C6
:101F0000A7F8624809F054F80421714808F0BAFDB6
:101F10000B2007F0F1F8002301460A225B4809F084
:101F200057F80C2007F0E8F8002301460A2257482A
:101F300009F04EF8142007F0DFF8002301460A22CA
:101F4000524809F045F8152007F0D6F80A22002378
:101F500001464E4809F03CF806215E4808F092FD23
:101F60002368DE074FF001014CBF5B485B4808F077
:101F700089FD236898074FF001014CBF5648574828
:101F800008F080FD23685A074FF001014CBF52480A
:101F9000524808F077FD23681B074CBF4E484F4856
:101FA000012108F06FFD04214D4808F06BFD112060
:101FB00007F0A2F8002301460A22344809F008F885
:101FC000102007F099F8002301460A222F4808F054
:101FD000FFFF122007F090F8002301460A222B4849
:101FE00008F0F6FF132007F087F80A2200230146C5
:101FF000264808F0EDFF18213A4808F043FD3A4B17
:1020000018680AF02DFB39490AF07EFB09F0D2FE70
:10201000002402460B4600941C4809F021F81D21BB
:10202000334808F02FFD334B18680AF019FB2F498D
:102030000AF06AFB09F0BEFE00940B460246134804
:1020400009F00EF802212C4808F01CFD2B78032B18
:1020500002D02A4B1B78A3B11421294808F012FDA5
:10206000284B188880B20AF0FBFA27490AF04CFB8B
:1020700009F0A0FE002402460B460094034808F035
:10208000EFFF04B070BD044D1CE700BF9889FF1F2F
:10209000D8CFFF1FD8120100CCCFFF1FE8120100DC
:1020A000C095FF1FF4120100041301001413010076
:1020B00028130100381301005094FF1F6C13010016
:1020C00038160100CCD0FF1F30D1FF1F2494FF1F12
:1020D000E4130100EC130100F41301005C23010080
:1020E000F8130100001401004094FF1FCDCCCC3D3B
:1020F0001C14010024D1FF1F3C1401002CCFFF1F32
:10210000401401002CD1FF1F6F12833A062134487E
:1021100008F0B8FCD6E60721324808F0B3FCD1E657
:102120000721314808F0AEFCCCE608212F4808F022
:10213000A9FCC7E60B212E4808F0A4FCC2E6072143
:102140002C4808F09FFCBDE60E212B4808F09AFCB5
:10215000112006F0D1FF01287FF4C4AE0A212748E0
:1021600008F090FC264B1C68012C7FF4C0AE1121B6
:10217000244808F087FC2146234808F083FC234BC1
:10218000234A1B680393039B1068C01A0AF064FA81
:1021900020490AF0B9FA09F00DFE002602460B4666
:1021A00000961D4808F05CFF2146174808F06AFCBD
:1021B0009DE6FEF7E7FD616A0AF062FC48B1162170
:1021C0001648174D08F05EFC0A21164808F05AFC24
:1021D00078E6134D72E60A21124808F053FC71E6C6
:1021E0007813010080130100941301009C13010077
:1021F00088130100A8130100B0130100C0130100EF
:10220000CCD0FF1FCC130100E013010008D3FF1F47
:10221000FCD0FF1F6F12833A9889FF1F48130100FB
:10222000CCCFFF1F601301002DE9F04F954CD4F87F
:102230008430012B8DB000F04981032B924F53D095
:10224000924E934DD4F880309248012B09BF2968F3
:10225000296801F10041296006F0D6FA3368002BA5
:1022600040F0C7808B4806F0A5FAD4F88430386077
:10227000012B0646834A00F0C98087490AF000FC1A
:1022800078B9864930460AF0DDFB50B9844A854B5F
:1022900012680B920B9A1A6000232B600DB0BDE8F8
:1022A000F08FDFF8FC817F4CD8F800300A930A9851
:1022B00023687D4FC01A0AF0CFF931460AF024FA9C
:1022C0007A490AF0D5FA79490AF0D2FA39680AF05F
:1022D00013F9D8F800300993099B23600023386074
:1022E0002B600DB0BDE8F08FDFF8D881704DD8F8C5
:1022F0000000664E012300220F212B6005F004FF31
:102300002B68012B336800F00781002B40F08B8194
:10231000D8F80030DFF8B091D3F88400436B196926
:102320008DB2C9F8005005F075FFB4F8A22040F650
:10233000E44303FB05F1B1FBF0F0801A00B20AF0B0
:102340008FF95C49524D8246D4F898000AF0DCF9C6
:10235000014650460AF08CFAD9F800302860632B09
:10236000DFF864A100F3528100232B603368002B57
:102370003FF468AF0221504808F084FBD8F80030E1
:10238000D9F80020D3F8840040F6E44303FB02F8B8
:1023900005F040FFB8FBF0F00AF05EF98046B4F8B3
:1023A000A2000AF05DF9014640460AF0A3F809F0E0
:1023B00001FD4FF0020802460B46CDF800803F4871
:1023C00008F04EFE41463C4808F05CFB286809F0E6
:1023D000F1FCCDF8008002460B46384808F040FE7C
:1023E0004146374808F04EFB4146334808F04AFB67
:1023F00028E7284806F0DEF909F0DCFC0226024650
:102400000B4600962D4808F02BFE2BE7284B1B6847
:10241000012B00F04181022B7FF43EAFD2F8A440A3
:1024200020460AF01DF9014630460AF029FB48B95A
:1024300060420AF015F9014630460AF003FB002815
:1024400000F05981DFF85880164CD8F80030079317
:1024500007982368144FC01A0AF0FEF831460AF0B4
:1024600053F912490AF004FA10490AF001FA3968DE
:102470000AF042F8D8F800300693069B38602360D3
:102480000AE700BFD8CFFF1FC4CFFF1FBCCFFF1F7D
:1024900020D1FF1FD0D0FF1F0000FA430000FAC375
:1024A00008D3FF1F2094FF1F08D1FF1F00007A44AC
:1024B0002888FF1F17B7D138381601009889FF1FE9
:1024C0009414010040D1FF1F4CD1FF1FAC4FD4F832
:1024D000A4603D6830460AF0C3F829460AF0D0FAF5
:1024E00048B170420AF0BCF8014628460AF0C8FA22
:1024F00000287FF4F9AEDFF8C882A24DD8F80000BA
:10250000A14E022300220E212B6005F0FDFD2B6859
:10251000012B33687FF4F9AE002B40F0F380D8F83C
:102520000030DFF8AC92D3F88400436B19691FFACE
:1025300081FBC9F800B005F06DFEB4F8A030934DF2
:1025400040F6E44A0AFB0BFBBBFBF0F0C01A00B2FA
:102550000AF086F88E498346D4F89C000AF0D4F835
:10256000014658460AF084F9D8F80020D9F800301E
:102570002860D2F884000AFB03FA05F04BFEB4F899
:10258000A030BAFBF0F00FFA80FAC3EB0A03002B7D
:10259000B4F8C620B8BF5B429342BCBF00232B6097
:1025A0003368002B3FF44EAE02217A4808F06AFAF5
:1025B000D8F80030D9F80020D3F8840040F6E4437E
:1025C00003FB02F805F026FEB4F8A010B8FBF0F00B
:1025D00000B2411A704808F03BFD02216D4808F036
:1025E00051FA286809F0E6FB4FF0020802460B4654
:1025F000CDF80080684808F033FD0321674808F0F3
:1026000041FA4146634808F03DFA1BE6D8F800302D
:10261000D3F8840005F0FEFDDAF800306438984203
:10262000FFF4A2AEA2E65C48DFF8A491DFF890A127
:1026300008F0BEFC0C215A4808F024FA0C21594835
:1026400008F020FAD8F800203368D2F88400426BF2
:1026500011698DB2C9F80050002B3FF464AE05F04B
:10266000D9FD40F6E44100230A2201FB05F1B1FB4C
:10267000F0F1494808F0ACFC0221464808F002FAA3
:10268000B4F8A210444808F0E3FCDAF80030D9F8B6
:102690000050D3F8840046E643490AF0F1F958B9EE
:1026A000424930460AF0CEF930B9414A414B1268EE
:1026B0000592059A1A60EFE5DFF8F4803D4CD8F8F2
:1026C00000300493049823683B4FC01A09F0C4FFFC
:1026D00031460AF019F839490AF0CAF837490AF0C0
:1026E000C7F8396809F008FFD8F800300393039B56
:1026F00038602360D0E52E4A2E4B12680892089A63
:102700001A60C9E52448DFF8C8902D4D08F050FC48
:10271000D4F88430012B4FF00B010CBF29482A4814
:1027200008F0B0F90C211F4808F0ACF9D8F80020E7
:102730003368D2F88400426B11691FFA81FBC9F833
:1027400000B0002B3FF4F7AE05F064FD40F6E44125
:1027500000230A2201FB0BF1B1FBF0F10E4808F057
:1027600037FC0121194808F08DF9B4F8A0100A4887
:1027700008F06EFC2B68D9F800B0D3F88400DAE6D4
:10278000C4CFFF1F2888FF1FBCCFFF1F20D1FF1F12
:1027900017B7D138381601009889FF1F801401003F
:1027A00084140100701401000000FA430000FAC311
:1027B00008D3FF1F2094FF1F08D1FF1F00007A4499
:1027C00040D1FF1F58140100641401004417010098
:1027D0004CD1FF1F2DE9F04F9B4D2B6885B0002B8E
:1027E0007CD09A4CDFF86C82994FDFF8B092D4F825
:1027F0008830964E012B00F08C80D7F800A0D6F8D8
:1028000060B0F56D934E05FB0BF54FF47A7000FB4D
:1028100005F009F025FF90490546504609F074FF80
:1028200029460AF025F88D4909F06EFF0AF032F9C1
:102830006328C8F800004CDD284687490AF018F8DC
:10284000642338603360D9F80030002B3ED0D4F8D0
:1028500084307E4D012B00F08A80032B00F0E28053
:10286000022B00F0E68002217D4808F00BF97D4B39
:10287000186809F09FFA022402460B4600947A4831
:1028800008F0EEFB2146794808F0FCF82146744830
:1028900008F0F8F8D8F80010734808F0D9FB0621C2
:1028A000734808F0EFF838686B4909F02DFF09F01C
:1028B00081FA009402460B466B4808F0D1FB0321D5
:1028C0006C4808F0DFF8684808F072FB05B0BDE816
:1028D000F08F0028BCBF00233360B4E7664E5B4C2A
:1028E00033680293029A42F228339A424CD83368F2
:1028F0000393039A42F210739A424ED8D4F8883068
:10290000DFF85081524FDFF89491504E012B7FF445
:1029100074AF5A48FEF712FB5949D6F870A0756F8C
:1029200009F0F2FE0AF0DCF8B26FF36FD4F860B091
:10293000CAEB02025B1B80B29A42CAEB0000C6BF20
:1029400003FB00000132584390FBF2F02844E56D90
:1029500000FB0BF005FB00F000EB8000400009F0ED
:102960007FFE3D4909F084FF824638604AE7454BC7
:102970001B68012B4FF00A010CBF4348434808F085
:1029800081F8D5F8843068E73C48B4F9D030E26C7F
:1029900094F84810FEF746FAA9E73848FEF7CEFA51
:1029A0003749276F666F09F0AFFE0AF099F8A26FFA
:1029B000E36FD21B9B1B80B29A42A0EB07003DDD68
:1029C00003FB0000531C90FBF3F31E44206EE36DE9
:1029D000DFF88080DFF8C490C8F8006000FB06F0E4
:1029E00003FB00F000EB8000400009F039FE1A49BB
:1029F000174F09F03DFFD9F80030386001222A60F6
:102A0000002B3FF4F4AE0221154808F03BF81648BD
:102A100008F0CEFA59211E4808F034F8124808F0A0
:102A2000C7FAE4E610211B4808F02CF8D4F88430EB
:102A300016E70721184808F025F814E703FB00F310
:102A400093FBF2F31E44C1E7C0D0FF1FD8CFFF1F96
:102A500008D1FF1F1088FF1FE4388E3E0000C842D7
:102A600038160100C4CFFF1F9889FF1F941401007E
:102A7000281501003015010008D3FF1FC095FF1F66
:102A800000007A442888FF1FF4140100001501009B
:102A9000981401000C150100201501000088FF1F8B
:102AA00030B5112083B006F027FB012818D0122082
:102AB00006F022FB012813D000210B2006F016FBA4
:102AC00000210C2006F012FB0021152006F00EFB61
:102AD0002649274B0120002208701A6003B030BD40
:102AE0000121152006F002FB224A234C234B1268D9
:102AF000D4F88C1001921B68019A1D4D0B4493422F
:102B00004FF00201296005D901210C2006F0EEFAF0
:102B100003B030BDD4F8940009F0A2FD184B196839
:102B200009F090FF0028EFD101210B2006F0DEFA1A
:102B300094F8CC3003242C6043B10C4B02221A7061
:102B400000210C2006F0D2FA03B030BD122006F0AE
:102B5000D3FA012808BF054B4FF0110008BF1C70C5
:102B600006F0CAFA0128EBD1E7E700BFCCCFFF1F80
:102B7000BC94FF1F08D3FF1FD8CFFF1F28CFFF1F14
:102B8000C4CFFF1FF0B5684E684D34682B689C4277
:102B900087B039D014F0010155D014F0020149D0AA
:102BA00014F004013DD0E3070ED52B68DF070BD4EA
:102BB0005F4F3A68002A00F082805E4B1B680193E9
:102BC000019B93426DD83468A0070DD52B689907F7
:102BD0000AD4594F3A68002A4CD0564B1B680393CD
:102BE000039B934238D8346862070DD52B685B0786
:102BF0000BD4524F3A68002A7ED04E4B1B68059387
:102C0000059B934268D834680CB107B0F0BD2146EB
:102C1000162006F0EBF82146172006F0E7F807B07B
:102C2000F0BD052006F0E2F82B68346803F0FB03E2
:102C30002B60B8E7172006F0D9F82B68346803F04A
:102C4000FD032B60ACE7162006F0D0F82B68346843
:102C500003F0FE032B60A0E7394B1720D3F8901048
:102C600006F0C4F82B68346843F0020300222B609E
:102C70003A60B9E7334808F09BF90C21324807F075
:102C800001FF304808F094F9FF21172006F0AEF854
:102C9000284B2E4A19680291029912680A443A6038
:102CA0009CE7274B1620D3F8901006F09FF82B686E
:102CB000346843F0010300222B603A6084E7FF216F
:102CC000162006F093F81B4B204A196800910099D2
:102CD00012680A443A6071E7194B0520D3F8901046
:102CE00006F084F82B68346843F0040300222B605C
:102CF0003A60002C89D18AE7124808F059F90C2172
:102D0000134807F0BFFE0F4808F052F9FF210520D5
:102D100006F06CF8074B0D4A196804910499126883
:102D20000A443A606AE700BFBC94FF1F30D1FF1F1E
:102D3000B0D0FF1F08D3FF1FC4D0FF1FC8D0FF1F94
:102D4000D8CFFF1F9889FF1F341501001888FF1F77
:102D5000441501002DE9F047534EDFF870813368C8
:102D6000DFF86C91D3F88400504D0F2105F0D0FCB2
:102D70000023012222214E48C8F80030C9F8002063
:102D800007F080FED8F80030132B20DC40F6E44733
:102D90003368B5F8A0A0D3F88400436B1C6905F034
:102DA00039FAA4B2012107FB04F4B4FBF0F4414862
:102DB0005444A5F8A04007F065FE642006F0D2F95F
:102DC000D8F800300133132BC8F80030E0DDB5F837
:102DD000A030394A3948A2FB03129B1A02EB530375
:102DE000C3F30F131946A5F8A03008F031F91D21DF
:102DF000334807F047FE0221324807F043FE2F48D0
:102E000008F0D6F800231A460E213068C8F80030C2
:102E100005F07AF9022322212548C9F8003007F08D
:102E200031FED8F80030132B20DC40F6E44733683D
:102E3000B5F8A290D3F88400436B1C6905F0EAF959
:102E4000A4B2012107FB04F4B4FBF0F419484C448C
:102E5000A5F8A24007F016FE642006F083F9D8F822
:102E600000300133132BC8F80030E0DDB5F8A23094
:102E7000114A1248A2FB03129B1A02EB5303C3F33D
:102E80000F131946A5F8A23008F0E2F81D210E48EC
:102E900007F0F8FD02210B4807F0F4FD0748BDE8F4
:102EA000F04708F085B800BF40D1FF1FD8CFFF1F03
:102EB0005415010098150100876118869889FF1F35
:102EC00078150100381601009C1501002C94FF1F95
:102ED0002888FF1F2DE9F047C64DD5F8BC30062BDA
:102EE00000F0AE81C44BC54C1B68A86D40F2513157
:102EF00008222160E271002B00F0778109F0B0FB1D
:102F0000696A064609F000FCBD49BA4F09F0FCFBAE
:102F100009F0E6FD80B203126372BA4ABA4B126836
:102F20001B68E9692072A37230461B121612E37205
:102F30002273667309F0E8FBB149B04E09F0E4FB77
:102F400009F0CEFD83B21A123146B048A373E27382
:102F500004F032FFAE4AAF4B12681988A172D3B2A7
:102F6000237203EB83035B00237302EB820343F3BF
:102F7000D7134FEA212E12124FF008084FF0000924
:102F800031466373A14884F80BE040F25533627216
:102F9000236084F8078084F80E9084F80F9004F082
:102FA0000BFF40F256339C48236084F80780FDF7FE
:102FB00033FF9A4909F0A8FB09F092FD2072964868
:102FC000FDF72AFF954909F09FFB09F089FD944A16
:102FD0009249C0F307231068637209F049FC09F0B5
:102FE00059FD40FA08F3A0728B48E372FDF73EFFEB
:102FF000834909F089FB09F04DFD20738648FDF7F0
:1030000035FF7F4909F080FB09F044FD40F30720BC
:10301000314660737D4884F80E9084F80F9004F078
:10302000CBFE022006F09EF87E4A7F4B117821727B
:10303000517890786172D178A0721A789878E1729C
:10304000597822736173DA78A07340F25A333146AB
:103050006E48E273236084F8078004F0ADFE734B82
:103060006A481A7822725A7862729A78A272DA786A
:10307000E2721A7922735A7962739A79DB79E3736F
:10308000314640F25E33A273236084F8078004F077
:1030900093FE022006F066F8654B5C481A782272AF
:1030A0005A7862729A78A272DA78E2721A79227386
:1030B0005A7962739A79DB79E37331464FF45C7322
:1030C000236084F80780A27304F076FE594B1B68D6
:1030D000012B00F06F82022006F044F8082640F22F
:1030E00073334D482360E671FDF74CFE524909F0F9
:1030F0000BFB09F0F5FC20724748FDF743FE4E49F3
:1031000009F002FB09F0ECFCC0F3072342486372AC
:10311000FDF75EFE484909F0F7FA09F0E1FCA072FC
:103120003D48FDF755FE444909F0EEFA09F0D8FC98
:10313000C0F307233848E372FDF7FEFE3F4909F06C
:10314000DBF909F0CDFC20733348FDF7F5FE3B4970
:1031500009F0D2F909F0C4FCC0F307232E486373C9
:10316000FDF7E8FE354909F0C7F909F0B9FCA0738D
:103170002948FDF7DFFE314909F0BEF909F0B0FC3E
:103180001E49C0F307232148E37304F015FE022013
:1031900005F0E8FFE96D2B6E022211FB03F31046E8
:1031A00040F27931C3F30725E27121602372657221
:1031B00005F0D8FF40F2723317482360E671FDF73F
:1031C000A9FC20721448FDF7A5FC002340FA06F282
:1031D0006272A372E37223736373A373E373074989
:1031E0000A48BDE8F04704F0E7BD09F039FAA969DB
:1031F000064687E6D8CFFF1F5094FF1F3094FF1F6D
:103200000000204124D1FF1F4094FF1F60D1FF1F09
:103210001088FF1F1688FF1FC095FF1F0000C842BF
:10322000C4CFFF1FC0CFFF1F1C94FF1F3C88FF1F90
:103230004488FF1FCCD0FF1F00007A44339388439B
:10324000CD4CCE48002608274FF4C36321464FF0EB
:1032500059094FF044084FF0420A236084F80A905D
:1032600084F80B80E771267226736673A673E67383
:1032700084F809A004F0A0FD022005F073FF4FF4CC
:10328000BB632146BD48236084F80A9084F80B8014
:10329000E771267284F809A026736673A673E67335
:1032A00004F08AFD022005F05DFFE96D2A6ED5F875
:1032B00058E0B248E77101FB02F312FB01F203EBA5
:1032C000C30103EB810302EBC2010EFB03F302EB2C
:1032D00081024FF4AB68032112FB0EF24FF0050C94
:1032E0003B414FF0070EC4F8008021724FF01209E5
:1032F00021464FF0040884F80EC02373627384F8EB
:103300000FE0A67284F8099084F80B8004F054FD55
:10331000022005F027FF34224F234FF4B36E2146DD
:103320009648E272E373C4F800E0E77126726672B1
:1033300084F80A902673667384F80E8004F03CFDCE
:10334000022005F00FFF8E4BE7711B68A86D4FF44C
:1033500056722260002B40F0658109F081F9A9695D
:10336000064609F0D1F9874909F0CEF909F0B8FB12
:1033700080B240FA07F360722372E969304609F0BF
:10338000C3F9804909F0C0F909F0AAFB7E4B7F4AD6
:103390001B6812687849637385B216121B122F12CC
:1033A00076482373E273E572A772A67304F004FDF6
:1033B000022005F0D7FE764A764B16681D88764BBC
:1033C00076491868E57206EB8603642202FB06F272
:1033D00003EB83039B0012122E124FF4767708251D
:1033E00063722272A6722760E57109F08DF909F007
:1033F00077FB83B243FA05F70026F9225E495F485E
:103400006373A2732773E67304F0D6FC022005F001
:10341000A9FE4FF48B604FF0120E562278235649C6
:1034200020603427554884F80AE0A273E373E571FD
:103430002672667226736673E77204F0BDFC022082
:1034400005F090FE4FF4A36355482360E571FDF746
:1034500071FD4C4909F058F909F042FBC0F307230C
:103460004F482372FDF766FD464909F04DF909F012
:1034700037FB60724A48FDF75FFD424909F044F9A5
:1034800009F02EFBC0F307234548A372FDF754FD56
:103490003C4909F039F909F023FBFF233649E07272
:1034A000364823736373A373E37304F085FC02202F
:1034B00005F058FE4FF49B6339482360E571FDF732
:1034C000ABFC304909F020F909F00AFBC0F30723EF
:1034D00033482372FDF7A0FC2A4909F015F909F0D9
:1034E000FFFA304B30496072186809F0C1F909F0F1
:1034F000D1FA40FA05F203462948A272E372FDF7B9
:10350000B5FC204909F000F909F0C4FA40F307239B
:1035100023482373FDF7AAFC1A4909F0F5F809F0CE
:10352000B9FA0323607314491448A373E57304F0D4
:1035300043FC022005F016FE1C4A1D4B92F801E0E8
:103540009178D0781F785E7892F800C0E571DA78CB
:103550009D78A1724FF4AC73E07284F808C084F8CF
:1035600009E027736673A573E27323600249034879
:10357000BDE8F04704F020BC3094FF1F60D1FF1F6E
:103580005094FF1F0000204124D1FF1F4094FF1FD3
:103590001088FF1F1688FF1F08D1FF1F620B363BE4
:1035A000C095FF1FC4CFFF1F0000C842C0CFFF1F40
:1035B0001C94FF1F2E48FDF7E5FB796D08F09CFF7A
:1035C00081462B48FDF704FC0146484609F03AFACB
:1035D00000283FF480AD40F2C333254886F80780C9
:1035E0003360FDF7CFFB3F6D394609F02BFA48B346
:1035F0002049384609F088F809F072FA80B240FA9A
:1036000008F37072337200230127042603221A493B
:103610001A48A772E67222736373A373E37304F00C
:10362000CBFB58E509F01CF8696A064609F06CF80E
:10363000134909F069F809F053FA80B20312607275
:1036400023729AE60A48FDF79DFB0A4909F05CF8E7
:1036500009F046FAC0F3072305483372FDF792FBE1
:10366000044909F051F809F03BFA7072CBE700BF4A
:10367000C095FF1F00007A443094FF1F60D1FF1FE8
:103680000000204138B5194C194A2368101D12F862
:10369000011F904241EA0323F9D12360154C03F145
:1036A00000432360144BD3F88430022B15D0134B06
:1036B0001B68012B00D038BD114B1B68012BFAD1C0
:1036C000104807F075FC21680E4807F0C1FC032183
:1036D0000D48BDE8384007F0D5B920680B4D08F01B
:1036E000BFFF2860FEF7A0FDE1E700BF28D1FF1F64
:1036F0001FCFFF1FB494FF1FD8CFFF1F3CD1FF1F68
:103700000088FF1F9889FF1FC815010020D1FF1FE7
:1037100030B54A4C4A4883B0214604F045FA236844
:1037200040F2C23293426FD0A3F19A02C52A0AD95D
:1037300003F47F63B3F5B87F424D14D02B68012B9F
:1037400020D003B030BD404B3E4D1B68012B53D001
:1037500000223A493D48FDF703FA236803F47F63EA
:10376000B3F5B87FEAD1384B34491B683748012B91
:10377000374B93F8CE3043D00022FDF7CFF92B68BA
:10378000012BDED1304B1B68012BDAD1314B324893
:103790001B6801930A220023019907F019FC226893
:1037A000264B002ADB7942DB2C492D4809F074FFB7
:1037B0002B4809F0A5FF0146294807F063F9256861
:1037C0001E4B15F0804523D1DB798BB16319254958
:1037D0001A7A234809F060FF214809F091FF014659
:1037E0001F4807F04FF90135E379EDB2AB42EDD850
:1037F000194807F0DDFBA4E72A68012AA8D1A8E749
:103800002A68012AB8D1B8E7FFF73CFF23688BE7A5
:10381000154D134C0FCD0FC495E8030044F8040B6D
:10382000204620F81419152107F02CF9E0E70F497C
:103830000B4822F0604209F02FFFB9E718CFFF1FB5
:1038400060D1FF1F0088FF1F3CD1FF1FC095FF1FE5
:10385000D8CFFF1F08D3FF1F9889FF1FF415010061
:103860003CCFFF1F2016010008160100CC150100F7
:103870009A4B1B78052B00F09B802DE9F04F984C5C
:10388000984E994DE26E636E9848326083B02B601B
:10389000FDF752FB216B09F0D5F808B100232B602E
:1038A0009248FDF747FBE16A09F0EAF810B10023FE
:1038B00033602B608D48FDF78BFAE16809F0E0F882
:1038C00008B100232B608948FDF782FAE16809F00E
:1038D000D7F808B100232B608448814FFDF752FAD6
:1038E000216909F0AFF8002868D0002333602B6805
:1038F0007D4F002B4DDD7D48DFF8E481FDF71CFB9B
:10390000A16B09F09FF8002840F0B480784B77480D
:103910001B68734F012B00F0ED80FDF759FA216A07
:103920008046A06908F0E6FD0146404609F0A8F887
:1039300000282ED0286808F093FE81466B48FDF7DA
:1039400047FABC69396A8246204608F0D3FDBB6E4F
:103950008046786EC01A08F083FE414607465046FE
:1039600008F0C8FD0146384608F0CEFE414607463D
:10397000204608F0BFFD0146384608F079FF0021D7
:1039800008F0BAFD0146484608F0B4FD09F082F897
:1039900028603368534A002BAFBF2B682B68002187
:1039A0001160002B01DA00232B6003B0BDE8F08F1B
:1039B0004C494D4A00230B60136070474B48FDF79C
:1039C000E1F9F96909F03EF800288ED13368DFF893
:1039D0001491002B8BDD4548FDF7ACFAF96B09F02B
:1039E0004FF8002840F0CA804048DFF8F480FDF727
:1039F000C9F9D4F8C8100746E06908F07DFD014612
:103A0000384609F01FF800283FF471AF306808F01D
:103A100027FE82463548FDF7B5F98346D8F86C0095
:103A2000D8F81C7008F01CFE39468146584608F04C
:103A300061FD49468346002008F05CFD014658467A
:103A400008F062FED8F8C8108346384608F054FDE6
:103A5000394608F04FFD0146584608F009FF49462F
:103A600008F04AFD0146504608F044FD09F012F8FE
:103A700030603CE7386808F0F3FD83461B48FDF7EB
:103A80005BFA0190D8F86400D8F830A008F0E8FD9F
:103A9000019B81465146184608F02CFD494601908D
:103AA000002008F027FD019B0146184608F02CFE77
:103AB00051460190D8F8380008F01CFD019B0146E2
:103AC000184608F0D5FE494608F016FD014658464E
:103AD00008F010FD08F0DEFF386017E7CCCFFF1FBD
:103AE000D8CFFF1F24D1FF1F4094FF1FC095FF1F99
:103AF0005094FF1FFDF76CF9216A8046606A08F058
:103B0000F9FC0146404608F0BBFF00283FF441AFF6
:103B1000286808F0A5FD82462F48FDF759F9D7F827
:103B20002480396A8346404608F0E4FC8146B86E3A
:103B300008F096FD0446786E08F092FD214608F0E4
:103B4000D9FC49460746584608F0D4FC0146384699
:103B500008F0DAFD49460746404608F0CBFC01462E
:103B6000384608F085FE214608F0C6FC014650465E
:103B700008F0C0FC08F08EFF28600AE7D9F80000C2
:103B800008F06EFD82461448FDF7D4F90190F86EF6
:103B9000D7F83C8008F064FD019B834641461846F7
:103BA00008F0A8FC0146584608F0AEFD41468346A1
:103BB000F86A08F09FFC0146584608F059FE0021BB
:103BC00008F09AFC0146504608F094FC08F062FFA9
:103BD000C9F8000008E700BFC095FF1F08B52748D7
:103BE00007F0E6F90721264806F04CFF112005F002
:103BF00083FA0621F8B1234806F044FF102005F0AF
:103C00007BFA062100B3204806F03CFF122005F0A5
:103C100073FA062108B31D4806F034FF132005F09F
:103C20006BFA062110BB1A4806F02CFF1348BDE8BA
:103C3000084007F0BDB9174806F024FF102005F032
:103C40005BFA06210028DED1134806F01BFF122084
:103C500005F052FA06210028DDD1104806F012FFC7
:103C6000132005F049FA06210028DCD00C4806F0A4
:103C700009FF0248BDE8084007F09AB99889FF1F7C
:103C80002C160100341601004416010054160100E0
:103C90006C1601003C1601004C1601005C16010078
:103CA0006416010010B5254C2368042B27DC012184
:103CB0000B2005F01BFA01210C2005F017FA012159
:103CC000142005F013FA0121152005F00FFAFF2149
:103CD000162005F08BF8FF21172005F087F8FF214B
:103CE000052005F083F8FF21062005F07FF8236802
:103CF00001330A2B2360C4BF0023236010BD0021C1
:103D00000B2005F0F3F900210C2005F0EFF900215C
:103D1000142005F0EBF90021152005F0E7F900214A
:103D2000162005F063F80021172005F05FF8002148
:103D3000052005F05BF80021D6E700BF0CD1FF1F7E
:103D400030B5092183B0AE4805F0ECFC222005F027
:103D500091FCAC4BD3F8AC30012BAB4B1B7809D0AA
:103D6000052B10D8DFE813F02D0132013C01410191
:103D700037010B00002B00F03D81052B03D10721FB
:103D8000A24805F0CFFC222005F074FCFF2005F0CE
:103D900071FCFF2005F06EFC9D4CFF2005F06AFCD5
:103DA00008219C4805F0BEFC21689B4807F050F9AB
:103DB000FF2005F05FFCFF2005F05CFCFF2005F014
:103DC00059FC0921954805F0ADFC2168924807F09F
:103DD0003FF9FF2005F04EFCFF2005F04BFCFF20D3
:103DE00005F048FC0C218E4805F09CFC8D4B8E495B
:103DF000186808F03DFD07F0DDFF002402460B4681
:103E00000094854807F02CF9FF2005F033FCFF20D3
:103E100005F030FCFF2005F02DFC0921834805F05A
:103E200081FC8348FDF722F807F0C4FF00940246A6
:103E30000B46794807F014F9FF2005F01BFCFF2022
:103E400005F018FCFF2005F015FC0C21794805F061
:103E500069FC7748FDF770F807F0ACFF0094024664
:103E60000B466D4807F0FCF8FF2005F003FCFF202F
:103E700005F000FCFF2005F0FDFB0D216E4805F06C
:103E800051FC6B48FDF756F807F094FF009402468A
:103E90000B46614807F0E4F8FF2005F0EBFBFF203C
:103EA00005F0E8FBFF2005F0E5FB0921634805F07C
:103EB00039FC5F48FCF7B0FF614908F025FC07F0CA
:103EC00079FF009402460B46534807F0C9F8FF20DB
:103ED00005F0D0FBFF2005F0CDFBFF2005F0CAFB6D
:103EE0000C21584805F01EFC5148FCF74BFF564981
:103EF00008F00AFC07F05EFF009402460B464648B5
:103F000007F0AEF8FF2005F0B5FBFF2005F0B2FB8F
:103F1000FF2005F0AFFB0D214C4805F003FC4448A1
:103F2000FCF756FF484908F0EFFB07F043FF009409
:103F300002460B46384807F093F8FF2005F09AFB3D
:103F4000FF2005F097FBFF2005F094FB0921404876
:103F500005F0E8FB3F4B3048196807F079F8FF207F
:103F600005F088FBFF2005F085FBFF2005F082FBB4
:103F70000E21394805F0D6FB2D48FCF729FF0546F0
:103F80002B48FCF7FFFE0146284608F0B3FA2E49FD
:103F900008F0BAFB07F00EFF009402460B461E48DD
:103FA00007F05EF8FF2005F065FBFF2005F062FBDF
:103FB000FF2005F05FFBFF2003B0BDE8304005F0B7
:103FC00059BB0621254805F0ADFBDCE60721244856
:103FD00005F0A8FBD7E60B21224805F0A3FBD2E6AB
:103FE0000721214805F09EFBCDE608211F4805F07A
:103FF00099FBC8E608211E4805F094FBC3E600BF04
:1040000074160100D8CFFF1FCCCFFF1FA8130100EB
:104010001088FF1F8C1601008889FF1F9816010069
:10402000A4160100C4CFFF1F0000C842B41601004F
:10403000C095FF1FC0160100D0160100E016010058
:1040400000002041EC16010000007A44FC1601003B
:104050000C1701002488FF1F1817010078130100B6
:104060008013010088130100941301009C130100C8
:10407000801601002DE9F041BE4A13889BB282B040
:104080008BB9BD4DD5F8BC30BB4E042B65D0032B8E
:1040900000F09880012B00F0C180022B00F03381EA
:1040A00002B0BDE8F0811088B34D80B208F0D8FAB4
:1040B000B24908F029FBB24B0446188808F0D0FA40
:1040C0000146204608F020FBAE4B0446188808F055
:1040D000C7FA0146204608F017FBAB4908F014FB6D
:1040E00008F0FEFC80B208F0BBFA0646A86D08F0A6
:1040F000B7FAA96908F008FB0146304608F0B8FB9A
:1041000008F0C8FCA14B1A689042B8BF1860A04BD9
:104110001B780446002BB5D09E4806F049FF0C21C1
:104120009D4806F0AFFC3046974908F0EDFA07F0DD
:1041300041FE00260B460246009696488E4E06F03B
:104140008FFF0D21954806F09DFC2146914806F011
:104150007FFFD5F8BC30042B99D1914C914AA379BB
:10416000226043F001030822E271A371B06D08F0F0
:1041700077FAB16908F0C8FA8B4908F0C5FA08F077
:10418000AFFC824B894A1B68126893FBF2F380B242
:1041900000271A124FEA202E607221468448E372EB
:1041A000A27284F808E027736773A773E77303F0BC
:1041B00003FEA279D6F8BC3067F30002032BA2718C
:1041C0007FF468AF764CA86DA3720122E823072123
:1041D00040F2FF26227263722660E17108F040FA15
:1041E000A96908F091FA704908F08EFA08F078FC95
:1041F000664B6E4A1B68126893FBF2F382B21E1282
:10420000171221466A486373E2722773A67303F09C
:10421000D3FDD5F8BC30012B7FF43FAF654B604C2C
:104220001B682360072280231020E271237204F0B0
:1042300063FF002840F0D1805F4B1B68DFF84C81A2
:104240005A4FA86D564E03EB83035B001A12A372FC
:104250006272D8F800303A6893FBF2F31A12627374
:10426000A37308F0FDF9A96908F04EFA534B1968D9
:1042700008F040F94C4908F047FA08F031FC80B2E8
:104280000312314620734A48E37203F095FD022081
:1042900004F068FF4A4B1B6823600722802310202C
:1042A000E271237204F028FF002840F09480424B12
:1042B0001B68A86D03EB83035B001A127272B37262
:1042C00008F0CEF9A96908F01FFA3E4B196808F00A
:1042D00011F9354908F018FA08F002FC82B21612FA
:1042E0003868D8F80030227393FBF0F32C4930483B
:1042F000A3731A12E672627303F05EFDD5F8BC3048
:10430000022B7FF4CDAE264C2948237240F20E32A8
:10431000012321462260E37103F04EFD1B4B1B6815
:104320005B00FF2BC8BFFF23042140224FF44170E4
:104330002060E17122726372A86D08F091F9A96999
:1043400008F0E2F92049054608F09AFB00283DD024
:104350002946284608F0D0F808F0C2FB80B20312C4
:10436000E072A3720E49124802B0BDE8F04103F0BA
:1043700023BD00BF2CD1FF1FD8CFFF1F6F12833A80
:104380003888FF1F0888FF1FCDCCCC3D4094FF1F0D
:104390002CCFFF1F9889FF1F281701003817010035
:1043A0003094FF1FF4E50618000020410C88FF1F21
:1043B00060D1FF1F4C88FF1F0488FF1F1894FF1F48
:1043C0005088FF1F38CFFF1F000048430122902371
:1043D000A272E372C6E7024B6AE7014B2DE700BF0A
:1043E0001C88FF1F70B50368C57984B0012D8DF856
:1043F00005304FEA13230E468DF8043005F1010213
:1044000001A909DD07300D440DF1050310F8014F36
:1044100003F8014FAB42F9D1034B04489B5D02F016
:1044200095FF04B070BD00BF80230100C094FF1F42
:10443000F0B40D4B0D489C790822FF27CD26A2250C
:10444000DA710022B0216FF300041F729E72DD72D8
:104450005A721A735A739A73DA7319609C711946F7
:10446000F0BC03F0A9BC00BF3094FF1F60D1FF1F58
:104470002DE9F041674D2B780F2B82B072D0664A40
:10448000664B1278664F002A6AD000223A6093F891
:10449000CE10644E00294ED13378082B00F0868070
:1044A000DFF8A88143F080035F4C0821012A2360D4
:1044B000E17100F08780682210232272637298F8FD
:1044C000003059490022022BA2720AD82B78CA72F6
:1044D0004FEA03130A734A73DBB210D104338B73B0
:1044E0000EE03B68012B04BF08230B732B7818BF29
:1044F0000A73502000221B01C872DBB26273A373DF
:1045000031784948FFF76EFFE073022004F02AFE7D
:104510004549464803F050FC2A7833784448013234
:1045200001332A703370FCF795FA08B1FFF780FF6A
:1045300002B0BDE8F08101290CD133780C2BAFD14A
:10454000DFF8088198F800300021032B317034D94E
:104550008023A9E73378DFF8F48043F08003A3E7F2
:104560003A6894E7334E344C33680093009A2168DC
:10457000002391422B7013D2304B274F1B6801222E
:1045800093423A7036D0254B31680191B3F8A800B8
:1045900001993C304FF47A7606FB0011216071E7F7
:1045A0001D4A1F4F13703A681C4B70E7DFF89C8060
:1045B000317098F80030032BCAD8013388F80030E6
:1045C000802371E71A48FCF7DDFB1D4908F09CF8D1
:1045D00008F086FA00F10A0315482372FCF7D2FBB3
:1045E000174908F091F808F07BFA80B20A300012FF
:1045F000607264E7134806F0DBFC1321124806F0F2
:1046000041FA104806F0D4FC0E4806F0D1FC3A7886
:10461000B9E700BF10D1FF1F18D1FF1FD8CFFF1F70
:10462000CCD0FF1F38D1FF1F3094FF1F60D1FF1F78
:10463000C095FF1F08D3FF1FFCD0FF1F0088FF1F7E
:1046400000007A449889FF1F4817010044D1FF1FDA
:104650002DE9F041BD4CBE4D82B006F0ADF92368A6
:104660002860042B00F05883022B00F0C280082B36
:1046700048D0072B40F09481332801F04E8600F398
:10468000D983312801F03386322840F0598106F071
:10469000CFF9002840F38281AE48AF4E06F01AFEF3
:1046A00007F0DEFFAD4908F02FF8612301227064A6
:1046B00022602B601846A0F152031F2B00F24081AC
:1046C000DFE813F0F90D3E013E013E013E013E01DF
:1046D0003E013E013E013E013E013E013E013E01E2
:1046E0003E010C043A0F91052A06FC043E013E01EE
:1046F0003E017F043E013D0F3E013E013E013E0171
:104700003E01FE0D322800F0A88340F3CB8334280D
:1047100000F0BF83712840F01381002273232260D0
:104720002B602368002B40F00E818D4E894806F0E7
:104730003FFC04218B4806F0A5F9864806F038FCBA
:104740001021894806F09EF9824806F031FC1321B9
:10475000864806F097F9864B7E48196806F078FC83
:104760007C4806F025FC1421824806F08BF9794834
:1047700006F01EFC1E21804806F084F9754806F0FC
:1047800017FC15217D4806F07DF9724806F010FCF3
:104790001E217B4806F076F96E4806F009FC2021C0
:1047A000784806F06FF96B4806F002FC192176484C
:1047B00006F068F9674806F0FBFB1221734806F023
:1047C00061F9644806F0F4FB0F21714806F05AF9CC
:1047D000604806F0EDFB0D216E4806F053F95D4888
:1047E00006F0E6FB002201233260236002B0BDE840
:1047F000F081A0F13103422B00F2A28001A252F815
:1048000023F000BFA3580000BF5800002B58000041
:10481000455800006B5800008958000041490000CD
:10482000055800004149000041490000414900008D
:104830004149000041490000414900004149000050
:104840004149000041490000414900004149000040
:104850004149000041490000414900004149000030
:104860004149000041490000414900004149000020
:104870004149000041490000414900004149000010
:104880004149000041490000414900004149000000
:1048900041490000414900004149000041490000F0
:1048A00041490000414900004149000041490000E0
:1048B00041490000414900004149000041490000D0
:1048C0004149000041490000414900001F580000D3
:1048D00041490000414900004149000041490000B0
:1048E00041490000414900004149000041490000A0
:1048F0004149000041490000414900004149000090
:10490000414900001B47000041490000E7570000F3
:1049100006F08EF8002841F3E3840E480E4E06F0B0
:10492000D9FC01270346014662221B48F365276034
:104930002A60FCF775FA23682868012B3FF4BBAEA8
:1049400073283FF4EEAE02B0BDE8F08148D1FF1FFE
:1049500014CFFF1F9889FF1FD8CFFF1F6F12833A14
:104960000088FF1F381B0100401B0100541B010081
:104970002488FF1F681B0100801B0100A01B010091
:10498000B81B0100D81B0100FC1B0100181C010012
:104990002C1C01003C1C0100C095FF1F23682868E7
:1049A000062B40F08B80A0F13103402BC8D801A228
:1049B00052F823F035570000A15600009B57000025
:1049C0006157000087570000CD560000F1560000E7
:1049D000414900000F5700004149000041490000D3
:1049E000414900004149000041490000414900009F
:1049F000414900004149000041490000414900008F
:104A0000414900004149000041490000414900007E
:104A1000414900004149000041490000414900006E
:104A2000414900004149000041490000414900005E
:104A3000414900004149000041490000414900004E
:104A4000414900004149000041490000414900003E
:104A5000414900004149000041490000414900002E
:104A6000414900004149000041490000414900001E
:104A7000414900004149000041490000414900000E
:104A800041490000414900004149000041490000FE
:104A900041490000414900004149000041490000EE
:104AA00041490000414900004149000041490000DE
:104AB000414900001B47000023682868052B40F08F
:104AC0008D80A0F13103402B3FF63AAF01A252F89E
:104AD00023F000BF795400006D5500008D55000093
:104AE000D755000001560000AD55000041490000B7
:104AF000414900004149000041490000414900008E
:104B0000414900004149000041490000414900007D
:104B1000414900004149000041490000414900006D
:104B2000414900004149000041490000414900005D
:104B3000414900004149000041490000414900004D
:104B4000414900004149000041490000414900003D
:104B5000414900004149000041490000414900002D
:104B6000414900004149000041490000414900001D
:104B7000414900004149000041490000414900000D
:104B800041490000414900004149000041490000FD
:104B900041490000414900004149000041490000ED
:104BA00041490000414900004149000041490000DD
:104BB00041490000414900004149000041490000CD
:104BC00041490000414900004149000041490000BD
:104BD00041490000C755000023682868032B7FF473
:104BE000ACAEA0F13003482B3FF6AAAE01A252F8BA
:104BF00023F000BF11490000035F00002B5F00009D
:104C0000535F0000755F0000975F0000BF5F00000A
:104C10004D6100006B6100008F61000041490000A0
:104C2000414900004149000041490000414900005C
:104C3000414900004149000041490000414900004C
:104C4000414900004149000041490000414900003C
:104C5000414900004149000041490000414900002C
:104C6000414900004149000041490000414900001C
:104C7000414900004149000041490000414900000C
:104C800041490000414900004149000041490000FC
:104C900041490000414900004149000041490000EC
:104CA00041490000414900004149000041490000DC
:104CB0004149000041490000B7610000E75F000082
:104CC0000560000023600000416000000D610000ED
:104CD000E3590000075A0000414900002D5A000026
:104CE0005F60000041490000414900004149000067
:104CF00041490000414900001B4700008760000057
:104D0000414900004149000041490000414900007B
:104D100041490000BD600000A0F13003422B3FF686
:104D20000FAE01A252F823F0F7580000DB59000043
:104D3000DF5900005D5900007D59000081590000D5
:104D4000C95900000B5900002359000027590000E1
:104D5000414900004149000041490000414900002B
:104D6000414900004149000041490000414900001B
:104D7000414900004149000041490000414900000B
:104D800041490000414900004149000041490000FB
:104D900041490000414900004149000041490000EB
:104DA00041490000414900004149000041490000DB
:104DB00041490000414900004149000041490000CB
:104DC00041490000414900004149000041490000BB
:104DD00041490000414900004149000041490000AB
:104DE000414900004149000041490000414900009B
:104DF0004359000041490000414900004149000079
:104E0000414900004149000041490000414900007A
:104E1000414900004149000041490000414900006A
:104E20004149000041490000414900001B47000082
:104E3000DB58000034287FF46DAC05F0F9FD002844
:104E40007FF7ACAD8A488B4E06F044FA612301220D
:104E5000B08622602B6018462DE405F0E9FD00289D
:104E60001CDD8348834E06F035FA07F0F9FB8249D2
:104E700007F04AFCB6F9D03096F8481007460246CB
:104E80007E48F764FBF7CEFF01236920236028608A
:104E900011E405F0CDFD002800F392842368286812
:104EA000FFF7E7BB31287FF44BAD05F0C1FD0028CB
:104EB00040F394846E486F4E06F00CFAC0B286F848
:104EC000480002288ABF0021014686F84810B6F93A
:104ED000D030F26C6948D5E705F06EFD05F0A8FD0D
:104EE00005460028F8D16248624E06F061F8604835
:104EF00006F05EF85E4806F05BF85D4806F058F88C
:104F00005B4806F055F81F215D4805F0BBFD584889
:104F100006F04EF81C215B4805F0B4FDB06A5A4912
:104F200007F0F2FB06F046FF009502460B4650489C
:104F300006F096F80221554805F0A4FD4C4806F00D
:104F400037F82321524805F09DFD706C4E4907F05B
:104F5000DBFB06F02FFF009502460B46444806F0A7
:104F60007FF80221494805F08DFD414806F020F800
:104F70001921484805F086FD306C06F01BFF02251C
:104F80000B46024600953A4806F06AF82946424820
:104F900005F078FD364806F00BF822213F4805F071
:104FA00071FDB18E324806F053F803213C4805F0FC
:104FB00069FD2F4805F0FCFF07232360C3E405F0DB
:104FC000FBFC05F035FD05460028F8D12848294EA0
:104FD00005F0EEFF264805F0EBFF254805F0E8FF59
:104FE000234805F0E5FF224805F0E2FF15212D4892
:104FF00005F048FD1E4805F0DBFF18212A4805F0A2
:1050000041FD2B460A2296F84810194805F0E0FFAA
:10501000174805F0CDFF2821244805F033FDF06C3A
:10502000194907F071FB06F0C5FE00950B460246D4
:105030000F4806F015F80221144805F023FD0C482E
:1050400005F0B6FF18211A4805F01CFDB6F9D0107E
:10505000074805F0FDFF064805F0AAFF1321154893
:1050600005F010FD024805F0A3FF082323606AE461
:105070009889FF1FD8CFFF1F6F12833AC095FF1F7B
:1050800084190100A419010000007A44C817010026
:10509000C4190100E819010080190100041A010077
:1050A000281A0100001C0100801701009C17010054
:1050B000CC170100E817010005F07EFC05F0B8FCF4
:1050C00005460028F8D17F487F4E05F071FF7D48E6
:1050D00005F06EFF7B4805F06BFF7A4805F068FF2E
:1050E000784805F065FF1121784805F0CBFC75483C
:1050F00005F05EFF2821764805F0C4FCB0697549CB
:1051000007F002FB06F056FE009502460B466D487E
:1051100005F0A6FF0221704805F0B4FC694805F0CF
:1051200047FF16216D4805F0ADFC306A694907F06C
:10513000EBFA06F03FFE00950B460246614805F08B
:105140008FFF0221644805F09DFC5E4805F030FFAA
:10515000D6F8BC30002B32DD1D21614805F092FCF1
:10516000706E07F07DFA5F4907F0CEFA06F022FE76
:10517000022502460B460095524805F071FF0121B9
:10518000594805F07FFC4F4805F012FF1F21574892
:1051900005F078FCB06E07F063FA524907F0B4FAF4
:1051A00006F008FE009502460B46464805F058FFFB
:1051B00001214D4805F066FC424805F0F9FE112139
:1051C0004B4805F05FFCD6F8BC30062B01F2068098
:1051D000DFE813F067086C0862085D085808530898
:1051E000000805F0E9FB05F023FC0028F9D135485B
:1051F000354E05F0DDFE334805F0DAFE314805F0A6
:10520000D7FE304805F0D4FE2E4805F0D1FE1F2110
:10521000384805F037FC2B4805F0CAFE1E213648F9
:1052200005F030FC274805F0C3FE1A21334805F08D
:1052300029FCD6F88430022B01F04781032B01F0C2
:105240003B81012B01F02F8109212D4805F01AFC2B
:105250001C4805F0ADFE14212A481B4F05F012FC36
:10526000D6F88010174805F0F3FE164805F0A0FEAA
:105270001C21254805F006FCD6F88810114805F0D9
:10528000E7FE104805F094FE1C21204805F0FAFBCB
:10529000D6F8B8100B4805F0DBFE0A4805F088FE8A
:1052A000D6F8845025F00205012D01F07F801321EE
:1052B000174805F0E7FB034805F07AFE0223236058
:1052C000FFF741BB9889FF1FD8CFFF1FA41B010028
:1052D000FC17010000007A44C817010028180100DB
:1052E00040180100CDCCCC3DC01E0100601801006B
:1052F00080180100801D0100A01D0100C01D0100DB
:10530000381E0100441E01005C1E01007C1E0100CD
:10531000E817010005F050FB05F08AFB0028F9D1E1
:10532000BE48BF4D05F044FEBC4805F041FEBB48F9
:1053300005F03EFEB94805F03BFEB84805F038FEE2
:105340001321B84805F09EFBB44805F031FE0D214D
:10535000B54805F097FBB14805F02AFE0F21B34888
:1053600005F090FBB24BAD48196805F071FEAB48F3
:1053700005F01EFE1321AF4805F084FBAE4BA74895
:10538000196805F065FEA54805F012FE1221AB482C
:1053900005F078FBAA4BA148196805F059FE9F4813
:1053A00005F006FE1121A74805F06CFBA64B9B48B3
:1053B000196805F04DFE994805F0FAFD0E21A34845
:1053C00005F060FBD5F8AC10944805F041FE934819
:1053D00005F0EEFD19219E4805F054FB9D4B8F48CA
:1053E000196805F035FE8D4805F0E2FD11219A4857
:1053F00005F048FB994B8948196805F029FE874854
:1054000005F0D6FD1021964805F03CFB954B8348EE
:10541000196805F01DFE814805F0CAFD1C2192485F
:1054200005F030FB914B7D48196805F011FE7B4873
:1054300005F0BEFD16218E4805F024FBB5F8A81036
:10544000764805F005FE1E218A4805F01BFB7348CF
:1054500005F0AEFD1721884805F014FB6F4805F0F4
:10546000A7FD1321854805F00DFB6C4805F0A0FD54
:1054700004232360FFF767BA05F0DAFA00287FF704
:10548000ABAB6648664E05F025FF01226B23C6F8DC
:105490008C0022602B6001E005F08EFA05F0C8FA5E
:1054A0000028F9D15D485E4D05F082FD5B4805F0AE
:1054B0007FFD5A4805F07CFD584805F079FD5748B6
:1054C00005F076FD21216E4805F0DCFA534805F021
:1054D0006FFD15216B4805F0D5FAD6F88C104F48B2
:1054E00005F0B6FD0221684805F0CCFA4B4805F0FE
:1054F0005FFD1E21654805F0C5FAD6F894104748AF
:1055000005F0A6FD0321624805F0BCFA434805F00A
:105510004FFD1E215F4805F0B5FAD6F890103F48C0
:1055200005F096FD3D4805F043FD1D215A4805F064
:10553000A9FAD6F8B010394805F08AFD374805F0C9
:1055400037FD1E21554805F09DFAD6F8B4103348B2
:1055500005F07EFD314805F02BFDD6F8AC30012B6F
:1055600000F0D78705232360FFF7EDB905F060FA57
:1055700000287FF731AB2948294E05F0ABFE012208
:105580006B23C6F8940022602B6087E705F050FA81
:1055900000287FF721AB2148214E05F09BFE012218
:1055A0006B23C6F8900022602B6077E71C4E96F8BC
:1055B000CD30B3FA83F35B0901216B2286F8CD303D
:1055C00021602A606AE72549002373220B6023606B
:1055D0002A60FFF7A6B805F02BFA00287FF7FCAA8F
:1055E0000E480F4E05F076FE1C4BC6F8B0000222A6
:1055F0001A60FCF723FB01226B2322602B604DE72E
:1056000005F016FA00287FF7E7AA0448044E05F0D3
:1056100061FE124BC6F8B4000322E9E79889FF1F28
:10562000D8CFFF1F4C1C0100601C0100701C010042
:105630003CD1FF1F801C0100BCCFFF1F941C010048
:10564000F8D0FF1FA81C0100D0CFFF1FBC1C010019
:10565000CC1C01002494FF1FE81C01004494FF1F90
:10566000FC1C01001494FF1F101D01002088FF1F67
:10567000301D0100481D0100681D0100E8170100F0
:105680002C1A0100501A010014190100681A0100B7
:1056900080140100881A0100A81A0100C81A01002C
:1056A00005F0C6F900287FF707AABC48BC4E05F0F4
:1056B00011FE06F0D5FFBB4907F0DAF86523012299
:1056C000306222602B601846FEF7F5BF05F0B0F996
:1056D00000287FF7F1A9B148B14E05F0FBFD652325
:1056E0000122C6F8C00022602B601846FEF7E3BF17
:1056F000AB4B93F8CC20002A00F02286002283F8DE
:10570000CC200123652023602860FEF7D4BF05F07C
:105710008FF900287FF7D0A9A048A14E05F0DAFD47
:1057200006F09EFF65230122B06322602B601846BD
:10573000FEF7C1BF05F07CF900287FF7BDA99748A7
:10574000974E05F0C7FD06F08BFF964907F090F8DD
:1057500065230122B06122602B601846FEF7ABBFC3
:1057600005F066F900287FF7A7A98C488C4E05F054
:10577000B1FD00EB8000430001226520B36622608A
:105780002860FEF798BF864AD2F8BC300133062B5A
:10579000C8BF0023C2F8BC30B3E705F049F90028C0
:1057A0007FF78AA97D487E4E05F094FD00EB8000CE
:1057B000430001226520736622602860FEF77BBFEC
:1057C0007648774E05F086FD07B23B46F26C96F8B8
:1057D00048107548A6F8D070FFF754BB704E96F885
:1057E0004800FFF76EBB6E4AD2F884300133032BBA
:1057F000C8BF0023C2F884300123632023602860DF
:10580000FEF759BF0123236005F012F90028F3DDEC
:105810006248634E05F05EFDC6F8A400ECE7FDF7B4
:1058200099FA23682868FEF722BF0123236005F058
:10583000FFF80028E0DD5948594E05F04BFDC6F849
:10584000B800D9E70123236005F0F2F8002807DD4E
:105850005248534E05F03EFD06F002FFC6F89C008C
:10586000632028602368FEF704BF0123236005F04E
:10587000DFF80028F4DD4948494E05F02BFD06F01D
:10588000EFFEC6F89800EBE70123236005F0D0F89F
:105890000028E5DD4148424E05F01CFDA6F8C60093
:1058A000DEE73F4ED6F88030B3FA83F35B0901227E
:1058B0006320C6F8803022602860FEF7FCBE384EB8
:1058C000D6F88830B3FA83F35B0901226320C6F867
:1058D000883022602860FEF7EEBE01232360FEF7C9
:1058E000A7FD64232B602368082B4FF064007EF42F
:1058F000C0AEFEF707BF2D4A137801214B4064204C
:10590000137021602860FEF7D6BE294A1368B3FAE7
:1059100083F35B0901216420136021602860FEF796
:10592000CABE244AF2E70123236005F081F800286B
:1059300000F3AA85204B1A68042AD2DD02221A60DD
:10594000CFE70123236005F073F80028C9DD134871
:10595000134E05F0BFFCA6F8A800C2E7174A184F7F
:105960001368002B0CBF012100214FF001031160CF
:10597000236040F0B38564222A60B5E7114AC5E789
:10598000074ED6F8AC30B3FA83F35B0901226420EA
:10599000C6F8AC3022602860FEF78DBE9889FF1FE4
:1059A000D8CFFF1F00007A44C095FF1F2CCFFF1FE8
:1059B0004494FF1F1494FF1F2088FF1FF8D0FF1F7F
:1059C00048D1FF1FD0CFFF1F012321482360FBF7E1
:1059D0005BF8204A23681060CDE71F4A96E71F4A0C
:1059E00094E705F025F800280DDD1D481D4E05F053
:1059F00071FC06F035FE1C4906F03AFF01226223D5
:105A0000706222602B6005F013F800280EDD144848
:105A1000144E05F05FFC06F023FE134906F028FF44
:105A200001226223C6F8C80022602B6005F000F84E
:105A3000002840F355840A480A4E05F04BFC06F056
:105A40000FFE01226223F06322602B6010E000BF92
:105A5000C095FF1F2494FF1F3CD1FF1FBCCFFF1F29
:105A60009889FF1FD8CFFF1F00007A4404F0A4FFDD
:105A700004F0DEFF05460028F8D1C348DFF878833C
:105A800005F096FAC04805F093FABF4805F090FA81
:105A9000BD4805F08DFABC4805F08AFA1521BB48CF
:105AA00004F0F0FFB84805F083FA1421B84804F078
:105AB000E9FFB54805F07CFA1B21B64804F0E2FF87
:105AC000B14805F075FA1321B34804F0DBFFAE4886
:105AD00005F06EFAAC4805F06BFAAB4805F068FAD1
