:1000000000800020BD010000C19200007992000034
:1000100079920000799200007992000079920000B4
:10002000799200007992000079920000C19200005C
:10003000C19200007992000055B8000059B8000044
:10004000C1920000C1920000C1920000C192000064
:10005000C1920000C1920000C1920000C192000054
:10006000C1920000C1920000C1920000C192000044
:10007000C1920000C1920000C1920000C192000034
:10008000C1920000C1920000C1920000C192000024
:10009000C1920000C1920000C1920000C192000014
:1000A000C1920000C1920000C1920000C192000004
:1000B000C1920000018600000D860000118600003C
:1000C0001D8600002186000025860000C1920000E8
:1000D000C1920000C1920000C1920000C1920000D4
:1000E000C1920000C1920000C1920000C1920000C4
:1000F000C1920000C1920000C192000085A10000E1
:10010000C192000099A80000C1920000C1920000B5
:10011000C1920000C1920000C1920000C192000093
:10012000C1920000C1920000C1920000C192000083
:10013000C1920000C1920000C1920000C192000073
:10014000C1920000C1920000C1920000C192000063
:10015000C1920000C1920000C1920000C192000053
:10016000C192000089AB0000C1920000C192000062
:10017000C1920000C1920000C1920000C192000033
:10018000C1920000C1920000C1920000C192000023
:10019000C1920000C1920000C1920000C192000013
:1001A000C1920000C1920000C1920000C192000003
:1001B000C1920000C1920000C1920000564B4CF267
:1001C000205210B51A804DF628121A8000BF00BFC9
:1001D00009F07AF8514B4FF010621A60504A9A6059
:1001E000504ADA60504A136813F4807304D14F49BF
:1001F0000B604FF4A85313604D4B1A78110703D5C9
:100200001A7842F008021A704A4B4B492A221A7097
:100210004A4A4B4B8B4204D252F8040F43F8040B6A
:10022000F8E7484B484900228B4202D243F8042B9E
:10023000FAE74649464A002352F8230041F82300D2
:1002400001336F2BF8D1434B434A802103F8011B44
:100250009342FBD1414B3D4A1A60414B8A221A70AE
:10026000A3F5805324225A70A0221A709A7992071B
:10027000FCD59A79D406FCD43A4A937903F00C035E
:10028000082B384BF9D103221A7140225A719A79FE
:100290009006FCD5334A9179324B4906FBD5324A58
:1002A000324911600221516020221A709A7902F0BD
:1002B0000C020C2AFAD12E4B2E4A1A602E4B2F4AD2
:1002C0001A6000225A60072243F8042C2C4AC3F813
:1002D0000C2D62B609F02EFB144B1B68DA0705D50E
:1002E000284809F009F9284B284A1A60284B1B783E
:1002F0005B0609D5244C254B22689A4204D121483B
:1003000009F0FAF80023236008F0E4FF0DF08AFA00
:100310000BF0B4FDFEE700BF0E2005403080044026
:10032000823F04000100002B10D0034014D0034092
:1003300002D0074000E007404094FF1F70340100E6
:100340002087FF1F4094FF1FD8D5FF1F0082FF1F8B
:100350000000000000E400E05FE400E008ED00E0E1
:100360000050064000400640448004400000030165
:1003700004800440C010050014E000E0FF76010096
:10038000000020202FC5FA611CE00340A5C3945A49
:1003900000F00740FFFFFFFFFFFFFFFFFFFFFFFF32
:1003A000FFFFFFFFFFFFFFFFFFFFFFFFFFFFFFFF5D
:1003B000FFFFFFFFFFFFFFFFFFFFFFFFFFFFFFFF4D
:1003C000FFFFFFFFFFFFFFFFFFFFFFFFFFFFFFFF3D
:1003D000FFFFFFFFFFFFFFFFFFFFFFFFFFFFFFFF2D
:1003E000FFFFFFFFFFFFFFFFFFFFFFFFFFFFFFFF1D
:1003F000FFFFFFFFFFFFFFFFFFFFFFFFFFFFFFFF0D
:10040000FFFFFFFFFFFFFFFFFFFFFFFFDEF9FFFF23
:1004100010B5054C237833B9044B13B10448AFF33E
:1004200000800123237010BD4094FF1F00000000D6
:100430006C340100084B10B51BB108490848AFF3F4
:1004400000800848036803B910BD074B002BFBD0A0
:10045000BDE81040184700BF000000004494FF1F93
:100460006C3401004094FF1F00000000F0B400F164
:100470002C06174F00243146031F00F15C0243F89D
:10048000044FB34241F8047F4FF0000542F8044F97
:10049000F5D100230F4A1049C0F89050C0F894508D
:1004A000C0F89850C0F89C50C0F8A050C0F8B050A8
:1004B000C0F8A420C0F8AC20C0F8A81080F8B8306C
:1004C00080F8B93080F8D030C0F8DC30F0BC70472C
:1004D0000000A040000048430000C8C210B4031F41
:1004E000002400F12C0143F8044F8B424FF000022E
:1004F000F9D10023C0F89020C0F89420C0F89820CB
:10050000C0F89C20C0F8A020C0F8E03080F8B830D7
:1005100080F8B93080F8D03010BC70472DE9F04138
:100520008046CE1D00F1900400F1A00716F8010FDF
:1005300028380CF085FD094944F8040F05460CF0F5
:100540008FFF38B1B8F9E4000CF07AFD29460CF0C1
:10055000C3FC2060BC42E9D1BDE8F081000020C2AC
:100560002DE9F043814685B0144604292BD8DFE8F5
:1005700001F0798EBB035100637A3F2B09D8207AB2
:1005800000EB03200CF05CFD75490CF061FEC9F82E
:100590001800E37A3F2B09D8A07A00EB03200CF077
:1005A0004FFD6F490CF054FEC9F81C00637B3F2BD4
:1005B00009D8207B00EB03200CF042FD68490CF0C9
:1005C00047FEC9F8200009F15C08464609F12C05F0
:1005D000A9F1040757F8044F55F8040F21460CF011
:1005E0003FFF30B1D9F8B41020460CF02FFF00B116
:1005F0002C6056F8041F20460CF032FF594920B1F8
:1006000020460CF02DFF00B134604545E2D105B025
:10061000BDE8F083637A3F2B09D8207A00EB0320F2
:100620000CF00EFD4E490CF013FEC9F82400E37ADD
:100630003F2B09D8A07A00EB03200CF001FD4849BC
:100640000CF006FEC9F82800637B3F2BBBD8207B4B
:1006500000EB03200CF0F4FC41490CF0F9FDC9F863
:100660002C00B0E7607A227AA37AE17A02EB0022CA
:1006700002EB034303EB0163C9F8DC30637B227BAD
:100680001B0203F470631344C9F8D8309BE7627A05
:1006900003933F2A0CD8207A00EB02200CF0D0FC08
:1006A0002F490CF0D5FD039BC9F80000012B44D065
:1006B000E37A3F2B09D8A07A00EB03200CF0C0FCB2
:1006C00027490CF0C5FDC9F80400637B3F2B3FF6BA
:1006D0007AAF207B00EB03200CF0B2FC20490CF039
:1006E000B7FDC9F808006EE7637A3F2B09D8207A76
:1006F00000EB03200CF0A4FC19490CF0A9FDC9F88B
:100700000C00E37A3F2B09D8A07A00EB03200CF011
:1007100097FC13490CF09CFDC9F81000637B3F2B3C
:100720003FF651AF207B00EB03200CF089FC0C4915
:100730000CF08EFDC9F8140045E70B480BF004FAE5
:10074000D9F800000CF026F8022502460B46009569
:1007500005480BF055FA04480BF0F6F9A8E700BF7E
:1007600000007A440000A040E089FF1F90F8C0001C
:10077000704700BF90F8BC00704700BF90F8C400FD
:10078000704700BF90F8C800704700BF0C2994BFA5
:1007900050F82100002070472DE9F0410B4E8046B3
:1007A000041F00F12C0754F8045F314628460CF072
:1007B00039FE30B1D8F8B41028460CF051FE00B123
:1007C0002E46BC42EFD13046BDE8F081000020410A
:1007D0002DE9F041D0F8B4704FF00008041F00F18B
:1007E0002C0654F8045F394628460CF039FE0849B7
:1007F00048B128460CF016FE414620B128460CF0C0
:100800002FFE00B1A846B442EBD14046BDE8F081CE
:100810000000A0402DE9F047D0F8B47082464FF0B8
:100820000009041F00F12C064FF0000854F8045F83
:10083000394628460CF014FE0C4950B128460CF0FD
:10084000F1FD30B1484629460CF046FB08F101089D
:100850008146B442EAD1CAF8D48040460CF0F0FB9D
:10086000014648460CF0F4FCBDE8F0870000A040CB
:10087000D0F8D400704700BFD0F8D800704700BF50
:1008800038B5D0F89850D0F89440294620460CF05E
:10089000C9FD00B92C46204638BD00BF38B5D0F898
:1008A0009850D0F89440294620460CF0D9FD00B964
:1008B0002C46204638BD00BF70B5D0F89440124990
:1008C000054620460CF0CCFDD0B1204600210CF0AE
:1008D00003FB01240646D5F898500B4928460CF036
:1008E000BFFD28B1304629460CF0F6FA0134064621
:1008F00020460CF0A5FB014630460CF0A9FC70BD6B
:1009000000260446E7E700BF000020C22DE9F843B7
:100910000026D0F8B480C0F890608146041F00F132
:100920002C0754F8045F414628460CF099FD09490C
:1009300050B128460CF076FD30B1304629460CF017
:10094000CBFA0646C9F89000BC42EAD13046BDE871
:10095000F88300BF0000A04003299ABF00EB81008C
:10096000D0F89400002070473E2998BF80F8D0103E
:10097000704700BFD0F8DC00704700BF90F8B800A7
:10098000704700BF90F8B900704700BFC0F8CC10A6
:10099000704700BF80F8B810704700BF80F8B910EA
:1009A000704700BFC0F8B410704700BFA0F8E41053
:1009B000704700BF70B500F565550646043500F177
:1009C0002C042046E834FFF751FDAC42F9D106F57E
:1009D0008A75012428460021FFF7DCFF21462846BE
:1009E0000134FFF7C1FF3F2C05F1E805F2D143F6D2
:1009F0004C1400250548064A064B35550021706108
:100A0000B161F2613362304670BD00BF00007A44CC
:100A1000000048430000C8C270B500F565560436B2
:100A200000F58A74002507E0012520460021E834FE
:100A3000FFF7B4FFB4420AD02046FFF79FFF00281B
:100A4000F3D02046FFF79EFF0028EDD170BD284669
:100A500070BD00BF70B500F592560C3600F58A7473
:100A600002E0E834B4420CD02046FFF787FF054689
:100A70000028F6D02046FFF77DFFC307F1D52846B2
:100A800070BD0025284670BD2DE9F04143F6501396
:100A900000F56556374600228046C25004361037AE
:100AA00000F58A7402E0E834B4420DD02046FFF726
:100AB00065FF0028F7D020463D68FFF7D9FEE834EF
:100AC0002844B4423860F1D143F6501358F803007B
:100AD000BDE8F08138B500F58A74012504E00135E0
:100AE0003F2D04F1E80414D02046FFF747FF00280B
:100AF000F5D02046FFF7F2FC20460021FFF74AFF21
:100B0000294620460135FFF72FFF3F2D04F1E80469
:100B1000EAD138BD43F64813C058704738B50C6861
:100B200004F00F04E825013405FB04002C301546C1
:100B30001A46FFF7F3FC012D00D038BD06480BF034
:100B400003F8214604480BF053F80B210348BDE895
:100B500038400AF059BD00BFE089FF1FC0160100F0
:100B60002DE9F0410E68044606F00F0006F0F0068D
:100B7000302E0F46904600F101053CD019DC16B12D
:100B8000202E31D10126072D1BD9E82303FB054474
:100B90002C3420460121FFF7FDFE20460121FFF7FE
:100BA000FDFE43463A4631462046BDE8F041FFF798
:100BB000D7BC402E1DD0502E16D1072D4FF0040665
:100BC000E3D8B8F1010FE0D129460C480BF010F83A
:100BD00041460B480AF018FD314608480BF008F86A
:100BE00006480AF0B1FFD0E7072DCED8042ECCDCA2
:100BF000E7E70326C7E70226C5E700BFE089FF1F36
:100C0000CC1601002DE9F043002383B00646436073
:100C100000F58A74012504E001353F2D04F1E80454
:100C200066D02046FFF7AAFE0028F5D04E4806F011
:100C300071FF29464D4806F06DFF2046FFF766FE1E
:100C40000BF0A8FD02460B46494806F063FF20461C
:100C5000FFF7A2FD80462046FFF7BAFD0746404653
:100C60000BF098FD8046384689460BF093FD4246CE
:100C70004B46CDE900013F4806F04CFF00212046DD
:100C8000FFF76AFE012180462046FFF765FE074612
:100C900040460BF07FFD8046384689460BF07AFDD2
:100CA00042464B46CDE90001334806F033FF20466B
:100CB000FFF72CFE014670680CF00EF970602046BC
:100CC000FFF7DEFDF1690CF0ADFB002833D12046C3
:100CD000FFF7E4FD316A0CF0C3FB00289CD02046EE
:100CE000FFF7DCFD01353F2D306204F1E80498D1B7
:100CF000B0680CF0A5F9014670680CF0A9FAB1696A
:100D0000706004460CF0ACFB00B1B4617169204620
:100D10000CF088FB00B174610B2008F087FD43F6EE
:100D20004C13F35C60B99BB143F64C130122F254AF
:100D300003B0BDE8F0832046FFF7A2FDF061C6E7EF
:100D400053B943F64C130022F25403B0BDE8F083CC
:100D50000A4806F00DFFE7E7094806F0F3FE43F600
:100D60004C130022F254F0E7981F0100D016010046
:100D70000C170100201701004C1701006817010033
:100D8000A017010070B5114BC36000F5655506460C
:100D9000043500F58A7402E0E834AC4213D02046F2
:100DA000FFF7ECFD0028F7D02046FFF7F5FCF168CF
:100DB0000CF038FB0028EFD02046FFF7EDFCE834BC
:100DC000AC42F060EBD1F06870BD00BF0000A04005
:100DD00070B5002300F5655506460361043500F53E
:100DE0008A7402E0E834AC4213D02046FFF7C6FD17
:100DF0000028F7D02046FFF7EBFC31690CF030FB00
:100E00000028EFD02046FFF7E3FCE834AC42306125
:100E1000EBD1306970BD00BF40687047017070470A
:100E2000816070472DE9F04100F565558846174609
:100E30001EB2043500F58A7402E0E834AC4213D0E7
:100E40002046FFF79BFD0028F7D020464146FFF7DC
:100E50009DFD20463946FFF7A5FD20463146E83482
:100E6000FFF7A4FDAC42EBD1BDE8F0812DE9F843DA
:100E700043F6481300F565550027C7502E462A4A09
:100E80002A4B826280464FF00009436204350836DF
:100E900000F58A7402E0E834A54213D02046FFF73B
:100EA0006DFD0028F7D03368013333602046FFF72B
:100EB00003FD1F490CF0D4FA88B9E834A54207F1C4
:100EC0000107EBD143F6481358F80300C01B0CF0A0
:100ED000B7F8014648460CF0BBF9BDE8F883204658
:100EE000FFF7EAFC014648460BF0F6FF8146204634
:100EF000FFF7D4FCD8F824100CF0B2FA70B92046F1
:100F0000FFF7BEFCD8F828100CF08CFA0028C2D0ED
:100F10002046FFF7B5FCC8F82800BCE72046FFF7DD
:100F2000BDFCC8F82400EAE700C0794400C079C4D9
:100F300000008CC2406A7047806A7047F8B500F5BF
:100F4000655507460026043500F58A7402E0E8344A
:100F5000AC420FD02046FFF711FD0028F7D0204605
:100F6000FFF758FC014630460BF0B6FFE834AC42C0
:100F70000646EFD143F64813F8580CF061F80146E5
:100F800030460CF065F9F8BD2DE9F04F91B00446FC
:100F9000A3480D91154606F065FDA14806F062FDD7
:100FA0009F4806F05FFD43F648132046E658FFF7DA
:100FB0006BFD81466068D4F808B00BF0EBFBCDE91F
:100FC0000E012046FFF7BAFF82462046D4F8108073
:100FD000E768FFF74BFF0BF0DDFBCDE90A0139466F
:100FE00040460BF077FF8F490CF07EF80BF0D2FBF8
:100FF000CDE9080140460BF0CDFBCDE906013846AE
:101000000BF0C8FBCDE9040150460BF0C3FBDDE952
:101010000E23CDE90201CDE9002331465B464A4665
:10102000814806F01FFD7E4806F01CFD04F58A7419
:101030004FF001084FF0000BA94607E008F1010846
:10104000B8F13F0F04F1E80400F0DE802046FFF71E
:1010500095FC0028F2D02046FFF788FB2046FFF7DA
:1010600089FB2046FFF78AFB2046FFF78BFB082110
:101070006E480AF0C9FA41466D480AF0B9FDB8F168
:10108000090F40F3C78002216A480AF0BDFA2046E2
:10109000FFF73CFC0BF07EFB9DF8345000950246B8
:1010A0000B4663480AF0ACFD012163480AF0ACFA34
:1010B000B9F1000F2DD1DA464E4620E006215F48F7
:1010C0000AF0A2FA51465A480AF092FD02215C4801
:1010D0000AF09AFA31462046FFF758FB0BF05AFB0C
:1010E000009502460B4652480AF08AFD013601215E
:1010F00051480AF089FA0C2E00F08980BA46BAF1FC
:10110000090F0AF10107D9DC01214E480AF07CFAE7
:10111000D4E7B9F1010F2ED1DA4600261FE00621EF
:1011200046480AF071FA514641480AF061FD022131
:1011300043480AF069FA31462046FFF727FB0BF0D7
:1011400029FB009502460B4639480AF059FD013645
:10115000012139480AF058FA082E0AD0BA46BAF1E5
:10116000090F0AF10107DADC012136480AF04CFACE
:10117000D5E70BF1080B2E480AF0E6FC09213248AE
:101180000AF042FA00212046FFF7E6FB0BF002FBD3
:10119000022502460B46009525480AF031FD0A213A
:1011A0002A480AF031FA01212046FFF7D5FB0BF05F
:1011B000F1FA009502460B461D480AF021FD0C216C
:1011C00023480AF021FA2046FFF7D4FB002310221F
:1011D000014617480AF0CCFC08211E480AF014FA10
:1011E0002046FFF749FB00230146102210480AF071
:1011F000BFFC08F101080E480AF0A6FCB8F13F0F49
:1012000004F1E8047FF422AF11B0BDE8F08F0BF1D8
:101210000C0BB0E701210B480AF0F6F933E700BFE9
:10122000981F010000007A44501A0100F01A0100D2
:10123000E089FF1F8C1E0100FC1A0100001B010049
:10124000641B0100A81F0100081B0100141B010002
:10125000201B0100301B01002DE9F04F85B000F587
:101260008A758A4603929B462E464FF0010806E097
:1012700008F10108B8F13F0F06F1E8067BD03046CF
:10128000FFF77CFB0028F3D000230A2251467D485B
:101290000AF06EFC01217C480AF0B6F903980BF0C5
:1012A00079FA00230246009376480B460AF0A8FC20
:1012B000012175480AF0A8F9594672480AF098FCCD
:1012C000012171480AF0A0F941466E480AF090FCED
:1012D00001216D480AF098F900244FF002092146D7
:1012E0003046FFF753FA0BF055FACDF8009002465E
:1012F0000B4664480AF084FC0134012162480AF07C
:1013000083F9082C4FF00207E9D100213046FFF79E
:1013100023FB0BF03FFA009702460B4659480AF0B0
:101320006FFC012158480AF06FF901213046FFF7A0
:1013300013FB0BF02FFA009702460B4651480AF0B8
:101340005FFC012150480AF05FF939463046FFF74B
:1013500003FB0BF01FFA009702460B4649480AF0C0
:101360004FFC08F1010847480AF0EEFBB8F13F0FC7
:1013700006F1E80683D101274FF0000904E00137A8
:101380003F2F05F1E80579D02846FFF7F7FA002846
:10139000F5D000230A2251463C480AF0E9FB01211E
:1013A000394808F09BFD03980BF0F4F9CDF8009054
:1013B00002460B4635480AF023FC0121324808F06A
:1013C0008DFD594631480AF013FC01212E4808F0E2
:1013D00085FD39462D480AF00BFC01212A4808F00A
:1013E0007DFD00244FF0020821462846FFF7CEF984
:1013F0000BF0D0F9CDF8008002460B4623480AF0E6
:10140000FFFB01340121204808F068FD082C4FF053
:101410000206E9D100212846FFF79EFA0BF0BAF93F
:10142000009602460B4619480AF0EAFB01211648CD
:1014300008F054FD01212846FFF78EFA0BF0AAF9B7
:10144000009602460B4611480AF0DAFB01210E48CD
:1014500008F044FD31462846FFF77EFA0BF09AF972
:10146000009602460B4609480AF0CAFB01370748B6
:101470000AF06AFB3F2F05F1E80585D105B0BDE80C
:10148000F08F00BFE089FF1FCC160100B489FF1F59
:1014900010B5132008F0CAF9012815D008F0DAF9C0
:1014A0000F4B104A1B6812880F49C01A642303FBB4
:1014B00000F092B2B0FBF2F000EB8000C0EB001045
:1014C000C00080B2088010BD054C08F0C3F9236845
:1014D000044AC01A80B2108008F0BCF9206010BD28
:1014E00078D1FF1F0CD1FF1F88D1FF1F0A4A0B497B
:1014F000106ED36D03FB00F34FF47A7000FB03F022
:10150000642310B50B600BF09BFD0549054C0BF0F7
:101510009FFE206010BD00BF2CD0FF1F1088FF1F52
:10152000E4388E3E64D1FF1F10B4019C521AA4EB24
:10153000030412D0401A002C04FB00F002EBD2711D
:1015400011DB00EB610101FB02F0002891FBF2F1DD
:101550000B4414DB184610BC704704EBD47003EB4B
:10156000600010BC7047A0EB610000FB02F1002995
:1015700090FBF2F01844EEDB013010BC7047581EAF
:1015800010BC704710B5074C20460AF0DDFA064B38
:10159000204619680AF02CFB03210448BDE81040DE
:1015A0000AF032B8E089FF1FFC94FF1F3C1B0100CA
:1015B00038B5044608460D460CF022FF2368024663
:1015C00029465B6820469847054620460AF0BCFA43
:1015D000284438BD2DE9F8434848494E494F4A4C04
:1015E00006F040FA494B4A494A4A4B48596011258E
:1015F0001D704A4D4A49DA601E6100224FF4FA76A6
:101600009F619C62474F484C1D63484DD861D96229
:101610004FF07C5046499A639E863C220C26DF633D
:101620001C64444F444C5D65444DD86419650220E8
:101630000121A3F8A8209E65002264265F62C3F8FA
:10164000C8404FF4967732241D625D615D6440F6B8
:101650001C45587058721972D96583F848201E6667
:10166000DF665F669C664FF00A091D6741F2040859
:10167000C3F88020C3F88400C3F8D410C3F88820CE
:10168000C3F89040C3F8B0404FF05A0CC3F8AC20F8
:10169000C3F8B810C3F8BC004FF47A7EC3F8C0603A
:1016A000274F83F8CC1083F8CD10264E83F8CE2038
:1016B00041F28831A3F8D02044F6206540F2D6628A
:1016C000FF240520C3F87490C3F87880C3F87CC069
:1016D000C3F894E0C3F89870C3F89C60C3F8A450B2
:1016E000C3F8B440A3F8C600C3F88C10A3F8C41024
:1016F000A3F8A020A3F8A220BDE8F883401B0100B6
:101700000000404033338340CDCCCC3D2CD0FF1F74
:1017100020A1070066668640CDCC4C40000020C169
:1017200000008242000020420000A0400AD7233D72
:101730009A997940333373409A99993ECDCC4C3E77
:101740000000684200C0204470B5464C464D4748F2
:10175000E66800232B70FFF73BFB014630460BF099
:1017600061FE08B104232B704048FFF70BFB216991
:101770000BF058FE18B12B7843F010032B703B4848
:10178000FFF7D8FBE16A0BF06BFE18B12B7843F042
:1017900040032B70002335486B70FFF7CDFB216BA6
:1017A000314E0BF03FFE08B10123737000232F4828
:1017B000EB70FFF70DFB05462C482B4EFFF7E2FAC6
:1017C000014628460BF086FB616C0BF049FE08B120
:1017D0000123F370264D254800232B70FFF7F8FAFC
:1017E000A16A0646E0680BF075FB014630460BF037
:1017F00037FE08B104232B701C48FFF7C3FAA16A17
:10180000064620690BF068FB014630460BF00AFEE5
:1018100018B12B7843F010032B701448FFF78AFBA4
:10182000216C0646E06A0BF055FB014630460BF092
:1018300017FE18B12B7843F040032B7000230B48A0
:101840006B70FFF779FB216C0546206B084C0BF0A1
:1018500043FB014628460BF0E5FD08B10123637008
:1018600070BD00BF2CD0FF1F10D0FF1F0896FF1FB8
:101870006494FF1F544B1B68002B74D0F0B5534D7C
:101880002B680533B3F57A7F83B040F3858000235E
:1018900000272B604E4CD4F8B0000BF0D1FB06466D
:1018A000D4F8B4000BF0CCFB31460BF013FB3946F7
:1018B0000BF01AFC47490BF0CBFC31460BF00CFB4C
:1018C0000BF0D8FD0146062007F02AFE022142480F
:1018D00009F09AFE41480AF037F90621404809F01C
:1018E00093FE28680BF0ACFB3E490BF0FDFB0AF0C1
:1018F00051FF022602460B46009638480AF080F94E
:101900000D21394809F080FED4F8B0000BF098FBA7
:10191000074628680BF094FB32490BF0E5FB0546BF
:10192000D4F8B4000BF08CFB39460BF0D3FA014627
:1019300028460BF0D9FB27490BF08AFC39460BF0FF
:10194000CBFA0AF027FF009602460B4623480AF01E
:1019500057F93146204809F057FE204803B0BDE84A
:10196000F0400AF0F1B81A4B2048D3F8B020D3F871
:10197000B4100368891A002903FB01F31C4914DB26
:10198000323381FB0310D917C1EB6011002B1144D6
:1019900016DB062007F0C4BD18462B600BF050FB89
:1019A00010490BF0A1FB074674E7323B81FB0310A3
:1019B000D917C1EB6011002B0A4403DB511CE8E787
:1019C0000139E6E71146E4E78894FF1F04D1FF1FC1
:1019D0002CD0FF1F0000C8428C1E0100E089FF1FB1
:1019E000601B0100CDCCCC3D681B01001088FF1F9F
:1019F0001F85EB5170B5B648B64C84B00AF0A4F818
:101A0000B3480AF0A1F8B2480AF09EF80D21B24896
:101A100009F0FAFDD4F8AC30012B11D0AF4DAC4831
:101A2000297800230A220AF0A3F82B78052B6ED818
:101A3000DFE813F0920197019C01A101A601AB011F
:101A40000921A74809F0E0FDA648FFF79BF92169A5
:101A50000BF0E8FC18B10F21A34809F0D5FDA1480F
:101A6000FFF7B6F9E1680BF0FBFC18B10E219F48B7
:101A700009F0CAFD9B48FFF7ABF905469948FFF707
:101A800081F9014628460BF025FA616C0BF0E8FC61
:101A900018B11121964809F0B7FD9248FFF7E6F911
:101AA000E16A0BF0DDFC18B10C21924809F0ACFDA5
:101AB0008C48FFF7DBF9216B0BF0B4FC18B10D215A
:101AC0008D4809F0A1FD8D4B86481B68012B00F065
:101AD0009681FFF757F921697E4D0BF0C1FC002874
:101AE00000F038817F48FFF773F9E9687B4D0BF010
:101AF00099FC60B12B78052B00F097818048092173
:101B000009F082FD7F4B724819680AF071F80221D2
:101B10007D4809F079FD122007F088FE012800F0C9
:101B20003981112007F082FE012800F03D81774BBA
:101B30001C68012C00F0418102217348744C09F0AB
:101B400063FD744B624819680AF052F8604809F066
:101B5000FBFF0421704809F057FD0B2007F066FEDB
:101B6000002301460A225A480AF002F80C2007F026
:101B70005DFE002301460A22554809F0F9FF1420B2
:101B800007F054FE002301460A22514809F0F0FFF5
:101B9000152007F04BFE0A22002301464C4809F0AD
:101BA000E7FF06215D4809F02FFD2368DE074FF0AF
:101BB00001014CBF5A485B4809F026FD236898078D
:101BC0004FF001014CBF5648564809F01DFD2368EF
:101BD0005A074FF001014CBF5148524809F014FD1B
:101BE00023681B074CBF4E484E48012109F00CFDED
:101BF00004214D4809F008FD112007F017FE0023CD
:101C000001460A22324809F0B3FF102007F00EFE09
:101C1000002301460A222E4809F0AAFF122007F0ED
:101C200005FE002301460A22294809F0A1FF1320DE
:101C300007F0FCFD0A2200230146254809F098FF21
:101C400018213A4809F0E0FC394B18680BF0F8F914
:101C500038490BF049FA0AF09DFD002402460B4674
:101C600000941B4809F0CCFF1D21334809F0CCFC3F
:101C7000324B18680BF0E4F92E490BF035FA0AF0F4
:101C800089FD00940B460246114809F0B9FF022174
:101C90002B4809F0B9FC2B78032B02D0294B1B7879
:101CA000A3B11421284809F0AFFC284B188880B252
:101CB0000BF0C6F926490BF017FA0AF06BFD002469
:101CC00002460B460094024809F09AFF04B070BD2A
:101CD000E089FF1F2CD0FF1F781B01001CD0FF1FC5
:101CE000881B01000896FF1F941B0100A41B010024
:101CF000B41B0100C81B0100D81B01009894FF1FF2
:101D0000181C01009094FF1F8C1E010024D1FF1F9E
:101D10008CD1FF1F6894FF1F901C0100981C0100CC
:101D2000A01C01000C2E0100A41C0100AC1C010031
:101D30008494FF1FCDCCCC3DC81C010080D1FF1F77
:101D4000E81C010074CFFF1FEC1C010088D1FF1FAD
:101D50006F12833A364DDAE60621364809F054FC14
:101D6000D5E60721344809F04FFCD0E60721334877
:101D700009F04AFCCBE60821314809F045FCC6E6EB
:101D80000B21304809F040FCC1E607212E4809F03C
:101D90003BFCBCE60E212D4809F036FC112007F073
:101DA00045FD01287FF4C3AE0A21294809F02CFC27
:101DB000284B1C68012C7FF4BFAE1121264809F086
:101DC00023FC2146254809F01FFC254B254A1B68AA
:101DD0000393039B1068C01A0BF02EF922490BF0F5
:101DE00083F90AF0D7FC002602460B4600961F48EE
:101DF00009F006FF2146194809F006FC9CE6FEF7AB
:101E0000C1FF616A0BF02CFB48B116211848084D40
:101E100009F0FAFB0A21174809F0F6FB77E60821DA
:101E20001548034D09F0F0FB71E60A21114867E6F9
:101E30001CD0FF1F241C01002C1C0100401C0100B1
:101E4000481C0100341C0100541C01005C1C0100F2
:101E50006C1C010024D1FF1F781C01008C1C0100A8
:101E600060D3FF1F58D1FF1F6F12833AE089FF1F15
:101E7000E81B0100001C01000C1C01002DE9F04FC3
:101E8000954CD4F88430012B8DB000F04981032BA0
:101E9000924F53D0924E934DD4F880309248012BFC
:101EA00009BF2968296801F10041296006F066FF31
:101EB0003368002B40F0C7808B4806F035FFD4F81C
:101EC00084303860012B0646834A00F0C980874978
:101ED0000BF0C6FA78B9864930460BF0A3FA50B930
:101EE000844A854B12680B920B9A1A6000232B6070
:101EF0000DB0BDE8F08FDFF8FC817F4CD8F80030E2
:101F00000A930A9823687D4FC01A0BF095F8314662
:101F10000BF0EAF87A490BF09BF979490BF098F944
:101F200039680AF0D9FFD8F800300993099B23607B
:101F3000002338602B600DB0BDE8F08FDFF8D8814A
:101F4000704DD8F80000664E012300220F212B604F
:101F500006F09EFB2B68012B336800F00781002BF5
:101F600040F08B81D8F80030DFF8B091D3F88400CE
:101F7000436B19698DB2C9F8005006F00FFCB4F834
:101F8000A22040F6E44303FB05F1B1FBF0F0801A18
:101F900000B20BF055F85C49524D8246D4F89800D7
:101FA0000BF0A2F8014650460BF052F9D9F8003078
:101FB0002860632BDFF864A100F3528100232B60BB
:101FC0003368002B3FF468AF0221504809F01CFB36
:101FD000D8F80030D9F80020D3F8840040F6E44364
:101FE00003FB02F806F0DAFBB8FBF0F00BF024F884
:101FF0008046B4F8A2000BF023F8014640460AF0F0
:1020000069FF0AF0C7FB4FF0020802460B46CDF805
:1020100000803F4809F0F4FD41463C4809F0F4FADD
:1020200028680AF0B7FBCDF8008002460B46384816
:1020300009F0E6FD4146374809F0E6FA41463348E3
:1020400009F0E2FA28E7284806F06EFE0AF0A2FB43
:10205000022602460B4600962D4809F0D1FD2BE7DB
:10206000284B1B68012B00F04181022B7FF43EAF0F
:10207000D2F8A44020460AF0E3FF014630460BF0B8
:10208000EFF948B960420AF0DBFF014630460BF039
:10209000C9F9002800F05981DFF85880164CD8F8AB
:1020A0000030079307982368144FC01A0AF0C4FF42
:1020B00031460BF019F812490BF0CAF810490BF031
:1020C000C7F839680AF008FFD8F800300693069B75
:1020D000386023600AE700BF2CD0FF1F14D0FF1F19
:1020E00004D0FF1F7CD1FF1F2CD1FF1F0000FA433B
:1020F0000000FAC360D3FF1F0CD0FF1F64D1FF1F85
:1021000000007A442888FF1F17B7D1388C1E0100C1
:10211000E089FF1F401D01009CD1FF1FA4D1FF1FBC
:10212000AC4FD4F8A4603D6830460AF089FF2946D8
:102130000BF096F948B170420AF082FF014628463A
:102140000BF08EF900287FF4F9AEDFF8C882A24DBB
:10215000D8F80000A14E022300220E212B6006F0C9
:1021600097FA2B68012B33687FF4F9AE002B40F00F
:10217000F380D8F80030DFF8AC92D3F88400436BDA
:1021800019691FFA81FBC9F800B006F007FBB4F823
:10219000A030934D40F6E44A0AFB0BFBBBFBF0F08A
:1021A000C01A00B20AF04CFF8E498346D4F89C0056
:1021B0000AF09AFF014658460BF04AF8D8F800207A
:1021C000D9F800302860D2F884000AFB03FA06F040
:1021D000E5FAB4F8A030BAFBF0F00FFA80FAC3EBDE
:1021E0000A03002BB4F8C620B8BF5B429342BCBFC1
:1021F00000232B603368002B3FF44EAE02217A4857
:1022000009F002FAD8F80030D9F80020D3F8840099
:1022100040F6E44303FB02F806F0C0FAB4F8A0105D
:10222000B8FBF0F000B2411A704809F0E1FC02215D
:102230006D4809F0E9F928680AF0ACFA4FF0020895
:1022400002460B46CDF80080684809F0D9FC03210E
:10225000674809F0D9F94146634809F0D5F91BE60A
:10226000D8F80030D3F8840006F098FADAF8003095
:1022700064389842FFF4A2AEA2E65C48DFF8A4916D
:10228000DFF890A109F060FC0C215A4809F0BCF974
:102290000C21594809F0B8F9D8F800203368D2F871
:1022A0008400426B11698DB2C9F80050002B3FF4D5
:1022B00064AE06F073FA40F6E44100230A2201FB03
:1022C00005F1B1FBF0F1494809F052FC0221464802
:1022D00009F09AF9B4F8A210444809F089FCDAF838
:1022E0000030D9F80050D3F8840046E643490BF09B
:1022F000B7F858B9424930460BF094F830B9414A22
:10230000414B12680592059A1A60EFE5DFF8F480F8
:102310003D4CD8F800300493049823683B4FC01A12
:102320000AF08AFE31460AF0DFFE39490AF090FFD2
:1023300037490AF08DFF39680AF0CEFDD8F8003031
:102340000393039B38602360D0E52E4A2E4B12681E
:102350000892089A1A60C9E52448DFF8C8902D4D04
:1023600009F0F2FBD4F88430012B4FF00B010CBFC5
:1023700029482A4809F048F90C211F4809F044F976
:10238000D8F800203368D2F88400426B11691FFA34
:1023900081FBC9F800B0002B3FF4F7AE06F0FEF960
:1023A00040F6E44100230A2201FB0BF1B1FBF0F1FE
:1023B0000E4809F0DDFB0121194809F025F9B4F8B0
:1023C000A0100A4809F014FC2B68D9F800B0D3F823
:1023D0008400DAE614D0FF1F2888FF1F04D0FF1FF7
:1023E0007CD1FF1F17B7D1388C1E0100E089FF1F79
:1023F0002C1D0100301D01001C1D01000000FA43CE
:102400000000FAC360D3FF1F0CD0FF1F64D1FF1F71
:1024100000007A449CD1FF1F041D0100101D010023
:10242000A81F0100A4D1FF1F2DE9F04F914C236894
:1024300085B0002B7BD0904DDFF848828F4FDFF8BE
:102440008892D5F888308C4E012B00F08B80346E4A
:10245000D7F800A0F66D04FB06F44FF47A7000FB89
:1024600004F00AF0EDFD8649864E044650460AF017
:102470003BFE21460AF0ECFE83490AF035FE0AF0E5
:10248000F9FF6328C8F800004CDD20467C490AF0BB
:10249000DFFE642338603360D9F80030002B3ED073
:1024A000D5F88430744C012B00F08280032B00F0AF
:1024B000D580022B00F0D9800221744809F0A4F8DD
:1024C000734B18680AF066F9022402460B46009422
:1024D000704809F095FB21466F4809F095F82146B0
:1024E0006A4809F091F8D8F800106A4809F080FBB2
:1024F00006216A4809F088F8386861490AF0F4FD55
:102500000AF048F9009402460B46624809F078FB4D
:102510000321634809F078F85E4809F015FB05B01F
:10252000BDE8F08F0028BCBF00233360B4E75D4EE8
:10253000514D33680293029A42F228339A4244D8AA
:1025400033680393039A42F210739A4246D8D5F83F
:102550008830DFF83081494FDFF86C91464E012B0F
:102560007FF475AF5048FEF7E9FC5049D6F878A0E3
:10257000346FD6F874B00AF0B7FD0AF0A1FFF36F1C
:102580000093524621465B4680B2FEF7CDFF346E83
:10259000F66D04FB00F006FB00F000EB800040004D
:1025A0000AF04EFD36490AF053FE8246386052E783
:1025B0003F4B1B68012B4FF00A010CBF3D483E48C2
:1025C00009F022F8D4F8843070E73748B5F9D030F4
:1025D000EA6C95F84810FEF725FCB1E73248DFF8C1
:1025E000A480FEF7ABFC3149D5F87490AF6F2E6F25
:1025F0000AF07AFD0AF064FFEB6F00933A464B460F
:10260000314680B2FEF790FF2A6EEB6DC8F80000ED
:1026100002FB00F003FB00F000EB800040000AF03A
:102620000FFDDFF8A4901649144F0AF011FED9F8F7
:102630000030386001222260002B3FF402AF0221FB
:10264000124808F0E1FF134809F07EFA59211B48AF
:1026500008F0DAFF0F4809F077FAF2E6102118487F
:1026600008F0D2FFD5F8843023E70721154808F099
:10267000CBFF21E718D1FF1F2CD0FF1F64D1FF1F14
:10268000E4388E3E1088FF1F0000C8428C1E0100F7
:1026900014D0FF1FE089FF1F401D0100D41D010061
:1026A000DC1D010060D3FF1F0896FF1F00007A4465
:1026B0002888FF1FA01D0100AC1D0100441D010062
:1026C000B81D0100CC1D01000088FF1F30B511208E
:1026D00083B007F0ABF8012818D0122007F0A6F855
:1026E000012813D000210B2007F09AF800210C20BC
:1026F00007F096F80021152007F092F82649274B9D
:102700000120002208701A6003B030BD012115209D
:1027100007F086F8224A234C234B1268D4F88C1019
:1027200001921B68019A1D4D0B4493424FF0020128
:10273000296005D901210C2007F072F803B030BDE3
:10274000D4F894000AF07CFC184B19680AF06AFE71
:102750000028EFD101210B2007F062F894F8CC306B
:1027600003242C6043B10C4B02221A7000210C2070
:1027700007F056F803B030BD122007F057F80128D3
:1027800008BF054B4FF0110008BF1C7007F04EF852
:102790000128EBD1E7E700BF1CD0FF1F0495FF1F06
:1027A00060D3FF1F2CD0FF1F70CFFF1F14D0FF1F5F
:1027B000F0B5684E684D34682B689C4287B039D0BC
:1027C00014F0010155D014F0020149D014F00401B5
:1027D0003DD0E3070ED52B68DF070BD45F4F3A6877
:1027E000002A00F082805E4B1B680193019B93429C
:1027F0006DD83468A0070DD52B6899070AD4594FB6
:102800003A68002A4CD0564B1B680393039B9342B3
:1028100038D8346862070DD52B685B070BD4524F4C
:102820003A68002A7ED04E4B1B680593059B934265
:1028300068D834680CB107B0F0BD2146162006F008
:102840006FFE2146172006F06BFE07B0F0BD052095
:1028500006F066FE2B68346803F0FB032B60B8E7D4
:10286000172006F05DFE2B68346803F0FD032B6033
:10287000ACE7162006F054FE2B68346803F0FE0324
:102880002B60A0E7394B1720D3F8901006F048FED4
:102890002B68346843F0020300222B603A60B9E7EA
:1028A000334809F051F90C21324808F0ADFE3048A8
:1028B00009F04AF9FF21172006F032FE284B2E4A74
:1028C00019680291029912680A443A609CE7274B02
:1028D0001620D3F8901006F023FE2B68346843F0DE
:1028E000010300222B603A6084E7FF21162006F0E6
:1028F00017FE1B4B204A19680091009912680A4480
:102900003A6071E7194B0520D3F8901006F008FEE5
:102910002B68346843F0040300222B603A60002CDB
:1029200089D18AE7124809F00FF90C21134808F001
:102930006BFE0F4809F008F9FF21052006F0F0FDB5
:10294000074B0D4A19680491049912680A443A60C9
:102950006AE700BF0495FF1F8CD1FF1F08D1FF1F3E
:1029600060D3FF1F1CD1FF1F20D1FF1F2CD0FF1FE2
:10297000E089FF1FE01D01001888FF1FF01D010006
:102980002DE9F047534EDFF870813368DFF86C9122
:10299000D3F88400504D0F2106F07EF90023012268
:1029A00022214E48C8F80030C9F8002008F02CFE5B
:1029B000D8F80030132B20DC40F6E4473368B5F834
:1029C000A0A0D3F88400436B1C6905F0E7FEA4B215
:1029D000012107FB04F4B4FBF0F441485444A5F88A
:1029E000A04008F011FE642006F056FFD8F8003031
:1029F0000133132BC8F80030E0DDB5F8A030394AB8
:102A00003948A2FB03129B1A02EB5303C3F30F13C3
:102A10001946A5F8A03009F0EBF81D21334808F05D
:102A2000F3FD0221324808F0EFFD2F4809F08CF841
:102A300000231A460E213068C8F8003005F028FE41
:102A4000022322212548C9F8003008F0DDFDD8F81E
:102A50000030132B20DC40F6E4473368B5F8A29031
:102A6000D3F88400436B1C6905F098FEA4B20121E1
:102A700007FB04F4B4FBF0F419484C44A5F8A24059
:102A800008F0C2FD642006F007FFD8F800300133DB
:102A9000132BC8F80030E0DDB5F8A230114A124817
:102AA000A2FB03129B1A02EB5303C3F30F13194645
:102AB000A5F8A23009F09CF81D210E4808F0A4FDED
:102AC00002210B4808F0A0FD0748BDE8F04709F0D7
:102AD0003BB800BF9CD1FF1F2CD0FF1F001E010080
:102AE000441E010087611886E089FF1F241E010033
:102AF0008C1E0100481E01007094FF1F2888FF1FD4
:102B00002DE9F04FC54DD5F8BC309A1F012A85B08C
:102B100040F2AF81C24BC34C1B68A86D40F25131EB
:102B200008222160E271002B00F09E810AF088FAF1
:102B3000696A06460AF0D8FABB49B84F0AF0D4FAD7
:102B40000AF0BEFC80B203126372B84AB84B126836
:102B50001B68E9692072A37230461B121612E372D9
:102B6000227366730AF0C0FAAF49AE4E0AF0BCFA9F
:102B70000AF0A6FC83B21A123146AE48A373E27380
:102B800005F0DEFBAC4AAD4B12681988A172D3B2D6
:102B9000237203EB83035B00237302EB820343F393
:102BA000D7134FEA212E12124FF008084FF00009F8
:102BB000314663739F4884F80BE040F255336272EC
:102BC000236084F8078084F80E9084F80F9005F055
:102BD000B7FB40F256339A48236084F80780FEF72B
:102BE0001BF998490AF080FA0AF06AFC20729448AE
:102BF000FEF712F993490AF077FA0AF061FC924A5B
:102C00009049C0F30723106863720AF021FB0AF0B1
:102C100031FC40FA08F3A0728948E372FEF726F906
:102C200081490AF061FA0AF025FC20738448FEF716
:102C30001DF97D490AF058FA0AF01CFC40F3072000
:102C4000314660737B4884F80E9084F80F9005F04D
:102C500077FB022006F020FE7C4A7D4B1178217222
:102C6000517890786172D178A0721A789878E17270
:102C7000597822736173DA78A07340F25A3331467F
:102C80006C48E273236084F8078005F059FB714BB0
:102C900068481A7822725A7862729A78A272DA7840
:102CA000E2721A7922735A7962739A79DB79E37343
:102CB000314640F25E33A273236084F8078005F04A
:102CC0003FFB022006F0E8FD634B5A481A78227257
:102CD0005A7862729A78A272DA78E2721A7922735A
:102CE0005A7962739A79DB79E37331464FF45C73F6
:102CF000236084F80780A27305F022FB574B1B6802
:102D0000012B00F08982022006F0C6FD082640F261
:102D100073334B482360E671FEF734F850490AF0EC
:102D2000E3F90AF0CDFB20724548FEF72BF84C4939
:102D30000AF0DAF90AF0C4FBC0F3072340486372D3
:102D4000FEF746F846490AF0CFF90AF0B9FBA0723F
:102D50003B48FEF73DF842490AF0C6F90AF0B0FBDD
:102D6000C0F307233648E372FEF7E6F83D490AF060
:102D7000B3F80AF0A5FB20733148FEF7DDF83949B6
:102D80000AF0AAF80AF09CFBC0F307232C486373EF
:102D9000FEF7D0F833490AF09FF80AF091FBA073D0
:102DA0002748FEF7C7F82F490AF096F80AF088FB83
:102DB0001C49C0F307231F48E37305F0C1FA022042
:102DC00006F06AFDE96D2B6E022211FB03F310463B
:102DD00040F27931C3F30725E271216023726572F5
:102DE00006F05AFD40F2723315482360E671FDF794
:102DF00091FE20721248FDF78DFE002340FA06F284
:102E000008490C486272A372E37223736373A3735D
:102E1000E37305B0BDE8F04F05F092BA2CD0FF1F68
:102E20009894FF1F7494FF1F0000204180D1FF1F62
:102E30008494FF1FB8D1FF1F1088FF1F1688FF1F43
:102E40000896FF1F0000C84214D0FF1F10D0FF1FBC
:102E50006494FF1F3C88FF1F4488FF1F24D1FF1F7D
:102E600000007A44339388430AF0EAF8A9690646D9
:102E700060E6072BD54C00F01182D54B0093DFF8AC
:102E800080A3D44BDFF87C83DFF87C93D24F01938F
:102E9000DFF838B3D14859234FF4C36E00264222DD
:102EA0005946C4F800E0A3724FF0080E02934FF0A9
:102EB000440384F807E062720392E3722672267379
:102EC0006673A673E67305F03BFA022006F0E4FC95
:102ED0004FF00803E371029B039AA3724FF4BB6E99
:102EE0004FF044035946BD486272E372C4F800E0F3
:102EF000267226736673A673E67305F021FA022024
:102F000006F0CAFCEA6D296EA86DA6724FF00803A0
:102F1000E37102FB01F311FB02F103EBC30203EBCC
:102F2000820300FB03F301EBC10201EB82011B12E0
:102F300011FB00F24FF4AB6E0320237312235946AA
:102F40006273C4F800E007224FF0050E207263722E
:102F50000293A24884F80EE04FF00403E372E27398
:102F600005F0EEF9022006F097FC029BA3724FF0E9
:102F7000080034224F234FF4B36E5946E071267295
:102F80006672267366739548E2724FF00406E37327
:102F9000C4F800E0A67305F0D3F9022006F07CFC2B
:102FA0004FF00802DAF80030E2714FF456722260F6
:102FB000002B40F06B818A4B986D0AF041F8884BEA
:102FC000996906460AF090F886490AF08DF80AF0E9
:102FD00077FA80B203128BF80830E9698BF80900A0
:102FE00030460AF081F87F490AF07EF80AF068FA64
:102FF000D8F80020D9F800307449637380B21512F4
:103000001B120612E07275482373E273A672A57351
:1030100005F096F9022006F03FFC009B3E681D88F3
:10302000714B72491868E57206EB8603642202FB55
:1030300006F203EB83039B0012122E124FF47677F5
:10304000082563722272A6722760E5710AF04CF8B7
:103050000AF036FA83B243FA05F70026F9225B49F3
:103060005E486373A2732773E67305F069F9022063
:1030700006F012FC4FF48B604FF0120E56227823AC
:10308000524920603427554884F80AE0A273E3735C
:10309000E5712672667226736673E77205F050F961
:1030A000022006F0F9FB4FF4A36351482360E57159
:1030B000FDF740FF4B490AF017F80AF001FAC0F398
:1030C00007234B482372FDF735FF46490AF00CF8F9
:1030D0000AF0F6F960724648FDF72EFF41490AF002
:1030E00003F80AF0EDF9C0F307234148A372FDF796
:1030F00023FF3C4909F0F8FF0AF0E2F9FF233349C6
:10310000E072364823736373A373E37305F018F911
:10311000022006F0C1FB4FF49B6335482360E57144
:10312000FDF77AFE2F4909F0DFFF0AF0C9F9C0F375
:1031300007232F482372FDF76FFE2A4909F0D4FFB9
:103140000AF0BEF9019B2B49607218680AF080F8FA
:103150000AF090F940FA05F203462548A272E3729C
:10316000FDF784FE1F4909F0BFFF0AF083F940F321
:1031700007231F482373FDF779FE1A4909F0B4FFAE
:103180000AF078F90323114960731448A373E573B7
:1031900005F0D6F8022006F07FFB174A174B51784E
:1031A000907892F800C092F803E01F785E78DA78A1
:1031B000E5719D7861724FF4AC73A07284F808C019
:1031C0000249064884F80BE020E000BF7494FF1F1A
:1031D0001688FF1F14D0FF1F1088FF1FB8D1FF1FD4
:1031E0002CD0FF1F0000204164D1FF1F620B363B33
:1031F0000896FF1F0000C84210D0FF1F6494FF1FF5
:103200009894FF1F8494FF1F80D1FF1F277366735C
:10321000A573E2732360FCE59E48FDF7B3FD796D6D
:1032200009F05AFE81469B48FDF7D2FD014648460B
:103230000AF0F8F800283FF466AD40F2C333954831
:1032400086F807803360FDF79DFD3F6D39460AF033
:10325000E9F8002800F008818F49384609F044FF5A
:103260000AF02EF980B240FA08F37072337200232C
:1032700001270426032289498948A772E67222732E
:103280006373A373E37305F05BF83CE5854B986DBE
:1032900009F0D6FE834B0646596A93E640F259314F
:1032A000012650234E22216026732146082663738F
:1032B0007B48DFF810A2A273002323726372A3720B
:1032C000E372E373E67105F03BF8022006F0E4FADE
:1032D000DAF80030E67140F251322260A86D002B1E
:1032E00040F0B38009F0ACFEA96909F0FDFE6E491B
:1032F00009F0FAFE0AF0E4F880B240FA06F3207210
:103300006372DFF8C481DFF8C491D8F80030D9F8CF
:103310000020664E614900964FEA222E0026A372D5
:103320005F4822731B12E37284F80DE0604FA673AE
:10333000E67305F005F8022006F0AEFA009A3B6845
:10334000128823721B124FEA222E544963724FF0E7
:10335000080B40F25533524884F80BE0A272236008
:1033600084F807B026736673A673E67304F0E8FF6B
:10337000022006F091FA40F25633464884F807B02E
:103380002360FDF749FD4B4B4B49019309F0ACFE1F
:103390000AF096F820723F48FDF73EFD464909F0D5
:1033A000A3FE0AF08DF8019A4349C0F30723106881
:1033B000637209F04DFF0AF05DF840FA0BF2034624
:1033C0003448E272A372FDF751FD374909F08CFED3
:1033D0000AF050F820732F48FDF748FD324909F0F4
:1033E00083FE0AF047F82D49A67340F307232C48C3
:1033F0006373E67304F0A4FF022006F04DFA4FF069
:10340000020B4FF45772C0232449254822602372CF
:10341000667284F807B004F093FF584606F03CFA51
:1034200040F25E30254B264A20601C491C486372DE
:1034300084F807B0227204F083FFD5F8BC30062B65
:103440003FF426AD05B0BDE8F08F09F0F9FD696ADB
:1034500009F04AFE144909F047FE0AF031F880B23B
:103460000312207263724CE70A48FDF78BFC0A498D
:1034700009F03AFE0AF024F8C0F307230548337236
:10348000FDF780FC044909F02FFE0AF019F870726C
:10349000EDE600BF0896FF1F00007A447494FF1FFA
:1034A000B8D1FF1F2CD0FF1F000020411688FF1F3E
:1034B0001088FF1F14D0FF1F0000C8426C1E0100BF
:1034C000681E01009894FF1F8494FF1F80D1FF1F86
:1034D00010B5144C144A2368101D12F8011F9042B5
:1034E00041EA0323F9D1114A236003F10043136039
:1034F0000F4BD3F88430022B0CD00E4B1B68012BE2
:1035000000D010BD0C4B1B68012BFAD1BDE8104058
:10351000FEF738B81068094C09F092FD2060FEF7FC
:10352000ADFCEAE784D1FF1F67CFFF1FFC94FF1FAC
:103530002CD0FF1F98D1FF1F0088FF1F7CD1FF1FD9
:1035400070B5224A224C507A937A2168D27A214E61
:10355000214D43EA002342EA032301291846336040
:103560002B6019D01D4BD3F88430A0F50000022B3E
:10357000286024D02368012B00D070BD184B1B6835
:10358000012BFAD12968174808F032FB03211648AD
:10359000BDE8704008F038B8114B1B68012BE1D131
:1035A000104808F0D1FA0023102229680D4808F0CD
:1035B000DFFA03210D4808F027F82868D2E709F060
:1035C0003FFD0B4B1860FEF759FCD3E760CFFF1FA0
:1035D00098D1FF1F84D1FF1FFC94FF1F2CD0FF1F29
:1035E0000088FF1FE089FF1F3C1B01007C1E0100BB
:1035F0007CD1FF1F9A4B1B78052B00F09B802DE997
:10360000F04F984C984E994DE26E636E9848326038
:1036100083B02B60FDF790FC216B09F003FF08B12C
:1036200000232B609248FDF785FCE16A09F018FF42
:1036300010B1002333602B608D48FDF7C9FBE168B2
:1036400009F00EFF08B100232B608948FDF7C0FB8D
:10365000E16809F005FF08B100232B608448814F21
:10366000FDF790FB216909F0DDFE002868D00023FA
:1036700033602B687D4F002B4DDD7D48DFF8E48102
:10368000FDF75AFCA16B09F0CDFE002840F0B48094
:10369000784B77481B68734F012B00F0ED80FDF7E6
:1036A00097FB216A8046A06909F014FC0146404658
:1036B00009F0D6FE00282ED0286809F0C1FC81460A
:1036C0006B48FDF785FBBC69396A8246204609F0E4
:1036D00001FCBB6E8046786EC01A09F0B1FC414611
:1036E0000746504609F0F6FB0146384609F0FCFC57
:1036F00041460746204609F0EDFB0146384609F0F1
:10370000A7FD002109F0E8FB0146484609F0E2FB6D
:1037100009F0B0FE28603368534A002BAFBF2B6816
:103720002B6800211160002B01DA00232B6003B00D
:10373000BDE8F08F4C494D4A00230B601360704781
:103740004B48FDF71FFBF96909F06CFE00288ED18C
:103750003368DFF81491002B8BDD4548FDF7EAFB59
:10376000F96B09F07DFE002840F0CA804048DFF880
:10377000F480FDF707FBD4F8C8100746E06909F0AC
:10378000ABFB0146384609F04DFE00283FF471AF0F
:10379000306809F055FC82463548FDF7F3FA834658
:1037A000D8F86C00D8F81C7009F04AFC39468146FC
:1037B000584609F08FFB49468346002009F08AFBF2
:1037C0000146584609F090FCD8F8C81083463846A0
:1037D00009F082FB394609F07DFB0146584609F0A5
:1037E00037FD494609F078FB0146504609F072FB67
:1037F00009F040FE30603CE7386809F021FC834660
:103800001B48FDF799FB0190D8F86400D8F830A068
:1038100009F016FC019B81465146184609F05AFBF7
:1038200049460190002009F055FB019B01461846CE
:1038300009F05AFC51460190D8F8380009F04AFBCB
:10384000019B0146184609F003FD494609F044FB77
:103850000146584609F03EFB09F00CFE386017E7B8
:103860001CD0FF1F2CD0FF1F80D1FF1F8494FF1F8F
:103870000896FF1F9894FF1FFDF7AAFA216A804659
:10388000606A09F027FB0146404609F0E9FD00287F
:103890003FF441AF286809F0D3FB82462F48FDF77B
:1038A00097FAD7F82480396A8346404609F012FB1C
:1038B0008146B86E09F0C4FB0446786E09F0C0FB7F
:1038C000214609F007FB49460746584609F002FB26
:1038D0000146384609F008FC49460746404609F0CB
:1038E000F9FA0146384609F0B3FC214609F0F4FA2A
:1038F0000146504609F0EEFA09F0BCFD28600AE7DF
:10390000D9F8000009F09CFB82461448FDF712FB31
:103910000190F86ED7F83C8009F092FB019B83463A
:103920004146184609F0D6FA0146584609F0DCFB34
:1039300041468346F86A09F0CDFA0146584609F037
:1039400087FC002109F0C8FA0146504609F0C2FA86
:1039500009F090FDC9F8000008E700BF0896FF1FB6
:1039600008B5274808F0F0F80721264807F04CFE74
:10397000112005F05BFF0621F8B1234807F044FE53
:10398000102005F053FF062100B3204807F03CFE4D
:10399000122005F04BFF062108B31D4807F034FE46
:1039A000132005F043FF062110BB1A4807F02CFE38
:1039B0001348BDE8084008F0C7B8174807F024FED0
:1039C000102005F033FF06210028DED1134807F050
:1039D0001BFE122005F02AFF06210028DDD1104829
:1039E00007F012FE132005F021FF06210028DCD08D
:1039F0000C4807F009FE0248BDE8084008F0A4B8EA
:103A0000E089FF1F801E0100881E0100981E010032
:103A1000A81E0100C01E0100901E0100A01E010092
:103A2000B01E0100B81E010010B5254C2368042B00
:103A300027DC01210B2005F0F3FE01210C2005F00D
:103A4000EFFE0121142005F0EBFE0121152005F009
:103A5000E7FEFF21162005F063FDFF21172005F08A
:103A60005FFDFF21052005F05BFDFF21062005F02D
:103A700057FD236801330A2B2360C4BF0023236052
:103A800010BD00210B2005F0CBFE00210C2005F01D
:103A9000C7FE0021142005F0C3FE0021152005F00B
:103AA000BFFE0021162005F03BFD0021172005F088
:103AB00037FD0021052005F033FD0021D6E700BFCA
:103AC00068D1FF1F30B5092183B0B74806F006FA68
:103AD000222006F091F9B54BD3F8AC30012BB44B52
:103AE0001B7809D0052B10D8DFE813F03F01440103
:103AF0004E01530149010B00002B00F04F81052BB3
:103B000003D10721AB4806F0E9F9222006F074F949
:103B1000FF2006F071F9FF2006F06EF9A64CFF2099
:103B200006F06AF90821A54806F0D8F92168A448EA
:103B300008F05EF8FF2006F05FF9FF2006F05CF960
:103B4000FF2006F059F909219E4806F0C7F92168BF
:103B50009B4808F04DF8FF2006F04EF9FF2006F0D4
:103B60004BF9FF2006F048F90C21974806F0B6F90A
:103B7000964B9749186809F06BFB08F00BFE002480
:103B800002460B4600948E4808F03AF8FF2006F0F3
:103B900033F9FF2006F030F9FF2006F02DF9092156
:103BA0008C4806F09BF98C48FDF760F908F0F2FDAF
:103BB000009402460B46824808F022F8FF2006F0E7
:103BC0001BF9FF2006F018F9FF2006F015F90C216B
:103BD000824806F083F98048FDF7AEF908F0DAFD77
:103BE000009402460B46764808F00AF8FF2006F0DB
:103BF00003F9FF2006F000F9FF2006F0FDF80D2183
:103C0000774806F06BF97448FDF794F908F0C2FDA7
:103C1000009402460B466A4807F0F2FFFF2006F0C8
:103C2000EBF8FF2006F0E8F8FF2006F0E5F80921A0
:103C30006C4806F053F96848FDF7EEF86A4909F058
:103C400053FA08F0A7FD009402460B465C4807F0C3
:103C5000D7FFFF2006F0D0F8FF2006F0CDF8FF20B8
:103C600006F0CAF80C21614806F038F95A48FDF709
:103C700089F85F4909F038FA08F08CFD0094024693
:103C80000B464F4807F0BCFFFF2006F0B5F8FF20B9
:103C900006F0B2F8FF2006F0AFF80D21554806F007
:103CA0001DF94D48FDF794F8514909F01DFA08F047
:103CB00071FD009402460B46414807F0A1FFFF202A
:103CC00006F09AF8FF2006F097F8FF2006F094F827
:103CD0000921494806F002F9484B3948196807F0AC
:103CE00087FFFF2006F088F8FF2006F085F8FF2008
:103CF00006F082F80E21424806F0F0F83648FDF74B
:103D000067F805463448FDF73DF80146284609F0B6
:103D1000E1F8374909F0E8F908F03CFD0094024663
:103D20000B46274807F06CFFFF2006F065F8FF20E0
:103D300006F062F8FF2006F05FF80C21314806F02B
:103D4000CDF8314B1E481968012918BF214607F0EC
:103D50004FFFFF2006F050F8FF2006F04DF8FF203F
:103D600003B0BDE8304006F047B80621274806F00A
:103D7000B5F8CAE60721264806F0B0F8C5E60B21DB
:103D8000244806F0ABF8C0E60721234806F0A6F861
:103D9000BBE60821214806F0A1F8B6E60821204834
:103DA00006F09CF8B1E600BFC81E01002CD0FF1F32
:103DB0001CD0FF1F541C01001088FF1FE01E0100D3
:103DC000B489FF1FEC1E0100F81E010014D0FF1F74
:103DD0000000C842081F01000896FF1F141F0100C1
:103DE000241F0100341F010000002041401F01007A
:103DF00000007A44501F0100601F01002488FF1F4B
:103E00006C1F01007C1F010024D1FF1F241C010036
:103E10002C1C0100341C0100401C0100481C010046
:103E2000D41E01002DE9F041BE4A13889BB282B036
:103E30008BB9BD4DD5F8BC30BB4E042B65D0032BE0
:103E400000F09880012B00F0C180022B00F033813C
:103E500002B0BDE8F0811088B34D80B209F0F0F8EF
:103E6000B24909F041F9B24B0446188809F0E8F864
:103E70000146204609F038F9AE4B0446188809F08F
:103E8000DFF80146204609F02FF9AB4909F02CF97B
:103E900009F016FB80B209F0D3F80646A86D09F0C8
:103EA000CFF8A96909F020F90146304609F0D0F9A8
:103EB00009F0E0FAA14B1A689042B8BF1860A04B15
:103EC0001B780446002BB5D09E4807F03DFE0C2120
:103ED0009D4807F099FB3046974909F005F908F02D
:103EE00059FC00260B460246009696488E4E07F077
:103EF00087FE0D21954807F087FB2146914807F082
:103F000077FED5F8BC30042B99D1914C914AA37916
:103F1000226043F001030822E271A371B06D09F041
:103F20008FF8B16909F0E0F88B4909F0DDF809F084
:103F3000C7FA824B894A1B68126893FBF2F380B27E
:103F400000271A124FEA202E607221468448E3723D
:103F5000A27284F808E027736773A773E77304F00D
:103F6000EFF9A279D6F8BC3067F30002032BA271F7
:103F70007FF468AF764CA86DA3720122E823072175
:103F800040F2FF26227263722660E17109F058F850
:103F9000A96909F0A9F8704909F0A6F809F090FAA2
:103FA000664B6E4A1B68126893FBF2F382B21E12D4
:103FB000171221466A486373E2722773A67304F0EE
:103FC000BFF9D5F8BC30012B7FF43FAF654B604C97
:103FD0001B682360072280231020E271237205F002
:103FE00025FC002840F0D1805F4B1B68DFF84C8136
:103FF0005A4FA86D564E03EB83035B001A12A3724F
:104000006272D8F800303A6893FBF2F31A126273C6
:10401000A37309F015F8A96909F066F8534B1968FC
:1040200008F058FF4C4909F05FF809F049FA80B2EE
:104030000312314620734A48E37204F081F90220EA
:1040400005F02AFC4A4B1B682360072280231020BE
:10405000E271237205F0EAFB002840F09480424BA5
:104060001B68A86D03EB83035B001A127272B372B4
:1040700008F0E6FFA96909F037F83E4B196808F027
:1040800029FF354909F030F809F01AFA82B2161200
:104090003868D8F80030227393FBF0F32C4930488D
:1040A000A3731A12E672627304F04AF9D5F8BC30B1
:1040B000022B7FF4CDAE264C2948237240F20E32FB
:1040C000012321462260E37104F03AF91B4B1B687F
:1040D0005B00FF2BC8BFFF23042140224FF4417037
:1040E0002060E17122726372A86D08F0A9FFA969CE
:1040F00008F0FAFF2049054609F0B2F900283DD042
:104100002946284608F0E8FE09F0DAF980B20312E1
:10411000E072A3720E49124802B0BDE8F04104F00B
:104120000FB900BF88D1FF1F2CD0FF1F6F12833A39
:104130003888FF1F0888FF1FCDCCCC3D8494FF1F1B
:1041400074CFFF1FE089FF1F8C1F01009C1F01001F
:104150007494FF1FF4E50618000020410C88FF1F2F
:10416000B8D1FF1F4C88FF1F0488FF1F6094FF1FFA
:104170005088FF1F80CFFF1F00004843012290237B
:10418000A272E372C6E7024B6AE7014B2DE700BF5C
:104190001C88FF1F70B50368C57984B0012D8DF8A8
:1041A00005304FEA13230E468DF8043005F1010265
:1041B00001A909DD07300D440DF1050310F8014F89
:1041C00003F8014FAB42F9D1034B04489B5D03F068
:1041D0008BFB04B070BD00BF302E01000895FF1F9F
:1041E000F0B40D4B0D489C790822FF27CD26A2255F
:1041F000DA710022B0216FF300041F729E72DD722B
:104200005A721A735A739A73DA7319609C71194649
:10421000F0BC04F095B800BF7494FF1FB8D1FF1F25
:104220002DE9F041644D2B780F2B82B000F088808F
:10423000624B93F8CE20624E002A50D13378082B7F
:1042400000F0A080DFF8A88143F080035D4F5E4C52
:104250003A682360012A4FF00803E37154D06822C2
:1042600010232272637298F8003057490022022B03
:10427000A2720AD82B78CA724FEA03130A734A73E0
:10428000DBB210D104338B730EE03B68012B04BF0B
:1042900008230B732B7818BF0A73502000221B01D0
:1042A000C872DBB26273A37331784748FFF772FFBD
:1042B000E073022005F0F0FA4349444804F040F866
:1042C0002A7833784248013201332A703370FCF780
:1042D000C1FB08B1FFF784FF02B0BDE8F081012AFD
:1042E0000CD133780C2BADD1DFF8048198F8003075
:1042F0000022032B32704CD98023A7E73378DFF8F4
:10430000F08043F08003A1E7324B1B78002BA6D14D
:104310002F48FCF737FD304908F0E6FE09F0D0F8E9
:1043200000F10A032A482372FCF72CFD2A4908F001
:10433000DBFE09F0C5F880B20A300012607292E725
:10434000264E274C33680093009B21680022994237
:104350002A7013D2234B1F4A1B6801218B42117014
:104360001CD0164B32680192B3F8A810019A3C3168
:104370004FF47A7000FB012222605AE715490F4B77
:104380000A7056E7DFF86880327098F80030032B27
:10439000B2D8013388F80030802357E7124807F07D
:1043A000D3FB1321114807F02FF90F4807F0CCFB7E
:1043B0000D4807F0C9FBD4E76CD1FF1F2CD0FF1FBD
:1043C00094D1FF1F24D1FF1F7494FF1FB8D1FF1F8A
:1043D0000896FF1F74D1FF1F00007A4460D3FF1FAF
:1043E00058D1FF1F0088FF1FE089FF1FAC1F01008D
:1043F00028D0FF1F2DE9F0419A4C9B4D82B007F069
:104400009DF823682860042B00F01283022B4BD008
:10441000082B00F09380072B40F04E81332801F0E9
:104420001B8600F39383312801F00086322840F088
:10443000138107F0BFF8002840F33C818B488C4E75
:1044400007F018FD08F0FCFD8A4908F04DFE6123D5
:104450000122706422602B601846A0F152031F2BCA
:1044600000F2FA80DFE813F0C60DF800F800F8005B
:10447000F800F800F800F800F800F800F800F8007C
:10448000F800F800F800C503430F4C05EA05B60430
:10449000F800F800F8003804F800460FF800F800BB
:1044A000F800F800F800CB0DA0F13103422B00F228
:1044B000D380DFE813F0720880088E082A083D08D0
:1044C0004C0859089B08D100D100D100D100D1007F
:1044D000D100D100D100D100D100D100D100D10054
:1044E000D100D100D100D100D100D100D100D10044
:1044F000D100D100D100D100D100D100D100D10034
:10450000D100D100D100D100D100D100D100D10023
:10451000D100D100D100D100D100A808D100D10034
:10452000D100D100D100D100D100D100D100D10003
:10453000D100D100D1004E00D1006808322800F02F
:10454000328340F31683342800F04983712840F009
:1045500083800022732322602B602368002B7ED18E
:10456000454E424807F0F0FA0421444807F04CF861
:104570003E4807F0E9FA1021414807F045F83B486A
:1045800007F0E2FA13213F4807F03EF83E4B374868
:10459000196807F02DFB354807F0D6FA14213B487F
:1045A00007F032F8314807F0CFFA1E21384807F0FB
:1045B0002BF82E4807F0C8FA1521364807F024F8E2
:1045C0002A4807F0C1FA1E21334807F01DF8274892
:1045D00007F0BAFA2021314807F016F8234807F00F
:1045E000B3FA19212E4807F00FF8204807F0ACFA6B
:1045F00012212C4807F008F81C4807F0A5FA0F21F3
:10460000294807F001F8194807F09EFA0D212748BC
:1046100006F0FAFF154807F097FA002201233260EE
:10462000236002B0BDE8F08106F0C4FF002841F32A
:10463000F6840E480E4E07F01DFC01270346014686
:1046400062221B48F36527602A60FCF7E9FB2368B8
:104650002868012B3FF401AF73283FF47EAF02B00E
:10466000BDE8F081A0D1FF1F5CCFFF1FE089FF1FD5
:104670002CD0FF1F6F12833A0088FF1FC423010054
:10468000CC230100E02301002488FF1FF423010054
:104690000C2401002C2401004424010064240100A6
:1046A00088240100A4240100B8240100C8240100CA
:1046B0000896FF1F23682868062B40F08B80A0F126
:1046C0003103402BC8D801A252F823F0EB5300006D
:1046D00059540000BF54000085540000AB54000042
:1046E000175400003B54000059460000C553000019
:1046F000594600005946000059460000594600003E
:10470000594600005946000059460000594600002D
:10471000594600005946000059460000594600001D
:10472000594600005946000059460000594600000D
:1047300059460000594600005946000059460000FD
:1047400059460000594600005946000059460000ED
:1047500059460000594600005946000059460000DD
:1047600059460000594600005946000059460000CD
:1047700059460000594600005946000059460000BD
:1047800059460000594600005946000059460000AD
:10479000594600005946000059460000594600009D
:1047A000594600005946000059460000594600008D
:1047B000594600005946000059460000594600007D
:1047C0005946000059460000594600005345000074
:1047D00023682868052B40F08D80A0F13103402B21
:1047E0003FF63AAF01A252F823F000BF9D510000FE
:1047F00091520000B1520000D1520000FB52000063
:104800001753000059460000594600005946000061
:10481000594600005946000059460000594600001C
:10482000594600005946000059460000594600000C
:1048300059460000594600005946000059460000FC
:1048400059460000594600005946000059460000EC
:1048500059460000594600005946000059460000DC
:1048600059460000594600005946000059460000CC
:1048700059460000594600005946000059460000BC
:1048800059460000594600005946000059460000AC
:10489000594600005946000059460000594600009C
:1048A000594600005946000059460000594600008C
:1048B000594600005946000059460000594600007C
:1048C000594600005946000059460000594600006C
:1048D000594600005946000059460000594600005C
:1048E0005946000059460000594600003153000067
:1048F00023682868032B7FF4ACAEA0F13003482B6B
:104900003FF6AAAE01A252F823F000BF29460000EC
:10491000615E0000895E0000B15E00003B5C00004B
:104920005D5C0000855C0000AD5C0000CB5C0000BD
:10493000EF5C00005946000059460000594600004F
:1049400059460000594600005946000059460000EB
:1049500059460000594600005946000059460000DB
:1049600059460000594600005946000059460000CB
:1049700059460000594600005946000059460000BB
:1049800059460000594600005946000059460000AB
:10499000594600005946000059460000594600009B
:1049A000594600005946000059460000594600008B
:1049B000594600005946000059460000594600007B
:1049C000594600005946000059460000594600006B
:1049D000175D0000355D0000535D0000715D000053
:1049E0008F5D0000AD5D00001F57000043570000C1
:1049F0005946000069570000035E00005946000058
:104A0000594600005946000059460000594600002A
:104A100053450000D35E000059460000594600008F
:104A2000594600005946000059460000F35E000058
:104A3000A0F13003422B3FF60FAE01A252F823F053
:104A40007D560000915600009556000099560000D2
:104A5000B956000003570000ED560000FF56000055
:104A6000135600002B56000059460000594600001E
:104A700059460000594600005946000059460000BA
:104A800059460000594600005946000059460000AA
:104A9000594600005946000059460000594600009A
:104AA000594600005946000059460000594600008A
:104AB000594600005946000059460000594600007A
:104AC000594600005946000059460000594600006A
:104AD000594600005946000059460000594600005A
:104AE000594600005946000059460000594600004A
:104AF000594600005946000059460000594600003A
:104B00005946000059460000595600005946000019
:104B10005946000059460000594600005946000019
:104B20005946000059460000594600005946000009
:104B300059460000594600005946000059460000F9
:104B400059460000534500007356000034287FF496
:104B5000FDAC06F02FFD00287FF7ACAD8A488B4EE8
:104B600007F088F961230122B08622602B60184685
:104B700073E431287FF470AD06F01CFD002840F38B
:104B8000BF848148814E07F075F9C0B286F84800AD
:104B900002288ABF0021014686F84810B6F9D030B5
:104BA000F26C7B4814E006F005FD00281CDD764819
:104BB000764E07F05FF908F043FA764908F094FA68
:104BC000B6F9D03096F84810074602467048F764A8
:104BD000FCF728F901236920236028603DE406F0F2
:104BE000E9FC002800F37E842368286813E406F0BB
:104BF000A5FC06F0DFFC05460028F8D16248634EAC
:104C000006F0A2FF604806F09FFF5F4806F09CFF99
:104C10005D4806F099FF5C4806F096FF1F215E484C
:104C200006F0F2FC584806F08FFF1C215B4806F0A6
:104C3000EBFCB06A5A4908F057FA07F0ABFD009553
:104C400002460B46504806F0DBFF0221554806F0AD
:104C5000DBFC4D4806F078FF2321534806F0D4FCD6
:104C6000706C4F4908F040FA07F094FD0095024639
:104C70000B46454806F0C4FF02214A4806F0C4FC32
:104C8000414806F061FF1921484806F0BDFC306C30
:104C900007F080FD02250B46024600953A4806F0D3
:104CA000AFFF2946424806F0AFFC374806F04CFFFC
:104CB0002221404806F0A8FCB18E334806F098FF48
:104CC00003213D4806F0A0FC2F4806F03DFF0723D6
:104CD0002360C4E406F032FC06F06CFC05460028B4
:104CE000F8D12948294E06F02FFF274806F02CFF5F
:104CF000254806F029FF244806F026FF224806F042
:104D000023FF15212D4806F07FFC1F4806F01CFFED
:104D100018212B4806F078FC2B460A2296F84810FA
:104D2000194806F025FF184806F00EFF28212548EF
:104D300006F06AFCF06C1A4908F0D6F907F02AFD73
:104D400000950B460246104806F05AFF022115480E
:104D500006F05AFC0C4806F0F7FE18211A4806F037
:104D600053FCB6F9D010084806F042FF064806F09A
:104D7000EBFE1321154806F047FC034806F0E4FE5D
:104D8000082323606BE400BFE089FF1F2CD0FF1FC6
:104D90000896FF1F6F12833A102201003022010093
:104DA00000007A442C2001005022010074220100EE
:104DB0000C22010090220100B42201008C24010089
:104DC000E41F010000200100302001004C20010000
:104DD00006F0B4FB06F0EEFB05460028F8D1824849
:104DE000824E06F0B1FE804806F0AEFE7E4806F028
:104DF000ABFE7D4806F0A8FE7B4806F0A5FE11211B
:104E00007B4806F001FC784806F09EFE2821794890
:104E100006F0FAFBB069784908F066F907F0BAFCC9
:104E2000009502460B46704806F0EAFE02217348E0
:104E300006F0EAFB6C4806F087FE1621704806F083
:104E4000E3FB306A6C4908F04FF907F0A3FC0095CA
:104E50000B460246644806F0D3FE0221674806F07E
:104E6000D3FB614806F070FED6F8BC30002B32DD73
:104E70001D21644806F0C8FB706E08F0E1F8624935
:104E800008F032F907F086FC022502460B46009531
:104E9000554806F0B5FE01215C4806F0B5FB5248C6
:104EA00006F052FE1F215A4806F0AEFBB06E08F025
:104EB000C7F8554908F018F907F06CFC0095024650
:104EC0000B46494806F09CFE0121504806F09CFB29
:104ED000454806F039FE11214E4806F095FBD6F8FC
:104EE000BC30072B01F21480DFE813F07A087F084A
:104EF000750870086B08660861080E0806F01EFB4E
:104F000006F058FB0028F9D13748384E06F01CFE51
:104F1000354806F019FE344806F016FE324806F011
:104F200013FE314806F010FE1F213B4806F06CFBD3
:104F30002D4806F009FE1E21384806F065FB2A4878
:104F400006F002FE1A21364806F05EFBD6F88430E1
:104F5000022B01F06581032B01F05981012B01F037
:104F6000688109212F4806F04FFB1F4806F0ECFD31
:104F700014212D48DFF8748006F046FBD6F8801027
:104F8000194806F035FE184806F0DEFD1C212748BA
:104F900006F03AFBD6F88810134806F029FE1248AE
:104FA00006F0D2FD1C21224806F02EFBD6F8B810E0
:104FB0000D4806F01DFE0C4806F0C6FDD6F88450DC
:104FC00025F00207012F01F05F80022D01F06281C0
:104FD0001321184806F018FB034806F0B5FD02231C
:104FE0002360FFF73CBB00BFE089FF1F2CD0FF1FF1
:104FF000302401006020010000007A442C200100D0
:105000008C200100A4200100CDCCCC3D4C27010018
:10501000C4200100E42001000C2601002C26010020
:105020004C260100C4260100D0260100E82601001C
:10503000082701004C20010006F080FA06F0BAFAB9
:105040000028F9D1BE48BF4D06F07EFDBC4806F0F1
:105050007BFDBB4806F078FDB94806F075FDB84801
:1050600006F072FD1321B84806F0CEFAB44806F0F7
:105070006BFD0D21B54806F0C7FAB14806F064FD96
:105080000F21B34806F0C0FAB24BAD48196806F0DC
:10509000AFFDAB4806F058FD1321AF4806F0B4FA57
:1050A000AE4BA748196806F0A3FDA54806F04CFDD5
:1050B0001221AB4806F0A8FAAA4BA148196806F0DD
:1050C00097FD9F4806F040FD1121A74806F09CFA85
:1050D000A64B9B48196806F08BFD994806F034FDF5
:1050E0000E21A34806F090FAD5F8AC10944806F0CB
:1050F0007FFD934806F028FD19219E4806F084FAAA
:105100009D4B8F48196806F073FD8D4806F01CFD15
:1051100011219A4806F078FA994B8948196806F0E7
:1051200067FD874806F010FD1021964806F06CFADE
:10513000954B8348196806F05BFD814806F004FD35
:105140001C21924806F060FA914B7D48196806F0E0
:105150004FFD7B4806F0F8FC16218E4806F054FA05
:10516000B5F8A810764806F043FD1E218A4806F0DF
:105170004BFA734806F0E8FC1721884806F044FA19
:105180006F4806F0E1FC1321854806F03DFA6C48B3
:1051900006F0DAFC04232360FFF761BA06F00AFA8E
:1051A00000287FF7A5AB6648664E06F063FE012235
:1051B0006B23C6F88C0022602B6001E006F0BEF97C
:1051C00006F0F8F90028F9D15D485E4D06F0BCFC08
:1051D0005B4806F0B9FC5A4806F0B6FC584806F0A1
:1051E000B3FC574806F0B0FC21216E4806F00CFADB
:1051F000534806F0A9FC15216B4806F005FAD6F8CD
:105200008C104F4806F0F4FC0221684806F0FCF9C7
:105210004B4806F099FC1E21654806F0F5F9D6F8D2
:105220009410474806F0E4FC0321624806F0ECF9CC
:10523000434806F089FC1E215F4806F0E5F9D6F8E0
:1052400090103F4806F0D4FC3D4806F07DFC1D213F
:105250005A4806F0D9F9D6F8B010394806F0C8FC1B
:10526000374806F071FC1E21554806F0CDF9D6F8F6
:10527000B410334806F0BCFC314806F065FCD6F8A3
:10528000AC30012B00F0F48705232360FFF7E7B96A
:1052900006F090F900287FF72BAB2948294E06F03D
:1052A000E9FD01226B23C6F8940022602B6087E79A
:1052B00006F080F900287FF71BAB2148214E06F04D
:1052C000D9FD01226B23C6F8900022602B6077E79E
:1052D00006F070F900287FF70BAB1948194E06F05D
:1052E000C9FD274BC6F8B00002221A60FCF7C2FACB
:1052F00001226B2322602B6062E706F05BF9002835
:105300007FF7F6AA0E480F4E06F0B4FD1C4BC6F808
:10531000B4000322E9E70B4E96F8CD30B3FA83F3DD
:105320005B0901216B2286F8CD3021602A6047E7B6
:105330001349002373220B6023602A60FFF70DB925
:10534000E089FF1F2CD0FF1FD8240100EC240100AE
:10535000FC24010098D1FF1F0C25010004D0FF1F81
:105360002025010054D1FF1F3425010020D0FF1F4C
:1053700048250100582501006894FF1F742501008D
:105380008894FF1F882501005C94FF1F9C25010065
:105390002088FF1FBC250100D4250100F425010051
:1053A0004C200100B8220100DC220100A0210100F4
:1053B000F42201002C1D01001423010034230100FC
:1053C0005423010006F0F6F800287FF701AABB4835
:1053D000BB4E06F04FFD07F033FE65230122B0639C
:1053E00022602B601846FFF738B806F0E3F8002873
:1053F0007FF7EEA9B148B24E06F03CFD07F020FE63
:10540000B04907F025FF65230122B06122602B60BF
:105410001846FFF722B806F0CDF800287FF7D8A984
:10542000A648A74E06F026FD65230122C6F8C00057
:1054300022602B601846FFF710B8A14B93F8CC20E0
:10544000002A00F01C86002283F8CC20012365206E
:1054500023602860FFF701B806F0ACF800287FF75A
:10546000B7A99648964E06F005FD07F0E9FD954967
:1054700007F0EEFE65230122306222602B601846A1
:10548000FEF7EBBF06F096F800287FF7A1A98B483E
:105490008B4E06F0EFFC00EB8000430001226520FC
:1054A000B36622602860FEF7D8BF854AD2F8BC30C8
:1054B0000133072BC8BF0023C2F8BC30C6E706F093
:1054C00079F800287FF784A97C487D4E06F0D2FC4D
:1054D00000EB800043000122652073662260286093
:1054E000FEF7BBBF7548764E06F0C4FC07B23B46DC
:1054F000F26C96F848107448A6F8D070FFF768BBB5
:105500006F4E96F84800FFF743BB0123236006F077
:1055100051F8002807DD6948694E06F0ABFC07F03A
:105520008FFDC6F89C00632028602368FEF773BFD8
:105530000123236006F03EF80028F4DD5F48604E4A
:1055400006F098FC07F07CFDC6F89800EBE7012315
:10555000236006F02FF80028E5DD5848584E06F085
:1055600089FCA6F8C600DEE7554AD2F8D4300133EC
:10557000042BC8BF0123C2F8D43001236320236069
:105580002860FEF76ABF4E4AD2F884300133032BFD
:10559000C8BF0023C2F88430EFE7494ED6F8803008
:1055A000B3FA83F35B0901226320C6F880302260DE
:1055B0002860FEF752BF424ED6F88830B3FA83F324
:1055C0005B0901226320C6F8883022602860FEF75C
:1055D00044BF0123236005F0EDFF0028CDDD3748EF
:1055E000374E06F047FCC6F8B800C6E70123236033
:1055F00005F0E0FF0028C0DD3048314E06F03AFCEF
:10560000C6F8A400B9E7FDF7BBF923682868FEF7E0
:10561000FFBE2E4A1368B3FA83F35B0901216420AD
:10562000136021602860FEF718BF0123236005F096
:10563000C1FF002800F3DC85254B1A68042A01DD30
:1056400002221A6064232B602368082B4FF0640049
:105650007EF4E1AEFEF772BF0123236005F0AAFFDE
:105660000028EFDD1548164E06F004FCA6F8A80049
:10567000E8E701232360FEF7B3FDE3E7154A13785B
:1056800001214B406420137021602860FEF7E5BEC5
:10569000114ABFE7114ABDE7114A124F1368002BA8
:1056A0000CBF012100214FF001031160236040F085
:1056B000C98564222A60C8E70B4AABE7E089FF1F6F
:1056C0002CD0FF1F00007A440896FF1F5C94FF1F38
:1056D0002088FF1F74CFFF1F98D1FF1F04D0FF1F2A
:1056E00054D1FF1FA0D1FF1F20D0FF1F0123274847
:1056F0002360FBF7C9F9264A23681060D9E7254AD9
:1057000088E7254ED6F8AC30B3FA83F35B09012263
:105710006420C6F8AC3022602860FEF79EBE05F01B
:1057200049FF00280DDD1D481B4E06F0A3FB07F0C6
:1057300087FC1B4907F08CFD012262237062226006
:105740002B6005F037FF00280EDD1448124E06F0DE
:1057500091FB07F075FC124907F07AFD01226223E4
:10576000C6F8C80022602B6005F024FF002840F333
:1057700056840A48084E06F07DFB07F061FC0122C2
:105780006223F06322602B600EE000BF0896FF1FCB
:105790006894FF1F8894FF1F2CD0FF1FE089FF1F14
:1057A00000007A4405F0CAFE05F004FF0546002813
:1057B000F8D1C348DFF8788306F0C6F9C04806F090
:1057C000C3F9BF4806F0C0F9BD4806F0BDF9BC48B2
:1057D00006F0BAF91521BB4805F016FFB84806F0E7
:1057E000B3F91421B84805F00FFFB54806F0ACF93D
:1057F0001B21B64805F008FFB14806F0A5F91321B2
:10580000B34805F001FFAE4806F09EF9AC4806F03B
:105810009BF9AB4806F098F92021AE4805F0F4FE5C
:10582000F068AD4907F060FC06F0B4FF0095024651
:105830000B46A34806F0E4F90221A84805F0E4FE6F
:105840000221A74805F0E0FE9D4806F07DF92121E0
:10585000A44805F0D9FE30699F4907F045FC06F0E1
:1058600099FF009502460B46954806F0C9F90221BA
:105870009A4805F0C9FE0221994805F0C5FE9048F6
:1058800006F062F91F21984805F0BEFEF06A06F0A6
:1058900081FF022702460B460097894806F0B0F9BF
:1058A0000121924805F0B0FE39468D4805F0ACFE66
:1058B000834806F049F920218D4805F0A5FE306B9C
:1058C00006F068FF009702460B467D4806F098F9FF
:1058D0000121864805F098FE3946814805F094FE7E
:1058E000774806F031F92321824805F08DFE306DAE
:1058F000794907F0F9FB06F04DFF009502460B468B
:105900006F4806F07DF93946744805F07DFE39464A
:10591000734805F079FE6A4806F016F91F217648AB
:1059200005F072FE706D6C4907F0DEFB06F032FF89
:10593000009502460B46624806F062F93946674810
:1059400005F062FE3946664805F05EFE5C4806F0EA
:10595000FBF81921694805F057FE316E584806F0EA
:1059600047F93946664805F04FFE39465C4805F070
:105970004BFE534806F0E8F81821624805F044FE53
:10598000F06E07F05DFB604907F0AEFB06F002FF2A
:10599000009702460B464A4806F032F901215B485F
:1059A00005F032FE39464E4805F02EFE444806F01A
:1059B000CBF82B21564805F027FEF069464907F041
:1059C00093FB06F0E7FE009502460B463C4806F0C6
:1059D00017F93946414805F017FE3946404805F0A9
:1059E00013FE374806F0B0F81F214A4805F00CFEB8
:1059F000F16D334806F0FCF83946394805F004FEED
:105A00002F4806F0A1F82021434805F0FDFDB16DB7
:105A10002B4806F0EDF83946314805F0F5FD2848E9
:105A200006F092F810213D4805F0EEFD316F244854
:105A300006F0DEF83946294805F0E6FD39462848E3
:105A400005F0E2FD1E4806F07FF81321344805F00A
:105A5000DBFD716F1A4806F0CBF80121314805F0E3
:105A6000D3FD39461E4805F0CFFD154806F06CF809
:105A700010212D4805F0C8FDB16F114806F0B8F8A7
:105A80003946164805F0C0FD3946154805F0BCFDFD
:105A90000B4806F059F81421244805F0B5FDF16FC4
:105AA000074806F0A5F801211E4805F0ADFD39466E
:105AB0000B4805F0A9FD024806F046F8162139E02A
:105AC000E089FF1F2C280100442801005C28010008
:105AD0004C2001007828010000007A442C200100AD
