:1000000000800020BD010000497D0000017D00004E
:10001000017D0000017D0000017D0000017D0000E8
:10002000017D0000017D0000017D0000497D000090
:10003000497D0000017D00007D9C0000819D000045
:10004000497D0000497D0000497D0000497D000098
:10005000497D0000497D0000497D0000497D000088
:10006000497D0000497D0000497D0000497D000078
:10007000497D0000497D0000497D0000497D000068
:10008000497D0000497D0000497D0000497D000058
:10009000497D0000497D0000497D0000497D000048
:1000A000497D0000497D0000497D0000497D000038
:1000B000497D00001D710000297100002D710000B4
:1000C000397100003D71000041710000497D000060
:1000D000497D0000497D0000497D0000497D000008
:1000E000497D0000497D0000497D0000497D0000F8
:1000F000497D00008DA40000497D0000E5890000D5
:10010000497D0000FD8C0000497D0000497D000014
:10011000497D0000497D0000497D0000497D0000C7
:10012000497D0000497D0000497D0000497D0000B7
:10013000497D0000497D0000497D0000497D0000A7
:10014000497D0000497D0000497D0000497D000097
:10015000497D0000497D0000497D0000497D000087
:10016000497D0000498F0000497D0000497D000065
:10017000497D0000497D0000497D0000497D000067
:10018000497D0000497D0000497D0000497D000057
:10019000497D0000497D0000497D0000497D000047
:1001A000497D0000497D0000497D0000497D000037
:1001B000497D0000497D0000497D0000564B4CF20E
:1001C000205210B51A804DF628121A8000BF00BFC9
:1001D00007F0BEFD514B4FF010621A60504A9A6012
:1001E000504ADA60504A136813F4807304D14F49BF
:1001F0000B604FF4A85313604D4B1A78110703D5C9
:100200001A7842F008021A704A4B4B492A221A7097
:100210004A4A4B4B8B4204D252F8040F43F8040B6A
:10022000F8E7484B484900228B4202D243F8042B9E
:10023000FAE74649464A002352F8230041F82300D2
:1002400001336F2BF8D1434B434A802103F8011B44
:100250009342FBD1414B3D4A1A60414B8A221A70AE
:10026000A3F5805324225A70A0221A709A7992071B
:10027000FCD59A79D406FCD43A4A937903F00C035E
:10028000082B384BF9D103221A7140225A719A79FE
:100290009006FCD5334A9179324B4906FBD5324A58
:1002A000324911600221516020221A709A7902F0BD
:1002B0000C020C2AFAD12E4B2E4A1A602E4B2F4AD2
:1002C0001A6000225A60072243F8042C2C4AC3F813
:1002D0000C2D62B607F0F2FF144B1B68DA0705D548
:1002E000284807F0CFFD284B284A1A60284B1B7876
:1002F0005B0609D5244C254B22689A4204D121483B
:1003000007F0C0FD002323600CF0C4FB07F026FDBE
:1003100009F07CFFFEE700BF0E200540308004405E
:10032000823F04000100002B10D0034014D0034092
:1003300002D0074000E007404092FF1F4426010022
:100340002087FF1F4092FF1F08CFFF1F0082FF1F63
:100350000000000000E400E05FE400E008ED00E0E1
:100360000050064000400640448004400000030165
:1003700004800440C010050014E000E0FF76010096
:1003800000002020AB0C675C1CE00340A5C3945A1E
:1003900000F00740FFFFFFFFFFFFFFFFFFFFFFFF32
:1003A000FFFFFFFFFFFFFFFFFFFFFFFFFFFFFFFF5D
:1003B000FFFFFFFFFFFFFFFFFFFFFFFFFFFFFFFF4D
:1003C000FFFFFFFFFFFFFFFFFFFFFFFFFFFFFFFF3D
:1003D000FFFFFFFFFFFFFFFFFFFFFFFFFFFFFFFF2D
:1003E000FFFFFFFFFFFFFFFFFFFFFFFFFFFFFFFF1D
:1003F000FFFFFFFFFFFFFFFFFFFFFFFFFFFFFFFF0D
:10040000FFFFFFFFFFFFFFFFFFFFFFFFDEF9FFFF23
:1004100010B5054C237833B9044B13B10448AFF33E
:1004200000800123237010BD4092FF1F00000000D8
:1004300040260100084B10B51BB108490848AFF32E
:1004400000800848036803B910BD074B002BFBD0A0
:10045000BDE81040184700BF000000004492FF1F95
:10046000402601004092FF1F00000000F0B400F1A0
:100470002C06144F00243146031F00F15C0243F8A0
:10048000044FB34241F8047F4FF0000542F8044F97
:10049000F5D10D4A0D49C0F890500023C0F8945092
:1004A000C0F89850C0F89C50C0F8AC50C0F8A020DC
:1004B000C0F8A820C0F8A41080F8B43080F8CC3080
:1004C000F0BC70470000A040000048430000C8C2D4
:1004D00001392DE9F84381461546032900F2BA8017
:1004E000DFE801F095714D02137A507A03EB00209A
:1004F0000CF054F858490CF059F9C9F82400AB7ABB
:10050000E87A03EB00200CF049F853490CF04EF95F
:10051000C9F828002B7B687B03EB00200CF03EF829
:100520004D490CF043F9D9F80040C9F82C0009F105
:100530003006C84609F16005002701E058F8044F6D
:10054000306821460CF03AFA0137214628B1D9F833
:10055000B0000CF01FFA00B13460214628680CF09E
:100560000FFA04363D4920B120460CF027FA00B1BD
:100570002C600C2F05F10405E0D1BDE8F883137A57
:10058000507A03EB00200CF009F833490CF00EF917
:10059000C9F81800AB7AE87A03EB00200BF0FEFFF5
:1005A0002D490CF003F9C9F81C002B7B687B03EB89
:1005B00000200BF0F3FF28490CF0F8F8D9F80040C0
:1005C000C9F82000B3E7137A507A03EB00200BF050
:1005D000E5FF21490CF0EAF8C9F80C00AB7AE87A9B
:1005E00003EB00200BF0DAFF1B490CF0DFF8C9F831
:1005F00010002B7B687B03EB00200BF0CFFF16492C
:100600000CF0D4F8D9F80040C9F814008FE7137A39
:10061000507A03EB00200BF0C1FF0F490CF0C6F835
:10062000C9F80000AB7A0446E87A03EB00200BF02F
:10063000B5FF09490CF0BAF8C9F804002B7B687BB8
:1006400003EB00200BF0AAFF03490CF0AFF8C9F848
:1006500008006CE704686AE700007A440000A040E4
:100660002DE9F04190F8CC4084B0202364008DF84F
:100670000530E4B2042380468DF804408DF806303E
:100680000327204608F0D6FA02210DF1050008F0F4
:10069000DBFA8DF8044005F0BBFE30B30921404879
:1006A00009F086F90023102221463E4809F026FC75
:1006B00001213D4809F07CF9002310229DF8051026
:1006C000384809F01BFC0121374809F071F9002373
:1006D00010229DF80610334809F010FC0121324821
:1006E00009F066F92F4809F0F9FB02208DF8044063
:1006F00007F096FD05F08CFE00284CD102AE0024D8
:1007000008F0B8FA70B3072C1FD101E008F0C2FA64
:1007100008F0B0FA0028F9D105F07AFE10B12148AE
:1007200009F0DCFB9DF80B009DF80C109DF80D20E6
:100730009DF80E30C8F8B800C8F8BC10C8F8C02042
:10074000C8F8C43004B0BDE8F08108F0A3FA05464B
:1007500006F8010B05F05CFE70B9013408F08AFA66
:100760000028D0D1072CD3D005F052FE78B9013F34
:10077000D8D09DF8044084E7E9B20023102209484C
:1007800009F0BCFB0121084809F012F9E5E705482A
:1007900009F0A4FBEBE70721044809F009F9ADE7EC
:1007A000580C0100E487FF1F2C130100640C0100AA
:1007B00090F8BC00704700BF90F8B800704700BFC9
:1007C00090F8C000704700BF90F8C400704700BFA9
:1007D0000C2994BF50F82100002070472DE9F0410A
:1007E0000B4E8046041F00F12C0754F8045F31467D
:1007F00028460CF0C5F830B1D8F8B01028460CF0F7
:10080000DDF800B12E46BC42EFD13046BDE8F081A4
:10081000000020412DE9F041D0F8B0704FF0000801
:10082000041F00F12C0654F8045F394628460CF0EA
:10083000C5F8084948B128460CF0A2F8414620B155
:1008400028460CF0BBF800B1A846B442EBD14046B4
:10085000BDE8F0810000A0402DE9F047D0F8B0706D
:1008600082464FF00009041F00F12C064FF00008EB
:1008700054F8045F394628460CF0A0F80C4950B1F2
:1008800028460CF07DF830B1484629460BF0D2FDE1
:1008900008F101088146B442EAD1CAF8D080404646
:1008A0000BF07CFE014648460BF080FFBDE8F08768
:1008B0000000A040D0F8D000704700BF38B5D0F895
:1008C0009840D0F89450214628460CF059F800B9C9
:1008D0002C46204638BD00BFD0F8C8302DE9F04185
:1008E000002B7CD1D0F89860D0F894500446314663
:1008F00028460BF09FFDD4F89C70394680460BF0DB
:1009000099FD7F490BF052FF4FF07C5104460CF0EB
:1009100055F8002861D04FF07C5128460CF04EF875
:100920004FF07C51002861D128460CF029F838B1ED
:100930004FF07C5130460CF041F8002840F0A88080
:100940004FF07C5128460CF039F8002861D14FF067
:100950007C5128460CF032F8002840F0A2804FF07D
:100960007C5128460CF02AF800286DD14FF07C51BC
:1009700028460CF005F84FF07C5110B330460CF0CF
:100980001DF838B14FF07C5138460BF0F9FF0028C4
:1009900040F0B1804FF07C5130460BF0F1FF002861
:1009A00062D04FF07C5138460CF008F8002840F037
:1009B000A48038464FF07C510BF0E2FF68B1514CF7
:1009C00011E028460BF0DCFF0028E3D128464FF069
:1009D0007C510BF0D5FF002846D1BDE8F08100EB3B
:1009E0008300D0F890402046BDE8F08130460BF0FF
:1009F000E5FF4FF07C5100283ED038460BF0DEFF7B
:100A00000028F0D14FF07C5128460BF0B9FF0028A8
:100A100059D14FF07C5130460BF0B2FF002840D046
:100A20004FF07C5138460BF0C9FF002841D14FF000
:100A30007C5130460BF0C2FF68B14FF07C51384614
:100A40000BF09EFF00284FD14FF07C5130460BF049
:100A500097FF00288AD04FF07C5138460BF090FF6A
:100A6000002883D02C46BEE730464FF07C510BF077
:100A700087FF0028B1D09CE728460BF081FF0028B3
:100A8000C7D04FF07C5130460BF098FF0028C0D003
:100A90004FF07C5138460BF091FF00283FF450AFE7
:100AA00018E04FF07C5130460BF088FF0028CBD087
:100AB000C3E7394628460BF0BDFC4FF07C510BF0E4
:100AC000C1FD04468FE74FF07C5138460BF076FFAE
:100AD00000289ED0394630460BF0ACFC4FF07C51DC
:100AE0000BF0B0FD04467EE740464FF07C510BF022
:100AF000A9FD044677E7344675E73C4673E700BF37
:100B0000000040400000A0C270B50446FFF7E4FEBC
:100B10004FF07C510BF052FF40B3D4F894604FF08B
:100B20007C5130460BF04AFFD4F89850F8B9D4F80D
:100B30009C404FF07C5128460BF040FF58B12946AD
:100B400030460BF03BFF30B1214628460BF018FF32
:100B500008B12C4621E04FF07C5120460BF02EFFCF
:100B600020B1284621460BF029FF80B970BD3046E0
:100B700029460BF005FFD4F89C400028D9D0304618
:100B800021460BF0FDFE0028D3D0344605E0304668
:100B900021460BF013FF0028E8D0204670BD00BFAF
:100BA0002DE9F04F90F8CC3091B007465B008DF8FE
:100BB0000830FFF755FDD7F8C000D7F8C440D7F884
:100BC000BC30D7F8B82097F8CC108DE81100C94890
:100BD00005F024FD30223D2303268DF809208DF8F1
:100BE0000A300DF10A059DF8089049F001084046C9
:100BF00008F020F80DF10900022108F025F88DF821
:100C00000880424602AB00205040082410F0800FBC
:100C10004FEA400018BF80F00700013CC0B2F5D198
:100C20009D4202D013F8012FEEE708F003F805F01B
:100C3000EFFB002840F07C8202208DF8089007F03E
:100C4000EFFA05F0E5FB002840F0B8820DF10C0A40
:100C5000D146002408F00EF8002843D0032C34D1EC
:100C600001E008F017F808F005F80028F9D105F0C0
:100C7000CFFB10B1A04809F031F9312303268DF8DC
:100C800009308DF80A609DF8089049F00108404647
:100C900007F0D0FF0DF10900022107F0D5FF8DF814
:100CA0000880424602AB00205040082410F0800F1C
:100CB0004FEA400018BF80F00700013CC0B2F5D1F8
:100CC0009D4228D013F8012FEEE707F0E3FF09F863
:100CD000010B804605F09CFB68B9013407F0CAFFA0
:100CE0000028BBD1032CBED005F092FB78B9013EA1
:100CF0007FF479AFC1E75FFA88F1002310227E48C4
:100D000009F0FCF801217D4808F052FEE5E77A4839
:100D100009F0E4F8EBE707F08DFF05F079FB002818
:100D200040F0C58102208DF8089007F079FA05F0AF
:100D30006FFB002840F03D820DF10C09002407F004
:100D400099FF002844D0032C35D101E007F0A2FF21
:100D500007F090FF0028F9D105F05AFB10B1664862
:100D600009F0BCF8342201238DF809208DF80A30EF
:100D700003269DF8089049F00108404607F05AFF05
:100D80000DF10900022107F05FFF8DF8088042464F
:100D900002AB00205040082410F0800F4FEA4000C2
:100DA00018BF80F00700013CC0B2F5D19D4228D0A9
:100DB00013F8012FEEE707F06DFF09F8010B8046ED
:100DC00005F026FB68B9013407F054FF0028BAD1BA
:100DD000032CBDD005F01CFB78B9013E7FF453AF66
:100DE000C0E75FFA88F100231022434809F086F833
:100DF0000121424808F0DCFDE5E73F4809F06EF8C4
:100E0000EBE707F017FF05F003FB002840F00E8129
:100E100002208DF8089007F003FA05F0F9FA00288F
:100E200040F0D6810DF10C09002407F023FF0028C3
:100E300000F08480032C72D101E007F02BFF07F053
:100E400019FF0028F9D105F0E3FA10B12A4809F09A
:100E500045F8012212238DF809208DF80A304FF051
:100E600003089DF80840204607F0E4FE02210DF13A
:100E7000090007F0E9FE8DF8084005F0C9FA30B323
:100E800009211F4808F094FD0023102221461A482A
:100E900009F034F80121194808F08AFD00231022D6
:100EA0009DF80910144809F029F80121134808F0A9
:100EB0007FFD002310229DF80A100F4809F01EF84C
:100EC00001210E4808F074FD0B4809F007F80620D0
:100ED0008DF8084007F0A4F905F09AFA002840F0D0
:100EE000728103AD002607F0C5FE00283FD0162E04
:100EF0002FD109E06C0C0100E487FF1F2C130100C7
:100F0000580C010007F0C6FE07F0B4FE0028F9D126
:100F100005F07EFA162600287DD1152035E007F071
:100F2000B9FE09F8010B804605F072FA00285BD182
:100F3000013407F09FFE00287FF47CAF032C3FF4C0
:100F40007EAF05F065FA00286CD1013E7FF411AF49
:100F50007FE707F09FFE05F8010B044605F058FAFD
:100F600000284DD1013607F085FE0028BFD1162E8E
:100F7000CAD005F04DFA00284DD1B8F101087FF430
:100F800070AF701E002840F32A82002303AA1C467B
:100F900012F8011B08254C4014F0800F4FEA44045E
:100FA00018BF84F00704013DE4B2F5D10133834258
:100FB000EEDB9DF8218089484146224605F02EFB54
:100FC000162EC146A34602D1A04500F0138197F822
:100FD000CC108348CDF800B04B46324605F04CFBB0
:100FE000002011B0BDE8F08F5FFA88F100231022D5
:100FF0007C4808F083FF01217B4808F0D9FC97E783
:10100000E1B200231022774808F078FF01217648EA
:1010100008F0CEFCA6E7734808F060FF162EACD1AE
:101020001520B2E76F4808F059FF8EE709216F4895
:1010300008F0BEFC2346102241466A4808F05EFFD5
:101040000121694808F0B4FC234610229DF80910DC
:10105000644808F053FF0121634808F0A9FC1022FE
:1010600023469DF80A105F4808F048FF01215E48BA
:1010700008F09EFC21460DF10B0002AA12F8014B6C
:101080006140C9B2082311F0800F4FEA410118BF37
:1010900081F00701013BC9B2F5D19042EED1102297
:1010A000504808F02BFF4F4808F018FFB0E6092120
:1010B0004E4808F07DFC234610224146494808F07E
:1010C0001DFF0121484808F073FC234610229DF8BB
:1010D0000910444808F012FF0121434808F068FC59
:1010E000102223469DF80A103E4808F007FF012110
:1010F0003D4808F05DFC21460DF10B0002AA12F8F4
:10110000014B6140C9B2082311F0800F4FEA410141
:1011100018BF81F00701013BC9B2F5D19042EED171
:101120001022304808F0EAFE2E4808F0D7FEF9E514
:1011300009212E4808F03CFC23461022414629484C
:1011400008F0DCFE0121284808F032FC234610227A
:101150009DF80910234808F0D1FE0121224808F02B
:1011600027FC102223469DF80A101E4808F0C6FEF0
:1011700001211D4808F01CFC21460DF10B0002AABC
:1011800012F8014B6140C9B2082311F0800F4FEAF9
:10119000410118BF81F00701013BC9B2F5D190426E
:1011A000EED110220F4808F0A9FE0E4808F096FE76
:1011B00042E507210E4808F0FBFBBDE507210C487E
:1011C00008F0F6FB42E50721094808F0F1FB88E644
:1011D0000721074808F0ECFB24E600BFA00C010043
:1011E000EC0C0100E487FF1F2C130100580C0100D8
:1011F000640C01009DF80C3097F8CC20B3EB420F43
:101200007FF4EEAE9DF80D30012B7FF4E9AE9DF832
:101210000E30122B7FF4E4AE9DF810309DF80F00D5
:1012200003EB00200BF0BAF975490BF00BFAD7F875
:10123000AC10C7F8900004460BF0C0FB08B1C7F82B
:10124000AC40D7F8A81020460BF09AFB08B1C7F8BD
:10125000A840A7F1040907F1300607F160054FF037
:101260000C089AF806309AF8050003EB00200BF002
:1012700095F964490BF0E6F949F8040F3168044622
:101280000BF07EFB0AF1020A30B1D7F8B01020460D
:101290000BF08AFB00B13460296820460BF08EFB0E
:1012A000043600B12C60B8F1010805F10405D8D16D
:1012B0009DF81E309DF81D0003EB002002300BF05E
:1012C0006DF951490BF072FA014650480BF06EFA75
:1012D0004F490BF0ADF84F490BF0B4F9054609F052
:1012E0001FFA0446284609F01BFA4B4909F08AFA0E
:1012F0004A49054620460BF0A5F949490BF09AF8F2
:101300004849044628460BF09DF9014620460BF05B
:1013100091F801464FF07E500BF048FA42490BF02D
:1013200087F89DF81F209DF82030C7F8940003EB44
:10133000022009300BF032F93C490BF037FA014634
:1013400032480BF033FA32490BF072F831490BF0A6
:1013500079F9054609F0E4F90446284609F0E0F970
:101360002D4909F04FFA2D49054620460BF06AF940
:101370002B490BF05FF82B49044628460BF062F925
:10138000014620460BF056F801464FF07E500BF018
:101390000DFA25490BF04CF8C7F89800044638467A
:1013A000FFF7B2FBD7F8A01005460BF0E9FA08B139
:1013B000C7F8A050D7F89450204629460BF0FEFA03
:1013C000B0B92946D7F8A4000BF0DAFA10B12C46D0
:1013D000C7F8A440164805F021F9012001E69DF860
:1013E0002190144849464246C34605F017F9EEE5F8
:1013F000D7F8A41020460BF0E1FA0028E8D1E9E77D
:101400001357053B2003C839001601470AD7E33FAD
:10141000E17A644000007A4400004040A40D8F3916
:101420005A80473A46A6DB3333938843002C014762
:10143000C40C0100A00C01002DE9F8430026D0F8EF
:10144000B080C0F890608146041F00F12C0754F86A
:10145000045F414628460BF0B1FA094950B12846CD
:101460000BF08EFA30B1304629460AF0E3FF06460B
:10147000C9F89000BC42EAD13046BDE8F88300BF0D
:101480000000A04002299ABF00EB8100D0F8940030
:10149000002070473E2998BF80F8CC10704700BFED
:1014A00090F8B400704700BFC0F8C810704700BF84
:1014B00080F8B410704700BF30B50F4CC0F8B010C2
:1014C00083B020460D4608F009FD204608F006FDD1
:1014D00028460AF00DFC022502460B4600952046E0
:1014E00008F056FD204608F0F9FC204603B0BDE8A0
:1014F000304008F0F3BC00BFE487FF1F70B500F573
:1015000055550646103500F128042046D834FEF71C
:10151000ADFFAC42F9D106F58075012428460021C3
:10152000FFF7C6FF214628460134FFF7B3FF3F2CE3
:1015300005F1D805F2D143F2585400250548064A72
:10154000064B3555002130617161B261F36130465F
:1015500070BD00BF00007A44000048430000C8C2CC
:101560002DE9F04143F25C5300F555563746002211
:101570008046C25010361C3700F5807402E0D83423
:10158000B4420DD02046FFF78BFF0028F7D020464D
:101590003D68FFF78FF9D8342844B4423860F1D160
:1015A00043F25C5358F80300BDE8F0812DE9F041A7
:1015B0000E46096801F00F04B1F5807F074690469A
:1015C00004F1010401F0F0053AD0302D36D02CDDC5
:1015D000402D13D0502D2CD10425072C12D9D823FF
:1015E00003FB0474283420460121FFF761FF3246D3
:1015F00029462046BDE8F041FEF76ABF072C4FF0B0
:101600000305ECD8B8F1010FE9D12146114808F0E3
:10161000B5FC4146104808F0CBF929460D4808F0C2
:10162000ADFC0C4808F05AFCD9E7202D01D101256A
:10163000D3E7072CD3D8042DD1DCE3E70225CCE790
:1016400000231022034808F059FC024808F046FC29
:10165000BBE700BFE487FF1F480D0100704700BFD4
:10166000704700BF2DE9F043002383B006460360B6
:1016700000F58074012504E001353F2D04F1D80404
:1016800069D02046FFF70CFF0028F5D0504804F041
:10169000C5FF29464F4804F0C1FF2046FFF780FAF6
:1016A0002046FFF7C9FE0AF023FB02460B464A48D4
:1016B00004F0B4FF2046FFF791F880462046FFF77C
:1016C000A9F8074640460AF013FB8046384689468B
:1016D0000AF00EFB42464B46CDE900013F4804F0BC
:1016E0009DFF00212046FFF7CDFE012180462046C8
:1016F000FFF7C8FE074640460AF0FAFA8046384629
:1017000089460AF0F5FA42464B46CDE900013448D5
:1017100004F084FF2046FFF78FFE014630680AF090
:1017200089FE30602046FFF7EFF9B1690BF028F928
:10173000002833D12046FFF7C1F8F1690BF03EF9DC
:10174000002899D02046FFF7B9F801353F2DF06108
:1017500004F1D80495D170680AF020FF0146306882
:101760000BF024F87169306004460BF027F900B1E2
:101770007461316920460BF003F900B134610B202C
:1017800006F018FD43F25853F35C60B99BB143F285
:1017900058530122F25403B0BDE8F0832046FFF70E
:1017A000B3F9B061C6E753B943F258530022F2547B
:1017B00003B0BDE8F0830B4804F05EFFE7E70A489A
:1017C00004F044FF43F258530022F254F0E700BF04
:1017D000340F01004C0D0100880D01009C0D01002B
:1017E000C80D0100E40D01001C0E010070B5114B85
:1017F000836000F555550646103500F5807402E00B
:10180000D834AC4213D02046FFF74AFE0028F7D068
:101810002046FEF7E3FFB1680BF0B2F80028EFD0E6
:101820002046FEF7DBFFD834AC42B060EBD1B068A5
:1018300070BD00BF0000A04070B5002300F55555F5
:101840000646C360103500F5807402E0D834AC421F
:1018500013D02046FFF724FE0028F7D02046FEF7DD
:10186000D9FFF1680BF0AAF80028EFD02046FEF768
:10187000D1FFD834AC42F060EBD1F06870BD00BF4E
:101880000068704741607047F8B500F555550F4640
:101890001646103500F5807402E0D834AC420FD003
:1018A0002046FFF7FDFD0028F7D020463946FFF718
:1018B000FBFD20463146D834FFF7FEFDAC42EFD1A8
:1018C000F8BD00BF2DE9F84300F5555543F25453D8
:1018D0002E4600278046C7504FF0000910351436B9
:1018E00000F5807402E0D834A54213D02046FFF7FB
:1018F000D7FD0028F7D03368013333602046FEF768
:10190000EBFF1D490BF05AF888B9D834A54207F10E
:101910000107EBD143F2545358F80300C01B0AF0FF
:101920003DFE014648460AF041FFBDE8F8832046E7
:10193000FEF7D2FF014648460AF07CFD814620466C
:10194000FEF7CAFFD8F820100BF038F870B920461F
:10195000FEF7C2FFD8F824100BF012F80028C2D00E
:101960002046FEF7B9FFC8F82400BCE72046FEF782
:10197000B3FFC8F82000EAE700008CC2006A704795
:10198000406A7047F8B500F55555074600261035F2
:1019900000F5807402E0D834AC420FD02046FFF747
:1019A0007FFD0028F7D02046FEF756FF014630465F
:1019B0000AF040FDD834AC420646EFD143F254530E
:1019C000F8580AF0EBFD014630460AF0EFFEF8BD8C
:1019D0002DE9F04F06468FB083488B4604F0C6FDD4
:1019E000814804F0C3FD804804F0C0FD43F2545325
:1019F0003046F2580D92FFF7B3FD73680C9307461B
:101A000030680AF075F9804630468946FFF7BAFF1C
:101A100082463046B468F568FFF754FF0AF068F96B
:101A2000CDE90A01214628460AF002FD6F490AF075
:101A300009FE0AF05DF9CDE9080128460AF058F9D7
:101A4000CDE9060120460AF053F9CDE904015046DC
:101A50000AF04EF90D9A0C9BCDE90201CDE90089FF
:101A6000114663483A4604F081FD5F4804F07EFD6C
:101A700006F580764FF001094FF0000A07E009F102
:101A80000109B9F13F0F06F1D80600F0A5803046F4
:101A9000FFF706FD0028F2D03046FEF789FE3046FB
:101AA000FEF78AFE3046FEF78BFE3046FEF78CFED0
:101AB0000821504807F07CFF49464F4808F05EFA7D
:101AC000B9F1090F40F38B8002214C4807F070FFF9
:101AD0003046FFF7B1FC0AF00BF95FFA8BF80246CB
:101AE0000B46CDF80080444808F052FA01214448E2
:101AF00007F05EFF5546002420E00621414807F02C
:101B000057FF29463C4808F039FA02213E4807F0C1
:101B10004FFF21463046FEF75BFE0AF0E9F8CDF8AC
:101B2000008002460B46344808F032FA01340121A5
:101B3000334807F03DFF0C2C09D03D46092D05F137
:101B40000107DADC0121314807F032FFD5E72A48E6
:101B500008F0C4F909212E4807F02AFF0021304679
:101B6000FFF790FC0AF0C4F8022402460B460094EA
:101B7000214808F00DFA0A21264807F019FF012133
:101B80003046FFF77FFC0AF0B3F8009402460B469C
:101B9000194808F0FDF90A211F4807F009FF2146FE
:101BA0003046FFF76FFC0AF0A3F8009402460B469C
:101BB000114808F0EDF90121184807F0F9FE09F184
:101BC00001090D4808F08AF9B9F13F0F0AF10C0A32
:101BD00006F1D8067FF45BAF0FB0BDE8F08F0121AE
:101BE0000A4807F0E5FE6FE7340F010000007A4471
:101BF000CC1001006C110100E487FF1FF41E0100EE
:101C0000781101007C1101001C1301002C1301004C
:101C100084110100901101009C110100A811010024
:101C20002DE9F04100F5807582B0012604E001360F
:101C30003F2E05F1D80549D02846FFF731FC002892
:101C4000F5D03146234808F099F90121224807F0E0
:101C5000AFFE00244FF0020821462846FEF7B8FDEB
:101C60000AF046F8CDF8008002460B46194808F005
:101C70008FF901340121184807F09AFE062C4FF025
:101C80000207E9D100212846FFF7FCFB0AF030F8F3
:101C9000009702460B460F4808F07AF901210E48DA
:101CA00007F086FE01212846FFF7ECFB0AF020F83A
:101CB000009702460B46074808F06AF901360548C6
:101CC00008F00CF93F2E05F1D805B5D102B0BDE8FA
:101CD000F08100BFE487FF1F480D0100F8B53D48C3
:101CE0003D4C3E4D3E4E04F041FC3E4B3E4A3F488B
:101CF0003F495A6011271F703E4F3F4AD8601C6110
:101D000000203E4C5D615E623D4DDF624FF07C56CF
:101D10000C2799619A623B493B4A18635C633B48D4
:101D20003B4C9D635E6440F61C450A261F65394F97
:101D30009964DA64022101221862C3F8BC400020D1
:101D400032249D66DE6664254FF49676DF61DF639C
:101D500041F20407597059721A725A6583F84000AB
:101D6000C3F89C401C665E66DE659D654FF05A0CAC
:101D70001F674FF47A7E9867D967C3F88000C3F86D
:101D80008840C3F8A440244FC3F8A000234EC3F8F2
:101D9000AC20C3F8B010FF2441F28831052083F84D
:101DA000C02040F2D662C3F8B450C3F874C0C3F880
:101DB0008CE0C3F89070C3F89460C3F8A840A3F80F
:101DC000BA00C3F88410A3F8B810A3F89820A3F8B9
:101DD0009A20F8BDAC11010000004040333383402D
:101DE000CDCCCC3D4493FF1F20A107006666864002
:101DF000CDCC4C40000020C10000824200002042B7
:101E00000000A0409A9979400AD7233D33337340AC
:101E10009A99993ECDCC4C3E0000684200C02044C7
:101E2000F0B54FF47A6085B006F0FAF900210F2082
:101E300006F0CEF900210E2006F0CAF9002111208B
:101E400006F0C6F90021102006F0C2F90021122088
:101E500006F0BEF90021132006F0BAF901210B208B
:101E600006F0B6F901210C2006F0B2F90121142088
:101E700006F0AEF90121152006F0AAF9012116207D
:101E800006F0A6F90121172006F0A2F9012105208C
:101E900006F09EF9974C984D0121062006F098F91E
:101EA00001210D2006F094F920880AF073FB014609
:101EB000162006F0F7F820880AF06CFB0146172080
:101EC00006F0F0F820880AF065FB0146052006F0D0
:101ED000E9F820880AF05EFB00240146062006F09F
:101EE000E1F800942346854A8549864804F0BEFD02
:101EF000E6B232468049834804F066FD2B797E497C
:101F000080486FF30003013432462B7104F052FD18
:101F1000082CEDD10924E6B232467749794804F01D
:101F200053FD2B797449774843F00103013432465D
:101F30002B7104F03FFD0D2CEDD1734C4FF0FF32AF
:101F40002068102105F05EF920684FF0FF32102163
:101F500005F030F920684FF0FF32022105F03EF91C
:101F600020684FF0FF32022105F042F900220F21D4
:101F7000206805F051F90C21644807F019FD644808
:101F800007F0ACFF1121634807F012FD604807F02D
:101F9000A5FF44F6206006F001FA5D4807F09EFFB9
:101FA00017215D4807F004FD594807F097FF5B4B88
:101FB0001B789A0600F1D480584B1B781B0700F160
:101FC000DB80564B1B785F0700F1E280534B1B7898
:101FD0009E0700F1E980524B1B781D0600F1F0804E
:101FE0004F4B1B785C0600F1F7804D4B1B78980631
:101FF00000F1FE804A4B1B78590700F10581484BE0
:102000001B781A0700F10C81454B1B789B0700F1E8
:1020100013813F4807F062FF72B6424A4CF22053E8
:102020004DF628112024138023461180013BFDD159
:102030003D4D3E483E4900234FF480562E8003809C
:102040000B8032F80E3C9BB243F0D30322F80E3CD7
:1020500062B69D2006F09EFD21463648364D07F0BB
:10206000A7FC2B4807F03AFF05F1C4062F462C4683
:10207000601B05F0B3FD04F8010BB442F8D13B78C6
:10208000112B01D0FFF72AFE2C482D4DFFF7E8FA5F
:10209000042004F0B7F92B4B284800221A60FFF700
:1020A000DDFA01210D2006F07FF8796D2348FFF756
:1020B000E9FB7A6C97F840102048FFF7E5FB2248CF
:1020C000224B046803941B682149224A039E00683E
:1020D00002901268204C2E6081FB0301DB171F4821
:1020E000A3EB21130299216013FB02F3038005B0D7
:1020F000F0BD00BF2487FF1F1894FF1F04CCFF1FF3
:1021000020A1070068CAFF1FC094FF1FCC11010067
:10211000E487FF1FDC110100F011010001F007400E
:1021200000F007400E200540042005400620054031
:1021300016200540F41201004493FF1FF894FF1F7E
:10214000F494FF1F7092FF1F10CCFF1F6C87FF1FBE
:102150001F85EB516887FF1F2094FF1FCC94FF1F42
:102160002121394807F024FC384807F0B7FE384BE6
:102170001B781B077FF525AF0C21364807F018FCAC
:10218000324807F0ABFE324B1B785F077FF51EAF7E
:102190000E21314807F00CFC2C4807F09FFE2C4B19
:1021A0001B789E077FF517AF17212C4807F000FC1E
:1021B000264807F093FE2A4B1B781D067FF510AFCB
:1021C0000E21284807F0F4FB204807F087FE244B37
:1021D0001B785C067FF509AF1221234807F0E8FB66
:1021E0001A4807F07BFE1E4B1B7898067FF502AF5E
:1021F00013211E4807F0DCFB144807F06FFE184B54
:102200001B7859077FF5FBAE1C21194807F0D0FB5E
:102210000E4807F063FE124B1B781A077FF5F4AEE9
:102220001921144807F0C4FB084807F057FE0C4B6F
:102230001B789B077FF5EDAE18210F4807F0B8FB20
:10224000024807F04BFEE4E608120100E487FF1F96
:1022500001F007402C1201003C1201004C12010059
:1022600000F007406412010074120100881201009E
:102270009C120100BC120100D8120100F8B5464CB6
:10228000464D4748E66800232B70FFF7D5FA014614
:1022900030460AF075FB08B104232B704048FFF765
:1022A000A5FA21690AF06CFB18B12B7843F01003F2
:1022B0002B703B48FFF706FBA16A0AF07FFB18B1C1
:1022C0002B7843F040032B70002335486B70FFF7E9
:1022D000F9FAE16A314D0AF053FB08B101236B7042
:1022E000304D2F4800232B70FFF7A6FA616A06468F
:1022F000E0680AF09DF8014630460AF05FFB08B13D
:1023000004232B702648FFF771FA616A064620699C
:102310000AF090F8014630460AF032FB18B12B78EB
:1023200043F010032B701E48FFF7CCFAA16B064652
:10233000A06A0AF07DF8014630460AF03FFB18B16A
:102340002B7843F040032B70002315486B70FFF788
:10235000B9FAA16B134F0646E06A0AF06BF8014622
:1023600030460AF00DFB08B101237B7000230C48B6
:10237000EB70FFF761FA054609480A4EFFF736FA97
:10238000014628460AF054F8E16B0AF017FB08B141
:102390000123F370F8BD00BF4493FF1F4093FF1F5C
:1023A000F894FF1FB494FF1F514B1B68002B74D08F
:1023B000F0B5504D2B680533B3F57A7F83B040F309
:1023C0008E80002300272B604B4CD4F8A4000AF029
:1023D000E5F80646D4F8A8000AF0E0F831460AF01D
:1023E00027F839460AF02EF944490AF0DFF9314658
:1023F0000AF020F80AF002FB0146062005F054FD21
:1024000002213F4807F0D4FA3E4807F067FD062155
:102410003D4807F0CDFA28680AF0C0F83B490AF0B9
:1024200011F909F065FC022602460B460096354874
:1024300007F0AEFD0D21364807F0BAFAD4F8A40033
:102440000AF0ACF8074628680AF0A8F82F490AF005
:10245000F9F80546D4F8A8000AF0A0F8394609F0C2
:10246000E7FF014628460AF0EDF824490AF09EF9F4
:10247000394609F0DFFF09F03BFC009602460B46A7
:10248000204807F085FD31461D4807F091FA1D48A8
:1024900003B0BDE8F04007F021BD174B1D4AD3F84B
:1024A000A410D3F8A83012685B1A632B0BDD1A480E
:1024B00003FB02F380FB0302DB17C3EB6213194437
:1024C000062005F0F1BC154803FB022380FB030244
:1024D000DB17C3EB22121144062005F0E5BC1846B9
:1024E0002B600AF05BF809490AF0ACF807466BE785
:1024F000A494FF1F7492FF1F4493FF1F0000C84263
:10250000F41E0100E487FF1F18130100CDCCCC3D61
:10251000201301003887FF1F1F85EB51CBF08D285A
:1025200070B5A248A24C07F0D9FCA04807F0D6FC31
:102530009E4807F0D3FC0D219E4807F039FAD4F8E5
:10254000A030012B11D09C4C9848217800230A22FE
:1025500007F0D4FC2378052B67D8DFE813F0E900F7
:10256000EE00F300F800FD00E4000921934807F0B5
:102570001FFA9348FFF73AF921690AF001FA18B1F6
:102580000F21904807F014FA8D48FFF755F9E168DC
:102590000AF014FA18B10E218B4807F009FA88489E
:1025A000FFF74AF905468648FFF720F90146284615
:1025B00009F03EFFE16B0AF001FA18B111218348DE
:1025C00007F0F6F97E48FFF77DF9A16A0AF0F6F9FF
:1025D00018B10C217E4807F0EBF97948FFF772F942
:1025E000E16A0AF0CDF918B10D217A4807F0E0F957
:1025F000794B73481B68012B00F0C280FFF7F6F897
:1026000021696B4D0AF0DAF978B16D48FFF714F9DA
:10261000E9680AF0B5F940B1674B1B78052B00F06B
:10262000C08008216D4807F0C3F902216C4807F00B
:10263000BFF9122005F0BEFD012800F09C8011209A
:1026400005F0B8FD012800F09180664B1B68012B56
:1026500000F087800221624807F0AAF9624B5348D4
:10266000196807F08BFC514807F038FC04215F48DB
:1026700007F09EF90B2005F09DFD002301460A227C
:102680004A4807F03BFC0C2005F094FD002301466E
:102690000A22464807F032FC142005F08BFD002387
:1026A00001460A22414807F029FC152005F082FD69
:1026B000002301460A223D4807F020FC06214C4831
:1026C00007F076F94B4B394819680222002307F0CE
:1026D00015FC0421484807F06BF9112005F06AFD4C
:1026E000002301460A22314807F008FC102005F0BB
:1026F00061FD002301460A222C4807F0FFFB12204F
:1027000005F058FD002301460A22284807F0F6FB91
:10271000132005F04FFD002301460A222348BDE89F
:10272000704007F0EBBB0721344807F041F97CE724
:102730000621334807F03CF977E70721314807F0D5
:1027400037F972E70721304807F032F96DE70821C1
:102750002E4807F02DF968E70B212D4807F028F9DE
:1027600063E711212B4807F023F973E70A212A4870
:1027700007F01EF969E70E21284807F019F95EE70E
:10278000FFF734F8216A0AF019F900283FF449AF3D
:102790001621234807F00CF90A21224807F008F90E
:1027A00043E70A211F4807F003F93EE7E487FF1FCC
:1027B0004493FF1F30130100B094FF1F401301002A
:1027C000F894FF1F4C1301005C1301006C1301000F
:1027D00080130100901301008092FF1FC4130100B9
:1027E000F41E0100C894FF1FA894FF1F38140100B5
:1027F000401401000894FF1F481401000014010058
:10280000D0130100D8130100EC130100F4130100F0
:10281000E013010024140100181401000814010041
:10282000A0130100B81301002DE9F04F934C944F11
:10283000E36F012B8DB000F04981032B50D0914EF6
:10284000914DA36F9148012B09BF2968296801F1B7
:102850000041296005F0B4F83368002B40F0CE80C9
:102860008A4805F083F8E36F3860012B064600F0D4
:10287000D28087490AF0A2F878B9864930460AF032
:102880007FF850B9844A854B12680B920B9A1A60F4
:1028900000232B600DB0BDE8F08FDFF8FC817F4C8A
:1028A000D8F800300A930A9823687D4FC01A09F0BF
:1028B00071FE314609F0C6FE7A4909F077FF794981
:1028C00009F074FF396809F0B5FDD8F800300993B4
:1028D000099B2360002338602B600DB0BDE8F08FAA
:1028E000DFF8C881704DD8F80000664E0123002241
:1028F0000F212B6004F090FC2B68012B336800F053
:102900000381002B40F0A6810021D8F80000DFF8F9
:10291000B891664D04F0D2FC33681FFA80FBC9F809
:1029200000B0002B40F07B810021D8F80000564D0C
:10293000DFF878A104F048FCB4F89A3040F6E4419E
:1029400001FB0BF1B1FBF0F0C01A00B209F026FE5A
:1029500057498346D4F8900009F074FE0146584662
:1029600009F024FFD9F800302860632BDFF858B154
:1029700000F3498100232B603368002B3FF461AFE3
:1029800002214C4807F014F8D9F80020D8F80000CC
:1029900040F6E443002103FB02F804F015FCB8FB09
:1029A000F0F009F0F7FD8046B4F89A0009F0F6FD62
:1029B0000146404609F03CFD09F09AF94FF0020843
:1029C00002460B46CDF800803B4807F0E1FA41464D
:1029D000384806F0EDFF286809F08AF9CDF8008044
:1029E00002460B46344807F0D3FA4146334806F016
:1029F000DFFF41462F4806F0DBFF22E7234804F0C3
:102A0000B5FF09F075F9022602460B4600962A48E2
:102A100007F0BEFA24E7244B1B68012B00F0268147
:102A2000022B7FF435AF264909F0C8FF30B925499C
:102A3000304609F0A5FF002800F04781DFF85880F4
:102A4000164CD8F80030079307982368144FC01A23
:102A500009F0A0FD314609F0F5FD124909F0A6FE86
:102A6000104909F0A3FE396809F0E4FCD8F80030F9
:102A70000693069B386023600AE700BF4493FF1F5C
:102A80008C92FF1FEC94FF1F7C92FF1F1C93FF1F73
:102A90000000FA430000FAC310CCFF1F5C92FF1F36
:102AA0009492FF1F00007A445C87FF1FC094FF1FB1
:102AB00017B7D138F41E0100E487FF1F8C14010002
:102AC00000C82F4800A08CC63C93FF1F3D68984962
:102AD000284609F055FF30B12846964909F06EFFA7
:102AE00000287FF4FDAEDFF85882934DD8F800003F
:102AF000924E022300220E212B6004F08DFB2B68E6
:102B0000012B33687FF4FDAE002B40F000810021E3
:102B1000D8F80000DFF86C92894D04F0CFFB3368E1
:102B20001FFA80FBC9F800B0002B40F0D5800021CF
:102B3000D8F80000834D04F047FBB4F8983040F615
:102B4000E44A0AFB0BFBBBFBF0F0C01A00B209F031
:102B500025FD7D498346D4F8940009F073FD0146B4
:102B6000584609F023FED9F8003028600021D8F833
:102B700000000AFB03FA04F027FBB4F89830BAFB14
:102B8000F0F00FFA80FAC3EB0A03002BB4F8BA2076
:102B9000B8BF5B429342BCBF00232B603368002B5D
:102BA0003FF44FAE0221694806F002FFD9F8002039
:102BB000D8F8000040F6E443002103FB02F804F0DB
:102BC00003FBB4F89810B8FBF0F000B2411A60486B
:102BD00007F0D4F902215D4806F0EAFE286809F002
:102BE00087F84FF0020802460B46CDF8008058489F
:102BF00007F0CEF90321574806F0DAFE4146534864
:102C000006F0D6FE1DE6DAF80000002104F0DCFA3A
:102C1000DBF8003064389842FFF4ACAEACE600213B
:102C2000286804F0D1FA40F6E44100230A2201FBAF
:102C30000BF1B1FBF0F1464807F060F9022143487F
:102C400006F0B6FEB4F89A10414807F097F9D9F8A3
:102C500000B069E63E4807F041F90C213E4806F015
:102C6000A7FE0C213D4806F0A3FE4DE63C4909F0C5
:102C7000A5FE58B93B49304609F082FE30B93A4AC0
:102C80003A4B12680592059A1A6001E6DFF8D8807F
:102C9000364CD8F80030049304982368344FC01A97
:102CA00009F078FC314609F0CDFC324909F07EFD8F
:102CB000304909F07BFD396809F0BCFBD8F80030D9
:102CC0000393039B38602360E2E5274A274B126891
:102CD0000892089A1A60DBE50021286804F074FA6B
:102CE00040F6E44100230A2201FB0BF1B1FBF0F1B5
:102CF000174807F003F901211F4806F059FEB4F800
:102D00009810134807F03AF9D9F800B00FE71048C7
:102D100007F0E4F8E36F012B4FF00B010CBF1748ED
:102D2000174806F045FE0C210C4806F041FEEEE681
:102D300000709446007094C65C87FF1FEC94FF1FE0
:102D4000C094FF1F7C92FF1F17B7D138F41E0100FB
:102D5000E487FF1F781401007C140100681401004F
:102D60000000FA430000FAC310CCFF1F5C92FF1F63
:102D70009492FF1F00007A442C13010050140100AC
:102D80005C1401003C93FF1F2DE9F043AB4D2B6811
:102D900083B0002B00F08780A94CAA4EE36FAA4FA6
:102DA000A74D012B00F0BF80D4F88030DFF890826F
:102DB000012B00F0ED80D8F85850D7F80090D8F8E3
:102DC000548005FB08F54FF47A7000FB05F009F01C
:102DD000E5FB9E49DFF86C820546484609F032FC67
:102DE000294609F0E3FC9A4909F02CFC09F006FE9B
:102DF000632830604BDD2846944909F0D7FC6423F2
:102E0000C8F80030934B38601B68002B48D0E36F44
:102E10008B4D012B00F0ED80032B00F0FD80022B89
:102E200000F0008102218C4806F0C2FD8B4B18682F
:102E300008F05EFF022402460B460094884807F023
:102E4000A7F82146874806F0B3FD2146824806F0E0
:102E5000AFFD3168824807F091F80621824806F0FC
:102E6000A7FD3868794909F0EDFB08F041FF0094AF
:102E700002460B467A4807F08BF803217B4806F0A0
:102E800097FD774803B0BDE8F04307F027B8002866
:102E9000BCBF0023C8F800306E4B1B68002BB6D1B6
:102EA00003B0BDE8F0837248654CFEF76BFD7149D5
:102EB000A76EE66E09F0C6FB09F0C6FD226F636FD0
:102EC000D21B9B1B80B29342A0EB0700C0F29D80F7
:102ED00003FB00F393FBF2F333445A4E5E48336036
:102EE000022106F065FD31685D48574F07F046F84E
:102EF0000221594806F05CFD3268A06D636D02FB4B
:102F000000F003FB00F000EB8000400009F046FBFE
:102F10004E4909F04BFC01232B60E36F3860012B15
:102F2000474D7FF441AF5248FEF72CFD5149D5F88B
:102F30006890D5F86C8009F085FB09F085FD2A6F53
:102F40006B6FC9EB0202C8EB030380B29A42C9EB74
:102F500000006CDD03FB0000531C90FBF3F303EB5C
:102F60000800A26D636D306002FB00F003FB00F00F
:102F700000EB8000400009F011FB3449DFF8C0800D
:102F800009F014FCD4F880303860012B7FF413AFC3
:102F90003748FEF7F7FC3749D8F86890D8F86C50F6
:102FA00009F050FB09F050FDD8F87020D8F87430C3
:102FB000D4F85480C9EB02025B1B80B29A42C9EB81
:102FC0000000C6BF03FB00000132584390FBF2F043
:102FD0002844A56D00FB05F008FB00F000EB800025
:102FE000400009F0DBFA194909F0E0FB814638603E
:102FF000E7E6214B1B68012B4FF00A010CBF1F486D
:103000001F4806F0D5FCEB6F06E703FB0000531CDE
:1030100090FBF3F3334460E710211A4806F0C8FC34
:10302000E36FFCE60721184806F0C2FCFAE603FB52
:1030300000F393FBF2F303EB080092E77892FF1F93
:103040004493FF1F3887FF1F9492FF1FE4388E3E82
:103050000000C8424887FF1FF41E01008C92FF1F2A
:10306000E487FF1F8C140100C4140100CC1401007C
:10307000F894FF1F00007A445C87FF1F9014010042
:103080009C140100A8140100BC140100F0B511202B
:1030900083B005F08FF8012813D000210B2005F034
:1030A00083F800210C2005F07FF80021152005F0A1
:1030B0007BF81D491D4B0120002208701A6003B0E7
:1030C000F0BD01460446152005F06EF81849194A6E
:1030D000194B09680191D2F884001B680199134DBE
:1030E000034402268B422E6017D8D2F88C0009F0D8
:1030F00055FA124B196809F043FC074668B9214696
:103100000B2005F051F8084A032339460C201670AD
:103110002B6005F049F803B0F0BD01210C2005F04B
:1031200043F803B0F0BD00BFB094FF1FE894FF1F49
:1031300010CCFF1F4493FF1FF494FF1F8C92FF1FBE
:10314000F0B5684E684D34682B689C4287B039D022
:1031500014F0010155D014F0020149D014F004011B
:103160003DD0E3070ED52B68DF070BD45F4F3A68DD
:10317000002A00F082805E4B1B680193019B934202
:103180006DD83468A0070DD52B6899070AD4594F1C
:103190003A68002A4CD0564B1B680393039B93421A
:1031A00038D8346862070DD52B685B070BD4524FB3
:1031B0003A68002A7ED04E4B1B680593059B9342CC
:1031C00068D834680CB107B0F0BD2146162004F071
:1031D0006BFE2146172004F067FE07B0F0BD052006
:1031E00004F062FE2B68346803F0FB032B60B8E741
:1031F000172004F059FE2B68346803F0FD032B60A0
:10320000ACE7162004F050FE2B68346803F0FE0390
:103210002B60A0E7394B1720D3F8881004F044FE48
:103220002B68346843F0020300222B603A60B9E750
:10323000334806F053FE0C21324806F0B9FB304803
:1032400006F04CFEFF21172004F02EFE284B2E4ADC
:1032500019680291029912680A443A609CE7274B68
:103260001620D3F8881004F01FFE2B68346843F052
:10327000010300222B603A6084E7FF21162004F04E
:1032800013FE1B4B204A19680091009912680A44EA
:103290003A6071E7194B0520D3F8881004F004FE5A
:1032A0002B68346843F0040300222B603A60002C42
:1032B00089D18AE7124806F011FE0C21134806F066
:1032C00077FB0F4806F00AFEFF21052004F0ECFD15
:1032D000074B0D4A19680491049912680A443A6030
:1032E0006AE700BFE894FF1F0894FF1F8894FF1F40
:1032F00010CCFF1F8C94FF1F9094FF1F4493FF1F5F
:10330000E487FF1FD01401007C87FF1FE014010039
:103310002DE9F047544EDFF87481DFF8749130687E
:10332000524D00220F2103F077FF002301222221BA
:103330004F48C8F80030C9F8002006F039FBD8F82B
:103340000030132B22DC40F6E44700213068B5F84A
:1033500098A003F0B3FF00210446306803F034FF67
:10336000A4B2012107FB04F4B4FBF0F44148544437
:10337000A5F8984006F01CFB642004F051FFD8F833
:1033800000300133132BC8F80030DEDDB5F898307B
:10339000394A3A48A2FB03129B1A02EB5303C3F3C8
:1033A0000F131946A5F8983006F0E8FD1D213448A2
:1033B00006F0FEFA0221334806F0FAFA2F4806F02A
:1033C0008DFD00231A460E213068C8F8003003F046
:1033D00023FF022322212648C9F8003006F0E8FA2C
:1033E000D8F80030132B22DC40F6E4470021306887
:1033F000B5F89A9003F062FF00210446306803F0AC
:10340000E3FEA4B2012107FB04F4B4FBF0F4194875
:103410004C44A5F89A4006F0CBFA642004F000FF73
:10342000D8F800300133132BC8F80030DEDDB5F8D2
:103430009A30114A1148A2FB03129B1A02EB530364
:10344000C3F30F131946A5F89A3006F097FD1D2116
:103450000D4806F0ADFA02210A4806F0A9FA07481D
:10346000BDE8F04706F03ABDC094FF1F4493FF1F2C
:10347000F01401003415010087611886E487FF1FEE
:1034800014150100F41E010038150100AC94FF1F53
:103490005C87FF1FF8B5874B874C884F1B68386DDA
:1034A00040F2513108222160E271002B00F0FD80D2
:1034B00009F074F8396A054609F0C4F8804909F042
:1034C000C1F809F0C1FA80B2031263727D4A7E4BE3
:1034D00012681B68B9692072A37228461B12151264
:1034E000E3722273657309F0ADF8754909F0AAF823
:1034F00009F0AAFA83B21A126F497448A373E273EF
:1035000003F0ACFC724B734A1B6812886A49A272C2
:10351000DDB2257205EB850603EB8305760045F3E6
:10352000D71540F2553E12121B12267365730826FA
:1035300000256648C4F800E0E2726372E671A57384
:10354000E57303F08BFC40F2563363482360E67169
:10355000FEF796F9614909F075F809F075FA2072DD
:103560005D48FEF78DF95D4909F06CF809F06CFAD9
:103570005B4A5A49C0F307231068637209F016F9D1
:1035800009F03CFA40FA06F203465348E272A3728D
:10359000FEF798F94A4909F055F809F055FA2073F1
:1035A0004D48FEF78FF9464909F04CF809F04CFAFE
:1035B0004149A573C0F3072344486373E57303F0DF
:1035C0004DFC022004F02CFE464A474B11785078FF
:1035D000217291786072D2789878A172597893F8B4
:1035E00000E0E2726173DA78A07340F25A33324934
:1035F0003648E67184F80CE0E273236003F02EFC99
:103600003A4B2D491A785878227260729A78D87895
:10361000A272E0721A79987993F805E02273A07388
:10362000DA792A4884F80DE040F25E33E2732360D1
:10363000E67103F013FC022004F0F2FD2C4B1E494E
:103640001A785878227260729A78D878A272E072EA
:103650001A79987993F805E02273A073DA791B48F8
:1036600084F80DE04FF45C73E2732360E67103F0BD
:10367000F5FB022004F0D4FDBA6DE67142FA06FEB5
:10368000012340F25F370226227399222572657268
:1036900084F80DE02760A672E372E373A273064913
:1036A0000A48BDE8F84003F0D9BB08F077FF796914
:1036B000054601E78092FF1FD894FF1F4493FF1F28
:1036C00000002041BC94FF1F6492FF1F68CAFF1FC7
:1036D0003887FF1F4487FF1FF894FF1F0000C84270
:1036E0008C92FF1F4093FF1FB494FF1F2887FF1F7A
:1036F0006087FF1FF0B59C4C9C4D83B006F0F2F83C
:1037000023682860042B00F0AC82022B4BD0082BDE
:1037100000F09280072B40F05181332801F0D683CE
:1037200000F3AD80312801F0E483322840F0B0800E
:1037300006F014F9002840F33F818D488D4E06F0C5
:1037400061FD08F02BFF8C4908F07CFF612301220A
:10375000F06322602B601846A0F152031F2B01F288
:10376000A583DFE813F0360BA30BA30BA30BA30B6E
:10377000A30BA30BA30BA30BA30BA30BA30BA30BD9
:10378000A30BA30BB203BC0C3905A7057304A30B51
:10379000A30BA30B2604A30BBF0CA30BA30BA30B20
:1037A000A30BA30B240BA0F13102422A70D8DFE84F
:1037B00012F022072E07E606F306060715076F002C
:1037C0006F006F006F006F006F006F006F006F0081
:1037D0006F006F006F006F006F006F006F006F0071
:1037E0006F006F006F006F006F006F006F006F0061
:1037F0006F006F006F006F006F006F006F006F0051
:103800006F006F006F006F006F006F006F006F0040
:103810006F006F006F00D3066F006F006F006F00C6
:103820006F006F006F006F006F006F006F006F0020
:103830006F006B006F00D906322800F02F837128CB
:1038400022D0312824D106F089F8002840F342869E
:103850004748484E06F0D6FCC0B286F84000022821
:1038600094BF01460021726C444888BF86F840101E
:10387000FEF70AF801236920236028606CE73428EA
:1038800001F04D83712803D1002373202360286049
:10389000002B08BF73280CBF01200020002860D037
:1038A000334806F01BFB0421354806F081F8304808
:1038B00006F014FB1021334806F07AF82C4806F085
:1038C0000DFB1321304806F073F8304B2848196877
:1038D00006F054FB264806F001FB14212C4806F0A4
:1038E00067F8234806F0FAFA1E212A4806F060F825
:1038F0001F4806F0F3FA1521274806F059F81C482E
:1039000006F0ECFA1E21254806F052F8184806F099
:10391000E5FA2021224806F04BF8154806F0DEFAB9
:103920001921204806F044F8114806F0D7FA122170
:103930001D4806F03DF80E4806F0D0FA0F211B484E
:1039400006F036F80A4806F0C9FA0D21184806F0C4
:103950002FF8074806F0C2FA164A00210123116029
:10396000236003B0F0BD00BF9892FF1F8892FF1F35
:10397000E487FF1F4493FF1F6F12833AF894FF1FE1
:10398000701D0100781D01008C1D01002087FF1FA4
:10399000A01D0100B81D0100D81D0100F01D01008F
:1039A000101E0100341E0100501E0100641E0100A3
:1039B000741E01004887FF1F23682868062B40F00B
:1039C0008D80A0F13102402A3FF662AF01A151F88B
:1039D00022F000BF0B4400003744000063440000A5
:1039E00089440000AF440000E74300009138000024
:1039F00091380000913800009138000091380000A3
:103A00009138000091380000913800009138000092
:103A10009138000091380000913800009138000082
:103A20009138000091380000913800009138000072
:103A30009138000091380000913800009138000062
:103A40009138000091380000913800009138000052
:103A50009138000091380000913800009138000042
:103A60009138000091380000913800009138000032
:103A70009138000091380000913800009138000022
:103A80009138000091380000913800009138000012
:103A90009138000091380000913800009138000002
:103AA00091380000913800009138000091380000F2
:103AB00091380000913800009138000091380000E2
:103AC00091380000913800009138000091380000D2
:103AD000913800008938000023682868052B15D12B
:103AE000332801F0638240F34781352801F050828A
:103AF000C1F2278271287FF4CBAEDC4A0023732009
:103B0000136023602860C3E623682868032B40F015
:103B1000A480A0F13002422A3FF6BAAE01A151F8CA
:103B200022F000BF313C00005F4D0000874D0000D7
:103B3000434C0000654C0000874C0000AF4C000077
:103B4000D74C0000F54C0000194D000091380000E2
:103B50009138000091380000913800009138000041
:103B60009138000091380000913800009138000031
:103B70009138000091380000913800009138000021
:103B80009138000091380000913800009138000011
:103B90009138000091380000913800009138000001
:103BA00091380000913800009138000091380000F1
:103BB00091380000913800009138000091380000E1
:103BC00091380000913800009138000091380000D1
:103BD00091380000913800009138000091380000C1
:103BE0009138000091380000414D0000134700005B
:103BF000674B0000914B0000AF4B0000034C0000EE
:103C0000C9460000ED4600009138000091380000E0
:103C10009138000091380000913800009138000080
:103C20009138000091380000854B0000CD4B00001A
:103C300005F094FE002841F342818D488D4E06F038
:103C4000E1FA01270346014662228B48736527602B
:103C50002A60FDF717FE23682868012B7FF418AE51
:103C60007AE5A0F13102402A3FF612AE01A151F8E7
:103C700022F000BF2B4600004346000047460000EC
:103C80006D460000AD46000071460000834600000E
:103C9000874600008B4600009138000091380000F4
:103CA00091380000913800009138000091380000F0
:103CB00091380000913800009138000091380000E0
:103CC00091380000913800009138000091380000D0
:103CD00091380000913800009138000091380000C0
:103CE00091380000913800009138000091380000B0
:103CF00091380000913800009138000091380000A0
:103D0000913800009138000091380000913800008F
:103D1000913800009138000091380000913800007F
:103D2000913800009138000091380000913800006F
:103D3000913800009138000091380000913800005F
:103D4000913800009138000091380000913800004F
:103D5000913800009138000091380000913800003F
:103D6000913800009138000091380000913800002F
:103D70009138000089380000312801F0F88032289D
:103D80007FF486AD05F0EAFD00287FF7BDAE384828
:103D9000384E06F037FA01226B23C6F88C002260F9
:103DA0002B6001E005F09EFD05F0D8FD0028F9D15B
:103DB0002F4806F093F82E4806F090F82C4806F0AD
:103DC0008DF82B4806F08AF8294806F087F821215B
:103DD0002A4805F0EDFD264806F080F81521284810
:103DE00005F0E6FDD6F88410214806F0C7F8022158
:103DF000244805F0DDFD1E4806F070F81E2122481B
:103E000005F0D6FDD6F88C10194806F0B7F8032156
:103E10001E4805F0CDFD164806F060F81E211C482E
:103E200005F0C6FDD6F88810114806F0A7F810482E
:103E300006F054F81D21174805F0BAFDD6F8A41075
:103E40000B4806F09BF80A4806F048F81E21124875
:103E500005F0AEFDD6F8A810054806F08FF8044826
:103E600006F03CF8052323607BE500BFA494FF1F08
:103E7000E487FF1F4493FF1FF894FF1FE81701001A
:103E80000C180100F8160100241801007814010034
:103E900044180100641801008418010005F05EFD5B
:103EA000002840F31383B248B24E06F0ABF908F095
:103EB00075FBB14908F0C6FB0346024696F8401070
:103EC000AE487364D4E405F00DFD05F047FD0546EA
:103ED0000028F8D1A648A74E06F000F8A44805F03F
:103EE000FDFFA34805F0FAFFA14805F0F7FFA04841
:103EF00005F0F4FF1F21A24805F05AFD9C4805F08B
:103F0000EDFF1C219F4805F053FD706A9E4908F0A3
:103F100099FB07F0EDFE009502460B46944806F02B
:103F200037F80221994805F043FD914805F0D6FF86
:103F30002321974805F03CFDF06B934908F082FB84
:103F400007F0D6FE009502460B46894806F020F899
:103F500002218E4805F02CFD854805F0BFFF192190
:103F60008C4805F025FDB06B07F0C2FE02250B461C
:103F7000024600957E4806F00BF82946864805F073
:103F800017FD7B4805F0AAFF1921844805F010FDB4
:103F9000B6F8B810764805F0F1FF0321804805F027
:103FA00007FD734805F09AFF07232360D9E405F065
:103FB00099FC05F0D3FC05460028F8D16C486D4EFD
:103FC00005F08CFF6A4805F089FF694805F086FF17
:103FD000674805F083FF664805F080FF15217148AA
:103FE00005F0E6FC624805F079FF18216E4805F0FF
:103FF000DFFC2B460A2296F840105D4805F07EFF54
:104000005B4805F06BFF2821684805F0D1FC706C17
:104010005D4908F017FB07F06BFE00950B46024662
:10402000534805F0B5FF0221584805F0C1FC50483F
:1040300005F054FF13215E4805F0BAFC4C4805F02A
:104040004DFF082323608CE405F04CFC05F086FC52
:1040500005460028F8D14648464E05F03FFF444843
:1040600005F03CFF424805F039FF414805F036FFB6
:104070003F4805F033FF11214E4805F099FC3C48BC
:1040800005F02CFF28214C4805F092FC70693E4950
:1040900008F0D8FA07F02CFE009502460B4634488B
:1040A00005F076FF0221394805F082FC304805F022
:1040B00015FF1621414805F07BFCF069324908F0F4
:1040C000C1FA07F015FE00950B460246284805F098
:1040D0005FFF02212D4805F06BFC254805F0FEFE30
:1040E000D6F8B030002B32DD1D21354805F060FCDC
:1040F000F06D08F053FA334908F0A4FA07F0F8FD20
:10410000022502460B460095194805F041FF0121A2
:104110002D4805F04DFC164805F0E0FE1F212B4808
:1041200005F046FC306E08F039FA264908F08AFAA4
:1041300007F0DEFD009502460B460D4805F028FF0E
:104140000121214805F034FC094805F0C7FE112182
:104150001F4805F02DFCD6F8B030052B00F256862E
:10416000DFE813F090068B0650069F069A06950628
:10417000E487FF1F4493FF1F6F12833AF894FF1FD9
:10418000441701006417010000007A44D0150100B3
:1041900084170100A8170100C4170100C817010007
:1041A000E4170100381E010088150100A415010064
:1041B000D4150100DC1D0100E815010014160100F2
:1041C0002C160100CDCCCC3DC81A01004C160100C4
:1041D0006C16010005F086FB05F0C0FB0028F9D144
:1041E000BF48C04E05F07AFEBD4805F077FEBC48DA
:1041F00005F074FEBA4805F071FEB94805F06EFE90
:104200001F21B94805F0D4FBB54805F067FE1E2113
:10421000B64805F0CDFBB24805F060FE1A21B4485F
:1042200005F0C6FBF36F022B00F02887032B00F08C
:104230001C87012B00F02B870921AE4805F0B8FB45
:10424000A74805F04BFE1421AB48A64F05F0B0FB84
:10425000B16FA34805F092FEA14805F03FFE1C2176
:10426000A64805F0A5FBD6F880109D4805F086FE0F
:104270009B4805F033FE1C21A14805F099FBD6F8B8
:10428000AC10974805F07AFE954805F027FEF56FCB
:1042900025F00205012D00F0A2861321994805F0B2
:1042A00087FB8F4805F01AFE02232360FFF759BBF6
:1042B00005F018FB05F052FB0028F9D1884805F0FD
:1042C0000DFE874805F00AFE854805F007FE844884
:1042D00005F004FE824805F001FE13218A4805F02E
:1042E00067FB7F4805F0FAFD0D21884805F060FB6B
:1042F0007B4805F0F3FD0F21854805F059FB854B00
:104300007748196805F03AFE754805F0E7FD132176
:10431000814805F04DFB814B7148196805F02EFE70
:104320006F4805F0DBFD12217D4805F041FB7D4B18
:104330006B48196805F022FE694805F0CFFD112190
:10434000794805F035FB794B6548196805F016FE8C
:10435000634805F0C3FD0E21754805F029FB614B4C
:104360005F48D3F8A01005F009FE5D4805F0B6FDE2
:104370001921704805F01CFB6F4B5948196805F06E
:10438000FDFD574805F0AAFD11216C4805F010FB12
:104390006B4B5348196805F0F1FD514805F09EFD3F
:1043A0001021684805F004FB674B4D48196805F07B
:1043B000E5FD4B4805F092FD1C21644805F0F8FA34
:1043C000634B4748196805F0D9FD454805F086FD5F
:1043D00013214C4805F0ECFA414805F07FFD042319
:1043E0002360FFF7BEBA05F0B9FA00287FF774AB77
:1043F0003B483C4E05F006FF65230122C6F8B40099
:1044000022602B601846FFF7A7B905F0A7FA00282D
:104410007FF762AB3248334E05F0F4FE08F0BEF889
:104420004C4908F0C3F965230122706122602B60BA
:104430001846FFF791B905F091FA00287FF74CABC9
:104440002748284E05F0DEFE08F0A8F8414908F09C
:10445000ADF965230122F06122602B601846FFF759
:104460007BB905F07BFA00287FF736AB1C481D4E60
:1044700005F0C8FE00EB8000430001226520F365D3
:1044800022602860FFF768B905F068FA00287FF716
:1044900023AB1348134E05F0B5FE00EB800043003C
:1044A00001226520336622602860FFF755B90D4A66
:1044B000D2F8B0300133052BC8BF0023C2F8B030AA
:1044C0006520012323602860FFF746B92368286828
:1044D000FFF720B9034E96F84000FFF7C0B900BFC0
:1044E000E487FF1F4493FF1F88190100A8190100EA
:1044F000C8190100401A01004C1A0100641A010099
:10450000841A0100D4150100A4180100B818010094
:10451000C81801008494FF1FD8180100EC94FF1FF5
:10452000EC180100D094FF1F00190100D494FF1F64
:104530001419010024190100A894FF1F401901005B
:10454000A494FF1F541901008492FF1F68190100F1
:104550007087FF1F00007A44FEF7DAFE23682868A0
:10456000FFF7D5B8724AD36F0133032BC8BF0023BE
:10457000D3670123632023602860FFF7EDB8012390
:10458000236005F0EBF90028F3DD6A48684E05F07A
:1045900039FEC6F8AC00ECE70123236005F0DEF934
:1045A000002807DD6348624E05F02CFE07F0F6FF99
:1045B000C6F89400632028602368FFF7ABB8012396
:1045C000236005F0CBF90028F4DD5A48584E05F079
:1045D00019FE07F0E3FFC6F89000EBE70123236024
:1045E00005F0BCF90028E5DD5248514E05F00AFE01
:1045F000A6F8BA00DEE74E4EB36FB3FA83F35B0959
:1046000001226320B36722602860FFF7A5B8484EF7
:10461000D6F88030B3FA83F35B0901226320C6F831
:10462000803022602860FFF797B8434A1368B3FAD6
:1046300083F35B0901216420136021602860FFF788
:104640008BB83E4AF2E73E4A3E4F1368002B0CBF40
:10465000012300234FF001001360206040F0EF843D
:10466000034664222A606420FFF751B8364ADDE72A
:10467000012336482360FCF773FF354A2368106036
:10468000EFE7344AD2E7344AD0E70123236005F04C
:1046900065F9002800F39B84304B1A68042AC4BFD4
:1046A00002221A6064232B602368DCE7204ED6F8D0
:1046B000A030B3FA83F35B0901226420C6F8A0306E
:1046C00022602860FFF748B805F048F900280DDDA2
:1046D0001848174E05F096FD07F060FF204908F0D6
:1046E00065F801226223306222602B6005F036F902
:1046F00000280EDD0F480E4E05F084FD07F04EFF3A
:10470000174908F053F801226223C6F8BC00226062
:104710002B6005F023F9002840F3D1830548044EAF
:1047200005F070FD01226223B06622602B601BE061
:104730004493FF1FE487FF1F8494FF1FEC94FF1F27
:10474000D094FF1F9892FF1FD494FF1FF894FF1F6F
:10475000A894FF1FA494FF1F8492FF1F7087FF1F60
:1047600000007A4405F0BEF805F0F8F80546002888
:10477000F8D1C24805F0B2FBC04805F0AFFBBF4816
:1047800005F0ACFBBD4805F0A9FBBC4805F0A6FB55
:104790001521BB4805F00CF9B84805F09FFB142122
:1047A000B84805F005F9B54805F098FB1B21B64857
:1047B00005F0FEF8B14805F091FB1321B34805F070
:1047C000F7F8AE4805F08AFBAC4805F087FBAB482C
:1047D00005F084FB2021AE4805F0EAF8F068AD4909
:1047E00007F030FF07F084FA009502460B46A34815
:1047F00005F0CEFB0221A84805F0DAF80221A7480F
:1048000005F0D6F89D4805F069FB2121A44805F084
:10481000CFF830699F4907F015FF07F069FA009556
:1048200002460B46954805F0B3FB02219A4805F075
:10483000BFF80221994805F0BBF8904805F04EFBFF
:104840001F21984805F0B4F8B06A07F051FA022722
:1048500002460B460097894805F09AFB01219248D1
:1048600005F0A6F839468D4805F0A2F8834805F012
:1048700035FB20218D4805F09BF8F06A07F038FAE7
:10488000009702460B467D4805F082FB01218648D1
:1048900005F08EF83946814805F08AF8774805F02A
:1048A0001DFB2321824805F083F8B06C794907F09D
:1048B000C9FE07F01DFA009502460B466F4805F049
:1048C00067FB3946744805F073F83946734805F0BC
:1048D0006FF86A4805F002FB1F21764805F068F87A
:1048E000F06C6C4907F0AEFE07F002FA0095024644
:1048F0000B46624805F04CFB3946674805F058F80E
:104900003946664805F054F85C4805F0E7FA192185
:10491000694805F04DF8B16D584805F02FFB394650
:10492000664805F045F839465C4805F041F85348BB
:1049300005F0D4FA1821624805F03AF8706E07F0D5
:104940002DFE604907F07EFE07F0D2F9009702467F
:104950000B464A4805F01CFB01215B4805F028F88E
:1049600039464E4805F024F8444805F0B7FA2B21A3
:10497000564805F01DF8B069464907F063FE07F098
:10498000B7F9009502460B463C4805F001FB394655
:10499000414805F00DF83946404805F009F8374818
:1049A00005F09CFA1F214A4805F002F8716D334862
:1049B00005F0E4FA3946394804F0FAFF2F4805F0CB
:1049C0008DFA2021434804F0F3FF316D2B4805F0A8
:1049D000D5FA3946314804F0EBFF284805F07EFA55
:1049E00010213D4804F0E4FFB16E244805F0C6FAFA
:1049F0003946294804F0DCFF3946284804F0D8FF3E
:104A00001E4805F06BFA1321344804F0D1FFF16E13
:104A10001A4805F0B3FA0121314804F0C9FF3946BC
:104A20001E4804F0C5FF154805F058FA10212D481E
:104A300004F0BEFF316F114805F0A0FA3946164860
:104A400004F0B6FF3946154804F0B2FF0B4805F0F4
:104A500045FA1421244804F0ABFF716F074805F0B4
:104A60008DFA01211E4804F0A3FF39460B4804F0DB
:104A70009FFF024805F032FA162137E0E487FF1F56
:104A8000101B0100281B0100401B0100D415010070
:104A90005C1B010000007A44D0150100F41E0100E7
:104AA000801B0100A41B0100A8110100C41B010010
:104AB000E81B01000C1C01002C1C0100481C01001B
:104AC0004C1C0100CDCCCC3DC81A0100681C010073
:104AD000941C0100B41C0100D81C0100EC1C010056
:104AE000001D0100041D0100181D0100BA4804F05A
:104AF0005FFF306AB94907F0A5FD07F0F9F80095A6
:104B000002460B46B64805F043FA3946B54804F06C
:104B10004FFF3946B44804F04BFFB14805F0DEF9C9
:104B20002421B24804F044FFD6F8BC00AB4907F09A
:104B300089FD07F0DDF800950B460246A84805F010
:104B400027FA3946A74804F033FF3946A64804F04F
:104B50002FFFA34805F0C2F9A14805F0BFF90323D0
:104B60002360FEF7FEBE04F0F9FE002840F3A781A3
:104B70009B489F4E05F046FB01226223F0662260AF
:104B80002B60F1E50022732322602B60FEF788BEC4
:104B900004F0E4FE002840F392819148944E05F021
:104BA00031FB01226223306722602B60DCE504F0D8
:104BB000D5FE002840F3838189488D4E05F022FB05
:104BC00001226223706722602B60CDE5894B864805
:104BD000874E002202211A6004F0EAFE804805F0A8
:104BE0007DF90B21844804F0E3FE02217E4804F0A5
:104BF000DFFE7B4805F072F90122622322602B6000
:104C0000B2E5FDF76BF802217748794E04F0D0FE4B
:104C1000734805F063F90221734804F0C9FE704837
:104C200005F05CF90221704804F0C2FE6C4805F002
:104C300055F91721714804F0BBFE694805F04EF99B
:104C4000D3E704F08BFE002840F339816448684EB6
:104C500005F0D8FA07F0A2FC01226223B0622260BC
:104C60002B6081E504F07AFE002840F328815C483F
:104C70005F4E05F0C7FA07F091FC01226223F06253
:104C800022602B6070E504F069FE002840F3178174
:104C90005348574E05F0B6FA07F080FC4F4907F02D
:104CA00085FD01226223B06422602B605CE504F084
:104CB00055FE002840F3038149484D4E05F0A2FA05
:104CC00007F06CFC454907F071FD01226223F06496
:104CD00022602B6048E504F041FE002840F3EF809D
:104CE0003F48434E05F08EFA01226223B0652260F0
:104CF0002B6039E504F032FE002840F3E0803848AC
:104D00003B4E05F07FFA00EB800043000121622258
:104D1000736621602A6027E504F020FE002840F336
:104D2000CE802F48324E05F06DFA07F037FC2B4944
:104D300007F03CFD01226223B06122602B6013E585
:104D400004F00CFE002840F3BA802548284E05F0F8
:104D500059FA01226223306522602B6004E504F0D9
:104D6000FDFD002840F3AB801D48214E05F04AFAB6
:104D700007F014FC194907F019FD01226223F060C5
:104D800022602B60F0E404F0E9FD002840F39780F6
:104D90001348174E05F036FA07F000FC0F4907F0EC
:104DA00005FD01226223306122602B60DCE4C42215
:104DB00000210F4802F02CFF2868114AA0F173006F
:104DC00001210023B0FA80F0400911602360FEF752
:104DD00065BD04F0B7F800BF301D010000007A4443
:104DE000E487FF1FD0150100F41E0100481D0100DB
:104DF0004493FF1F7892FF1F7C150100641501008A
:104E00004887FF1F0C21B94804F0D2FDB848B94DBE
:104E100005F064F8D6F8B030002B0FDD1821B64845
:104E200004F0C6FDD5F8B410B14805F0A7F802218A
:104E3000B24804F0BDFDAE4805F050F8AC4805F0AE
:104E40004DF81B21AE4804F0B3FD96F8C030012B9D
:104E500015BF12211421AB48AB4804F0A9FDA448AA
:104E600005F03CF81321A94804F0A2FDA04805F084
:104E700035F806232360FEF774BD0C21A44804F026
:104E800097FDC3E70D21A34804F092FDBEE70B2177
:104E9000A14804F08DFDB9E70D21A04804F088FD7C
:104EA000B4E70D219E4804F083FDAFE72368002B93
:104EB00008BF73280CBF01200020FEF7EFBC236859
:104EC0002868012B7EF4E4ACFEF746BC04F046FDF6
:104ED00000287EF771AD8648864E05F093F907F0FD
:104EE0005DFB61230122B06322602B601846FEF750
:104EF00033BC04F033FD00287EF75EAD7C487D4E68
:104F000005F080F907F04AFB864907F09BFB612317
:104F10000122706222602B601846FEF71DBC04F06F
:104F20001DFD00287EF748AD7148724E05F06AF904
:104F300061230122A6F8B80022602B601846FEF714
:104F40000BBC04F00BFD00287EF7DEAD6848694E0F
:104F500005F058F9744BC6F8A40002221A60FDF758
:104F600023FA01226B2322602B60FEF71DBF04F0A1
:104F7000F5FC00287EF7C8AD5D485E4E05F042F9AD
:104F800001226B23C6F8840022602B60FEF70CBF61
:104F900004F0E4FC00287EF7B7AD5548554E05F007
:104FA00031F9614BC6F8A8000322D7E704F0D6FC1C
:104FB00000287EF7A9AD4E484E4E05F023F9012298
:104FC0006B23C6F8880022602B60FEF7EDBE4848D0
:104FD00005F018F9554B02461860FFF75FBB1C211E
:104FE000534804F0E5FCD7F89400524907F02AFB37
:104FF00006F07EFE009502460B463D4804F0C8FFD1
:1050000005214D4804F0D4FC394804F067FFFD6FDA
:10501000012D45D0032D7FF440A91C21474804F001
:10502000C7FCB6F8BA10324804F0A8FF0321444880
:1050300004F0BEFC2E4804F051FFFFF72EB9414B9F
:10504000002631460B201E6003F0AEF831460C20DE
:1050500003F0AAF83146142003F0A6F831461520D3
:1050600003F0A2F83B68FFF7FCBA2021364804F0B1
:105070009FFC1F4804F032FFFFF7E5B817213348C3
:1050800004F096FC1A4804F029FFFFF7DCB81E2153
:105090002F4804F08DFC164804F020FFFFF7D3B82A
:1050A0001D212C4804F084FCD7F89000214907F01A
:1050B000C9FA06F01DFE00950B4602460C4804F0A6
:1050C00067FF05211C4804F073FC094804F006FF43
:1050D000FB6F23F00203012B9FD0FFF7DEB8054ED4
:1050E000FFF742BB034EFEF75FBE00BFA0160100F4
:1050F000E487FF1F4493FF1FDC160100F816010030
:10510000FC160100181701002C170100D41501002E
:105110009016010080160100D0160100C016010093
:10512000B01601006F12833AA494FF1F7087FF1F0F
:10513000A41A0100CDCCCC3DC41A0100EC1A010028
:105140000C1B0100E894FF1F041A0100281A01003B
:10515000E4190100CC1A010038B5164C164A236830
:10516000101D12F8011F904241EA0323F9D1236078
:10517000124C03F100432360114BDB6F022B11D063
:10518000104B1B68012B00D038BD0F4804F0A6FE61
:1051900021680D4804F0F2FE03210C48BDE83840B8
:1051A00004F006BC20680A4D07F0F8F92860FDF706
:1051B0003BFBE5E71094FF1F9B94FF1FB894FF1F74
:1051C0004493FF1F8494FF1FE487FF1F841E010088
:1051D0007C92FF1F30B5384C384883B0214601F02F
:1051E00035FD23683C2B4DD06FF480721344FE2BA9
:1051F00008D8334B30491A683248012A18BF0022B8
:10520000FCF7D4F9304B1B68012B01D003B030BD43
:105210002B4B1B68012BF9D12C4B2D481B6801939C
:105220000A220023019904F069FE2268224B002A19
:10523000DB793ADB2749284808F0E2F9264808F0EC
:105240001FFA0146244804F0B3FB25681A4B15F0F9
:1052500080451BD1DB798BB1631920491A7A1E482E
:1052600008F0CEF91C4808F00BFA01461A4804F081
:105270009FFB0135E379EDB2AB42EDD8144804F061
:105280002DFEC3E7FFF768FF2368ADE7144D124C0E
:105290000FCD0FC495E8030044F8040B204620F816
:1052A0001419152104F084FBE8E70E490A4822F09E
:1052B000604208F0A5F9C1E79494FF1F68CAFF1F78
:1052C0008494FF1FF894FF1F4887FF1F10CCFF1F17
:1052D000E487FF1FB01E01009C92FF1FDC1E01002F
:1052E000C41E0100881E01002DE9F84F9A4B9B4C0B
:1052F0001B78052B08D09A48FCF7E4FAE16A07F01E
:105300003FFB002800F09380964E974D00233360BA
:105310002B60964B92481B68904F012B45D0FCF7B1
:105320008BFAE1698046606907F082F801464046E1
:1053300007F044FB00284CD18948FCF77DFAE1686E
:1053400007F03CFB08B100232B608548834FFCF736
:105350004DFA216907F014FB58B1002333602B6824
:10536000814A002B01DBBDE8F88F00231360BDE804
:10537000F88F7B48FCF73AFAB96907F001FB00287F
:10538000EBD17748FCF732FAD7F8BC100446B8697D
:1053900007F050F80146204607F010FB002873D0B4
:1053A000786E30600028D8DBD9E7FCF745FAE16970
:1053B0008046206A07F03CF80146404607F0FEFAB6
:1053C0000028B9D06648FCF737FAD7F82090834612
:1053D00005E06348FCF730FAD7F814908346F96982
:1053E000484607F025F88246F86D07F0D7F8804662
:1053F000386E07F0D3F8414607F01AF851460746D1
:10540000584607F015F80146384607F01BF9514693
:105410000746484607F00CF80146384607F0C6F93B
:10542000414607F007F807F0E9FA286084E74C489E
:10543000FCF748FA216B07F0A3FA002849D0494E3F
:10544000636E47483360FCF73DFA8146E06DE76ADA
:10545000454D07F0A3F839468046484606F0E8FF78
:105460000146404607F0EEF839468046206B06F0CC
:10547000DFFF0146404607F099F9002106F0DAFF08
:1054800007F0BCFA286044E73548FCF7AFF98146DD
:10549000F86DBC6907F082F821468046484606F060
:1054A000C7FF0146404607F0CDF8D7F8BC1080464C
:1054B000204606F0BFFF214606F0BAFF01464046EF
:1054C00007F074F9002106F0B5FF07F097FA306095
:1054D00068E72348FCF7F6F9616B07F051FA30B141
:1054E000204E214D626EE36D32602B6011E71C4847
:1054F000FCF7E8F9A16A07F043FA00283FF404AF8B
:105500001748184E184DFCF7DDF98146606ED4F847
:10551000348007F043F841460746484606F088FFC6
:1055200039468146002006F083FF0146484607F0D1
:1055300089F841468146A06A06F07AFF014648464E
:1055400007F034F9394606F075FF07F057FAE36DB6
:1055500030602B60DDE600BFB094FF1F4493FF1F57
:10556000F894FF1FBC94FF1F6492FF1F8092FF1FDF
:1055700008B5274804F0B2FC0721264804F018FAC1
:10558000112002F017FE0621F8B1234804F010FAAA
:10559000102002F00FFE062100B3204804F008FAA4
:1055A000122002F007FE062108B31D4804F000FA9D
:1055B000132002F0FFFD062110BB1A4804F0F8F991
:1055C0001348BDE8084004F089BC174804F0F0F91E
:1055D000102002F0EFFD06210028DED1134804F070
:1055E000E7F9122002F0E6FD06210028DDD110487F
:1055F00004F0DEF9132002F0DDFD06210028DCD0E6
:105600000C4804F0D5F90248BDE8084004F066BC37
:10561000E487FF1FE81E0100F01E0100001F0100CB
:10562000101F0100281F0100F81E0100081F0100C3
:10563000181F0100201F010010B5254C2368042B02
:1056400027DC01210B2002F0AFFD01210C2002F02C
:10565000ABFD0121142002F0A7FD0121152002F06D
:10566000A3FDFF21162002F01FFCFF21172002F0EE
:105670001BFCFF21052002F017FCFF21062002F091
:1056800013FC236801330A2B2360C4BF002323606B
:1056900010BD00210B2002F087FD00210C2002F03C
:1056A00083FD0021142002F07FFD0021152002F06F
:1056B0007BFD0021162002F0F7FB0021172002F0ED
:1056C000F3FB0021052002F0EFFB0021D6E700BF2D
:1056D000F094FF1F2DE9F047294F2A4C00264FF088
:1056E0000808102346F0800A00254FF0200C4FF0E8
:1056F000400E17F8012F2349234884F807804FF004
:10570000C7090136C4F800A084F808906372E372F8
:10571000A572657384F80CC084F80EE0E27301F0A2
:105720009DFB082EDDD1194E022002F079FD45F0D7
:10573000800A002250234FF0100C4FF0200E4FF043
:10574000080916F8017F0F490F4884F809C04FF087
:10575000C708A2726273E372A37384F80CE0C4F802
:1057600000A0013584F8079084F80880E77301F001
:1057700075FB022002F054FD4D45D5D1BDE8F08700
:105780003B87FF1FD894FF1F68CAFF1F2F87FF1F8B
:1057900010B5092182B0974803F020F8222002F0CA
:1057A000C5FF954B1B78052B0BD8DFE813F00A01DA
:1057B0000F01140119011E01060007218F4803F093
:1057C0000DF8222002F0B2FFFF2002F0AFFFFF2011
:1057D00002F0ACFF8A4CFF2002F0A8FF08218948A4
:1057E00002F0FCFF2168884804F0C8FBFF2002F0AB
:1057F0009DFFFF2002F09AFFFF2002F097FF092192
:10580000824802F0EBFF21687F4804F0B7FBFF20DD
:1058100002F08CFFFF2002F089FFFF2002F086FFDC
:105820000C217B4802F0DAFF7A4B1C6800212046ED
:1058300007F0C4F8002800F0C1802046764906F041
:10584000B5FF06F055FA002402460B4600946E4858
:1058500004F09EFBFF2002F069FFFF2002F066FFCC
:10586000FF2002F063FF09216C4802F0B7FF6C488B
:10587000FCF728F806F03CFA009402460B46624812
:1058800004F086FBFF2002F051FFFF2002F04EFFE4
:10589000FF2002F04BFF0C21624802F09FFF60489E
:1058A000FCF76EF806F024FA009402460B465648C0
:1058B00004F06EFBFF2002F039FFFF2002F036FFFC
:1058C000FF2002F033FF0D21574802F087FF5448B4
:1058D000FCF754F806F00CFA009402460B464A48CE
:1058E00004F056FBFF2002F021FFFF2002F01EFF14
:1058F000FF2002F01BFF09214C4802F06FFF4848CF
:10590000FBF7BEFF06F0F4F9009402460B463E4852
:1059100004F03EFBFF2002F009FFFF2002F006FF2B
:10592000FF2002F003FF0C21414802F057FF3C48E2
:10593000FBF75CFF384906F085FE06F0D9F90094C4
:1059400002460B46304804F023FBFF2002F0EEFE37
:10595000FF2002F0EBFEFF2002F0E8FE0D213548AB
:1059600002F03CFF2E48FBF767FF2B4906F06AFE6A
:1059700006F0BEF9009402460B46234804F008FBEB
:10598000FF2002F0D3FEFF2002F0D0FEFF2002F045
:10599000CDFE0921284802F021FF284B1A4819683A
:1059A00004F0ECFAFF2002F0C1FEFF2002F0BEFE80
:1059B000FF2002B0BDE8104002F0B8BE04F1004084
:1059C0003CE706211E4802F009FFFAE607211D48C0
:1059D00002F004FFF5E607211B4802F0FFFEF0E6A7
:1059E00008211A4802F0FAFEEBE60B21184802F0F3
:1059F000F5FEE6E6301F0100B094FF1F0014010021
:105A00003887FF1F3C1F0100D487FF1F481F01007C
:105A1000541F01008C92FF1F00007A44641F010094
:105A2000F894FF1F701F0100801F0100901F0100EC
:105A30009C1F0100AC1F0100BC1F01002087FF1F3D
:105A4000D0130100D8130100EC130100F41301007E
:105A5000E01301002DE9F0418D4DD5F8B030042B55
:105A60003ED0032B6ED0012B00F09880022B01D08A
:105A7000BDE8F081874C8848237240F20E32012342
:105A800021462260E37101F0E9F9844B1B685B0059
:105A9000FF2BC8BFFF23042140224FF44170206038
:105AA000E17122726372286D06F078FD696906F073
:105AB000C9FD7B49054606F081FF002800F0DE8025
:105AC0002946284606F0B6FC06F0BEFF80B2031257
:105AD000E072A3726F497048BDE8F04101F0BEB9B1
