:1000000000800020BD010000E9920000A1920000E4
:10001000A1920000A1920000A1920000A192000014
:10002000A1920000A1920000A1920000E9920000BC
:10003000E9920000A19200007DB8000081B80000A4
:10004000E9920000E9920000E9920000E9920000C4
:10005000E9920000E9920000E9920000E9920000B4
:10006000E9920000E9920000E9920000E9920000A4
:10007000E9920000E9920000E9920000E992000094
:10008000E9920000E9920000E9920000E992000084
:10009000E9920000E9920000E9920000E992000074
:1000A000E9920000E9920000E9920000E992000064
:1000B000E99200002986000035860000398600009C
:1000C00045860000498600004D860000E992000048
:1000D000E9920000E9920000E9920000E992000034
:1000E000E9920000E9920000E9920000E992000024
:1000F000E9920000E9920000E9920000ADA1000041
:10010000E9920000C1A80000E9920000E992000015
:10011000E9920000E9920000E9920000E9920000F3
:10012000E9920000E9920000E9920000E9920000E3
:10013000E9920000E9920000E9920000E9920000D3
:10014000E9920000E9920000E9920000E9920000C3
:10015000E9920000E9920000E9920000E9920000B3
:10016000E9920000B1AB0000E9920000E9920000C2
:10017000E9920000E9920000E9920000E992000093
:10018000E9920000E9920000E9920000E992000083
:10019000E9920000E9920000E9920000E992000073
:1001A000E9920000E9920000E9920000E992000063
:1001B000E9920000E9920000E9920000564B4CF2EF
:1001C000205210B51A804DF628121A8000BF00BFC9
:1001D00009F08EF8514B4FF010621A60504A9A6045
:1001E000504ADA60504A136813F4807304D14F49BF
:1001F0000B604FF4A85313604D4B1A78110703D5C9
:100200001A7842F008021A704A4B4B492A221A7097
:100210004A4A4B4B8B4204D252F8040F43F8040B6A
:10022000F8E7484B484900228B4202D243F8042B9E
:10023000FAE74649464A002352F8230041F82300D2
:1002400001336F2BF8D1434B434A802103F8011B44
:100250009342FBD1414B3D4A1A60414B8A221A70AE
:10026000A3F5805324225A70A0221A709A7992071B
:10027000FCD59A79D406FCD43A4A937903F00C035E
:10028000082B384BF9D103221A7140225A719A79FE
:100290009006FCD5334A9179324B4906FBD5324A58
:1002A000324911600221516020221A709A7902F0BD
:1002B0000C020C2AFAD12E4B2E4A1A602E4B2F4AD2
:1002C0001A6000225A60072243F8042C2C4AC3F813
:1002D0000C2D62B609F042FB144B1B68DA0705D5FA
:1002E000284809F01DF9284B284A1A60284B1B782A
:1002F0005B0609D5244C254B22689A4204D121483B
:1003000009F00EF90023236008F0F8FF0DF09EFAC3
:100310000BF0C8FDFEE700BF0E2005403080044012
:10032000823F04000100002B10D0034014D0034092
:1003300002D0074000E007404894FF1FB03401009E
:100340002087FF1F4894FF1FE4D5FF1F0082FF1F77
:100350000000000000E400E05FE400E008ED00E0E1
:100360000050064000400640448004400000030165
:1003700004800440C010050014E000E0FF76010096
:1003800000002020A1AB73621CE00340A5C3945A77
:1003900000F00740FFFFFFFFFFFFFFFFFFFFFFFF32
:1003A000FFFFFFFFFFFFFFFFFFFFFFFFFFFFFFFF5D
:1003B000FFFFFFFFFFFFFFFFFFFFFFFFFFFFFFFF4D
:1003C000FFFFFFFFFFFFFFFFFFFFFFFFFFFFFFFF3D
:1003D000FFFFFFFFFFFFFFFFFFFFFFFFFFFFFFFF2D
:1003E000FFFFFFFFFFFFFFFFFFFFFFFFFFFFFFFF1D
:1003F000FFFFFFFFFFFFFFFFFFFFFFFFFFFFFFFF0D
:10040000FFFFFFFFFFFFFFFFFFFFFFFFDEF9FFFF23
:1004100010B5054C237833B9044B13B10448AFF33E
:1004200000800123237010BD4894FF1F00000000CE
:10043000AC340100084B10B51BB108490848AFF3B4
:1004400000800848036803B910BD074B002BFBD0A0
:10045000BDE81040184700BF000000004C94FF1F8B
:10046000AC3401004894FF1F00000000F0B400F11C
:100470002C06174F00243146031F00F15C0243F89D
:10048000044FB34241F8047F4FF0000542F8044F97
:10049000F5D100230F4A1049C0F89050C0F894508D
:1004A000C0F89850C0F89C50C0F8A050C0F8B050A8
:1004B000C0F8A420C0F8AC20C0F8A81080F8B8306C
:1004C00080F8B93080F8D030C0F8DC30F0BC70472C
:1004D0000000A040000048430000C8C210B4031F41
:1004E000002400F12C0143F8044F8B424FF000022E
:1004F000F9D10023C0F89020C0F89420C0F89820CB
:10050000C0F89C20C0F8A020C0F8E03080F8B830D7
:1005100080F8B93080F8D03010BC70472DE9F04138
:100520008046CE1D00F1900400F1A00716F8010FDF
:1005300028380CF099FD094944F8040F05460CF0E1
:10054000A3FF38B1B8F9E4000CF08EFD29460CF099
:10055000D7FC2060BC42E9D1BDE8F081000020C298
:100560002DE9F043814685B0144604292BD8DFE8F5
:1005700001F0798EBB035100637A3F2B09D8207AB2
:1005800000EB03200CF070FD75490CF075FEC9F806
:100590001800E37A3F2B09D8A07A00EB03200CF077
:1005A00063FD6F490CF068FEC9F81C00637B3F2BAC
:1005B00009D8207B00EB03200CF056FD68490CF0B5
:1005C0005BFEC9F8200009F15C08464609F12C05DC
:1005D000A9F1040757F8044F55F8040F21460CF011
:1005E00053FF30B1D9F8B41020460CF043FF00B1EE
:1005F0002C6056F8041F20460CF046FF594920B1E4
:1006000020460CF041FF00B134604545E2D105B011
:10061000BDE8F083637A3F2B09D8207A00EB0320F2
:100620000CF022FD4E490CF027FEC9F82400E37AB5
:100630003F2B09D8A07A00EB03200CF015FD4849A8
:100640000CF01AFEC9F82800637B3F2BBBD8207B37
:1006500000EB03200CF008FD41490CF00DFEC9F839
:100660002C00B0E7607A227AA37AE17A02EB0022CA
:1006700002EB034303EB0163C9F8DC30637B227BAD
:100680001B0203F470631344C9F8D8309BE7627A05
:1006900003933F2A0CD8207A00EB02200CF0E4FCF4
:1006A0002F490CF0E9FD039BC9F80000012B44D051
:1006B000E37A3F2B09D8A07A00EB03200CF0D4FC9E
:1006C00027490CF0D9FDC9F80400637B3F2B3FF6A6
:1006D0007AAF207B00EB03200CF0C6FC20490CF025
:1006E000CBFDC9F808006EE7637A3F2B09D8207A62
:1006F00000EB03200CF0B8FC19490CF0BDFDC9F863
:100700000C00E37A3F2B09D8A07A00EB03200CF011
:10071000ABFC13490CF0B0FDC9F81000637B3F2B14
:100720003FF651AF207B00EB03200CF09DFC0C4901
:100730000CF0A2FDC9F8140045E70B480BF018FABD
:10074000D9F800000CF03AF8022502460B46009555
:1007500005480BF069FA04480BF00AFAA8E700BF55
:1007600000007A440000A040E489FF1F90F8C00018
:10077000704700BF90F8BC00704700BF90F8C400FD
:10078000704700BF90F8C800704700BF0C2994BFA5
:1007900050F82100002070472DE9F0410B4E8046B3
:1007A000041F00F12C0754F8045F314628460CF072
:1007B0004DFE30B1D8F8B41028460CF065FE00B1FB
:1007C0002E46BC42EFD13046BDE8F081000020410A
:1007D0002DE9F041D0F8B4704FF00008041F00F18B
:1007E0002C0654F8045F394628460CF04DFE0849A3
:1007F00048B128460CF02AFE414620B128460CF0AC
:1008000043FE00B1A846B442EBD14046BDE8F081BA
:100810000000A0402DE9F047D0F8B47082464FF0B8
:100820000009041F00F12C064FF0000854F8045F83
:10083000394628460CF028FE0C4950B128460CF0E9
:1008400005FE30B1484629460CF05AFB08F1010874
:100850008146B442EAD1CAF8D48040460CF004FC88
:10086000014648460CF008FDBDE8F0870000A040B6
:10087000D0F8D400704700BFD0F8D800704700BF50
:1008800038B5D0F89850D0F89440294620460CF05E
:10089000DDFD00B92C46204638BD00BF38B5D0F884
:1008A0009850D0F89440294620460CF0EDFD00B950
:1008B0002C46204638BD00BF70B5D0F89440124990
:1008C000054620460CF0E0FDD0B1204600210CF09A
:1008D00017FB01240646D5F898500B4928460CF022
:1008E000D3FD28B1304629460CF00AFB01340646F8
:1008F00020460CF0B9FB014630460CF0BDFC70BD43
:1009000000260446E7E700BF000020C22DE9F843B7
:100910000026D0F8B480C0F890608146041F00F132
:100920002C0754F8045F414628460CF0ADFD0949F8
:1009300050B128460CF08AFD30B1304629460CF003
:10094000DFFA0646C9F89000BC42EAD13046BDE85D
:10095000F88300BF0000A04003299ABF00EB81008C
:10096000D0F89400002070473E2998BF80F8D0103E
:10097000704700BFD0F8DC00704700BF90F8B800A7
:10098000704700BF90F8B900704700BFC0F8CC10A6
:10099000704700BF80F8B810704700BF80F8B910EA
:1009A000704700BFC0F8B410704700BFA0F8E41053
:1009B000704700BF70B500F565550646043500F177
:1009C0002C042046E834FFF751FDAC42F9D106F57E
:1009D0008A75012428460021FFF7DCFF21462846BE
:1009E0000134FFF7C1FF3F2C05F1E805F2D143F6D2
:1009F0004C1400250548064A064B35550021706108
:100A0000B161F2613362304670BD00BF00007A44CC
:100A1000000048430000C8C270B500F565560436B2
:100A200000F58A74002507E0012520460021E834FE
:100A3000FFF7B4FFB4420AD02046FFF79FFF00281B
:100A4000F3D02046FFF79EFF0028EDD170BD284669
:100A500070BD00BF70B500F592560C3600F58A7473
:100A600002E0E834B4420CD02046FFF787FF054689
:100A70000028F6D02046FFF77DFFC307F1D52846B2
:100A800070BD0025284670BD2DE9F04143F6501396
:100A900000F56556374600228046C25004361037AE
:100AA00000F58A7402E0E834B4420DD02046FFF726
:100AB00065FF0028F7D020463D68FFF7D9FEE834EF
:100AC0002844B4423860F1D143F6501358F803007B
:100AD000BDE8F08138B500F58A74012504E00135E0
:100AE0003F2D04F1E80414D02046FFF747FF00280B
:100AF000F5D02046FFF7F2FC20460021FFF74AFF21
:100B0000294620460135FFF72FFF3F2D04F1E80469
:100B1000EAD138BD43F64813C058704738B50C6861
:100B200004F00F04E825013405FB04002C301546C1
:100B30001A46FFF7F3FC012D00D038BD06480BF034
:100B400017F8214604480BF067F80B210348BDE86D
:100B500038400AF06DBD00BFE489FF1F0017010097
:100B60002DE9F0410E68044606F00F0006F0F0068D
:100B7000302E0F46904600F101053CD019DC16B12D
:100B8000202E31D10126072D1BD9E82303FB054474
:100B90002C3420460121FFF7FDFE20460121FFF7FE
:100BA000FDFE43463A4631462046BDE8F041FFF798
:100BB000D7BC402E1DD0502E16D1072D4FF0040665
:100BC000E3D8B8F1010FE0D129460C480BF024F826
:100BD00041460B480AF02CFD314608480BF01CF842
:100BE00006480AF0C5FFD0E7072DCED8042ECCDC8E
:100BF000E7E70326C7E70226C5E700BFE489FF1F32
:100C00000C1701002DE9F043002383B00646436032
:100C100000F58A74012504E001353F2D04F1E80454
:100C200066D02046FFF7AAFE0028F5D04E4806F011
:100C300085FF29464D4806F081FF2046FFF766FEF6
:100C40000BF0BCFD02460B46494806F077FF2046F4
:100C5000FFF7A2FD80462046FFF7BAFD0746404653
:100C60000BF0ACFD8046384689460BF0A7FD4246A6
:100C70004B46CDE900013F4806F060FF00212046C9
:100C8000FFF76AFE012180462046FFF765FE074612
:100C900040460BF093FD8046384689460BF08EFDAA
:100CA00042464B46CDE90001334806F047FF204657
:100CB000FFF72CFE014670680CF022F970602046A8
:100CC000FFF7DEFDF1690CF0C1FB002833D12046AF
:100CD000FFF7E4FD316A0CF0D7FB00289CD02046DA
:100CE000FFF7DCFD01353F2D306204F1E80498D1B7
:100CF000B0680CF0B9F9014670680CF0BDFAB16942
:100D0000706004460CF0C0FB00B1B461716920460C
:100D10000CF09CFB00B174610B2008F09BFD43F6C6
:100D20004C13F35C60B99BB143F64C130122F254AF
:100D300003B0BDE8F0832046FFF7A2FDF061C6E7EF
:100D400053B943F64C130022F25403B0BDE8F083CC
:100D50000A4806F021FFE7E7094806F007FF43F6D7
:100D60004C130022F254F0E7D81F010010170100C5
:100D70004C170100601701008C170100A817010033
:100D8000E017010070B5114BC36000F565550646CC
:100D9000043500F58A7402E0E834AC4213D02046F2
:100DA000FFF7ECFD0028F7D02046FFF7F5FCF168CF
:100DB0000CF04CFB0028EFD02046FFF7EDFCE834A8
:100DC000AC42F060EBD1F06870BD00BF0000A04005
:100DD00070B5002300F5655506460361043500F53E
:100DE0008A7402E0E834AC4213D02046FFF7C6FD17
:100DF0000028F7D02046FFF7EBFC31690CF044FBEC
:100E00000028EFD02046FFF7E3FCE834AC42306125
:100E1000EBD1306970BD00BF40687047017070470A
:100E2000816070472DE9F04100F565558846174609
:100E30001EB2043500F58A7402E0E834AC4213D0E7
:100E40002046FFF79BFD0028F7D020464146FFF7DC
:100E50009DFD20463946FFF7A5FD20463146E83482
:100E6000FFF7A4FDAC42EBD1BDE8F0812DE9F843DA
:100E700043F6481300F565550027C7502E462A4A09
:100E80002A4B826280464FF00009436204350836DF
:100E900000F58A7402E0E834A54213D02046FFF73B
:100EA0006DFD0028F7D03368013333602046FFF72B
:100EB00003FD1F490CF0E8FA88B9E834A54207F1B0
:100EC0000107EBD143F6481358F80300C01B0CF0A0
:100ED000CBF8014648460CF0CFF9BDE8F883204630
:100EE000FFF7EAFC014648460CF00AF88146204626
:100EF000FFF7D4FCD8F824100CF0C6FA70B92046DD
:100F0000FFF7BEFCD8F828100CF0A0FA0028C2D0D9
:100F10002046FFF7B5FCC8F82800BCE72046FFF7DD
:100F2000BDFCC8F82400EAE700C0794400C079C4D9
:100F300000008CC2406A7047806A7047F8B500F5BF
:100F4000655507460026043500F58A7402E0E8344A
:100F5000AC420FD02046FFF711FD0028F7D0204605
:100F6000FFF758FC014630460BF0CAFFE834AC42AC
:100F70000646EFD143F64813F8580CF075F80146D1
:100F800030460CF079F9F8BD2DE9F04F91B00446E8
:100F9000A3480D91154606F079FDA14806F076FDAF
:100FA0009F4806F073FD43F648132046E658FFF7C6
:100FB0006BFD81466068D4F808B00BF0FFFBCDE90B
:100FC0000E012046FFF7BAFF82462046D4F8108073
:100FD000E768FFF74BFF0BF0F1FBCDE90A0139465B
:100FE00040460BF08BFF8F490CF092F80BF0E6FBBC
:100FF000CDE9080140460BF0E1FBCDE9060138469A
:101000000BF0DCFBCDE9040150460BF0D7FBDDE92A
:101010000E23CDE90201CDE9002331465B464A4665
:10102000814806F033FD7E4806F030FD04F58A74F1
:101030004FF001084FF0000BA94607E008F1010846
:10104000B8F13F0F04F1E80400F0DE802046FFF71E
:1010500095FC0028F2D02046FFF788FB2046FFF7DA
:1010600089FB2046FFF78AFB2046FFF78BFB082110
:101070006E480AF0DDFA41466D480AF0CDFDB8F140
:10108000090F40F3C78002216A480AF0D1FA2046CE
:10109000FFF73CFC0BF092FB9DF8345000950246A4
:1010A0000B4663480AF0C0FD012163480AF0C0FA0C
:1010B000B9F1000F2DD1DA464E4620E006215F48F7
:1010C0000AF0B6FA51465A480AF0A6FD02215C48D9
:1010D0000AF0AEFA31462046FFF758FB0BF06EFBE4
:1010E000009502460B4652480AF09EFD013601214A
:1010F00051480AF09DFA0C2E00F08980BA46BAF1E8
:10110000090F0AF10107D9DC01214E480AF090FAD3
:10111000D4E7B9F1010F2ED1DA4600261FE00621EF
:1011200046480AF085FA514641480AF075FD022109
:1011300043480AF07DFA31462046FFF727FB0BF0C3
:101140003DFB009502460B4639480AF06DFD01361D
:10115000012139480AF06CFA082E0AD0BA46BAF1D1
:10116000090F0AF10107DADC012136480AF060FABA
:10117000D5E70BF1080B2E480AF0FAFC092132489A
:101180000AF056FA00212046FFF7E6FB0BF016FBAB
:10119000022502460B46009525480AF045FD0A2126
:1011A0002A480AF045FA01212046FFF7D5FB0BF04B
:1011B00005FB009502460B461D480AF035FD0C2143
:1011C00023480AF035FA2046FFF7D4FB002310220B
:1011D000014617480AF0E0FC08211E480AF028FAE8
:1011E0002046FFF749FB00230146102210480AF071
:1011F000D3FC08F101080E480AF0BAFCB8F13F0F21
:1012000004F1E8047FF422AF11B0BDE8F08F0BF1D8
:101210000C0BB0E701210B480AF00AFA33E700BFD4
:10122000D81F010000007A44901A0100301B010011
:10123000E489FF1FCC1E01003C1B0100401B010084
:10124000A41B0100E81F0100481B0100541B010002
:10125000601B0100701B01002DE9F04F85B000F507
:101260008A758A4603929B462E464FF0010806E097
:1012700008F10108B8F13F0F06F1E8067BD03046CF
:10128000FFF77CFB0028F3D000230A2251467D485B
:101290000AF082FC01217C480AF0CAF903980BF09D
:1012A0008DFA00230246009376480B460AF0BCFCF8
:1012B000012175480AF0BCF9594672480AF0ACFCA5
:1012C000012171480AF0B4F941466E480AF0A4FCC5
:1012D00001216D480AF0ACF900244FF002092146C3
:1012E0003046FFF753FA0BF069FACDF8009002464A
:1012F0000B4664480AF098FC0134012162480AF068
:1013000097F9082C4FF00207E9D100213046FFF78A
:1013100023FB0BF053FA009702460B4659480AF09C
:1013200083FC012158480AF083F901213046FFF778
:1013300013FB0BF043FA009702460B4651480AF0A4
:1013400073FC012150480AF073F939463046FFF723
:1013500003FB0BF033FA009702460B4649480AF0AC
:1013600063FC08F1010847480AF002FCB8F13F0F9E
:1013700006F1E80683D101274FF0000904E00137A8
:101380003F2F05F1E80579D02846FFF7F7FA002846
:10139000F5D000230A2251463C480AF0FDFB01210A
:1013A000394808F0AFFD03980BF008FACDF800902B
:1013B00002460B4635480AF037FC0121324808F056
:1013C000A1FD594631480AF027FC01212E4808F0BA
:1013D00099FD39462D480AF01FFC01212A4808F0E2
:1013E00091FD00244FF0020821462846FFF7CEF970
:1013F0000BF0E4F9CDF8008002460B4623480AF0D2
:1014000013FC01340121204808F07CFD082C4FF02A
:101410000206E9D100212846FFF79EFA0BF0CEF92B
:10142000009602460B4619480AF0FEFB01211648B9
:1014300008F068FD01212846FFF78EFA0BF0BEF98F
:10144000009602460B4611480AF0EEFB01210E48B9
:1014500008F058FD31462846FFF77EFA0BF0AEF94A
:10146000009602460B4609480AF0DEFB01370748A2
:101470000AF07EFB3F2F05F1E80585D105B0BDE8F8
:10148000F08F00BFE489FF1F0C170100B889FF1F10
:1014900010B5132008F0DEF9012815D008F0EEF998
:1014A0000F4B104A1B6812880F49C01A642303FBB4
:1014B00000F092B2B0FBF2F000EB8000C0EB001045
:1014C000C00080B2088010BD054C08F0D7F9236831
:1014D000044AC01A80B2108008F0D0F9206010BD14
:1014E00084D1FF1F10D1FF1F94D1FF1F0A4A0B495F
:1014F000106ED36D03FB00F34FF47A7000FB03F022
:10150000642310B50B600BF0AFFD0549054C0BF0E3
:10151000B3FE206010BD00BF30D0FF1F1088FF1F3A
:10152000E4388E3E70D1FF1F10B4019C521AA4EB18
:10153000030412D0401A002C04FB00F002EBD2711D
:1015400011DB00EB610101FB02F0002891FBF2F1DD
:101550000B4414DB184610BC704704EBD47003EB4B
:10156000600010BC7047A0EB610000FB02F1002995
:1015700090FBF2F01844EEDB013010BC7047581EAF
:1015800010BC704710B5074C20460AF0F1FA064B24
:10159000204619680AF040FB03210448BDE81040CA
:1015A0000AF046B8E489FF1F0495FF1F7C1B010069
:1015B00038B5044608460D460CF042FF2368024643
:1015C00029465B6820469847054620460AF0D0FA2F
:1015D000284438BD2DE9F8434848494E494F4A4C04
:1015E00006F054FA494B4A494A4A4B48596011257A
:1015F0001D704A4D4A49DA601E6100224FF4FA76A6
:101600009F619C62474F484C1D63484DD861D96229
:101610004FF07C5046499A639E863C220C26DF633D
:101620001C64444F444C5D65444DD86419650220E8
:101630000121A3F8A8209E65002264265F62C3F8FA
:10164000C8404FF4967732241D625D615D6440F6B8
:101650001C45587058721972D96583F848201E6667
:10166000DF665F669C664FF00A091D6741F2040859
:10167000C3F88020C3F88400C3F8D410C3F88820CE
:10168000C3F89040C3F8B0404FF05A0CC3F8AC20F8
:10169000C3F8B810C3F8BC004FF47A7EC3F8C0603A
:1016A000274F83F8CC1083F8CD10264E83F8CE2038
:1016B00041F28831A3F8D02044F6206540F2D6628A
:1016C000FF240520C3F87490C3F87880C3F87CC069
:1016D000C3F894E0C3F89870C3F89C60C3F8A450B2
:1016E000C3F8B440A3F8C600C3F88C10A3F8C41024
:1016F000A3F8A020A3F8A220BDE8F883801B010076
:101700000000404033338340CDCCCC3D30D0FF1F70
:1017100020A1070066668640CDCC4C40000020C169
:1017200000008242000020420000A0400AD7233D72
:101730009A997940333373409A99993ECDCC4C3E77
:101740000000684200C0204470B5464C464D4748F2
:10175000E66800232B70FFF73BFB014630460BF099
:1017600075FE08B104232B704048FFF70BFB21697D
:101770000BF06CFE18B12B7843F010032B703B4834
:10178000FFF7D8FBE16A0BF07FFE18B12B7843F02E
:1017900040032B70002335486B70FFF7CDFB216BA6
:1017A000314E0BF053FE08B10123737000232F4814
:1017B000EB70FFF70DFB05462C482B4EFFF7E2FAC6
:1017C000014628460BF09AFB616C0BF05DFE08B1F8
:1017D0000123F370264D254800232B70FFF7F8FAFC
:1017E000A16A0646E0680BF089FB014630460BF023
:1017F0004BFE08B104232B701C48FFF7C3FAA16A03
:10180000064620690BF07CFB014630460BF01EFEBD
:1018100018B12B7843F010032B701448FFF78AFBA4
:10182000216C0646E06A0BF069FB014630460BF07E
:101830002BFE18B12B7843F040032B7000230B488C
:101840006B70FFF779FB216C0546206B084C0BF0A1
:1018500057FB014628460BF0F9FD08B101236370E0
:1018600070BD00BF30D0FF1F14D0FF1F1496FF1FA4
:101870006894FF1F544B1B68002B74D0F0B5534D78
:101880002B680533B3F57A7F83B040F3858000235E
:1018900000272B604E4CD4F8B0000BF0E5FB064659
:1018A000D4F8B4000BF0E0FB31460BF027FB3946CF
:1018B0000BF02EFC47490BF0DFFC31460BF020FB10
:1018C0000BF0ECFD0146062007F03EFE02214248E7
:1018D00009F0AEFE41480AF04BF90621404809F0F4
:1018E000A7FE28680BF0C0FB3E490BF011FC0AF084
:1018F00065FF022602460B46009638480AF094F926
:101900000D21394809F094FED4F8B0000BF0ACFB7F
:10191000074628680BF0A8FB32490BF0F9FB054697
:10192000D4F8B4000BF0A0FB39460BF0E7FA0146FF
:1019300028460BF0EDFB27490BF09EFC39460BF0D7
:10194000DFFA0AF03BFF009602460B4623480AF0F6
:101950006BF93146204809F06BFE204803B0BDE822
:10196000F0400AF005B91A4B2048D3F8B020D3F85C
:10197000B4100368891A002903FB01F31C4914DB26
:10198000323381FB0310D917C1EB6011002B1144D6
:1019900016DB062007F0D8BD18462B600BF064FB61
:1019A00010490BF0B5FB074674E7323B81FB03108F
:1019B000D917C1EB6011002B0A4403DB511CE8E787
:1019C0000139E6E71146E4E79094FF1F08D1FF1FB5
:1019D00030D0FF1F0000C842CC1E0100E489FF1F69
:1019E000A01B0100CDCCCC3DA81B01001088FF1F1F
:1019F0001F85EB5170B5B648B64C84B00AF0B8F804
:101A0000B3480AF0B5F8B2480AF0B2F80D21B2486E
:101A100009F00EFED4F8AC30012B11D0AF4DAC481C
:101A2000297800230A220AF0B7F82B78052B6ED804
:101A3000DFE813F0920197019C01A101A601AB011F
:101A40000921A74809F0F4FDA648FFF79BF9216991
:101A50000BF0FCFC18B10F21A34809F0E9FDA148E7
:101A6000FFF7B6F9E1680BF00FFD18B10E219F48A2
:101A700009F0DEFD9B48FFF7ABF905469948FFF7F3
:101A800081F9014628460BF039FA616C0BF0FCFC39
:101A900018B11121964809F0CBFD9248FFF7E6F9FD
:101AA000E16A0BF0F1FC18B10C21924809F0C0FD7D
:101AB0008C48FFF7DBF9216B0BF0C8FC18B10D2146
:101AC0008D4809F0B5FD8D4B86481B68012B00F051
:101AD0009F81FFF757F921697E4D0BF0D5FC002857
:101AE00000F038817F48FFF773F9E9687B4D0BF010
:101AF000ADFC60B12B78052B00F0A0818048092156
:101B000009F096FD7F4B724819680AF085F80221AA
:101B10007D4809F08DFD122007F09CFE012800F0A1
:101B20003981112007F096FE012800F03D81774BA6
:101B30001C68012C00F0418102217348744C09F0AB
:101B400077FD744B624819680AF066F860480AF03D
:101B50000FF80421704809F06BFD0B2007F07AFEA6
:101B6000002301460A225A480AF016F80C2007F012
:101B700071FE002301460A2255480AF00DF8142090
:101B800007F068FE002301460A2251480AF004F8D3
:101B9000152007F05FFE0A22002301464C4809F099
:101BA000FBFF06215D4809F043FD2368DE074FF087
:101BB00001014CBF5A485B4809F03AFD2368980779
:101BC0004FF001014CBF5648564809F031FD2368DB
:101BD0005A074FF001014CBF5148524809F028FD07
:101BE00023681B074CBF4E484E48012109F020FDD9
:101BF00004214D4809F01CFD112007F02BFE0023A5
:101C000001460A22324809F0C7FF102007F022FEE1
:101C1000002301460A222E4809F0BEFF122007F0D9
:101C200019FE002301460A22294809F0B5FF1320B6
:101C300007F010FE0A2200230146254809F0ACFFF8
:101C400018213A4809F0F4FC394B18680BF00CFAEB
:101C500038490BF05DFA0AF0B1FD002402460B464C
:101C600000941B4809F0E0FF1D21334809F0E0FC17
:101C7000324B18680BF0F8F92E490BF049FA0AF0CC
:101C80009DFD00940B460246114809F0CDFF02214C
:101C90002B4809F0CDFC2B78032B02D0294B1B7865
:101CA000A3B11421284809F0C3FC284B188880B23E
:101CB0000BF0DAF926490BF02BFA0AF07FFD00242D
:101CC00002460B460094024809F0AEFF04B070BD16
:101CD000E489FF1F30D0FF1FB81B010020D0FF1F79
:101CE000C81B01001496FF1FD41B0100E41B010058
:101CF000F41B0100081C0100181C0100A094FF1F28
:101D0000581C01009894FF1FCC1E010028D1FF1F12
:101D100098D1FF1F6C94FF1FD01C0100D81C01003C
:101D2000E01C01004C2E0100E41C0100EC1C010031
:101D30008C94FF1FCDCCCC3D081D01008CD1FF1F22
:101D4000281D010080CFFF1F2C1D010094D1FF1F13
:101D50006F12833A3B4DDAE606213B4809F068FCF6
:101D6000D5E60721394809F063FCD0E60721384859
:101D700009F05EFCCBE60821364809F059FCC6E6BE
:101D80000B21354809F054FCC1E60721334809F01E
:101D90004FFCBCE60E21324809F04AFC112007F046
:101DA00059FD01287FF4C3AE0A212E4809F040FCFA
:101DB0002D4B1C68012C7FF4BFAE11212B4809F07C
:101DC00037FC21462A4809F033FC2A4B2A4A1B6873
:101DD0000393039B1068C01A0BF042F927490BF0DC
:101DE00097F90AF0EBFC002602460B4600962448C1
:101DF00009F01AFF21461E4809F01AFC214B204821
:101E0000196809F009FF2146194809F011FC93E609
:101E1000FEF7B8FF616A0BF037FB48B116211A488C
:101E2000084D09F005FC0A21184809F001FC6EE68E
:101E300008211748034D09F0FBFB68E60A21134807
:101E40005EE600BF20D0FF1F641C01006C1C010077
:101E5000801C0100881C0100741C0100941C0100FE
:101E60009C1C0100AC1C010028D1FF1FB81C010004
:101E7000CC1C01006CD3FF1F64D1FF1F6F12833A8B
:101E8000E489FF1F0895FF1F281C0100401C01006A
:101E90004C1C01002DE9F04F954CD4F88430012BF7
:101EA0008DB000F04981032B924F53D0924E934D49
:101EB000D4F880309248012B09BF2968296801F1C4
:101EC0000041296006F06EFF3368002B40F0C780A8
:101ED0008B4806F03DFFD4F884303860012B06466D
:101EE000834A00F0C98087490BF0CEFA78B9864959
:101EF00030460BF0ABFA50B9844A854B12680B920E
:101F00000B9A1A6000232B600DB0BDE8F08FDFF84C
:101F1000FC817F4CD8F800300A930A9823687D4FE3
:101F2000C01A0BF09DF831460BF0F2F87A490BF02D
:101F3000A3F979490BF0A0F939680AF0E1FFD8F864
:101F400000300993099B2360002338602B600DB09B
:101F5000BDE8F08FDFF8D881704DD8F80000664EEC
:101F6000012300220F212B6006F0A6FB2B68012B1A
:101F7000336800F00781002B40F08B81D8F80030E7
:101F8000DFF8B091D3F88400436B19698DB2C9F8BA
:101F9000005006F017FCB4F8A22040F6E44303FB1F
:101FA00005F1B1FBF0F0801A00B20BF05DF85C496E
:101FB000524D8246D4F898000BF0AAF801465046DC
:101FC0000BF05AF9D9F800302860632BDFF864A1D0
:101FD00000F3528100232B603368002B3FF468AF7D
:101FE0000221504809F024FBD8F80030D9F800202D
:101FF000D3F8840040F6E44303FB02F806F0E2FB6A
:10200000B8FBF0F00BF02CF88046B4F8A2000BF00F
:102010002BF8014640460AF071FF0AF0CFFB4FF063
:10202000020802460B46CDF800803F4809F0FCFD4F
:1020300041463C4809F0FCFA28680AF0BFFBCDF89D
:10204000008002460B46384809F0EEFD414637480D
:1020500009F0EEFA4146334809F0EAFA28E7284841
:1020600006F076FE0AF0AAFB022602460B46009610
:102070002D4809F0D9FD2BE7284B1B68012B00F0F8
:102080004181022B7FF43EAFD2F8A44020460AF0F3
:10209000EBFF014630460BF0F7F948B960420AF011
:1020A000E3FF014630460BF0D1F9002800F05981DA
:1020B000DFF85880164CD8F800300793079823684B
:1020C000144FC01A0AF0CCFF31460BF021F8124928
:1020D0000BF0D2F810490BF0CFF839680AF010FF76
:1020E000D8F800300693069B386023600AE700BFEB
:1020F00030D0FF1F18D0FF1F58D1FF1F88D1FF1FFE
:1021000034D1FF1F0000FA430000FAC36CD3FF1F55
:1021100010D0FF1F70D1FF1F00007A443088FF1FCE
:1021200017B7D138CC1E0100E489FF1F801D0100C4
:10213000A8D1FF1FB0D1FF1FAC4FD4F8A4603D68F9
:1021400030460AF091FF29460BF09EF948B17042E3
:102150000AF08AFF014628460BF096F900287FF422
:10216000F9AEDFF8C882A24DD8F80000A14E0223D4
:1021700000220E212B6006F09FFA2B68012B33689A
:102180007FF4F9AE002B40F0F380D8F80030DFF890
:10219000AC92D3F88400436B19691FFA81FBC9F82C
:1021A00000B006F00FFBB4F8A030934D40F6E44ABF
:1021B0000AFB0BFBBBFBF0F0C01A00B20AF054FFA5
:1021C0008E498346D4F89C000AF0A2FF0146584687
:1021D0000BF052F8D8F80020D9F800302860D2F877
:1021E00084000AFB03FA06F0EDFAB4F8A030BAFB5B
:1021F000F0F00FFA80FAC3EB0A03002BB4F8C62004
:10220000B8BF5B429342BCBF00232B603368002BF6
:102210003FF44EAE02217A4809F00AFAD8F80030AD
:10222000D9F80020D3F8840040F6E44303FB02F819
:1022300006F0C8FAB4F8A010B8FBF0F000B2411AEA
:10224000704809F0E9FC02216D4809F0F1F92868AD
:102250000AF0B4FA4FF0020802460B46CDF80080AF
:10226000684809F0E1FC0321674809F0E1F94146BB
:10227000634809F0DDF91BE6D8F80030D3F8840094
:1022800006F0A0FADAF8003064389842FFF4A2AE03
:10229000A2E65C48DFF8A491DFF890A109F068FCA1
:1022A0000C215A4809F0C4F90C21594809F0C0F929
:1022B000D8F800203368D2F88400426B11698DB2DF
:1022C000C9F80050002B3FF464AE06F07BFA40F6EC
:1022D000E44100230A2201FB05F1B1FBF0F149487A
:1022E00009F05AFC0221464809F0A2F9B4F8A210FC
:1022F000444809F091FCDAF80030D9F80050D3F8DE
:10230000840046E643490BF0BFF858B942493046CD
:102310000BF09CF830B9414A414B12680592059A7E
:102320001A60EFE5DFF8F4803D4CD8F800300493F4
:10233000049823683B4FC01A0AF092FE31460AF017
:10234000E7FE39490AF098FF37490AF095FF3968E6
:102350000AF0D6FDD8F800300393039B3860236061
:10236000D0E52E4A2E4B12680892089A1A60C9E5E9
:102370002448DFF8C8902D4D09F0FAFBD4F88430DA
:10238000012B4FF00B010CBF29482A4809F050F9E6
:102390000C211F4809F04CF9D8F800203368D2F816
:1023A0008400426B11691FFA81FBC9F800B0002B51
:1023B0003FF4F7AE06F006FA40F6E44100230A22A5
:1023C00001FB0BF1B1FBF0F10E4809F0E5FB012137
:1023D000194809F02DF9B4F8A0100A4809F01CFCBE
:1023E0002B68D9F800B0D3F88400DAE618D0FF1FC4
:1023F0003088FF1F58D1FF1F88D1FF1F17B7D13872
:10240000CC1E0100E489FF1F6C1D0100701D01003E
:102410005C1D01000000FA430000FAC36CD3FF1FEB
:1024200010D0FF1F70D1FF1F00007A44A8D1FF1FFA
:10243000441D0100501D0100E81F0100B0D1FF1F25
:102440002DE9F04F914C236885B0002B7BD0904D47
:10245000DFF848828F4FDFF88892D5F888308C4EAD
:10246000012B00F08B80346ED7F800A0F66D04FBD2
:1024700006F44FF47A7000FB04F00AF0F5FD86498B
:10248000864E044650460AF043FE21460AF0F4FE0A
:1024900083490AF03DFE0BF001F86328C8F80000FC
:1024A0004CDD20467C490AF0E7FE64233860336047
:1024B000D9F80030002B3ED0D5F88430744C012B75
:1024C00000F08280032B00F0D580022B00F0D98031
:1024D0000221744809F0ACF8734B18680AF06EF9E1
:1024E000022402460B460094704809F09DFB2146E9
:1024F0006F4809F09DF821466A4809F099F8D8F824
:1025000000106A4809F088FB06216A4809F090F833
:10251000386861490AF0FCFD0AF050F9009402465F
:102520000B46624809F080FB0321634809F080F8FC
:102530005E4809F01DFB05B0BDE8F08F0028BCBF68
:1025400000233360B4E75D4E514D33680293029A25
:1025500042F228339A4244D833680393039A42F2F2
:1025600010739A4246D8D5F88830DFF83081494F49
:10257000DFF86C91464E012B7FF475AF5048FEF7A3
:10258000DDFC5049D6F878A0346FD6F874B00AF064
:10259000BFFD0AF0A9FFF36F0093524621465B4648
:1025A00080B2FEF7C1FF346EF66D04FB00F006FB4F
:1025B00000F000EB800040000AF056FD36490AF0BA
:1025C0005BFE8246386052E73F4B1B68012B4FF0A1
:1025D0000A010CBF3D483E4809F02AF8D4F884307F
:1025E00070E73748B5F9D030EA6C95F84810FEF737
:1025F00019FCB1E73248DFF8A480FEF79FFC3149AF
:10260000D5F87490AF6F2E6F0AF082FD0AF06CFF60
:10261000EB6F00933A464B46314680B2FEF784FF9B
:102620002A6EEB6DC8F8000002FB00F003FB00F01F
:1026300000EB800040000AF017FDDFF8A490164977
:10264000144F0AF019FED9F80030386001222260D8
:10265000002B3FF402AF0221124808F0E9FF1348B3
:1026600009F086FA59211B4808F0E2FF0F4809F0EB
:102670007FFAF2E61021184808F0DAFFD5F8843026
:1026800023E70721154808F0D3FF21E71CD1FF1FDE
:1026900030D0FF1F70D1FF1FE4388E3E1088FF1F1F
:1026A0000000C842CC1E010018D0FF1FE489FF1FA4
:1026B000801D0100141E01001C1E01006CD3FF1FB1
:1026C0001496FF1F00007A443088FF1FE01D0100B0
:1026D000EC1D0100841D0100F81D01000C1E01000D
:1026E0000088FF1F30B5112083B007F0B3F8012830
:1026F00018D0122007F0AEF8012813D000210B20CB
:1027000007F0A2F800210C2007F09EF80021152008
:1027100007F09AF82649274B0120002208701A601A
:1027200003B030BD0121152007F08EF8224A234C5A
:10273000234B1268D4F88C1001921B68019A1D4D2E
:102740000B4493424FF00201296005D901210C206E
:1027500007F07AF803B030BDD4F894000AF084FC96
:10276000184B19680AF072FE0028EFD101210B20E6
:1027700007F06AF894F8CC3003242C6043B10C4B7A
:1027800002221A7000210C2007F05EF803B030BD61
:10279000122007F05FF8012808BF054B4FF0110029
:1027A00008BF1C7007F056F80128EBD1E7E700BF1F
:1027B00020D0FF1F1095FF1F6CD3FF1F30D0FF1FCD
:1027C0007CCFFF1F18D0FF1FF0B5684E684D3468EE
:1027D0002B689C4287B039D014F0010155D014F019
:1027E000020149D014F004013DD0E3070ED52B6857
:1027F000DF070BD45F4F3A68002A00F082805E4BFF
:102800001B680193019B93426DD83468A0070DD5D6
:102810002B6899070AD4594F3A68002A4CD0564B76
:102820001B680393039B934238D8346862070DD525
:102830002B685B070BD4524F3A68002A7ED04E4B70
:102840001B680593059B934268D834680CB107B0A8
:10285000F0BD2146162006F077FE2146172006F02F
:1028600073FE07B0F0BD052006F06EFE2B683468DD
:1028700003F0FB032B60B8E7172006F065FE2B681A
:10288000346803F0FD032B60ACE7162006F05CFE15
:102890002B68346803F0FE032B60A0E7394B172048
:1028A000D3F8901006F050FE2B68346843F0020312
:1028B00000222B603A60B9E7334809F059F90C213E
:1028C000324808F0B5FE304809F052F9FF211720D0
:1028D00006F03AFE284B2E4A1968029102991268B6
:1028E0000A443A609CE7274B1620D3F8901006F074
:1028F0002BFE2B68346843F0010300222B603A6002
:1029000084E7FF21162006F01FFE1B4B204A1968A2
:102910000091009912680A443A6071E7194B05204A
:10292000D3F8901006F010FE2B68346843F00403CF
:1029300000222B603A60002C89D18AE7124809F006
:1029400017F90C21134808F073FE0F4809F010F92D
:10295000FF21052006F0F8FD074B0D4A1968049188
:10296000049912680A443A606AE700BF1095FF1F95
:1029700098D1FF1F0CD1FF1F6CD3FF1F20D1FF1F69
:1029800024D1FF1F30D0FF1FE489FF1F201E01004C
:102990001888FF1F301E01002DE9F047534EDFF865
:1029A00070813368DFF86C91D3F88400504D0F21AB
:1029B00006F086F90023012222214E48C8F8003093
:1029C000C9F8002008F034FED8F80030132B20DCC2
:1029D00040F6E4473368B5F8A0A0D3F88400436B11
:1029E0001C6905F0EFFEA4B2012107FB04F4B4FB5F
:1029F000F0F441485444A5F8A04008F019FE6420C2
:102A000006F05EFFD8F800300133132BC8F8003011
:102A1000E0DDB5F8A030394A3948A2FB03129B1A11
:102A200002EB5303C3F30F131946A5F8A03009F0C6
:102A3000F3F81D21334808F0FBFD0221324808F06D
:102A4000F7FD2F4809F094F800231A460E2130684C
:102A5000C8F8003005F030FE022322212548C9F8CD
:102A6000003008F0E5FDD8F80030132B20DC40F6EC
:102A7000E4473368B5F8A290D3F88400436B1C692F
:102A800005F0A0FEA4B2012107FB04F4B4FBF0F4AE
:102A900019484C44A5F8A24008F0CAFD642006F08D
:102AA0000FFFD8F800300133132BC8F80030E0DDF9
:102AB000B5F8A230114A1248A2FB03129B1A02EB8E
:102AC0005303C3F30F131946A5F8A23009F0A4F875
:102AD0001D210E4808F0ACFD02210B4808F0A8FDAE
:102AE0000748BDE8F04709F043B800BFA8D1FF1F71
:102AF00030D0FF1F401E0100841E01008761188630
:102B0000E489FF1F641E0100CC1E0100881E010025
:102B10007494FF1F3088FF1F2DE9F04FC54DD5F885
:102B2000BC309A1F012A85B040F2AF81C24BC34C22
:102B30001B68A86D40F2513108222160E271002B20
:102B400000F09E810AF090FA696A06460AF0E0FAFF
:102B5000BB49B84F0AF0DCFA0AF0C6FC80B2031297
:102B60006372B84AB84B12681B68E9692072A37295
:102B700030461B121612E372227366730AF0C8FA0B
:102B8000AF49AE4E0AF0C4FA0AF0AEFC83B21A1294
:102B90003146AE48A373E27305F0E6FBAC4AAD4B99
:102BA00012681988A172D3B2237203EB83035B000E
:102BB000237302EB820343F3D7134FEA212E121241
:102BC0004FF008084FF00009314663739F4884F8BE
:102BD0000BE040F255336272236084F8078084F87A
:102BE0000E9084F80F9005F0BFFB40F256339A48E0
:102BF000236084F80780FEF70FF998490AF088FAF5
:102C00000AF072FC20729448FEF706F993490AF024
:102C10007FFA0AF069FC924A9049C0F307231068D2
:102C200063720AF029FB0AF039FC40FA08F3A0723B
:102C30008948E372FEF71AF981490AF069FA0AF045
:102C40002DFC20738448FEF711F97D490AF060FAE3
:102C50000AF024FC40F30720314660737B4884F877
:102C60000E9084F80F9005F07FFB022006F028FEFE
:102C70007C4A7D4B11782172517890786172D178BD
:102C8000A0721A789878E172597822736173DA78B1
:102C9000A07340F25A3331466C48E273236084F8E3
:102CA000078005F061FB714B68481A7822725A78E8
:102CB00062729A78A272DA78E2721A7922735A7979
:102CC00062739A79DB79E373314640F25E33A27323
:102CD000236084F8078005F047FB022006F0F0FD32
:102CE000634B5A481A7822725A7862729A78A272A2
:102CF000DA78E2721A7922735A7962739A79DB79F7
:102D0000E37331464FF45C73236084F80780A27349
:102D100005F02AFB574B1B68012B00F0898202202B
:102D200006F0CEFD082640F273334B482360E6716F
:102D3000FEF728F850490AF0EBF90AF0D5FB2072AB
:102D40004548FEF71FF84C490AF0E2F90AF0CCFBBF
:102D5000C0F3072340486372FEF73AF846490AF089
:102D6000D7F90AF0C1FBA0723B48FEF731F842499F
:102D70000AF0CEF90AF0B8FBC0F307233648E37235
:102D8000FEF7DAF83D490AF0BBF80AF0ADFB207314
:102D90003148FEF7D1F839490AF0B2F80AF0A4FB3D
:102DA000C0F307232C486373FEF7C4F833490AF0D5
:102DB000A7F80AF099FBA0732748FEF7BBF82F4944
:102DC0000AF09EF80AF090FB1C49C0F307231F4845
:102DD000E37305F0C9FA022006F072FDE96D2B6E6F
:102DE000022211FB03F3104640F27931C3F30725A9
:102DF000E27121602372657206F062FD40F2723367
:102E000015482360E671FDF785FE20721248FDF734
:102E100081FE002340FA06F208490C486272A37250
:102E2000E37223736373A373E37305B0BDE8F04FDC
:102E300005F09ABA30D0FF1FA094FF1F7894FF1FAF
:102E4000000020418CD1FF1F8C94FF1FC4D1FF1FB5
:102E50001088FF1F1688FF1F1496FF1F0000C8422E
:102E600018D0FF1F14D0FF1F6894FF1F4088FF1F5A
:102E70004888FF1F28D1FF1F00007A4433938843FE
:102E80000AF0F2F8A969064660E6072BD54C00F077
:102E90001182D54B0093DFF880A3D44BDFF87C83FD
:102EA000DFF87C93D24F0193DFF838B3D148592330
:102EB0004FF4C36E002642225946C4F800E0A372C4
:102EC0004FF0080E02934FF0440384F807E062725B
:102ED0000392E372267226736673A673E67305F097
:102EE00043FA022006F0ECFC4FF00803E371029B6A
:102EF000039AA3724FF4BB6E4FF044035946BD488A
:102F00006272E372C4F800E0267226736673A673D9
:102F1000E67305F029FA022006F0D2FCEA6D296E6C
:102F2000A86DA6724FF00803E37102FB01F311FBD9
:102F300002F103EBC30203EB820300FB03F301EB9B
:102F4000C10201EB82011B1211FB00F24FF4AB6EC8
:102F500003202373122359466273C4F800E007224A
:102F60004FF0050E207263720293A24884F80EE0BF
:102F70004FF00403E372E27305F0F6F9022006F065
:102F80009FFC029BA3724FF0080034224F234FF4A2
:102F9000B36E5946E0712672667226736673954861
:102FA000E2724FF00406E373C4F800E0A67305F084
:102FB000DBF9022006F084FC4FF00802DAF800305A
:102FC000E2714FF456722260002B40F06B818A4B05
:102FD000986D0AF049F8884B996906460AF098F806
:102FE00086490AF095F80AF07FFA80B203128BF84E
:102FF0000830E9698BF8090030460AF089F87F4902
:103000000AF086F80AF070FAD8F80020D9F80030F3
:103010007449637380B215121B120612E072754870
:103020002373E273A672A57305F09EF9022006F0E1
:1030300047FC009B3E681D88714B72491868E57219
:1030400006EB8603642202FB06F203EB83039B007C
:1030500012122E124FF47677082563722272A6722E
:103060002760E5710AF054F80AF03EFA83B243FA99
:1030700005F70026F9225B495E486373A273277344
:10308000E67305F071F9022006F01AFC4FF48B602C
:103090004FF0120E562278235249206034275548AB
:1030A00084F80AE0A273E373E571267266722673F0
:1030B0006673E77205F058F9022006F001FC4FF440
:1030C000A36351482360E571FDF734FF4B490AF0D3
:1030D0001FF80AF009FAC0F307234B482372FDF7E3
:1030E00029FF46490AF014F80AF0FEF960724648D2
:1030F000FDF722FF41490AF00BF80AF0F5F9C0F399
:1031000007234148A372FDF717FF3C490AF000F876
:103110000AF0EAF9FF233349E072364823736373F8
:10312000A373E37305F020F9022006F0C9FB4FF406
:103130009B6335482360E571FDF76EFE2F4909F06A
:10314000E7FF0AF0D1F9C0F307232F482372FDF7F8
:1031500063FE2A4909F0DCFF0AF0C6F9019B2B49FE
:10316000607218680AF088F80AF098F940FA05F2D7
:1031700003462548A272E372FDF778FE1F4909F065
:10318000C7FF0AF08BF940F307231F482373FDF7AD
:103190006DFE1A4909F0BCFF0AF080F903231149BA
:1031A00060731448A373E57305F0DEF8022006F09F
:1031B00087FB174A174B5178907892F800C092F825
:1031C00003E01F785E78DA78E5719D7861724FF4DC
:1031D000AC73A07284F808C00249064884F80BE07A
:1031E00020E000BF7894FF1F1688FF1F18D0FF1F34
:1031F0001088FF1FC4D1FF1F30D0FF1F00002041E7
:1032000070D1FF1F620B363B1496FF1F0000C842AF
:1032100014D0FF1F6894FF1FA094FF1F8C94FF1F02
:103220008CD1FF1F27736673A573E2732360FCE5DF
:103230009E48FDF7A7FD796D09F062FE81469B4827
:10324000FDF7C6FD014648460AF000F900283FF4A4
:1032500066AD40F2C333954886F807803360FDF7CA
:1032600091FD3F6D39460AF0F1F8002800F0088121
:103270008F49384609F04CFF0AF036F980B240FA1F
:1032800008F3707233720023012704260322894950
:103290008948A772E67222736373A373E37305F020
:1032A00063F83CE5854B986D09F0DEFE834B0646DE
:1032B000596A93E640F25931012650234E2221608B
:1032C00026732146082663737B48DFF810A2A27399
:1032D000002323726372A372E372E373E67105F055
:1032E00043F8022006F0ECFADAF80030E67140F21A
:1032F00051322260A86D002B40F0B38009F0B4FE7B
:10330000A96909F005FF6E4909F002FF0AF0ECF81F
:1033100080B240FA06F320726372DFF8C481DFF8EE
:10332000C491D8F80030D9F80020664E6149009663
:103330004FEA222E0026A3725F4822731B12E3720B
:1033400084F80DE0604FA673E67305F00DF80220D7
:1033500006F0B6FA009A3B68128823721B124FEAF5
:10336000222E544963724FF0080B40F255335248F5
:1033700084F80BE0A272236084F807B026736673AA
:10338000A673E67304F0F0FF022006F099FA40F20B
:103390005633464884F807B02360FDF73DFD4B4B9C
:1033A0004B49019309F0B4FE0AF09EF820723F48A1
:1033B000FDF732FD464909F0ABFE0AF095F8019A97
:1033C0004349C0F307231068637209F055FF0AF000
:1033D00065F840FA0BF203463448E272A372FDF737
:1033E00045FD374909F094FE0AF058F820732F483C
:1033F000FDF73CFD324909F08BFE0AF04FF82D49EC
:10340000A67340F307232C486373E67304F0ACFF04
:10341000022006F055FA4FF0020B4FF45772C0230A
:103420002449254822602372667284F807B004F0AC
:103430009BFF584606F044FA40F25E30254B264A80
:1034400020601C491C48637284F807B0227204F0A3
:103450008BFFD5F8BC30062B3FF426AD05B0BDE898
:10346000F08F09F001FE696A09F052FE144909F073
:103470004FFE0AF039F880B20312207263724CE7F3
:103480000A48FDF77FFC0A4909F042FE0AF02CF8D1
:10349000C0F3072305483372FDF774FC044909F0B3
:1034A00037FE0AF021F87072EDE600BF1496FF1F98
:1034B00000007A447894FF1FC4D1FF1F30D0FF1F53
:1034C000000020411688FF1F1088FF1F18D0FF1F23
:1034D0000000C842AC1E0100A81E0100A094FF1FFE
:1034E0008C94FF1F8CD1FF1F10B5144C144A236815
:1034F000101D12F8011F904241EA0323F9D1114A2D
:10350000236003F1004313600F4BD3F88430022B88
:103510000CD00E4B1B68012B00D010BD0C4B1B6850
:10352000012BFAD1BDE81040FEF72CB81068094C09
:1035300009F09AFD2060FEF7ADFCEAE790D1FF1F8D
:1035400073CFFF1F0495FF1F30D0FF1FA4D1FF1FB3
:103550000088FF1F88D1FF1F70B5224A224C507A85
:10356000937A2168D27A214E214D43EA002342EA20
:1035700003230129184633602B6019D01D4BD3F863
:103580008430A0F50000022B286024D02368012B92
:1035900000D070BD184B1B68012BFAD12968174861
:1035A00008F03AFB03211648BDE8704008F040B827
:1035B000114B1B68012BE1D1104808F0D9FA002308
:1035C000102229680D4808F0E7FA03210D4808F099
:1035D0002FF82868D2E709F047FD0B4B1860FEF77B
:1035E00059FCD3E76CCFFF1FA4D1FF1F90D1FF1F61
:1035F0000495FF1F30D0FF1F0088FF1FE489FF1FC5
:103600007C1B0100BC1E010088D1FF1F9A4B1B7858
:10361000052B00F09B802DE9F04F984C984E994D6A
:10362000E26E636E9848326083B02B60FDF784FCD5
:10363000216B09F00BFF08B100232B609248FDF7C6
:1036400079FCE16A09F020FF10B1002333602B60A0
:103650008D48FDF7BDFBE16809F016FF08B10023B6
:103660002B608948FDF7B4FBE16809F00DFF08B154
:1036700000232B608448814FFDF784FB216909F00A
:10368000E5FE002868D0002333602B687D4F002BB7
:103690004DDD7D48DFF8E481FDF74EFCA16B09F0BC
:1036A000D5FE002840F0B480784B77481B68734FF4
:1036B000012B00F0ED80FDF78BFB216A8046A069AD
:1036C00009F01CFC0146404609F0DEFE00282ED021
:1036D000286809F0C9FC81466B48FDF779FBBC6995
:1036E000396A8246204609F009FCBB6E8046786E36
:1036F000C01A09F0B9FC41460746504609F0FEFBE6
:103700000146384609F004FD41460746204609F0C7
:10371000F5FB0146384609F0AFFD002109F0F0FB4A
:103720000146484609F0EAFB09F0B8FE2860336814
:10373000534A002BAFBF2B682B6800211160002B70
:1037400001DA00232B6003B0BDE8F08F4C494D4AED
:1037500000230B60136070474B48FDF713FBF969BA
:1037600009F074FE00288ED13368DFF81491002B25
:103770008BDD4548FDF7DEFBF96B09F085FE00287F
:1037800040F0CA804048DFF8F480FDF7FBFAD4F837
:10379000C8100746E06909F0B3FB0146384609F056
:1037A00055FE00283FF471AF306809F05DFC824699
:1037B0003548FDF7E7FA8346D8F86C00D8F81C7056
:1037C00009F052FC39468146584609F097FB4946B4
:1037D0008346002009F092FB0146584609F098FC08
:1037E000D8F8C8108346384609F08AFB394609F0F4
:1037F00085FB0146584609F03FFD494609F080FB2C
:103800000146504609F07AFB09F048FE30603CE77B
:10381000386809F029FC83461B48FDF78DFB0190B1
:10382000D8F86400D8F830A009F01EFC019B81464E
:103830005146184609F062FB49460190002009F004
:103840005DFB019B0146184609F062FC5146019060
:10385000D8F8380009F052FB019B0146184609F0E0
:103860000BFD494609F04CFB0146584609F046FB62
:1038700009F014FE386017E720D0FF1F30D0FF1F7B
:103880008CD1FF1F8C94FF1F1496FF1FA094FF1F65
:10389000FDF79EFA216A8046606A09F02FFB014617
:1038A000404609F0F1FD00283FF441AF286809F0D7
:1038B000DBFB82462F48FDF78BFAD7F82480396A64
:1038C0008346404609F01AFB8146B86E09F0CCFBEE
:1038D0000446786E09F0C8FB214609F00FFB494603
:1038E0000746584609F00AFB0146384609F010FC25
:1038F00049460746404609F001FB0146384609F0B3
:10390000BBFC214609F0FCFA0146504609F0F6FAE4
:1039100009F0C4FD28600AE7D9F8000009F0A4FB0B
:1039200082461448FDF706FB0190F86ED7F83C80FC
:1039300009F09AFB019B83464146184609F0DEFADE
:103940000146584609F0E4FB41468346F86A09F00F
:10395000D5FA0146584609F08FFC002109F0D0FA4B
:103960000146504609F0CAFA09F098FDC9F800006E
:1039700008E700BF1496FF1F08B5274808F0F8F8BD
:103980000721264807F054FE112005F063FF0621A9
:10399000F8B1234807F04CFE102005F05BFF06212C
:1039A00000B3204807F044FE122005F053FF062123
:1039B00008B31D4807F03CFE132005F04BFF06211D
:1039C00010BB1A4807F034FE1348BDE8084008F061
:1039D000CFB8174807F02CFE102005F03BFF06215A
:1039E0000028DED1134807F023FE122005F032FF35
:1039F00006210028DDD1104807F01AFE132005F03B
:103A000029FF06210028DCD00C4807F011FE0248EF
:103A1000BDE8084008F0ACB8E489FF1FC01E0100F3
:103A2000C81E0100D81E0100E81E0100001F010091
:103A3000D01E0100E01E0100F01E0100F81E010072
:103A400010B5254C2368042B27DC01210B2005F041
:103A5000FBFE01210C2005F0F7FE0121142005F0EA
:103A6000F3FE0121152005F0EFFEFF21162005F0E1
:103A70006BFDFF21172005F067FDFF21052005F0F4
:103A800063FDFF21062005F05FFD236801330A2B4B
:103A90002360C4BF0023236010BD00210B2005F06C
:103AA000D3FE00210C2005F0CFFE0021142005F0EC
:103AB000CBFE0021152005F0C7FE0021162005F0E1
:103AC00043FD0021172005F03FFD0021052005F0F2
:103AD0003BFD0021D6E700BF74D1FF1F30B509219F
:103AE00083B0B74806F00EFA222006F099F9B54BDC
:103AF000D3F8AC30012BB44B1B7809D0052B10D870
:103B0000DFE813F03F0144014E01530149010B006E
:103B1000002B00F04F81052B03D10721AB4806F0A5
:103B2000F1F9222006F07CF9FF2006F079F9FF2058
:103B300006F076F9A64CFF2006F072F90821A54898
:103B400006F0E0F92168A44808F066F8FF2006F0C6
:103B500067F9FF2006F064F9FF2006F061F90921FA
:103B60009E4806F0CFF921689B4808F055F8FF20E1
:103B700006F056F9FF2006F053F9FF2006F050F941
:103B80000C21974806F0BEF9964B9749186809F042
:103B900073FB08F013FE002402460B4600948E4887
:103BA00008F042F8FF2006F03BF9FF2006F038F954
:103BB000FF2006F035F909218C4806F0A3F98C485E
:103BC000FDF754F908F0FAFD009402460B468248CE
:103BD00008F02AF8FF2006F023F9FF2006F020F96C
:103BE000FF2006F01DF90C21824806F08BF9804871
:103BF000FDF7A2F908F0E2FD009402460B46764874
:103C000008F012F8FF2006F00BF9FF2006F008F983
:103C1000FF2006F005F90D21774806F073F9744886
:103C2000FDF788F908F0CAFD009402460B466A4881
:103C300007F0FAFFFF2006F0F3F8FF2006F0F0F897
:103C4000FF2006F0EDF809216C4806F05BF96848A2
:103C5000FDF7E2F86A4909F05BFA08F0AFFD00945D
:103C600002460B465C4807F0DFFFFF2006F0D8F85D
:103C7000FF2006F0D5F8FF2006F0D2F80C216148AD
:103C800006F040F95A48FDF77DF85F4909F040FA1F
:103C900008F094FD009402460B464F4807F0C4FF1D
:103CA000FF2006F0BDF8FF2006F0BAF8FF2006F06E
:103CB000B7F80D21554806F025F94D48FDF788F86D
:103CC000514909F025FA08F079FD009402460B46A7
:103CD000414807F0A9FFFF2006F0A2F8FF2006F0F8
:103CE0009FF8FF2006F09CF80921494806F00AF9E0
:103CF000484B3948196807F08FFFFF2006F090F80D
:103D0000FF2006F08DF8FF2006F08AF80E214248C9
:103D100006F0F8F83648FDF75BF805463448FDF73D
:103D200031F80146284609F0E9F8374909F0F0F979
:103D300008F044FD009402460B46274807F074FF44
:103D4000FF2006F06DF8FF2006F06AF8FF2006F06D
:103D500067F80C21314806F0D5F8314B1E48196838
:103D6000012918BF214607F057FFFF2006F058F839
:103D7000FF2006F055F8FF2003B0BDE8304006F004
:103D80004FB80621274806F0BDF8CAE607212648A5
:103D900006F0B8F8C5E60B21244806F0B3F8C0E6F3
:103DA0000721234806F0AEF8BBE60821214806F0BB
:103DB000A9F8B6E60821204806F0A4F8B1E600BF4D
:103DC000081F010030D0FF1F20D0FF1F941C0100EE
:103DD0001088FF1F201F0100B889FF1F2C1F010042
:103DE000381F010018D0FF1F0000C842481F010003
:103DF0001496FF1F541F0100641F0100741F01006F
:103E000000002041801F010000007A44901F010043
:103E1000A01F01002C88FF1FAC1F0100BC1F010068
:103E200028D1FF1F641C01006C1C0100741C0100E0
:103E3000801C0100881C0100141F01002DE9F041C5
:103E4000BE4A13889BB282B08BB9BD4DD5F8BC3049
:103E5000BB4E042B65D0032B00F09880012B00F0A3
:103E6000C180022B00F0338102B0BDE8F0811088E0
:103E7000B34D80B209F0F8F8B24909F049F9B24BF4
:103E80000446188809F0F0F80146204609F040F988
:103E9000AE4B0446188809F0E7F80146204609F0C1
:103EA00037F9AB4909F034F909F01EFB80B209F08B
:103EB000DBF80646A86D09F0D7F8A96909F028F9DA
:103EC0000146304609F0D8F909F0E8FAA14B1A6822
:103ED0009042B8BF1860A04B1B780446002BB5D0A9
:103EE0009E4807F045FE0C219D4807F0A1FB304697
:103EF000974909F00DF908F061FC00260B460246CF
:103F0000009696488E4E07F08FFE0D21954807F0DB
:103F10008FFB2146914807F07FFED5F8BC30042B7B
:103F200099D1914C914AA379226043F00103082270
:103F3000E271A371B06D09F097F8B16909F0E8F882
:103F40008B4909F0E5F809F0CFFA824B894A1B68E2
:103F5000126893FBF2F380B200271A124FEA202E68
:103F6000607221468448E372A27284F808E02773E5
:103F70006773A773E77304F0F7F9A279D6F8BC303A
:103F800067F30002032BA2717FF468AF764CA86D33
:103F9000A3720122E823072140F2FF2622726372F6
:103FA0002660E17109F060F8A96909F0B1F870497B
:103FB00009F0AEF809F098FA664B6E4A1B68126871
:103FC00093FBF2F382B21E12171221466A48637302
:103FD000E2722773A67304F0C7F9D5F8BC30012B41
:103FE0007FF43FAF654B604C1B6823600722802342
:103FF0001020E271237205F02DFC002840F0D180E2
:104000005F4B1B68DFF84C815A4FA86D564E03EB8F
:1040100083035B001A12A3726272D8F800303A6808
:1040200093FBF2F31A126273A37309F01DF8A969E6
:1040300009F06EF8534B196808F060FF4C4909F01D
:1040400067F809F051FA80B20312314620734A48EA
:10405000E37204F089F9022005F032FC4A4B1B6838
:104060002360072280231020E271237205F0F2FB07
:10407000002840F09480424B1B68A86D03EB83033B
:104080005B001A127272B37208F0EEFFA96909F0B0
:104090003FF83E4B196808F031FF354909F038F810
:1040A00009F022FA82B216123868D8F8003022736A
:1040B00093FBF0F32C493048A3731A12E672627333
:1040C00004F052F9D5F8BC30022B7FF4CDAE264C6B
:1040D0002948237240F20E32012321462260E37107
:1040E00004F042F91B4B1B685B00FF2BC8BFFF238A
:1040F000042140224FF441702060E171227263720A
:10410000A86D08F0B1FFA96909F002F82049054639
:1041100009F0BAF900283DD02946284608F0F0FEFB
:1041200009F0E2F980B20312E072A3720E4912485C
:1041300002B0BDE8F04104F017B900BF94D1FF1FF1
:1041400030D0FF1F6F12833A3888FF1F2088FF1F6F
:10415000CDCCCC3D8C94FF1F80CFFF1FE489FF1F87
:10416000CC1F0100DC1F01007894FF1FF4E5061846
:10417000000020410C88FF1FC4D1FF1F5088FF1F83
:104180000888FF1F8894FF1F5488FF1F8CCFFF1FD4
:104190000000484301229023A272E372C6E7024B5B
:1041A0006AE7014B2DE700BF2488FF1F70B5036845
:1041B000C57984B0012D8DF805304FEA13230E46E2
:1041C0008DF8043005F1010201A909DD07300D4425
:1041D0000DF1050310F8014F03F8014FAB42F9D17F
:1041E000034B04489B5D03F093FB04B070BD00BF1C
:1041F000702E01001495FF1FF0B40D4B0D489C79F3
:104200000822FF27CD26A225DA710022B0216FF304
:1042100000041F729E72DD725A721A735A739A7377
:10422000DA7319609C711946F0BC04F09DB800BFA8
:104230007894FF1FC4D1FF1F2DE9F0416E4D2B78FC
:104240000F2B82B000F088806C4C94F8CE206C4E1E
:10425000002A50D13378082B00F0A980DFF8D881EC
:1042600043F08003674F684C3A682360012A4FF09F
:104270000803E37154D0682210232272637298F805
:10428000003061490022022BA2720AD82B78CA7230
:104290004FEA03130A734A73DBB210D104338B73F2
:1042A0000EE03B68012B04BF08230B732B7818BF6B
:1042B0000A73502000221B01C872DBB26273A37321
:1042C00031785148FFF772FFE073022005F0F8FAE9
:1042D0004D494E4804F048F82A7833784C4801326A
:1042E00001332A703370FCF7B5FB08B1FFF784FF88
:1042F00002B0BDE8F081012A0CD133780C2BADD18E
:10430000DFF8348198F800300022032B327055D941
:104310008023A7E73378DFF8208143F08003A1E70B
:104320003C4B1B78002BA6D13948FCF72BFD3A49B2
:1043300008F0EEFE09F0D8F800F10A0334482372C1
:10434000FCF720FD344908F0E3FE09F0CDF880B217
:104350000A300012607292E7304F314E3B68009392
:10436000009A3168002391422B702CD22D4C2E4A9A
:1043700023681268274901200133824223600870B4
:104380002AD02A4A1D4C12689A42BFF65EAF3B689B
:104390000193B4F8A820019B1D483C324FF47A7178
:1043A00001FB023301213360FCF738FD4DE7DFF8F4
:1043B0008880327098F80030032BA9D8013388F830
:1043C000003080234EE71349164A0B7010481360E3
:1043D0001946FCF723FD37E7154807F0C9FB132101
:1043E000144807F025F9124807F0C2FB104807F0FF
:1043F000BFFB2368C5E700BF78D1FF1F30D0FF1F88
:10440000A0D1FF1F28D1FF1F7894FF1FC4D1FF1F29
:104410001496FF1F80D1FF1F00007A446CD3FF1F4A
:1044200064D1FF1F0895FF1F0088FF1F1C88FF1F16
:10443000E489FF1FEC1F01002CD0FF1F2DE9F04184
:104440009A4C9B4D82B007F08DF823682860042BAE
:1044500000F01283022B4BD0082B00F09380072B27
:1044600040F04E81332801F01B8600F393833128FE
:1044700001F00086322840F0138107F0AFF80028E1
:1044800040F33C818B488C4E07F008FD08F0ECFDB2
:104490008A4908F03DFE61230122706422602B608E
:1044A0001846A0F152031F2B00F2FA80DFE813F048
:1044B000C60DF800F800F800F800F800F800F80061
:1044C000F800F800F800F800F800F800F800C5035C
:1044D000430F4C05EA05B604F800F800F80038046C
:1044E000F800460FF800F800F800F800F800CB0DCF
:1044F000A0F13103422B00F2D380DFE813F0720801
:1045000080088E082A083D084C0859089B08D100ED
:10451000D100D100D100D100D100D100D100D10013
:10452000D100D100D100D100D100D100D100D10003
:10453000D100D100D100D100D100D100D100D100F3
:10454000D100D100D100D100D100D100D100D100E3
:10455000D100D100D100D100D100D100D100D100D3
:10456000D100A808D100D100D100D100D100D100E4
:10457000D100D100D100D100D100D100D1004E0036
:10458000D1006808322800F0328340F316833428C3
:1045900000F04983712840F0838000227323226059
:1045A0002B602368002B7ED1454E424807F0E0FA8D
:1045B0000421444807F03CF83E4807F0D9FA10219E
:1045C000414807F035F83B4807F0D2FA13213F483D
:1045D00007F02EF83E4B3748196807F01DFB3548A9
:1045E00007F0C6FA14213B4807F022F8314807F0DB
:1045F000BFFA1E21384807F01BF82E4807F0B8FA1A
:104600001521364807F014F82A4807F0B1FA1E21A0
:10461000334807F00DF8274807F0AAFA202131485F
:1046200007F006F8234807F0A3FA19212E4806F0F0
:10463000FFFF204807F09CFA12212C4806F0F8FFF3
:104640001C4807F095FA0F21294806F0F1FF194898
:1046500007F08EFA0D21274806F0EAFF154807F00B
:1046600087FA002201233260236002B0BDE8F081A6
:1046700006F0B4FF002841F3F6840E480E4E07F012
:104680000DFC01270346014662221B48F3652760A3
:104690002A60FCF7C5FB23682868012B3FF401AFB3
:1046A00073283FF47EAF02B0BDE8F081ACD1FF1FAC
:1046B00068CFFF1FE489FF1F30D0FF1F6F12833ABE
:1046C0000088FF1F042401000C24010020240100A5
:1046D0002C88FF1F342401004C2401006C240100AD
:1046E00084240100A4240100C8240100E424010062
:1046F000F8240100082501001496FF1F236828688C
:10470000062B40F08B80A0F13103402BC8D801A2CA
:1047100052F823F033540000A15400000755000064
:10472000CD540000F35400005F5400008354000097
:10473000A14600000D540000A1460000A146000063
:10474000A1460000A1460000A1460000A1460000CD
:10475000A1460000A1460000A1460000A1460000BD
:10476000A1460000A1460000A1460000A1460000AD
:10477000A1460000A1460000A1460000A14600009D
:10478000A1460000A1460000A1460000A14600008D
:10479000A1460000A1460000A1460000A14600007D
:1047A000A1460000A1460000A1460000A14600006D
:1047B000A1460000A1460000A1460000A14600005D
:1047C000A1460000A1460000A1460000A14600004D
:1047D000A1460000A1460000A1460000A14600003D
:1047E000A1460000A1460000A1460000A14600002D
:1047F000A1460000A1460000A1460000A14600001D
:10480000A1460000A1460000A1460000A14600000C
:10481000A14600009B45000023682868052B40F056
:104820008D80A0F13103402B3FF63AAF01A252F840
:1048300023F000BFE5510000D9520000F9520000FA
:1048400019530000435300005F530000A1460000CD
:10485000A1460000A1460000A1460000A1460000BC
:10486000A1460000A1460000A1460000A1460000AC
:10487000A1460000A1460000A1460000A14600009C
:10488000A1460000A1460000A1460000A14600008C
:10489000A1460000A1460000A1460000A14600007C
:1048A000A1460000A1460000A1460000A14600006C
:1048B000A1460000A1460000A1460000A14600005C
:1048C000A1460000A1460000A1460000A14600004C
:1048D000A1460000A1460000A1460000A14600003C
:1048E000A1460000A1460000A1460000A14600002C
:1048F000A1460000A1460000A1460000A14600001C
:10490000A1460000A1460000A1460000A14600000B
:10491000A1460000A1460000A1460000A1460000FB
:10492000A1460000A1460000A1460000A1460000EB
:10493000A14600007953000023682868032B7FF408
:10494000ACAEA0F13003482B3FF6AAAE01A252F85C
:1049500023F000BF71460000A95E0000D15E000098
:10496000F95E0000835C0000A55C0000CD5C0000E7
:10497000F55C0000135D0000375D0000A1460000FB
:10498000A1460000A1460000A1460000A14600008B
:10499000A1460000A1460000A1460000A14600007B
:1049A000A1460000A1460000A1460000A14600006B
:1049B000A1460000A1460000A1460000A14600005B
:1049C000A1460000A1460000A1460000A14600004B
:1049D000A1460000A1460000A1460000A14600003B
:1049E000A1460000A1460000A1460000A14600002B
:1049F000A1460000A1460000A1460000A14600001B
:104A0000A1460000A1460000A1460000A14600000A
:104A1000A1460000A14600005F5D00007D5D000032
:104A20009B5D0000B95D0000D75D0000F55D0000F2
:104A3000675700008B570000A1460000B1570000E7
:104A40004B5E0000A1460000A1460000A146000008
:104A5000A1460000A14600009B4500001B5F00002E
:104A6000A1460000A1460000A1460000A1460000AA
:104A7000A14600003B5F0000A0F13003422B3FF64F
:104A80000FAE01A252F823F0C5560000D95600001F
:104A9000DD560000E1560000015700004B570000B2
:104AA00035570000475700005B5600007356000062
:104AB000A1460000A1460000A1460000A14600005A
:104AC000A1460000A1460000A1460000A14600004A
:104AD000A1460000A1460000A1460000A14600003A
:104AE000A1460000A1460000A1460000A14600002A
:104AF000A1460000A1460000A1460000A14600001A
:104B0000A1460000A1460000A1460000A146000009
:104B1000A1460000A1460000A1460000A1460000F9
:104B2000A1460000A1460000A1460000A1460000E9
:104B3000A1460000A1460000A1460000A1460000D9
:104B4000A1460000A1460000A1460000A1460000C9
:104B5000A1560000A1460000A1460000A1460000A9
:104B6000A1460000A1460000A1460000A1460000A9
:104B7000A1460000A1460000A1460000A146000099
:104B8000A1460000A1460000A14600009B45000090
:104B9000BB56000034287FF4FDAC06F01FFD002852
:104BA0007FF7ACAD8A488B4E07F078F9612301227C
:104BB000B08622602B60184673E431287FF470AD14
:104BC00006F00CFD002840F3BF848148814E07F0B9
:104BD00065F9C0B286F8480002288ABF0021014664
:104BE00086F84810B6F9D030F26C7B4814E006F035
:104BF000F5FC00281CDD7648764E07F04FF908F0EA
:104C000033FA764908F084FAB6F9D03096F84810AD
:104C1000074602467048F764FCF704F9012369204F
:104C2000236028603DE406F0D9FC002800F37E8470
:104C30002368286813E406F095FC06F0CFFC0546CF
:104C40000028F8D16248634E06F092FF604806F0F3
:104C50008FFF5F4806F08CFF5D4806F089FF5C48D7
:104C600006F086FF1F215E4806F0E2FC584806F079
:104C70007FFF1C215B4806F0DBFCB06A5A4908F054
:104C800047FA07F09BFD009502460B46504806F098
:104C9000CBFF0221554806F0CBFC4D4806F068FFDB
:104CA0002321534806F0C4FC706C4F4908F030FAD9
:104CB00007F084FD009502460B46454806F0B4FF18
:104CC00002214A4806F0B4FC414806F051FF192180
:104CD000484806F0ADFC306C07F070FD02250B462D
:104CE000024600953A4806F09FFF2946424806F0E2
:104CF0009FFC374806F03CFF2221404806F098FC14
:104D0000B18E334806F088FF03213D4806F090FC41
:104D10002F4806F02DFF07232360C4E406F022FC91
:104D200006F05CFC05460028F8D12948294E06F01B
:104D30001FFF274806F01CFF254806F019FF2448EE
:104D400006F016FF224806F013FF15212D4806F045
:104D50006FFC1F4806F00CFF18212B4806F068FC7A
:104D60002B460A2296F84810194806F015FF1848F5
:104D700006F0FEFE2821254806F05AFCF06C1A4980
:104D800008F0C6F907F01AFD00950B4602461048D8
:104D900006F04AFF0221154806F04AFC0C4806F0CE
:104DA000E7FE18211A4806F043FCB6F9D01008486F
:104DB00006F032FF064806F0DBFE1321154806F028
:104DC00037FC034806F0D4FE082323606BE400BFE1
:104DD000E489FF1F30D0FF1F1496FF1F6F12833A24
:104DE000502201007022010000007A446C20010072
:104DF00090220100B42201004C220100D0220100C7
:104E0000F4220100CC2401002420010040200100F4
:104E1000702001008C20010006F0A4FB06F0DEFBF0
:104E200005460028F8D18248824E06F0A1FE80484F
:104E300006F09EFE7E4806F09BFE7D4806F098FE3A
:104E40007B4806F095FE11217B4806F0F1FB78487F
:104E500006F08EFE2821794806F0EAFBB069784911
:104E600008F056F907F0AAFC009502460B46704878
:104E700006F0DAFE0221734806F0DAFB6C4806F011
:104E800077FE1621704806F0D3FB306A6C4908F0B3
:104E90003FF907F093FC00950B460246644806F084
:104EA000C3FE0221674806F0C3FB614806F060FEBE
:104EB000D6F8BC30002B32DD1D21644806F0B8FB6B
:104EC000706E08F0D1F8624908F022F907F076FC1C
:104ED000022502460B460095554806F0A5FE012125
:104EE0005C4806F0A5FB524806F042FE1F215A48D6
:104EF00006F09EFBB06E08F0B7F8554908F008F9C7
:104F000007F05CFC009502460B46494806F08CFE13
:104F10000121504806F08CFB454806F029FE11217E
:104F20004E4806F085FBD6F8BC30072B01F2148002
:104F3000DFE813F07A087F08750870086B086608C8
:104F400061080E0806F00EFB06F048FB0028F9D1B8
:104F50003748384E06F00CFE354806F009FE344856
:104F600006F006FE324806F003FE314806F000FE69
:104F70001F213B4806F05CFB2D4806F0F9FD1E2181
:104F8000384806F055FB2A4806F0F2FD1A2136484B
:104F900006F04EFBD6F88430022B01F06581032B1E
:104FA00001F05981012B01F0688109212F4806F099
:104FB0003FFB1F4806F0DCFD14212D48DFF874800C
:104FC00006F036FBD6F88010194806F025FE184882
:104FD00006F0CEFD1C21274806F02AFBD6F88810E3
:104FE000134806F019FE124806F0C2FD1C212248A3
:104FF00006F01EFBD6F8B8100D4806F00DFE0C4862
:1050000006F0B6FDD6F8845025F00207012F01F016
:105010005F80022D01F062811321184806F008FB21
:10502000034806F0A5FD02232360FFF73CBB00BF49
:10503000E489FF1F30D0FF1F70240100A020010071
:1050400000007A446C200100CC200100E420010023
:10505000CDCCCC3D8C27010004210100242101008E
:105060004C2601006C2601008C260100042701005B
:105070001027010028270100482701008C2001008B
:1050800006F070FA06F0AAFA0028F9D1BE48BF4D22
:1050900006F06EFDBC4806F06BFDBB4806F068FDEF
:1050A000B94806F065FDB84806F062FD1321B8481E
:1050B00006F0BEFAB44806F05BFD0D21B54806F0D7
:1050C000B7FAB14806F054FD0F21B34806F0B0FA24
:1050D000B24BAD48196806F09FFDAB4806F048FD9D
:1050E0001321AF4806F0A4FAAE4BA748196806F0A2
:1050F00093FDA54806F03CFD1221AB4806F098FA56
:10510000AA4BA148196806F087FD9F4806F030FDBC
:105110001121A74806F08CFAA64B9B48196806F0A7
:105120007BFD994806F024FD0E21A34806F080FA85
:10513000D5F8AC10944806F06FFD934806F018FDC2
:1051400019219E4806F074FA9D4B8F48196806F0A5
:1051500063FD8D4806F00CFD11219A4806F068FAAF
:10516000994B8948196806F057FD874806F000FDFD
:105170001021964806F05CFA954B8348196806F0B2
:105180004BFD814806F0F4FC1C21924806F050FAD1
:10519000914B7D48196806F03FFD7B4806F0E8FC1E
:1051A00016218E4806F044FAB5F8A810764806F0A5
:1051B00033FD1E218A4806F03BFA734806F0D8FCFE
:1051C0001721884806F034FA6F4806F0D1FC132105
:1051D000854806F02DFA6C4806F0CAFC04232360CB
:1051E000FFF761BA06F0FAF900287FF7A5AB664829
:1051F000664E06F053FE01226B23C6F88C00226037
:105200002B6001E006F0AEF906F0E8F90028F9D1CC
:105210005D485E4D06F0ACFC5B4806F0A9FC5A48C0
:1052200006F0A6FC584806F0A3FC574806F0A0FC80
:1052300021216E4806F0FCF9534806F099FC15212F
:105240006B4806F0F5F9D6F88C104F4806F0E4FCF0
:105250000221684806F0ECF94B4806F089FC1E2153
:10526000654806F0E5F9D6F89410474806F0D4FCF6
:105270000321624806F0DCF9434806F079FC1E2160
:105280005F4806F0D5F9D6F890103F4806F0C4FC08
:105290003D4806F06DFC1D215A4806F0C9F9D6F8C4
:1052A000B010394806F0B8FC374806F061FC1E2102
:1052B000554806F0BDF9D6F8B410334806F0ACFCFA
:1052C000314806F055FCD6F8AC30012B00F0F487DD
:1052D00005232360FFF7E7B906F080F900287FF780
:1052E0002BAB2948294E06F0D9FD01226B23C6F8C5
:1052F000940022602B6087E706F070F900287FF7A2
:105300001BAB2148214E06F0C9FD01226B23C6F8D4
:10531000900022602B6077E706F060F900287FF7A5
:105320000BAB1948194E06F0B9FD274BC6F8B00073
:1053300002221A60FCF79EFA01226B2322602B6086
:1053400062E706F04BF900287FF7F6AA0E480F4EE9
:1053500006F0A4FD1C4BC6F8B4000322E9E70B4E8F
:1053600096F8CD30B3FA83F35B0901216B2286F8FE
:10537000CD3021602A6047E71349002373220B6078
:1053800023602A60FFF70DB9E489FF1F30D0FF1FAB
:10539000182501002C2501003C250100A4D1FF1F88
:1053A0004C25010058D1FF1F6025010060D1FF1F6F
:1053B0007425010024D0FF1F8825010098250100D5
:1053C0006C94FF1FB42501009094FF1FC8250100B5
:1053D0006494FF1FDC2501002888FF1FFC250100C5
:1053E00014260100342601008C200100F82201005F
:1053F0001C230100E0210100342301006C1D010089
:1054000054230100742301009423010006F0E6F800
:1054100000287FF701AABB48BB4E06F03FFD07F00E
:1054200023FE65230122B06322602B601846FFF73C
:1054300038B806F0D3F800287FF7EEA9B148B24E8D
:1054400006F02CFD07F010FEB04907F015FF6523AC
:105450000122B06122602B601846FFF722B806F0E7
:10546000BDF800287FF7D8A9A648A74E06F016FD7C
:1054700065230122C6F8C00022602B601846FFF7A2
:1054800010B8A14B93F8CC20002A00F01C86002213
:1054900083F8CC200123652023602860FFF701B842
:1054A00006F09CF800287FF7B7A99648964E06F0BC
:1054B000F5FC07F0D9FD954907F0DEFE65230122D2
:1054C000306222602B601846FEF7EBBF06F086F8CC
:1054D00000287FF7A1A98B488B4E06F0DFFC00EB7C
:1054E0008000430001226520B36622602860FEF739
:1054F000D8BF854AD2F8BC300133072BC8BF002380
:10550000C2F8BC30C6E706F069F800287FF784A926
:105510007C487D4E06F0C2FC00EB80004300012277
:105520006520736622602860FEF7BBBF7548764E23
:1055300006F0B4FC07B23B46F26C96F8481074488B
:10554000A6F8D070FFF768BB6F4E96F84800FFF7DB
:1055500043BB0123236006F041F8002807DD6948BA
:10556000694E06F09BFC07F07FFDC6F89C006320A7
:1055700028602368FEF773BF0123236006F02EF82E
:105580000028F4DD5F48604E06F088FC07F06CFDF3
:10559000C6F89800EBE70123236006F01FF8002807
:1055A000E5DD5848584E06F079FCA6F8C600DEE75F
:1055B000554AD2F8D4300133042BC8BF0123C2F8B6
:1055C000D4300123632023602860FEF76ABF4E4A6F
:1055D000D2F884300133032BC8BF0023C2F88430D3
:1055E000EFE7494ED6F88030B3FA83F35B09012226
:1055F0006320C6F8803022602860FEF752BF424E1A
:10560000D6F88830B3FA83F35B0901226320C6F829
:10561000883022602860FEF744BF0123236005F034
:10562000DDFF0028CDDD3748374E06F037FCC6F8E1
:10563000B800C6E70123236005F0D0FF0028C0DDD5
:105640003048314E06F02AFCC6F8A400B9E7FDF751
:10565000A3F923682868FEF7FFBE2E4A1368B3FA41
:1056600083F35B0901216420136021602860FEF749
:1056700018BF0123236005F0B1FF002800F3DC858B
:10568000254B1A68042A01DD02221A6064232B606C
:105690002368082B4FF064007EF4E1AEFEF772BF82
:1056A0000123236005F09AFF0028EFDD1548164E10
:1056B00006F0F4FBA6F8A800E8E701232360FEF754
:1056C0009BFDE3E7154A137801214B4064201370DA
:1056D00021602860FEF7E5BE114ABFE7114ABDE729
:1056E000114A124F1368002B0CBF012100214FF00B
:1056F00001031160236040F0C98564222A60C8E775
:105700000B4AABE7E489FF1F30D0FF1F00007A444B
:105710001496FF1F6494FF1F2888FF1F80CFFF1F70
:10572000A4D1FF1F58D1FF1F60D1FF1FACD1FF1FB5
:1057300024D0FF1F012327482360FBF7A5F9264A41
:1057400023681060D9E7254A88E7254ED6F8AC30A3
:10575000B3FA83F35B0901226420C6F8AC302260FF
:105760002860FEF79EBE05F039FF00280DDD1D48BC
:105770001B4E06F093FB07F077FC1B4907F07CFDFE
:1057800001226223706222602B6005F027FF00284F
:105790000EDD1448124E06F081FB07F065FC12493D
:1057A00007F06AFD01226223C6F8C80022602B6060
:1057B00005F014FF002840F356840A48084E06F00E
:1057C0006DFB07F051FC01226223F06322602B6025
:1057D0000EE000BF1496FF1F6C94FF1F9094FF1FF4
:1057E00030D0FF1FE489FF1F00007A4405F0BAFEA5
:1057F00005F0F4FE05460028F8D1C348DFF87883A9
:1058000006F0B6F9C04806F0B3F9BF4806F0B0F9A3
:10581000BD4806F0ADF9BC4806F0AAF91521BB4811
:1058200005F006FFB84806F0A3F91421B84805F0C2
:10583000FFFEB54806F09CF91B21B64805F0F8FEBE
:10584000B14806F095F91321B34805F0F1FEAE48D2
:1058500006F08EF9AC4806F08BF9AB4806F088F9F3
:105860002021AE4805F0E4FEF068AD4907F050FC99
:1058700006F0A4FF009502460B46A34806F0D4F9B3
:105880000221A84805F0D4FE0221A74805F0D0FE69
:105890009D4806F06DF92121A44805F0C9FE306944
:1058A0009F4907F035FC06F089FF009502460B463C
:1058B000954806F0B9F902219A4805F0B9FE02218F
:1058C000994805F0B5FE904806F052F91F21984816
:1058D00005F0AEFEF06A06F071FF022702460B46A5
:1058E0000097894806F0A0F90121924805F0A0FE32
:1058F00039468D4805F09CFE834806F039F9202191
:105900008D4805F095FE306B06F058FF0097024673
:105910000B467D4806F088F90121864805F088FE8F
:105920003946814805F084FE774806F021F92321A5
:10593000824805F07DFE306D794907F0E9FB06F0FD
:105940003DFF009502460B466F4806F06DF939465B
:10595000744805F06DFE3946734805F069FE6A48E3
:1059600006F006F91F21764805F062FE706D6C495D
:1059700007F0CEFB06F022FF009502460B46624878
:1059800006F052F93946674805F052FE3946664836
:1059900005F04EFE5C4806F0EBF81921694805F069
:1059A00047FE316E584806F037F93946664805F02B
:1059B0003FFE39465C4805F03BFE534806F0D8F8F8
:1059C0001821624805F034FEF06E07F04DFB604987
:1059D00007F09EFB06F0F2FE009702460B464A488F
:1059E00006F022F901215B4805F022FE39464E48B7
:1059F00005F01EFE444806F0BBF82B21564805F082
:105A000017FEF069464907F083FB06F0D7FE0095C4
:105A100002460B463C4806F007F93946414805F076
:105A200007FE3946404805F003FE374806F0A0F867
:105A30001F214A4805F0FCFDF16D334806F0ECF8F3
:105A40003946394805F0F4FD2F4806F091F8202139
:105A5000434805F0EDFDB16D2B4806F0DDF8394601
:105A6000314805F0E5FD284806F082F810213D4850
:105A700005F0DEFD316F244806F0CEF8394629489E
:105A800005F0D6FD3946284805F0D2FD1E4806F03F
:105A90006FF81321344805F0CBFD716F1A4806F0FA
:105AA000BBF80121314805F0C3FD39461E4805F019
:105AB000BFFD154806F05CF810212D4805F0B8FD33
:105AC000B16F114806F0A8F83946164805F0B0FD48
:105AD0003946154805F0ACFD0B4806F049F814218D
