:1000000000800020BD010000558B00000D8B00001A
:100010000D8B00000D8B00000D8B00000D8B000080
:100020000D8B00000D8B00000D8B0000558B000028
:10003000558B00000D8B000015AD000019AE0000BF
:10004000558B0000558B0000558B0000558B000030
:10005000558B0000558B0000558B0000558B000020
:10006000558B0000558B0000558B0000558B000010
:10007000558B0000558B0000558B0000558B000000
:10008000558B0000558B0000558B0000558B0000F0
:10009000558B0000558B0000558B0000558B0000E0
:1000A000558B0000558B0000558B0000558B0000D0
:1000B000558B00003D800000498000004D8000000D
:1000C000598000005D80000061800000558B0000B9
:1000D000558B0000558B0000558B0000558B0000A0
:1000E000558B0000558B0000558B0000558B000090
:1000F000558B000025B50000558B0000F1980000DD
:10010000558B0000BD9A0000558B0000558B0000F8
:10011000558B0000558B0000558B0000558B00005F
:10012000558B0000558B0000558B0000558B00004F
:10013000558B0000558B0000558B0000558B00003F
:10014000558B0000558B0000558B0000558B00002F
:10015000558B0000558B0000558B0000558B00001F
:10016000558B0000499D0000558B0000558B000009
:10017000558B0000558B0000558B0000558B0000FF
:10018000558B0000558B0000558B0000558B0000EF
:10019000558B0000558B0000558B0000558B0000DF
:1001A000558B0000558B0000558B0000558B0000CF
:1001B000558B0000558B0000558B0000564B4CF2C0
:1001C000205210B51A804DF628121A8000BF00BFC9
:1001D00008F0C4FC514B4FF010621A60504A9A600C
:1001E000504ADA60504A136813F4807304D14F49BF
:1001F0000B604FF4A85313604D4B1A78110703D5C9
:100200001A7842F008021A704A4B4B492A221A7097
:100210004A4A4B4B8B4204D252F8040F43F8040B6A
:10022000F8E7484B484900228B4202D243F8042B9E
:10023000FAE74649464A002352F8230041F82300D2
:1002400001336F2BF8D1434B434A802103F8011B44
:100250009342FBD1414B3D4A1A60414B8A221A70AE
:10026000A3F5805324225A70A0221A709A7992071B
:10027000FCD59A79D406FCD43A4A937903F00C035E
:10028000082B384BF9D103221A7140225A719A79FE
:100290009006FCD5334A9179324B4906FBD5324A58
:1002A000324911600221516020221A709A7902F0BD
:1002B0000C020C2AFAD12E4B2E4A1A602E4B2F4AD2
:1002C0001A6000225A60072243F8042C2C4AC3F813
:1002D0000C2D62B608F076FF144B1B68DA0705D5C3
:1002E000284808F053FD284B284A1A60284B1B78F1
:1002F0005B0609D5244C254B22689A4204D121483B
:1003000008F044FD002323600CF0F4FB08F02CFC03
:100310000AF0C8FFFEE700BF0E2005403080044011
:10032000823F04000100002B10D0034014D0034092
:1003300002D0074000E00740F893FF1FA428010007
:100340002087FF1FF893FF1F00D6FF1F0082FF1FAB
:100350000000000000E400E05FE400E008ED00E0E1
:100360000050064000400640448004400000030165
:1003700004800440C010050014E000E0FF76010096
:10038000000020206D6A3D5F1CE00340A5C3945A25
:1003900000F00740FFFFFFFFFFFFFFFFFFFFFFFF32
:1003A000FFFFFFFFFFFFFFFFFFFFFFFFFFFFFFFF5D
:1003B000FFFFFFFFFFFFFFFFFFFFFFFFFFFFFFFF4D
:1003C000FFFFFFFFFFFFFFFFFFFFFFFFFFFFFFFF3D
:1003D000FFFFFFFFFFFFFFFFFFFFFFFFFFFFFFFF2D
:1003E000FFFFFFFFFFFFFFFFFFFFFFFFFFFFFFFF1D
:1003F000FFFFFFFFFFFFFFFFFFFFFFFFFFFFFFFF0D
:10040000FFFFFFFFFFFFFFFFFFFFFFFFDEF9FFFF23
:1004100010B5054C237833B9044B13B10448AFF33E
:1004200000800123237010BDF893FF1F000000001F
:10043000A0280100084B10B51BB108490848AFF3CC
:1004400000800848036803B910BD074B002BFBD0A0
:10045000BDE81040184700BF00000000FC93FF1FDC
:10046000A0280100F893FF1F00000000F0B400F185
:100470002C06174F00243146031F00F15C0243F89D
:10048000044FB34241F8047F4FF0000542F8044F97
:10049000F5D100230F4A1049C0F89050C0F894508D
:1004A000C0F89850C0F89C50C0F8A050C0F8B050A8
:1004B000C0F8A420C0F8AC20C0F8A81080F8B8306C
:1004C00080F8B93080F8D030C0F8DC30F0BC70472C
:1004D0000000A040000048430000C8C22DE9F041E0
:1004E0008046CE1D00F1900400F1A00716F8010F20
:1004F00028380CF099F8094944F8040F05460CF027
:10050000A3FA38B1B8F9E4000CF08EF829460BF0E4
:10051000D7FF2060BC42E9D1BDE8F081000020C2D5
:100520002DE9F043814685B0144604292BD8DFE835
:1005300001F0798EBB035100637A3F2B09D8207AF2
:1005400000EB03200CF070F875490CF075F9C9F850
:100550001800E37A3F2B09D8A07A00EB03200CF0B7
:1005600063F86F490CF068F9C9F81C00637B3F2BF6
:1005700009D8207B00EB03200CF056F868490CF0FA
:100580005BF9C9F8200009F15C08464609F12C0521
:10059000A9F1040757F8044F55F8040F21460CF051
:1005A00053FA30B1D9F8B41020460CF043FA00B138
:1005B0002C6056F8041F20460CF046FA594920B129
:1005C00020460CF041FA00B134604545E2D105B057
:1005D000BDE8F083637A3F2B09D8207A00EB032033
:1005E0000CF022F84E490CF027F9C9F82400E37A00
:1005F0003F2B09D8A07A00EB03200CF015F84849EE
:100600000CF01AF9C9F82800637B3F2BBBD8207B7C
:1006100000EB03200CF008F841490CF00DF9C9F883
:100620002C00B0E7607A227AA37AE17A02EB00220A
:1006300002EB034303EB0163C9F8DC30637B227BED
:100640001B0203F470631344C9F8D8309BE7627A45
:1006500003933F2A0CD8207A00EB02200BF0E4FF32
:100660002F490CF0E9F8039BC9F80000012B44D096
:10067000E37A3F2B09D8A07A00EB03200BF0D4FFDC
:1006800027490CF0D9F8C9F80400637B3F2B3FF6EB
:100690007AAF207B00EB03200BF0C6FF20490CF063
:1006A000CBF8C9F808006EE7637A3F2B09D8207AA7
:1006B00000EB03200BF0B8FF19490CF0BDF8C9F8A6
:1006C0000C00E37A3F2B09D8A07A00EB03200BF053
:1006D000ABFF13490CF0B0F8C9F81000637B3F2B57
:1006E0003FF651AF207B00EB03200BF09DFF0C4940
:1006F0000CF0A2F8C9F8140045E70B480AF03AFCE0
:10070000D9F800000BF03AFB022502460B46009593
:1007100005480AF089FC04480AF02CFCA8E700BF51
:1007200000007A440000A0409889FF1F90F8C000A4
:10073000704700BF90F8BC00704700BF90F8C4003D
:10074000704700BF90F8C800704700BF0C2994BFE5
:1007500050F82100002070472DE9F0410B4E8046F3
:10076000041F00F12C0754F8045F314628460CF0B2
:100770004DF930B1D8F8B41028460CF065F900B145
:100780002E46BC42EFD13046BDE8F081000020414A
:100790002DE9F041D0F8B4704FF00008041F00F1CB
:1007A0002C0654F8045F394628460CF04DF90849E8
:1007B00048B128460CF02AF9414620B128460CF0F1
:1007C00043F900B1A846B442EBD14046BDE8F08100
:1007D0000000A0402DE9F047D0F8B47082464FF0F9
:1007E0000009041F00F12C064FF0000854F8045FC4
:1007F000394628460CF028F90C4950B128460CF02F
:1008000005F930B1484629460BF05AFE08F10108B7
:100810008146B442EAD1CAF8D48040460BF004FFC6
:10082000014648460CF008F8BDE8F0870000A040FB
:10083000D0F8D400704700BFD0F8D800704700BF90
:1008400038B5D0F89850D0F89440294620460CF09E
:10085000DDF800B92C46204638BD00BF38B5D0F8C9
:100860009850D0F89440294620460CF0EDF800B995
:100870002C46204638BD00BF70B5D0F894401249D0
:10088000054620460CF0E0F8D0B1204600210BF0E0
:1008900017FE01240646D5F898500B4928460CF05F
:1008A000D3F828B1304629460BF00AFE013406463B
:1008B00020460BF0B9FE014630460BF0BDFF70BD7F
:1008C00000260446E7E700BF000020C22DE9F843F8
:1008D0000026D0F8B480C0F890608146041F00F173
:1008E0002C0754F8045F414628460CF0ADF809493E
:1008F00050B128460CF08AF830B1304629460BF04A
:10090000DFFD0646C9F89000BC42EAD13046BDE89A
:10091000F88300BF0000A04003299ABF00EB8100CC
:10092000D0F89400002070473E2998BF80F8D0107E
:10093000704700BFD0F8DC00704700BF90F8B800E7
:10094000704700BF90F8B900704700BFC0F8CC10E6
:10095000704700BF80F8B810704700BF80F8B9102A
:10096000704700BFC0F8B410704700BFA0F8E41093
:10097000704700BF70B500F565550646043500F1B7
:100980002C042046E834FFF771FDAC42F9D106F59E
:100990008A75012428460021FFF7DCFF21462846FE
:1009A0000134FFF7C1FF3F2C05F1E805F2D143F612
:1009B0004C1400250548064A064B35550021706148
:1009C000B161F2613362304670BD00BF00007A440D
:1009D000000048430000C8C270B500F565560436F3
:1009E00000F58A74002507E0012520460021E8343F
:1009F000FFF7B4FFB4420AD02046FFF79FFF00285C
:100A0000F3D02046FFF79EFF0028EDD170BD2846A9
:100A100070BD00BF70B500F592560C3600F58A74B3
:100A200002E0E834B4420CD02046FFF787FF0546C9
:100A30000028F6D02046FFF77DFFC307F1D52846F2
:100A400070BD0025284670BD2DE9F04143F65013D6
:100A500000F56556374600228046C25004361037EE
:100A600000F58A7402E0E834B4420DD02046FFF766
:100A700065FF0028F7D020463D68FFF7D9FEE8342F
:100A80002844B4423860F1D143F6501358F80300BB
:100A9000BDE8F08143F64813C058704738B50C687C
:100AA00004F00F04E825013405FB04002C30154642
:100AB0001A46FFF713FD012D00D038BD06480AF095
:100AC00059FA214604480AF0A5FA0B210348BDE86B
:100AD000384009F0B9BF00BF9889FF1F980C01008A
:100AE0002DE9F0410E68044606F00F0006F0F0060E
:100AF000302E0F46904600F101053CD019DC16B1AE
:100B0000202E31D10126072D1BD9E82303FB0544F4
:100B10002C3420460121FFF71DFF20460121FFF75D
:100B20001DFF43463A4631462046BDE8F041FFF7F7
:100B3000F7BC402E1DD0502E16D1072D4FF00406C5
:100B4000E3D8B8F1010FE0D129460C480AF062FA67
:100B500041460B4809F078FF314608480AF05AFA36
:100B600006480AF007FAD0E7072DCED8042ECCDCD1
:100B7000E7E70326C7E70226C5E700BF9889FF1FFE
:100B8000A40C01002DE9F043002383B00646436026
:100B900000F58A74012504E001353F2D04F1E804D5
:100BA00066D02046FFF7CAFE0028F5D04E4806F072
:100BB000C5FC29464D4806F0C1FC2046FFF786FEDD
:100BC0000BF0DCF802460B46494806F0B7FC20461D
:100BD000FFF7C2FD80462046FFF7DAFD0746404694
:100BE0000BF0CCF88046384689460BF0C7F84246F1
:100BF0004B46CDE900013F4806F0A0FC002120460D
:100C0000FFF78AFE012180462046FFF785FE074652
:100C100040460BF0B3F88046384689460BF0AEF8F4
:100C200042464B46CDE90001334806F087FC20469A
:100C3000FFF74CFE014670680BF042FC70602046E6
:100C4000FFF7FEFDF1690BF0E1FE002833D12046ED
:100C5000FFF704FE316A0BF0F7FE00289CD0204617
:100C6000FFF7FCFD01353F2D306204F1E80498D117
:100C7000B0680BF0D9FC014670680BF0DDFDB1697E
:100C8000706004460BF0E0FE00B1B461716920466B
:100C90000BF0BCFE00B174610B2008F00FFA43F6B4
:100CA0004C13F35C60B99BB143F64C130122F25430
:100CB00003B0BDE8F0832046FFF7C2FDF061C6E750
:100CC00053B943F64C130022F25403B0BDE8F0834D
:100CD0000A4806F061FCE7E7094806F047FC43F6DE
:100CE0004C130022F254F0E7F4160100A80C0100A6
:100CF000E40C0100F80C0100240D0100400D01007E
:100D0000780D010070B5114BC36000F565550646BE
:100D1000043500F58A7402E0E834AC4213D0204672
:100D2000FFF70CFE0028F7D02046FFF715FDF1680D
:100D30000BF06CFE0028EFD02046FFF70DFDE834E5
:100D4000AC42F060EBD1F06870BD00BF0000A04085
:100D500070B5002300F5655506460361043500F5BE
:100D60008A7402E0E834AC4213D02046FFF7E6FD77
:100D70000028F7D02046FFF70BFD31690BF064FE29
:100D80000028EFD02046FFF703FDE834AC42306185
:100D9000EBD1306970BD00BF40687047017070478B
:100DA000816070472DE9F04100F56555884617468A
:100DB0001EB2043500F58A7402E0E834AC4213D068
:100DC0002046FFF7BBFD0028F7D020464146FFF73D
:100DD000BDFD20463946FFF7C5FD20463146E834C3
:100DE000FFF7C4FDAC42EBD1BDE8F0812DE9F8433B
:100DF00043F6481300F565550027C7502E462A4A8A
:100E00002A4B826280464FF000094362043508365F
:100E100000F58A7402E0E834A54213D02046FFF7BB
:100E20008DFD0028F7D03368013333602046FFF78B
:100E300023FD1F490BF008FE88B9E834A54207F1ED
:100E40000107EBD143F6481358F80300C01B0BF021
:100E5000EBFB014648460BF0EFFCBDE8F88320466B
:100E6000FFF70AFD014648460BF02AFB8146204663
:100E7000FFF7F4FCD8F824100BF0E6FD70B920461B
:100E8000FFF7DEFCD8F828100BF0C0FD0028C2D018
:100E90002046FFF7D5FCC8F82800BCE72046FFF73E
:100EA000DDFCC8F82400EAE700C0794400C079C43A
:100EB00000008CC2406A7047806A7047F8B500F540
:100EC000655507460026043500F58A7402E0E834CB
:100ED000AC420FD02046FFF731FD0028F7D0204666
:100EE000FFF778FC014630460BF0EAFAE834AC42F2
:100EF0000646EFD143F64813F8580BF095FB014630
:100F000030460BF099FCF8BD2DE9F04F91B0044646
:100F1000A3480D91154606F0B9FAA14806F0B6FAB5
:100F20009F4806F0B3FA43F648132046E658FFF709
:100F30008BFD81466068D4F808B00AF01FFFCDE948
:100F40000E012046FFF7BAFF82462046D4F81080F3
:100F5000E768FFF74BFF0AF011FFCDE90A013946B8
:100F600040460BF0ABFA8F490BF0B2FB0AF006FFDC
:100F7000CDE9080140460AF001FFCDE906013846F7
:100F80000AF0FCFECDE9040150460AF0F7FEDDE967
:100F90000E23CDE90201CDE9002331465B464A46E6
:100FA000814806F073FA7E4806F070FA04F58A74F8
:100FB0004FF001084FF0000BA94607E008F10108C7
:100FC000B8F13F0F04F1E80400F0DE802046FFF79F
:100FD000B5FC0028F2D02046FFF7A8FB2046FFF71B
:100FE000A9FB2046FFF7AAFB2046FFF7ABFB082131
:100FF0006E4809F029FD41466D480AF00BF8B8F13A
:10100000090F40F3C78002216A4809F01DFD204600
:10101000FFF75CFC0AF0B2FE9DF8345000950246E2
:101020000B4663480AF000F80121634809F00CFD03
:10103000B9F1000F2DD1DA464E4620E006215F4877
:1010400009F002FD51465A4809F0E4FF02215C48CC
:1010500009F0FAFC31462046FFF778FB0AF08EFED5
:10106000009502460B46524809F0DEFF0136012189
:10107000514809F0E9FC0C2E00F08980BA46BAF11B
:10108000090F0AF10107D9DC01214E4809F0DCFC07
:10109000D4E7B9F1010F2ED1DA4600261FE0062170
:1010A000464809F0D1FC5146414809F0B3FF0221FE
:1010B000434809F0C9FC31462046FFF747FB0AF0D8
:1010C0005DFE009502460B46394809F0ADFF01363A
:1010D0000121394809F0B8FC082E0AD0BA46BAF105
:1010E000090F0AF10107DADC0121364809F0ACFCEE
:1010F000D5E70BF1080B2E4809F03CFF09213248D7
:1011000009F0A2FC00212046FFF706FC0AF036FE9B
:10111000022502460B460095254809F085FF0A2165
:101120002A4809F091FC01212046FFF7F5FB0AF05F
:1011300025FE009502460B461D4809F075FF0C215F
:10114000234809F081FC2046FFF7F4FB002310221E
:101150000146174809F01EFF08211E4809F074FCDB
:101160002046FFF769FB002301461022104809F0D2
:1011700011FF08F101080E4809F0FCFEB8F13F0F1D
:1011800004F1E8047FF422AF11B0BDE8F08F0BF159
:101190000C0BB0E701210B4809F056FC33E700BF08
:1011A000F416010000007A4428100100C810010064
:1011B0009889FF1FF8150100D4100100D810010014
:1011C0008412010004170100E0100100EC1001007E
:1011D000F8100100081101002DE9F04F85B000F56D
:1011E0008A758A4603929B462E464FF0010806E018
:1011F00008F10108B8F13F0F06F1E8067BD0304650
:10120000FFF79CFB0028F3D000230A2251467D48BB
:1012100009F0C0FE01217C4809F016FC03980AF091
:10122000ADFD00230246009376480B4609F0FCFE14
:101230000121754809F008FC5946724809F0EAFE98
:101240000121714809F000FC41466E4809F0E2FEB8
:1012500001216D4809F0F8FB00244FF002092146F6
:101260003046FFF773FA0AF089FDCDF80090024688
:101270000B46644809F0D8FE01340121624809F0A8
:10128000E3FB082C4FF00207E9D100213046FFF7BD
:1012900043FB0AF073FD009702460B46594809F0DC
:1012A000C3FE0121584809F0CFFB01213046FFF76A
:1012B00033FB0AF063FD009702460B46514809F0E4
:1012C000B3FE0121504809F0BFFB39463046FFF715
:1012D00023FB0AF053FD009702460B46494809F0EC
:1012E000A3FE08F10108474809F044FEB8F13F0F9A
:1012F00006F1E80683D101274FF0000904E0013729
:101300003F2F05F1E80579D02846FFF717FB0028A5
:10131000F5D000230A2251463C4809F03BFE01214A
:10132000394808F0E1F903980AF028FDCDF800905B
:1013300002460B46354809F077FE0121324808F095
:10134000D3F95946314809F065FE01212E4808F0CD
:10135000CBF939462D4809F05DFE01212A4808F0F5
:10136000C3F900244FF0020821462846FFF7EEF9A2
:101370000AF004FDCDF8008002460B46234809F030
:1013800053FE01340121204808F0AEF9082C4FF03B
:101390000206E9D100212846FFF7BEFA0AF0EEFC6A
:1013A000009602460B46194809F03EFE01211648F8
:1013B00008F09AF901212846FFF7AEFA0AF0DEFCA0
:1013C000009602460B46114809F02EFE01210E48F8
:1013D00008F08AF931462846FFF79EFA0AF0CEFC5B
:1013E000009602460B46094809F01EFE01370748E1
:1013F00009F0C0FD3F2F05F1E80585D105B0BDE836
:10140000F08F00BF9889FF1FA40C01008889FF1F7F
:1014100010B5132007F052FE012815D007F062FE28
:101420000F4B104A1B6812880F49C01A642303FB34
:1014300000F092B2B0FBF2F000EB8000C0EB0010C5
:10144000C00080B2088010BD054C07F04BFE236839
:10145000044AC01A80B2108007F044FE206010BD1C
:101460001CD1FF1FB4D0FF1F2CD1FF1F0A4A0B490C
:10147000106ED36D03FB00F34FF47A7000FB03F0A2
:10148000642310B50B600BF0CFF80549054C0BF049
:10149000D3F9206010BD00BFD8CFFF1F1088FF1FF9
:1014A000E4388E3E08D1FF1F38B5044608460D4685
:1014B0000CF006F92368024629465B6820469847E7
:1014C0000546204609F056FD284438BD2DE9F8436D
:1014D0004748484E484F494C05F0D8FF484B4949CA
:1014E000494A4A48596011251D70494D4949DA60F9
:1014F0001E6100224FF4FA769F619C62464F474C72
:101500001D63474DD861D9624FF07C5045499A63BD
:101510009E863C220C26DF631C64434F434C5D6572
:10152000434DD864196502200121A3F8A8209E65C7
:10153000002264265F62C3F8C8404FF496773224D5
:101540001D625D615D6440F61C45587058721972E9
:10155000D96583F848201E66DF665F669C664FF09B
:101560000A091D6741F20408C3F88020C3F884000B
:10157000C3F88820C3F89040C3F8B0404FF05A0C2D
:10158000C3F8AC20C3F8B810C3F8BC004FF47A7E9F
:10159000C3F8C060274F83F8CC1083F8CD10264ED7
:1015A00083F8CE2041F28831A3F8D02044F620659C
:1015B00040F2D662FF240520C3F87490C3F8788007
:1015C000C3F87CC0C3F894E0C3F89870C3F89C607B
:1015D000C3F8A450C3F8B440A3F8C600C3F88C10F5
:1015E000A3F8C410A3F8A020A3F8A220BDE8F883B4
:1015F000141101000000404033338340CDCCCC3D7A
:10160000D8CFFF1F20A1070066668640CDCC4C4096
:10161000000020C100008242000020420000A040E3
:101620000AD7233D9A997940333373409A99993E6A
:10163000CDCC4C3E0000684200C02044F0B50021F3
:1016400085B0112007F048FD0021102007F044FD6F
:101650000021122007F040FD0021132007F03CFD7F
:1016600001210B2007F038FD01210C2007F034FD8B
:101670000121142007F030FD0121152007F02CFD79
:101680000121162007F028FD0121172007F024FD75
:101690000121052007F020FD994C9A4D01210620DB
:1016A00007F01AFD01210D2007F016FD20880AF031
:1016B000B7FF0146162007F079FC20880AF0B0FF3A
:1016C0000146172007F072FC20880AF0A9FF0146A6
:1016D000052007F06BFC20880AF0A2FF00240146D9
:1016E000062007F063FC00942346874A8749884810
:1016F00006F04CF9E6B232468249854806F0F4F825
:101700002B79804982486FF30003013432462B71F4
:1017100006F0E0F8082CEDD10924E6B2324679490A
:101720007B4806F0E1F82B797649794843F00103CC
:10173000013432462B7106F0CDF80D2CEDD1754CED
:1017400023681021D3F8840006F0F2FD23681021ED
:10175000D3F8840006F080FE23680221D3F88400C9
:1017600006F03CFD23680221D3F8840006F0C4FE95
:1017700023680F21D3F8840006F0ACFF0C216648E3
:1017800009F062F9654809F0F5FB1121644809F098
:101790005BF9624809F0EEFB40F2836007F082FDDE
:1017A0005E4809F0E7FB17215E4809F04DF95B48F8
:1017B00009F0E0FB5C4B1B789A0600F1DB805A4B8A
:1017C0001B781B0700F1E280574B1B785F0700F185
:1017D000E980554B1B789E0700F1F080534B1B7836
:1017E0001D0600F1F780514B1B785C0600F1FE806E
:1017F0004E4B1B78980600F105814C4B1B7859071E
:1018000000F10C81494B1B781A0700F11381474BFB
:101810001B789B0700F11A81404809F0ABFB72B6B8
:10182000434A4CF220534DF62811202413802346BE
:101830001180013BFDD13F4D3F48404900234FF40B
:1018400080562E8003800B8032F80E3C9BB243F012
:10185000D30322F80E3C62B69D2008F0CFF8214653
:101860003748384D09F0F0F82C4809F083FB05F1B2
:10187000D4062F462C46601B07F0B6F804F8010B7F
:10188000B442F8D13B78112B01D0FFF71FFE0420A2
:1018900005F050FD2C4B2D482D4D00221A6005F00F
:1018A0001BFD01210D2007F003FCF96D2948FFF70E
:1018B00077FAB7F9D030FA6C97F848102548FFF757
:1018C00071FA2548254B046803941B682449254A6E
:1018D000039E0068029012682E6081FB030122487B
:1018E000029D224C0560DB17A3EB211313FB02F3CF
:1018F0001F4923800422132007F0CCF905B0F0BD66
:101900001488FF1FB8D0FF1FFCD2FF1F20A10700C3
:1019100060D1FF1F40D1FF1F341101009889FF1FC4
:10192000441101005811010001F0074000F0074088
:101930000E200540042005400620054016200540E5
:101940005C120100D8CFFF1F4894FF1FC094FF1FF7
:1019500028CFFF1FC095FF1F08D3FF1F3488FF1F2C
:101960001F85EB513088FF1F34CFFF1FF0D0FF1FC2
:10197000111400002121394809F066F8384809F0AF
:10198000F9FA384B1B781B077FF51EAF0C21364840
:1019900009F05AF8324809F0EDFA324B1B785F072C
:1019A0007FF517AF0E21314809F04EF82C4809F0A9
:1019B000E1FA2C4B1B789E077FF510AF17212C48BE
:1019C00009F042F8264809F0D5FA2A4B1B781D0683
:1019D0007FF509AF0E21284809F036F8204809F0B4
:1019E000C9FA244B1B785C067FF502AF122123480D
:1019F00009F02AF81A4809F0BDFA1E4B1B78980620
:101A00007FF5FBAE13211E4809F01EF8144809F0BB
:101A1000B1FA184B1B7859077FF5F4AE1C21194811
:101A200009F012F80E4809F0A5FA124B1B781A07B4
:101A30007FF5EDAE1921144809F006F8084809F0C1
:101A400099FA0C4B1B789B077FF5E6AE18210F48DF
:101A500008F0FAFF024809F08DFADDE67011010086
:101A60009889FF1F01F0074094110100A4110100A3
:101A7000B411010000F00740CC110100DC1101009D
:101A8000F0110100041201002412010040120100B3
:101A900070B5464C464D4748E66800232B70FFF76B
:101AA00057F9014630460AF0B1FF08B104232B7004
:101AB0004048FFF727F921690AF0A8FF18B12B78F1
:101AC00043F010032B703B48FFF7F4F9E16A0AF08A
:101AD000BBFF18B12B7843F040032B70002335482F
:101AE0006B70FFF7E9F9216B314E0AF08FFF08B1F7
:101AF0000123737000232F48EB70FFF729F9054687
:101B00002C482B4EFFF7FEF8014628460AF0D6FC7B
:101B1000616C0AF099FF08B10123F370264D254846
:101B200000232B70FFF714F9A16A0646E0680AF05B
:101B3000C5FC014630460AF087FF08B104232B702C
:101B40001C48FFF7DFF8A16A064620690AF0B8FCD6
:101B5000014630460AF05AFF18B12B7843F01003C3
:101B60002B701448FFF7A6F9216C0646E06A0AF0CC
:101B7000A5FC014630460AF067FF18B12B7843F008
:101B800040032B7000230B486B70FFF795F9216C15
:101B90000546206B084C0AF093FC014628460AF0E3
:101BA00035FF08B10123637070BD00BFD8CFFF1FA0
:101BB000C0CFFF1FC095FF1F1C94FF1F514B1B6818
:101BC000002B74D0F0B5504D2B680533B3F57A7FF8
:101BD00083B040F38E80002300272B604B4CD4F859
:101BE000B0000AF021FD0646D4F8B4000AF01CFD4E
:101BF00031460AF063FC39460AF06AFD44490AF0AE
:101C00001BFE31460AF05CFC0AF028FF0146062064
:101C100007F0CEF802213F4808F016FF3E4809F0D1
:101C2000A9F906213D4808F00FFF28680AF0FCFCDE
:101C30003B490AF04DFD0AF0A1F8022602460B4688
:101C40000096354809F0F0F90D21364808F0FCFE01
:101C5000D4F8B0000AF0E8FC074628680AF0E4FC73
:101C60002F490AF035FD0546D4F8B4000AF0DCFC33
:101C700039460AF023FC014628460AF029FD24498A
:101C80000AF0DAFD39460AF01BFC0AF077F80096F4
:101C900002460B46204809F0C7F931461D4808F0B6
:101CA000D3FE1D4803B0BDE8F04009F063B9174BFF
:101CB0001D4AD3F8B010D3F8B43012685B1A632B06
:101CC0000BDD1A4803FB02F380FB0302DB17C3EBB7
:101CD00062131944062007F06BB8154803FB022372
:101CE00080FB0302DB17C3EB22121144062007F02E
:101CF0005FB818462B600AF097FC09490AF0E8FC27
:101D000007466BE74494FF1FACD0FF1FD8CFFF1FDF
:101D10000000C842F81501009889FF1F80120100D9
:101D2000CDCCCC3D881201001088FF1F1F85EB51E0
:101D3000CBF08D2870B5B548B54C84B009F01AF9D0
:101D4000B24809F017F9B14809F014F90D21B1486A
:101D500008F07AFED4F8AC30012B11D0AE4DAB4870
:101D6000297800230A2209F015F92B78052B69D868
:101D7000DFE813F08C01910196019B01A001A50100
:101D80000921A64808F060FEA548FEF7BBFF2169BF
:101D90000AF03CFE18B10F21A24808F055FEA048F9
:101DA000FEF7D6FFE1680AF04FFE18B10E219E48FB
:101DB00008F04AFE9A48FEF7CBFF05469848FEF722
:101DC000A1FF014628460AF079FB616C0AF03CFE4F
:101DD00018B11121954808F037FE9148FFF706F831
:101DE000E16A0AF031FE18B10C21914808F02CFE8E
:101DF0008B48FEF7FBFF216B0AF008FE18B10D219E
:101E00008C4808F021FE8C4B85481B68012B00F0A4
:101E10009081FEF777FF21697D4D0AF015FE0028BD
:101E200000F0F1807E48FEF793FFE9687A4D0AF0F2
:101E3000EDFD38B12B78052B00F08D8108217F480E
:101E400008F002FE02217E4808F0FEFD122007F095
:101E500035F9012800F03881112007F02FF9012809
:101E600000F03C81774B1C68012C00F0408102217E
:101E70007348754C08F0E8FD744B6448196809F024
:101E8000C9F8624809F076F80421714808F0DCFDD1
:101E90000B2007F013F9002301460A225B4809F0E2
:101EA00079F80C2007F00AF9002301460A22574866
:101EB00009F070F8142007F001F9002301460A2206
:101EC000524809F067F8152007F0F8F80A220023B5
:101ED00001464E4809F05EF806215E4808F0B4FD60
:101EE0002368DE074FF001014CBF5B485B4808F0F8
:101EF000ABFD236898074FF001014CBF5648574887
:101F000008F0A2FD23685A074FF001014CBF524868
:101F1000524808F099FD23681B074CBF4E484F48B4
:101F2000012108F091FD04214D4808F08DFD11209C
:101F300007F0C4F8002301460A22344809F02AF8C1
:101F4000102007F0BBF8002301460A222F4809F0B1
:101F500021F8122007F0B2F8002301460A222B488C
:101F600009F018F8132007F0A9F80A220023014607
:101F7000264809F00FF818213A4808F065FD3A4B59
:101F800018680AF051FB39490AF0A2FB09F0F6FE85
:101F9000002402460B4600941C4809F045F81D2118
:101FA000334808F051FD334B18680AF03DFB2F49C8
:101FB0000AF08EFB09F0E2FE00940B46024613483D
:101FC00009F032F802212C4808F03EFD2B78032B53
:101FD00002D02A4B1B78A3B11421294808F034FD04
:101FE000284B188880B20AF01FFB27490AF070FBC3
:101FF00009F0C4FE002402460B460094034809F091
:1020000013F804B070BD044D1CE700BF9889FF1F92
:10201000D8CFFF1F98120100CCCFFF1FA8120100DC
:10202000C095FF1FB4120100C4120100D4120100B8
:10203000E8120100F81201005094FF1F2C13010058
:10204000F8150100CCD0FF1F30D1FF1F2494FF1FD3
:10205000A4130100AC130100B4130100B422010069
:10206000B8130100C01301004094FF1FCDCCCC3D3C
:10207000DC13010024D1FF1FFC1301002CCFFF1F34
:10208000001401002CD1FF1F6F12833A062134483F
:1020900008F0DAFCD6E60721324808F0D5FCD1E694
:1020A0000721314808F0D0FCCCE608212F4808F081
:1020B000CBFCC7E60B212E4808F0C6FCC2E6072180
:1020C0002C4808F0C1FCBDE60E212B4808F0BCFCF2
:1020D000112006F0F3FF01287FF4C4AE0A2127483F
:1020E00008F0B2FC264B1C68012C7FF4C0AE112115
:1020F000244808F0A9FC2146234808F0A5FC234BFE
:10210000234A1B680393039B1068C01A0AF088FADD
:1021100020490AF0DDFA09F031FE002602460B469E
:1021200000961D4808F080FF2146174808F08CFCF7
:102130009DE6FEF7E7FD616A0AF086FC48B11621CC
:102140001648174D08F080FC0A21164808F07CFC60
:1021500078E6134D72E60A21124808F075FC71E624
:102160003813010040130100541301005C130100F7
:10217000481301006813010070130100801301006F
:10218000CCD0FF1F8C130100A013010008D3FF1F48
:10219000FCD0FF1F6F12833A9889FF1F08130100BC
:1021A000CCCFFF1F201301002DE9F04F954CD4F840
:1021B0008430012B8DB000F04981032B924F53D016
:1021C000924E934DD4F880309248012B09BF296874
:1021D000296801F10041296006F0F8FA3368002B04
:1021E00040F0C7808B4806F0C7FAD4F884303860D6
:1021F000012B0646834A00F0C98087490AF024FC77
:1022000078B9864930460AF001FC50B9844A854BBA
:1022100012680B920B9A1A6000232B600DB0BDE878
:10222000F08FDFF8FC817F4CD8F800300A930A98D1
:1022300023687D4FC01A0AF0F3F931460AF048FAD4
:102240007A490AF0F9FA79490AF0F6FA39680AF097
:1022500037F9D8F800300993099B236000233860D0
:102260002B600DB0BDE8F08FDFF8D881704DD8F845
:102270000000664E012300220F212B6005F026FF8F
:102280002B68012B336800F00781002B40F08B8115
:10229000D8F80030DFF8B091D3F88400436B1969A7
:1022A0008DB2C9F8005005F097FFB4F8A22040F6AF
:1022B000E44303FB05F1B1FBF0F0801A00B20AF031
:1022C000B3F95C49524D8246D4F898000AF000FAFE
:1022D000014650460AF0B0FAD9F800302860632B66
:1022E000DFF864A100F3528100232B603368002BD8
:1022F0003FF468AF0221504808F0A6FBD8F8003040
:10230000D9F80020D3F8840040F6E44303FB02F838
:1023100005F062FFB8FBF0F00AF082F98046B4F8ED
:10232000A2000AF081F9014640460AF0C7F809F018
:1023300025FD4FF0020802460B46CDF800803F48CD
:1023400008F072FE41463C4808F07EFB286809F020
:1023500015FDCDF8008002460B46384808F064FEB3
:102360004146374808F070FB4146334808F06CFBA3
:1023700028E7284806F000FA09F000FD0226024688
:102380000B4600962D4808F04FFE2BE7284B1B68A4
:10239000012B00F04181022B7FF43EAFD2F8A44024
:1023A00020460AF041F9014630460AF04DFB48B993
:1023B00060420AF039F9014630460AF027FB00284E
:1023C00000F05981DFF85880164CD8F80030079398
:1023D00007982368144FC01A0AF022F931460AF010
:1023E00077F912490AF028FA10490AF025FA3968F3
:1023F0000AF066F8D8F800300693069B3860236030
:102400000AE700BFD8CFFF1FC4CFFF1FBCCFFF1FFD
:1024100020D1FF1FD0D0FF1F0000FA430000FAC3F5
:1024200008D3FF1F2094FF1F08D1FF1F00007A442C
:102430002888FF1F17B7D138F81501009889FF1FAA
:102440005414010040D1FF1F4CD1FF1FAC4FD4F8F2
:10245000A4603D6830460AF0E7F829460AF0F4FA2D
:1024600048B170420AF0E0F8014628460AF0ECFA5A
:1024700000287FF4F9AEDFF8C882A24DD8F800003A
:10248000A14E022300220E212B6005F01FFE2B68B7
:10249000012B33687FF4F9AE002B40F0F380D8F8BD
:1024A0000030DFF8AC92D3F88400436B19691FFA4F
:1024B00081FBC9F800B005F08FFEB4F8A030934D51
:1024C00040F6E44A0AFB0BFBBBFBF0F0C01A00B27B
:1024D0000AF0AAF88E498346D4F89C000AF0F8F86E
:1024E000014658460AF0A8F9D8F80020D9F800307B
:1024F0002860D2F884000AFB03FA05F06DFEB4F8F8
:10250000A030BAFBF0F00FFA80FAC3EB0A03002BFD
:10251000B4F8C620B8BF5B429342BCBF00232B6017
:102520003368002B3FF44EAE02217A4808F08CFA53
:10253000D8F80030D9F80020D3F8840040F6E443FE
:1025400003FB02F805F048FEB4F8A010B8FBF0F069
:1025500000B2411A704808F05DFD02216D4808F094
:1025600073FA286809F00AFC4FF0020802460B468D
:10257000CDF80080684808F057FD0321674808F04F
:1025800063FA4146634808F05FFA1BE6D8F800306A
:10259000D3F8840005F020FEDAF800306438984261
:1025A000FFF4A2AEA2E65C48DFF8A491DFF890A1A8
:1025B00008F0E0FC0C215A4808F046FA0C21594872
:1025C00008F042FAD8F800203368D2F88400426B51
:1025D00011698DB2C9F80050002B3FF464AE05F0CC
:1025E000FBFD40F6E44100230A2201FB05F1B1FBAB
:1025F000F0F1494808F0CEFC0221464808F024FAE0
:10260000B4F8A210444808F005FDDAF80030D9F813
:102610000050D3F8840046E643490AF015FA58B949
:10262000424930460AF0F2F930B9414A414B12684A
:102630000592059A1A60EFE5DFF8F4803D4CD8F872
:1026400000300493049823683B4FC01A09F0E8FF58
:1026500031460AF03DF839490AF0EEF837490AF0F8
:10266000EBF8396809F02CFFD8F800300393039B8E
:1026700038602360D0E52E4A2E4B12680892089AE3
:102680001A60C9E52448DFF8C8902D4D08F072FCA7
:10269000D4F88430012B4FF00B010CBF29482A4895
:1026A00008F0D2F90C211F4808F0CEF9D8F8002024
:1026B0003368D2F88400426B11691FFA81FBC9F8B4
:1026C00000B0002B3FF4F7AE05F086FD40F6E44184
:1026D00000230A2201FB0BF1B1FBF0F10E4808F0D8
:1026E00059FC0121194808F0AFF9B4F8A0100A48C4
:1026F00008F090FC2B68D9F800B0D3F88400DAE633
:10270000C4CFFF1F2888FF1FBCCFFF1F20D1FF1F92
:1027100017B7D138F81501009889FF1F4014010040
:1027200044140100301401000000FA430000FAC311
:1027300008D3FF1F2094FF1F08D1FF1F00007A4419
:1027400040D1FF1F181401002414010004170100D8
:102750004CD1FF1F2DE9F04F9B4D2B6885B0002B0E
:102760007CD09A4CDFF86C82994FDFF8B092D4F8A5
:102770008830964E012B00F08C80D7F800A0D6F858
:1027800060B0F56D934E05FB0BF54FF47A7000FBCE
:1027900005F009F049FF90490546504609F098FFB9
:1027A00029460AF049F88D4909F092FF0AF056F9D6
:1027B0006328C8F800004CDD284687490AF03CF839
:1027C000642338603360D9F80030002B3ED0D4F851
:1027D00084307E4D012B00F08A80032B00F0E280D4
:1027E000022B00F0E68002217D4808F02DF97D4B98
:1027F000186809F0C3FA022402460B4600947A488E
:1028000008F012FC2146794808F01EF92146744868
:1028100008F01AF9D8F80010734808F0FBFB0621FD
:10282000734808F011F938686B4909F051FF09F055
:10283000A5FA009402460B466B4808F0F5FB03210D
:102840006C4808F001F9684808F094FB05B0BDE851
:10285000F08F0028BCBF00233360B4E7664E5B4CAA
:1028600033680293029A42F228339A424CD8336872
:102870000393039A42F210739A424ED8D4F88830E8
:10288000DFF85081524FDFF89491504E012B7FF4C6
:1028900074AF5A48FEF712FB5949D6F870A0756F0D
:1028A00009F016FF0AF000F9B26FF36FD4F860B0C8
:1028B000CAEB02025B1B80B29A42CAEB0000C6BFA1
:1028C00003FB00000132584390FBF2F02844E56D11
:1028D00000FB0BF005FB00F000EB8000400009F06E
:1028E000A3FE3D4909F0A8FF824638604AE7454B00
:1028F0001B68012B4FF00A010CBF4348434808F006
:10290000A3F8D5F8843068E73C48B4F9D030E26CDD
:1029100094F84810FEF746FAA9E73848FEF7CEFAD1
:102920003749276F666F09F0D3FE0AF0BDF8A26F32
:10293000E36FD21B9B1B80B29A42A0EB07003DDDE8
:1029400003FB0000531C90FBF3F31E44206EE36D69
:10295000DFF88080DFF8C490C8F8006000FB06F064
:1029600003FB00F000EB8000400009F05DFE1A4917
:10297000174F09F061FFD9F80030386001222A6052
:10298000002B3FF4F4AE0221154808F05DF816481C
:1029900008F0F0FA59211E4808F056F8124808F0DD
:1029A000E9FAE4E610211B4808F04EF8D4F8843028
:1029B00016E70721184808F047F814E703FB00F36F
:1029C00093FBF2F31E44C1E7C0D0FF1FD8CFFF1F17
:1029D00008D1FF1F1088FF1FE4388E3E0000C84258
:1029E000F8150100C4CFFF1F9889FF1F5414010080
:1029F000E8140100F014010008D3FF1FC095FF1F69
:102A000000007A442888FF1FB4140100C01401009C
:102A100058140100CC140100E01401000088FF1FCD
:102A200030B5112083B006F049FB012818D01220E0
:102A300006F044FB012813D000210B2006F038FBE0
:102A400000210C2006F034FB0021152006F030FB9D
:102A50002649274B0120002208701A6003B030BDC0
:102A60000121152006F024FB224A234C234B126837
:102A7000D4F88C1001921B68019A1D4D0B449342AF
:102A80004FF00201296005D901210C2006F010FB4E
:102A900003B030BDD4F8940009F0C6FD184B196896
:102AA00009F0B4FF0028EFD101210B2006F000FB54
:102AB00094F8CC3003242C6043B10C4B02221A70E2
:102AC00000210C2006F0F4FA03B030BD122006F00D
:102AD000F5FA012808BF054B4FF0110008BF1C7024
:102AE00006F0ECFA0128EBD1E7E700BFCCCFFF1FDF
:102AF000BC94FF1F08D3FF1FD8CFFF1F28CFFF1F95
:102B0000C4CFFF1FF0B5684E684D34682B689C42F7
:102B100087B039D014F0010155D014F0020149D02A
:102B200014F004013DD0E3070ED52B68DF070BD46A
:102B30005F4F3A68002A00F082805E4B1B68019369
:102B4000019B93426DD83468A0070DD52B68990777
:102B50000AD4594F3A68002A4CD0564B1B6803934D
:102B6000039B934238D8346862070DD52B685B0706
:102B70000BD4524F3A68002A7ED04E4B1B68059307
:102B8000059B934268D834680CB107B0F0BD21466C
:102B9000162006F00DF92146172006F009F907B0B6
:102BA000F0BD052006F004F92B68346803F0FB0340
:102BB0002B60B8E7172006F0FBF82B68346803F0A9
:102BC000FD032B60ACE7162006F0F2F82B683468A2
:102BD00003F0FE032B60A0E7394B1720D3F89010C9
:102BE00006F0E6F82B68346843F0020300222B60FD
:102BF0003A60B9E7334808F0BDF90C21324807F0D4
:102C000023FF304808F0B6F9FF21172006F0D0F86E
:102C1000284B2E4A19680291029912680A443A60B8
:102C20009CE7274B1620D3F8901006F0C1F82B68CC
:102C3000346843F0010300222B603A6084E7FF21EF
:102C4000162006F0B5F81B4B204A19680091009930
:102C500012680A443A6071E7194B0520D3F89010C6
:102C600006F0A6F82B68346843F0040300222B60BA
:102C70003A60002C89D18AE7124808F07BF90C21D0
:102C8000134807F0E1FE0F4808F074F9FF21052012
:102C900006F08EF8074B0D4A1968049104991268E2
:102CA0000A443A606AE700BFBC94FF1F30D1FF1F9F
:102CB000B0D0FF1F08D3FF1FC4D0FF1FC8D0FF1F15
:102CC000D8CFFF1F9889FF1FF41401001888FF1F39
:102CD000041501002DE9F047534EDFF87081336889
:102CE000DFF86C91D3F88400504D0F2105F0F2FC11
:102CF0000023012222214E48C8F80030C9F80020E4
:102D000007F0A2FED8F80030132B20DC40F6E44791
:102D10003368B5F8A0A0D3F88400436B1C6905F0B4
:102D20005BFAA4B2012107FB04F4B4FBF0F44148C0
:102D30005444A5F8A04007F087FE642006F0F4F99B
:102D4000D8F800300133132BC8F80030E0DDB5F8B7
:102D5000A030394A3948A2FB03129B1A02EB5303F5
:102D6000C3F30F131946A5F8A03008F053F91D213D
:102D7000334807F069FE0221324807F065FE2F480C
:102D800008F0F8F800231A460E213068C8F8003021
:102D900005F09CF9022322212548C9F8003007F0EC
:102DA00053FED8F80030132B20DC40F6E44733689C
:102DB000B5F8A290D3F88400436B1C6905F00CFAB7
:102DC000A4B2012107FB04F4B4FBF0F419484C440D
:102DD000A5F8A24007F038FE642006F0A5F9D8F85F
:102DE00000300133132BC8F80030E0DDB5F8A23015
:102DF000114A1248A2FB03129B1A02EB5303C3F3BE
:102E00000F131946A5F8A23008F004F91D210E4849
:102E100007F01AFE02210B4807F016FE0748BDE82E
:102E2000F04708F0A7B800BF40D1FF1FD8CFFF1F61
:102E30001415010058150100876118869889FF1F35
:102E400038150100F81501005C1501002C94FF1FD6
:102E50002888FF1F2DE9F047C64DD5F8BC30062B5A
:102E600000F0AE81C44BC54C1B68A86D40F25131D7
:102E700008222160E271002B00F0778109F0D4FB79
:102E8000696A064609F024FCBD49BA4F09F020FCE6
:102E900009F00AFE80B203126372BA4ABA4B126892
:102EA0001B68E9692072A37230461B121612E37286
:102EB0002273667309F00CFCB149B04E09F008FCAE
:102EC00009F0F2FD83B21A123146B048A373E273DF
:102ED00004F054FFAE4AAF4B12681988A172D3B206
:102EE000237203EB83035B00237302EB820343F340
:102EF000D7134FEA212E12124FF008084FF00009A5
:102F000031466373A14884F80BE040F25533627296
:102F1000236084F8078084F80E9084F80F9004F002
:102F20002DFF40F256339C48236084F80780FDF75C
:102F300033FF9A4909F0CCFB09F0B6FD20729648A0
:102F4000FDF72AFF954909F0C3FB09F0ADFD944A4E
:102F50009249C0F307231068637209F06DFC09F011
:102F60007DFD40FA08F3A0728B48E372FDF73EFF47
:102F7000834909F0ADFB09F071FD20738648FDF728
:102F800035FF7F4909F0A4FB09F068FD40F30720F5
:102F9000314660737D4884F80E9084F80F9004F0F9
:102FA000EDFE022006F0C0F87E4A7F4B11782172B8
:102FB000517890786172D178A0721A789878E1721D
:102FC000597822736173DA78A07340F25A3331462C
:102FD0006E48E273236084F8078004F0CFFE734BE1
:102FE0006A481A7822725A7862729A78A272DA78EB
:102FF000E2721A7922735A7962739A79DB79E373F0
:10300000314640F25E33A273236084F8078004F0F7
:10301000B5FE022006F088F8654B5C481A782272EB
:103020005A7862729A78A272DA78E2721A79227306
:103030005A7962739A79DB79E37331464FF45C73A2
:10304000236084F80780A27304F098FE594B1B6834
:10305000012B00F06F82022006F066F8082640F28D
:1030600073334D482360E671FDF74CFE524909F079
:103070002FFB09F019FD20724748FDF743FE4E492A
:1030800009F026FB09F010FDC0F3072342486372E4
:10309000FDF75EFE484909F01BFB09F005FDA07233
:1030A0003D48FDF755FE444909F012FB09F0FCFCD0
:1030B000C0F307233848E372FDF7FEFE3F4909F0ED
:1030C000FFF909F0F1FC20733348FDF7F5FE3B49A9
:1030D00009F0F6F909F0E8FCC0F307232E48637302
:1030E000FDF7E8FE354909F0EBF909F0DDFCA073C6
:1030F0002948FDF7DFFE314909F0E2F909F0D4FC77
:103100001E49C0F307232148E37304F037FE022071
:1031100006F00AF8E96D2B6E022211FB03F310464C
:1031200040F27931C3F30725E271216023726572A1
:1031300005F0FAFF40F2723317482360E671FDF79D
:10314000A9FC20721448FDF7A5FC002340FA06F202
:103150006272A372E37223736373A373E373074909
:103160000A48BDE8F04704F009BE09F05DFAA96914
:10317000064687E6D8CFFF1F5094FF1F3094FF1FED
:103180000000204124D1FF1F4094FF1F60D1FF1F8A
:103190001088FF1F1688FF1FC095FF1F0000C84240
:1031A000C4CFFF1FC0CFFF1F1C94FF1F3C88FF1F11
:1031B0004488FF1FCCD0FF1F00007A44339388431C
:1031C000CD4CCE48002608274FF4C36321464FF06C
:1031D00059094FF044084FF0420A236084F80A90DE
:1031E00084F80B80E771267226736673A673E67304
:1031F00084F809A004F0C2FD022005F095FF4FF409
:10320000BB632146BD48236084F80A9084F80B8094
:10321000E771267284F809A026736673A673E673B5
:1032200004F0ACFD022005F07FFFE96D2A6ED5F8B1
:1032300058E0B248E77101FB02F312FB01F203EB25
:10324000C30103EB810302EBC2010EFB03F302EBAC
:1032500081024FF4AB68032112FB0EF24FF0050C14
:103260003B414FF0070EC4F8008021724FF0120965
:1032700021464FF0040884F80EC02373627384F86B
:103280000FE0A67284F8099084F80B8004F076FDB4
:10329000022005F049FF34224F234FF4B36E21463C
:1032A0009648E272E373C4F800E0E7712672667232
:1032B00084F80A902673667384F80E8004F05EFD2D
:1032C000022005F031FF8E4BE7711B68A86D4FF4AB
:1032D00056722260002B40F0658109F0A5F9A969BA
:1032E000064609F0F5F9874909F0F2F909F0DCFB27
:1032F00080B240FA07F360722372E969304609F040
:10330000E7F9804909F0E4F909F0CEFB7E4B7F4AEA
:103310001B6812687849637385B216121B122F124C
:1033200076482373E273E572A772A67304F026FD54
:10333000022005F0F9FE764A764B16681D88764B1A
:1033400076491868E57206EB8603642202FB06F2F2
:1033500003EB83039B0012122E124FF4767708259D
:1033600063722272A6722760E57109F0B1F909F063
:103370009BFB83B243FA05F70026F9225E495F48BA
:103380006373A2732773E67304F0F8FC022005F060
:10339000CBFE4FF48B604FF0120E56227823564925
:1033A00020603427554884F80AE0A273E373E5717E
:1033B0002672667226736673E77204F0DFFC0220E1
:1033C00005F0B2FE4FF4A36355482360E571FDF7A5
:1033D00071FD4C4909F07CF909F066FBC0F3072345
:1033E0004F482372FDF766FD464909F071F909F06F
:1033F0005BFB60724A48FDF75FFD424909F068F9DE
:1034000009F052FBC0F307234548A372FDF754FDB2
:103410003C4909F05DF909F047FBFF233649E072AA
:10342000364823736373A373E37304F0A7FC02208D
:1034300005F07AFE4FF49B6339482360E571FDF790
:10344000ABFC304909F044F909F02EFBC0F3072327
:1034500033482372FDF7A0FC2A4909F039F909F035
:1034600023FB304B30496072186809F0E5F909F028
:10347000F5FA40FA05F203462948A272E372FDF715
:10348000B5FC204909F024F909F0E8FA40F30723D4
:1034900023482373FDF7AAFC1A4909F019F909F02A
:1034A000DDFA0323607314491448A373E57304F031
:1034B00065FC022005F038FE1C4A1D4B92F801E025
:1034C0009178D0781F785E7892F800C0E571DA784C
:1034D0009D78A1724FF4AC73E07284F808C084F850
:1034E00009E027736673A573E273236002490348FA
:1034F000BDE8F04704F042BC3094FF1F60D1FF1FCD
:103500005094FF1F0000204124D1FF1F4094FF1F53
:103510001088FF1F1688FF1F08D1FF1F620B363B64
:10352000C095FF1FC4CFFF1F0000C842C0CFFF1FC0
:103530001C94FF1F2E48FDF7E5FB796D08F0C0FFD6
:1035400081462B48FDF704FC0146484609F05EFA27
:1035500000283FF480AD40F2C333254886F8078049
:103560003360FDF7CFFB3F6D394609F04FFA48B3A2
:103570002049384609F0ACF809F096FA80B240FAD2
:1035800008F37072337200230127042603221A49BC
:103590001A48A772E67222736373A373E37304F08D
:1035A000EDFB58E509F040F8696A064609F090F825
:1035B000134909F08DF809F077FA80B203126072AE
:1035C00023729AE60A48FDF79DFB0A4909F080F844
:1035D00009F06AFAC0F3072305483372FDF792FB3E
:1035E000044909F075F809F05FFA7072CBE700BF83
:1035F000C095FF1F00007A443094FF1F60D1FF1F69
:103600000000204138B5194C194A2368101D12F8E2
:10361000011F904241EA0323F9D12360154C03F1C5
:1036200000432360144BD3F88430022B15D0134B86
:103630001B68012B00D038BD114B1B68012BFAD140
:10364000104807F097FC21680E4807F0E3FC0321BF
:103650000D48BDE8384007F0F7B920680B4D08F079
:10366000E3FF2860FEF7A0FDE1E700BF28D1FF1FC0
:103670001FCFFF1FB494FF1FD8CFFF1F3CD1FF1FE8
:103680000088FF1F9889FF1F8815010020D1FF1FA8
:1036900030B54A4C4A4883B0214604F067FA2368A3
:1036A00040F2C23293426FD0A3F19A02C52A0AD9DE
:1036B00003F47F63B3F5B87F424D14D02B68012B20
:1036C00020D003B030BD404B3E4D1B68012B53D082
:1036D00000223A493D48FDF703FA236803F47F636B
:1036E000B3F5B87FEAD1384B34491B683748012B12
:1036F000374B93F8CE3043D00022FDF7CFF92B683B
:10370000012BDED1304B1B68012BDAD1314B324813
:103710001B6801930A220023019907F03BFC2268F1
:10372000264B002ADB7942DB2C492D4809F098FF13
:103730002B4809F0C5FF0146294807F085F925689F
:103740001E4B15F0804523D1DB798BB163192549D8
:103750001A7A234809F084FF214809F0B1FF014695
:103760001F4807F071F90135E379EDB2AB42EDD8AE
:10377000194807F0FFFBA4E72A68012AA8D1A8E7A7
:103780002A68012AB8D1B8E7FFF73CFF23688BE726
:10379000154D134C0FCD0FC495E8030044F8040BEE
:1037A000204620F81419152107F04EF9E0E70F49DB
:1037B0000B4822F0604209F053FFB9E718CFFF1F12
:1037C00060D1FF1F0088FF1F3CD1FF1FC095FF1F66
:1037D000D8CFFF1F08D3FF1F9889FF1FB415010022
:1037E0003CCFFF1FE0150100C81501008C1501003A
:1037F0009A4B1B78052B00F09B802DE9F04F984CDD
:10380000984E994DE26E636E9848326083B02B609B
:10381000FDF752FB216B09F0F9F808B100232B608A
:103820009248FDF747FBE16A09F00EF910B1002359
:1038300033602B608D48FDF78BFAE16809F004F9DD
:1038400008B100232B608948FDF782FAE16809F08E
:10385000FBF808B100232B608448814FFDF752FA32
:10386000216909F0D3F8002868D0002333602B6861
:103870007D4F002B4DDD7D48DFF8E481FDF71CFB1B
:10388000A16B09F0C3F8002840F0B480784B77486A
:103890001B68734F012B00F0ED80FDF759FA216A88
:1038A0008046A06908F00AFE0146404609F0CCF8BF
:1038B00000282ED0286808F0B7FE81466B48FDF737
:1038C00047FABC69396A8246204608F0F7FDBB6EAC
:1038D0008046786EC01A08F0A7FE4146074650465B
:1038E00008F0ECFD0146384608F0F2FE4146074676
:1038F000204608F0E3FD0146384608F09DFF002110
:1039000008F0DEFD0146484608F0D8FD09F0A6F8AB
:1039100028603368534A002BAFBF2B682B68002107
:103920001160002B01DA00232B6003B0BDE8F08F9B
:103930004C494D4A00230B60136070474B48FDF71C
:10394000E1F9F96909F062F800288ED13368DFF8EF
:103950001491002B8BDD4548FDF7ACFAF96B09F0AB
:1039600073F8002840F0CA804048DFF8F480FDF783
:10397000C9F9D4F8C8100746E06908F0A1FD01466E
:10398000384609F043F800283FF471AF306808F07A
:103990004BFE82463548FDF7B5F98346D8F86C00F2
:1039A000D8F81C7008F040FE39468146584608F0A9
:1039B00085FD49468346002008F080FD01465846B3
:1039C00008F086FED8F8C8108346384608F078FD1F
:1039D000394608F073FD0146584608F02DFF494668
:1039E00008F06EFD0146504608F068FD09F036F813
:1039F00030603CE7386808F017FE83461B48FDF747
:103A00005BFA0190D8F86400D8F830A008F00CFEFA
:103A1000019B81465146184608F050FD49460190E9
:103A2000002008F04BFD019B0146184608F050FEAF
:103A300051460190D8F8380008F040FD019B01463E
:103A4000184608F0F9FE494608F03AFD0146584686
:103A500008F034FD09F002F8386017E7CCCFFF1FFB
:103A6000D8CFFF1F24D1FF1F4094FF1FC095FF1F19
:103A70005094FF1FFDF76CF9216A8046606A08F0D8
:103A80001DFD0146404608F0DFFF00283FF441AF2E
:103A9000286808F0C9FD82462F48FDF759F9D7F884
:103AA0002480396A8346404608F008FD8146B86E96
:103AB00008F0BAFD0446786E08F0B6FD214608F01D
:103AC000FDFC49460746584608F0F8FC01463846D2
:103AD00008F0FEFD49460746404608F0EFFC014667
:103AE000384608F0A9FE214608F0EAFC0146504697
:103AF00008F0E4FC08F0B2FF28600AE7D9F80000FB
:103B000008F092FD82461448FDF7D4F90190F86E52
:103B1000D7F83C8008F088FD019B83464146184653
:103B200008F0CCFC0146584608F0D2FD41468346D9
:103B3000F86A08F0C3FC0146584608F07DFE0021F3
:103B400008F0BEFC0146504608F0B8FC08F086FFBD
:103B5000C9F8000008E700BFC095FF1F08B5274857
:103B600007F008FA0721264806F06EFF112005F03D
:103B7000A5FA0621F8B1234806F066FF102005F0EB
:103B80009DFA062100B3204806F05EFF122005F0E2
:103B900095FA062108B31D4806F056FF132005F0DC
:103BA0008DFA062110BB1A4806F04EFF1348BDE8F7
:103BB000084007F0DFB9174806F046FF102005F06F
:103BC0007DFA06210028DED1134806F03DFF1220C1
:103BD00005F074FA06210028DDD1104806F034FF04
:103BE000132005F06BFA06210028DCD00C4806F003
:103BF0002BFF0248BDE8084007F0BCB99889FF1FB9
:103C0000EC150100F4150100041601001416010062
:103C10002C160100FC1501000C1601001C160100F9
:103C20002416010010B5254C2368042B27DC012144
:103C30000B2005F03DFA01210C2005F039FA012195
:103C4000142005F035FA0121152005F031FAFF2185
:103C5000162005F0ADF8FF21172005F0A9F8FF2187
:103C6000052005F0A5F8FF21062005F0A1F823683E
:103C700001330A2B2360C4BF0023236010BD002141
:103C80000B2005F015FA00210C2005F011FA002197
:103C9000142005F00DFA0021152005F009FA002185
:103CA000162005F085F80021172005F081F8002185
:103CB000052005F07DF80021D6E700BF0CD1FF1FDD
:103CC00030B5092183B0AE4805F00EFD222005F085
:103CD000B3FCAC4BD3F8AC30012BAB4B1B7809D009
:103CE000052B10D8DFE813F02D0132013C01410112
:103CF00037010B00002B00F03D81052B03D107217C
:103D0000A24805F0F1FC222005F096FCFF2005F00A
:103D100093FCFF2005F090FC9D4CFF2005F08CFCEF
:103D200008219C4805F0E0FC21689B4807F072F9E7
:103D3000FF2005F081FCFF2005F07EFCFF2005F050
:103D40007BFC0921954805F0CFFC2168924807F0DB
:103D500061F9FF2005F070FCFF2005F06DFCFF20ED
:103D600005F06AFC0C218E4805F0BEFC8D4B8E4997
:103D7000186808F061FD08F001F8002402460B46BF
:103D80000094854807F050F9FF2005F055FCFF200E
:103D900005F052FCFF2005F04FFC0921834805F097
:103DA000A3FC8348FDF722F807F0E8FF00940246E1
:103DB0000B46794807F038F9FF2005F03DFCFF205D
:103DC00005F03AFCFF2005F037FC0C21794805F09E
:103DD0008BFC7748FDF770F807F0D0FF009402469F
:103DE0000B466D4807F020F9FF2005F025FCFF2069
:103DF00005F022FCFF2005F01FFC0D216E4805F0A8
:103E000073FC6B48FDF756F807F0B8FF00940246C4
:103E10000B46614807F008F9FF2005F00DFCFF2074
:103E200005F00AFCFF2005F007FC0921634805F0B6
:103E30005BFC5F48FCF7B0FF614908F049FC07F004
:103E40009DFF009402460B46534807F0EDF8FF2013
:103E500005F0F2FBFF2005F0EFFBFF2005F0ECFB87
:103E60000C21584805F040FC5148FCF74BFF5649DF
:103E700008F02EFC07F082FF009402460B464648ED
:103E800007F0D2F8FF2005F0D7FBFF2005F0D4FBA8
:103E9000FF2005F0D1FB0D214C4805F025FC4448DE
:103EA000FCF756FF484908F013FC07F067FF009441
:103EB00002460B46384807F0B7F8FF2005F0BCFB78
:103EC000FF2005F0B9FBFF2005F0B6FB09214048B3
:103ED00005F00AFC3F4B3048196807F09BF8FF20BB
:103EE00005F0AAFBFF2005F0A7FBFF2005F0A4FBCF
:103EF0000E21394805F0F8FB2D48FCF729FF05464F
:103F00002B48FCF7FFFE0146284608F0D7FA2E4959
:103F100008F0DEFB07F032FF009402460B461E4815
:103F200007F082F8FF2005F087FBFF2005F084FBF7
:103F3000FF2005F081FBFF2003B0BDE8304005F015
:103F40007BBB0621254805F0CFFBDCE60721244892
:103F500005F0CAFBD7E60B21224805F0C5FBD2E6E7
:103F60000721214805F0C0FBCDE608211F4805F0D8
:103F7000BBFBC8E608211E4805F0B6FBC3E600BF40
:103F800034160100D8CFFF1FCCCFFF1F68130100EC
:103F90001088FF1F4C1601008889FF1F581601006A
:103FA00064160100C4CFFF1F0000C8427416010050
:103FB000C095FF1F8016010090160100A016010099
:103FC00000002041AC16010000007A44BC1601003C
:103FD000CC1601002488FF1FD816010038130100F9
:103FE0004013010048130100541301005C13010049
:103FF000401601002DE9F041BE4A13889BB282B001
:104000008BB9BD4DD5F8BC30BB4E042B65D0032B0E
:1040100000F09880012B00F0C180022B00F033816A
:1040200002B0BDE8F0811088B34D80B208F0FCFA10
:10403000B24908F04DFBB24B0446188808F0F4FA78
:104040000146204608F044FBAE4B0446188808F0B1
:10405000EBFA0146204608F03BFBAB4908F038FB81
:1040600008F022FD80B208F0DFFA0646A86D08F0DD
:10407000DBFAA96908F02CFB0146304608F0DCFBAE
:1040800008F0ECFCA14B1A689042B8BF1860A04B36
:104090001B780446002BB5D09E4806F06BFF0C2120
:1040A0009D4806F0D1FC3046974908F011FB07F017
:1040B00065FE00260B460246009696488E4E06F098
:1040C000B3FF0D21954806F0BFFC2146914806F04C
:1040D000A1FFD5F8BC30042B99D1914C914AA3791A
:1040E000226043F001030822E271A371B06D08F071
:1040F0009BFAB16908F0ECFA8B4908F0E9FA08F08C
:10410000D3FC824B894A1B68126893FBF2F380B29E
:1041100000271A124FEA202E607221468448E3726B
:10412000A27284F808E027736773A773E77303F03C
:1041300025FEA279D6F8BC3067F30002032BA271EA
:104140007FF468AF764CA86DA3720122E8230721A3
:1041500040F2FF26227263722660E17108F064FA71
:10416000A96908F0B5FA704908F0B2FA08F09CFCA9
:10417000664B6E4A1B68126893FBF2F382B21E1202
:10418000171221466A486373E2722773A67303F01D
:10419000F5FDD5F8BC30012B7FF43FAF654B604C8B
:1041A0001B682360072280231020E271237204F031
:1041B00085FF002840F0D1805F4B1B68DFF84C8101
:1041C0005A4FA86D564E03EB83035B001A12A3727D
:1041D0006272D8F800303A6893FBF2F31A126273F5
:1041E000A37308F021FAA96908F072FA534B196811
:1041F00008F064F94C4908F06BFA08F055FC80B2FD
:104200000312314620734A48E37203F0B7FD0220DF
:1042100004F08AFF4A4B1B6823600722802310208A
:10422000E271237204F04AFF002840F09480424B70
:104230001B68A86D03EB83035B001A127272B372E2
:1042400008F0F2F9A96908F043FA3E4B196808F042
:1042500035F9354908F03CFA08F026FC82B216120E
:104260003868D8F80030227393FBF0F32C493048BB
:10427000A3731A12E672627303F080FDD5F8BC30A6
:10428000022B7FF4CDAE264C2948237240F20E3229
:10429000012321462260E37103F070FD1B4B1B6874
:1042A0005B00FF2BC8BFFF23042140224FF4417065
:1042B0002060E17122726372A86D08F0B5F9A969F6
:1042C00008F006FA2049054608F0BEFB00283DD05C
:1042D0002946284608F0F4F808F0E6FB80B20312FD
:1042E000E072A3720E49124802B0BDE8F04103F03B
:1042F00045BD00BF2CD1FF1FD8CFFF1F6F12833ADF
:104300003888FF1F0888FF1FCDCCCC3D4094FF1F8D
:104310002CCFFF1F9889FF1FE8160100F816010037
:104320003094FF1FF4E50618000020410C88FF1FA1
:1043300060D1FF1F4C88FF1F0488FF1F1894FF1FC8
:104340005088FF1F38CFFF1F0000484301229023F1
:10435000A272E372C6E7024B6AE7014B2DE700BF8A
:104360001C88FF1F70B50368C57984B0012D8DF8D6
:1043700005304FEA13230E468DF8043005F1010293
:1043800001A909DD07300D440DF1050310F8014FB7
:1043900003F8014FAB42F9D1034B04489B5D02F097
:1043A000B7FF04B070BD00BFD8220100C094FF1F4A
:1043B000F0B40D4B0D489C790822FF27CD26A2258D
:1043C000DA710022B0216FF300041F729E72DD7259
:1043D0005A721A735A739A73DA7319609C71194678
:1043E000F0BC03F0CBBC00BF3094FF1F60D1FF1FB7
:1043F0002DE9F041674D2B780F2B82B072D0664AC1
:10440000664B1278664F002A6AD000223A6093F811
:10441000CE10644E00294ED13378082B00F08680F0
:10442000DFF8A88143F080035F4C0821012A236054
:10443000E17100F08780682210232272637298F87D
:10444000003059490022022BA2720AD82B78CA7276
:104450004FEA03130A734A73DBB210D104338B7330
:104460000EE03B68012B04BF08230B732B7818BFA9
:104470000A73502000221B01C872DBB26273A3735F
:1044800031784948FFF76EFFE073022004F04CFEDC
:104490004549464803F072FC2A7833784448013293
:1044A00001332A703370FCF7B5FA08B1FFF780FFCB
:1044B00002B0BDE8F08101290CD133780C2BAFD1CB
:1044C000DFF8088198F800300021032B317034D9CF
:1044D0008023A9E73378DFF8F48043F08003A3E773
:1044E0003A6894E7334E344C33680093009A21685D
:1044F000002391422B7013D2304B274F1B680122AF
:1045000093423A7036D0254B31680191B3F8A80038
:1045100001993C304FF47A7606FB0011216071E777
:104520001D4A1F4F13703A681C4B70E7DFF89C80E0
:10453000317098F80030032BCAD8013388F8003066
:10454000802371E71A48FCF7DDFB1D4908F0C0F82D
:1045500008F0AAFA00F10A0315482372FCF7D2FB0F
:10456000174908F0B5F808F09FFA80B20A30001237
:10457000607264E7134806F0FDFC1321124806F050
:1045800063FA104806F0F6FC0E4806F0F3FC3A78A1
:10459000B9E700BF10D1FF1F18D1FF1FD8CFFF1FF1
:1045A000CCD0FF1F38D1FF1F3094FF1F60D1FF1FF9
:1045B000C095FF1F08D3FF1FFCD0FF1F0088FF1FFF
:1045C00000007A449889FF1F0817010044D1FF1F9B
:1045D0002DE9F041BD4CBE4D82B006F0CFF9236805
:1045E0002860042B00F05883022B00F0C280082BB7
:1045F00048D0072B40F09481332801F04E8600F319
:10460000D983312801F03386322840F0598106F0F1
:10461000F1F9002840F38281AE48AF4E06F03EFE2D
:1046200008F002F8AD4908F053F8612301227064E4
:1046300022602B601846A0F152031F2B00F240812C
:10464000DFE813F0F90D3E013E013E013E013E015F
:104650003E013E013E013E013E013E013E013E0162
:104660003E010C043A0F91052A06FC043E013E016E
:104670003E017F043E013D0F3E013E013E013E01F1
:104680003E01FE0D322800F0A88340F3CB8334288E
:1046900000F0BF83712840F0138100227323226051
:1046A0002B602368002B40F00E818D4E894806F068
:1046B00061FC04218B4806F0C7F9864806F05AFCD5
:1046C0001021894806F0C0F9824806F053FC1321F6
:1046D000864806F0B9F9864B7E48196806F09AFCC0
:1046E0007C4806F047FC1421824806F0ADF9794871
:1046F00006F040FC1E21804806F0A6F9754806F039
:1047000039FC15217D4806F09FF9724806F032FC0D
:104710001E217B4806F098F96E4806F02BFC2021FC
:10472000784806F091F96B4806F024FC1921764888
:1047300006F08AF9674806F01DFC1221734806F05E
:1047400083F9644806F016FC0F21714806F07CF9E5
:10475000604806F00FFC0D216E4806F075F95D48C3
:1047600006F008FC002201233260236002B0BDE89D
:10477000F081A0F13103422B00F2A28001A252F895
:1047800023F000BF235800003F580000AB57000043
:10479000C5570000EB57000009580000C148000051
:1047A00085570000C1480000C1480000C148000012
:1047B000C1480000C1480000C1480000C1480000D5
:1047C000C1480000C1480000C1480000C1480000C5
:1047D000C1480000C1480000C1480000C1480000B5
:1047E000C1480000C1480000C1480000C1480000A5
:1047F000C1480000C1480000C1480000C148000095
:10480000C1480000C1480000C1480000C148000084
:10481000C1480000C1480000C1480000C148000074
:10482000C1480000C1480000C1480000C148000064
:10483000C1480000C1480000C1480000C148000054
:10484000C1480000C1480000C14800009F57000057
:10485000C1480000C1480000C1480000C148000034
:10486000C1480000C1480000C1480000C148000024
:10487000C1480000C1480000C1480000C148000014
:10488000C14800009B460000C14800006757000077
:1048900006F0B0F8002841F3E3840E480E4E06F00F
:1048A000FDFC01270346014662221B48F365276091
:1048B0002A60FCF775FA23682868012B3FF4BBAE29
:1048C00073283FF4EEAE02B0BDE8F08148D1FF1F7F
:1048D00014CFFF1F9889FF1FD8CFFF1F6F12833A95
:1048E0000088FF1FF81A0100001B0100141B0100C3
:1048F0002488FF1F281B0100401B0100601B0100D2
:10490000781B0100981B0100BC1B0100D81B010093
:10491000EC1B0100FC1B0100C095FF1F23682868E9
:10492000062B40F08B80A0F13103402BC8D801A2A8
:1049300052F823F0B5560000215600001B57000026
:10494000E1560000075700004D5600007156000068
:10495000C14800008F560000C1480000C148000057
:10496000C1480000C1480000C1480000C148000023
:10497000C1480000C1480000C1480000C148000013
:10498000C1480000C1480000C1480000C148000003
:10499000C1480000C1480000C1480000C1480000F3
:1049A000C1480000C1480000C1480000C1480000E3
:1049B000C1480000C1480000C1480000C1480000D3
:1049C000C1480000C1480000C1480000C1480000C3
:1049D000C1480000C1480000C1480000C1480000B3
:1049E000C1480000C1480000C1480000C1480000A3
:1049F000C1480000C1480000C1480000C148000093
:104A0000C1480000C1480000C1480000C148000082
:104A1000C1480000C1480000C1480000C148000072
:104A2000C1480000C1480000C1480000C148000062
:104A3000C14800009B46000023682868052B40F011
:104A40008D80A0F13103402B3FF63AAF01A252F81E
:104A500023F000BFF9530000ED5400000D55000095
:104A600057550000815500002D550000C148000039
:104A7000C1480000C1480000C1480000C148000012
:104A8000C1480000C1480000C1480000C148000002
:104A9000C1480000C1480000C1480000C1480000F2
:104AA000C1480000C1480000C1480000C1480000E2
:104AB000C1480000C1480000C1480000C1480000D2
:104AC000C1480000C1480000C1480000C1480000C2
:104AD000C1480000C1480000C1480000C1480000B2
:104AE000C1480000C1480000C1480000C1480000A2
:104AF000C1480000C1480000C1480000C148000092
:104B0000C1480000C1480000C1480000C148000081
:104B1000C1480000C1480000C1480000C148000071
:104B2000C1480000C1480000C1480000C148000061
:104B3000C1480000C1480000C1480000C148000051
:104B4000C1480000C1480000C1480000C148000041
:104B5000C14800004755000023682868032B7FF4F4
:104B6000ACAEA0F13003482B3FF6AAAE01A252F83A
:104B700023F000BF91480000835E0000AB5E0000A0
:104B8000D35E0000F55E0000175F00003F5F00008D
:104B9000CD600000EB6000000F610000C148000024
:104BA000C1480000C1480000C1480000C1480000E1
:104BB000C1480000C1480000C1480000C1480000D1
:104BC000C1480000C1480000C1480000C1480000C1
:104BD000C1480000C1480000C1480000C1480000B1
:104BE000C1480000C1480000C1480000C1480000A1
:104BF000C1480000C1480000C1480000C148000091
:104C0000C1480000C1480000C1480000C148000080
:104C1000C1480000C1480000C1480000C148000070
:104C2000C1480000C1480000C1480000C148000060
:104C3000C1480000C148000037610000675F000004
:104C4000855F0000A35F0000C15F00008D60000071
:104C50006359000087590000C1480000AD590000A9
:104C6000DF5F0000C1480000C1480000C1480000EB
:104C7000C1480000C14800009B46000007600000DA
:104C8000C1480000C1480000C1480000C148000000
:104C9000C14800003D600000A0F13003422B3FF608
:104CA0000FAE01A252F823F0775800005B590000C4
:104CB0005F590000DD580000FD5800000159000058
:104CC000495900008B580000A3580000A758000065
:104CD000C1480000C1480000C1480000C1480000B0
:104CE000C1480000C1480000C1480000C1480000A0
:104CF000C1480000C1480000C1480000C148000090
:104D0000C1480000C1480000C1480000C14800007F
:104D1000C1480000C1480000C1480000C14800006F
:104D2000C1480000C1480000C1480000C14800005F
:104D3000C1480000C1480000C1480000C14800004F
:104D4000C1480000C1480000C1480000C14800003F
:104D5000C1480000C1480000C1480000C14800002F
:104D6000C1480000C1480000C1480000C14800001F
:104D7000C3580000C1480000C1480000C1480000FD
:104D8000C1480000C1480000C1480000C1480000FF
:104D9000C1480000C1480000C1480000C1480000EF
:104DA000C1480000C1480000C14800009B46000007
:104DB0005B58000034287FF46DAC05F01BFE002822
:104DC0007FF7ACAD8A488B4E06F068FA612301226A
:104DD000B08622602B6018462DE405F00BFE0028FB
:104DE0001CDD8348834E06F059FA07F01DFC82490A
:104DF00007F06EFCB6F9D03096F848100746024628
:104E00007E48F764FBF7CEFF01236920236028600A
:104E100011E405F0EFFD002800F392842368286870
:104E2000FFF7E7BB31287FF44BAD05F0E3FD002829
:104E300040F394846E486F4E06F030FAC0B286F8A4
:104E4000480002288ABF0021014686F84810B6F9BA
:104E5000D030F26C6948D5E705F090FD05F0CAFD49
:104E600005460028F8D16248624E06F083F8604893
:104E700006F080F85E4806F07DF85D4806F07AF8A6
:104E80005B4806F077F81F215D4805F0DDFD5848C6
:104E900006F070F81C215B4805F0D6FDB06A5A494F
:104EA00007F016FC06F06AFF009502460B465048D4
:104EB00006F0BAF80221554805F0C6FD4C4806F048
:104EC00059F82321524805F0BFFD706C4E4907F098
:104ED000FFFB06F053FF009502460B46444806F0E0
:104EE000A3F80221494805F0AFFD414806F042F819
:104EF0001921484805F0A8FD306C06F03FFF022557
:104F00000B46024600953A4806F08EF8294642487C
:104F100005F09AFD364806F02DF822213F4805F0AD
:104F200093FDB18E324806F075F803213C4805F038
:104F30008BFD2F4806F01EF807232360C3E405F01D
:104F40001DFD05F057FD05460028F8D12848294EDB
:104F500006F010F8264806F00DF8254806F00AF885
:104F6000234806F007F8224806F004F815212D48DA
:104F700005F06AFD1E4805F0FDFF18212A4805F0DE
:104F800063FD2B460A2296F84810194806F002F8ED
:104F9000174805F0EFFF2821244805F055FDF06C77
:104FA000194907F095FB06F0E9FE00950B4602460D
:104FB0000F4806F039F80221144805F045FD0C4869
:104FC00005F0D8FF18211A4805F03EFDB6F9D010BB
:104FD000074806F01FF8064805F0CCFF13211548D6
:104FE00005F032FD024805F0C5FF082323606AE49E
:104FF0009889FF1FD8CFFF1F6F12833AC095FF1FFC
:10500000441901006419010000007A448817010066
:1050100084190100A819010040190100C4190100F8
:10502000E8190100C01B0100401701005C170100D6
:105030008C170100A817010005F0A0FC05F0DAFCB0
:1050400005460028F8D17F487F4E05F093FF7D4844
:1050500005F090FF7B4805F08DFF7A4805F08AFF48
:10506000784805F087FF1121784805F0EDFC754878
:1050700005F080FF2821764805F0E6FCB069754907
:1050800007F026FB06F07AFE009502460B466D48B7
:1050900005F0CAFF0221704805F0D6FC694805F00A
:1050A00069FF16216D4805F0CFFC306A694907F0A9
:1050B0000FFB06F063FE00950B460246614805F0C3
:1050C000B3FF0221644805F0BFFC5E4805F052FFC3
:1050D000D6F8BC30002B32DD1D21614805F0B4FC50
:1050E000706E07F0A1FA5F4907F0F2FA06F046FE8B
:1050F000022502460B460095524805F095FF012116
:10510000594805F0A1FC4F4805F034FF1F215748CE
:1051100005F09AFCB06E07F087FA524907F0D8FA0A
:1051200006F02CFE009502460B46464805F07CFF33
:1051300001214D4805F088FC424805F01BFF112174
:105140004B4805F081FCD6F8BC30062B01F20680F6
:10515000DFE813F067086C0862085D085808530818
:10516000000805F00BFC05F045FC0028F9D1354896
:10517000354E05F0FFFE334805F0FCFE314805F0E2
:10518000F9FE304805F0F6FE2E4805F0F3FE1F212B
:10519000384805F059FC2B4805F0ECFE1E21364836
:1051A00005F052FC274805F0E5FE1A21334805F0CA
:1051B0004BFCD6F88430022B01F04781032B01F021
:1051C0003B81012B01F02F8109212D4805F03CFC8A
:1051D0001C4805F0CFFE14212A481B4F05F034FC73
:1051E000D6F88010174805F015FF164805F0C2FEE6
:1051F0001C21254805F028FCD6F88810114805F038
:1052000009FF104805F0B6FE1C21204805F01CFCE3
:10521000D6F8B8100B4805F0FDFE0A4805F0AAFEC6
:10522000D6F8845025F00205012D01F07F8013216E
:10523000174805F009FC034805F09CFE0223236093
:10524000FFF741BB9889FF1FD8CFFF1F641B0100E8
:10525000BC17010000007A4488170100E81701001C
:1052600000180100CDCCCC3D801E010020180100AB
:1052700040180100401D0100601D0100801D01005B
:10528000F81D0100041E01001C1E01003C1E01004F
:10529000A817010005F072FB05F0ACFB0028F9D15E
:1052A000BE48BF4D05F066FEBC4805F063FEBB4836
:1052B00005F060FEB94805F05DFEB84805F05AFEFD
:1052C0001321B84805F0C0FBB44805F053FE0D218A
:1052D000B54805F0B9FBB14805F04CFE0F21B348C5
:1052E00005F0B2FBB24BAD48196805F093FEAB4830
:1052F00005F040FE1321AF4805F0A6FBAE4BA748D2
:10530000196805F087FEA54805F034FE1221AB4868
:1053100005F09AFBAA4BA148196805F07BFE9F484F
:1053200005F028FE1121A74805F08EFBA64B9B48EF
:10533000196805F06FFE994805F01CFE0E21A34880
:1053400005F082FBD5F8AC10944805F063FE934855
:1053500005F010FE19219E4805F076FB9D4B8F4805
:10536000196805F057FE8D4805F004FE11219A4892
:1053700005F06AFB994B8948196805F04BFE874890
:1053800005F0F8FD1021964805F05EFB954B83482B
:10539000196805F03FFE814805F0ECFD1C2192489C
:1053A00005F052FB914B7D48196805F033FE7B48B0
:1053B00005F0E0FD16218E4805F046FBB5F8A81073
:1053C000764805F027FE1E218A4805F03DFB73480C
:1053D00005F0D0FD1721884805F036FB6F4805F031
:1053E000C9FD1321854805F02FFB6C4805F0C2FD6F
:1053F00004232360FFF767BA05F0FCFA00287FF763
:10540000ABAB6648664E05F049FF01226B23C6F838
:105410008C0022602B6001E005F0B0FA05F0EAFA9A
:105420000028F9D15D485E4D05F0A4FD5B4805F00C
:10543000A1FD5A4805F09EFD584805F09BFD5748D0
:1054400005F098FD21216E4805F0FEFA534805F05D
:1054500091FD15216B4805F0F7FAD6F88C104F48EE
:1054600005F0D8FD0221684805F0EEFA4B4805F03A
:1054700081FD1E21654805F0E7FAD6F894104748EB
:1054800005F0C8FD0321624805F0DEFA434805F047
:1054900071FD1E215F4805F0D7FAD6F890103F48FD
:1054A00005F0B8FD3D4805F065FD1D215A4805F0A1
:1054B000CBFAD6F8B010394805F0ACFD374805F006
:1054C00059FD1E21554805F0BFFAD6F8B4103348EF
:1054D00005F0A0FD314805F04DFDD6F8AC30012BAC
:1054E00000F0D78705232360FFF7EDB905F082FAB6
:1054F00000287FF731AB2948294E05F0CFFE012265
:105500006B23C6F8940022602B6087E705F072FADF
:1055100000287FF721AB2148214E05F0BFFE012274
:105520006B23C6F8900022602B6077E71C4E96F83C
:10553000CD30B3FA83F35B0901216B2286F8CD30BD
:1055400021602A606AE72549002373220B602360EB
:105550002A60FFF7A6B805F04DFA00287FF7FCAAED
:105560000E480F4E05F09AFE1C4BC6F8B000022202
:105570001A60FCF723FB01226B2322602B604DE7AE
:1055800005F038FA00287FF7E7AA0448044E05F032
:1055900085FE124BC6F8B4000322E9E79889FF1F85
:1055A000D8CFFF1F0C1C0100201C0100301C010083
:1055B0003CD1FF1F401C0100BCCFFF1F541C010049
:1055C000F8D0FF1F681C0100D0CFFF1F7C1C01001A
:1055D0008C1C01002494FF1FA81C01004494FF1F91
:1055E000BC1C01001494FF1FD01C01002088FF1F69
:1055F000F01C0100081D0100281D0100A817010072
:10560000EC190100101A0100D4180100281A010039
:1056100040140100481A0100681A0100881A0100AC
:1056200005F0E8F900287FF707AABC48BC4E05F052
:1056300035FE06F0F9FFBB4907F0FEF865230122AD
:10564000306222602B601846FEF7F5BF05F0D2F9F4
:1056500000287FF7F1A9B148B14E05F01FFE652380
:105660000122C6F8C00022602B601846FEF7E3BF97
:10567000AB4B93F8CC20002A00F02286002283F85E
:10568000CC200123652023602860FEF7D4BF05F0FD
:10569000B1F900287FF7D0A9A048A14E05F0FEFD82
:1056A00006F0C2FF65230122B06322602B6018461A
:1056B000FEF7C1BF05F09EF900287FF7BDA9974806
:1056C000974E05F0EBFD06F0AFFF964907F0B4F8F2
:1056D00065230122B06122602B601846FEF7ABBF44
:1056E00005F088F900287FF7A7A98C488C4E05F0B3
:1056F000D5FD00EB8000430001226520B3662260E7
:105700002860FEF798BF864AD2F8BC300133062BDA
:10571000C8BF0023C2F8BC30B3E705F06BF900281E
:105720007FF78AA97D487E4E05F0B8FD00EB80002A
:10573000430001226520736622602860FEF77BBF6C
:105740007648774E05F0AAFD07B23B46F26C96F814
:1057500048107548A6F8D070FFF754BB704E96F805
:105760004800FFF76EBB6E4AD2F884300133032B3A
:10577000C8BF0023C2F8843001236320236028605F
:10578000FEF759BF0123236005F034F90028F3DD4B
:105790006248634E05F082FDC6F8A400ECE7FDF711
:1057A00099FA23682868FEF722BF0123236005F0D9
:1057B00021F90028E0DD5948594E05F06FFDC6F883
:1057C000B800D9E70123236005F014F9002807DDAC
:1057D0005248534E05F062FD06F026FFC6F89C00C5
:1057E000632028602368FEF704BF0123236005F0CF
:1057F00001F90028F4DD4948494E05F04FFD06F057
:1058000013FFC6F89800EBE70123236005F0F2F8D8
:105810000028E5DD4148424E05F040FDA6F8C600EF
:10582000DEE73F4ED6F88030B3FA83F35B090122FE
:105830006320C6F8803022602860FEF7FCBE384E38
:10584000D6F88830B3FA83F35B0901226320C6F8E7
:10585000883022602860FEF7EEBE01232360FEF749
:10586000A7FD64232B602368082B4FF064007EF4AF
:10587000C0AEFEF707BF2D4A137801214B406420CC
:10588000137021602860FEF7D6BE294A1368B3FA68
:1058900083F35B0901216420136021602860FEF717
:1058A000CABE244AF2E70123236005F0A3F80028CA
:1058B00000F3AA85204B1A68042AD2DD02221A605E
:1058C000CFE70123236005F095F80028C9DD1348D0
:1058D000134E05F0E3FCA6F8A800C2E7174A184FDC
:1058E0001368002B0CBF012100214FF00103116050
:1058F000236040F0B38564222A60B5E7114AC5E70A
:10590000074ED6F8AC30B3FA83F35B09012264206A
:10591000C6F8AC3022602860FEF78DBE9889FF1F64
:10592000D8CFFF1F00007A44C095FF1F2CCFFF1F68
:105930004494FF1F1494FF1F2088FF1FF8D0FF1FFF
:1059400048D1FF1FD0CFFF1F012321482360FBF761
:105950007BF8204A23681060CDE71F4A96E71F4A6C
:1059600094E705F047F800280DDD1D481D4E05F0B1
:1059700095FC06F059FE1C4906F05EFF01226223E9
:10598000706222602B6005F035F800280EDD1448A7
:10599000144E05F083FC06F047FE134906F04CFF59
:1059A00001226223C6F8C80022602B6005F022F8AD
:1059B000002840F355840A480A4E05F06FFC06F0B3
:1059C00033FE01226223F06322602B6010E000BFEF
:1059D000C095FF1F2494FF1F3CD1FF1FBCCFFF1FAA
:1059E0009889FF1FD8CFFF1F00007A4404F0C6FF3C
:1059F00005F000F805460028F8D1C348DFF87883A1
:105A000005F0B8FAC04805F0B5FABF4805F0B2FA9B
:105A1000BD4805F0AFFABC4805F0ACFA1521BB480B
:105A200005F012F8B84805F0A5FA1421B84805F0B9
:105A30000BF8B54805F09EFA1B21B64805F004F8AE
:105A4000B14805F097FA1321B34804F0FDFFAE48C2
:105A500005F090FAAC4805F08DFAAB4805F08AFAEB
:105A60002021AE4804F0F0FFF068AD4906F030FEAA
:105A700006F084F9009502460B46A34805F0D4FAD7
:105A80000221A84804F0E0FF0221A74804F0DCFF4F
:105A90009D4805F06FFA2121A44804F0D5FF306934
:105AA0009F4906F015FE06F069F9009502460B467F
:105AB000954805F0B9FA02219A4804F0C5FF022181
:105AC000994804F0C1FF904805F054FA1F21984806
:105AD00004F0BAFFF06A06F051F9022702460B46BD
