:1000000000800020BD010000957D00004D7D0000B6
:100010004D7D00004D7D00004D7D00004D7D0000B8
:100020004D7D00004D7D00004D7D0000957D000060
:10003000957D00004D7D0000C99C0000CD9D000015
:10004000957D0000957D0000957D0000957D000068
:10005000957D0000957D0000957D0000957D000058
:10006000957D0000957D0000957D0000957D000048
:10007000957D0000957D0000957D0000957D000038
:10008000957D0000957D0000957D0000957D000028
:10009000957D0000957D0000957D0000957D000018
:1000A000957D0000957D0000957D0000957D000008
:1000B000957D000069710000757100007971000084
:1000C00085710000897100008D710000957D000030
:1000D000957D0000957D0000957D0000957D0000D8
:1000E000957D0000957D0000957D0000957D0000C8
:1000F000957D0000D5A40000957D0000318A0000A8
:10010000957D0000498D0000957D0000957D0000E3
:10011000957D0000957D0000957D0000957D000097
:10012000957D0000957D0000957D0000957D000087
:10013000957D0000957D0000957D0000957D000077
:10014000957D0000957D0000957D0000957D000067
:10015000957D0000957D0000957D0000957D000057
:10016000957D0000958F0000957D0000957D000035
:10017000957D0000957D0000957D0000957D000037
:10018000957D0000957D0000957D0000957D000027
:10019000957D0000957D0000957D0000957D000017
:1001A000957D0000957D0000957D0000957D000007
:1001B000957D0000957D0000957D0000564B4CF22A
:1001C000205210B51A804DF628121A8000BF00BFC9
:1001D00007F0E4FD514B4FF010621A60504A9A60EC
:1001E000504ADA60504A136813F4807304D14F49BF
:1001F0000B604FF4A85313604D4B1A78110703D5C9
:100200001A7842F008021A704A4B4B492A221A7097
:100210004A4A4B4B8B4204D252F8040F43F8040B6A
:10022000F8E7484B484900228B4202D243F8042B9E
:10023000FAE74649464A002352F8230041F82300D2
:1002400001336F2BF8D1434B434A802103F8011B44
:100250009342FBD1414B3D4A1A60414B8A221A70AE
:10026000A3F5805324225A70A0221A709A7992071B
:10027000FCD59A79D406FCD43A4A937903F00C035E
:10028000082B384BF9D103221A7140225A719A79FE
:100290009006FCD5334A9179324B4906FBD5324A58
:1002A000324911600221516020221A709A7902F0BD
:1002B0000C020C2AFAD12E4B2E4A1A602E4B2F4AD2
:1002C0001A6000225A60072243F8042C2C4AC3F813
:1002D0000C2D62B608F018F8144B1B68DA0705D528
:1002E000284807F0F5FD284B284A1A60284B1B7850
:1002F0005B0609D5244C254B22689A4204D121483B
:1003000007F0E6FD002323600CF0E8FB07F04CFD4E
:1003100009F0A0FFFEE700BF0E200540308004403A
:10032000823F04000100002B10D0034014D0034092
:1003300002D0074000E007404092FF1F84260100E2
:100340002087FF1F4092FF1F08CFFF1F0082FF1F63
:100350000000000000E400E05FE400E008ED00E0E1
:100360000050064000400640448004400000030165
:1003700004800440C010050014E000E0FF76010096
:1003800000002020B63C685C1CE00340A5C3945AE2
:1003900000F00740FFFFFFFFFFFFFFFFFFFFFFFF32
:1003A000FFFFFFFFFFFFFFFFFFFFFFFFFFFFFFFF5D
:1003B000FFFFFFFFFFFFFFFFFFFFFFFFFFFFFFFF4D
:1003C000FFFFFFFFFFFFFFFFFFFFFFFFFFFFFFFF3D
:1003D000FFFFFFFFFFFFFFFFFFFFFFFFFFFFFFFF2D
:1003E000FFFFFFFFFFFFFFFFFFFFFFFFFFFFFFFF1D
:1003F000FFFFFFFFFFFFFFFFFFFFFFFFFFFFFFFF0D
:10040000FFFFFFFFFFFFFFFFFFFFFFFFDEF9FFFF23
:1004100010B5054C237833B9044B13B10448AFF33E
:1004200000800123237010BD4092FF1F00000000D8
:1004300080260100084B10B51BB108490848AFF3EE
:1004400000800848036803B910BD074B002BFBD0A0
:10045000BDE81040184700BF000000004492FF1F95
:10046000802601004092FF1F00000000F0B400F160
:100470002C06144F00243146031F00F15C0243F8A0
:10048000044FB34241F8047F4FF0000542F8044F97
:10049000F5D10D4A0D49C0F890500023C0F8945092
:1004A000C0F89850C0F89C50C0F8AC50C0F8A020DC
:1004B000C0F8A820C0F8A41080F8B43080F8CC3080
:1004C000F0BC70470000A040000048430000C8C2D4
:1004D00001392DE9F84381461546032900F2BA8017
:1004E000DFE801F095714D02137A507A03EB00209A
:1004F0000CF078F858490CF07DF9C9F82400AB7A73
:10050000E87A03EB00200CF06DF853490CF072F917
:10051000C9F828002B7B687B03EB00200CF062F805
:100520004D490CF067F9D9F80040C9F82C0009F1E1
:100530003006C84609F16005002701E058F8044F6D
:10054000306821460CF05EFA0137214628B1D9F80F
:10055000B0000CF043FA00B13460214628680CF07A
:1005600033FA04363D4920B120460CF04BFA00B175
:100570002C600C2F05F10405E0D1BDE8F883137A57
:10058000507A03EB00200CF02DF833490CF032F9CF
:10059000C9F81800AB7AE87A03EB00200CF022F8D7
:1005A0002D490CF027F9C9F81C002B7B687B03EB65
:1005B00000200CF017F828490CF01CF9D9F800407D
:1005C000C9F82000B3E7137A507A03EB00200CF04F
:1005D00009F821490CF00EF9C9F80C00AB7AE87A59
:1005E00003EB00200BF0FEFF1B490CF003F9C9F8E8
:1005F00010002B7B687B03EB00200BF0F3FF164908
:100600000CF0F8F8D9F80040C9F814008FE7137A15
:10061000507A03EB00200BF0E5FF0F490CF0EAF8ED
:10062000C9F80000AB7A0446E87A03EB00200BF02F
:10063000D9FF09490CF0DEF8C9F804002B7B687B70
:1006400003EB00200BF0CEFF03490CF0D3F8C9F800
:1006500008006CE704686AE700007A440000A040E4
:100660002DE9F04190F8CC4084B0202364008DF84F
:100670000530E4B2042380468DF804408DF806303E
:100680000327204608F0FCFA02210DF1050008F0CE
:1006900001FB8DF8044005F0E1FE30B3092140482C
:1006A00009F0ACF90023102221463E4809F04CFC29
:1006B00001213D4809F0A2F9002310229DF8051000
:1006C000384809F041FC0121374809F097F9002327
:1006D00010229DF80610334809F036FC01213248FB
:1006E00009F08CF92F4809F01FFC02208DF8044016
:1006F00007F0BCFD05F0B2FE00284CD102AE00248C
:1007000008F0DEFA70B3072C1FD101E008F0E8FA18
:1007100008F0D6FA0028F9D105F0A0FE10B1214862
:1007200009F002FC9DF80B009DF80C109DF80D20BF
:100730009DF80E30C8F8B800C8F8BC10C8F8C02042
:10074000C8F8C43004B0BDE8F08108F0C9FA054625
:1007500006F8010B05F082FE70B9013408F0B0FA1A
:100760000028D0D1072CD3D005F078FE78B9013F0E
:10077000D8D09DF8044084E7E9B20023102209484C
:1007800009F0E2FB0121084809F038F9E5E70548DE
:1007900009F0CAFBEBE70721044809F02FF9ADE7A0
:1007A000980C0100E487FF1F6C130100A40C0100EA
:1007B00090F8BC00704700BF90F8B800704700BFC9
:1007C00090F8C000704700BF90F8C400704700BFA9
:1007D0000C2994BF50F82100002070472DE9F0410A
:1007E0000B4E8046041F00F12C0754F8045F31467D
:1007F00028460CF0E9F830B1D8F8B01028460CF0D3
:1008000001F900B12E46BC42EFD13046BDE8F0817F
:10081000000020412DE9F041D0F8B0704FF0000801
:10082000041F00F12C0654F8045F394628460CF0EA
:10083000E9F8084948B128460CF0C6F8414620B10D
:1008400028460CF0DFF800B1A846B442EBD1404690
:10085000BDE8F0810000A0402DE9F047D0F8B0706D
:1008600082464FF00009041F00F12C064FF00008EB
:1008700054F8045F394628460CF0C4F80C4950B1CE
:1008800028460CF0A1F830B1484629460BF0F6FD99
:1008900008F101088146B442EAD1CAF8D080404646
:1008A0000BF0A0FE014648460BF0A4FFBDE8F08720
:1008B0000000A040D0F8D000704700BF38B5D0F895
:1008C0009840D0F89450214628460CF07DF800B9A5
:1008D0002C46204638BD00BFD0F8C8302DE9F04185
:1008E000002B7CD1D0F89860D0F894500446314663
:1008F00028460BF0C3FDD4F89C70394680460BF0B7
:10090000BDFD7F490BF076FF4FF07C5104460CF0A3
:1009100079F8002861D04FF07C5128460CF072F82D
:100920004FF07C51002861D128460CF04DF838B1C9
:100930004FF07C5130460CF065F8002840F0A8805C
:100940004FF07C5128460CF05DF8002861D14FF043
:100950007C5128460CF056F8002840F0A2804FF059
:100960007C5128460CF04EF800286DD14FF07C5198
:1009700028460CF029F84FF07C5110B330460CF0AB
:1009800041F838B14FF07C5138460CF01DF8002882
:1009900040F0B1804FF07C5130460CF015F8002843
:1009A00062D04FF07C5138460CF02CF8002840F013
:1009B000A48038464FF07C510CF006F868B1514CD9
:1009C00011E028460CF000F80028E3D128464FF04B
:1009D0007C510BF0F9FF002846D1BDE8F08100EB17
:1009E0008300D0F890402046BDE8F08130460CF0FE
:1009F00009F84FF07C5100283ED038460CF002F840
:100A00000028F0D14FF07C5128460BF0DDFF002884
:100A100059D14FF07C5130460BF0D6FF002840D022
:100A20004FF07C5138460BF0EDFF002841D14FF0DC
:100A30007C5130460BF0E6FF68B14FF07C513846F0
:100A40000BF0C2FF00284FD14FF07C5130460BF025
:100A5000BBFF00288AD04FF07C5138460BF0B4FF22
:100A6000002883D02C46BEE730464FF07C510BF077
:100A7000ABFF0028B1D09CE728460BF0A5FF00286B
:100A8000C7D04FF07C5130460BF0BCFF0028C0D0DF
:100A90004FF07C5138460BF0B5FF00283FF450AFC3
:100AA00018E04FF07C5130460BF0ACFF0028CBD063
:100AB000C3E7394628460BF0E1FC4FF07C510BF0C0
:100AC000E5FD04468FE74FF07C5138460BF09AFF66
:100AD00000289ED0394630460BF0D0FC4FF07C51B8
:100AE0000BF0D4FD04467EE740464FF07C510BF0FE
:100AF000CDFD044677E7344675E73C4673E700BF13
:100B0000000040400000A0C270B50446FFF7E4FEBC
:100B10004FF07C510BF076FF40B3D4F894604FF067
:100B20007C5130460BF06EFFD4F89850F8B9D4F8E9
:100B30009C404FF07C5128460BF064FF58B1294689
:100B400030460BF05FFF30B1214628460BF03CFFEA
:100B500008B12C4621E04FF07C5120460BF052FFAB
:100B600020B1284621460BF04DFF80B970BD3046BC
:100B700029460BF029FFD4F89C400028D9D03046F4
:100B800021460BF021FF0028D3D0344605E0304643
:100B900021460BF037FF0028E8D0204670BD00BF8B
:100BA0002DE9F04F90F8CC3091B007465B008DF8FE
:100BB0000830FFF755FDD7F8C000D7F8C440D7F884
:100BC000BC30D7F8B82097F8CC108DE81100C94890
:100BD00005F04AFD30223D2303268DF809208DF8CB
:100BE0000A300DF10A059DF8089049F001084046C9
:100BF00008F046F80DF10900022108F04BF88DF8D5
:100C00000880424602AB00205040082410F0800FBC
:100C10004FEA400018BF80F00700013CC0B2F5D198
:100C20009D4202D013F8012FEEE708F029F805F0F5
:100C300015FC002840F07C8202208DF8089007F017
:100C400015FB05F00BFC002840F0B8820DF10C0AF2
:100C5000D146002408F034F8002843D0032C34D1C6
:100C600001E008F03DF808F02BF80028F9D105F074
:100C7000F5FB10B1A04809F057F9312303268DF890
:100C800009308DF80A609DF8089049F00108404647
:100C900007F0F6FF0DF10900022107F0FBFF8DF8C8
:100CA0000880424602AB00205040082410F0800F1C
:100CB0004FEA400018BF80F00700013CC0B2F5D1F8
:100CC0009D4228D013F8012FEEE708F009F809F843
:100CD000010B804605F0C2FB68B9013407F0F0FF54
:100CE0000028BBD1032CBED005F0B8FB78B9013E7B
:100CF0007FF479AFC1E75FFA88F1002310227E48C4
:100D000009F022F901217D4808F078FEE5E77A48EC
:100D100009F00AF9EBE707F0B3FF05F09FFB0028A5
:100D200040F0C58102208DF8089007F09FFA05F089
:100D300095FB002840F03D820DF10C09002407F0DE
:100D4000BFFF002844D0032C35D101E007F0C8FFD5
:100D500007F0B6FF0028F9D105F080FB10B1664816
:100D600009F0E2F8342201238DF809208DF80A30C9
:100D700003269DF8089049F00108404607F080FFDF
:100D80000DF10900022107F085FF8DF80880424629
:100D900002AB00205040082410F0800F4FEA4000C2
:100DA00018BF80F00700013CC0B2F5D19D4228D0A9
:100DB00013F8012FEEE707F093FF09F8010B8046C7
:100DC00005F04CFB68B9013407F07AFF0028BAD16E
:100DD000032CBDD005F042FB78B9013E7FF453AF40
:100DE000C0E75FFA88F100231022434809F0ACF80D
:100DF0000121424808F002FEE5E73F4809F094F877
:100E0000EBE707F03DFF05F029FB002840F00E81DD
:100E100002208DF8089007F029FA05F01FFB002842
:100E200040F0D6810DF10C09002407F049FF00289D
:100E300000F08480032C72D101E007F051FF07F02D
:100E40003FFF0028F9D105F009FB10B12A4809F04D
:100E50006BF8012212238DF809208DF80A304FF02B
:100E600003089DF80840204607F00AFF02210DF113
:100E7000090007F00FFF8DF8084005F0EFFA30B3D6
:100E800009211F4808F0BAFD0023102221461A4804
:100E900009F05AF80121194808F0B0FD002310228A
:100EA0009DF80910144809F04FF80121134808F083
:100EB000A5FD002310229DF80A100F4809F044F800
:100EC00001210E4808F09AFD0B4809F02DF8062084
:100ED0008DF8084007F0CAF905F0C0FA002840F084
:100EE000728103AD002607F0EBFE00283FD0162EDE
:100EF0002FD109E0AC0C0100E487FF1F6C13010047
:100F0000980C010007F0ECFE07F0DAFE0028F9D19A
:100F100005F0A4FA162600287DD1152035E007F04B
:100F2000DFFE09F8010B804605F098FA00285BD136
:100F3000013407F0C5FE00287FF47CAF032C3FF49A
:100F40007EAF05F08BFA00286CD1013E7FF411AF23
:100F50007FE707F0C5FE05F8010B044605F07EFAB1
:100F600000284DD1013607F0ABFE0028BFD1162E68
:100F7000CAD005F073FA00284DD1B8F101087FF40A
:100F800070AF701E002840F32A82002303AA1C467B
:100F900012F8011B08254C4014F0800F4FEA44045E
:100FA00018BF84F00704013DE4B2F5D10133834258
:100FB000EEDB9DF8218089484146224605F054FB2E
:100FC000162EC146A34602D1A04500F0138197F822
:100FD000CC108348CDF800B04B46324605F072FB8A
:100FE000002011B0BDE8F08F5FFA88F100231022D5
:100FF0007C4808F0A9FF01217B4808F0FFFC97E737
:10100000E1B200231022774808F09EFF01217648C4
:1010100008F0F4FCA6E7734808F086FF162EACD162
:101020001520B2E76F4808F07FFF8EE709216F486F
:1010300008F0E4FC2346102241466A4808F084FF89
:101040000121694808F0DAFC234610229DF80910B6
:10105000644808F079FF0121634808F0CFFC1022B2
:1010600023469DF80A105F4808F06EFF01215E4894
:1010700008F0C4FC21460DF10B0002AA12F8014B46
:101080006140C9B2082311F0800F4FEA410118BF37
:1010900081F00701013BC9B2F5D19042EED1102297
:1010A000504808F051FF4F4808F03EFFB0E60921D4
:1010B0004E4808F0A3FC234610224146494808F058
:1010C00043FF0121484808F099FC234610229DF86F
:1010D0000910444808F038FF0121434808F08EFC0D
:1010E000102223469DF80A103E4808F02DFF0121EA
:1010F0003D4808F083FC21460DF10B0002AA12F8CE
:10110000014B6140C9B2082311F0800F4FEA410141
:1011100018BF81F00701013BC9B2F5D19042EED171
:101120001022304808F010FF2E4808F0FDFEF9E5C7
:1011300009212E4808F062FC234610224146294826
:1011400008F002FF0121284808F058FC234610222D
:101150009DF80910234808F0F7FE0121224808F005
:101160004DFC102223469DF80A101E4808F0ECFEA4
:1011700001211D4808F042FC21460DF10B0002AA96
:1011800012F8014B6140C9B2082311F0800F4FEAF9
:10119000410118BF81F00701013BC9B2F5D190426E
:1011A000EED110220F4808F0CFFE0E4808F0BCFE2A
:1011B00042E507210E4808F021FCBDE507210C4857
:1011C00008F01CFC42E50721094808F017FC88E6F6
:1011D0000721074808F012FC24E600BFE00C0100DC
:1011E0002C0D0100E487FF1F6C130100980C010017
:1011F000A40C01009DF80C3097F8CC20B3EB420F03
:101200007FF4EEAE9DF80D30012B7FF4E9AE9DF832
:101210000E30122B7FF4E4AE9DF810309DF80F00D5
:1012200003EB00200BF0DEF975490BF02FFAD7F82D
:10123000AC10C7F8900004460BF0E4FB08B1C7F807
:10124000AC40D7F8A81020460BF0BEFB08B1C7F899
:10125000A840A7F1040907F1300607F160054FF037
:101260000C089AF806309AF8050003EB00200BF002
:10127000B9F964490BF00AFA49F8040F31680446D9
:101280000BF0A2FB0AF1020A30B1D7F8B0102046E9
:101290000BF0AEFB00B13460296820460BF0B2FBC6
:1012A000043600B12C60B8F1010805F10405D8D16D
:1012B0009DF81E309DF81D0003EB002002300BF05E
:1012C00091F951490BF096FA014650480BF092FA09
:1012D0004F490BF0D1F84F490BF0D8F9054609F00A
:1012E00043FA0446284609F03FFA4B4909F0AEFAA2
:1012F0004A49054620460BF0C9F949490BF0BEF8AA
:101300004849044628460BF0C1F9014620460BF037
:10131000B5F801464FF07E500BF06CFA42490BF0E5
:10132000ABF89DF81F209DF82030C7F8940003EB20
:10133000022009300BF056F93C490BF05BFA0146EC
:1013400032480BF057FA32490BF096F831490BF05E
:101350009DF9054609F008FA0446284609F004FA02
:101360002D4909F073FA2D49054620460BF08EF9F8
:101370002B490BF083F82B49044628460BF086F9DD
:10138000014620460BF07AF801464FF07E500BF0F4
:1013900031FA25490BF070F8C7F898000446384632
:1013A000FFF7B2FBD7F8A01005460BF00DFB08B114
:1013B000C7F8A050D7F89450204629460BF022FBDE
:1013C000B0B92946D7F8A4000BF0FEFA10B12C46AC
:1013D000C7F8A440164805F047F9012001E69DF83A
:1013E0002190144849464246C34605F03DF9EEE5D2
:1013F000D7F8A41020460BF005FB0028E8D1E9E758
:101400001357053B2003C839001601470AD7E33FAD
:10141000E17A644000007A4400004040A40D8F3916
:101420005A80473A46A6DB3333938843002C014762
:10143000040D0100E00C01002DE9F8430026D0F86E
:10144000B080C0F890608146041F00F12C0754F86A
:10145000045F414628460BF0D5FA094950B12846A9
:101460000BF0B2FA30B1304629460BF007F80646C9
:10147000C9F89000BC42EAD13046BDE8F88300BF0D
:101480000000A04002299ABF00EB8100D0F8940030
:10149000002070473E2998BF80F8CC10704700BFED
:1014A00090F8B400704700BFC0F8C810704700BF84
:1014B00080F8B410704700BF30B50F4CC0F8B010C2
:1014C00083B020460D4608F02FFD204608F02CFD85
:1014D00028460AF031FC022502460B4600952046BC
:1014E00008F07AFD204608F01FFD204603B0BDE855
:1014F000304008F019BD00BFE487FF1F70B500F54C
:1015000055550646103500F128042046D834FEF71C
:10151000ADFFAC42F9D106F58075012428460021C3
:10152000FFF7C6FF214628460134FFF7B3FF3F2CE3
:1015300005F1D805F2D143F2585400250548064A72
:10154000064B3555002130617161B261F36130465F
:1015500070BD00BF00007A44000048430000C8C2CC
:101560002DE9F04143F25C5300F555563746002211
:101570008046C25010361C3700F5807402E0D83423
:10158000B4420DD02046FFF78BFF0028F7D020464D
:101590003D68FFF78FF9D8342844B4423860F1D160
:1015A00043F25C5358F80300BDE8F0812DE9F041A7
:1015B0000E46096801F00F04B1F5807F074690469A
:1015C00004F1010401F0F0053AD0302D36D02CDDC5
:1015D000402D13D0502D2CD10425072C12D9D823FF
:1015E00003FB0474283420460121FFF761FF3246D3
:1015F00029462046BDE8F041FEF76ABF072C4FF0B0
:101600000305ECD8B8F1010FE9D12146114808F0E3
:10161000DBFC4146104808F0F1F929460D4808F076
:10162000D3FC0C4808F080FCD9E7202D01D101251E
:10163000D3E7072CD3D8042DD1DCE3E70225CCE790
:1016400000231022034808F07FFC024808F06CFCDD
:10165000BBE700BFE487FF1F880D0100704700BF94
:10166000704700BF2DE9F043002383B006460360B6
:1016700000F58074012504E001353F2D04F1D80404
:1016800069D02046FFF70CFF0028F5D0504804F041
:10169000EBFF29464F4804F0E7FF2046FFF780FAAA
:1016A0002046FFF7C9FE0AF047FB02460B464A48B0
:1016B00004F0DAFF2046FFF791F880462046FFF756
:1016C000A9F8074640460AF037FB80463846894667
:1016D0000AF032FB42464B46CDE900013F4804F098
:1016E000C3FF00212046FFF7CDFE012180462046A2
:1016F000FFF7C8FE074640460AF01EFB8046384604
:1017000089460AF019FB42464B46CDE900013448B0
:1017100004F0AAFF2046FFF78FFE014630680AF06A
:10172000ADFE30602046FFF7EFF9B1690BF04CF9E0
:10173000002833D12046FFF7C1F8F1690BF062F9B8
:10174000002899D02046FFF7B9F801353F2DF06108
:1017500004F1D80495D170680AF044FF014630685E
:101760000BF048F87169306004460BF04BF900B19A
:101770007461316920460BF027F900B134610B2008
:1017800006F03EFD43F25853F35C60B99BB143F25F
:1017900058530122F25403B0BDE8F0832046FFF70E
:1017A000B3F9B061C6E753B943F258530022F2547B
:1017B00003B0BDE8F0830B4804F084FFE7E70A4874
:1017C00004F06AFF43F258530022F254F0E700BFDE
:1017D000740F01008C0D0100C80D0100DC0D01002B
:1017E000080E0100240E01005C0E010070B5114BC3
:1017F000836000F555550646103500F5807402E00B
:10180000D834AC4213D02046FFF74AFE0028F7D068
:101810002046FEF7E3FFB1680BF0D6F80028EFD0C2
:101820002046FEF7DBFFD834AC42B060EBD1B068A5
:1018300070BD00BF0000A04070B5002300F55555F5
:101840000646C360103500F5807402E0D834AC421F
:1018500013D02046FFF724FE0028F7D02046FEF7DD
:10186000D9FFF1680BF0CEF80028EFD02046FEF744
:10187000D1FFD834AC42F060EBD1F06870BD00BF4E
:101880000068704741607047F8B500F555550F4640
:101890001646103500F5807402E0D834AC420FD003
:1018A0002046FFF7FDFD0028F7D020463946FFF718
:1018B000FBFD20463146D834FFF7FEFDAC42EFD1A8
:1018C000F8BD00BF2DE9F84300F5555543F25453D8
:1018D0002E4600278046C7504FF0000910351436B9
:1018E00000F5807402E0D834A54213D02046FFF7FB
:1018F000D7FD0028F7D03368013333602046FEF768
:10190000EBFF1D490BF07EF888B9D834A54207F1EA
:101910000107EBD143F2545358F80300C01B0AF0FF
:1019200061FE014648460AF065FFBDE8F88320469F
:10193000FEF7D2FF014648460AF0A0FD8146204648
:10194000FEF7CAFFD8F820100BF05CF870B92046FB
:10195000FEF7C2FFD8F824100BF036F80028C2D0EA
:101960002046FEF7B9FFC8F82400BCE72046FEF782
:10197000B3FFC8F82000EAE700008CC2006A704795
:10198000406A7047F8B500F55555074600261035F2
:1019900000F5807402E0D834AC420FD02046FFF747
:1019A0007FFD0028F7D02046FEF756FF014630465F
:1019B0000AF064FDD834AC420646EFD143F25453EA
:1019C000F8580AF00FFE014630460AF013FFF8BD42
:1019D0002DE9F04F06468FB083488B4604F0ECFDAE
:1019E000814804F0E9FD804804F0E6FD43F25453D9
:1019F0003046F2580D92FFF7B3FD73680C9307461B
:101A000030680AF099F9804630468946FFF7BAFFF8
:101A100082463046B468F568FFF754FF0AF08CF947
:101A2000CDE90A01214628460AF026FD6F490AF051
:101A30002DFE0AF081F9CDE9080128460AF07CF96B
:101A4000CDE9060120460AF077F9CDE904015046B8
:101A50000AF072F90D9A0C9BCDE90201CDE90089DB
:101A6000114663483A4604F0A7FD5F4804F0A4FD20
:101A700006F580764FF001094FF0000A07E009F102
:101A80000109B9F13F0F06F1D80600F0A5803046F4
:101A9000FFF706FD0028F2D03046FEF789FE3046FB
:101AA000FEF78AFE3046FEF78BFE3046FEF78CFED0
:101AB0000821504807F0A2FF49464F4808F084FA31
:101AC000B9F1090F40F38B8002214C4807F096FFD3
:101AD0003046FFF7B1FC0AF02FF95FFA8BF80246A7
:101AE0000B46CDF80080444808F076FA01214448BE
:101AF00007F084FF5546002420E00621414807F006
:101B00007DFF29463C4808F05FFA02213E4807F075
:101B100075FF21463046FEF75BFE0AF00DF9CDF861
:101B2000008002460B46344808F056FA0134012181
:101B3000334807F063FF0C2C09D03D46092D05F111
:101B40000107DADC0121314807F058FFD5E72A48C0
:101B500008F0EAF909212E4807F050FF002130462D
:101B6000FFF790FC0AF0E8F8022402460B460094C6
:101B7000214808F031FA0A21264807F03FFF0121E9
:101B80003046FFF77FFC0AF0D7F8009402460B4678
:101B9000194808F021FA0A211F4807F02FFF2146B3
:101BA0003046FFF76FFC0AF0C7F8009402460B4678
:101BB000114808F011FA0121184807F01FFF09F138
:101BC00001090D4808F0B0F9B9F13F0F0AF10C0A0C
:101BD00006F1D8067FF45BAF0FB0BDE8F08F0121AE
:101BE0000A4807F00BFF6FE7740F010000007A440A
:101BF0000C110100AC110100E487FF1F341F01002C
:101C0000B8110100BC1101005C1301006C1301004C
:101C1000C4110100D0110100DC110100E811010024
:101C20002DE9F04100F5807582B0012604E001360F
:101C30003F2E05F1D80549D02846FFF731FC002892
:101C4000F5D03146234808F0BFF90121224807F0BA
:101C5000D5FE00244FF0020821462846FEF7B8FDC5
:101C60000AF06AF8CDF8008002460B46194808F0E1
:101C7000B3F901340121184807F0C0FE062C4FF0DB
:101C80000207E9D100212846FFF7FCFB0AF054F8CF
:101C9000009702460B460F4808F09EF901210E48B6
:101CA00007F0ACFE01212846FFF7ECFB0AF044F8F0
:101CB000009702460B46074808F08EF901360548A2
:101CC00008F032F93F2E05F1D805B5D102B0BDE8D4
:101CD000F08100BFE487FF1F880D0100F8B53D4883
:101CE0003D4C3E4D3E4E04F067FC3E4B3E4A3F4865
:101CF0003F495A6011271F703E4F3F4AD8601C6110
:101D000000203E4C5D615E623D4DDF624FF07C56CF
:101D10000C2799619A623B493B4A18635C633B48D4
:101D20003B4C9D635E6440F61C450A261F65394F97
:101D30009964DA64022101221862C3F8BC400020D1
:101D400032249D66DE6664254FF49676DF61DF639C
:101D500041F20407597059721A725A6583F84000AB
:101D6000C3F89C401C665E66DE659D654FF05A0CAC
:101D70001F674FF47A7E9867D967C3F88000C3F86D
:101D80008840C3F8A440244FC3F8A000234EC3F8F2
:101D9000AC20C3F8B010FF2441F28831052083F84D
:101DA000C02040F2D662C3F8B450C3F874C0C3F880
:101DB0008CE0C3F89070C3F89460C3F8A840A3F80F
:101DC000BA00C3F88410A3F8B810A3F89820A3F8B9
:101DD0009A20F8BDEC1101000000404033338340ED
:101DE000CDCCCC3D4493FF1F20A107006666864002
:101DF000CDCC4C40000020C10000824200002042B7
:101E00000000A0409A9979400AD7233D33337340AC
:101E10009A99993ECDCC4C3E0000684200C02044C7
:101E2000F0B54FF47A6085B006F020FA00210F205B
:101E300006F0F4F900210E2006F0F0F9002111203F
:101E400006F0ECF90021102006F0E8F9002112203C
:101E500006F0E4F90021132006F0E0F901210B203F
:101E600006F0DCF901210C2006F0D8F9012114203C
:101E700006F0D4F90121152006F0D0F90121162031
:101E800006F0CCF90121172006F0C8F90121052040
:101E900006F0C4F9974C984D0121062006F0BEF9D2
:101EA00001210D2006F0BAF920880AF097FB0146BF
:101EB000162006F01DF920880AF090FB0146172035
:101EC00006F016F920880AF089FB0146052006F085
:101ED0000FF920880AF082FB00240146062006F054
:101EE00007F900942346854A8549864804F0E4FDB5
:101EF000E6B232468049834804F08CFD2B797E4956
:101F000080486FF30003013432462B7104F078FDF2
:101F1000082CEDD10924E6B232467749794804F01D
:101F200079FD2B797449774843F001030134324637
:101F30002B7104F065FD0D2CEDD1734C4FF0FF3289
:101F40002068102105F084F920684FF0FF3210213D
:101F500005F056F920684FF0FF32022105F064F9D0
:101F600020684FF0FF32022105F068F900220F21AE
:101F7000206805F077F90C21644807F03FFD6448BC
:101F800007F0D2FF1121634807F038FD604807F0E1
:101F9000CBFF44F6206006F027FA5D4807F0C4FF47
:101FA00017215D4807F02AFD594807F0BDFF5B4B3C
:101FB0001B789A0600F1D480584B1B781B0700F160
:101FC000DB80564B1B785F0700F1E280534B1B7898
:101FD0009E0700F1E980524B1B781D0600F1F0804E
:101FE0004F4B1B785C0600F1F7804D4B1B78980631
:101FF00000F1FE804A4B1B78590700F10581484BE0
:102000001B781A0700F10C81454B1B789B0700F1E8
:1020100013813F4807F088FF72B6424A4CF22053C2
:102020004DF628112024138023461180013BFDD159
:102030003D4D3E483E4900234FF480562E8003809C
:102040000B8032F80E3C9BB243F0D30322F80E3CD7
:1020500062B69D2006F0C4FD21463648364D07F095
:10206000CDFC2B4807F060FF05F1C4062F462C4637
:10207000601B05F0D9FD04F8010BB442F8D13B78A0
:10208000112B01D0FFF72AFE2C482D4DFFF7E8FA5F
:10209000042004F0DDF92B4B284800221A60FFF7DA
:1020A000DDFA01210D2006F0A5F8796D2348FFF730
:1020B000E9FB7A6C97F840102048FFF7E5FB2248CF
:1020C000224B046803941B682149224A039E00683E
:1020D00002901268204C2E6081FB0301DB171F4821
:1020E000A3EB21130299216013FB02F3038005B0D7
:1020F000F0BD00BF2487FF1F1894FF1F04CCFF1FF3
:1021000020A1070068CAFF1FC094FF1F0C12010026
:10211000E487FF1F1C1201003012010001F007408C
:1021200000F007400E200540042005400620054031
:1021300016200540341301004493FF1FF894FF1F3D
:10214000F494FF1F7092FF1F10CCFF1F6C87FF1FBE
:102150001F85EB516887FF1F2094FF1FCC94FF1F42
:102160002121394807F04AFC384807F0DDFE384B9A
:102170001B781B077FF525AF0C21364807F03EFC86
:10218000324807F0D1FE324B1B785F077FF51EAF58
:102190000E21314807F032FC2C4807F0C5FE2C4BCD
:1021A0001B789E077FF517AF17212C4807F026FCF8
:1021B000264807F0B9FE2A4B1B781D067FF510AFA5
:1021C0000E21284807F01AFC204807F0ADFE244BEA
:1021D0001B785C067FF509AF1221234807F00EFC3F
:1021E0001A4807F0A1FE1E4B1B7898067FF502AF38
:1021F00013211E4807F002FC144807F095FE184B07
:102200001B7859077FF5FBAE1C21194807F0F6FB38
:102210000E4807F089FE124B1B781A077FF5F4AEC3
:102220001921144807F0EAFB084807F07DFE0C4B23
:102230001B789B077FF5EDAE18210F4807F0DEFBFA
:10224000024807F071FEE4E648120100E487FF1F30
:1022500001F007406C1201007C1201008C12010099
:1022600000F00740A4120100B4120100C8120100DE
:10227000DC120100FC12010018130100F8B5464CF5
:10228000464D4748E66800232B70FFF7D5FA014614
:1022900030460AF099FB08B104232B704048FFF741
:1022A000A5FA21690AF090FB18B12B7843F01003CE
:1022B0002B703B48FFF706FBA16A0AF0A3FB18B19D
:1022C0002B7843F040032B70002335486B70FFF7E9
:1022D000F9FAE16A314D0AF077FB08B101236B701E
:1022E000304D2F4800232B70FFF7A6FA616A06468F
:1022F000E0680AF0C1F8014630460AF083FB08B1F5
:1023000004232B702648FFF771FA616A064620699C
:102310000AF0B4F8014630460AF056FB18B12B78A3
:1023200043F010032B701E48FFF7CCFAA16B064652
:10233000A06A0AF0A1F8014630460AF063FB18B122
:102340002B7843F040032B70002315486B70FFF788
:10235000B9FAA16B134F0646E06A0AF08FF80146FE
:1023600030460AF031FB08B101237B7000230C4892
:10237000EB70FFF761FA054609480A4EFFF736FA97
:10238000014628460AF078F8E16B0AF03BFB08B1F9
:102390000123F370F8BD00BF4493FF1F4093FF1F5C
:1023A000F894FF1FB494FF1F514B1B68002B74D08F
:1023B000F0B5504D2B680533B3F57A7F83B040F309
:1023C0008E80002300272B604B4CD4F8A4000AF029
:1023D00009F90646D4F8A8000AF004F931460AF0D3
:1023E0004BF839460AF052F944490AF003FA3146EB
:1023F0000AF044F80AF026FB0146062005F07AFDB3
:1024000002213F4807F0FAFA3E4807F08DFD062109
:102410003D4807F0F3FA28680AF0E4F83B490AF06F
:1024200035F909F089FC022602460B46009635482C
:1024300007F0D2FD0D21364807F0E0FAD4F8A400E9
:102440000AF0D0F8074628680AF0CCF82F490AF0BD
:102450001DF90546D4F8A8000AF0C4F839460AF078
:102460000BF8014628460AF011F924490AF0C2F98E
:1024700039460AF003F809F05FFC009602460B4665
:10248000204807F0A9FD31461D4807F0B7FA1D485E
:1024900003B0BDE8F04007F047BD174B1D4AD3F825
:1024A000A410D3F8A83012685B1A632B0BDD1A480E
:1024B00003FB02F380FB0302DB17C3EB6213194437
:1024C000062005F017BD154803FB022380FB03021D
:1024D000DB17C3EB22121144062005F00BBD184692
:1024E0002B600AF07FF809490AF0D0F807466BE73D
:1024F000A494FF1F7492FF1F4493FF1F0000C84263
:10250000341F0100E487FF1F58130100CDCCCC3DE0
:10251000601301003887FF1F1F85EB51CBF08D281A
:1025200070B5A248A24C07F0FFFCA04807F0FCFCE5
:102530009E4807F0F9FC0D219E4807F05FFAD4F899
:10254000A030012B11D09C4C9848217800230A22FE
:1025500007F0FAFC2378052B67D8DFE813F0E900D1
:10256000EE00F300F800FD00E4000921934807F0B5
:1025700045FA9348FFF73AF921690AF025FA18B1AC
:102580000F21904807F03AFA8D48FFF755F9E168B6
:102590000AF038FA18B10E218B4807F02FFA884854
:1025A000FFF74AF905468648FFF720F90146284615
:1025B00009F062FFE16B0AF025FA18B11121834896
:1025C00007F01CFA7E48FFF77DF9A16A0AF01AFAB3
:1025D00018B10C217E4807F011FA7948FFF772F91B
:1025E000E16A0AF0F1F918B10D217A4807F006FA0C
:1025F000794B73481B68012B00F0C280FFF7F6F897
:1026000021696B4D0AF0FEF978B16D48FFF714F9B6
:10261000E9680AF0D9F940B1674B1B78052B00F047
:10262000C08008216D4807F0E9F902216C4807F0E5
:10263000E5F9122005F0E4FD012800F09C8011204E
:1026400005F0DEFD012800F09180664B1B68012B30
:1026500000F087800221624807F0D0F9624B5348AE
:10266000196807F0B1FC514807F05EFC04215F488F
:1026700007F0C4F90B2005F0C3FD002301460A2230
:102680004A4807F061FC0C2005F0BAFD0023014622
:102690000A22464807F058FC142005F0B1FD00233B
:1026A00001460A22414807F04FFC152005F0A8FD1D
:1026B000002301460A223D4807F046FC06214C480B
:1026C00007F09CF94B4B394819680222002307F0A8
:1026D0003BFC0421484807F091F9112005F090FDDA
:1026E000002301460A22314807F02EFC102005F095
:1026F00087FD002301460A222C4807F025FC122002
:1027000005F07EFD002301460A22284807F01CFC44
:10271000132005F075FD002301460A222348BDE879
:10272000704007F011BC0721344807F067F97CE7D7
:102730000621334807F062F977E70721314807F0AF
:102740005DF972E70721304807F058F96DE7082175
:102750002E4807F053F968E70B212D4807F04EF992
:1027600063E711212B4807F049F973E70A212A484A
:1027700007F044F969E70E21284807F03FF95EE7C2
:10278000FFF734F8216A0AF03DF900283FF449AF19
:102790001621234807F032F90A21224807F02EF9C2
:1027A00043E70A211F4807F029F93EE7E487FF1FA6
:1027B0004493FF1F70130100B094FF1F80130100AA
:1027C000F894FF1F8C1301009C130100AC1301004F
:1027D000C0130100D01301008092FF1F04140100F8
:1027E000341F0100C894FF1FA894FF1F7814010034
:1027F000801401000894FF1F881401004014010098
:1028000010140100181401002C14010034140100EC
:102810002014010064140100581401004814010040
:10282000E0130100F81301002DE9F04F934C944F91
:10283000E36F012B8DB000F04981032B50D0914EF6
:10284000914DA36F9148012B09BF2968296801F1B7
:102850000041296005F0DAF83368002B40F0CE80A3
:102860008A4805F0A9F8E36F3860012B064600F0AE
:10287000D28087490AF0C6F878B9864930460AF00E
:10288000A3F850B9844A854B12680B920B9A1A60D0
:1028900000232B600DB0BDE8F08FDFF8FC817F4C8A
:1028A000D8F800300A930A9823687D4FC01A09F0BF
:1028B00095FE314609F0EAFE7A4909F09BFF794915
:1028C00009F098FF396809F0D9FDD8F8003009936C
:1028D000099B2360002338602B600DB0BDE8F08FAA
:1028E000DFF8C881704DD8F80000664E0123002241
:1028F0000F212B6004F0B6FC2B68012B336800F02D
:102900000381002B40F0A6810021D8F80000DFF8F9
:10291000B891664D04F0F8FC33681FFA80FBC9F8E3
:1029200000B0002B40F07B810021D8F80000564D0C
:10293000DFF878A104F06EFCB4F89A3040F6E44178
:1029400001FB0BF1B1FBF0F0C01A00B209F04AFE36
:1029500057498346D4F8900009F098FE014658463E
:1029600009F048FFD9F800302860632BDFF858B130
:1029700000F3498100232B603368002B3FF461AFE3
:1029800002214C4807F03AF8D9F80020D8F80000A6
:1029900040F6E443002103FB02F804F03BFCB8FBE3
:1029A000F0F009F01BFE8046B4F89A0009F01AFE18
:1029B0000146404609F060FD09F0BEF94FF00208FB
:1029C00002460B46CDF800803B4807F005FB414628
:1029D000384807F013F8286809F0AEF9CDF8008000
:1029E00002460B46344807F0F7FA4146334807F0F1
:1029F00005F841462F4807F001F822E7234804F084
:102A0000DBFF09F099F9022602460B4600962A4898
:102A100007F0E2FA24E7244B1B68012B00F0268123
:102A2000022B7FF435AF264909F0ECFF30B9254978
:102A3000304609F0C9FF002800F04781DFF85880D0
:102A4000164CD8F80030079307982368144FC01A23
:102A500009F0C4FD314609F019FE124909F0CAFE19
:102A6000104909F0C7FE396809F008FDD8F80030B0
:102A70000693069B386023600AE700BF4493FF1F5C
:102A80008C92FF1FEC94FF1F7C92FF1F1C93FF1F73
:102A90000000FA430000FAC310CCFF1F5C92FF1F36
:102AA0009492FF1F00007A445C87FF1FC094FF1FB1
:102AB00017B7D138341F0100E487FF1FCC14010081
:102AC00000C82F4800A08CC63C93FF1F3D68984962
:102AD000284609F079FF30B12846964909F092FF5F
:102AE00000287FF4FDAEDFF85882934DD8F800003F
:102AF000924E022300220E212B6004F0B3FB2B68C0
:102B0000012B33687FF4FDAE002B40F000810021E3
:102B1000D8F80000DFF86C92894D04F0F5FB3368BB
:102B20001FFA80FBC9F800B0002B40F0D5800021CF
:102B3000D8F80000834D04F06DFBB4F8983040F6EF
:102B4000E44A0AFB0BFBBBFBF0F0C01A00B209F031
:102B500049FD7D498346D4F8940009F097FD01466C
:102B6000584609F047FED9F8003028600021D8F80F
:102B700000000AFB03FA04F04DFBB4F89830BAFBEE
:102B8000F0F00FFA80FAC3EB0A03002BB4F8BA2076
:102B9000B8BF5B429342BCBF00232B603368002B5D
:102BA0003FF44FAE0221694806F028FFD9F8002013
:102BB000D8F8000040F6E443002103FB02F804F0DB
:102BC00029FBB4F89810B8FBF0F000B2411A604845
:102BD00007F0FAF902215D4806F010FF286809F0B5
:102BE000ABF84FF0020802460B46CDF8008058487B
:102BF00007F0F2F90321574806F000FF4146534819
:102C000006F0FCFE1DE6DAF80000002104F002FBED
:102C1000DBF8003064389842FFF4ACAEACE600213B
:102C2000286804F0F7FA40F6E44100230A2201FB89
:102C30000BF1B1FBF0F1464807F086F90221434859
:102C400006F0DCFEB4F89A10414807F0BDF9D9F857
:102C500000B069E63E4807F067F90C213E4806F0EF
:102C6000CDFE0C213D4806F0C9FE4DE63C4909F079
:102C7000C9FE58B93B49304609F0A6FE30B93A4A78
:102C80003A4B12680592059A1A6001E6DFF8D8807F
:102C9000364CD8F80030049304982368344FC01A97
:102CA00009F09CFC314609F0F1FC324909F0A2FD23
:102CB000304909F09FFD396809F0E0FBD8F8003091
:102CC0000393039B38602360E2E5274A274B126891
:102CD0000892089A1A60DBE50021286804F09AFA45
:102CE00040F6E44100230A2201FB0BF1B1FBF0F1B5
:102CF000174807F029F901211F4806F07FFEB4F8B4
:102D00009810134807F060F9D9F800B00FE71048A1
:102D100007F00AF9E36F012B4FF00B010CBF1748C6
:102D2000174806F06BFE0C210C4806F067FEEEE635
:102D300000709446007094C65C87FF1FEC94FF1FE0
:102D4000C094FF1F7C92FF1F17B7D138341F0100BA
:102D5000E487FF1FB8140100BC140100A81401008F
:102D60000000FA430000FAC310CCFF1F5C92FF1F63
:102D70009492FF1F00007A446C130100901401002C
:102D80009C1401003C93FF1F2DE9F043AB4D2B68D1
:102D900083B0002B00F08780A94CAA4EE36FAA4FA6
:102DA000A74D012B00F0BF80D4F88030DFF890826F
:102DB000012B00F0ED80D8F85850D7F80090D8F8E3
:102DC000548005FB08F54FF47A7000FB05F009F01C
:102DD00009FC9E49DFF86C820546484609F056FC1E
:102DE000294609F007FD9A4909F050FC09F02AFE2E
:102DF000632830604BDD2846944909F0FBFC6423CE
:102E0000C8F80030934B38601B68002B48D0E36F44
:102E10008B4D012B00F0ED80032B00F0FD80022B89
:102E200000F0008102218C4806F0E8FD8B4B186809
:102E300008F082FF022402460B460094884807F0FF
:102E4000CBF82146874806F0D9FD2146824806F096
:102E5000D5FD3168824807F0B7F80621824806F0B0
:102E6000CDFD3868794909F011FC08F065FF009440
:102E700002460B467A4807F0AFF803217B4806F07C
:102E8000BDFD774803B0BDE8F04307F04DB800281A
:102E9000BCBF0023C8F800306E4B1B68002BB6D1B6
:102EA00003B0BDE8F0837248654CFEF76BFD7149D5
:102EB000A76EE66E09F0EAFB09F0EAFD226F636F88
:102EC000D21B9B1B80B29342A0EB0700C0F29D80F7
:102ED00003FB00F393FBF2F333445A4E5E48336036
:102EE000022106F08BFD31685D48574F07F06CF802
:102EF0000221594806F082FD3268A06D636D02FB25
:102F000000F003FB00F000EB8000400009F06AFBDA
:102F10004E4909F06FFC01232B60E36F3860012BF1
:102F2000474D7FF441AF5248FEF72CFD5149D5F88B
:102F30006890D5F86C8009F0A9FB09F0A9FD2A6F0B
:102F40006B6FC9EB0202C8EB030380B29A42C9EB74
:102F500000006CDD03FB0000531C90FBF3F303EB5C
:102F60000800A26D636D306002FB00F003FB00F00F
:102F700000EB8000400009F035FB3449DFF8C080E9
:102F800009F038FCD4F880303860012B7FF413AF9F
:102F90003748FEF7F7FC3749D8F86890D8F86C50F6
:102FA00009F074FB09F074FDD8F87020D8F874307B
:102FB000D4F85480C9EB02025B1B80B29A42C9EB81
:102FC0000000C6BF03FB00000132584390FBF2F043
:102FD0002844A56D00FB05F008FB00F000EB800025
:102FE000400009F0FFFA194909F004FC81463860F5
:102FF000E7E6214B1B68012B4FF00A010CBF1F486D
:103000001F4806F0FBFCEB6F06E703FB0000531CB8
:1030100090FBF3F3334460E710211A4806F0EEFC0E
:10302000E36FFCE60721184806F0E8FCFAE603FB2C
:1030300000F393FBF2F303EB080092E77892FF1F93
:103040004493FF1F3887FF1F9492FF1FE4388E3E82
:103050000000C8424887FF1F341F01008C92FF1FE9
:10306000E487FF1FCC140100041501000C150100BA
:10307000F894FF1F00007A445C87FF1FD014010002
:10308000DC140100E8140100FC14010030B511202B
:1030900083B005F0B5F8012818D0122005F0B0F87B
:1030A000012813D000210B2005F0A4F800210C20EA
:1030B00005F0A0F80021152005F09CF82649274BC3
:1030C0000120002208701A6003B030BD01211520D4
:1030D00005F090F8224A234C234B1268D4F8841050
:1030E00001921B68019A1D4D0B4493424FF002015F
:1030F000296005D901210C2005F07CF803B030BD12
:10310000D4F88C0009F06EFA184B196809F05CFCD1
:103110000028EFD101210B2005F06CF894F8C030A5
:1031200003242C6043B10C4B02221A7000210C20A6
:1031300005F060F803B030BD122005F061F80128F9
:1031400008BF054B4FF0110008BF1C7005F058F880
:103150000128EBD1E7E700BFB094FF1FE894FF1F01
:1031600010CCFF1F4493FF1FF494FF1F8C92FF1F8E
:10317000F0B5684E684D34682B689C4287B039D0F2
:1031800014F0010155D014F0020149D014F00401EB
:103190003DD0E3070ED52B68DF070BD45F4F3A68AD
:1031A000002A00F082805E4B1B680193019B9342D2
:1031B0006DD83468A0070DD52B6899070AD4594FEC
:1031C0003A68002A4CD0564B1B680393039B9342EA
:1031D00038D8346862070DD52B685B070BD4524F83
:1031E0003A68002A7ED04E4B1B680593059B93429C
:1031F00068D834680CB107B0F0BD2146162004F041
:1032000079FE2146172004F075FE07B0F0BD0520B9
:1032100004F070FE2B68346803F0FB032B60B8E702
:10322000172004F067FE2B68346803F0FD032B6061
:10323000ACE7162004F05EFE2B68346803F0FE0352
:103240002B60A0E7394B1720D3F8881004F052FE0A
:103250002B68346843F0020300222B603A60B9E720
:10326000334806F061FE0C21324806F0C7FB3048B7
:1032700006F05AFEFF21172004F03CFE284B2E4A90
:1032800019680291029912680A443A609CE7274B38
:103290001620D3F8881004F02DFE2B68346843F014
:1032A000010300222B603A6084E7FF21162004F01E
:1032B00021FE1B4B204A19680091009912680A44AC
:1032C0003A6071E7194B0520D3F8881004F012FE1C
:1032D0002B68346843F0040300222B603A60002C12
:1032E00089D18AE7124806F01FFE0C21134806F028
:1032F00085FB0F4806F018FEFF21052004F0FAFDBB
:10330000074B0D4A19680491049912680A443A60FF
:103310006AE700BFE894FF1F0894FF1F8894FF1F0F
:1033200010CCFF1F8C94FF1F9094FF1F4493FF1F2E
:10333000E487FF1F101501007C87FF1F2015010087
:103340002DE9F047544EDFF87481DFF8749130684E
:10335000524D00220F2103F085FF0023012222217C
:103360004F48C8F80030C9F8002006F047FBD8F8ED
:103370000030132B22DC40F6E44700213068B5F81A
:1033800098A003F0C1FF00210446306803F042FF1B
:10339000A4B2012107FB04F4B4FBF0F44148544407
:1033A000A5F8984006F02AFB642004F05FFFD8F8E7
:1033B00000300133132BC8F80030DEDDB5F898304B
:1033C000394A3A48A2FB03129B1A02EB5303C3F398
:1033D0000F131946A5F8983006F0F6FD1D21344864
:1033E00006F00CFB0221334806F008FB2F4806F0DC
:1033F0009BFD00231A460E213068C8F8003003F008
:1034000031FF022322212648C9F8003006F0F6FADF
:10341000D8F80030132B22DC40F6E4470021306856
:10342000B5F89A9003F070FF00210446306803F06D
:10343000F1FEA4B2012107FB04F4B4FBF0F4194837
:103440004C44A5F89A4006F0D9FA642004F00EFF27
:10345000D8F800300133132BC8F80030DEDDB5F8A2
:103460009A30114A1148A2FB03129B1A02EB530334
:10347000C3F30F131946A5F89A3006F0A5FD1D21D8
:103480000D4806F0BBFA02210A4806F0B7FA0748D1
:10349000BDE8F04706F048BDC094FF1F4493FF1FEE
:1034A000301501007415010087611886E487FF1F3D
:1034B00054150100341F010078150100AC94FF1F62
:1034C0005C87FF1FF8B5874B874C884F1B68386DAA
:1034D00040F2513108222160E271002B00F0FD80A2
:1034E00009F080F8396A054609F0D0F8804909F0FA
:1034F000CDF809F0CDFA80B2031263727D4A7E4B9B
:1035000012681B68B9692072A37228461B12151233
:10351000E3722273657309F0B9F8754909F0B6F8DA
:1035200009F0B6FA83B21A126F497448A373E273B2
:1035300003F0BAFC724B734A1B6812886A49A27284
:10354000DDB2257205EB850603EB8305760045F3B6
:10355000D71540F2553E12121B12267365730826CA
:1035600000256648C4F800E0E2726372E671A57354
:10357000E57303F099FC40F2563363482360E6712B
:10358000FEF77EF9614909F081F809F081FA2072AD
:103590005D48FEF775F95D4909F078F809F078FAA9
:1035A0005B4A5A49C0F307231068637209F022F995
:1035B00009F048FA40FA06F203465348E272A37251
:1035C000FEF780F94A4909F061F809F061FA2073C1
:1035D0004D48FEF777F9464909F058F809F058FACE
:1035E0004149A573C0F3072344486373E57303F0AF
:1035F0005BFC022004F03AFE464A474B11785078B3
:10360000217291786072D2789878A172597893F883
:1036100000E0E2726173DA78A07340F25A33324903
:103620003648E67184F80CE0E273236003F03CFC5A
:103630003A4B2D491A785878227260729A78D87865
:10364000A272E0721A79987993F805E02273A07358
:10365000DA792A4884F80DE040F25E33E2732360A1
:10366000E67103F021FC022004F000FE2C4B1E4901
:103670001A785878227260729A78D878A272E072BA
:103680001A79987993F805E02273A073DA791B48C8
:1036900084F80DE04FF45C73E2732360E67103F08D
:1036A00003FC022004F0E2FDBA6DE67142FA06FE68
:1036B000012340F25F370226227399222572657238
:1036C00084F80DE02760A672E372E373A2730649E3
:1036D0000A48BDE8F84003F0E7BB08F083FF7969CA
:1036E000054601E78092FF1FD894FF1F4493FF1FF8
:1036F00000002041BC94FF1F6492FF1F68CAFF1F97
:103700003887FF1F4487FF1FF894FF1F0000C8423F
:103710008C92FF1F4093FF1FB494FF1F2887FF1F49
:103720006087FF1FF0B59C4C9C4D83B006F000F9FC
:1037300023682860042B00F0AC82022B4BD0082BAE
:1037400000F09280072B40F05181332801F0F28382
:1037500000F3AD80312801F00084322840F0B080C1
:1037600006F022F9002840F33F818D488D4E06F087
:103770006DFD08F037FF8C4908F088FF61230122B6
:10378000F06322602B601846A0F152031F2B01F258
:10379000AF83DFE813F02E0BAD0BAD0BAD0BAD0B14
:1037A000AD0BAD0BAD0BAD0BAD0BAD0BAD0BAD0B59
:1037B000AD0BAD0BB203CB0C3905A7057304AD0BF4
:1037C000AD0BAD0B2604AD0BCE0CAD0BAD0BAD0BA5
:1037D000AD0BAD0B300BA0F13102422A70D8DFE8FF
:1037E00012F0F006FC060A0717072A0739076F00D0
:1037F0006F006F006F006F006F006F006F006F0051
:103800006F006F006F006F006F006F006F006F0040
:103810006F006F006F006F006F006F006F006F0030
:103820006F006F006F006F006F006F006F006F0020
:103830006F006F006F006F006F006F006F006F0010
:103840006F006F006F00DD066F006F006F006F008C
:103850006F006F006F006F006F006F006F006F00F0
:103860006F006B006F00E306322800F02F83712891
:1038700022D0312824D106F097F8002840F3CF85D4
:103880004748484E06F0E2FCC0B286F840000228E5
:1038900094BF01460021726C444888BF86F84010EE
:1038A000FDF7F2FF01236920236028606CE73428CC
:1038B00001F02E83712803D1002373202360286038
:1038C000002B08BF73280CBF01200020002860D007
:1038D000334806F029FB0421354806F08FF83048BC
:1038E00006F022FB1021334806F088F82C4806F039
:1038F0001BFB1321304806F081F8304B284819682B
:1039000006F062FB264806F00FFB14212C4806F057
:1039100075F8234806F008FB1E212A4806F06EF8C9
:103920001F4806F001FB1521274806F067F81C48E0
:1039300006F0FAFA1E21254806F060F8184806F04D
:10394000F3FA2021224806F059F8154806F0ECFA5F
:103950001921204806F052F8114806F0E5FA122124
:103960001D4806F04BF80E4806F0DEFA0F211B4802
:1039700006F044F80A4806F0D7FA0D21184806F078
:103980003DF8074806F0D0FA164A002101231160DD
:10399000236003B0F0BD00BF9892FF1F8892FF1F05
:1039A000E487FF1F4493FF1F6F12833AF894FF1FB1
:1039B000B01D0100B81D0100CC1D01002087FF1FB4
:1039C000E01D0100F81D0100181E0100301E01005D
:1039D000501E0100741E0100901E0100A41E010073
:1039E000B41E01004887FF1F23682868062B40F09B
:1039F0008D80A0F13102402A3FF662AF01A151F85B
:103A000022F000BF2944000055440000814400001A
:103A1000A7440000CD440000EB44000089450000AD
:103A2000C1380000C1380000C1380000C1380000B2
:103A3000C1380000C1380000C1380000C1380000A2
:103A4000C1380000C1380000C1380000C138000092
:103A5000C1380000C1380000C1380000C138000082
:103A6000C1380000C1380000C1380000C138000072
:103A7000C1380000C1380000C1380000C138000062
:103A8000C1380000C1380000C1380000C138000052
:103A9000C1380000C1380000C1380000C138000042
:103AA000C1380000C1380000C1380000C138000032
:103AB000C1380000C1380000C1380000C138000022
:103AC000C1380000C1380000C1380000C138000012
:103AD000C1380000C1380000C1380000C138000002
:103AE000C1380000C1380000C1380000C1380000F2
:103AF000C1380000C1380000C1380000C1380000E2
:103B0000C1380000B938000023682868052B15D19A
:103B1000332801F0498240F34781352801F06B8258
:103B2000C1F2538271287FF4CBAEDC4A00237320AC
:103B3000136023602860C3E623682868032B40F0E5
:103B4000A480A0F13002422A3FF6BAAE01A151F89A
:103B500022F000BF613C0000FD4C0000AB4B0000B8
:103B6000D34B0000F54B0000174C0000254D000022
:103B70004D4D00006B4D00008F4D0000C13800001E
:103B8000C1380000C1380000C1380000C138000051
:103B9000C1380000C1380000C1380000C138000041
:103BA000C1380000C1380000C1380000C138000031
:103BB000C1380000C1380000C1380000C138000021
:103BC000C1380000C1380000C1380000C138000011
:103BD000C1380000C1380000C1380000C138000001
:103BE000C1380000C1380000C1380000C1380000F1
:103BF000C1380000C1380000C1380000C1380000E1
:103C0000C1380000C1380000C1380000C1380000D0
:103C1000C1380000C13800003F4C00005747000089
:103C2000B74D0000D54D00009F4C0000BD4C00007A
:103C30000D47000031470000C1380000C1380000C6
:103C4000C1380000C1380000C1380000C138000090
:103C5000C1380000C13800005D4C0000694C000014
:103C600005F0A2FE002841F34C818D488D4E06F0F0
:103C7000EDFA01270346014662228B4873652760EF
:103C80002A60FDF7FFFD23682868012B7FF418AE3A
:103C90007AE5A0F13102402A3FF612AE01A151F8B7
:103CA00022F000BF6F460000874600008B460000F0
:103CB000B1460000F1460000B5460000C7460000CE
:103CC000CB460000CF460000C1380000C1380000DC
:103CD000C1380000C1380000C1380000C138000000
:103CE000C1380000C1380000C1380000C1380000F0
:103CF000C1380000C1380000C1380000C1380000E0
:103D0000C1380000C1380000C1380000C1380000CF
:103D1000C1380000C1380000C1380000C1380000BF
:103D2000C1380000C1380000C1380000C1380000AF
:103D3000C1380000C1380000C1380000C13800009F
:103D4000C1380000C1380000C1380000C13800008F
:103D5000C1380000C1380000C1380000C13800007F
:103D6000C1380000C1380000C1380000C13800006F
:103D7000C1380000C1380000C1380000C13800005F
:103D8000C1380000C1380000C1380000C13800004F
:103D9000C1380000C1380000C1380000C13800003F
:103DA000C1380000B9380000312801F0EC80322819
:103DB0007FF486AD05F0F8FD00287FF7BDAE3848EA
:103DC000384E06F043FA01226B23C6F88C002260BD
:103DD0002B6001E005F0ACFD05F0E6FD0028F9D10F
:103DE0002F4806F0A1F82E4806F09EF82C4806F061
:103DF0009BF82B4806F098F8294806F095F8212101
:103E00002A4805F0FBFD264806F08EF815212848C3
:103E100005F0F4FDD6F88410214806F0D5F802210B
:103E2000244805F0EBFD1E4806F07EF81E212248CE
:103E300005F0E4FDD6F88C10194806F0C5F803210A
:103E40001E4805F0DBFD164806F06EF81E211C48E2
:103E500005F0D4FDD6F88810114806F0B5F81048E2
:103E600006F062F81D21174805F0C8FDD6F8A41029
:103E70000B4806F0A9F80A4806F056F81E21124829
:103E800005F0BCFDD6F8A810054806F09DF80448DA
:103E900006F04AF8052323607BE500BFA494FF1FCA
:103EA000E487FF1F4493FF1FF894FF1F28180100A9
:103EB0004C1801003817010064180100B814010003
:103EC00084180100A4180100C418010005F06CFD5D
:103ED000002840F3A082B248B24E06F0B7F908F0CD
:103EE00081FBB14908F0D2FB0346024696F8401028
:103EF000AE487364D4E405F01BFD05F055FD05469E
:103F00000028F8D1A648A74E06F00EF8A44806F0FF
:103F10000BF8A34806F008F8A14806F005F8A048F9
:103F200006F002F81F21A24805F068FD9C4805F044
:103F3000FBFF1C219F4805F061FD706A9E4908F057
:103F4000A5FB07F0F9FE009502460B46944806F0E3
:103F500043F80221994805F051FD914805F0E4FF2E
:103F60002321974805F04AFDF06B934908F08EFB3A
:103F700007F0E2FE009502460B46894806F02CF851
:103F800002218E4805F03AFD854805F0CDFF192144
:103F90008C4805F033FDB06B07F0CEFE02250B46D2
:103FA000024600957E4806F017F82946864805F037
:103FB00025FD7B4805F0B8FF1921844805F01EFD5A
:103FC000B6F8B810764805F0FFFF0321804805F0E9
:103FD00015FD734805F0A8FF07232360D9E405F019
:103FE000A7FC05F0E1FC05460028F8D16C486D4EB1
:103FF00005F09AFF6A4805F097FF694805F094FFBD
:10400000674805F091FF664805F08EFF152171485D
:1040100005F0F4FC624805F087FF18216E4805F0B2
:10402000EDFC2B460A2296F840105D4805F08CFF07
:104030005B4805F079FF2821684805F0DFFC706CCB
:104040005D4908F023FB07F077FE00950B4602461A
:10405000534805F0C1FF0221584805F0CFFC5048F5
:1040600005F062FF13215E4805F0C8FC4C4805F0DE
:104070005BFF082323608CE405F05AFC05F094FCF8
:1040800005460028F8D14648464E05F04DFF444805
:1040900005F04AFF424805F047FF414805F044FF5C
:1040A0003F4805F041FF11214E4805F0A7FC3C4870
:1040B00005F03AFF28214C4805F0A0FC70693E4904
:1040C00008F0E4FA07F038FE009502460B46344843
:1040D00005F082FF0221394805F090FC304805F0D8
:1040E00023FF1621414805F089FCF069324908F0A8
:1040F000CDFA07F021FE00950B460246284805F050
:104100006BFF02212D4805F079FC254805F00CFFD6
:10411000D6F8B030002B32DD1D21354805F06EFC9D
:10412000F06D08F05FFA334908F0B0FA07F004FECA
:10413000022502460B460095194805F04DFF012166
:104140002D4805F05BFC164805F0EEFE1F212B48BC
:1041500005F054FC306E08F045FA264908F096FA4E
:1041600007F0EAFD009502460B460D4805F034FFC6
:104170000121214805F042FC094805F0D5FE112136
:104180001F4805F03BFCD6F8B030052B00F26086E6
:10419000DFE813F095069A065A06A906A4069F06BC
:1041A000E487FF1F4493FF1F6F12833AF894FF1FA9
:1041B00084170100A417010000007A4410160100C2
:1041C000C4170100E81701000418010008180100D5
:1041D00024180100781E0100C8150100E415010033
:1041E000141601001C1E01002816010054160100BF
:1041F0006C160100CDCCCC3D081B01008C160100D3
:10420000AC16010005F094FB05F0CEFB0028F9D1B7
:10421000BF48C04E05F088FEBD4805F085FEBC488D
:1042200005F082FEBA4805F07FFEB94805F07CFE35
:104230001F21B94805F0E2FBB54805F075FE1E21C7
:10424000B64805F0DBFBB24805F06EFE1A21B44813
:1042500005F0D4FBF36F022B00F03787032B00F03F
:104260002B87012B00F03A870921AE4805F0C6FBE9
:10427000A74805F059FE1421AB48A64F05F0BEFB38
:10428000B16FA34805F0A0FEA14805F04DFE1C212A
:10429000A64805F0B3FBD6F880109D4805F094FEC3
:1042A0009B4805F041FE1C21A14805F0A7FBD6F86C
:1042B000AC10974805F088FE954805F035FEF56F7F
:1042C00025F00205012D00F0B1861321994805F073
:1042D00095FB8F4805F028FE02232360FFF759BBAA
:1042E00005F026FB05F060FB0028F9D1884805F0B1
:1042F0001BFE874805F018FE854805F015FE84482A
:1043000005F012FE824805F00FFE13218A4805F0E1
:1043100075FB7F4805F008FE0D21884805F06EFB0F
:104320007B4805F001FE0F21854805F067FB854BB2
:104330007748196805F048FE754805F0F5FD13212A
:10434000814805F05BFB814B7148196805F03CFE24
:104350006F4805F0E9FD12217D4805F04FFB7D4BCC
:104360006B48196805F030FE694805F0DDFD112144
:10437000794805F043FB794B6548196805F024FE40
:10438000634805F0D1FD0E21754805F037FB614B00
:104390005F48D3F8A01005F017FE5D4805F0C4FD96
:1043A0001921704805F02AFB6F4B5948196805F030
:1043B0000BFE574805F0B8FD11216C4805F01EFBB7
:1043C0006B4B5348196805F0FFFD514805F0ACFDF3
:1043D0001021684805F012FB674B4D48196805F03D
:1043E000F3FD4B4805F0A0FD1C21644805F006FBD9
:1043F000634B4748196805F0E7FD454805F094FD13
:1044000013214C4805F0FAFA414805F08DFD0423CC
:104410002360FFF7BEBA23682868FFF793B93D4EC3
:1044200096F84000FFF733BA05F0BEFA00287FF790
:104430006BAB3748374E05F009FF08F0D3F8514908
:1044400008F0D8F965230122706122602B601846BC
:10445000FFF79AB905F0A8FA00287FF755AB2C486A
:104460002C4E05F0F3FE08F0BDF8464908F0C2F9FD
:1044700065230122F06122602B601846FFF784B9A2
:1044800005F092FA00287FF73FAB2148214E05F056
:10449000DDFE00EB8000430001226520F365226011
:1044A0002860FFF771B905F07FFA00287FF72CAB81
:1044B0001748184E05F0CAFE00EB800043000122A9
:1044C0006520336622602860FFF75EB9114AD2F892
:1044D000B0300133052BC8BF0023C2F8B030012330
:1044E000652023602860FFF74FB905F05DFA0028CA
:1044F0007FF70AAB0648074E05F0A8FE65230122A8
:10450000C6F8B40022602B601846FFF73DB900BF23
:10451000E487FF1F4493FF1FC8190100E819010039
:10452000081A0100801A01008C1A0100A41A010067
:10453000C41A010014160100E4180100F818010063
:10454000081901008494FF1F18190100EC94FF1F43
:104550002C190100D094FF1F40190100D494FF1FB3
:104560005419010064190100A894FF1F801901006B
:10457000A494FF1F941901008492FF1FA819010041
:104580007087FF1F00007A447A4B93F8C020002AFE
:1045900000F03F85002283F8C020A0E7FEF7D0FEA0
:1045A00023682868FFF7CBB8724AD36F0133032B17
:1045B000C8BF0023D3670123632023602860FFF76F
:1045C000E3B86C4EB36FB3FA83F35B090122632047
:1045D000B36722602860FFF7D7B8664ED6F8803000
:1045E000B3FA83F35B0901226320C6F880302260AE
:1045F0002860FFF7C9B80123236005F0D5F900282A
:10460000D9DD5D485B4E05F021FEC6F8AC00D2E76F
:104610000123236005F0C8F9002807DD5648554EF0
:1046200005F014FE07F0DEFFC6F894006320286052
:104630002368FFF787B80123236005F0B5F9002848
:10464000F4DD4D484B4E05F001FE07F0CBFFC6F8F8
:104650009000EBE70123236005F0A6F90028E5DDD3
:104660004548444E05F0F2FDA6F8BA00DEE7434A9D
:104670001368B3FA83F35B0901216420136021609E
:104680002860FFF781B83E4AF2E73E4A3E4F136882
:10469000002B0CBF012300234FF0010013602060AA
:1046A00040F0F484034664222A606420FFF747B890
:1046B000364ADDE7012336482360FCF751FF354ACF
:1046C00023681060EFE7344AD2E7344AD0E7012389
:1046D000236005F069F9002800F3A084304B1A68C4
:1046E000042AC4BF02221A6064232B602368DCE71B
:1046F000204ED6F8A030B3FA83F35B090122642080
:10470000C6F8A03022602860FFF73EB805F04CF9EB
:1047100000280DDD1848174E05F098FD07F062FFE0
:10472000204908F067F801226223306222602B6082
:1047300005F03AF900280EDD0F480E4E05F086FD13
:1047400007F050FF174908F055F801226223C6F818
:10475000BC0022602B6005F027F9002840F3D183CC
:104760000548044E05F072FD01226223B066226006
:104770002B601BE04493FF1FE487FF1F8494FF1FFF
:10478000EC94FF1FD094FF1F9892FF1FD494FF1F3B
:10479000F894FF1FA894FF1FA494FF1F8492FF1F8B
:1047A0007087FF1F00007A4405F0C2F805F0FCF89E
:1047B00005460028F8D1C24805F0B6FBC04805F010
:1047C000B3FBBF4805F0B0FBBD4805F0ADFBBC48EE
:1047D00005F0AAFB1521BB4805F010F9B84805F013
:1047E000A3FB1421B84805F009F9B54805F09CFB76
:1047F0001B21B64805F002F9B14805F095FB1321DD
:10480000B34805F0FBF8AE4805F08EFBAC4805F068
:104810008BFBAB4805F088FB2021AE4805F0EEF895
:10482000F068AD4907F032FF07F086FA00950246BE
:104830000B46A34805F0D0FB0221A84805F0DEF89E
:104840000221A74805F0DAF89D4805F06DFB21210B
:10485000A44805F0D3F830699F4907F017FF07F027
:104860006BFA009502460B46954805F0B5FB022110
:104870009A4805F0C3F80221994805F0BFF890481E
:1048800005F052FB1F21984805F0B8F8B06A07F010
:1048900053FA022702460B460097894805F09CFB15
:1048A0000121924805F0AAF839468D4805F0A6F88E
:1048B000834805F039FB20218D4805F09FF8F06A08
:1048C00007F03AFA009702460B467D4805F084FB54
:1048D0000121864805F092F83946814805F08EF8A6
:1048E000774805F021FB2321824805F087F8B06C5A
:1048F000794907F0CBFE07F01FFA009502460B46F8
:104900006F4805F069FB3946744805F077F8394679
:10491000734805F073F86A4805F006FB1F217648D6
:1049200005F06CF8F06C6C4907F0B0FE07F004FA83
:10493000009502460B46624805F04EFB3946674833
:1049400005F05CF83946664805F058F85C4805F013
:10495000EBFA1921694805F051F8B16D584805F096
:1049600033FB3946664805F049F839465C4805F09E
:1049700045F8534805F0D8FA1821624805F03EF88A
:10498000706E07F02FFE604907F080FE07F0D4F943
:10499000009702460B464A4805F01EFB01215B4882
:1049A00005F02CF839464E4805F028F8444805F043
:1049B000BBFA2B21564805F021F8B069464907F0AB
:1049C00065FE07F0B9F9009502460B463C4805F034
:1049D00003FB3946414805F011F83946404805F0D7
:1049E0000DF8374805F0A0FA1F214A4805F006F8EF
:1049F000716D334805F0E8FA3946394804F0FEFF96
:104A00002F4805F091FA2021434804F0F7FF316D5B
:104A10002B4805F0D9FA3946314804F0EFFF284811
:104A200005F082FA10213D4804F0E8FFB16E2448F9
:104A300005F0CAFA3946294804F0E0FF394628480B
:104A400004F0DCFF1E4805F06FFA1321344804F02F
:104A5000D5FFF16E1A4805F0B7FA0121314804F08C
:104A6000CDFF39461E4804F0C9FF154805F05CFA31
:104A700010212D4804F0C2FF316F114805F0A4FA4F
:104A80003946164804F0BAFF3946154804F0B6FF17
:104A90000B4805F049FA1421244804F0AFFF716F68
:104AA000074805F091FA01211E4804F0A7FF394696
:104AB0000B4804F0A3FF024805F036FA162137E050
:104AC000E487FF1F501B0100681B0100801B0100D1
:104AD000141601009C1B010000007A44101601000E
:104AE000341F0100C01B0100E41B0100E81101009C
:104AF000041C0100281C01004C1C01006C1C01005E
:104B0000881C01008C1C0100CDCCCC3D081B010091
:104B1000A81C0100D41C0100F41C0100181D010098
:104B20002C1D0100401D0100441D0100581D010005
:104B3000BA4804F063FF306AB94907F0A7FD07F0EF
:104B4000FBF8009502460B46B64805F045FA394693
:104B5000B54804F053FF3946B44804F04FFFB1485C
:104B600005F0E2F92421B24804F048FFD6F8BC0071
:104B7000AB4907F08BFD07F0DFF800950B460246C6
:104B8000A84805F029FA3946A74804F037FF394606
:104B9000A64804F033FFA34805F0C6F9A14805F084
:104BA000C3F903232360FEF7F4BE04F0FDFE0028E2
:104BB00040F3A7819B489F4E05F048FB07F012FD8C
:104BC000974907F017FE01226223306122602B60B3
:104BD000ECE504F0E9FE002840F393819148954EFE
:104BE00005F034FB07F0FEFC01226223B062226074
:104BF0002B60DBE504F0D8FE002840F38281894871
:104C00008C4E05F023FB07F0EDFC01226223F062DD
:104C100022602B60CAE504F0C7FE002840F37181D2
:104C20008048844E05F012FB07F0DCFC7C4907F05D
:104C3000E1FD01226223B06422602B60B6E504F03E
:104C4000B3FE002840F35D8176487A4E05F0FEFA07
:104C500001226223306522602B60A7E500227323C6
:104C600022602B60FEF734BE734B7048714E0022F9
:104C700002211A6004F0C2FE6A4805F055F90B21C2
:104C80006E4804F0BBFE0221684804F0B7FE654898
:104C900005F04AF90122622322602B6086E504F0C8
:104CA00083FE002840F32D815E48624E05F0CEFA67
:104CB00001226223706722602B6077E5FDF70EF812
:104CC00002215A485B4E04F099FE564805F02CF933
:104CD0000221564804F092FE524805F025F90221BF
:104CE000524804F08BFE4F4805F01EF91721544836
:104CF00004F084FE4B4805F017F9C4E704F054FEB5
:104D0000002840F3FE8047484A4E05F09FFA07F01E
:104D100069FC434907F06EFD01226223F0602260C6
:104D20002B6043E504F040FE002840F3EA803D4854
:104D3000404E05F08BFA07F055FC394907F05AFD53
:104D400001226223F06422602B602FE504F02CFE28
:104D5000002840F3D6803348364E05F077FA01221A
:104D60006223B06522602B6020E504F01DFE002860
:104D700040F3C7802B482F4E05F068FA00EB800007
:104D8000430001216222736621602A600EE504F06F
:104D90000BFE002840F3B5802248264E05F056FA57
:104DA00007F020FC1E4907F025FD01226223B061B7
:104DB00022602B60FAE404F0F7FD002840F3A180A4
:104DC00018481C4E05F042FA01226223F066226068
:104DD0002B60EBE404F0E8FD002840F392801148DA
:104DE000144E05F033FA01226223306722602B60F3
:104DF000DCE404F0CDF8C42200210E4802F02EFFBE
:104E00002868104AA0F1730001210023B0FA80F055
:104E1000400911602360FEF759BD00BF701D0100FD
:104E200000007A44E487FF1F10160100341F0100C0
:104E3000881D01004493FF1F7892FF1FBC150100DD
:104E4000A41501004887FF1F0C21BB4804F0D6FDC4
:104E5000BA48BB4D05F068F8D6F8B030002B12DD2B
:104E60001821B84804F0CAFDD5F8B410B34805F0CD
:104E7000ABF80221B44804F0C1FDB04805F054F885
:104E8000AE4805F051F81B21B04804F0B7FD96F884
:104E9000C030012B15BF12211421AD48AD4804F0DC
:104EA000ADFDA64805F040F81321AB4804F0A6FD7F
:104EB000A24805F039F806232360FEF76ABD0D21EC
:104EC000A64804F09BFDC3E70C21A54804F096FD1D
:104ED000BEE70B21A34804F091FDB9E70D21A248DC
:104EE00004F08CFDB4E70D21A04804F087FDAFE786
:104EF0002368002B08BF73280CBF01200020FEF799
:104F0000E5BC23682868012B7EF4DAACFEF73CBCD4
:104F100004F04AFD00287EF767AD8848884E05F00A
:104F200095F961230122A6F8B80022602B6018468B
:104F3000FEF72ABC04F038FD00287EF755AD7F4807
:104F40007F4E05F083F907F04DFB61230122B0632A
:104F500022602B601846FEF717BC04F025FD0028E0
:104F60007EF742AD7548764E05F070F907F03AFBD2
:104F70007F4907F08BFB61230122706222602B6066
:104F80001846FEF701BC04F00FFD00287EF7D4ADF3
:104F90006A486B4E05F05AF901226B23C6F884006B
:104FA00022602B60FEF718BF04F0FEFC00287EF79D
:104FB000C3AD6248624E05F049F901226B23C6F881
:104FC000880022602B60FEF707BF04F0EDFC00288C
:104FD0007EF7B2AD59485A4E05F038F9654BC6F820
:104FE000A40002221A60FDF7DFF901226B23226080
:104FF0002B60FEF7F1BE04F0D7FC00287EF79CADD5
:105000004E484F4E05F022F95A4BC6F8A80003222D
:10501000E8E7012283F8C020FFF761BA474805F0AE
:1050200015F9554B02461860FFF75ABB1C2153482F
:1050300004F0E4FCD7F89400514907F027FB06F090
:105040007BFE009502460B463C4804F0C5FF052157
:105050004C4804F0D3FC394804F066FFFD6F012D85
:1050600045D0032D7FF431A91C21474804F0C6FC2C
:10507000B6F8BA10314804F0A7FF0321434804F002
:10508000BDFC2E4804F050FFFFF71FB9404B00262F
:1050900031460B201E6003F0ADF831460C2003F0C2
:1050A000A9F83146142003F0A5F83146152003F085
:1050B000A1F83B68FFF7F7BA2021364804F09EFCC0
:1050C0001E4804F031FFFFF7D6B81721324804F02C
:1050D00095FC1A4804F028FFFFF7CDB81E212F4891
:1050E00004F08CFC154804F01FFFFFF7C4B81D2125
:1050F0002B4804F083FCD7F89000214907F0C6FA4A
:1051000006F01AFE00950B4602460C4804F064FFB8
:1051100005211C4804F072FC084804F005FFFB6FF1
:1051200023F00203012B9FD0FFF7CFB8044EFFF707
:105130003DBB034EFEF750BEE0160100E487FF1FA3
:105140004493FF1F1C170100381701003C17010092
:10515000581701006C17010014160100C016010059
:10516000D01601001017010000170100F016010011
:105170006F12833AA494FF1F7087FF1FE41A010087
:10518000CDCCCC3D041B01002C1B01004C1B0100AD
:10519000E894FF1F441A0100681A0100241A010054
:1051A0000C1B010038B5164C164A2368101D12F866
:1051B000011F904241EA0323F9D12360124C03F10D
:1051C00000432360114BDB6F022B11D0104B1B6887
:1051D000012B00D038BD0F4804F0A6FE21680D4811
:1051E00004F0F2FE03210C48BDE8384004F006BC90
:1051F00020680A4D07F0F6F92860FDF715FBE5E792
:105200001094FF1F9B94FF1FB894FF1F4493FF1F30
:105210008494FF1FE487FF1FC41E01007C92FF1FC0
:1052200030B5384C384883B0214601F035FD23684D
:105230003C2B4DD06FF480721344FE2B08D8334BB7
:1052400030491A683248012A18BF0022FCF7AEF92B
:10525000304B1B68012B01D003B030BD2B4B1B68BA
:10526000012BF9D12C4B2D481B6801930A220023F6
:10527000019904F069FE2268224B002ADB793ADBAF
:105280002749284808F0E0F9264808F019FA0146AD
:10529000244804F0B3FB25681A4B15F080451BD158
:1052A000DB798BB1631920491A7A1E4808F0CCF9D2
:1052B0001C4808F005FA01461A4804F09FFB013526
:1052C000E379EDB2AB42EDD8144804F02DFEC3E70C
:1052D000FFF768FF2368ADE7144D124C0FCD0FC4E4
:1052E00095E8030044F8040B204620F81419152112
:1052F00004F084FBE8E70E490A4822F0604208F017
:10530000A3F9C1E79494FF1F68CAFF1F8494FF1F8D
:10531000F894FF1F4887FF1F10CCFF1FE487FF1F73
:10532000F01E01009C92FF1F1C1F0100041F0100C2
:10533000C81E01002DE9F84F9A4B9B4C1B78052B9A
:1053400008D09A48FCF7BEFAE16A07F03DFB002856
:1053500000F09380964E974D002333602B60964B60
:1053600092481B68904F012B45D0FCF765FAE16924
:105370008046606907F080F80146404607F042FB2E
:1053800000284CD18948FCF757FAE16807F03AFB4E
:1053900008B100232B608548834FFCF727FA216969
:1053A00007F012FB58B1002333602B68814A002BB1
:1053B00001DBBDE8F88F00231360BDE8F88F7B4860
:1053C000FCF714FAB96907F0FFFA0028EBD1774827
:1053D000FCF70CFAD7F8BC100446B86907F04EF891
:1053E0000146204607F00EFB002873D0786E30602F
:1053F0000028D8DBD9E7FCF71FFAE1698046206A6C
:1054000007F03AF80146404607F0FCFA0028B9D008
:105410006648FCF711FAD7F82090834605E0634808
:10542000FCF70AFAD7F814908346F969484607F062
:1054300023F88246F86D07F0D5F88046386E07F0FD
:10544000D1F8414607F018F851460746584607F08C
:1054500013F80146384607F019F951460746484601
:1054600007F00AF80146384607F0C4F9414607F04C
:1054700005F807F0E7FA286084E74C48FCF722FAC1
:10548000216B07F0A1FA002849D0494E636E4748C6
:105490003360FCF717FA8146E06DE76A454D07F087
:1054A000A1F839468046484606F0E6FF01464046E8
:1054B00007F0ECF839468046206B06F0DDFF014628
:1054C000404607F097F9002106F0D8FF07F0BAFA36
:1054D000286044E73548FCF789F98146F86DBC69D6
:1054E00007F080F821468046484606F0C5FF014691
:1054F000404607F0CBF8D7F8BC108046204606F0AF
:10550000BDFF214606F0B8FF0146404607F072F99C
:10551000002106F0B3FF07F095FA306068E72348F2
:10552000FCF7D0F9616B07F04FFA30B1204E214DF6
:10553000626EE36D32602B6011E71C48FCF7C2F924
:10554000A16A07F041FA00283FF404AF1748184E4B
:10555000184DFCF7B7F98146606ED4F8348007F037
:1055600041F841460746484606F086FF39468146DF
:10557000002006F081FF0146484607F087F84146C3
:105580008146A06A06F078FF0146484607F032F9E6
:10559000394606F073FF07F055FAE36D30602B6073
:1055A000DDE600BFB094FF1F4493FF1FF894FF1F78
:1055B000BC94FF1F6492FF1F8092FF1F08B527480D
:1055C00004F0B2FC0721264804F018FA112002F07A
:1055D00017FE0621F8B1234804F010FA102002F05B
:1055E0000FFE062100B3204804F008FA122002F052
:1055F00007FE062108B31D4804F000FA132002F04C
:10560000FFFD062110BB1A4804F0F8F91348BDE865
:10561000084004F089BC174804F0F0F9102002F0AB
:10562000EFFD06210028DED1134804F0E7F912202F
:1056300002F0E6FD06210028DDD1104804F0DEF975
:10564000132002F0DDFD06210028DCD00C4804F018
:10565000D5F90248BDE8084004F066BCE487FF1FA6
:10566000281F0100301F0100401F0100501F0100D2
:10567000681F0100381F0100481F0100581F01006A
:10568000601F010010B5254C2368042B27DC012185
:105690000B2002F0AFFD01210C2002F0ABFD012137
:1056A000142002F0A7FD0121152002F0A3FDFF2127
:1056B000162002F01FFCFF21172002F01BFCFF2127
:1056C000052002F017FCFF21062002F013FC2368DE
:1056D00001330A2B2360C4BF0023236010BD0021C7
:1056E0000B2002F087FD00210C2002F083FD002139
:1056F000142002F07FFD0021152002F07BFD002127
:10570000162002F0F7FB0021172002F0F3FB002126
:10571000052002F0EFFB0021D6E700BFF094FF1F49
:105720002DE9F047294F2A4C00264FF00808102396
:1057300046F0800A00254FF0200C4FF0400E17F87D
:10574000012F2349234884F807804FF0C709013609
:10575000C4F800A084F808906372E372A5726573C0
:1057600084F80CC084F80EE0E27301F09DFB082E73
:10577000DDD1194E022002F079FD45F0800A0022A9
:1057800050234FF0100C4FF0200E4FF0080916F880
:10579000017F0F490F4884F809C04FF0C708A27273
:1057A0006273E372A37384F80CE0C4F800A00135BF
:1057B00084F8079084F80880E77301F075FB0220F5
:1057C00002F054FD4D45D5D1BDE8F0873B87FF1F62
:1057D000D894FF1F68CAFF1F2F87FF1F10B509212C
:1057E00082B0974803F020F8222002F0C5FF954BC5
:1057F0001B78052B0BD8DFE813F00A010F01140109
:1058000019011E01060007218F4803F00DF8222020
:1058100002F0B2FFFF2002F0AFFFFF2002F0ACFF6A
:105820008A4CFF2002F0A8FF0821894802F0FCFF03
:105830002168884804F0C8FBFF2002F09DFFFF208C
:1058400002F09AFFFF2002F097FF0921824802F040
:10585000EBFF21687F4804F0B7FBFF2002F08CFFCC
:10586000FF2002F089FFFF2002F086FF0C217B4819
:1058700002F0DAFF7A4B1C680021204607F0C2F8DC
:10588000002800F0C1802046764906F0B3FF06F0FC
:1058900053FA002402460B4600946E4804F09CFB29
:1058A000FF2002F069FFFF2002F066FFFF2002F0F8
:1058B00063FF09216C4802F0B7FF6C48FCF702F85F
:1058C00006F03AFA009402460B46624804F084FB64
:1058D000FF2002F051FFFF2002F04EFFFF2002F0F8
:1058E0004BFF0C21624802F09FFF6048FCF748F82C
:1058F00006F022FA009402460B46564804F06CFB70
:10590000FF2002F039FFFF2002F036FFFF2002F0F7
:1059100033FF0D21574802F087FF5448FCF72EF85B
:1059200006F00AFA009402460B464A4804F054FB7B
:10593000FF2002F021FFFF2002F01EFFFF2002F0F7
:105940001BFF09214C4802F06FFF4848FBF798FF06
:1059500006F0F2F9009402460B463E4804F03CFB88
:10596000FF2002F009FFFF2002F006FFFF2002F0F7
:1059700003FF0C21414802F057FF3C48FBF736FF7C
:10598000384906F083FE06F0D7F9009402460B462C
:10599000304804F021FBFF2002F0EEFEFF2002F071
:1059A000EBFEFF2002F0E8FE0D21354802F03CFF3F
:1059B0002E48FBF741FF2B4906F068FE06F0BCF9C4
:1059C000009402460B46234804F006FBFF2002F039
:1059D000D3FEFF2002F0D0FEFF2002F0CDFE092111
:1059E000284802F021FF284B1A48196804F0ECFA05
:1059F000FF2002F0C1FEFF2002F0BEFEFF2002B039
:105A0000BDE8104002F0B8BE04F100403CE70621BA
:105A10001E4802F009FFFAE607211D4802F004FFC4
:105A2000F5E607211B4802F0FFFEF0E608211A48C0
:105A300002F0FAFEEBE60B21184802F0F5FEE6E66E
:105A4000701F0100B094FF1F401401003887FF1F32
:105A50007C1F0100D487FF1F881F0100941F0100D5
:105A60008C92FF1F00007A44A41F0100F894FF1FCE
:105A7000B01F0100C01F0100D01F0100DC1F01008A
:105A8000EC1F0100FC1F01002087FF1F1014010004
:105A9000181401002C14010034140100201401001A
:105AA0002DE9F0418D4DD5F8B030042B3ED0032BBD
:105AB0006ED0012B00F09880022B01D0BDE8F08160
:105AC000874C8848237240F20E320123214622601F
:105AD000E37101F0E9F9844B1B685B00FF2BC8BF41
