:1000000000800020BD010000B1850000698500006E
:100010006985000069850000698500006985000028
:10002000698500006985000069850000B1850000D0
:10003000B185000069850000C97B0000CD7C00000F
:10004000B1850000B1850000B1850000B1850000D8
:10005000B1850000B1850000B1850000B1850000C8
:10006000B1850000B1850000B1850000B1850000B8
:10007000B1850000B1850000B1850000B1850000A8
:10008000B1850000B1850000B1850000B185000098
:10009000B1850000B1850000B1850000B185000088
:1000A000B1850000B1850000B1850000B185000078
:1000B000B1850000B5710000C1710000C57100007C
:1000C000D1710000D5710000D9710000B185000028
:1000D000B1850000B1850000B1850000B185000048
:1000E000B1850000B1850000B1850000B185000038
:1000F000B1850000F9A60000B1850000A5920000BE
:10010000B185000071940000B1850000B185000048
:10011000B1850000B1850000B1850000B185000007
:10012000B1850000B1850000B1850000B1850000F7
:10013000B1850000B1850000B1850000B1850000E7
:10014000B1850000B1850000B1850000B1850000D7
:10015000B1850000B1850000B1850000B1850000C7
:10016000B185000001970000B1850000B185000055
:10017000B1850000B1850000B1850000B1850000A7
:10018000B1850000B1850000B1850000B185000097
:10019000B1850000B1850000B1850000B185000087
:1001A000B1850000B1850000B1850000B185000077
:1001B000B1850000B1850000B1850000564B4CF2BE
:1001C000205210B51A804DF628121A8000BF00BFC9
:1001D00008F0F2F9514B4FF010621A60504A9A60E1
:1001E000504ADA60504A136813F4807304D14F49BF
:1001F0000B604FF4A85313604D4B1A78110703D5C9
:100200001A7842F008021A704A4B4B492A221A7097
:100210004A4A4B4B8B4204D252F8040F43F8040B6A
:10022000F8E7484B484900228B4202D243F8042B9E
:10023000FAE74649464A002352F8230041F82300D2
:1002400001336F2BF8D1434B434A802103F8011B44
:100250009342FBD1414B3D4A1A60414B8A221A70AE
:10026000A3F5805324225A70A0221A709A7992071B
:10027000FCD59A79D406FCD43A4A937903F00C035E
:10028000082B384BF9D103221A7140225A719A79FE
:100290009006FCD5334A9179324B4906FBD5324A58
:1002A000324911600221516020221A709A7902F0BD
:1002B0000C020C2AFAD12E4B2E4A1A602E4B2F4AD2
:1002C0001A6000225A60072243F8042C2C4AC3F813
:1002D0000C2D62B608F050FC144B1B68DA0705D5EC
:1002E000284808F02DFA284B284A1A60284B1B781A
:1002F0005B0609D5244C254B22689A4204D121483B
:1003000008F01EFA002323600BF0D8FC08F05AF91D
:1003100008F088F8FEE700BF0E200540308004405A
:10032000823F04000100002B10D0034014D0034092
:1003300002D0074000E007403092FF1F0418010080
:100340002087FF1F3092FF1F08D2FF1F0082FF1F70
:100350000000000000E400E05FE400E008ED00E0E1
:100360000050064000400640448004400000030165
:1003700004800440C010050014E000E0FF76010096
:1003800000002020B8A26A5E1CE00340A5C3945A76
:1003900000F00740FFFFFFFFFFFFFFFFFFFFFFFF32
:1003A000FFFFFFFFFFFFFFFFFFFFFFFFFFFFFFFF5D
:1003B000FFFFFFFFFFFFFFFFFFFFFFFFFFFFFFFF4D
:1003C000FFFFFFFFFFFFFFFFFFFFFFFFFFFFFFFF3D
:1003D000FFFFFFFFFFFFFFFFFFFFFFFFFFFFFFFF2D
:1003E000FFFFFFFFFFFFFFFFFFFFFFFFFFFFFFFF1D
:1003F000FFFFFFFFFFFFFFFFFFFFFFFFFFFFFFFF0D
:10040000FFFFFFFFFFFFFFFFFFFFFFFFDEF9FFFF23
:1004100010B5054C237833B9044B13B10448AFF33E
:1004200000800123237010BD3092FF1F00000000E8
:1004300000180100084B10B51BB108490848AFF37C
:1004400000800848036803B910BD074B002BFBD0A0
:10045000BDE81040184700BF000000003492FF1FA5
:10046000001801003092FF1F00000000F0B400F1FE
:100470002C06174F00243146031F00F15C0243F89D
:10048000044FB34241F8047F4FF0000542F8044F97
:10049000F5D100230F4A1049C0F89050C0F894508D
:1004A000C0F89850C0F89C50C0F8A050C0F8B050A8
:1004B000C0F8A420C0F8AC20C0F8A81080F8B8306C
:1004C00080F8B93080F8D030C0F8DC30F0BC70472C
:1004D0000000A040000048430000C8C270B5CD1D18
:1004E00000F1900400F1A00615F8010F28380BF078
:1004F0007FF944F8040FB442F6D170BD2DE9F843FA
:1005000081461546042900F2EA80DFE801F0546BC9
:1005100094BE0300537A107A03F02F0300EB0320FC
:100520000BF066F96F490BF06BFAC9F82400EB7A0F
:10053000A87A03F02F0300EB03200BF059F9694967
:100540000BF05EFAC9F828006B7B287B03F02F03C1
:1005500000EB03200BF04CF962490BF051FAD9F88B
:100560000040C9F82C0009F13006C84609F16005C1
:10057000002701E058F8044F306821460BF048FB93
:100580000137214628B1D9F8B4000BF02DFB00B19A
:100590003460214628680BF01DFB0436524920B117
:1005A00020460BF035FB00B12C600C2F05F1040543
:1005B000E0D1BDE8F883507A127AAB7AE97AD9F8BB
:1005C000004002EB002202EB034303EB0163C9F896
:1005D000DC306B7B2A7B1B0203F470631344C9F885
:1005E000D830C0E7537A107A03F02F0300EB0320D2
:1005F0000BF0FEF83B490BF003FAC9F80000EB7A68
:100600000446A87A03F02F0300EB03200BF0F0F868
:1006100034490BF0F5F9C9F804006B7B287B03F033
:100620002F0300EB03200BF0E3F82E490BF0E8F961
:10063000C9F8080097E7537A107A03F02F0300EB0C
:1006400003200BF0D5F827490BF0DAF9C9F80C00B4
:10065000EB7AA87A03F02F0300EB03200BF0C8F825
:1006600020490BF0CDF9C9F810006B7B287B03F013
:100670002F0300EB03200BF0BBF81A490BF0C0F975
:10068000D9F80040C9F814006DE7537A107A03F0E6
:100690002F0300EB03200BF0ABF812490BF0B0F97D
:1006A000C9F81800EB7AA87A03F02F0300EB0320B7
:1006B0000BF09EF80B490BF0A3F9C9F81C006B7BFB
:1006C000287B03F02F0300EB03200BF091F8054982
:1006D0000BF096F9D9F80040C9F8200043E7046808
:1006E00041E700BF00007A440000A04090F8C0003D
:1006F000704700BF90F8BC00704700BF90F8C4007E
:10070000704700BF90F8C800704700BF0C2994BF25
:1007100050F82100002070472DE9F0410B4E804633
:10072000041F00F12C0754F8045F314628460BF0F3
:1007300051FA30B1D8F8B41028460BF069FA00B17C
:100740002E46BC42EFD13046BDE8F081000020418A
:100750002DE9F041D0F8B4704FF00008041F00F10B
:100760002C0654F8045F394628460BF051FA084924
:1007700048B128460BF02EFA414620B128460BF02E
:1007800047FA00B1A846B442EBD14046BDE8F0813B
:100790000000A0402DE9F047D0F8B47082464FF039
:1007A0000009041F00F12C064FF0000854F8045F04
:1007B000394628460BF02CFA0C4950B128460BF06C
:1007C00009FA30B1484629460AF05EFF08F10108EF
:1007D0008146B442EAD1CAF8D48040460BF008F80A
:1007E000014648460BF00CF9BDE8F0870000A04038
:1007F000D0F8D400704700BFD0F8D800704700BFD1
:10080000F8B5D0F89860D0F89450044631462846A0
:100810000BF0E0F9D4F89C70002830D1D4F8A04057
:10082000314628460BF0F4F950B1394630460BF00A
:10083000D1F928B1214630460BF0CCF900282FD150
:10084000394628460BF0E4F948B1394630460BF0FA
:10085000DFF920B1214638460BF0BCF910BB304619
:1008600021460BF0D5F948B1384621460BF0D0F9B6
:1008700020B1284621460BF0CBF978B9F8BD2846BF
:1008800039460BF0A7F9D4F8A0400028C8D0284674
:1008900021460BF09FF90028C2D02C462046F8BD17
:1008A0003446FBE73C46F9E7F8B5D0F89860D0F855
:1008B00094500446314628460BF0AAF9D4F89C70AF
:1008C000002830D1D4F8A040314628460BF082F9F8
:1008D00050B1394630460BF09BF928B121463046DD
:1008E0000BF096F900282FD1394628460BF072F903
:1008F00048B1394630460BF06DF920B121463846F3
:100900000BF086F910BB304621460BF063F948B175
:10091000384621460BF05EF920B1284621460BF0FF
:1009200059F978B9F8BD284639460BF071F9D4F871
:10093000A0400028C8D0284621460BF069F90028BD
:10094000C2D02C462046F8BD3446FBE73C46F9E7CA
:1009500010B50446D0F89810D0F894000AF094FE30
:10096000D4F89C100AF090FED4F8A0100AF08CFE87
:100970004FF07A510AF090FF10BD00BF2DE9F84307
:100980000026D0F8B480C0F890608146041F00F1C2
:100990002C0754F8045F414628460BF039F9094901
:1009A00050B128460BF016F930B1304629460AF00E
:1009B0006BFE0646C9F89000BC42EAD13046BDE85D
:1009C000F88300BF0000A04003299ABF00EB81001C
:1009D000D0F89400002070473E2998BF80F8D010CE
:1009E000704700BFD0F8DC00704700BF90F8B80037
:1009F000704700BF90F8B900704700BFC0F8CC1036
:100A0000704700BF80F8B810704700BF80F8B91079
:100A1000704700BF30B50F4CC0F8B41083B020460B
:100A20000D4607F001FA204607F0FEF928460AF0C5
:100A300089FA022502460B460095204607F04CFA3B
:100A4000204607F0F1F9204603B0BDE8304007F03A
:100A5000EBB900BFD087FF1F70B500F55D550646A6
:100A6000083500F128042046E034FFF7FFFCAC42D3
:100A7000F9D106F58475012428460021FFF7C2FF4D
:100A8000214628460134FFF7A7FF3F2C05F1E0057A
:100A9000F2D143F2507400250548064A064B3555FD
:100AA000002130617161B261F361304670BD00BFF9
:100AB00000007A44000048430000C8C270B500F549
:100AC0005D56083600F58474002507E001252046B0
:100AD0000021E034FFF79AFFB4420AD02046FFF726
:100AE00085FF0028F3D02046FFF784FF0028EDD1D2
:100AF00070BD284670BD00BF70B500F58D56083634
:100B000000F5847402E0E034B4420CD02046FFF7D4
:100B10006DFF05460028F6D02046FFF763FFC307A8
:100B2000F1D5284670BD0025284670BD2DE9F0415D
:100B300043F2547300F55D56374600228046C2509A
:100B40000836143700F5847402E0E034B4420DD066
:100B50002046FFF74BFF0028F7D020463D68FFF7FF
:100B600047FEE0342844B4423860F1D143F2547374
:100B700058F80300BDE8F08138B50C6804F00F04A4
:100B80000134C4EBC40300EB431015462830FFF7D3
:100B9000A5FC012D00D038BD064807F045F92146D7
:100BA000044807F091F90B210348BDE8384009F0EB
:100BB0003DBC00BFD087FF1F58FE0000F0B50C6899
:100BC00004F00F0504F0F004302C83B00F46064605
:100BD00005F101053ED01ADC14B1202C33D10124DB
:100BE000072D1CD9C5EBC50506EB4515283528464C
:100BF0000121FFF707FF28460121FFF707FF3A46CB
:100C00002146284603B0BDE8F040FFF777BC402CF2
:100C10001ED0502C17D1072D4FF00404E2D8012A22
:100C2000E0D129460C48019207F04EF9019A0B4891
:100C3000114609F0FBFB2146074807F045F9064835
:100C400007F0F2F8CEE7072DCCD8042CCADCE6E793
:100C50000324C5E70224C3E7D087FF1F64FE00001A
:100C60002DE9F043002383B00646036000F5847449
:100C7000012504E001353F2D04F1E00466D0204653
:100C8000FFF7B4FE0028F5D04E4805F013FD2946C5
:100C90004D4805F00FFD2046FFF770FE0AF052F9AF
:100CA00002460B46494805F005FD2046FFF734FD96
:100CB00080462046FFF74CFD074640460AF042F9C1
:100CC0008046384689460AF03DF942464B46CDE912
:100CD00000013F4805F0EEFC00212046FFF774FEBE
:100CE000012180462046FFF76FFE074640460AF086
:100CF00029F98046384689460AF024F942464B468F
:100D0000CDE90001334805F0D5FC2046FFF736FE5B
:100D1000014630680AF0B8FC30602046FFF770FDED
:100D2000B1690AF057FF002833D12046FFF7BCFD18
:100D3000F1690AF06DFF00289CD02046FFF7B4FD52
:100D400001353F2DF06104F1E00498D170680AF09C
:100D50004FFD014630680AF053FE71693060044669
:100D60000AF056FF00B17461316920460AF032FF83
:100D700000B134610B2007F07BFE43F25073F35C4B
:100D800060B99BB143F250730122F25403B0BDE845
:100D9000F0832046FFF734FDB061C6E753B943F254
:100DA00050730022F25403B0BDE8F0830A4805F006
:100DB000AFFCE7E7094805F095FC43F250730022C9
:100DC000F254F0E75000010068FE0000A4FE0000AD
:100DD000B8FE0000E4FE000000FF000038FF000045
:100DE00070B5114B836000F55D550646083500F57A
:100DF000847402E0E034AC4213D02046FFF7F6FDE5
:100E00000028F7D02046FFF787FCB1680AF0E2FE21
:100E10000028EFD02046FFF77FFCE034AC42B06002
:100E2000EBD1B06870BD00BF0000A04070B50023DA
:100E300000F55D550646C360083500F5847402E090
:100E4000E034AC4213D02046FFF7D0FD0028F7D0A5
:100E50002046FFF77DFCF1680AF0DAFE0028EFD0AB
:100E60002046FFF775FCE034AC42F060EBD1F0684F
:100E700070BD00BF0068704741607047F8B500F56D
:100E80005D550F461646083500F5847402E0E034DF
:100E9000AC420FD02046FFF7A9FD0028F7D020462E
:100EA0003946FFF7ABFD20463146E034FFF7B2FD8F
:100EB000AC42EFD1F8BD00BF2DE9F84343F24C73CB
:100EC00000F55D550027C7502E462A4A2A4B42623C
:100ED00080464FF00009036208350C3600F5847433
:100EE00002E0E034A54213D02046FFF77FFD002842
:100EF000F7D03368013333602046FFF729FD1F49DF
:100F00000AF086FE88B9E034A54207F10107EBD16B
:100F100043F24C7358F80300C01B0AF069FC014609
:100F200048460AF06DFDBDE8F8832046FFF710FD46
:100F3000014648460AF0A8FB81462046FFF7B4FC6C
:100F4000D8F820100AF064FE70B92046FFF758FC6C
:100F5000D8F824100AF03EFE0028C2D02046FFF741
:100F60004FFCC8F82400BCE72046FFF79DFCC8F8FA
:100F70002000EAE700C0794400C079C400008CC2B8
:100F8000006A7047406A7047F8B500F55D5507463E
:100F90000026083500F5847402E0E034AC420FD03E
:100FA0002046FFF723FD0028F7D02046FFF7F2FB8D
:100FB000014630460AF068FBE034AC420646EFD109
:100FC00043F24C73F8580AF013FC014630460AF01D
:100FD00017FDF8BD2DE9F04F06468FB096488B46B9
:100FE00005F010FB944805F00DFB934805F00AFB53
:100FF00043F24C733046F2580D92FFF797FD736839
:101000000C930746306809F09DFF804630468946BC
:10101000FFF7BAFF82463046B468F568FFF74CFF29
:1010200009F090FFCDE90A01214628460AF02AFB83
:1010300082490AF031FC09F085FFCDE90801284614
:1010400009F080FFCDE90601204609F07BFFCDE9DC
:101050000401504609F076FF0D9A0C9BCDE9020180
:10106000CDE90089114676483A4605F0CBFA724838
:1010700005F0C8FA06F584764FF001094FF0000A32
:1010800007E009F10109B9F13F0F06F1E00600F0B0
:10109000CB803046FFF7AAFC0028F2D03046FFF79D
:1010A00025FB3046FFF726FB3046FFF727FB30468F
:1010B000FFF728FB0821634809F0B8F94946624860
:1010C00006F002FFB9F1090F40F3B18002215F4839
:1010D00009F0ACF93046FFF751FC09F033FF5FFA35
:1010E0008BF802460B46CDF80080574806F0F4FE18
:1010F0000121574809F09AF95546002420E00621BD
:10110000544809F093F929464F4806F0DDFE0221C4
:10111000514809F08BF921463046FFF7F7FA09F0FC
:1011200011FFCDF8008002460B46474806F0D4FE7A
:1011300001340121464809F079F90C2C09D03D46CB
:10114000092D05F10107DADC0121444809F06EF9A7
:10115000D5E73D4806F068FE0921414809F066F9E7
:1011600000213046FFF730FC09F0ECFE0225024674
:101170000B460095344806F0AFFE0A21394809F0C5
:1011800055F901213046FFF71FFC09F0DBFE009501
:1011900002460B462C4806F09FFE0A21324809F011
:1011A00045F929463046FFF70FFC09F0CBFE0095C4
:1011B00002460B46244806F08FFE0A212B4809F010
:1011C00035F903213046FFF7FFFB09F0BBFE009520
:1011D00002460B461C4806F07FFE2146244809F0D3
:1011E00025F93046FFF7FEFB002310220146164882
:1011F00006F02AFE08211F4809F018F93046FFF7CB
:10120000FBFA0023014610220F4806F01DFE09F1EB
:1012100001090D4806F008FEB9F13F0F0AF10C0A6A
:1012200006F1E0067FF435AF0FB0BDE8F08F012185
:101230000A4809F0FBF849E75000010000007A4431
:10124000E801010088020100D087FF1F1807010094
:1012500094020100980201005C0401006C0401008A
:10126000A0020100AC020100B8020100C4020100AA
:10127000D0020100E00201002DE9F04F85B000F539
:1012800084758A4603929B462E464FF0010806E07D
:1012900008F10108B8F13F0F06F1E0067BD03046B7
:1012A000FFF7A4FB0028F3D000230A2251467D4813
:1012B00006F0CAFD01217C4809F0B8F8039809F04E
:1012C00041FE00230246009376480B4606F004FEDA
:1012D0000121754809F0AAF85946724806F0F4FD54
:1012E0000121714809F0A2F841466E4806F0ECFD74
:1012F00001216D4809F09AF800244FF002092146B7
:101300003046FFF703FA09F01DFECDF800900246C3
:101310000B46644806F0E0FD01340121624809F003
:1013200085F8082C4FF00207E9D100213046FFF77D
:101330004BFB09F007FE009702460B46594806F0A2
:10134000CBFD0121584809F071F801213046FFF723
:101350003BFB09F0F7FD009702460B46514806F0AB
:10136000BBFD0121504809F061F839463046FFF7CE
:101370002BFB09F0E7FD009702460B46494806F0B3
:10138000ABFD08F10108474806F04EFDB8F13F0FEC
:1013900006F1E00683D101274FF0000904E0013790
:1013A0003F2F05F1E00579D02846FFF71FFB002805
:1013B000F5D000230A2251463C4806F045FD0121A4
:1013C000394807F06BFE039809F0BCFDCDF800909A
:1013D00002460B46354806F07FFD0121324807F0F2
:1013E0005DFE5946314806F06FFD01212E4807F099
:1013F00055FE39462D4806F067FD01212A4807F0C1
:101400004DFE00244FF0020821462846FFF77EF9E2
:1014100009F098FDCDF8008002460B46234806F0FF
:101420005BFD01340121204807F038FE082C4FF005
:101430000206E9D100212846FFF7C6FA09F082FD2D
:10144000009602460B46194806F046FD0121164853
:1014500007F024FE01212846FFF7B6FA09F072FDD5
:10146000009602460B46114806F036FD01210E4853
:1014700007F014FE31462846FFF7A6FA09F062FD90
:10148000009602460B46094806F026FD013707483C
:1014900006F0CAFC3F2F05F1E00585D105B0BDE897
:1014A000F08F00BFD087FF1F64FE0000B487FF1FCE
:1014B0000A4A0B49906D536D03FB00F34FF47A70A9
:1014C00000FB03F0642310B50B600AF091F90549A5
:1014D000054C0AF095FA206010BD00BF0CCCFF1F30
:1014E0003487FF1FE4388E3E24CDFF1FF8B53D48FA
:1014F0003D4C3E4D3E4E05F085F83E4B3E4A3F4842
:101500003F495A6011271F703E4F3F4AD8601C6107
:1015100000203E4C5D615E623D4DDF624FF07C56C7
:101520000C2799619A623B493B4A18635C633B48CC
:101530003B4C9D635E6440F61C450A261F65394F8F
:101540009964DA64022101221862C3F8BC400020C9
:1015500032249D66DE6664254FF49676DF61DF6394
:1015600041F20407597059721A725A6583F84000A3
:10157000C3F89C401C665E66DE659D654FF05A0CA4
:101580001F674FF47A7E9867D967C3F88000C3F865
:101590008840C3F8A440244FC3F8A000234EC3F8EA
:1015A000AC20C3F8B010FF2441F28831052083F845
:1015B000C02040F2D662C3F8B450C3F874C0C3F878
:1015C0008CE0C3F89070C3F89460C3F8A840A3F807
:1015D000BA00C3F88410A3F8B810A3F89820A3F8B1
:1015E0009A20F8BDEC0201000000404033338340F4
:1015F000CDCCCC3D0CCCFF1F20A1070066668640F9
:10160000CDCC4C40000020C10000824200002042AE
:101610000000A0409A9979400AD7233D33337340A4
:101620009A99993ECDCC4C3E0000684200C02044BF
:10163000F0B5002185B00F2007F028FA00210E2018
:1016400007F024FA0021112007F020FA00211020D1
:1016500007F01CFA0021122007F018FA00211320CD
:1016600007F014FA01210B2007F010FA01210C20D9
:1016700007F00CFA0121142007F008FA01211520C7
:1016800007F004FA0121162007F000FA01211720C3
:1016900007F0FCF90121052007F0F8F9954C964D6B
:1016A0000121062007F0F2F901210D2007F0EEF9E3
:1016B00020880AF099F80146162007F051F9208891
:1016C0000AF092F80146172007F04AF920880AF03C
:1016D0008BF80146052007F043F920880AF084F8CA
:1016E00000240146062007F03BF900942346834A74
:1016F0008349844805F006FAE6B232467E498148BD
:1017000005F0AEF92B797C497E486FF30003013474
:1017100032462B7105F09AF9082CEDD10924E6B276
:1017200032467549774805F09BF92B79724975481F
:1017300043F00103013432462B7105F087F90D2C7B
:10174000EDD1714C4FF0FF322068102105F0A6FD5D
:1017500020684FF0FF32102105F078FD20684FF02F
:10176000FF32022105F086FD20684FF0FF32022192
:1017700005F08AFD00220F21206805F099FD0C215B
:10178000624808F053FE624806F04EFB11216148A2
:1017900008F04CFE5E4806F047FB40F2836007F01D
:1017A0005BFA5B4806F040FB17215B4808F03EFE01
:1017B000574806F039FB594B1B789A0600F1D28046
:1017C000564B1B781B0700F1D980544B1B785F07E1
:1017D00000F1E080514B1B789E0700F1E780504BF1
:1017E0001B781D0600F1EE804D4B1B785C0600F166
:1017F000F5804B4B1B78980600F1FC80484B1B781A
:10180000590700F10381464B1B781A0700F10A8142
:10181000434B1B789B0700F111813D4806F004FB08
:1018200072B6404A4CF220534DF628112024138002
:1018300023461180013BFDD13B4D3C483C490023F0
:101840004FF480562E8003800B8032F80E3C9BB202
:1018500043F0D30322F80E3C62B69D2007F0A8FDAA
:1018600021463448344D08F0E1FD294806F0DCFA01
:1018700005F1C4062F462C46601B06F041FD04F816
:10188000010BB442F8D13B78112B01D0FFF72EFEAB
:10189000042004F00BFE294B29482A4D00221A602F
:1018A00004F0D6FD01210D2007F0DCF8796D264803
:1018B000FFF7E2FA7A6C97F840102348FFF7DEFA58
:1018C0002248234B046803941B682249224A039E42
:1018D000006802901268214C2E6081FB0301DB1727
:1018E0001F48A3EB21130299216013FB02F303802D
:1018F00005B0F0BD3887FF1FDCCCFF1F08CFFF1FEE
:1019000020A107006CCDFF1F4CCDFF1F0C03010071
:10191000D087FF1F1C0301003003010001F00740C6
:1019200000F007400E200540042005400620054039
:1019300016200540340401000CCCFF1F8092FF1FCD
:10194000F892FF1F64CBFF1FF893FF1F30CFFF1FDC
:101950005487FF1F1F85EB515087FF1F6CCBFF1F64
:1019600014CDFF1F2121394808F060FD384806F0EA
:101970005BFA384B1B781B077FF527AF0C213648E5
:1019800008F054FD324806F04FFA324B1B785F07DF
:101990007FF520AF0E21314808F048FD2C4806F0B5
:1019A00043FA2C4B1B789E077FF519AF17212C4863
:1019B00008F03CFD264806F037FA2A4B1B781D0636
:1019C0007FF512AF0E21284808F030FD204806F0C0
:1019D0002BFA244B1B785C067FF50BAF12212348B2
:1019E00008F024FD1A4806F01FFA1E4B1B789806D3
:1019F0007FF504AF13211E4808F018FD144806F0C7
:101A000013FA184B1B7859077FF5FDAE1C211948B6
:101A100008F00CFD0E4806F007FA124B1B781A0767
:101A20007FF5F6AE1921144808F000FD084806F0CD
:101A3000FBF90C4B1B789B077FF5EFAE18210F4885
:101A400008F0F4FC024806F0EFF9E6E6480301006E
:101A5000D087FF1F01F007406C0301007C030100E9
:101A60008C03010000F00740A4030100B40301004F
:101A7000C8030100DC030100FC030100180401009D
:101A800070B5464C464D4748E66800232B70FFF77B
:101A9000CDF9014630460AF09DF808B104232B70B9
:101AA0004048FFF79DF921690AF094F818B12B78A6
:101AB00043F010032B703B48FFF762FAA16A0AF06B
:101AC000A7F818B12B7843F040032B70002335485A
:101AD0006B70FFF757FAE16A314E0AF07BF808B1F4
:101AE0000123737000232F48EB70FFF79FF9054621
:101AF0002C482B4EFFF774F90146284609F0C2FD29
:101B0000E16B0AF085F808B10123F370264D2548F2
:101B100000232B70FFF78AF9616A0646E06809F036
:101B2000B1FD014630460AF073F808B104232B706A
:101B30001C48FFF755F9616A0646206909F0A4FDC3
:101B4000014630460AF046F818B12B7843F01003EE
:101B50002B701448FFF714FAA16B0646A06A09F02F
:101B600091FD014630460AF053F818B12B7843F046
:101B700040032B7000230B486B70FFF703FAA16B37
:101B80000546E06A084C09F07FFD014628460AF048
:101B900021F808B10123637070BD00BF0CCCFF1F9A
:101BA000F4CBFF1FF893FF1F5092FF1F514B1B6890
:101BB000002B74D0F0B5504D2B680533B3F57A7F08
:101BC00083B040F38E80002300272B604B4CD4F869
:101BD000A40009F00DFE0646D4F8A80009F008FE9E
:101BE000314609F04FFD394609F056FE444909F0E7
:101BF00007FF314609F048FD0AF014F801460620B7
:101C000006F0B0FD02213F4808F010FC3E4806F007
:101C10000BF906213D4808F009FC286809F0E8FDA9
:101C20003B4909F039FE09F08DF9022602460B46C0
:101C30000096354806F050F90D21364808F0F6FBBD
:101C4000D4F8A40009F0D4FD0746286809F0D0FDB7
:101C50002F4909F021FE0546D4F8A80009F0C8FD77
:101C6000394609F00FFD0146284609F015FE2449C2
:101C700009F0C6FE394609F007FD09F063F9009640
:101C800002460B46204806F027F931461D4808F069
:101C9000CDFB1D4803B0BDE8F04006F0C5B8174BBA
:101CA0001D4AD3F8A410D3F8A83012685B1A632B2E
:101CB0000BDD1A4803FB02F380FB0302DB17C3EBC7
:101CC00062131944062006F04DBD154803FB02239C
:101CD00080FB0302DB17C3EB22121144062006F03F
:101CE00041BD18462B6009F083FD094909F0D4FD78
:101CF00007466BE77C92FF1FD0CCFF1F0CCCFF1F69
:101D00000000C84218070100D087FF1F58040100D7
:101D1000CDCCCC3D600401003487FF1F1F85EB5103
:101D2000CBF08D2870B5B548B54C06F07DF8B348BA
:101D300006F07AF8B14806F077F80D21B14808F0BE
:101D400075FBD4F8A030012B11D0AF4CAB482178F3
:101D500000230A2206F078F82378052B67D8DFE8FD
:101D600013F006010B01100115011A0101010921EF
:101D7000A64808F05BFBA648FFF732F8216909F096
:101D800029FF18B10F21A34808F050FBA048FFF726
:101D90004DF8E16809F03CFF18B10E219E4808F0AB
:101DA00045FB9B48FFF742F805469948FFF718F8AE
:101DB0000146284609F066FCE16B09F029FF18B1DD
:101DC0001121964808F032FB9148FFF775F8A16A97
:101DD00009F01EFF18B10C21914808F027FB8C4830
:101DE000FFF76AF8E16A09F0F5FE18B10D218D4898
:101DF00008F01CFB8C4B86481B68012B00F0E88028
:101E0000FEF7EEFF21697E4D09F002FF78B18048B0
:101E1000FFF70CF8E96809F0DDFE40B17A4B1B785A
:101E2000052B00F0E6800821804808F0FFFA022127
:101E30007F4808F0FBFA122006F01AFE012800F095
:101E4000AF80112006F014FE012800F0B380794B1A
:101E50001B68012B00F0B78002217548764C08F012
:101E6000E5FA764B6548196806F02EF8634805F0E8
:101E7000DBFF0421724808F0D9FA0B2006F0F8FDC8
:101E8000002301460A225D4805F0DEFF0C2006F023
:101E9000EFFD002301460A22584805F0D5FF142023
:101EA00006F0E6FD002301460A22544805F0CCFF67
:101EB000152006F0DDFD0A22002301464F4805F0FB
:101EC000C3FF06215F4808F0B1FA2368DD074FF031
:101ED00001014CBF5C485D4808F0A8FA23689807E8
:101EE0004FF001014CBF5848584808F09FFA23684A
:101EF0005A074FF001014CBF5348544808F096FA76
:101F000023681B074CBF50485048012108F08EFA47
:101F100004214F4808F08AFA112006F0A9FD002399
:101F200001460A22354805F08FFF102006F0A0FD7B
:101F3000002301460A22314805F086FF122006F0F0
:101F400097FD002301460A222C4805F07DFF13204F
:101F500006F08EFD002301460A222848BDE87040A5
:101F600005F072BF07213B4808F060FA5FE70621E1
:101F7000394808F05BFA5AE70721384808F056FA62
:101F800055E70721364808F051FA50E7082135484F
:101F900008F04CFA4BE70B21334808F047FA46E7C4
:101FA0000E21324808F042FA112006F061FD0128A6
:101FB0007FF44DAF0A212E4808F038FA1D4B1B68FC
:101FC000012B7FF449AF11212A4808F02FFA43E78B
:101FD000FEF706FF216A09F01BFE00283FF423AF3D
:101FE0001621254808F022FA0A21244808F01EFA92
:101FF0001DE70A21214808F019FA18E7D087FF1FCA
:102000000CCCFF1F7004010000CCFF1F80040100F6
:10201000F893FF1F8C0401009C040100AC04010034
:10202000C0040100D00401008892FF1F04050100D4
:1020300018070100F0CCFF1F40CDFF1F5C92FF1F6F
:1020400078050100800501008805010014120100D7
:102050008C05010040050100100501001805010074
:102060002C05010034050100200501004805010090
:102070005805010064050100E0040100F8040100B6
:102080002DE9F04F934C944FE36F012B8DB000F08E
:102090004981032B50D0914E914DA36F9148012B54
:1020A00009BF2968296801F10041296005F0F2FCA7
:1020B0003368002B40F0CE808A4805F0C1FCE36F06
:1020C0003860012B064600F0D280874909F0A0FD58
:1020D00078B98649304609F07DFD50B9844A854B70
:1020E00012680B920B9A1A6000232B600DB0BDE8AA
:1020F000F08FDFF8FC817F4CD8F800300A930A9803
:1021000023687D4FC01A09F06FFB314609F0C4FB0C
:102110007A4909F075FC794909F072FC396809F0CF
:10212000B3FAD8F800300993099B23600023386084
:102130002B600DB0BDE8F08FDFF8C881704DD8F886
:102140000000664E012300220F212B6005F0B0F83D
:102150002B68012B336800F00381002B40F0A6812F
:102160000021D8F80000DFF8B891664D05F0F2F8CC
:1021700033681FFA80FBC9F800B0002B40F07B8168
:102180000021D8F80000564DDFF878A105F068F876
:10219000B4F89A3040F6E44101FB0BF1B1FBF0F0EA
:1021A000C01A00B209F024FB57498346D4F89000C6
:1021B00009F072FB0146584609F022FCD9F80030BC
:1021C0002860632BDFF858B100F3498100232B60AE
:1021D0003368002B3FF461AF02214C4808F026F928
:1021E000D9F80020D8F8000040F6E443002103FBB2
:1021F00002F805F035F8B8FBF0F009F0F5FA804682
:10220000B4F89A0009F0F4FA0146404609F03AFAA7
:1022100008F098FE4FF0020802460B46CDF8008009
:102220003B4805F059FE4146384808F0FFF8286859
:1022300008F088FECDF8008002460B46344805F0D1
:102240004BFE4146334808F0F1F841462F4808F06C
:10225000EDF822E7234805F0F3FB08F073FE0226B1
:1022600002460B4600962A4805F036FE24E7244B2A
:102270001B68012B00F02681022B7FF435AF264925
:1022800009F0C6FC30B92549304609F0A3FC002806
:1022900000F04781DFF85880164CD8F800300793DB
:1022A00007982368144FC01A09F09EFA314609F0C6
:1022B000F3FA124909F0A4FB104909F0A1FB3968AF
:1022C00009F0E2F9D8F800300693069B38602360E5
:1022D0000AE700BF0CCCFF1FF8CBFF1FF0CBFF1F9E
:1022E00034CDFF1FF4CCFF1F0000FA430000FAC3F7
:1022F00030CFFF1F5892FF1F24CDFF1F00007A44EC
:102300002487FF1F4CCDFF1F17B7D13818070100D6
:10231000D087FF1FD005010000C82F4800A08CC641
:1023200058CDFF1F3D689849284609F053FC30B14D
:102330002846964909F06CFC00287FF4FDAEDFF8D2
:102340005882934DD8F80000924E022300220E21AD
:102350002B6004F0ADFF2B68012B33687FF4FDAEDA
:10236000002B40F000810021D8F80000DFF86C92CB
:10237000894D04F0EFFF33681FFA80FBC9F800B005
:10238000002B40F0D5800021D8F80000834D04F0E8
:1023900067FFB4F8983040F6E44A0AFB0BFBBBFB3E
:1023A000F0F0C01A00B209F023FA7D498346D4F850
:1023B000940009F071FA0146584609F021FBD9F85A
:1023C000003028600021D8F800000AFB03FA04F06E
:1023D00047FFB4F89830BAFBF0F00FFA80FAC3EB7D
:1023E0000A03002BB4F8BA20B8BF5B429342BCBFCB
:1023F00000232B603368002B3FF44FAE0221694865
:1024000008F014F8D9F80020D8F8000040F6E443AA
:10241000002103FB02F804F023FFB4F89810B8FB86
:10242000F0F000B2411A604805F04EFD02215D480F
:1024300007F0FCFF286808F085FD4FF0020802460F
:102440000B46CDF80080584805F046FD032157485B
:1024500007F0ECFF4146534807F0E8FF1DE6DAF8C5
:102460000000002104F0FCFEDBF8003064389842E4
:10247000FFF4ACAEACE60021286804F0F1FE40F6B3
:10248000E44100230A2201FB0BF1B1FBF0F14648C5
:1024900005F0DAFC0221434807F0C8FFB4F89A10AF
:1024A000414805F011FDD9F800B069E63E4805F055
:1024B000BBFC0C213E4807F0B9FF0C213D4807F05A
:1024C000B5FF4DE63C4909F0A3FB58B93B493046FE
:1024D00009F080FB30B93A4A3A4B12680592059AE6
:1024E0001A6001E6DFF8D880364CD8F80030049343
:1024F00004982368344FC01A09F076F9314609F080
:10250000CBF9324909F07CFA304909F079FA396897
:1025100009F0BAF8D8F800300393039B38602360C1
:10252000E2E5274A274B12680892089A1A60DBE511
:102530000021286804F094FE40F6E44100230A22BA
:1025400001FB0BF1B1FBF0F1174805F07DFC012117
:102550001F4807F06BFFB4F89810134805F0B4FC5F
:10256000D9F800B00FE7104805F05EFCE36F012BCF
:102570004FF00B010CBF1748174807F057FF0C210D
:102580000C4807F053FFEEE600709446007094C6C6
:102590002487FF1FF0CBFF1F4CCDFF1F34CDFF1F43
:1025A00017B7D13818070100D087FF1FBC050100FD
:1025B000C0050100AC0501000000FA430000FAC3A9
:1025C00030CFFF1F5892FF1F24CDFF1F00007A4419
:1025D0006C04010094050100A005010058CDFF1F07
:1025E0002DE9F043AB4D2B6883B0002B00F08780C2
:1025F000A94CAA4EE36FAA4FA74D012B00F0BF8054
:10260000D4F88030DFF89082012B00F0ED80D8F80C
:102610005850D7F80090D8F8548005FB08F54FF4CF
:102620007A7000FB05F009F0E3F89E49DFF86C8250
:102630000546484609F030F9294609F0E1F99A497A
:1026400009F02AF909F0EEFA632830604BDD2846DC
:10265000944909F0D5F96423C8F80030934B3860E9
:102660001B68002B48D0E36F8B4D012B00F0ED80F1
:10267000032B00F0FD80022B00F0008102218C482A
:1026800007F0D4FE8B4B186808F05CFC022402466D
:102690000B460094884805F01FFC2146874807F048
:1026A000C5FE2146824807F0C1FE3168824805F028
:1026B0000BFC0621824807F0B9FE3868794909F019
:1026C000EBF808F03FFC009402460B467A4805F010
:1026D00003FC03217B4807F0A9FE774803B0BDE85F
:1026E000F04305F0A1BB0028BCBF0023C8F80030B0
:1026F0006E4B1B68002BB6D103B0BDE8F083724867
:10270000654CFEF741FC7149A76EE66E09F0C4F80E
:1027100009F0AEFA226F636FD21B9B1B80B293420B
:10272000A0EB0700C0F29D8003FB00F393FBF2F3E4
:1027300033445A4E5E483360022107F077FE316819
:102740005D48574F05F0C0FB0221594807F06EFE67
:102750003268A06D636D02FB00F003FB00F000EB3C
:102760008000400009F044F84E4909F049F901237E
:102770002B60E36F3860012B474D7FF441AF524827
:10278000FEF702FC5149D5F86890D5F86C8009F045
:1027900083F809F06DFA2A6F6B6FC9EB0202C8EB80
:1027A000030380B29A42C9EB00006CDD03FB00001A
:1027B000531C90FBF3F303EB0800A26D636D3060D4
:1027C00002FB00F003FB00F000EB8000400009F08A
:1027D0000FF83449DFF8C08009F012F9D4F88030DE
:1027E0003860012B7FF413AF3748FEF7CDFB374934
:1027F000D8F86890D8F86C5009F04EF809F038FA1B
:10280000D8F87020D8F87430D4F85480C9EB02029C
:102810005B1B80B29A42C9EB0000C6BF03FB0000FD
:102820000132584390FBF2F02844A56D00FB05F0FF
:1028300008FB00F000EB8000400008F0D9FF1949C8
:1028400009F0DEF881463860E7E6214B1B68012B72
:102850004FF00A010CBF1F481F4807F0E7FDEB6F60
:1028600006E703FB0000531C90FBF3F3334460E7DF
:1028700010211A4807F0DAFDE36FFCE6072118483B
:1028800007F0D4FDFAE603FB00F393FBF2F303EB4E
:10289000080092E7E4CCFF1F0CCCFF1F3487FF1F1A
:1028A00024CDFF1FE4388E3E0000C8422887FF1F5A
:1028B00018070100F8CBFF1FD087FF1FD0050100CC
:1028C0000806010010060100F893FF1F00007A447B
:1028D0002487FF1FD4050100E0050100EC0501007D
:1028E0000006010030B5112083B006F0C1F80128C0
:1028F00018D0122006F0BCF8012813D000210B20BC
:1029000006F0B0F800210C2006F0ACF800211520EC
:1029100006F0A8F82649274B0120002208701A600B
:1029200003B030BD0121152006F09CF8224A234C4B
:10293000234B1268D4F8841001921B68019A1D4D34
:102940000B4493424FF00201296005D901210C206C
:1029500006F088F803B030BDD4F88C0008F048FFCA
:10296000184B196809F036F90028EFD101210B2026
:1029700006F078F894F8C03003242C6043B10C4B77
:1029800002221A7000210C2006F06CF803B030BD52
:10299000122006F06DF8012808BF054B4FF011001A
:1029A00008BF1C7006F064F80128EBD1E7E700BF10
:1029B00000CCFF1FF492FF1F30CFFF1F0CCCFF1F76
:1029C00064CBFF1FF8CBFF1FF0B5684E684D34682D
:1029D0002B689C4287B039D014F0010155D014F017
:1029E000020149D014F004013DD0E3070ED52B6855
:1029F000DF070BD45F4F3A68002A00F082805E4BFD
:102A00001B680193019B93426DD83468A0070DD5D4
:102A10002B6899070AD4594F3A68002A4CD0564B74
:102A20001B680393039B934238D8346862070DD523
:102A30002B685B070BD4524F3A68002A7ED04E4B6E
:102A40001B680593059B934268D834680CB107B0A6
:102A5000F0BD2146162005F085FE2146172005F021
:102A600081FE07B0F0BD052005F07CFE2B683468C0
:102A700003F0FB032B60B8E7172005F073FE2B680B
:102A8000346803F0FD032B60ACE7162005F06AFE06
:102A90002B68346803F0FE032B60A0E7394B172046
:102AA000D3F8881005F05EFE2B68346843F002030B
:102AB00000222B603A60B9E7334805F0B5F90C21E4
:102AC000324807F0B3FC304805F0AEF9FF2117207B
:102AD00005F048FE284B2E4A1968029102991268A7
:102AE0000A443A609CE7274B1620D3F8881005F07B
:102AF00039FE2B68346843F0010300222B603A60F2
:102B000084E7FF21162005F02DFE1B4B204A196893
:102B10000091009912680A443A6071E7194B052048
:102B2000D3F8881005F01EFE2B68346843F00403C8
:102B300000222B603A60002C89D18AE7124805F008
:102B400073F90C21134807F071FC0F4805F06CF97C
:102B5000FF21052005F006FE074B0D4A1968049178
:102B6000049912680A443A606AE700BFF492FF1FB2
:102B700040CDFF1FD8CCFF1F30CFFF1FE8CCFF1F79
:102B8000ECCCFF1F0CCCFF1FD087FF1F14060100E9
:102B90003C87FF1F240601002DE9F047544EDFF863
:102BA0007481DFF874913068524D00220F2104F0D7
:102BB0007FFB0023012222214F48C8F80030C9F8CA
:102BC000002007F033FCD8F80030132B22DC40F64D
:102BD000E44700213068B5F898A004F0BBFB002161
:102BE0000446306804F03CFBA4B2012107FB04F466
:102BF000B4FBF0F441485444A5F8984007F016FCA3
:102C0000642005F06BFFD8F800300133132BC8F8AF
:102C10000030DEDDB5F89830394A3A48A2FB03129D
:102C20009B1A02EB5303C3F30F131946A5F8983010
:102C300005F04AF91D21344807F0F8FB022133481A
:102C400007F0F4FB2F4805F0EFF800231A460E2199
:102C50003068C8F8003004F02BFB022322212648FC
:102C6000C9F8003007F0E2FBD8F80030132B22DC63
:102C700040F6E44700213068B5F89A9004F06AFB0A
:102C800000210446306804F0EBFAA4B2012107FBEE
:102C900004F4B4FBF0F419484C44A5F89A4007F04A
:102CA000C5FB642005F01AFFD8F800300133132B60
:102CB000C8F80030DEDDB5F89A30114A1148A2FBA1
:102CC00003129B1A02EB5303C3F30F131946A5F823
:102CD0009A3005F0F9F81D210D4807F0A7FB0221F5
:102CE0000A4807F0A3FB0748BDE8F04705F09CB889
:102CF0004CCDFF1F0CCCFF1F3406010078060100ED
:102D000087611886D087FF1F580601001807010049
:102D10007C0601006092FF1F2487FF1F2DE9F84306
:102D2000C04BC14CC14E1B68306D40F2513108227E
:102D30002160E271002B40F06F8108F059FD71694C
:102D4000054608F0A9FDBA49B84F08F0A5FD08F0FE
:102D50008FFF80B203126372B64AB74B12681B68CA
:102D60002072A37228461B121512E3722273B169F6
:102D7000657308F091FDAE49AB4D08F08DFD08F08C
:102D800077FF83B21A122946AC48A373E27304F0AA
:102D9000B1F8AB4AAB4B12681988A172D3B2237257
:102DA00003EB83035B00237302EB820343F3D7132C
:102DB0004FEA212E12124FF008084FF00009294661
:102DC00063739E4884F80BE040F2553362722360CF
:102DD00084F8078084F80E9084F80F9004F08AF845
:102DE00040F256339848236084F80780FEF742F893
:102DF000964908F051FD08F03BFF20729248FEF71B
:102E000039F8924908F048FD08F032FF904A8F499E
:102E1000C0F307236372106808F0F2FD08F002FFA8
:102E200040FA08F3A0728848E372FEF745F880493B
:102E300008F032FD08F0F6FE20738348FEF73CF8F8
:102E40007B4908F029FD08F0EDFE40F307202946F4
:102E500060737A4884F80E9084F80F9004F04AF872
:102E6000022005F03BFE7B4A7B4B117821725178A2
:102E700090786172D178A0721A789878E172597856
:102E800022736173DA78A07340F25A3329466B4893
:102E9000E273236084F8078004F02CF86F4B6748D6
:102EA0001A7822725A7862729A78A272DA78E2728A
:102EB0001A7922735A7962739A79DB79E373294616
:102EC00040F25E33A273236084F8078004F012F8A6
:102ED000022005F003FE624B58481A7822725A7895
:102EE00062729A78A272DA78E2721A7922735A7947
:102EF00062739A79DB79E37329464FF45C7323603C
:102F000084F80780A27303F0F5FF564B1B68012B72
:102F100000F0AE80022005F0E1FDB36D23730225C1
:102F200000221B12284640F273380827637322726E
:102F3000012362729922A273E372E373A572C4F84B
:102F40000080E77105F0CAFD3F48C4F80080E771D2
:102F5000FDF746FF444908F09FFC08F089FE207207
:102F60003948FDF73DFF404908F096FC08F080FE27
:102F7000C0F3072334486372FDF758FF3A4908F05D
:102F80008BFC08F075FEA0722F48FDF74FFF364905
:102F900008F082FC08F06CFEC0F307232A48E372B5
:102FA000FDF7F0FF314908F06FFB08F061FE207378
:102FB0002548FDF7E7FF2D4908F066FB08F058FEAD
:102FC000C0F3072320486373FDF7DAFF274908F0B1
:102FD0005BFB08F04DFEA0731B48FDF7D1FF2349B2
:102FE00008F052FB08F044FE0F49C0F307231348D2
:102FF000E37303F07FFF284605F070FD726DB36D3B
:10300000E57112FB03F3C3F3072140F27932237217
:1030100061722260BDE8F88308F0EAFB316A054678
:103020008FE600BF8892FF1F6492FF1F0CCCFF1F2A
:103030000000204138CDFF1F7892FF1F6CCDFF1F8D
:103040003487FF1F3A87FF1FF893FF1F0000C84215
:10305000F8CBFF1FF4CBFF1F5092FF1F5887FF1FB5
:103060006087FF1FF0CCFF1F00007A443393884332
:103070002648FDF7B5FEF96C08F006FB81462348AB
:10308000FDF7D4FE0146484608F0A4FD00283FF4B1
:1030900041AF40F2C3331D4885F807802B60FDF730
:1030A0009FFEBF6C394608F095FDC8B118493846F7
:1030B00008F0F2FB08F0DCFD80B240FA08F3687219
:1030C0002B72002301270425032212491248A772FC
:1030D000E57222736373A373E37303F00BFF19E7C5
:1030E0000A48FDF77DFE0A4908F0D6FB08F0C0FD4E
:1030F000C0F3072305482B72FDF772FE044908F060
:10310000CBFB08F0B5FD6872DBE700BFF893FF1F4B
:1031100000007A446492FF1F6CCDFF1F38B5164C37
:10312000164A2368101D12F8011F904241EA03233A
:10313000F9D12360124C03F100432360114BDB6F84
:10314000022B11D0104B1B68012B00D038BD0F484B
:1031500004F06AFE21680D4804F0B6FE03210C4815
:10316000BDE8384007F062B920680A4D08F040FB1E
:103170002860FEF785FFE5E73CCDFF1F5BCBFF1F17
:10318000EC92FF1F0CCCFF1F48CDFF1FD087FF1F05
:10319000A806010034CDFF1F30B54B4C4B4883B01F
:1031A000214603F09FFD23683C2B68D0A3F19A02CF
:1031B000C52A0AD903F47F63B3F5B87F444D14D010
:1031C0002B68012B1DD003B030BD424B404D1B6816
:1031D000012B50D000223C493F48FDF7EFFC23680B
:1031E00003F47F63B3F5B87FEAD13A4B1B68012B38
:1031F00049D0002234493848FDF7BEFC2B68012B2A
:10320000E1D1344B1B68012BDDD1344B34481B68B2
:1032100001930A220023019904F016FE22682A4B2A
:10322000002ADB7949DB2F492F4809F0FDFA2E48A7
:1032300009F026FB01462C4807F0F8F82568224BD8
:1032400015F080452AD1DB798BB1631927491A7AA9
:10325000254809F0E9FA244809F012FB0146224802
:1032600007F0E4F80135E379EDB2AB42EDD81C4844
:1032700004F0DAFDA7E72A68012AABD1ABE7FFF734
:103280004DFF236892E72A680F491348A2F1010213
:10329000B2FA82F25209FDF76FFC91E7144D124C1D
:1032A0000FCD0FC495E8030044F8040B204620F826
:1032B0001419152107F0BAF8D9E70E490A4822F087
:1032C000604209F0B1FAB2E754CBFF1F6CCDFF1F8B
:1032D0002887FF1F48CDFF1FF893FF1F30CFFF1F28
:1032E000D087FF1FD406010070CBFF1F000701002D
:1032F000E8060100AC060100A24B1B78052B00F08C
:10330000A1802DE9F04FA04CA04EA14D626EE36D5F
:10331000A048326083B02B60FDF734FEE16A08F00C
:1033200059FC08B100232B609A48FDF729FEA16AD9
:1033300008F06EFC10B1002333602B609548FDF758
:1033400075FDE16808F064FC08B100232B6091482A
:10335000FDF76CFDE16808F05BFC08B100232B6011
:103360008C48894FFDF73CFD216908F033FC0028AB
:103370006ED0002333602B68854F002B53DD8548CA
:10338000DFF80482FDF7FCFD216B08F023FC002828
:1033900040F0C480804B7F481B687B4F012B00F0BE
:1033A000FD80FDF743FDE1698046606908F06AF938
:1033B0000146404608F02CFC002834D0286808F06C
:1033C00017FA82467348FDF731FDD7F8148083461B
:1033D000F969404608F056F98146386E08F008FA57
:1033E0000446F86D08F004FA214608F04BF9494606
:1033F0000746584608F046F90146384608F04CFAA8
:1034000049460746404608F03DF90146384608F06F
:10341000F7FA214608F038F90146504608F032F92B
:1034200008F000FC28603368584A002BAFBF2B68B7
:103430002B6800211160002B01DA00232B6003B000
:10344000BDE8F08F5149524A00230B60136070476A
:103450005048FDF7C5FCB96908F0BCFB002888D1CD
:103460003368DFF82891002B85DD4A48FDF78AFD97
:10347000796B08F0CDFB002840F0B3804548424FFF
:10348000FDF7AEFC216908F0C3FB002800F09F8027
:103490004048DFF8F480FDF7A3FCD4F8BC100746E1
:1034A000A06908F0F1F80146384608F093FB0028BF
:1034B0003FF461AF306808F09BF982463548FDF76C
:1034C0008FFC8346D8F86400D8F8187008F090F99B
:1034D00039468146584608F0D5F8494683460020CB
:1034E00008F0D0F80146584608F0D6F9D8F8BC10D4
:1034F0008346384608F0C8F8394608F0C3F8014654
:10350000584608F07DFA494608F0BEF80146504694
:1035100008F0B8F808F086FB30602CE7386808F04F
:1035200067F983461B48FDF72BFD0190D8F85C0036
:10353000D8F82CA008F05CF9019B8146514618464A
:1035400008F0A0F849460190002008F09BF8019B84
:103550000146184608F0A0F951460190D8F830000D
:1035600008F090F8019B0146184608F049FA4946D0
:1035700008F08AF80146584608F084F808F052FB33
:10358000386007E700CCFF1F0CCCFF1F38CDFF1FB2
:103590007892FF1FF893FF1F8892FF1FFDF746FCEC
:1035A000E1698046206A08F06DF80146404608F05F
:1035B0002FFB00283FF437AF286808F019F982463E
:1035C0001E48FDF733FCD7F82080834600E71B48F0
:1035D000FDF706FCB96908F01BFB00287FF458AF23
:1035E000C9E6D9F8000008F003F982461348FDF750
:1035F000C9FC0190786ED7F8348008F0F9F8019B87
:1036000083464146184608F03DF80146584608F002
:1036100043F941468346B86A08F034F801465846F3
:1036200008F0EEF9002108F02FF80146504608F0A6
:1036300029F808F0F7FAC9F800001FE7F893FF1F10
:1036400008B5274804F0F0FB0721264806F0EEFEF7
:10365000112005F00DFA0621F8B1234806F0E6FE28
:10366000102005F005FA062100B3204806F0DEFE22
:10367000122005F0FDF9062108B31D4806F0D6FE1C
:10368000132005F0F5F9062110BB1A4806F0CEFE0E
:103690001348BDE8084004F0C7BB174806F0C6FE53
:1036A000102005F0E5F906210028DED1134806F0C8
:1036B000BDFE122005F0DCF906210028DDD11048FE
:1036C00006F0B4FE132005F0D3F906210028DCD063
:1036D0000C4806F0ABFE0248BDE8084004F0A4BB6D
:1036E000D087FF1F0C070100140701002407010009
:1036F000340701004C0701001C0701002C070100E2
:103700003C0701004407010010B5254C2368042B39
:1037100027DC01210B2005F0A5F901210C2005F083
:10372000A1F90121142005F09DF90121152005F0D2
:1037300099F9FF21162005F015F8FF21172005F053
:1037400011F8FF21052005F00DF8FF21062005F0F6
:1037500009F8236801330A2B2360C4BF00232360C8
:1037600010BD00210B2005F07DF900210C2005F093
:1037700079F90021142005F075F90021152005F0D4
:1037800071F90021162004F0EDFF0021172004F04C
:10379000E9FF0021052004F0E5FF0021D6E700BF86
:1037A0005492FF1F30B5092183B0AC4805F076FC78
:1037B000222005F01BFCAA4BD3F8A030012BA94B0B
:1037C0001B7809D0052B10D8DFE813F02A012F0150
:1037D00039013E0134010B00002B00F03A81052B2A
:1037E00003D10721A04805F059FC222005F0FEFB7B
:1037F000FF2005F0FBFBFF2005F0F8FB9B4CFF20B2
:1038000005F0F4FB08219A4805F048FC2168994826
:1038100004F05AFBFF2005F0E9FBFF2005F0E6FB72
:10382000FF2005F0E3FB0921934805F037FC2168F0
:10383000904804F049FBFF2005F0D8FBFF2005F07D
:10384000D5FBFF2005F0D2FB0C218C4805F026FCAF
:103850008B4B8C49186808F0D3F807F073FB0024F1
:1038600002460B460094834804F036FBFF2005F027
:10387000BDFBFF2005F0BAFBFF2005F0B7FB0921D7
:10388000814805F00BFC8148FDF716FB07F05AFB59
:10389000009402460B46774804F01EFBFF2005F01B
:1038A000A5FBFF2005F0A2FBFF2005F09FFB0C21EC
:1038B000774805F0F3FB7548FDF764FB07F042FB22
:1038C000009402460B466B4804F006FBFF2005F00F
:1038D0008DFBFF2005F08AFBFF2005F087FB0D2103
:1038E0006C4805F0DBFB6948FDF74AFB07F02AFB53
:1038F000009402460B465F4804F0EEFAFF2005F004
:1039000075FBFF2005F072FBFF2005F06FFB09211E
:10391000614805F0C3FB5D48FDF7ACFA07F012FB08
:10392000009402460B46534804F0D6FAFF2005F0F7
:103930005DFBFF2005F05AFBFF2005F057FB0C2133
:10394000564805F0ABFB5148FDF74AFA544907F0D9
:10395000A3FF07F0F7FA009402460B46454804F02F
:10396000BBFAFF2005F042FBFF2005F03FFBFF20E4
:1039700005F03CFB0D214B4805F090FB4348FDF75B
:1039800055FA474907F088FF07F0DCFA0094024631
:103990000B46384804F0A0FAFF2005F027FBFF2073
:1039A00005F024FBFF2005F021FB09213E4805F02E
:1039B00075FB3E4B2F48196804F086FAFF2005F08E
:1039C00015FBFF2005F012FBFF2005F00FFB0E2179
:1039D000374805F063FB2D48FDF728FA05462B48CC
:1039E000FDF7FEF90146284607F04CFE2C4907F08A
:1039F00053FF07F0A7FA009402460B461D4804F057
:103A00006BFAFF2005F0F2FAFF2005F0EFFAFF2035
:103A100005F0ECFAFF2003B0BDE8304005F0E6BA4F
:103A20000621244805F03AFBDFE60721224805F08D
:103A300035FBDAE60B21214805F030FBD5E60721FE
:103A40001F4805F02BFBD0E608211E4805F026FB99
:103A5000CBE608211C4805F021FBC6E6540701000F
:103A60000CCCFF1F00CCFF1F400501003487FF1F57
:103A70006C070100B487FF1F78070100840701006D
:103A8000F8CBFF1F0000C84294070100F893FF1F06
:103A9000A0070100B0070100C0070100CC0701002A
:103AA00000007A44DC070100EC0701004887FF1F93
:103AB000F8070100100501001805010020050100AC
:103AC0002C05010034050100600701002DE9F041DB
:103AD0008D4DD5F8B030042B3ED0032B6ED0012B8A
:103AE00000F09880022B01D0BDE8F081874C884817
:103AF000237240F20E32012321462260E37103F06B
:103B0000F9F9844B1B685B00FF2BC8BFFF2304211E
:103B100040224FF441702060E17122726372286D7F
:103B200007F066FE696907F0B7FE7B49054608F0B5
:103B30006FF8002800F0DE802946284607F0A4FD33
:103B400008F096F880B20312E072A3726F497048D1
:103B5000BDE8F04103F0CEB96C4C704AA379226005
:103B600043F001030822E271A371286D07F040FEC3
:103B7000696907F091FE6A4907F08EFE08F078F84F
:103B8000644B684A1B68126893FBF2F380B200260C
:103B90001A120712607221465D48E372A272277200
:103BA00026736673A673E67303F0A4F9A279D5F8B9
:103BB000B03066F30002032BA27190D1534C286DF4
:103BC000A3720122E823072140F2FF2622726372CA
:103BD0002660E17107F00CFE696907F05DFE50494F
:103BE00007F05AFE08F044F84A4B4E4A1B68126828
:103BF00093FBF2F382B21E121712214644486373FC
:103C0000E2722773A67303F075F9D5F8B030012B73
:103C10007FF468AF444B3D4C1B6823600722802330
:103C20001020E271237204F023FF002869D13F4B7A
:103C30001B68DFF8E0803B4F286D344E03EB8303B5
:103C40005B001A12A3726272D8F800303A6893FBD4
:103C5000F2F31A126273A37307F0CAFD696907F0E1
:103C60001BFE334B196807F00DFD2D4907F014FEBC
:103C700007F0FEFF80B20312314620732448E3723E
:103C800003F038F9022004F029FF2A4B1B68236057
:103C9000072280231020E271237204F0E9FE70BB3A
:103CA000224B1B68286D03EB83035B001A127272B0
:103CB000B37207F09DFD696907F0EEFD1E4B1968B0
:103CC00007F0E0FC164907F0E7FD07F0D1FF82B2EC
:103CD00016123868D8F80030227393FBF0F30B49C2
:103CE0000B48A3731A12E672627303F003F9D5F856
:103CF000B030F7E601229023A272E37226E70F4B61
:103D0000CFE70E4B94E700BF0CCCFF1F6492FF1F60
:103D10006CCDFF1F7892FF1F00004843F4E50618A2
:103D2000000020413087FF1F6887FF1F2C87FF1F7F
:103D30007492FF1F6C87FF1F28CDFF1F4087FF1F56
:103D400070B50368C57984B0012D8DF805304FEA50
:103D500013230E468DF8043005F1010201A909DD97
:103D600007300D440DF1050310F8014F03F8014F22
:103D7000AB42F9D1034B04489B5D02F085FB04B0D4
:103D800070BD00BF38120100F892FF1FF0B40D4B58
:103D90000D489C790822FF27CD26A225DA71002242
:103DA000B0216FF300041F729E72DD725A721A7393
:103DB0005A739A73DA7319609C711946F0BC03F058
:103DC00099B800BF6492FF1F6CCDFF1F2DE9F04131
:103DD0003C4E3D4D33780F2B04BF002333702B78BE
:103DE000082B44D0394F43F08003394A394C1268CC
:103DF0002360012A4FF00803E37144D068221023A6
:103E0000227263723B78334A0021022BA17233780D
:103E100009D84FEA0313D17211735173DBB209D180
:103E20000433937307E051731B0150200821DBB268
:103E3000D0721173A37329782648FFF781FFE073CE
:103E4000022004F04BFE2349234803F053F8327854
:103E50002B7822480132013332702B70FCF74CFE74
:103E600008B9BDE8F081BDE8F041FFF78FBF174FFB
:103E70003B78032B98BF01334FF0000298BF3B7093
:103E80002A708023B1E7DFF85C801448FCF7A8FFB4
:103E9000D8F84C1007F0F8FB114907F0FDFC07F0CB
:103EA000E7FE20720D48FCF79BFFD8F84C1007F096
:103EB000EBFB0B4907F0F0FC07F0DAFEC0F307203C
:103EC00060729FE72CCDFF1F44CDFF1F50CDFF1F19
:103ED000F0CCFF1F6492FF1F6CCDFF1FF893FF1FF4
:103EE00000007A440CCCFF1FF0B5B14CB14D83B04B
:103EF00006F036FA23682860042B00F0D782022BE4
:103F000056D0082B46D0072B40F07A81332801F099
:103F1000348400F3DB80312801F04284322842D11E
:103F200006F05AFA002840F36981A348A34E04F032
:103F30000DF907F05DFCA24907F0AEFC61230122F8
:103F4000F06322602B601846A0F152031F2B2AD881
:103F5000DFE813F09F0B2900290029002900290020
:103F60002900290029002900290029002900290009
:103F70002900FC03210D76050C06E2042900290026
:103F8000290071042900240D290029002900290095
:103F900029008F0B322800F0A783712800F09C8045
:103FA000312800F0BC83732800F09A8003B0F0BD84
:103FB000A0F13103422BF6D801A252F823F000BF42
:103FC000D14D0000E94D0000054E00001F4E0000DD
:103FD000454E0000C54E0000A73F0000A73F00006F
:103FE000A73F0000A73F0000A73F0000A73F000039
:103FF000A73F0000A73F0000A73F0000A73F000029
:10400000A73F0000A73F0000A73F0000A73F000018
:10401000A73F0000A73F0000A73F0000A73F000008
:10402000A73F0000A73F0000A73F0000A73F0000F8
:10403000A73F0000A73F0000A73F0000A73F0000E8
:10404000A73F0000A73F0000A73F0000A73F0000D8
:10405000A73F0000A73F0000A73F0000A73F0000C8
:10406000A73F0000A73F0000A73F0000A73F0000B8
:10407000A73F0000A73F0000A73F0000A73F0000A8
:10408000A73F0000A73F0000DF4E0000A73F000051
:10409000A73F0000A73F0000A73F0000A73F000088
:1040A000A73F0000A73F0000A73F0000A73F000078
:1040B000A73F0000A73F0000A73F0000A73F000068
:1040C000D9400000A73F0000B74D0000342801F0A0
:1040D0007D8371287FF467AF0022732322602B60F9
:1040E0002368002B7FF462AF364E334803F09CFE0A
:1040F0000421354806F09AF92F4803F095FE102167
:10410000324806F093F92C4803F08EFE1321304814
:1041100006F08CF92F4B2848196803F0D5FE264885
:1041200003F082FE14212C4806F080F9224803F0A7
:104130007BFE1E21294806F079F91F4803F074FE22
:104140001521274806F072F91B4803F06DFE1E2169
:10415000244806F06BF9184803F066FE2021224837
:1041600006F064F9144803F05FFE19211F4806F0B9
:104170005DF9114803F058FE12211D4806F056F96A
:104180000D4803F051FE0F211A4806F04FF90A4876
:1041900003F04AFE0D21184806F048F9064803F0DE
:1041A00043FE002201233260236003B0F0BD00BF54
:1041B00054CDFF1F50CBFF1FD087FF1F0CCCFF1F1C
:1041C0006F12833A2887FF1F480B0100500B010034
:1041D000640B01004887FF1F780B0100900B010062
:1041E000B00B0100C80B0100E80B01000C0C010032
:1041F000280C01003C0C01004C0C010023682868CD
:10420000062B40F08D80A0F13103402B3FF6CBAE62
:1042100001A252F823F000BF8B4D0000394D000081
:10422000654D0000BD4C0000E34C0000014D000056
:10423000254D0000A73F0000A73F0000A73F00005A
:10424000A73F0000A73F0000A73F0000A73F0000D6
:10425000A73F0000A73F0000A73F0000A73F0000C6
:10426000A73F0000A73F0000A73F0000A73F0000B6
:10427000A73F0000A73F0000A73F0000A73F0000A6
:10428000A73F0000A73F0000A73F0000A73F000096
:10429000A73F0000A73F0000A73F0000A73F000086
:1042A000A73F0000A73F0000A73F0000A73F000076
:1042B000A73F0000A73F0000A73F0000A73F000066
:1042C000A73F0000A73F0000A73F0000A73F000056
:1042D000A73F0000A73F0000A73F0000A73F000046
:1042E000A73F0000A73F0000A73F0000A73F000036
:1042F000A73F0000A73F0000A73F0000A73F000026
:10430000A73F0000A73F0000A73F0000A73F000015
:10431000A73F0000A73F0000D9400000236828689D
:10432000052B15D1332801F08A8240F34B813528C3
:1043300001F06F82C1F2948271287FF434AEDE49BD
:10434000002373220B6023602A60C9E62368286873
:10435000032B40F0A480A0F13003422B3FF623AEA4
:1043600001A252F823F000BF75440000E954000098
:1043700011550000395500005B550000B95500008B
:10438000E155000009560000275600004B5600007A
:10439000A73F0000A73F0000A73F0000A73F000085
:1043A000A73F0000A73F0000A73F0000A73F000075
:1043B000A73F0000A73F0000A73F0000A73F000065
:1043C000A73F0000A73F0000A73F0000A73F000055
:1043D000A73F0000A73F0000A73F0000A73F000045
:1043E000A73F0000A73F0000A73F0000A73F000035
:1043F000A73F0000A73F0000A73F0000A73F000025
:10440000A73F0000A73F0000A73F0000A73F000014
:10441000A73F0000A73F0000A73F0000A73F000004
:10442000A73F0000A73F0000A73F0000AD540000D9
:10443000DF4F0000CB5400007D5500009B5500006D
:1044400037540000954F0000B94F0000A73F00000F
:10445000A73F0000A73F0000A73F0000A73F0000C4
:10446000A73F0000A73F0000A73F0000D940000081
:104470008D54000005F0B0FF002841F377818F488C
:104480008F4E03F063FE01270346014662228D48EA
:10449000736527602A60FCF7EFFC23682868012B0E
:1044A0003FF452AD73287FF481AD19E6A0F13103DA
:1044B000412B3FF678AD01A252F823F08D4F00005A
:1044C0001B4F0000334F0000534F0000574F0000B8
:1044D000734F0000854F0000894F0000EB4E000035
:1044E000A73F0000A73F0000A73F0000A73F000034
:1044F000A73F0000A73F0000A73F0000A73F000024
:10450000A73F0000A73F0000A73F0000A73F000013
:10451000A73F0000A73F0000A73F0000A73F000003
:10452000A73F0000A73F0000A73F0000A73F0000F3
:10453000A73F0000A73F0000A73F0000A73F0000E3
:10454000A73F0000A73F0000A73F0000A73F0000D3
:10455000A73F0000A73F0000A73F0000A73F0000C3
:10456000A73F0000A73F0000A73F0000A73F0000B3
:10457000A73F0000A73F0000A73F0000A73F0000A3
:10458000914F0000A73F0000A73F0000A73F000099
:10459000A73F0000A73F0000A73F0000A73F000083
:1045A000A73F0000A73F0000A73F0000A73F000073
:1045B000A73F0000A73F0000A73F0000D940000030
:1045C000114F0000312801F0138132287FF4EBAC49
:1045D00005F002FF00287FF7B9AE3848384E03F0E7
:1045E000B5FD01226B23C6F88C0022602B6001E030
:1045F00005F0B6FE05F0F0FE0028F9D12F4803F0D3
:1046000013FC2E4803F010FC2C4803F00DFC2B4843
:1046100003F00AFC294803F007FC21212A4805F091
:1046200005FF264803F000FC1521284805F0FEFE92
:10463000D6F88410214803F047FC0221244805F0F5
:10464000F5FE1E4803F0F0FB1E21224805F0EEFEA9
:10465000D6F88C10194803F037FC03211E4805F0EA
:10466000E5FE164803F0E0FB1E211C4805F0DEFEC7
:10467000D6F88810114803F027FC104803F0D4FB4B
:104680001D21174805F0D2FED6F8A4100B4803F000
:104690001BFC0A4803F0C8FB1E21124805F0C6FEA9
:1046A000D6F8A810054803F00FFC044803F0BCFB43
:1046B000052323607AE400BF7C92FF1FD087FF1F91
:1046C0000CCCFF1FF893FF1F8C0A0100B00A0100F9
:1046D0009C090100C80A0100BC050100E80A0100AC
:1046E000080B0100280B010005F076FE002840F3BE
:1046F000DD827748774E03F029FD07F079F8764997
:1047000007F0CAF896F840100346024673487364EF
:10471000FCF7B4FB012369202360286014E405F052
:104720005BFE002840F3C68269486A4E03F00EFD26
:10473000C0B286F8400002288ABF0021014686F8F0
:104740004010726C6548E3E705F00AFE05F044FE90
:1047500005460028F8D15E485E4E03F065FB5C48D4
:1047600003F062FB5A4803F05FFB594803F05CFB1F
:10477000574803F059FB1F21594805F057FE54488C
:1047800003F052FB1C21574805F050FE706A564951
:1047900007F082F806F0D6FB009502460B464C481F
:1047A00003F09AFB0221514805F040FE484803F00F
:1047B0003BFB23214E4805F039FEF06B4A4907F0D8
:1047C0006BF806F0BFFB009502460B46404803F02D
:1047D00083FB0221454805F029FE3D4803F024FBF8
:1047E0001921444805F022FEB06B06F0ABFB022510
:1047F0000B4602460095364803F06EFB29463E48BC
:1048000005F014FE324803F00FFB19213B4805F078
:104810000DFEB6F8B8102E4803F056FB03213848B9
:1048200005F004FE2A4803F0FFFA07232360FFF790
:10483000BDBB05F095FD05F0CFFD05460028F8D17C
:104840002348244E03F0F0FA214803F0EDFA204803
:1048500003F0EAFA1E4803F0E7FA1D4803F0E4FA11
:104860001521284805F0E2FD194803F0DDFA18216A
:10487000254805F0DBFD2B460A2296F84010144827
:1048800003F0E2FA124803F0CFFA28211F4805F09E
:10489000CDFD706C144906F0FFFF06F053FB009548
:1048A0000B4602460A4803F017FB02210F4805F0A9
:1048B000BDFD074803F0B8FA1321154805F0B6FD11
:1048C000034803F0B1FA08232360FFF76FBB00BF72
:1048D000D087FF1F0CCCFF1F6F12833AF893FF1F86
:1048E000E8090100080A010000007A447408010088
:1048F000280A01004C0A0100680A01006C0A010044
:10490000880A0100100C01002C0801004808010071
:104910007808010005F024FD05F05EFD054600283D
:10492000F8D17D487D4E03F07FFA7B4803F07CFA96
:10493000794803F079FA784803F076FA764803F07C
:1049400073FA1121764805F071FD734803F06CFA93
:104950002821744805F06AFD7069734906F09CFFD0
:1049600006F0F0FA009502460B466B4803F0B4FAE5
:1049700002216E4805F05AFD674803F055FA1621EA
:104980006B4805F053FDF069674906F085FF06F0B6
:10499000D9FA00950B4602465F4803F09DFA0221C2
:1049A000624805F043FD5C4803F03EFAD6F8B030AB
:1049B000002B32DD1D215F4805F038FDF06D06F05B
:1049C00017FF5D4906F068FF06F0BCFA02250246B3
:1049D0000B460095504803F07FFA0121574805F037
:1049E00025FD4D4803F020FA1F21554805F01EFD16
:1049F000306E06F0FDFE504906F04EFF06F0A2FABA
:104A0000009502460B46444803F066FA01214B48E4
:104A100005F00CFD404803F007FA1121494805F064
:104A200005FDD6F8B030052B00F25086DFE813F014
:104A30008A0685064A06990694068F0605F090FCBC
:104A400005F0CAFC0028F9D13348344E03F0ECF9E4
:104A5000314803F0E9F9304803F0E6F92E4803F055
:104A6000E3F92D4803F0E0F91F21374805F0DEFC9B
:104A7000294803F0D9F91E21344805F0D7FC26480F
:104A800003F0D2F91A21324805F0D0FCF36F022B63
:104A900000F04387032B00F03787012B00F02B87B2
:104AA00009212C4805F0C2FC1B4803F0BDF9142174
:104AB00029481A4F05F0BAFCB16F174803F004FA01
:104AC000154803F0B1F91C21244805F0AFFCD6F8D5
:104AD0008010114803F0F8F90F4803F0A5F91C21E4
:104AE0001F4805F0A3FCD6F8AC100B4803F0ECF916
:104AF000094803F099F9F56F25F00205012D00F042
:104B0000CA861321174805F091FC034803F08CF97D
:104B100002232360FFF74ABAD087FF1F0CCCFF1F88
:104B2000B40B01008C08010000007A4474080100F5
:104B3000B8080100D0080100CDCCCC3D980E010092
:104B4000F008010010090100580D0100780D010066
:104B5000980D0100100E01001C0E0100340E010022
:104B6000540E01007808010005F0FAFB05F034FC52
:104B70000028F9D1BB4803F057F9BA4803F054F9BB
:104B8000B84803F051F9B74803F04EF9B54803F0BF
:104B90004BF91321B44805F049FCB24803F044F93D
:104BA0000D21B24805F042FCAE4803F03DF90F215B
:104BB000AF4805F03BFCAF4BAA48196803F084F9F5
:104BC000A84803F031F91321AB4805F02FFCAB4B9B
:104BD000A448196803F078F9A24803F025F91221D6
:104BE000A74805F023FCA74B9E48196803F06CF911
:104BF0009C4803F019F91121A34805F017FCA34BB9
:104C00009848196803F060F9964803F00DF90E21F1
:104C10009F4805F00BFC9F4B9248D3F8A01003F07F
:104C200053F9904803F000F919219B4805F0FEFB69
:104C30009A4B8C48196803F047F98A4803F0F4F856
:104C40001121974805F0F2FB964B8648196803F04E
:104C50003BF9844803F0E8F81021934805F0E6FB9F
:104C6000924B8048196803F02FF97E4803F0DCF876
:104C70001C218F4805F0DAFB8E4B7A48196803F047
:104C800023F9784803F0D0F817218B4805F0CEFBC4
:104C9000744803F0C9F81321884805F0C7FB714830
:104CA00003F0C2F804232360FFF780B92368286863
:104CB000FFF729B9774E96F840003CE505F08CFBEC
:104CC00000287FF72BAB6748724E03F03FFA00EBEA
:104CD0008000430001226520336622602860FFF7D0
:104CE00033B96C4AD2F8B0300133052BC8BF00236A
:104CF000C2F8B0300123652023602860FFF724B993
:104D000005F06AFB00287FF709AB5648614E03F0B7
:104D10001DFA65230122C6F8B40022602B601846F4
:104D2000FFF712B95B4B93F8C020002A00F0A6856C
:104D3000002283F8C020DDE705F04EFB00287FF756
:104D4000EDAA4848534E03F001FA06F051FD5C49C4
:104D500006F056FE65230122F06122602B601846A2
:104D6000FFF7F2B805F038FB00287FF7D7AA3D48D7
:104D7000484E03F0EBF900EB800043000122652070
:104D8000F36522602860FFF7DFB805F025FB0028F7
:104D90007FF7C4AA33483F4E03F0D8F906F028FD48
:104DA000474906F02DFE65230122706122602B60C9
:104DB0001846FFF7C9B8374AD36F0133032BC8BF72
:104DC0000023D3670123632023602860FFF7BCB86A
:104DD000304EB36FB3FA83F35B0901226320B367EC
:104DE00022602860FFF7B0B82A4ED6F88030B3FAB8
:104DF00083F35B0901226320C6F8803022602860BB
:104E0000FFF7A2B80123236005F0E6FA0028D9DDF8
:104E10001448204E03F09AF9C6F8AC00D2E70123FB
:104E2000236005F0D9FA002807DD0E48194E03F07B
:104E30008DF906F0DDFCC6F8940063202860236835
:104E4000FFF761B80123236005F0C6FA0028F4DDFE
:104E50000448104E03F07AF906F0CAFCC6F8900038
:104E6000EBE700BFD087FF1F5C0C0100700C010056
:104E7000800C010048CDFF1F900C0100F0CBFF1FFC
:104E8000A40C01001CCDFF1FB80C010004CCFF1FB7
:104E9000CC0C01000CCCFF1FDC0C01005C92FF1F4E
:104EA000F80C01007C92FF1F0C0D01004C92FF1FBB
:104EB000200D01004487FF1F400D0100780801000C
:104EC00000007A440123236005F086FA0028B4DD4F
:104ED0004A484B4E03F03AF9A6F8BA00ADE7FDF7A1
:104EE0005BFE23682868FFF70CB80123236005F0F8
:104EF00073FA002800F3C784424B1A68042A01DDC4
:104F000002221A6064232B6023686420FEF7F9BF35
:104F100001232360FEF73AFFF4E73B4A1368B3FA34
:104F200083F35B0901216420136021602860FFF78F
:104F30000BB8364A364F1368002B0CBF01210021F5
:104F40004FF001031160236040F0F08464222A6076
:104F5000DBE7304AE2E72A4ED6F8A030B3FA83F313
:104F60005B0901226420C6F8A03022602860FEF7A9
:104F7000EBBF012328482360FBF7D8FD274A2368AD
:104F80001060E3E7264AC9E7264AC7E7264AC5E78D
:104F9000264AC3E705F020FA00280DDD1748184E11
:104FA00003F0D4F806F024FC214906F029FD012283
:104FB0006223306222602B6005F00EFA00280EDDBD
:104FC0000E480F4E03F0C2F806F012FC184906F026
:104FD00017FD01226223C6F8BC0022602B6005F099
:104FE000FBF9002840F3C2830448054E03F0AEF8F5
:104FF00001226223B06622602B601DE0D087FF1F74
:105000000CCCFF1F4487FF1FF0CBFF1F1CCDFF1FE1
:1050100054CDFF1F04CCFF1FF893FF1F5C92FF1FAE
:105020007C92FF1F4C92FF1F48CDFF1FD4CCFF1F67
:1050300000007A4405F094F905F0CEF90546002801
:10504000F8D1C24802F0F0FEC04802F0EDFEBF48C1
:1050500002F0EAFEBD4802F0E7FEBC4802F0E4FEC2
:105060001521BB4805F0E2F9B84802F0DDFE142135
:10507000B84805F0DBF9B54802F0D6FE1B21B6486A
:1050800005F0D4F9B14802F0CFFE1321B34805F082
:10509000CDF9AE4802F0C8FEAC4802F0C5FEAB4800
:1050A00002F0C2FE2021AE4805F0C0F9F068AD491B
:1050B00006F0F2FB05F046FF009502460B46A348BA
:1050C00002F00AFF0221A84805F0B0F90221A74822
:1050D00005F0ACF99D4802F0A7FE2121A44805F097
:1050E000A5F930699F4906F0D7FB05F02BFF009525
:1050F00002460B46954802F0EFFE02219A4805F061
:1051000095F90221994805F091F9904802F08CFE3A
:105110001F21984805F08AF9B06A05F013FF0227AD
:1051200002460B460097894802F0D6FE01219248BC
:1051300005F07CF939468D4805F078F9834802F08E
:1051400073FE20218D4805F071F9F06A05F0FAFE32
:10515000009702460B467D4802F0BEFE01218648BC
:1051600005F064F93946814805F060F9774802F0A6
:105170005BFE2321824805F059F9B06C794906F0AD
:105180008BFB05F0DFFE009502460B466F4802F0F0
:10519000A3FE3946744805F049F93946734805F0CD
:1051A00045F96A4802F040FE1F21764805F03EF9B5
:1051B000F06C6C4906F070FB05F0C4FE00950246E9
:1051C0000B46624802F088FE3946674805F02EF922
:1051D0003946664805F02AF95C4802F025FE192197
:1051E000694805F023F9B16D584802F06DFE394663
:1051F000664805F01BF939465C4805F017F9534835
:1052000002F012FE1821624805F010F9706E06F0E7
:10521000EFFA604906F040FB05F094FE0097024665
:105220000B464A4802F058FE01215B4805F0FEF8A3
:1052300039464E4805F0FAF8444802F0F5FD2B21B6
:10524000564805F0F3F8B069464906F025FB05F02D
:1052500079FE009502460B463C4802F03DFE394679
:10526000414805F0E3F83946404805F0DFF8374893
:1052700002F0DAFD1F214A4805F0D8F8716D334875
:1052800002F022FE3946394805F0D0F82F4802F0E6
:10529000CBFD2021434805F0C9F8316D2B4802F0C1
:1052A00013FE3946314805F0C1F8284802F0BCFD2C
:1052B00010213D4805F0BAF8B16E244802F004FE12
:1052C0003946294805F0B2F83946284805F0AEF8C5
:1052D0001E4802F0A9FD1321344805F0A7F8F16E2D
:1052E0001A4802F0F1FD0121314805F09FF83946D6
:1052F0001E4805F09BF8154802F096FD10212D4838
:1053000005F094F8316F114802F0DEFD3946164879
:1053100005F08CF83946154805F088F80B4802F07E
:1053200083FD1421244805F081F8716F074802F0CD
:10533000CBFD01211E4805F079F839460B4805F0F0
:1053400075F8024802F070FD162137E0D087FF1F84
:10535000E00E0100F80E0100100F010078080100B6
:105360002C0F010000007A447408010018070100A6
:10537000500F0100740F0100940F0100980F0100FD
:10538000BC0F0100E00F0100001001001C10010023
:1053900020100100CDCCCC3D980E01003C10010046
:1053A0006810010088100100AC100100C01001005D
:1053B000D4100100D8100100EC100100B64805F02F
:1053C00035F8306AB54906F067FA05F0BBFD00957F
:1053D00002460B46B24802F07FFD3946B14805F05F
:1053E00025F83946B04805F021F8AD4802F01CFD1B
:1053F0002421AE4805F01AF8D6F8BC00A74906F0FB
:105400004BFA05F09FFD00950B460246A44802F0BA
:1054100063FD3946A34805F009F83946A24805F06E
:1054200005F89F4802F000FD9D4802F0FDFC0323B3
:105430002360FEF7BBBDFCF759F802219A489C4E49
:1054400004F0F4FF964802F0EFFC0221964804F0C5
:10545000EDFF934802F0E8FC0221934804F0E6FFD8
:105460008F4802F0E1FC1721924804F0DFFF8C48DE
:1054700002F0DAFC02218C4804F0D8FF884802F0E0
:10548000D3FC0122622322602B60D5E58A4B86483B
:10549000874E002202211A6004F0C8FF804802F003
:1054A000C3FC0B21854804F0C1FFE3E704F094FF3F
:1054B000002840F35B817A487D4E02F047FE0122CE
:1054C0006223306522602B60B6E504F085FF00287A
:1054D00040F34C817248764E02F038FE012262237E
:1054E000F06622602B60A7E504F076FF002840F309
:1054F0003D816B486E4E02F029FE06F079F967494E
:1055000006F07EFA01226223F06022602B6093E5B0
:1055100004F062FF002840F329816148644E02F0E4
:1055200015FE06F065F95D4906F06AFA012262236C
:10553000306122602B607FE504F04EFF002840F3CD
:10554000158157485A4E02F001FE06F051F901222A
:105550006223B06222602B606EE504F03DFF0028FC
:1055600040F304814E48524E02F0F0FD06F040F93F
:1055700001226223F06222602B605DE504F02CFFC3
:10558000002840F3F3804648494E02F0DFFD012237
:105590006223306722602B604EE504F01DFF002877
:1055A00040F3E4803E48424E02F0D0FD01226223E7
:1055B000706722602B603FE504F00EFF002840F387
:1055C000D58037483A4E02F0C1FD06F011F9334953
:1055D00006F016FA01226223B06422602B602BE5EC
:1055E00004F0FAFE002840F3C1802D48304E02F04E
:1055F000ADFD06F0FDF8294906F002FA012262230A
:10560000F06422602B6017E504F0E6FE002840F30A
:10561000AD802348264E02F099FD01226223B06539
:1056200022602B6008E504F0D7FE002840F39E803E
:105630001B481F4E02F08AFD00EB80004300012151
:105640006222736621602A60F6E404F0C5FE002839
:1056500040F38C801248164E02F078FD06F0C8F830
:105660000E4906F0CDF901226223B06122602B6061
:10567000E2E4C42200210E48114E02F05BFE2B68CA
:1056800001210022732B316022607EF48FACFEF783
:105690002CBD04F033F800BF0411010000007A446F
:1056A000D087FF1F74080100180701001C110100BA
:1056B0000CCCFF1F08080100E4CCFF1F20080100EC
:1056C0002887FF1F0C21B74804F0B0FEB648B74D3D
:1056D00002F0AAFBD6F8B030002B12DD1821B44836
:1056E00004F0A4FED5F8B410AF4802F0EDFB02219F
:1056F000B04804F09BFEAC4802F096FBAA4802F0CA
:1057000093FB1B21AC4804F091FE96F8C030012BAE
:1057100015BF12211421A948A94804F087FEA24808
:1057200002F082FB1321A74804F080FE9E4802F09D
:105730007BFB06232360FEF739BC0C21A24804F052
:1057400075FEC3E70D21A14804F070FEBEE70B21F2
:105750009F4804F06BFEB9E70D219E4804F066FEF9
:10576000B4E70D219C4804F061FEAFE72368286888
:10577000012B7EF497AEFEF7E7BB04F02DFE002868
:105780007EF73CAD8848894E02F0E0FC06F030F828
:1057900061230122B06322602B601846FEF7D4BB60
:1057A00004F01AFE00287EF729AD7F487F4E02F0F4
:1057B000CDFC06F01DF8894906F06EF86123012240
:1057C000706222602B601846FEF7BEBB04F004FE38
:1057D00000287EF713AD7448744E02F0B7FC6123C5
:1057E0000122A6F8B80022602B601846FEF7ACBB79
:1057F00004F0F2FD00287EF7A9AD6B486B4E02F075
:10580000A5FC01226B23C6F8840022602B60FEF702
:10581000F1BE04F0E1FD00287EF798AD6248634ECA
:1058200002F094FC6E4BC6F8A80003221A60FCF745
:10583000BDF901226B2322602B60FEF7DBBE04F072
:10584000CBFD00287EF782AD5748584E02F07EFC13
:1058500001226B23C6F8880022602B60FEF7CABEC7
:1058600004F0BAFD00287EF771AD4F484F4E02F0AC
:105870006DFC5B4BC6F8A4000222D7E7012283F837
:10588000C020FFF737BA484802F060FC554B02468B
:105890001860FFF733BB1C21534804F0C7FDD7F84D
:1058A0009400524905F0F8FF05F04CFB00950246C4
:1058B0000B463D4802F010FB05214D4804F0B6FDB3
:1058C000394802F0B1FAFD6F012D45D0032D7FF468
:1058D00018A91C21474804F0A9FDB6F8BA103248AF
:1058E00002F0F2FA0321444804F0A0FD2E4802F031
:1058F0009BFAFFF706B91E21404804F097FD2A489D
:1059000002F092FAFFF7D3B820213D4804F08EFD53
:10591000254802F089FAFFF7CAB81721394804F080
:1059200085FD214802F080FAFFF7C1B8364B00260A
:1059300031460B201E6003F095F831460C2003F031
:1059400091F83146142003F08DF83146152003F00C
:1059500089F83B68FFF7FABA1D212C4804F066FD70
:10596000D7F89000214905F097FF05F0EBFA009574
:105970000B4602460C4802F0AFFA05211C4804F021
:1059800055FD094802F050FAFB6F23F00203012B8A
:105990009FD0FFF7B6B8054EFFF74EBB034EFEF79C
:1059A00029BE00BF44090100D087FF1F0CCCFF1F98
:1059B000800901009C090100A0090100BC09010047
:1059C000D009010078080100340901002409010010
:1059D0007409010064090100540901006F12833A3F
:1059E0007C92FF1F4487FF1F740E0100CDCCCC3D7D
:1059F000940E0100BC0E0100DC0E0100B40D01008C
:105A0000D40D0100F80D0100F492FF1F9C0E01005F
:105A10002DE9F04F97B001E0FDF7BEFB784801F0AB
:105A20002BF90028F8D104F0D7FC002801DDFEF79F
:105A30005BFA744E744D3368012B13D0FCF7C4FF2E
:105A4000D5F8A040012C00F0FF80704F3B78052B6B
:105A500000F29381DFE813F01F02B2019301F80115
:105A6000E90176016A4C23686A4A0A936A490A9BEB
:105A700010680988664F1B1A8B4200F2B2802368B7
:105A8000664A0C930C9B1168614F5B1AB3F5FA7F61
:105A90003CD82368624E1293129B316841F28832DF
:105AA0005B1A93421CD823685E4A1493149B1068B7
:105AB000D5F8B410544C564D1B1A8B420DD92B6897
:105AC0001593D4F8A03015991160012B00F01282C3
:105AD0004E4B1B78032B00F00D8217B0BDE8F08F02
