:1000000000800020BD010000CD810000858100003E
:1000100085810000858100008581000085810000C8
:10002000858100008581000085810000CD81000070
:10003000CD8100008581000001A1000005A2000023
:10004000CD810000CD810000CD810000CD81000078
:10005000CD810000CD810000CD810000CD81000068
:10006000CD810000CD810000CD810000CD81000058
:10007000CD810000CD810000CD810000CD81000048
:10008000CD810000CD810000CD810000CD81000038
:10009000CD810000CD810000CD810000CD81000028
:1000A000CD810000CD810000CD810000CD81000018
:1000B000CD810000A1750000AD750000B175000094
:1000C000BD750000C1750000C5750000CD81000040
:1000D000CD810000CD810000CD810000CD810000E8
:1000E000CD810000CD810000CD810000CD810000D8
:1000F000CD8100000DA90000CD810000698E0000B7
:10010000CD81000081910000CD810000CD810000F3
:10011000CD810000CD810000CD810000CD810000A7
:10012000CD810000CD810000CD810000CD81000097
:10013000CD810000CD810000CD810000CD81000087
:10014000CD810000CD810000CD810000CD81000077
:10015000CD810000CD810000CD810000CD81000067
:10016000CD810000CD930000CD810000CD81000045
:10017000CD810000CD810000CD810000CD81000047
:10018000CD810000CD810000CD810000CD81000037
:10019000CD810000CD810000CD810000CD81000027
:1001A000CD810000CD810000CD810000CD81000017
:1001B000CD810000CD810000CD810000564B4CF276
:1001C000205210B51A804DF628121A8000BF00BFC9
:1001D00008F000F8514B4FF010621A60504A9A60D4
:1001E000504ADA60504A136813F4807304D14F49BF
:1001F0000B604FF4A85313604D4B1A78110703D5C9
:100200001A7842F008021A704A4B4B492A221A7097
:100210004A4A4B4B8B4204D252F8040F43F8040B6A
:10022000F8E7484B484900228B4202D243F8042B9E
:10023000FAE74649464A002352F8230041F82300D2
:1002400001336F2BF8D1434B434A802103F8011B44
:100250009342FBD1414B3D4A1A60414B8A221A70AE
:10026000A3F5805324225A70A0221A709A7992071B
:10027000FCD59A79D406FCD43A4A937903F00C035E
:10028000082B384BF9D103221A7140225A719A79FE
:100290009006FCD5334A9179324B4906FBD5324A58
:1002A000324911600221516020221A709A7902F0BD
:1002B0000C020C2AFAD12E4B2E4A1A602E4B2F4AD2
:1002C0001A6000225A60072243F8042C2C4AC3F813
:1002D0000C2D62B608F034FA144B1B68DA0705D50A
:1002E000284808F011F8284B284A1A60284B1B7838
:1002F0005B0609D5244C254B22689A4204D121483B
:1003000008F002F8002323600CF004FE07F068FFF9
:100310000AF0BCF9FEE700BF0E2005403080044023
:10032000823F04000100002B10D0034014D0034092
:1003300002D0074000E007404092FF1F242B01003D
:100340002087FF1F4092FF1F10CFFF1F0082FF1F5B
:100350000000000000E400E05FE400E008ED00E0E1
:100360000050064000400640448004400000030165
:1003700004800440C010050014E000E0FF76010096
:10038000000020209E44A65C1CE00340A5C3945AB4
:1003900000F00740FFFFFFFFFFFFFFFFFFFFFFFF32
:1003A000FFFFFFFFFFFFFFFFFFFFFFFFFFFFFFFF5D
:1003B000FFFFFFFFFFFFFFFFFFFFFFFFFFFFFFFF4D
:1003C000FFFFFFFFFFFFFFFFFFFFFFFFFFFFFFFF3D
:1003D000FFFFFFFFFFFFFFFFFFFFFFFFFFFFFFFF2D
:1003E000FFFFFFFFFFFFFFFFFFFFFFFFFFFFFFFF1D
:1003F000FFFFFFFFFFFFFFFFFFFFFFFFFFFFFFFF0D
:10040000FFFFFFFFFFFFFFFFFFFFFFFFDEF9FFFF23
:1004100010B5054C237833B9044B13B10448AFF33E
:1004200000800123237010BD4092FF1F00000000D8
:10043000202B0100084B10B51BB108490848AFF349
:1004400000800848036803B910BD074B002BFBD0A0
:10045000BDE81040184700BF000000004492FF1F95
:10046000202B01004092FF1F00000000F0B400F1BB
:100470002C06154F00243146031F00F15C0243F89F
:10048000044FB34241F8047F4FF0000542F8044F97
:10049000F5D100230D4A0E49C0F89050C0F8945091
:1004A000C0F89850C0F89C50C0F8AC50C0F8A020DC
:1004B000C0F8A820C0F8A41080F8B43080F8B53097
:1004C00080F8CC30F0BC70470000A04000004843EA
:1004D0000000C8C201392DE9F843814615460329B9
:1004E00000F2BA80DFE801F095714D02137A507A7C
:1004F00003EB00200CF092FA58490CF097FBC9F876
:100500002400AB7AE87A03EB00200CF087FA534919
:100510000CF08CFBC9F828002B7B687B03EB0020D8
:100520000CF07CFA4D490CF081FBD9F80040C9F879
:100530002C0009F13006C84609F16005002701E0EA
:1005400058F8044F306821460CF078FC01372146FA
:1005500028B1D9F8B0000CF05DFC00B13460214640
:1005600028680CF04DFC04363D4920B120460CF0C3
:1005700065FC00B12C600C2F05F10405E0D1BDE84D
:10058000F883137A507A03EB00200CF047FA3349D2
:100590000CF04CFBC9F81800AB7AE87A03EB0020AA
:1005A0000CF03CFA2D490CF041FBC9F81C002B7BE8
:1005B000687B03EB00200CF031FA28490CF036FB85
:1005C000D9F80040C9F82000B3E7137A507A03EB5A
:1005D00000200CF023FA21490CF028FBC9F80C008C
:1005E000AB7AE87A03EB00200CF018FA1B490CF008
:1005F0001DFBC9F810002B7B687B03EB00200CF07F
:100600000DFA16490CF012FBD9F80040C9F8140095
:100610008FE7137A507A03EB00200CF0FFF90F49B3
:100620000CF004FBC9F80000AB7A0446E87A03EB4F
:1006300000200CF0F3F909490CF0F8FAC9F80400AD
:100640002B7B687B03EB00200CF0E8F903490CF0EE
:10065000EDFAC9F808006CE704686AE700007A441C
:100660000000A0402DE9F04190F8CC4084B0202358
:1006700064008DF80530E4B2042380468DF8044010
:100680008DF806300327204608F016FD02210DF1F3
:10069000050008F01BFD8DF8044006F0FBF830B3B0
:1006A0000921404809F0C6FB0023102221463E489C
:1006B00009F066FE01213D4809F0BCFB0023102231
:1006C0009DF80510384809F05BFE0121374809F014
:1006D000B1FB002310229DF80610334809F050FEAC
:1006E0000121324809F0A6FB2F4809F039FE02200B
:1006F0008DF8044007F0D6FF06F0CCF800284CD166
:1007000002AE002408F0F8FC70B3072C1FD101E002
:1007100008F002FD08F0F0FC0028F9D106F0BAF864
:1007200010B1214809F01CFE9DF80B009DF80C103B
:100730009DF80D209DF80E30C8F8B800C8F8BC1020
:10074000C8F8C020C8F8C43004B0BDE8F08108F093
:10075000E3FC054606F8010B06F09CF870B901347D
:1007600008F0CAFC0028D0D1072CD3D006F092F8AC
:1007700078B9013FD8D09DF8044084E7E9B200235E
:100780001022094809F0FCFD0121084809F052FB3C
:10079000E5E7054809F0E4FDEBE70721044809F027
:1007A00049FBADE7D8100100E487FF1FAC1701003B
:1007B000E410010090F8BC00704700BF90F8B8004A
:1007C000704700BF90F8C000704700BF90F8C400A9
:1007D000704700BF0C2994BF50F8210000207047DB
:1007E0002DE9F0410B4E8046041F00F12C0754F810
:1007F000045F314628460CF003FB30B1D8F8B01046
:1008000028460CF01BFB00B12E46BC42EFD130460F
:10081000BDE8F081000020412DE9F041D0F8B07032
:100820004FF00008041F00F12C0654F8045F39460D
:1008300028460CF003FB084948B128460CF0E0FAC2
:10084000414620B128460CF0F9FA00B1A846B4425E
:10085000EBD14046BDE8F0810000A0402DE9F04713
:10086000D0F8B07082464FF00009041F00F12C064A
:100870004FF0000854F8045F394628460CF0DEFAC1
:100880000C4950B128460CF0BBFA30B14846294615
:100890000CF010F808F101088146B442EAD1CAF818
:1008A000D08040460CF0BAF8014648460CF0BEF93C
:1008B000BDE8F0870000A040D0F8D000704700BF2E
:1008C00038B5D0F89840D0F89450214628460CF01E
:1008D00097FA00B92C46204638BD00BFD0F8C83082
:1008E0002DE9F041002B7CD1D0F89860D0F89450DD
:1008F0000446314628460BF0DDFFD4F89C7039469B
:1009000080460BF0D7FF7F490CF090F94FF07C51F7
:1009100004460CF093FA002861D04FF07C51284631
:100920000CF08CFA4FF07C51002861D128460CF075
:1009300067FA38B14FF07C5130460CF07FFA00284E
:1009400040F0A8804FF07C5128460CF077FA002840
:1009500061D14FF07C5128460CF070FA002840F02D
:10096000A2804FF07C5128460CF068FA00286DD127
:100970004FF07C5128460CF043FA4FF07C5110B3F5
:1009800030460CF05BFA38B14FF07C5138460CF031
:1009900037FA002840F0B1804FF07C5130460CF01F
:1009A0002FFA002862D04FF07C5138460CF046FAFE
:1009B000002840F0A48038464FF07C510CF020FA1B
:1009C00068B1514C11E028460CF01AFA0028E3D126
:1009D00028464FF07C510CF013FA002846D1BDE8B0
:1009E000F08100EB8300D0F890402046BDE8F08114
:1009F00030460CF023FA4FF07C5100283ED03846A8
:100A00000CF01CFA0028F0D14FF07C5128460CF075
:100A1000F7F9002859D14FF07C5130460CF0F0F92D
:100A2000002840D04FF07C5138460CF007FA0028DF
:100A300041D14FF07C5130460CF000FA68B14FF0D4
:100A40007C5138460CF0DCF900284FD14FF07C5136
:100A500030460CF0D5F900288AD04FF07C5138464A
:100A60000CF0CEF9002883D02C46BEE730464FF07C
:100A70007C510CF0C5F90028B1D09CE728460CF059
:100A8000BFF90028C7D04FF07C5130460CF0D6F9A2
:100A90000028C0D04FF07C5138460CF0CFF9002828
:100AA0003FF450AF18E04FF07C5130460CF0C6F9DF
:100AB0000028CBD0C3E7394628460BF0FBFE4FF0A9
:100AC0007C510BF0FFFF04468FE74FF07C51384616
:100AD0000CF0B4F900289ED0394630460BF0EAFEFF
:100AE0004FF07C510BF0EEFF04467EE740464FF09E
:100AF0007C510BF0E7FF044677E7344675E73C4648
:100B000073E700BF000040400000A0C270B504467B
:100B1000FFF7E4FE4FF07C510CF090F940B3D4F8AD
:100B200094604FF07C5130460CF088F9D4F898501E
:100B3000F8B9D4F89C404FF07C5128460CF07EF96F
:100B400058B1294630460CF079F930B12146284693
:100B50000CF056F908B12C4621E04FF07C512046AC
:100B60000CF06CF920B1284621460CF067F980B9E9
:100B700070BD304629460CF043F9D4F89C4000285B
:100B8000D9D0304621460CF03BF90028D3D034466A
:100B900005E0304621460CF051F90028E8D0204607
:100BA00070BD00BF2DE9F04F90F8CC3091B00746F2
:100BB0005B008DF80830FFF755FDD7F8C000D7F877
:100BC000C440D7F8BC30D7F8B82097F8CC108DE8DF
:100BD0001100C94805F064FF30223D2303268DF83B
:100BE00009208DF80A300DF10A059DF8089049F0AA
:100BF0000108404608F060FA0DF10900022108F0F2
:100C000065FA8DF80880424602AB00205040082467
:100C100010F0800F4FEA400018BF80F00700013C41
:100C2000C0B2F5D19D4202D013F8012FEEE708F0D3
:100C300043FA05F02FFE002840F07C8202208DF858
:100C4000089007F02FFD05F025FE002840F0B8823F
:100C50000DF10C0AD146002408F04EFA002843D0CA
:100C6000032C34D101E008F057FA08F045FA0028C7
:100C7000F9D105F00FFE10B1A04809F071FB312346
:100C800003268DF809308DF80A609DF8089049F028
:100C90000108404608F010FA0DF10900022108F0A1
:100CA00015FA8DF80880424602AB00205040082417
:100CB00010F0800F4FEA400018BF80F00700013CA1
:100CC000C0B2F5D19D4228D013F8012FEEE708F00D
:100CD00023FA09F8010B804605F0DCFD68B9013400
:100CE00008F00AFA0028BBD1032CBED005F0D2FDD3
:100CF00078B9013E7FF479AFC1E75FFA88F100234C
:100D000010227E4809F03CFB01217D4809F092F851
:100D1000E5E77A4809F024FBEBE708F0CDF905F0A8
:100D2000B9FD002840F0C58102208DF8089007F039
:100D3000B9FC05F0AFFD002840F03D820DF10C0933
:100D4000002408F0D9F9002844D0032C35D101E063
:100D500008F0E2F908F0D0F90028F9D105F09AFD81
:100D600010B1664809F0FCFA342201238DF80920FD
:100D70008DF80A3003269DF8089049F00108404696
:100D800008F09AF90DF10900022108F09FF98DF899
:100D90000880424602AB00205040082410F0800F2B
:100DA0004FEA400018BF80F00700013CC0B2F5D107
:100DB0009D4228D013F8012FEEE708F0ADF909F8AD
:100DC000010B804605F066FD68B9013408F094F91E
:100DD0000028BAD1032CBDD005F05CFD78B9013EE6
:100DE0007FF453AFC0E75FFA88F100231022434835
:100DF00009F0C6FA0121424809F01CF8E5E73F482E
:100E000009F0AEFAEBE708F057F905F043FD0028CA
:100E100040F00E8102208DF8089007F043FC05F0A9
:100E200039FD002840F0D6810DF10C09002408F0AE
:100E300063F9002800F08480032C72D101E008F0EF
:100E40006BF908F059F90028F9D105F023FD10B12C
:100E50002A4809F085FA012212238DF809208DF81D
:100E60000A304FF003089DF80840204608F024F9A6
:100E700002210DF1090008F029F98DF8084005F06C
:100E800009FD30B309211F4808F0D4FF00231022C8
:100E900021461A4809F074FA0121194808F0CAFFDE
:100EA000002310229DF80910144809F069FA012165
:100EB000134808F0BFFF002310229DF80A100F48C6
:100EC00009F05EFA01210E4808F0B4FF0B4809F062
:100ED00047FA06208DF8084007F0E4FB05F0DAFC3D
:100EE000002840F0728103AD002608F005F90028C3
:100EF0003FD0162E2FD109E0EC100100E487FF1F30
:100F0000AC170100D810010008F006F908F0F4F859
:100F10000028F9D105F0BEFC162600287DD1152049
:100F200035E008F0F9F809F8010B804605F0B2FC4D
:100F300000285BD1013408F0DFF800287FF47CAF93
:100F4000032C3FF47EAF05F0A5FC00286CD1013ED8
:100F50007FF411AF7FE708F0DFF805F8010B0446D6
:100F600005F098FC00284DD1013608F0C5F800289E
:100F7000BFD1162ECAD005F08DFC00284DD1B8F196
:100F800001087FF470AF701E002840F32A8200230E
:100F900003AA1C4612F8011B08254C4014F0800FD0
:100FA0004FEA440418BF84F00704013DE4B2F5D1D0
:100FB00001338342EEDB9DF8218089484146224679
:100FC00005F06EFD162EC146A34602D1A04500F0E5
:100FD000138197F8CC108348CDF800B04B463246C9
:100FE00005F08CFD002011B0BDE8F08F5FFA88F1AC
:100FF000002310227C4809F0C3F901217B4808F046
:1010000019FF97E7E1B200231022774809F0B8F9F9
:101010000121764808F00EFFA6E7734809F0A0F911
:10102000162EACD11520B2E76F4809F099F98EE77A
:1010300009216F4808F0FEFE2346102241466A4807
:1010400009F09EF90121694808F0F4FE23461022B8
:101050009DF80910644809F093F90121634808F0EC
:10106000E9FE102223469DF80A105F4809F088F92E
:1010700001215E4808F0DEFE21460DF10B0002AAB8
:1010800012F8014B6140C9B2082311F0800F4FEAFA
:10109000410118BF81F00701013BC9B2F5D190426F
:1010A000EED11022504809F06BF94F4809F058F979
:1010B000B0E609214E4808F0BDFE23461022414605
:1010C000494809F05DF90121484808F0B3FE23467C
:1010D00010229DF80910444809F052F901214348B3
:1010E00008F0A8FE102223469DF80A103E4809F099
:1010F00047F901213D4808F09DFE21460DF10B0006
:1011000002AA12F8014B6140C9B2082311F0800F06
:101110004FEA410118BF81F00701013BC9B2F5D187
:101120009042EED11022304809F02AF92E4809F0F9
:1011300017F9F9E509212E4808F07CFE2346102214
:101140004146294809F01CF90121284808F072FE9F
:10115000234610229DF80910234809F011F90121B6
:10116000224808F067FE102223469DF80A101E4808
:1011700009F006F901211D4808F05CFE21460DF139
:101180000B0002AA12F8014B6140C9B2082311F00A
:10119000800F4FEA410118BF81F00701013BC9B23E
:1011A000F5D19042EED110220F4809F0E9F80E482F
:1011B00009F0D6F842E507210E4808F03BFEBDE5F0
:1011C00007210C4808F036FE42E50721094808F0DF
:1011D00031FE88E60721074808F02CFE24E600BF10
:1011E000201101006C110100E487FF1FAC17010002
:1011F000D8100100E41001009DF80C3097F8CC20C5
:10120000B3EB420F7FF4EEAE9DF80D30012B7FF46F
:10121000E9AE9DF80E30122B7FF4E4AE9DF810304D
:101220009DF80F0003EB00200BF0F8FB75490BF065
:1012300049FCD7F8AC10C7F8900004460BF0FEFD4F
:1012400008B1C7F8AC40D7F8A81020460BF0D8FD7D
:1012500008B1C7F8A840A7F1040907F1300607F163
:1012600060054FF00C089AF806309AF8050003EB79
:1012700000200BF0D3FB64490BF024FC49F8040F69
:10128000316804460BF0BCFD0AF1020A30B1D7F810
:10129000B01020460BF0C8FD00B13460296820462C
:1012A0000BF0CCFD043600B12C60B8F1010805F15B
:1012B0000405D8D19DF81E309DF81D0003EB0020D9
:1012C00002300BF0ABFB51490BF0B0FC014650482B
:1012D0000BF0ACFC4F490BF0EBFA4F490BF0F2FB73
:1012E000054609F05DFC0446284609F059FC4B49C7
:1012F00009F0C8FC4A49054620460BF0E3FB494982
:101300000BF0D8FA4849044628460BF0DBFB0146AF
:1013100020460BF0CFFA01464FF07E500BF086FCD2
:1013200042490BF0C5FA9DF81F209DF82030C7F800
:10133000940003EB022009300BF070FB3C490BF0EA
:1013400075FC014632480BF071FC32490BF0B0FAE3
:1013500031490BF0B7FB054609F022FC044628464C
:1013600009F01EFC2D4909F08DFC2D49054620464B
:101370000BF0A8FB2B490BF09DFA2B49044628469D
:101380000BF0A0FB014620460BF094FA01464FF00B
:101390007E500BF04BFC25490BF08AFAC7F89800F9
:1013A00004463846FFF7B2FBD7F8A01005460BF00D
:1013B00027FD08B1C7F8A050D7F894502046294619
:1013C0000BF03CFDB0B92946D7F8A4000BF018FD8E
:1013D00010B12C46C7F8A440164805F061FB012067
:1013E00001E69DF82190144849464246C34605F05F
:1013F00057FBEEE5D7F8A41020460BF01FFD0028A0
:10140000E8D1E9E71357053B2003C8390016014727
:101410000AD7E33FE17A644000007A44000040408C
:10142000A40D8F395A80473A46A6DB33339388435D
:10143000002C014744110100201101002DE9F8435F
:101440000026D0F8B080C0F890608146041F00F1FB
:101450002C0754F8045F414628460BF0EFFC09497D
:1014600050B128460BF0CCFC30B1304629460BF089
:1014700021FA0646C9F89000BC42EAD13046BDE8E0
:10148000F88300BF0000A04002299ABF00EB810052
:10149000D0F89400002070473E2998BF80F8CC1007
:1014A000704700BF90F8B400704700BF90F8B500D7
:1014B000704700BFC0F8C810704700BF80F8B41074
:1014C000704700BF80F8B510704700BF30B50F4CB3
:1014D000C0F8B01083B020460D4608F041FF20460A
:1014E00008F03EFF28460AF043FE022502460B465E
:1014F0000095204608F08CFF204608F031FF20467A
:1015000003B0BDE8304008F02BBF00BFE487FF1FE9
:1015100070B500F555550646103500F128042046F3
:10152000D834FEF7A3FFAC42F9D106F5807501244B
:1015300028460021FFF7C2FF214628460134FFF765
:10154000ABFF3F2C05F1D805F2D143F258540025EA
:101550000548064A064B3555002130617161B2617C
:10156000F361304670BD00BF00007A44000048437C
:101570000000C8C270B500F55556103600F58074ED
:10158000002507E0012520460021D834FFF79AFF07
:10159000B4420AD02046FFF785FF0028F3D020464A
:1015A000FFF784FF0028EDD170BD284670BD00BF55
:1015B0002DE9F04143F25C5300F5555637460022C1
:1015C0008046C25010361C3700F5807402E0D834D3
:1015D000B4420DD02046FFF765FF0028F7D0204623
:1015E0003D68FFF769F9D8342844B4423860F1D136
:1015F00043F25C5358F80300BDE8F0812DE9F04157
:101600000E46096801F00F04B1F5807F0746904649
:1016100004F1010401F0F0053AD0302D36D02CDD74
:10162000402D13D0502D2CD10425072C12D9D823AE
:1016300003FB0474283420460121FFF73FFF3246A4
:1016400029462046BDE8F041FEF744BF072C4FF085
:101650000305ECD8B8F1010FE9D12146114808F093
:10166000CFFE4146104808F0E5FB29460D4808F03A
:10167000C7FE0C4808F074FED9E7202D01D10125E2
:10168000D3E7072CD3D8042DD1DCE3E70225CCE740
:1016900000231022034808F073FE024808F060FEA1
:1016A000BBE700BFE487FF1FC8110100704700BF00
:1016B000704700BF2DE9F043002383B00646036066
:1016C00000F58074012504E001353F2D04F1D804B4
:1016D00069D02046FFF7E6FE0028F5D0504805F017
:1016E000DFF929464F4805F0DBF92046FFF75AFAA3
:1016F0002046FFF7A3FE0AF03BFD02460B464A4890
:1017000005F0CEF92046FFF76BF880462046FFF73C
:1017100083F8074640460AF02BFD80463846894646
:101720000AF026FD42464B46CDE900013F4805F050
:10173000B7F900212046FFF7A7FE01218046204689
:10174000FFF7A2FE074640460AF012FD80463846E3
:1017500089460AF00DFD42464B46CDE9000134486A
:1017600005F09EF92046FFF769FE014630680BF050
:10177000A1F830602046FFF7C9F9B1690BF040FBD2
:10178000002833D12046FFF79BF8F1690BF056FB98
:10179000002899D02046FFF793F801353F2DF061DE
:1017A00004F1D80495D170680BF038F9014630681F
:1017B0000BF03CFA7169306004460BF03FFB00B15E
:1017C0007461316920460BF01BFB00B134610B20C2
:1017D00006F032FF43F25853F35C60B99BB143F219
:1017E00058530122F25403B0BDE8F0832046FFF7BE
:1017F0008DF9B061C6E753B943F258530022F25451
:1018000003B0BDE8F0830B4805F078F9E7E70A4834
:1018100005F05EF943F258530022F254F0E700BF9E
:10182000B4130100CC110100081201001C120100C8
:1018300048120100641201009C12010070B5114BA6
:10184000836000F555550646103500F5807402E0BA
:10185000D834AC4213D02046FFF724FE0028F7D03E
:101860002046FEF7BDFFB1680BF0CAFA0028EFD0A2
:101870002046FEF7B5FFD834AC42B060EBD1B0687B
:1018800070BD00BF0000A04070B5002300F55555A5
:101890000646C360103500F5807402E0D834AC42CF
:1018A00013D02046FFF7FEFD0028F7D02046FEF7B4
:1018B000B3FFF1680BF0C2FA0028EFD02046FEF724
:1018C000ABFFD834AC42F060EBD1F06870BD00BF24
:1018D0000068704741607047F8B500F555550F46F0
:1018E0001646103500F5807402E0D834AC420FD0B3
:1018F0002046FFF7D7FD0028F7D020463946FFF7EE
:10190000D9FD20463146D834FFF7E0FDAC42EFD197
:10191000F8BD00BF2DE9F84300F5555543F2545387
:101920002E4600278046C7504FF000091035143668
:1019300000F5807402E0D834A54213D02046FFF7AA
:10194000B1FD0028F7D03368013333602046FEF73D
:10195000C5FF1D490BF072FA88B9D834A54207F1CA
:101960000107EBD143F2545358F80300C01B0BF0AE
:1019700055F8014648460BF059F9BDE8F883204672
:10198000FEF7ACFF014648460AF094FF8146204628
:10199000FEF7A4FFD8F820100BF050FA70B92046DB
:1019A000FEF79CFFD8F824100BF02AFA0028C2D0CA
:1019B0002046FEF793FFC8F82400BCE72046FEF758
:1019C0008DFFC8F82000EAE700008CC2006A70476B
:1019D000406A7047F8B500F55555074600261035A2
:1019E00000F5807402E0D834AC420FD02046FFF7F7
:1019F00059FD0028F7D02046FEF730FF014630465B
:101A00000AF058FFD834AC420646EFD143F25453A3
:101A1000F8580BF003F8014630460BF007F9F8BD13
:101A20002DE9F04F06468FB083488B4604F0E0FF67
:101A3000814804F0DDFF804804F0DAFF43F254539C
:101A40003046F2580D92FFF7B3FD73680C930746CA
:101A500030680AF08DFB804630468946FFF7BAFFB2
:101A600082463046B468F568FFF754FF0AF080FB01
:101A7000CDE90A01214628460AF01AFF6F490BF00A
:101A800021F80AF075FBCDE9080128460AF070FB41
:101A9000CDE9060120460AF06BFBCDE90401504672
:101AA0000AF066FB0D9A0C9BCDE90201CDE9008995
:101AB000114663483A4604F09BFF5F4804F098FFE4
:101AC00006F580764FF001094FF0000A07E009F1B2
:101AD0000109B9F13F0F06F1D80600F0A5803046A4
:101AE000FFF7E0FC0028F2D03046FEF763FE3046F8
:101AF000FEF764FE3046FEF765FE3046FEF766FEF2
:101B00000821504808F096F949464F4808F078FCFB
:101B1000B9F1090F40F38B8002214C4808F08AF993
:101B20003046FFF78BFC0AF023FB5FFA8BF8024686
:101B30000B46CDF80080444808F06AFC0121444877
:101B400008F078F95546002420E00621414808F0C5
:101B500071F929463C4808F053FC02213E4808F040
:101B600069F921463046FEF735FE0AF001FBCDF853
:101B7000008002460B46344808F04AFC013401213B
:101B8000334808F057F90C2C09D03D46092D05F1D2
:101B90000107DADC0121314808F04CF9D5E72A4881
:101BA00008F0DEFB09212E4808F044F900213046F8
:101BB000FFF76AFC0AF0DCFA022402460B460094A6
:101BC000214808F025FC0A21264808F033F90121B4
:101BD0003046FFF759FC0AF0CBFA009402460B4658
:101BE000194808F015FC0A211F4808F023F921467E
:101BF0003046FFF749FC0AF0BBFA009402460B4658
:101C0000114808F005FC0121184808F013F909F102
:101C100001090D4808F0A4FBB9F13F0F0AF10C0AC5
:101C200006F1D8067FF45BAF0FB0BDE8F08F01215D
:101C30000A4808F0FFF86FE7B413010000007A4487
:101C40004C150100EC150100E487FF1F782301000B
:101C5000F8150100FC1501009C170100AC170100EC
:101C600004160100101601001C16010028160100C0
:101C70002DE9F04F85B000F580758A4603929B46AA
:101C80002E464FF0010806E008F10108B8F13F0FB9
:101C900006F1D8067BD03046FFF704FC0028F3D0CD
:101CA00000230A2251467D4808F06AFB01217C4846
:101CB00008F0C0F803980AF05BFA0023024600938C
:101CC00076480B4608F0A4FB0121754808F0B2F8ED
:101CD0005946724808F094FB0121714808F0AAF8AF
:101CE00041466E4808F08CFB01216D4808F0A2F8CF
:101CF00000244FF0020921463046FEF76BFD0AF042
:101D000037FACDF8009002460B46644808F080FB95
:101D100001340121624808F08DF8082C4FF00207C9
:101D2000E9D100213046FFF7AFFB0AF021FA009716
:101D300002460B46594808F06BFB0121584808F051
:101D400079F801213046FFF79FFB0AF011FA00975E
:101D500002460B46514808F05BFB0121504808F051
:101D600069F839463046FFF78FFB0AF001FA009711
:101D700002460B46494808F04BFB08F1010847486A
:101D800008F0EEFAB8F13F0F06F1D80683D101272B
:101D90004FF0000904E001373F2F05F1D80579D055
:101DA0002846FFF77FFB0028F5D000230A22514682
:101DB0003C4808F0E5FA0121394806F051FF039844
:101DC0000AF0D6F9CDF8009002460B46354808F0E7
:101DD0001FFB0121324806F043FF5946314808F005
:101DE0000FFB01212E4806F03BFF39462D4808F035
:101DF00007FB01212A4806F033FF00244FF00208B8
:101E000021462846FEF7E6FC0AF0B2F9CDF800803C
:101E100002460B46234808F0FBFA01340121204812
:101E200006F01EFF082C4FF00206E9D100212846DB
:101E3000FFF72AFB0AF09CF9009602460B46194868
:101E400008F0E6FA0121164806F00AFF01212846AB
:101E5000FFF71AFB0AF08CF9009602460B46114870
:101E600008F0D6FA01210E4806F0FAFE314628465F
:101E7000FFF70AFB0AF07CF9009602460B46094878
:101E800008F0C6FA0137074808F06AFA3F2F05F153
:101E9000D80585D105B0BDE8F08F00BFE487FF1FEE
:101EA000C8110100D487FF1F2DE9F84F994C9A48BB
:101EB000FFF730FDE16A0AF0A3FF002851D0974EEA
:101EC000974D002333602B60964B93481B68914FCE
:101ED000012B5ED0FFF7D8FCE169804660690AF00B
:101EE000E7FC014640460AF0A9FF002865D18A4870
:101EF000FFF7CAFCE1680AF0A1FF08B100232B60DC
:101F00008548844FFFF79AFC21690AF079FF58B1A0
:101F1000002333602B68824A002B01DBBDE8F88F79
:101F200000231360BDE8F88F7B48FFF787FCB96991
:101F30000AF066FF0028EBD17748FFF77FFCD7F85F
:101F4000BC100446B8690AF0B5FC014620460AF008
:101F500075FF002800F08480786E30600028D7DBA1
:101F6000D8E76D48FFF7D6FC216B0AF049FF00283F
:101F700051D16948FFF7CEFC616B0AF041FF0028A0
:101F800000F09380654E664D626EE36D32602B60AB
:101F90009AE7FFF779FCE1698046206A0AF088FC3D
:101FA000014640460AF04AFF0028A0D05A48FFF7F1
:101FB0006BFCD7F82090834605E05748FFF764FC98
:101FC000D7F814908346F96948460AF071FC8246B6
:101FD000F86D0AF023FD8046386E0AF01FFD414679
:101FE0000AF066FC5146074658460AF061FC014675
:101FF00038460AF067FD5146074648460AF058FC45
:10200000014638460AF012FE41460AF053FC0AF037
:1020100035FF28606BE7414E636E3F483360FFF742
:1020200079FC8146E06DE76A3D4D0AF0F7FC3946E0
:10203000804648460AF03CFC014640460AF042FD14
:1020400039468046206B0AF033FC014640460AF0D0
:10205000EDFD00210AF02EFC0AF010FF286033E7A6
:102060002D48FFF7EBFB8146F86DBC690AF0D6FC02
:102070002146804648460AF01BFC014640460AF0CD
:1020800021FDD7F8BC10804620460AF013FC2146FB
:102090000AF00EFC014640460AF0C8FD00210AF095
:1020A00009FC0AF0EBFE306058E71B48FFF732FCF2
:1020B000A16A0AF0A5FE00283FF401AF1648174EAA
:1020C000174DFFF727FC8146606ED4F834800AF084
:1020D000A5FC4146074648460AF0EAFB39468146D8
:1020E00000200AF0E5FB014648460AF0EBFC4146B9
:1020F0008146A06A0AF0DCFB014648460AF096FDDC
:1021000039460AF0D7FB0AF0B9FEE36D30602B6068
:10211000DAE600BF4493FF1F0095FF1FC494FF1F22
:102120006492FF1F8092FF1FF8B53D483D4C3E4D25
:102130003E4E04F05DFC3E4B3E4A3F483F495A60EC
:1021400011271F703E4F3F4AD8601C6100203E4C53
:102150005D615E623D4DDF624FF07C560C279961F8
:102160009A623B493B4A18635C633B483B4C9D6326
:102170005E6440F61C450A261F65394F9964DA648F
:10218000022101221862C3F8BC40002032249D665F
:10219000DE6664254FF49676DF61DF6341F2040763
:1021A000597059721A725A6583F84000C3F89C40FE
:1021B0001C665E66DE659D654FF05A0C1F674FF426
:1021C0007A7E9867D967C3F88000C3F88840C3F85F
:1021D000A440244FC3F8A000234EC3F8AC20C3F89A
:1021E000B010FF2441F28831052083F8C02040F26E
:1021F000D662C3F8B450C3F874C0C3F88CE0C3F817
:102200009070C3F89460C3F8A840A3F8BA00C3F86C
:102210008410A3F8B810A3F89820A3F89A20F8BD6A
:102220002C1601000000404033338340CDCCCC3D20
:102230004493FF1F20A1070066668640CDCC4C402A
:10224000000020C100008242000020420000A040A7
:102250009A9979400AD7233D333373409A99993E2E
:10226000CDCC4C3E0000684200C02044F0B54FF495
:102270007A6085B006F016FA00210F2006F0EAF920
:1022800000210E2006F0E6F90021112006F0E2F907
:102290000021102006F0DEF90021122006F0DAF904
:1022A0000021132006F0D6F901210B2006F0D2F907
:1022B00001210C2006F0CEF90121142006F0CAF904
:1022C0000121152006F0C6F90121162006F0C2F9F9
:1022D0000121172006F0BEF90121052006F0BAF908
:1022E000974C984D0121062006F0B4F901210D20EC
:1022F00006F0B0F920880AF08DFB0146162006F0A2
:1023000013F920880AF086FB0146172006F00CF925
:1023100020880AF07FFB0146052006F005F9208899
:102320000AF078FB00240146062006F0FDF8009430
:102330002346854A8549864804F0DAFDE6B23246EE
:102340008049834804F082FD2B797E4980486FF3F1
:102350000003013432462B7104F06EFD082CEDD1E0
:102360000924E6B232467749794804F06FFD2B79AB
:102370007449774843F00103013432462B7104F06D
:102380005BFD0D2CEDD1734C4FF0FF322068102116
:1023900005F07AF920684FF0FF32102105F04CF972
:1023A00020684FF0FF32022105F05AF920684FF003
:1023B000FF32022105F05EF900220F21206805F0AE
:1023C0006DF90C21644807F035FD644807F0C8FF3B
:1023D0001121634807F02EFD604807F0C1FF44F665
:1023E000206006F01DFA5D4807F0BAFF17215D482E
:1023F00007F020FD594807F0B3FF5B4B1B789A06A6
:1024000000F1D480584B1B781B0700F1DB80564B42
:102410001B785F0700F1E280534B1B789E0700F1A9
:10242000E980524B1B781D0600F1F0804F4B1B7862
:102430005C0600F1F7804D4B1B78980600F1FE809A
:102440004A4B1B78590700F10581484B1B781A0746
:1024500000F10C81454B1B789B0700F113813F482D
:1024600007F07EFF72B6424A4CF220534DF6281117
:102470002024138023461180013BFDD13D4D3E4871
:102480003E4900234FF480562E8003800B8032F8A3
:102490000E3C9BB243F0D30322F80E3C62B69D2063
:1024A00006F0BAFD21463648364D07F0C3FC2B48EE
:1024B00007F056FF05F1C4062F462C46601B05F0B9
:1024C000CFFD04F8010BB442F8D13B78112B01D0B9
:1024D000FFF72AFE2C482D4DFFF7EAF8042004F000
:1024E000D3F92B4B284800221A60FFF7DFF80121AF
:1024F0000D2006F09BF8796D2348FFF7EBF97A6C15
:1025000097F840102048FFF7E7F92248224B04686B
:1025100003941B682149224A039E006802901268B6
:10252000204C2E6081FB0301DB171F48A3EB211316
:102530000299216013FB02F3038005B0F0BD00BFD8
:102540002487FF1F1C94FF1F0CCCFF1F20A1070036
:1025500070CAFF1FC894FF1F4C160100E487FF1FBD
:102560005C1601007016010001F0074000F0074002
:102570000E20054004200540062005401620054099
:10258000741701004493FF1F0095FF1FFC94FF1F69
:102590007092FF1F18CCFF1F6C87FF1F1F85EB5128
:1025A0006887FF1F2494FF1FD494FF1F21213948FF
:1025B00007F040FC384807F0D3FE384B1B781B0768
:1025C0007FF525AF0C21364807F034FC324807F080
:1025D000C7FE324B1B785F077FF51EAF0E213148D7
:1025E00007F028FC2C4807F0BBFE2C4B1B789E07FD
:1025F0007FF517AF17212C4807F01CFC264807F081
:10260000AFFE2A4B1B781D067FF510AF0E21284820
:1026100007F010FC204807F0A3FE244B1B785C0653
:102620007FF509AF1221234807F004FC1A4807F090
:1026300097FE1E4B1B7898067FF502AF13211E48AC
:1026400007F0F8FB144807F08BFE184B1B7859076E
:102650007FF5FBAE1C21194807F0ECFB0E4807F094
:102660007FFE124B1B781A077FF5F4AE1921144830
:1026700007F0E0FB084807F073FE0C4B1B789B0744
:102680007FF5EDAE18210F4807F0D4FB024807F0A4
:1026900067FEE4E688160100E487FF1F01F00740AB
:1026A000AC160100BC160100CC16010000F007407A
:1026B000E4160100F4160100081701001C170100C0
:1026C0003C17010058170100F8B5464C464D4748E5
:1026D000E66800232B70FFF7D7F8014630460AF072
:1026E0008FFB08B104232B704048FFF7A7F821693E
:1026F0000AF086FB18B12B7843F010032B703B488F
:10270000FFF708F9A16A0AF099FB18B12B7843F09A
:1027100040032B70002335486B70FFF7FBF8E16A2C
:10272000314D0AF06DFB08B101236B70304D2F481D
:1027300000232B70FFF7A8F8616A0646E0680AF0EC
:10274000B7F8014630460AF079FB08B104232B7034
:102750002648FFF773F8616A064620690AF0AAF86E
:10276000014630460AF04CFB18B12B7843F01003B9
:102770002B701E48FFF7CEF8A16B0646A06A0AF040
:1027800097F8014630460AF059FB18B12B7843F010
:1027900040032B70002315486B70FFF7BBF8A16B4B
:1027A000134F0646E06A0AF085F8014630460AF003
:1027B00027FB08B101237B7000230C48EB70FFF767
:1027C00063F8054609480A4EFFF738F801462846DF
:1027D0000AF06EF8E16B0AF031FB08B10123F370E7
:1027E000F8BD00BF4493FF1F4093FF1F0095FF1FDC
:1027F000BC94FF1F514B1B68002B74D0F0B5504D9B
:102800002B680533B3F57A7F83B040F38E800023C5
:1028100000272B604B4CD4F8A4000AF0FFF80646C2
:10282000D4F8A8000AF0FAF831460AF041F839461F
:102830000AF048F944490AF0F9F931460AF03AF841
:102840000AF01CFB0146062005F070FD02213F48FE
:1028500007F0F0FA3E4807F083FD06213D4807F0F7
:10286000E9FA28680AF0DAF83B490AF02BF909F08E
:102870007FFC022602460B460096354807F0C8FD4D
:102880000D21364807F0D6FAD4F8A4000AF0C6F8AD
:10289000074628680AF0C2F82F490AF013F90546DE
:1028A000D4F8A8000AF0BAF839460AF001F801464F
:1028B00028460AF007F924490AF0B8F9394609F020
:1028C000F9FF09F055FC009602460B46204807F038
:1028D0009FFD31461D4807F0ADFA1D4803B0BDE825
:1028E000F04007F03DBD174B1D4AD3F8A410D3F8B4
:1028F000A83012685B1A632B0BDD1A4803FB02F346
:1029000080FB0302DB17C3EB62131944062005F0BA
:102910000DBD154803FB022380FB0302DB17C3EB4D
:1029200022121144062005F001BD18462B600AF062
:1029300075F809490AF0C6F807466BE7A894FF1F27
:102940007492FF1F4493FF1F0000C84278230100C8
:10295000E487FF1F98170100CDCCCC3DA0170100E4
:102960003887FF1F1F85EB51CBF08D2870B5B54818
:10297000B54C07F0F5FCB34807F0F2FCB14807F09E
:10298000EFFC0D21B14807F055FAD4F8A030012B27
:1029900011D0AF4CAB48217800230A2207F0F0FC9D
:1029A0002378052B67D8DFE813F006010B0110012F
:1029B00015011A0101010921A64807F03BFAA648B2
:1029C000FEF73CFF21690AF01BFA18B10F21A3485A
:1029D00007F030FAA048FEF757FFE1680AF02EFA38
:1029E00018B10E219E4807F025FA9B48FEF74CFFD0
:1029F00005469948FEF722FF0146284609F058FF90
:102A0000E16B0AF01BFA18B11121964807F012FA8F
:102A10009148FEF77FFFA16A0AF010FA18B10C2165
:102A2000914807F007FA8C48FEF774FFE16A0AF054
:102A3000E7F918B10D218D4807F0FCF98C4B864859
:102A40001B68012B00F0E880FEF7F8FE21697E4D3F
:102A50000AF0F4F978B18048FEF716FFE9680AF049
:102A6000CFF940B17A4B1B78052B00F0E6800821A6
:102A7000804807F0DFF902217F4807F0DBF91220D8
:102A800005F0DAFD012800F0AF80112005F0D4FD3B
:102A9000012800F0B380794B1B68012B00F0B78050
:102AA00002217548764C07F0C5F9764B65481968E0
:102AB00007F0A6FC634807F053FC0421724807F0B6
:102AC000B9F90B2005F0B8FD002301460A225D4844
:102AD00007F056FC0C2005F0AFFD002301460A224A
:102AE000584807F04DFC142005F0A6FD00230146D0
:102AF0000A22544807F044FC152005F09DFD0A22E7
:102B0000002301464F4807F03BFC06215F4807F0D1
:102B100091F92368DD074FF001014CBF5C485D4827
:102B200007F088F9236898074FF001014CBF584817
:102B3000584807F07FF923685A074FF001014CBF4E
:102B40005348544807F076F923681B074CBF504898
:102B50005048012107F06EF904214F4807F06AF947
:102B6000112005F069FD002301460A22354807F0CF
:102B700007FC102005F060FD002301460A223148C1
:102B800007F0FEFB122005F057FD002301460A2244
:102B90002C4807F0F5FB132005F04EFD00230146FD
:102BA0000A222848BDE8704007F0EABB07213B48ED
:102BB00007F040F95FE70621394807F03BF95AE78B
:102BC0000721384807F036F955E70721364807F05E
:102BD00031F950E70821354807F02CF94BE70B2174
:102BE000334807F027F946E70E21324807F022F96B
:102BF000112005F021FD01287FF44DAF0A212E4858
:102C000007F018F91D4B1B68012B7FF449AF112108
:102C10002A4807F00FF943E7FEF710FE216A0AF091
:102C20000DF900283FF423AF1621254807F002F9DB
:102C30000A21244807F0FEF81DE70A21214807F081
:102C4000F9F818E7E487FF1F4493FF1FB01701004E
:102C5000B894FF1FC01701000095FF1FCC1701009B
:102C6000DC170100EC17010000180100101801002A
:102C70008092FF1F4418010078230100D094FF1FA9
:102C80000894FF1FAC94FF1FB8180100C018010082
:102C9000C81801001C250100CC1801008018010093
:102CA00050180100581801006C1801007418010038
:102CB000601801008818010098180100A41801008C
:102CC00020180100381801002DE9F04F934C944F63
:102CD000E36F012B8DB000F04981032B50D0914E52
:102CE000914DA36F9148012B09BF2968296801F113
:102CF0000041296005F0A6F83368002B40F0CE8033
:102D00008A4805F075F8E36F3860012B064600F03D
:102D1000D28087490AF092F878B9864930460AF09D
:102D20006FF850B9844A854B12680B920B9A1A605F
:102D300000232B600DB0BDE8F08FDFF8FC817F4CE5
:102D4000D8F800300A930A9823687D4FC01A09F01A
:102D500061FE314609F0B6FE7A4909F067FF79490C
:102D600009F064FF396809F0A5FDD8F8003009932F
:102D7000099B2360002338602B600DB0BDE8F08F05
:102D8000DFF8C881704DD8F80000664E012300229C
:102D90000F212B6004F082FC2B68012B336800F0BC
:102DA0000381002B40F0A6810021D8F80000DFF855
:102DB000B891664D04F0C4FC33681FFA80FBC9F873
:102DC00000B0002B40F07B810021D8F80000564D68
:102DD000DFF878A104F03AFCB4F89A3040F6E44108
:102DE00001FB0BF1B1FBF0F0C01A00B209F016FEC6
:102DF00057498346D4F8900009F064FE01465846CE
:102E000009F014FFD9F800302860632BDFF858B1BF
:102E100000F3498100232B603368002B3FF461AF3E
:102E200002214C4807F006F8D9F80020D8F8000035
:102E300040F6E443002103FB02F804F007FCB8FB72
:102E4000F0F009F0E7FD8046B4F89A0009F0E6FDDD
:102E50000146404609F02CFD09F08AF94FF00208BE
:102E600002460B46CDF800803B4807F0D1FA4146B8
:102E7000384806F0DFFF286809F07AF9CDF80080BD
:102E800002460B46344807F0C3FA4146334806F081
:102E9000D1FF41462F4806F0CDFF22E7234804F03A
:102EA000A7FF09F065F9022602460B4600962A485C
:102EB00007F0AEFA24E7244B1B68012B00F02681B3
:102EC000022B7FF435AF264909F0B8FF30B9254908
:102ED000304609F095FF002800F04781DFF8588060
:102EE000164CD8F80030079307982368144FC01A7F
:102EF00009F090FD314609F0E5FD124909F096FE12
:102F0000104909F093FE396809F0D4FCD8F8003074
:102F10000693069B386023600AE700BF4493FF1FB7
:102F20008C92FF1FF494FF1F7C92FF1F1C93FF1FC6
:102F30000000FA430000FAC318CCFF1F5C92FF1F89
:102F40009492FF1F00007A445C87FF1FC894FF1F04
:102F500017B7D13878230100E487FF1F101901004B
:102F600000C82F4800A08CC63C93FF1F3D689849BD
:102F7000284609F045FF30B12846964909F05EFF22
:102F800000287FF4FDAEDFF85882934DD8F800009A
:102F9000924E022300220E212B6004F07FFB2B684F
:102FA000012B33687FF4FDAE002B40F0008100213F
:102FB000D8F80000DFF86C92894D04F0C1FB33684B
:102FC0001FFA80FBC9F800B0002B40F0D58000212B
:102FD000D8F80000834D04F039FBB4F8983040F67F
:102FE000E44A0AFB0BFBBBFBF0F0C01A00B209F08D
:102FF00015FD7D498346D4F8940009F063FD014630
:10300000584609F013FED9F8003028600021D8F89E
:1030100000000AFB03FA04F019FBB4F89830BAFB7D
:10302000F0F00FFA80FAC3EB0A03002BB4F8BA20D1
:10303000B8BF5B429342BCBF00232B603368002BB8
:103040003FF44FAE0221694806F0F4FED9F80020A3
:10305000D8F8000040F6E443002103FB02F804F036
:10306000F5FAB4F89810B8FBF0F000B2411A6048D5
:1030700007F0C6F902215D4806F0DCFE286809F079
:1030800077F84FF0020802460B46CDF8008058480A
:1030900007F0BEF90321574806F0CCFE41465348DD
:1030A00006F0C8FE1DE6DAF80000002104F0CEFAB2
:1030B000DBF8003064389842FFF4ACAEACE6002197
:1030C000286804F0C3FA40F6E44100230A2201FB19
:1030D0000BF1B1FBF0F1464807F052F902214348E9
:1030E00006F0A8FEB4F89A10414807F089F9D9F81B
:1030F00000B069E63E4807F033F90C213E4806F07F
:1031000099FE0C213D4806F095FE4DE63C4909F03C
:1031100095FE58B93B49304609F072FE30B93A4A3B
:103120003A4B12680592059A1A6001E6DFF8D880DA
:10313000364CD8F80030049304982368344FC01AF2
:1031400009F068FC314609F0BDFC324909F06EFD1A
:10315000304909F06BFD396809F0ACFBD8F8003054
:103160000393039B38602360E2E5274A274B1268EC
:103170000892089A1A60DBE50021286804F066FAD4
:1031800040F6E44100230A2201FB0BF1B1FBF0F110
:10319000174807F0F5F801211F4806F04BFEB4F878
:1031A0009810134807F02CF9D9F800B00FE7104831
:1031B00007F0D6F8E36F012B4FF00B010CBF174857
:1031C000174806F037FE0C210C4806F033FEEEE6F9
:1031D00000709446007094C65C87FF1FF494FF1F34
:1031E000C894FF1F7C92FF1F17B7D13878230100C6
:1031F000E487FF1FFC18010000190100EC18010012
:103200000000FA430000FAC318CCFF1F5C92FF1FB6
:103210009492FF1F00007A44AC170100D4180100FB
:10322000E01801003C93FF1F2DE9F043AB4D2B68E4
:1032300083B0002B00F08780A94CAA4EE36FAA4F01
:10324000A74D012B00F0BF80D4F88030DFF89082CA
:10325000012B00F0ED80D8F85850D7F80090D8F83E
:10326000548005FB08F54FF47A7000FB05F009F077
:10327000D5FB9E49DFF86C820546484609F022FCE2
:10328000294609F0D3FC9A4909F01CFC09F0F6FD27
:10329000632830604BDD2846944909F0C7FC64235D
:1032A000C8F80030934B38601B68002B48D0E36FA0
:1032B0008B4D012B00F0ED80032B00F0FD80022BE5
:1032C00000F0008102218C4806F0B4FD8B4B186899
:1032D00008F04EFF022402460B460094884807F08F
:1032E00097F82146874806F0A5FD2146824806F05A
:1032F000A1FD3168824807F083F80621824806F074
:1033000099FD3868794909F0DDFB08F031FF009438
:1033100002460B467A4807F07BF803217B4806F00B
:1033200089FD774803B0BDE8F04307F019B80028DD
:10333000BCBF0023C8F800306E4B1B68002BB6D111
:1033400003B0BDE8F0837248654CFEF743FB71495A
:10335000A76EE66E09F0B6FB09F0B6FD226F636F4B
:10336000D21B9B1B80B29342A0EB0700C0F29D8052
:1033700003FB00F393FBF2F333445A4E5E48336091
:10338000022106F057FD31685D48574F07F038F8C5
:103390000221594806F04EFD3268A06D636D02FBB4
:1033A00000F003FB00F000EB8000400009F036FB6A
:1033B0004E4909F03BFC01232B60E36F3860012B81
:1033C000474D7FF441AF5248FEF704FB5149D5F811
:1033D0006890D5F86C8009F075FB09F075FD2A6FCF
:1033E0006B6FC9EB0202C8EB030380B29A42C9EBD0
:1033F00000006CDD03FB0000531C90FBF3F303EBB8
:103400000800A26D636D306002FB00F003FB00F06A
:1034100000EB8000400009F001FB3449DFF8C08078
:1034200009F004FCD4F880303860012B7FF413AF2E
:103430003748FEF7CFFA3749D8F86890D8F86C507B
:1034400009F040FB09F040FDD8F87020D8F874303E
:10345000D4F85480C9EB02025B1B80B29A42C9EBDC
:103460000000C6BF03FB00000132584390FBF2F09E
:103470002844A56D00FB05F008FB00F000EB800080
:10348000400009F0CBFA194909F0D0FB81463860B9
:10349000E7E6214B1B68012B4FF00A010CBF1F48C8
:1034A0001F4806F0C7FCEB6F06E703FB0000531C48
:1034B00090FBF3F3334460E710211A4806F0BAFC9E
:1034C000E36FFCE60721184806F0B4FCFAE603FBBC
:1034D00000F393FBF2F303EB080092E77892FF1FEF
:1034E0004493FF1F3887FF1F9492FF1FE4388E3EDE
:1034F0000000C8424887FF1F782301008C92FF1FFD
:10350000E487FF1F1019010048190100501901003C
:103510000095FF1F00007A445C87FF1F141901000B
:10352000201901002C1901004019010030B51120AB
:1035300083B005F081F8012818D0122005F07CF83E
:10354000012813D000210B2005F070F800210C2079
:1035500005F06CF80021152005F068F82649274B86
:103560000120002208701A6003B030BD012115202F
:1035700005F05CF8224A234C234B1268D4F88410DF
:1035800001921B68019A1D4D0B4493424FF00201BA
:10359000296005D901210C2005F048F803B030BDA1
:1035A000D4F88C0009F03AFA184B196809F028FC95
:1035B0000028EFD101210B2005F038F894F8C03035
:1035C00003242C6043B10C4B02221A7000210C2002
:1035D00005F02CF803B030BD122005F02DF80128BD
:1035E00008BF054B4FF0110008BF1C7005F024F810
:1035F0000128EBD1E7E700BFB894FF1FF094FF1F4D
:1036000018CCFF1F4493FF1FFC94FF1F8C92FF1FD9
:10361000F0B5684E684D34682B689C4287B039D04D
:1036200014F0010155D014F0020149D014F0040146
:103630003DD0E3070ED52B68DF070BD45F4F3A6808
:10364000002A00F082805E4B1B680193019B93422D
:103650006DD83468A0070DD52B6899070AD4594F47
:103660003A68002A4CD0564B1B680393039B934245
:1036700038D8346862070DD52B685B070BD4524FDE
:103680003A68002A7ED04E4B1B680593059B9342F7
:1036900068D834680CB107B0F0BD2146162004F09C
:1036A00045FE2146172004F041FE07B0F0BD05207D
:1036B00004F03CFE2B68346803F0FB032B60B8E792
:1036C000172004F033FE2B68346803F0FD032B60F1
:1036D000ACE7162004F02AFE2B68346803F0FE03E2
:1036E0002B60A0E7394B1720D3F8881004F01EFE9A
:1036F0002B68346843F0020300222B603A60B9E77C
:10370000334806F02DFE0C21324806F093FB30487A
:1037100006F026FEFF21172004F008FE284B2E4A53
:1037200019680291029912680A443A609CE7274B93
:103730001620D3F8881004F0F9FD2B68346843F0A4
:10374000010300222B603A6084E7FF21162004F079
:10375000EDFD1B4B204A19680091009912680A443C
:103760003A6071E7194B0520D3F8881004F0DEFDAC
:103770002B68346843F0040300222B603A60002C6D
:1037800089D18AE7124806F0EBFD0C21134806F0B8
:1037900051FB0F4806F0E4FDFF21052004F0C6FDB3
:1037A000074B0D4A19680491049912680A443A605B
:1037B0006AE700BFF094FF1F0894FF1F8C94FF1F5F
:1037C00018CCFF1F9094FF1F9494FF1F4493FF1F7A
:1037D000E487FF1F541901007C87FF1F6419010053
:1037E0002DE9F047544EDFF87481DFF874913068AA
:1037F000524D00220F2103F051FF0023012222210C
:103800004F48C8F80030C9F8002006F013FBD8F87C
:103810000030132B22DC40F6E44700213068B5F875
:1038200098A003F08DFF00210446306803F00EFFDE
:10383000A4B2012107FB04F4B4FBF0F44148544462
:10384000A5F8984006F0F6FA642004F02BFFD8F8AB
:1038500000300133132BC8F80030DEDDB5F89830A6
:10386000394A3A48A2FB03129B1A02EB5303C3F3F3
:103870000F131946A5F8983006F0C2FD1D213448F3
:1038800006F0D8FA0221334806F0D4FA2F4806F0A1
:1038900067FD00231A460E213068C8F8003003F097
:1038A000FDFE022322212648C9F8003006F0C2FAA4
:1038B000D8F80030132B22DC40F6E44700213068B2
:1038C000B5F89A9003F03CFF00210446306803F0FD
:1038D000BDFEA4B2012107FB04F4B4FBF0F41948C7
:1038E0004C44A5F89A4006F0A5FA642004F0DAFEEC
:1038F000D8F800300133132BC8F80030DEDDB5F8FE
:103900009A30114A1148A2FB03129B1A02EB53038F
:10391000C3F30F131946A5F89A3006F071FD1D2167
:103920000D4806F087FA02210A4806F083FA074894
:10393000BDE8F04706F014BDC894FF1F4493FF1F75
:1039400074190100B819010087611886E487FF1F08
:103950009819010078230100BC1901008892FF1F0B
:103960005C87FF1FF8B5874B874C884F1B68386D05
:1039700040F2513108222160E271002B00F0FD80FD
:1039800009F04CF8396A054609F09CF8804909F0BD
:1039900099F809F099FA80B2031263727D4A7E4B5E
:1039A00012681B68B9692072A37228461B1215128F
:1039B000E3722273657309F085F8754909F082F89E
:1039C00009F082FA83B21A126F497448A373E27342
:1039D00003F086FC724B734A1B6812886A49A27214
:1039E000DDB2257205EB850603EB8305760045F312
:1039F000D71540F2553E12121B1226736573082626
:103A000000256648C4F800E0E2726372E671A573AF
:103A1000E57303F065FC40F2563363482360E671BA
:103A2000FDF756FF614909F04DF809F04DFA207293
:103A30005D48FDF74DFF5D4909F044F809F044FA8F
:103A40005B4A5A49C0F307231068637209F0EEF825
:103A500009F014FA40FA06F203465348E272A372E0
:103A6000FDF758FF4A4909F02DF809F02DFA2073A7
:103A70004D48FDF74FFF464909F024F809F024FAB4
:103A80004149A573C0F3072344486373E57303F00A
:103A900027FC022004F006FE464A474B1178507876
:103AA000217291786072D2789878A172597893F8DF
:103AB00000E0E2726173DA78A07340F25A3332495F
:103AC0003648E67184F80CE0E273236003F008FCEA
:103AD0003A4B2D491A785878227260729A78D878C1
:103AE000A272E0721A79987993F805E02273A073B4
:103AF000DA792A4884F80DE040F25E33E2732360FD
:103B0000E67103F0EDFB022004F0CCFD2C4B1E49C6
:103B10001A785878227260729A78D878A272E07215
:103B20001A79987993F805E02273A073DA791B4823
:103B300084F80DE04FF45C73E2732360E67103F0E8
:103B4000CFFB022004F0AEFDBA6DE67142FA06FE2C
:103B5000012340F25F370226227399222572657293
:103B600084F80DE02760A672E372E373A27306493E
:103B70000A48BDE8F84003F0B3BB08F04FFF79698D
:103B8000054601E78092FF1FE094FF1F4493FF1F4B
:103B900000002041C494FF1F6492FF1F70CAFF1FE2
:103BA0003887FF1F4487FF1F0095FF1F0000C84292
:103BB0008C92FF1F4093FF1FBC94FF1F2887FF1F9D
:103BC0006087FF1FF0B59C4C9C4D83B006F0CCF88D
:103BD00023682860042B00F0AC82022B4BD0082B0A
:103BE00000F09280072B40F05181332801F0F283DE
:103BF00000F3AD80312801F00084322840F0B0801D
:103C000006F0EEF8002840F33F818D488D4E06F017
:103C100039FD08F003FF8C4908F054FF61230122AD
:103C2000F06322602B601846A0F152031F2B01F2B3
:103C3000AF83DFE813F02E0BAD0BAD0BAD0BAD0B6F
:103C4000AD0BAD0BAD0BAD0BAD0BAD0BAD0BAD0BB4
:103C5000AD0BAD0BB203CB0C3905A7057304AD0B4F
:103C6000AD0BAD0B2604AD0BCE0CAD0BAD0BAD0B00
:103C7000AD0BAD0B300BA0F13102422A70D8DFE85A
:103C800012F0F006FC060A0717072A0739076F002B
:103C90006F006F006F006F006F006F006F006F00AC
:103CA0006F006F006F006F006F006F006F006F009C
:103CB0006F006F006F006F006F006F006F006F008C
:103CC0006F006F006F006F006F006F006F006F007C
:103CD0006F006F006F006F006F006F006F006F006C
:103CE0006F006F006F00DD066F006F006F006F00E8
:103CF0006F006F006F006F006F006F006F006F004C
:103D00006F006B006F00E306322800F02F837128EC
:103D100022D0312824D106F063F8002840F3CF8563
:103D20004748484E06F0AEFCC0B286F84000022874
:103D300094BF01460021726C444888BF86F8401049
:103D4000FDF7CAFD01236920236028606CE7342851
:103D500001F02E83712803D1002373202360286093
:103D6000002B08BF73280CBF01200020002860D062
:103D7000334806F0F5FA0421354806F05BF8304880
:103D800006F0EEFA1021334806F054F82C4806F0FD
:103D9000E7FA1321304806F04DF8304B28481968EF
:103DA00006F02EFB264806F0DBFA14212C4806F01C
:103DB00041F8234806F0D4FA1E212A4806F03AF8C2
:103DC0001F4806F0CDFA1521274806F033F81C48A5
:103DD00006F0C6FA1E21254806F02CF8184806F011
:103DE000BFFA2021224806F025F8154806F0B8FA57
:103DF0001921204806F01EF8114806F0B1FA1221E8
:103E00001D4806F017F80E4806F0AAFA0F211B48C5
:103E100006F010F80A4806F0A3FA0D21184806F03B
:103E200009F8074806F09CFA164A002101231160A0
:103E3000236003B0F0BD00BF9892FF1F6092FF1F88
:103E4000E487FF1F4493FF1F6F12833A0095FF1F03
:103E5000F4210100FC210100102201002087FF1F36
:103E6000242201003C2201005C2201007422010096
:103E700094220100B8220100D4220100E8220100AE
:103E8000F82201004887FF1F23682868062B40F0AE
:103E90008D80A0F13102402A3FF662AF01A151F8B6
:103EA00022F000BFC9480000F54800002149000089
:103EB000474900006D4900008B490000294A000075
:103EC000613D0000613D0000613D0000613D00007A
:103ED000613D0000613D0000613D0000613D00006A
:103EE000613D0000613D0000613D0000613D00005A
:103EF000613D0000613D0000613D0000613D00004A
:103F0000613D0000613D0000613D0000613D000039
:103F1000613D0000613D0000613D0000613D000029
:103F2000613D0000613D0000613D0000613D000019
:103F3000613D0000613D0000613D0000613D000009
:103F4000613D0000613D0000613D0000613D0000F9
:103F5000613D0000613D0000613D0000613D0000E9
:103F6000613D0000613D0000613D0000613D0000D9
:103F7000613D0000613D0000613D0000613D0000C9
:103F8000613D0000613D0000613D0000613D0000B9
:103F9000613D0000613D0000613D0000613D0000A9
:103FA000613D0000593D000023682868052B15D1AC
:103FB000332801F0498240F34781352801F06B82B4
:103FC000C1F2538271287FF4CBAEDC4A0023732008
:103FD000136023602860C3E623682868032B40F041
:103FE000A480A0F13002422A3FF6BAAE01A151F8F6
:103FF00022F000BF014100009D5100004B50000025
:104000007350000095500000B7500000C5510000EB
:10401000ED5100000B5200002F520000613D0000E6
:10402000613D0000613D0000613D0000613D000018
:10403000613D0000613D0000613D0000613D000008
:10404000613D0000613D0000613D0000613D0000F8
:10405000613D0000613D0000613D0000613D0000E8
:10406000613D0000613D0000613D0000613D0000D8
:10407000613D0000613D0000613D0000613D0000C8
:10408000613D0000613D0000613D0000613D0000B8
:10409000613D0000613D0000613D0000613D0000A8
:1040A000613D0000613D0000613D0000613D000098
:1040B000613D0000613D0000DF500000F74B000053
:1040C00057520000755200003F5100005D51000042
:1040D000AD4B0000D14B0000613D0000613D000090
:1040E000613D0000613D0000613D0000613D000058
:1040F000613D0000613D0000FD50000009510000DD
:1041000005F06EFE002841F34C818D488D4E06F07F
:10411000B9FA01270346014662228B48736527607E
:104120002A60FDF7D7FB23682868012B7FF418AEBF
:104130007AE5A0F13102402A3FF612AE01A151F812
:1041400022F000BF0F4B0000274B00002B4B00005C
:10415000514B0000914B0000554B0000674B000095
:104160006B4B00006F4B0000613D0000613D0000A3
:10417000613D0000613D0000613D0000613D0000C7
:10418000613D0000613D0000613D0000613D0000B7
:10419000613D0000613D0000613D0000613D0000A7
:1041A000613D0000613D0000613D0000613D000097
:1041B000613D0000613D0000613D0000613D000087
:1041C000613D0000613D0000613D0000613D000077
:1041D000613D0000613D0000613D0000613D000067
:1041E000613D0000613D0000613D0000613D000057
:1041F000613D0000613D0000613D0000613D000047
:10420000613D0000613D0000613D0000613D000036
:10421000613D0000613D0000613D0000613D000026
:10422000613D0000613D0000613D0000613D000016
:10423000613D0000613D0000613D0000613D000006
:10424000613D0000593D0000312801F0EC8032282A
:104250007FF486AD05F0C4FD00287FF7BDAE384879
:10426000384E06F00FFA01226B23C6F88C0022604C
:104270002B6001E005F078FD05F0B2FD0028F9D1D2
:104280002F4806F06DF82E4806F06AF82C4806F024
:1042900067F82B4806F064F8294806F061F82121F8
:1042A0002A4805F0C7FD264806F05AF81521284887
:1042B00005F0C0FDD6F88410214806F0A1F80221CF
:1042C000244805F0B7FD1E4806F04AF81E21224892
:1042D00005F0B0FDD6F88C10194806F091F80321CE
:1042E0001E4805F0A7FD164806F03AF81E211C48A6
:1042F00005F0A0FDD6F88810114806F081F81048A6
:1043000006F02EF81D21174805F094FDD6F8A410EC
:104310000B4806F075F80A4806F022F81E211248EC
:1043200005F088FDD6F8A810054806F069F804489D
:1043300006F016F8052323607BE500BFA894FF1F55
:10434000E487FF1F4493FF1F0095FF1F6C1C0100B3
:10435000901C01007C1B0100A81C0100FC1801003E
:10436000C81C0100E81C0100081D010005F038FD13
:10437000002840F3A082B248B24E06F083F908F05C
:104380004DFBB14908F09EFB0346024696F84010EB
:10439000AE487364D4E405F0E7FC05F021FD054662
:1043A0000028F8D1A648A74E05F0DAFFA44805F08A
:1043B000D7FFA34805F0D4FFA14805F0D1FFA048DE
:1043C00005F0CEFF1F21A24805F034FD9C4805F002
:1043D000C7FF1C219F4805F02DFD706A9E4908F01B
:1043E00071FB07F0C5FE009502460B46944806F0A7
:1043F0000FF80221994805F01DFD914805F0B0FF26
:104400002321974805F016FDF06B934908F05AFBFD
:1044100007F0AEFE009502460B46894805F0F8FF0E
:1044200002218E4805F006FD854805F099FF192107
:104430008C4805F0FFFCB06B07F09AFE02250B4696
:10444000024600957E4805F0E3FF2946864805F0C0
:10445000F1FC7B4805F084FF1921844805F0EAFC53
:10446000B6F8B810764805F0CBFF0321804805F078
:10447000E1FC734805F074FF07232360D9E405F0DD
:1044800073FC05F0ADFC05460028F8D16C486D4E74
:1044900005F066FF6A4805F063FF694805F060FFB4
:1044A000674805F05DFF664805F05AFF1521714821
:1044B00005F0C0FC624805F053FF18216E4805F076
:1044C000B9FC2B460A2296F840105D4805F058FFCB
:1044D0005B4805F045FF2821684805F0ABFC706C8F
:1044E0005D4908F0EFFA07F043FE00950B460246DF
:1044F000534805F08DFF0221584805F09BFC5048B9
:1045000005F02EFF13215E4805F094FC4C4805F0A1
:1045100027FF082323608CE405F026FC05F060FCEF
:1045200005460028F8D14648464E05F019FF444894
:1045300005F016FF424805F013FF414805F010FF53
:104540003F4805F00DFF11214E4805F073FC3C4833
:1045500005F006FF28214C4805F06CFC70693E49C7
:1045600008F0B0FA07F004FE009502460B46344806
:1045700005F04EFF0221394805F05CFC304805F09B
:10458000EFFE1621414805F055FCF069324908F06C
:1045900099FA07F0EDFD00950B460246284805F014
:1045A00037FF02212D4805F045FC254805F0D8FECF
:1045B000D6F8B030002B32DD1D21354805F03AFC2D
:1045C000F06D08F02BFA334908F07CFA07F0D0FDC3
:1045D000022502460B460095194805F019FF0121F6
:1045E0002D4805F027FC164805F0BAFE1F212B4880
:1045F00005F020FC306E08F011FA264908F062FA46
:1046000007F0B6FD009502460B460D4805F000FF89
:104610000121214805F00EFC094805F0A1FE1121F9
:104620001F4805F007FCD6F8B030052B00F2608675
:10463000DFE813F095069A065A06A906A4069F0617
:10464000E487FF1F4493FF1F6F12833A0095FF1FFB
:10465000C81B0100E81B010000007A44541A010045
:10466000081C01002C1C0100481C01004C1C01000E
:10467000681C0100BC2201000C1A0100281A01006C
:10468000581A0100602201006C1A0100981A0100FA
:10469000B01A0100CDCCCC3D4C1F0100D01A010056
:1046A000F01A010005F060FB05F09AFB0028F9D133
:1046B000BF48C04E05F054FEBD4805F051FEBC4851
:1046C00005F04EFEBA4805F04BFEB94805F048FE2D
:1046D0001F21B94805F0AEFBB54805F041FE1E218B
:1046E000B64805F0A7FBB24805F03AFE1A21B448D7
:1046F00005F0A0FBF36F022B00F03787032B00F0CF
:104700002B87012B00F03A870921AE4805F092FB78
:10471000A74805F025FE1421AB48A64F05F08AFBFB
:10472000B16FA34805F06CFEA14805F019FE1C21ED
:10473000A64805F07FFBD6F880109D4805F060FE86
:104740009B4805F00DFE1C21A14805F073FBD6F82F
:10475000AC10974805F054FE954805F001FEF56F42
:1047600025F00205012D00F0B1861321994805F0CE
:1047700061FB8F4805F0F4FD02232360FFF759BB6E
:1047800005F0F2FA05F02CFB0028F9D1884805F075
:10479000E7FD874805F0E4FD854805F0E1FD844824
:1047A00005F0DEFD824805F0DBFD13218A4805F0A7
:1047B00041FB7F4805F0D4FD0D21884805F03AFB08
:1047C0007B4805F0CDFD0F21854805F033FB854B77
:1047D0007748196805F014FE754805F0C1FD1321EE
:1047E000814805F027FB814B7148196805F008FEE8
:1047F0006F4805F0B5FD12217D4805F01BFB7D4B90
:104800006B48196805F0FCFD694805F0A9FD112108
:10481000794805F00FFB794B6548196805F0F0FD04
:10482000634805F09DFD0E21754805F003FB614BC3
:104830005F48D3F8A01005F0E3FD5D4805F090FD5A
:104840001921704805F0F6FA6F4B5948196805F0C0
:10485000D7FD574805F084FD11216C4805F0EAFAB0
:104860006B4B5348196805F0CBFD514805F078FDB6
:104870001021684805F0DEFA674B4D48196805F0CD
:10488000BFFD4B4805F06CFD1C21644805F0D2FAD1
:10489000634B4748196805F0B3FD454805F060FDD6
:1048A00013214C4805F0C6FA414805F059FD042390
:1048B0002360FFF7BEBA23682868FFF793B93D4E1F
:1048C00096F84000FFF733BA05F08AFA00287FF720
:1048D0006BAB3748374E05F0D5FE08F09FF85149CD
:1048E00008F0A4F965230122706122602B6018464C
:1048F000FFF79AB905F074FA00287FF755AB2C48FA
:104900002C4E05F0BFFE08F089F8464908F08EF9F4
:1049100065230122F06122602B601846FFF784B9FD
:1049200005F05EFA00287FF73FAB2148214E05F0E5
:10493000A9FE00EB8000430001226520F3652260A0
:104940002860FFF771B905F04BFA00287FF72CAB10
:104950001748184E05F096FE00EB80004300012238
:104960006520336622602860FFF75EB9114AD2F8ED
:10497000B0300133052BC8BF0023C2F8B03001238B
:10498000652023602860FFF74FB905F029FA002859
:104990007FF70AAB0648074E05F074FE6523012237
:1049A000C6F8B40022602B601846FFF73DB900BF7F
:1049B000E487FF1F4493FF1F0C1E01002C1E010003
:1049C0004C1E0100C41E0100D01E0100E81E0100A3
:1049D000081F0100581A0100281D01003C1D01009C
:1049E0004C1D01008894FF1F5C1D0100F494FF1F03
:1049F000701D0100D894FF1F841D0100DC94FF1F6F
:104A0000981D0100A81D0100AC94FF1FC41D0100EA
:104A1000A894FF1FD81D01008492FF1FEC1D010008
:104A20007087FF1F00007A447A4B93F8C020002A59
:104A300000F03F85002283F8C020A0E7FEF7D0FEFB
:104A400023682868FFF7CBB8724AD36F0133032B72
:104A5000C8BF0023D3670123632023602860FFF7CA
:104A6000E3B86C4EB36FB3FA83F35B0901226320A2
:104A7000B36722602860FFF7D7B8664ED6F880305B
:104A8000B3FA83F35B0901226320C6F88030226009
:104A90002860FFF7C9B80123236005F0A1F90028B9
:104AA000D9DD5D485B4E05F0EDFDC6F8AC00D2E700
:104AB0000123236005F094F9002807DD5648554E80
:104AC00005F0E0FD07F0AAFFC6F894006320286017
:104AD0002368FFF787B80123236005F081F90028D8
:104AE000F4DD4D484B4E05F0CDFD07F097FFC6F8BD
:104AF0009000EBE70123236005F072F90028E5DD63
:104B00004548444E05F0BEFDA6F8BA00DEE7434A2C
:104B10001368B3FA83F35B090121642013602160F9
:104B20002860FFF781B83E4AF2E73E4A3E4F1368DD
:104B3000002B0CBF012300234FF001001360206005
:104B400040F0F484034664222A606420FFF747B8EB
:104B5000364ADDE7012336482360FCF729FD354A54
:104B600023681060EFE7344AD2E7344AD0E70123E4
:104B7000236005F035F9002800F3A084304B1A6853
:104B8000042AC4BF02221A6064232B602368DCE776
:104B9000204ED6F8A030B3FA83F35B0901226420DB
:104BA000C6F8A03022602860FFF73EB805F018F97B
:104BB00000280DDD1848174E05F064FD07F02EFFA4
:104BC000204908F033F801226223306222602B6012
:104BD00005F006F900280EDD0F480E4E05F052FDD7
:104BE00007F01CFF174908F021F801226223C6F8DC
:104BF000BC0022602B6005F0F3F8002840F3D1835D
:104C00000548044E05F03EFD01226223B066226095
:104C10002B601BE04493FF1FE487FF1F8894FF1F56
:104C2000F494FF1FD894FF1F9892FF1FDC94FF1F7E
:104C30000095FF1FAC94FF1FA894FF1F8492FF1FD5
:104C40007087FF1F00007A4405F08EF805F0C8F861
:104C500005460028F8D1C24805F082FBC04805F09F
:104C60007FFBBF4805F07CFBBD4805F079FBBC48E5
:104C700005F076FB1521BB4805F0DCF8B84805F0D7
:104C80006FFB1421B84805F0D5F8B54805F068FB6E
:104C90001B21B64805F0CEF8B14805F061FB1321A1
:104CA000B34805F0C7F8AE4805F05AFBAC4805F02C
:104CB00057FBAB4805F054FB2021AE4805F0BAF88D
:104CC000F068AD4907F0FEFE07F052FA0095024683
:104CD0000B46A34805F09CFB0221A84805F0AAF862
:104CE0000221A74805F0A6F89D4805F039FB2121CF
:104CF000A44805F09FF830699F4907F0E3FE07F0EC
:104D000037FA009502460B46954805F081FB0221D3
:104D10009A4805F08FF80221994805F08BF89048E1
:104D200005F01EFB1F21984805F084F8B06A07F0D3
:104D30001FFA022702460B460097894805F068FBD8
:104D40000121924805F076F839468D4805F072F851
:104D5000834805F005FB20218D4805F06BF8F06ACB
:104D600007F006FA009702460B467D4805F050FB17
:104D70000121864805F05EF83946814805F05AF869
:104D8000774805F0EDFA2321824805F053F8B06C1E
:104D9000794907F097FE07F0EBF9009502460B46BC
:104DA0006F4805F035FB3946744805F043F839463D
:104DB000734805F03FF86A4805F0D2FA1F2176489B
:104DC00005F038F8F06C6C4907F07CFE07F0D0F97C
:104DD000009502460B46624805F01AFB39466748C3
:104DE00005F028F83946664805F024F85C4805F0D7
:104DF000B7FA1921694805F01DF8B16D584805F05A
:104E0000FFFA3946664805F015F839465C4805F062
:104E100011F8534805F0A4FA1821624805F00AF881
:104E2000706E07F0FBFD604907F04CFE07F0A0F93B
:104E3000009702460B464A4805F0EAFA01215B4812
:104E400004F0F8FF39464E4804F0F4FF444805F0FA
:104E500087FA2B21564804F0EDFFB069464907F068
:104E600031FE07F085F9009502460B463C4805F0F7
:104E7000CFFA3946414804F0DDFF3946404804F096
:104E8000D9FF374805F06CFA1F214A4804F0D2FFD9
:104E9000716D334805F0B4FA3946394804F0CAFF59
:104EA0002F4805F05DFA2021434804F0C3FF316D1F
:104EB0002B4805F0A5FA3946314804F0BBFF2848D5
:104EC00005F04EFA10213D4804F0B4FFB16E2448BD
:104ED00005F096FA3946294804F0ACFF39462848CF
:104EE00004F0A8FF1E4805F03BFA1321344804F0F3
:104EF000A1FFF16E1A4805F083FA0121314804F050
:104F000099FF39461E4804F095FF154805F028FA28
:104F100010212D4804F08EFF316F114805F070FA12
:104F20003946164804F086FF3946154804F082FFDA
:104F30000B4805F015FA1421244804F07BFF716F2B
:104F4000074805F05DFA01211E4804F073FF394659
:104F50000B4804F06FFF024805F002FA162137E013
:104F6000E487FF1F941F0100AC1F0100C41F010054
:104F7000581A0100E01F010000007A44541A010091
:104F800078230100042001002820010028160100D8
:104F9000482001006C20010090200100B020010099
:104FA000CC200100D0200100CDCCCC3D4C1F010015
:104FB000EC20010018210100382101005C210100D2
:104FC0007021010084210100882101009C21010041
:104FD000BA4804F02FFF306AB94907F073FD07F0B3
:104FE000C7F8009502460B46B64805F011FA394657
:104FF000B54804F01FFF3946B44804F01BFFB14820
:1050000005F0AEF92421B24804F014FFD6F8BC0034
:10501000AB4907F057FD07F0ABF800950B46024689
:10502000A84805F0F5F93946A74804F003FF3946CA
:10503000A64804F0FFFEA34805F092F9A14805F048
:105040008FF903232360FEF7F4BE04F0C9FE0028A5
:1050500040F3A7819B489F4E05F014FB07F0DEFC50
:10506000974907F0E3FD01226223306122602B6043
:10507000ECE504F0B5FE002840F393819148954E8D
:1050800005F000FB07F0CAFC01226223B062226037
:105090002B60DBE504F0A4FE002840F38281894800
:1050A0008C4E05F0EFFA07F0B9FC01226223F062A2
:1050B00022602B60CAE504F093FE002840F3718162
:1050C0008048844E05F0DEFA07F0A8FC7C4907F022
:1050D000ADFD01226223B06422602B60B6E504F0CE
:1050E0007FFE002840F35D8176487A4E05F0CAFACB
:1050F00001226223306522602B60A7E50022732322
:1051000022602B60FEF734BE734B7048714E002254
:1051100002211A6004F08EFE6A4805F021F90B2185
:105120006E4804F087FE0221684804F083FE65485B
:1051300005F016F90122622322602B6086E504F057
:105140004FFE002840F32D815E48624E05F09AFA2A
:1051500001226223706722602B6077E5FCF7E4FF91
:1051600002215A485B4E04F065FE564805F0F8F8F7
:105170000221564804F05EFE524805F0F1F8022183
:10518000524804F057FE4F4805F0EAF817215448FA
:1051900004F050FE4B4805F0E3F8C4E704F020FEAD
:1051A000002840F3FE8047484A4E05F06BFA07F0AE
:1051B00035FC434907F03AFD01226223F06022608A
:1051C0002B6043E504F00CFE002840F3EA803D48E4
:1051D000404E05F057FA07F021FC394907F026FD4B
:1051E00001226223F06422602B602FE504F0F8FDB9
:1051F000002840F3D6803348364E05F043FA0122AA
:105200006223B06522602B6020E504F0E9FD0028F0
:1052100040F3C7802B482F4E05F034FA00EB800096
:10522000430001216222736621602A600EE504F0CA
:10523000D7FD002840F3B5802248264E05F022FA1B
:1052400007F0ECFB1E4907F0F1FC01226223B0617C
:1052500022602B60FAE404F0C3FD002840F3A18033
:1052600018481C4E05F00EFA01226223F0662260F7
:105270002B60EBE404F0B4FD002840F39280114869
:10528000144E05F0FFF901226223306722602B6083
:10529000DCE404F099F8C42200210E4802F0FAFE82
:1052A0002868104AA0F1730001210023B0FA80F0B1
:1052B000400911602360FEF759BD00BFB421010011
:1052C00000007A44E487FF1F541A0100782301008C
:1052D000CC2101004493FF1F7892FF1F001A0100A8
:1052E000E81901004887FF1F0C21BB4804F0A2FD0C
:1052F000BA48BB4D05F034F8D6F8B030002B12DDBB
:105300001821B84804F096FDD5F8B410B34805F05C
:1053100077F80221B44804F08DFDB04805F020F87C
:10532000AE4805F01DF81B21B04804F083FD96F847
:10533000C030012B15BF12211421AD48AD4804F037
:1053400079FDA64805F00CF81321AB4804F072FD76
:10535000A24805F005F806232360FEF76ABD0D217B
:10536000A64804F067FDC3E70C21A54804F062FDE0
:10537000BEE70B21A34804F05DFDB9E70D21A2486B
:1053800004F058FDB4E70D21A04804F053FDAFE749
:105390002368002B08BF73280CBF01200020FEF7F4
:1053A000E5BC23682868012B7EF4DAACFEF73CBC30
:1053B00004F016FD00287EF767AD8848884E05F09A
:1053C00061F961230122A6F8B80022602B6018461B
:1053D000FEF72ABC04F004FD00287EF755AD7F4897
:1053E0007F4E05F04FF907F019FB61230122B063EE
:1053F00022602B601846FEF717BC04F0F1FC002871
:105400007EF742AD7548764E05F03CF907F006FB95
:105410007F4907F057FB61230122706222602B60F5
:105420001846FEF701BC04F0DBFC00287EF7D4AD83
:105430006A486B4E05F026F901226B23C6F88400FA
:1054400022602B60FEF718BF04F0CAFC00287EF72C
:10545000C3AD6248624E05F015F901226B23C6F810
:10546000880022602B60FEF707BF04F0B9FC00281B
:105470007EF7B2AD59485A4E05F004F9654BC6F8AF
:10548000A40002221A60FDF7B5F901226B23226005
:105490002B60FEF7F1BE04F0A3FC00287EF79CAD64
:1054A0004E484F4E05F0EEF85A4BC6F8A8000322BE
:1054B000E8E7012283F8C020FFF761BA474805F00A
:1054C000E1F8554B02461860FFF75ABB1C215348C0
:1054D00004F0B0FCD7F89400514907F0F3FA06F055
:1054E00047FE009502460B463C4804F091FF05211B
:1054F0004C4804F09FFC394804F032FFFD6F012D49
:1055000045D0032D7FF431A91C21474804F092FCBB
:10551000B6F8BA10314804F073FF0321434804F091
:1055200089FC2E4804F01CFFFFF71FB9404B0026F2
:1055300031460B201E6003F079F831460C2003F051
:1055400075F83146142003F071F83146152003F048
:105550006DF83B68FFF7F7BA2021364804F06AFC83
:105560001E4804F0FDFEFFF7D6B81721324804F0BC
:1055700061FC1A4804F0F4FEFFF7CDB81E212F4855
:1055800004F058FC154804F0EBFEFFF7C4B81D21E9
:105590002B4804F04FFCD7F89000214907F092FA0D
:1055A00006F0E6FD00950B4602460C4804F030FF7D
:1055B00005211C4804F03EFC084804F0D1FEFB6FB6
:1055C00023F00203012B9FD0FFF7CFB8044EFFF763
:1055D0003DBB034EFEF750BE241B0100E487FF1FB6
:1055E0004493FF1F601B01007C1B0100801B010016
:1055F0009C1B0100B01B0100581A0100041B010094
:10560000141B0100541B0100441B0100341B01004A
:105610006F12833AA894FF1F7087FF1F281F010095
:10562000CDCCCC3D481F0100701F0100901F010030
:10563000F094FF1F881E0100AC1E0100681E0100CF
:10564000501F010038B5164C164A2368101D12F879
:10565000011F904241EA0323F9D12360124C03F168
:1056600000432360114BDB6F022B11D0104B1B68E2
:10567000012B00D038BD0F4804F072FE21680D48A0
:1056800004F0BEFE03210C48BDE8384004F0D2BB54
:1056900020680A4D07F0C2F92860FDF715FBE5E721
:1056A0001494FF1F9F94FF1FC094FF1F4493FF1F7C
:1056B0008894FF1FE487FF1F082301007C92FF1FCF
:1056C00030B5384C384883B0214601F001FD2368DD
:1056D0003C2B4DD06FF480721344FE2B08D8334B13
:1056E00030491A683248012A18BF0022FBF786FFAA
:1056F000304B1B68012B01D003B030BD2B4B1B6816
:10570000012BF9D12C4B2D481B6801930A22002351
:10571000019904F035FE2268224B002ADB793ADB3E
:105720002749284808F0ACF9264808F0E9F901466D
:10573000244804F07FFB25681A4B15F080451BD1E7
:10574000DB798BB1631920491A7A1E4808F098F961
:105750001C4808F0D5F901461A4804F06BFB0135E6
:10576000E379EDB2AB42EDD8144804F0F9FDC3E79C
:10577000FFF768FF2368ADE7144D124C0FCD0FC43F
:1057800095E8030044F8040B204620F8141915216D
:1057900004F050FBE8E70E490A4822F0604208F0A6
:1057A0006FF9C1E79894FF1F70CAFF1F8894FF1F0D
:1057B0000095FF1F4887FF1F18CCFF1FE487FF1FBE
:1057C000342301009C92FF1F602301004823010045
:1057D0000C23010008B5274804F0C2FD0721264824
:1057E00004F028FB112002F027FF0621F8B123481E
:1057F00004F020FB102002F01FFF062100B3204818
:1058000004F018FB122002F017FF062108B31D4810
:1058100004F010FB132002F00FFF062110BB1A4802
:1058200004F008FB1348BDE8084004F099BD174890
:1058300004F000FB102002F0FFFE06210028DED15C
:10584000134804F0F7FA122002F0F6FE06210028B1
:10585000DDD1104804F0EEFA132002F0EDFE06212F
:105860000028DCD00C4804F0E5FA0248BDE8084006
:1058700004F076BDE487FF1F6C2301007423010050
:105880008423010094230100AC2301007C23010048
:105890008C2301009C230100A423010010B5254C9A
:1058A0002368042B27DC01210B2002F0BFFE01211D
:1058B0000C2002F0BBFE0121142002F0B7FE0121F2
:1058C000152002F0B3FEFF21162002F02FFDFF216C
:1058D000172002F02BFDFF21052002F027FDFF21FC
:1058E000062002F023FD236801330A2B2360C4BF86
:1058F0000023236010BD00210B2002F097FE002141
:105900000C2002F093FE0021142002F08FFE0021F3
:10591000152002F08BFE0021162002F007FD002169
:10592000172002F003FD0021052002F0FFFC0021FA
:10593000D6E700BFF894FF1F2DE9F047294F2A4C06
:1059400000264FF00808102346F0800A00254FF08B
:10595000200C4FF0400E17F8012F2349234884F8FC
:1059600007804FF0C7090136C4F800A084F80890FA
:105970006372E372A572657384F80CC084F80EE05C
:10598000E27301F0ADFC082EDDD1194E022002F0C9
:1059900089FE45F0800A002250234FF0100C4FF092
:1059A000200E4FF0080916F8017F0F490F4884F8C0
:1059B00009C04FF0C708A2726273E372A37384F840
:1059C0000CE0C4F800A0013584F8079084F8088042
:1059D000E77301F085FC022002F064FE4D45D5D14D
:1059E000BDE8F0873B87FF1FE094FF1F70CAFF1FD1
:1059F0002F87FF1F10B5092182B0974803F030F9B7
:105A0000222003F0D5F8954B1B78052B0BD8DFE847
:105A100013F00A010F01140119011E0106000721EC
:105A20008F4803F01DF9222003F0C2F8FF2003F095
:105A3000BFF8FF2003F0BCF88A4CFF2003F0B8F851
:105A40000821894803F00CF92168884804F0D8FC43
:105A5000FF2003F0ADF8FF2003F0AAF8FF2003F0C9
:105A6000A7F80921824803F0FBF821687F4804F079
:105A7000C7FCFF2003F09CF8FF2003F099F8FF20FB
:105A800003F096F80C217B4803F0EAF87A4B1C6887
:105A90000021204607F0D2F9002800F0C1802046FE
:105AA000764907F0C3F806F063FB002402460B4674
:105AB00000946E4804F0ACFCFF2003F079F8FF205E
:105AC00003F076F8FF2003F073F809216C4803F027
:105AD000C7F86C48FBF71EFF06F04AFB009402462D
