:1000000000800020BD010000B58700006D87000062
:100010006D8700006D8700006D8700006D87000010
:100020006D8700006D8700006D870000B5870000B8
:10003000B58700006D87000079A800007DA9000049
:10004000B5870000B5870000B5870000B5870000C0
:10005000B5870000B5870000B5870000B5870000B0
:10006000B5870000B5870000B5870000B5870000A0
:10007000B5870000B5870000B5870000B587000090
:10008000B5870000B5870000B5870000B587000080
:10009000B5870000B5870000B5870000B587000070
:1000A000B5870000B5870000B5870000B587000060
:1000B000B58700009D7C0000A97C0000AD7C00009D
:1000C000B97C0000BD7C0000C17C0000B587000049
:1000D000B5870000B5870000B5870000B587000030
:1000E000B5870000B5870000B5870000B587000020
:1000F000B587000085B00000B5870000559400006A
:10010000B587000021960000B5870000B587000084
:10011000B5870000B5870000B5870000B5870000EF
:10012000B5870000B5870000B5870000B5870000DF
:10013000B5870000B5870000B5870000B5870000CF
:10014000B5870000B5870000B5870000B5870000BF
:10015000B5870000B5870000B5870000B5870000AF
:10016000B5870000AD980000B5870000B587000096
:10017000B5870000B5870000B5870000B58700008F
:10018000B5870000B5870000B5870000B58700007F
:10019000B5870000B5870000B5870000B58700006F
:1001A000B5870000B5870000B5870000B58700005F
:1001B000B5870000B5870000B5870000564B4CF2AC
:1001C000205210B51A804DF628121A8000BF00BFC9
:1001D00008F0F4FA514B4FF010621A60504A9A60DE
:1001E000504ADA60504A136813F4807304D14F49BF
:1001F0000B604FF4A85313604D4B1A78110703D5C9
:100200001A7842F008021A704A4B4B492A221A7097
:100210004A4A4B4B8B4204D252F8040F43F8040B6A
:10022000F8E7484B484900228B4202D243F8042B9E
:10023000FAE74649464A002352F8230041F82300D2
:1002400001336F2BF8D1434B434A802103F8011B44
:100250009342FBD1414B3D4A1A60414B8A221A70AE
:10026000A3F5805324225A70A0221A709A7992071B
:10027000FCD59A79D406FCD43A4A937903F00C035E
:10028000082B384BF9D103221A7140225A719A79FE
:100290009006FCD5334A9179324B4906FBD5324A58
:1002A000324911600221516020221A709A7902F0BD
:1002B0000C020C2AFAD12E4B2E4A1A602E4B2F4AD2
:1002C0001A6000225A60072243F8042C2C4AC3F813
:1002D0000C2D62B608F028FD144B1B68DA0705D513
:1002E000284808F005FB284B284A1A60284B1B7841
:1002F0005B0609D5244C254B22689A4204D121483B
:1003000008F0F6FA002323600CF0A4F908F05CFA78
:100310000AF078FDFEE700BF0E2005403080044063
:10032000823F04000100002B10D0034014D0034092
:1003300002D0074000E007403092FF1F3C2301003D
:100340002087FF1F3092FF1F20D3FF1F0082FF1F57
:100350000000000000E400E05FE400E008ED00E0E1
:100360000050064000400640448004400000030165
:1003700004800440C010050014E000E0FF76010096
:10038000000020205352C45E1CE00340A5C3945AD1
:1003900000F00740FFFFFFFFFFFFFFFFFFFFFFFF32
:1003A000FFFFFFFFFFFFFFFFFFFFFFFFFFFFFFFF5D
:1003B000FFFFFFFFFFFFFFFFFFFFFFFFFFFFFFFF4D
:1003C000FFFFFFFFFFFFFFFFFFFFFFFFFFFFFFFF3D
:1003D000FFFFFFFFFFFFFFFFFFFFFFFFFFFFFFFF2D
:1003E000FFFFFFFFFFFFFFFFFFFFFFFFFFFFFFFF1D
:1003F000FFFFFFFFFFFFFFFFFFFFFFFFFFFFFFFF0D
:10040000FFFFFFFFFFFFFFFFFFFFFFFFDEF9FFFF23
:1004100010B5054C237833B9044B13B10448AFF33E
:1004200000800123237010BD3092FF1F00000000E8
:1004300038230100084B10B51BB108490848AFF339
:1004400000800848036803B910BD074B002BFBD0A0
:10045000BDE81040184700BF000000003492FF1FA5
:10046000382301003092FF1F00000000F0B400F1BB
:100470002C06174F00243146031F00F15C0243F89D
:10048000044FB34241F8047F4FF0000542F8044F97
:10049000F5D100230F4A1049C0F89050C0F894508D
:1004A000C0F89850C0F89C50C0F8A050C0F8B050A8
:1004B000C0F8A420C0F8AC20C0F8A81080F8B8306C
:1004C00080F8B93080F8D030C0F8DC30F0BC70472C
:1004D0000000A040000048430000C8C22DE9F041E0
:1004E0009046CD1D00F1900400F1A00715F8010F12
:1004F00028380BF049FE0A4944F8040F06460CF070
:1005000053F810B1B8F1010F03D0BC42EED1BDE8F1
:10051000F081304603490BF081FD2060F5E700BF14
:10052000000020C200005C422DE9F84381461546D8
:10053000042904D8DFE801F05B729FCE2D00D9F8C2
:10054000004009F13006C84609F16005002701E0C6
:1005500058F8044F306821460CF026F80137214640
:1005600028B1D9F8B4000CF00BF800B13460214682
:1005700028680BF0FBFF04366E4920B120460CF0D2
:1005800013F800B12C600C2F05F10405E0D1BDE893
:10059000F883D0F8D830002BD1D1537A107A03F0F9
:1005A0002F0300EB03200BF0EFFD63490BF0F4FE8B
:1005B000C9F82400EB7AA87A03F02F0300EB03209C
:1005C0000BF0E2FD5C490BF0E7FEC9F828006B7BFD
:1005D000287B03F02F0300EB03200BF0D5FD5649D9
:1005E0000BF0DAFED9F80040C9F82C00A9E7507AE0
:1005F000127AAB7AE97AD9F8004002EB002202EBDA
:10060000034303EB0163C9F8DC306B7B2A7B1B02DD
:1006100003F470631344C9F8D83092E7D0F8D830A7
:10062000002B8CD1537A107A03F02F0300EB0320B8
:100630000BF0AAFD40490BF0AFFEC9F80000EB7AC1
:100640000446A87A03F02F0300EB03200BF09CFD77
:1006500039490BF0A1FEC9F804006B7B287B03F03D
:100660002F0300EB03200BF08FFD33490BF094FEBA
:10067000C9F8080065E7D0F8D830002B7FF45FAFE9
:10068000537A107A03F02F0300EB03200BF07CFD6C
:1006900029490BF081FEC9F80C00EB7AA87A03F027
:1006A0002F0300EB03200BF06FFD23490BF074FECA
:1006B000C9F810006B7B287B03F02F0300EB0320AD
:1006C0000BF062FD1C490BF067FED9F80040C9F839
:1006D000140036E7D0F8D830002B7FF430AF537ACF
:1006E000107A03F02F0300EB03200BF04DFD1249AD
:1006F0000BF052FEC9F81800EB7AA87A03F02F032A
:1007000000EB03200BF040FD0B490BF045FEC9F850
:100710001C006B7B287B03F02F0300EB03200BF006
:1007200033FD05490BF038FED9F80040C9F8200028
:1007300007E700BF0000A04000007A4490F8C00026
:10074000704700BF90F8BC00704700BF90F8C4002D
:10075000704700BF90F8C800704700BF0C2994BFD5
:1007600050F82100002070472DE9F0410B4E8046E3
:10077000041F00F12C0754F8045F314628460BF0A3
:10078000F5FE30B1D8F8B41028460BF00DFF00B1DB
:100790002E46BC42EFD13046BDE8F081000020413A
:1007A0002DE9F041D0F8B4704FF00008041F00F1BB
:1007B0002C0654F8045F394628460BF0F5FE08492C
:1007C00048B128460BF0D2FE414620B128460BF036
:1007D000EBFE00B1A846B442EBD14046BDE8F08143
:1007E0000000A0402DE9F047D0F8B47082464FF0E9
:1007F0000009041F00F12C064FF0000854F8045FB4
:10080000394628460BF0D0FE0C4950B128460BF073
:10081000ADFE30B1484629460BF002FC08F1010854
:100820008146B442EAD1CAF8D48040460BF0ACFC11
:10083000014648460BF0B0FDBDE8F0870000A0403F
:10084000D0F8D400704700BFD0F8D800704700BF80
:10085000F8B50B4F00F1900400F1A00654F8045FC6
:10086000394628460BF082FE064920B128460BF097
:100870009BFE00B12F46B442F0D13846F8BD00BF10
:10088000003C1C46000020C2F8B50B4F00F190045C
:1008900000F1A00654F8045F394628460BF084FEA8
:1008A000064920B128460BF07FFE00B12F46B44226
:1008B000F0D13846F8BD00BF00001CC2000020C2C5
:1008C0002DE9F041002700F1900400F1A0064FF05F
:1008D000000854F8045F0B4928460BF065FE30B160
:1008E000384629460BF09CFB08F101080746B44244
:1008F000EFD140460BF048FC014638460BF04CFD6A
:10090000BDE8F081000020C22DE9F8430026D0F8B0
:10091000B480C0F890608146041F00F12C0754F8A1
:10092000045F414628460BF03FFE094950B1284676
:100930000BF01CFE30B1304629460BF071FB064629
:10094000C9F89000BC42EAD13046BDE8F88300BF48
:100950000000A04003299ABF00EB8100D0F894006A
:10096000002070473E2998BF80F8D010704700BF24
:10097000D0F8DC00704700BF90F8B800704700BFA7
:1009800090F8B900704700BFC0F8CC10704700BFA6
:1009900080F8B810704700BF80F8B910704700BFEA
:1009A00030B50F4CC0F8B41083B020460D460AF0A5
:1009B00093F820460AF090F828460AF08FFF0225A7
:1009C00002460B46009520460AF0DEF820460AF063
:1009D00083F8204603B0BDE830400AF07DB800BF80
:1009E000D487FF1F70B500F561550646043500F148
:1009F00028042046E434FFF739FDAC42F9D106F56E
:100A00008675012428460021FFF7C2FF21462846AB
:100A10000134FFF7A7FF3F2C05F1E405F2D143F6BF
:100A20004C0400250548064A064B35550021306127
:100A30007161B261F361304670BD00BF00007A445D
:100A4000000048430000C8C270B500F56156043686
:100A500000F58674002507E0012520460021E434D6
:100A6000FFF79AFFB4420AD02046FFF785FF00281F
:100A7000F3D02046FFF784FF0028EDD170BD284653
:100A800070BD00BF70B500F58F56183600F586743E
:100A900002E0E434B4420CD02046FFF76DFF054677
:100AA0000028F6D02046FFF763FFC307F1D528469C
:100AB00070BD0025284670BD2DE9F04143F6500376
:100AC00000F56156374600228046C2500436103782
:100AD00000F5867402E0E434B4420DD02046FFF7FE
:100AE0004BFF0028F7D020463D68FFF7A9FEE4340D
:100AF0002844B4423860F1D143F6500358F803005B
:100B0000BDE8F08138B50C6804F00F04E425013429
:100B100005FB0400283015461A46FFF7DFFC012DBF
:100B200000D038BD064809F0D7FF214604480AF036
:100B300023F80B210348BDE8384009F037BD00BF5A
:100B4000D487FF1F18080100F0B50E6806F00F03E8
:100B500006F0F006302E83B00F46044603F101057F
:100B60003DD019DC16B1202E32D10126072D1BD91C
:100B7000E42303FB0544283420460121FFF708FF46
:100B800020460121FFF708FF3A463146204603B0D0
:100B9000BDE8F040FFF7C8BC402E1ED0502E17D144
:100BA000072D4FF00406E3D8012AE1D129460D486C
:100BB000019209F0E1FF019A0B48114609F0F6FC99
:100BC0003146084809F0D8FF064809F085FFCFE70D
:100BD000072DCDD8042ECBDCE6E70326C6E7022698
:100BE000C4E700BFD487FF1F240801002DE9F043AC
:100BF000002383B00646036000F58674012504E0F7
:100C000001353F2D04F1E40466D02046FFF7B4FE21
:100C10000028F5D04E4806F0C1FA29464D4806F0A6
:100C2000BDFA2046FFF770FE0AF058FE02460B465A
:100C3000494806F0B3FA2046FFF796FD8046204665
:100C4000FFF7AEFD074640460AF048FE80463846AC
:100C500089460AF043FE42464B46CDE900013F4833
:100C600006F09CFA00212046FFF774FE0121804621
:100C70002046FFF76FFE074640460AF02FFE8046EB
:100C8000384689460AF02AFE42464B46CDE9000125
:100C9000334806F083FA2046FFF736FE01463068F7
:100CA0000BF0BEF930602046FFF7D2FDB1690BF0C2
:100CB0005DFC002833D12046FFF7E6FDF1690BF01B
:100CC00073FC00289CD02046FFF7DEFD01353F2D48
:100CD000F06104F1E40498D170680BF055FA014614
:100CE00030680BF059FB7169306004460BF05CFC16
:100CF00000B17461316920460BF038FC00B13461F9
:100D00000B2007F08DFF43F64C03F35C60B99BB1F9
:100D100043F64C030122F25403B0BDE8F0832046B1
:100D2000FFF796FDB061C6E753B943F64C030022C6
:100D3000F25403B0BDE8F0830A4806F05DFAE7E735
:100D4000094806F043FA43F64C030022F254F0E758
:100D5000100A010028080100640801007808010059
:100D6000A4080100C0080100F808010070B5114B8B
:100D7000836000F561550646043500F5867402E08F
:100D8000E434AC4213D02046FFF7F6FD0028F7D03C
:100D90002046FFF7E9FCB1680BF0E8FB0028EFD034
:100DA0002046FFF7E1FCE434AC42B060EBD1B06820
:100DB00070BD00BF0000A04070B5002300F5615574
:100DC0000646C360043500F5867402E0E434AC42A4
:100DD00013D02046FFF7D0FD0028F7D02046FFF7BC
:100DE000DFFCF1680BF0E0FB0028EFD02046FFF7B6
:100DF000D7FCE434AC42F060EBD1F06870BD00BFCA
:100E00000068704741607047F8B500F561550F46BE
:100E10001646043500F5867402E0E434AC420FD087
:100E20002046FFF7A9FD0028F7D020463946FFF7F6
:100E3000ABFD20463146E434FFF7B2FDAC42EFD1C2
:100E4000F8BD00BF2DE9F84343F6480300F56155AE
:100E50000027C7502E462A4A2A4B426280464FF04E
:100E6000000903620435083600F5867402E0E434B4
:100E7000A54213D02046FFF77FFD0028F7D0336846
:100E8000013333602046FFF71BFD1F490BF08CFB3D
:100E900088B9E434A54207F10107EBD143F64803D2
:100EA00058F80300C01B0BF06FF9014648460BF0E1
:100EB00073FABDE8F8832046FFF702FD0146484675
:100EC0000BF0AEF881462046FFF7DEFCD8F8201084
:100ED0000BF06AFB70B92046FFF7BAFCD8F8241073
:100EE0000BF044FB0028C2D02046FFF7B1FCC8F845
:100EF0002400BCE72046FFF7C7FCC8F82000EAE75B
:100F000000C0794400C079C400008CC2006A7047F8
:100F1000406A7047F8B500F561550746002604356C
:100F200000F5867402E0E434AC420FD02046FFF7AF
:100F300023FD0028F7D02046FFF754FC0146304639
:100F40000BF06EF8E434AC420646EFD143F64803AA
:100F5000F8580BF019F9014630460BF01DFAF8BDB0
:100F60002DE9F04F91B00446C8480D91154606F0A2
:100F7000BDF8C64806F0BAF8C44806F0B7F843F61C
:100F800048032046E658FFF797FD81462068D4F8CD
:100F900004B00AF0A3FCCDE90E012046FFF7BAFF2A
:100FA00082462046D4F80C80A768FFF74BFF0AF072
:100FB00095FCCDE90A01394640460BF02FF8B449BB
:100FC0000BF036F90AF08AFCCDE9080140460AF038
:100FD00085FCCDE9060138460AF080FCCDE9040124
:100FE00050460AF07BFCDDE90E23CDE90201CDE994
:100FF000002331465B464A46A64806F077F8A348E8
:1010000006F074F804F586744FF001084FF0000BF9
:10101000A94607E008F10108B8F13F0F04F1E40424
:1010200000F0E0802046FFF7A7FC0028F2D0204621
:10103000FFF784FB2046FFF785FB2046FFF786FB82
:101040002046FFF787FB0821934809F0AFFA414695
:10105000924809F091FDB8F1090F40F31181022186
:101060008F4809F0A3FA2046FFF74EFC0AF036FC41
:101070009DF83450009502460B46884809F084FDDF
:101080000121884809F092FAB9F1000F2DD1DA4612
:101090004E4620E00621844809F088FA51467F48F0
:1010A00009F06AFD0221814809F080FA31462046A4
:1010B000FFF754FB0AF012FC009502460B467748F6
:1010C00009F062FD01360121764809F06FFA0C2E15
:1010D00000F08B80BA46BAF1090F0AF10107D9DC9A
:1010E0000121734809F062FAD4E7B9F1010F2ED15A
:1010F000DA4600261FE006216B4809F057FA5146F0
:10110000664809F039FD0221684809F04FFA314676
:101110002046FFF723FB0AF0E1FB009502460B4651
:101120005E4809F031FD013601215E4809F03EFAC2
:10113000082E0AD0BA46BAF1090F0AF10107DADC23
:1011400001215B4809F032FAD5E70BF1080B53484F
:1011500009F0C2FC00212046FFF7FCFB55490BF0CB
:1011600023FA00287AD101212046FFF7F3FB5149E9
:101170000BF01AFA00285FD102212046FFF7EAFBA4
:101180004C490BF011FA002844D103212046FFF707
:10119000E1FB48490BF008FA50BB0C21464809F026
:1011A00005FA2046FFF7E4FB0023102201463B48E6
:1011B00009F0A2FC0821414809F0F8F92046FFF7A0
:1011C00043FB002301461022344809F095FC08F146
:1011D0000108324809F080FCB8F13F0F04F1E40443
:1011E0007FF420AF11B0BDE8F08F0BF10C0BAEE730
:1011F0000A21334809F0DAF903212046FFF7AAFB58
:101200000AF06CFB022502460B460095234809F0C4
:10121000BBFCC2E70A212B4809F0C8F9022120468D
:10122000FFF798FB0AF05AFB022502460B46009591
:101230001A4809F0A9FCA8E70A21234809F0B6F9E1
:1012400001212046FFF786FB0AF048FB02250246F3
:101250000B460095114809F097FC8DE709211B48C2
:1012600009F0A4F900212046FFF774FB0AF036FBD1
:10127000022502460B460095084809F085FC72E7F6
:1012800001210B4809F092F9E9E600BF100A0100BC
:1012900000007A44A80B0100480C0100D487FF1F0E
:1012A00038110100540C0100580C01001C0E010003
:1012B0002C0E0100000020C2900C0100A00C0100C7
:1012C000840C0100780C01006C0C0100600C010022
:1012D0002DE9F04F85B000F586758A4603929B464E
:1012E0002E464FF0010806E008F10108B8F13F0F63
:1012F00006F1E4067BD03046FFF73EFB0028F3D032
:1013000000230A2251467D4809F0F6FB01217C4862
:1013100009F04CF903980AF0E1FA00230246009321
:1013200076480B4609F030FC0121754809F03EF97A
:101330005946724809F020FC0121714809F036F93C
:1013400041466E4809F018FC01216D4809F02EF95C
:1013500000244FF0020921463046FFF7FFF90AF05A
:10136000BDFACDF8009002460B46644809F00CFC2B
:1013700001340121624809F019F9082C4FF00207E5
:10138000E9D100213046FFF7E5FA0AF0A7FA009705
:1013900002460B46594809F0F7FB0121584809F06D
:1013A00005F901213046FFF7D5FA0AF097FA0097C0
:1013B00002460B46514809F0E7FB0121504809F06D
:1013C000F5F839463046FFF7C5FA0AF087FA009774
:1013D00002460B46494809F0D7FB08F10108474887
:1013E00009F07AFBB8F13F0F06F1E40683D101273B
:1013F0004FF0000904E001373F2F05F1E40579D0F3
:101400002846FFF7B9FA0028F5D000230A225146F2
:101410003C4809F071FB0121394807F017FF039898
:101420000AF05CFACDF8009002460B46354809F008
:10143000ABFB0121324807F009FF5946314809F05A
:101440009BFB01212E4807F001FF39462D4809F08A
:1014500093FB01212A4807F0F9FE00244FF002080F
:1014600021462846FFF77AF90AF038FACDF80080CD
:1014700002460B46234809F087FB0134012120482E
:1014800007F0E4FE082C4FF00206E9D100212846BF
:10149000FFF760FA0AF022FA009602460B46194856
:1014A00009F072FB0121164807F0D0FE0121284601
:1014B000FFF750FA0AF012FA009602460B4611485E
:1014C00009F062FB01210E4807F0C0FE31462846B4
:1014D000FFF740FA0AF002FA009602460B46094866
:1014E00009F052FB0137074809F0F6FA3F2F05F1E2
:1014F000E40585D105B0BDE8F08F00BFD487FF1F9C
:1015000024080100C487FF1F0A4A0B49106ED36DDF
:1015100003FB00F34FF47A7000FB03F0642310B573
:101520000B600AF031FE0549054C0AF035FF2060DA
:1015300010BD00BF0CCDFF1F3087FF1FE4388E3E6B
:1015400030CEFF1F38B5044608460D460BF078FE36
:101550002368024629465B68204698470546204690
:1015600009F0BAFA284438BD2DE9F0414448454E07
:10157000454F464C05F0BAFD454B4649464A47485B
:10158000596011251D70464D4649DA601E610022E2
:101590004FF4FA769F619C62434F444C1D63444D67
:1015A000D861D9624FF07C5042499A639E863C22B2
:1015B0000C26DF631C64404F404C5D65404DD86491
:1015C000196502200121A3F8A4209E65002264264B
:1015D0005F62C3F8C4404FF4967732241D625D61A8
:1015E0005D6440F61C45587058721972D96583F8CD
:1015F00048201E66DF665F669C664FF00A081D671E
:1016000041F2040CC3F88020C3F88400C3F888209A
:10161000C3F89040C3F8AC404FF05A0EC3F8A8206E
:10162000C3F8B410C3F8B8004FF47A77C3F8BC60BD
:1016300083F8C810234E83F8C910234D83F8CA20BD
:1016400041F2883140F2D662FF240520C3F874804D
:10165000C3F878C0C3F87CE0C3F89470C3F898600E
:10166000C3F89C50C3F8B040A3F8C200C3F88C1074
:10167000A3F8C010A3F8A020A3F8A220BDE8F08131
:10168000AC0C01000000404033338340CDCCCC3D56
:101690000CCDFF1F20A1070066668640CDCC4C40D4
:1016A000000020C100008242000020420000A04053
:1016B0000AD7233D9A997940333373409A99993EDA
:1016C000CDCC4C3E0000684200C02044F0B5002163
:1016D00085B0112007F0B2FA0021102007F0AEFA11
:1016E0000021122007F0AAFA0021132007F0A6FA21
:1016F00001210B2007F0A2FA01210C2007F09EFA2D
:101700000121142007F09AFA0121152007F096FA1A
:101710000121162007F092FA0121172007F08EFA16
:101720000121052007F08AFA964C974D01210620E9
:1017300007F084FA01210D2007F080FA20880AF0D2
:101740001FFD0146162007F0E3F920880AF018FD76
:101750000146172007F0DCF920880AF011FD014648
:10176000052007F0D5F920880AF00AFD002401467B
:10177000062007F0CDF900942346844A8449854821
:1017800005F034FFE6B232467F49824805F0DCFEC0
:101790002B797D497F486FF30003013432462B716A
:1017A00005F0C8FE082CEDD10924E6B23246764990
:1017B000784805F0C9FE2B797349764843F0010358
:1017C000013432462B7105F0B5FE0D2CEDD1724C73
:1017D00023681021D3F8840006F0DAFB2368102177
:1017E000D3F8840006F068FC23680221D3F8840053
:1017F00006F024FB23680221D3F8840006F0ACFC39
:1018000023680F21D3F8840006F094FD0C2163486F
:1018100008F0CCFE624809F05FF91121614808F038
:10182000C5FE5F4809F058F940F2836007F0ECFA12
:101830005B4809F051F917215B4808F0B7FE58489A
:1018400009F04AF9594B1B789A0600F1D380574B9F
:101850001B781B0700F1DA80544B1B785F0700F1FF
:10186000E180524B1B789E0700F1E880504B1B78BB
:101870001D0600F1EF804E4B1B785C0600F1F680F0
:101880004B4B1B78980600F1FD80494B1B7859079C
:1018900000F10481464B1B781A0700F10B81444B81
:1018A0001B789B0700F112813D4809F015F972B6CB
:1018B000404A4CF220534DF6281120241380234631
:1018C0001180013BFDD13C4D3C483D4900234FF484
:1018D00080562E8003800B8032F80E3C9BB243F082
:1018E000D30322F80E3C62B69D2007F039FE214654
:1018F0003448354D08F05AFE294809F0EDF805F155
:10190000CC062F462C46601B06F09EFE04F8010B09
:10191000B442F8D13B78112B01D0FFF725FE04200B
:1019200005F038FB294B2A482A4D00221A6005F0A1
:1019300003FB01210D2007F06DF9F96D2648FFF733
:1019400061FAFA6C97F848102348FFF75DFA2348CC
:10195000234B046803941B682249234A039E0068B2
:1019600002901268214C2E6081FB0301DB17204896
:10197000A3EB21130299216013FB02F3038005B04E
:10198000F0BD00BF3487FF1FE0CDFF1F1CD0FF1F3D
:1019900020A1070080CEFF1F60CEFF1FCC0C0100EE
:1019A000D487FF1FDC0C0100F00C010001F00740A0
:1019B00000F007400E2005400420054006200540A9
:1019C00016200540F40D01000CCDFF1F8492FF1F6F
:1019D000FC92FF1F64CCFF1FFC93FF1F28D0FF1F4A
:1019E0005487FF1F1F85EB515087FF1F6CCCFF1FD3
:1019F00018CEFF1F2121394808F0D8FD384809F0DA
:101A00006BF8384B1B781B077FF526AF0C21364847
:101A100008F0CCFD324809F05FF8324B1B785F07C5
:101A20007FF51FAF0E21314808F0C0FD2C4809F0AA
:101A300053F82C4B1B789E077FF518AF17212C48C5
:101A400008F0B4FD264809F047F82A4B1B781D061C
:101A50007FF511AF0E21284808F0A8FD204809F0B5
:101A60003BF8244B1B785C067FF50AAF1221234814
:101A700008F09CFD1A4809F02FF81E4B1B789806B9
:101A80007FF503AF13211E4808F090FD144809F0BC
:101A900023F8184B1B7859077FF5FCAE1C21194819
:101AA00008F084FD0E4809F017F8124B1B781A074E
:101AB0007FF5F5AE1921144808F078FD084809F0C3
:101AC0000BF80C4B1B789B077FF5EEAE18210F48E7
:101AD00008F06CFD024808F0FFFFE5E6080D010084
:101AE000D487FF1F01F007402C0D01003C0D0100C1
:101AF0004C0D010000F00740640D0100740D010061
:101B0000880D01009C0D0100BC0D0100D80D0100E5
:101B100070B5464C464D4748E66800232B70FFF7EA
:101B20004BF9014630460AF021FD08B104232B7021
:101B30004048FFF71BF921690AF018FD18B12B780E
:101B400043F010032B703B48FFF7E0F9E16A0AF01D
:101B50002BFD18B12B7843F040032B700023354840
:101B60006B70FFF7D5F9216B314E0AF0FFFC08B11D
:101B70000123737000232F48EB70FFF71DF9054612
:101B80002C482B4EFFF7F2F8014628460AF046FA99
:101B9000616C0AF009FD08B10123F370264D254858
:101BA00000232B70FFF708F9A16A0646E0680AF0E7
:101BB00035FA014630460AF0F7FC08B104232B70D1
:101BC0001C48FFF7D3F8A16A064620690AF028FAF4
:101BD000014630460AF0CAFC18B12B7843F01003D6
:101BE0002B701448FFF792F9216C0646E06A0AF060
:101BF00015FA014630460AF0D7FC18B12B7843F0AD
:101C000040032B7000230B486B70FFF781F9216CA8
:101C10000546206B084C0AF003FA014628460AF0F4
:101C2000A5FC08B10123637070BD00BF0CCDFF1F80
:101C3000F4CCFF1FFC93FF1F5092FF1F514B1B68FA
:101C4000002B74D0F0B5504D2B680533B3F57A7F77
:101C500083B040F38E80002300272B604B4CD4F8D8
:101C6000AC000AF091FA0646D4F8B0000AF08CFAFB
:101C700031460AF0D3F939460AF0DAFA44490AF053
:101C80008BFB31460AF0CCF90AF098FC014606209D
:101C900006F040FE02213F4808F088FC3E4808F06C
:101CA0001BFF06213D4808F081FC28680AF06CFA09
:101CB0003B490AF0BDFA09F011FE022602460B4626
:101CC0000096354808F060FF0D21364808F06EFC9C
:101CD000D4F8AC000AF058FA074628680AF054FA1B
:101CE0002F490AF0A5FA0546D4F8B0000AF04CFADC
:101CF00039460AF093F9014628460AF099FA244930
:101D00000AF04AFB39460AF08BF909F0E7FD009624
:101D100002460B46204808F037FF31461D4808F0C0
:101D200045FC1D4803B0BDE8F04008F0D5BE174B98
:101D30001D4AD3F8AC10D3F8B03012685B1A632B8D
:101D40000BDD1A4803FB02F380FB0302DB17C3EB36
:101D500062131944062006F0DDBD154803FB02237B
:101D600080FB0302DB17C3EB22121144062006F0AE
:101D7000D1BD18462B600AF007FA09490AF058FA53
:101D800007466BE78092FF1FD8CDFF1F0CCDFF1FCA
:101D90000000C84238110100D487FF1F180E01004F
:101DA000CDCCCC3D200E01003087FF1F1F85EB51AD
:101DB000CBF08D2830B59F489F4C85B008F08CFE45
:101DC0009C4808F089FE9B4808F086FE0D219B4840
:101DD00008F0ECFBD4F8A830012B11D0984C9548B2
:101DE000217800230A2208F087FE2378052B67D884
:101DF000DFE813F006010B01100115011A010101C2
:101E00000921904808F0D2FB8F48FEF7AFFF216907
:101E10000AF0ACFB18B10F218C4808F0C7FB8A48C8
:101E2000FEF7CAFFE1680AF0BFFB18B10E2188482F
:101E300008F0BCFB8448FEF7BFFF05468248FEF76A
:101E400095FF014628460AF0E9F8616C0AF0ACFB00
:101E500018B111217F4808F0A9FB7B48FEF7F2FF7B
:101E6000E16A0AF0A1FB18B10C217B4808F09EFB47
:101E70007548FEF7E7FF216B0AF078FB18B10D21DA
:101E8000764808F093FB764B6F481B68012B00F0F7
:101E90003E81FEF76BFF2169674D0AF085FB78B143
:101EA0006948FEF789FFE9680AF060FB40B1644BBE
:101EB0001B78052B00F03C8108216A4808F076FB6E
:101EC0000221694808F072FB122006F0A9FE0128E1
:101ED00000F0E880112006F0A3FE012800F0EC805D
:101EE000624B1C68012C00F0F08002215E48604CBF
:101EF00008F05CFB5F4B4F48196808F03DFE4D4809
:101F000008F0EAFD04215C4808F050FB0B2006F0C5
:101F100087FE002301460A22464808F0EDFD0C200A
:101F200006F07EFE002301460A22424808F0E4FD46
:101F3000142006F075FE002301460A223D4808F0F1
:101F4000DBFD152006F06CFE0A220023014639480D
:101F500008F0D2FD0621494808F028FB2368DD0778
:101F60004FF001014CBF4648464808F01FFB23686C
:101F700098074FF001014CBF4148424808F016FB5A
:101F800023685A074FF001014CBF3D483D4808F017
:101F90000DFB23681B074CBF39483A48012108F064
:101FA00005FB0421384808F001FB112006F038FE3B
:101FB000002301460A221F4808F09EFD102006F06B
:101FC0002FFE002301460A221A4808F095FD122030
:101FD00006F026FE002301460A22164808F08CFD72
:101FE000132006F01DFE002301460A22114808F0C6
:101FF00083FD05B030BD0721244808F0D7FA5FE71C
:102000000621234808F0D2FA5AE70721214808F0B0
:10201000CDFA55E70721204808F0C8FA50E7082113
:102020001E4808F0C3FA4BE70B211D4808F0BEFA22
:1020300046E700BFD487FF1F0CCDFF1F300E010005
:1020400000CDFF1F400E0100FC93FF1F4C0E01004E
:102050005C0E01006C0E0100800E0100900E01006C
:102060008C92FF1FC40E010038110100F4CDFF1F38
:1020700050CEFF1F5C92FF1F3C0F0100440F010078
:102080004C0F01004C1D0100500F0100000F01001A
:10209000D00E0100D80E0100EC0E0100F40E01007C
:1020A000E00E01000E21254808F080FA112006F00C
:1020B000B7FD01287FF414AF0A21214808F076FA11
:1020C000204B1C68012C7FF410AF11211E4808F032
:1020D0006DFA21461D4808F069FA1D4B1D4A1B6820
:1020E0000393039B1068C01A0AF04AF81A490AF0D1
:1020F0009FF809F0F3FB002502460B4600951748B0
:1021000008F042FD2146114808F050FAEDE6FEF7CE
:102110002DFE616A0AF048FA00283FF4CDAE162180
:102120000F4808F043FA0A210E4808F03FFAC7E6C4
:102130000A210C4808F03AFAC2E600BF080F010075
:10214000180F0100F4CDFF1F240F0100380F01000C
:1021500028D0FF1F24CEFF1F6F12833AD487FF1FA2
:10216000A00E0100B80E01002DE9F04F904C914FE8
:10217000D4F88430012B8DB000F04281032B52D073
:102180008D4E8E4DD4F880308D48012B09BF2968C3
:10219000296801F10041296006F048F93368002BF5
:1021A00040F0C680864806F017F9D4F884303860CD
:1021B000012B064600F0C98082490AF0F5F978B98A
:1021C000814930460AF0D2F950B9804A804B1268F2
:1021D0000B920B9A1A6000232B600DB0BDE8F08FB4
:1021E000DFF8E8817A4CD8F800300A930A9823681F
:1021F000784FC01A09F0C4FF31460AF019F8764941
:102200000AF0CAF874490AF0C7F8396809F008FFFB
:10221000D8F800300993099B2360002338602B60B5
:102220000DB0BDE8F08FDFF8D0816C4DD8F800001C
:10223000614E012300220F212B6005F077FD2B68F2
:10224000012B336800F0FA80002B40F07E81D8F833
:102250000030DFF8A891D3F88400436B19698DB280
:10226000C9F8005005F0E8FDB4F8A22040F6E443B8
:1022700003FB05F1B1FBF0F0801A00B209F084FF16
:1022800057494E4D8246D4F8980009F0D1FF0146D7
:1022900050460AF081F8D9F800302860632BDFF847
:1022A0005CA100F3458100232B603368002B3FF4D1
:1022B00069AF02214B4808F079F9D8F80030D9F815
:1022C0000020D3F8840040F6E44303FB02F805F055
:1022D000B3FDB8FBF0F009F053FF8046B4F8A2005C
:1022E00009F052FF0146404609F098FE09F0F6FA5F
:1022F0004FF0020802460B46CDF800803A4808F03D
:1023000043FC4146374808F051F9286809F0E6FADD
:10231000CDF8008002460B46334808F035FC4146B4
:10232000324808F043F941462E4808F03FF929E7C2
:10233000234806F051F809F0D1FA022602460B466E
:102340000096294808F020FC2CE7244B1B68012B41
:1023500000F03481022B7FF43EAF25490AF024F9C6
:1023600030B9244930460AF001F9002800F05581BF
:10237000DFF85880164CD8F8003007930798236888
:10238000144FC01A09F0FCFE314609F051FF124902
:102390000AF002F8104909F0FFFF396809F040FE21
:1023A000D8F800300693069B3860236013E700BF1F
:1023B0000CCDFF1FF8CCFF1FF0CCFF1F44CEFF1F3A
:1023C000F8CDFF1F0000FA430000FAC328D0FF1F1A
:1023D0005892FF1F30CEFF1F00007A444887FF1F2E
:1023E00017B7D13838110100D487FF1F940F0100AF
:1023F00000C82F4800A08CC660CEFF1F6CCEFF1F08
:102400003D68A84928460AF0B1F830B12846A649E7
:102410000AF0CAF800287FF406AFDFF8CC82A34D9B
:10242000D8F80000A24E022300220E212B6005F0F6
:102430007DFC2B68012B33687FF406AF002B40F046
:10244000F380D8F80030DFF8B092D3F88400436B03
:1024500019691FFA81FBC9F800B005F0EDFCB4F86A
:10246000A030944D40F6E44A0AFB0BFBBBFBF0F0B6
:10247000C01A00B209F088FE8F498346D4F89C0048
:1024800009F0D6FE0146584609F086FFD8F800202C
:10249000D9F800302860D2F884000AFB03FA05F06E
:1024A000CBFCB4F8A030BAFBF0F00FFA80FAC3EB23
:1024B0000A03002BB4F8C220B8BF5B429342BCBFF2
:1024C00000232B603368002B3FF45CAE02217B4875
:1024D00008F06CF8D8F80030D9F80020D3F8840060
:1024E00040F6E44303FB02F805F0A6FCB4F8A010A4
:1024F000B8FBF0F000B2411A714808F03DFB022130
:102500006E4808F053F8286809F0E8F94FF002081F
:1025100002460B46CDF80080694808F035FB0321E0
:10252000684808F043F84146644808F03FF829E657
:10253000D8F80030D3F8840005F07EFCDAF80030DB
:1025400064389842FFF4AFAEAFE65D48DFF8A8917B
:10255000DFF894A108F0C0FA0C215B4808F026F8D7
:102560000C215A4808F022F8D8F800203368D2F835
:102570008400426B11698DB2C9F80050002B3FF402
:1025800071AE05F059FC40F6E44100230A2201FB3C
:1025900005F1B1FBF0F14A4808F0AEFA02214748D4
:1025A00008F004F8B4F8A210454808F0E5FADAF8A3
:1025B0000030D9F80050D3F8840053E6444909F0BC
:1025C000F3FF58B94349304609F0D0FF30B9424AC9
:1025D000424B12680592059A1A60FCE5DFF8F88014
:1025E0003E4CD8F800300493049823683C4FC01A3E
:1025F00009F0C6FD314609F01BFE3A4909F0CCFE50
:10260000384909F0C9FE396809F00AFDD8F80030E8
:102610000393039B38602360DDE52F4A2F4B12683C
:102620000892089A1A60D6E52548DFF8CC902E4D1E
:1026300008F052FAD4F88430012B4FF00B010CBF94
:102640002A482B4807F0B2FF0C21204807F0AEFFC4
:10265000D8F800203368D2F88400426B11691FFA61
:1026600081FBC9F800B0002B3FF4F7AE05F0E4FBA6
:1026700040F6E44100230A2201FB0BF1B1FBF0F12B
:102680000F4808F039FA01211A4807F08FFFB4F813
:10269000A0100B4808F070FA2B68D9F800B0D3F8F6
:1026A0008400DAE600709446007094C64887FF1FE5
:1026B000F0CCFF1F44CEFF1F17B7D13838110100EF
:1026C000D487FF1F800F0100840F0100700F0100ED
:1026D0000000FA430000FAC328D0FF1F5892FF1FE2
:1026E00030CEFF1F00007A4460CEFF1F580F01005C
:1026F000640F01002C0E01006CCEFF1F2DE9F04F7E
:102700009A4C236885B0002B7CD0994DDFF8688205
:10271000984FDFF8AC92D5F88830954E012B00F039
:102720008C80D7F800A0D6F860B0F46D924E04FB10
:102730000BF44FF47A7000FB04F009F025FD8F498B
:102740000446504609F074FD214609F025FE8C49E7
:1027500009F06EFD09F032FF6328C8F800004CDD77
:102760002046864909F018FE642338603360D9F8A2
:102770000030002B3ED0D5F884307D4C012B00F08A
:102780008A80032B00F0E080022B00F0E48002211D
:102790007C4807F00BFF7C4B186809F09FF8022477
:1027A00002460B460094794808F0EEF92146784835
:1027B00007F0FCFE2146734807F0F8FED8F8001039
:1027C000724808F0D9F90621724807F0EFFE386820
:1027D0006A4909F02DFD09F081F8009402460B4684
:1027E0006A4808F0D1F903216B4807F0DFFE67481B
:1027F00008F072F905B0BDE8F08F0028BCBF0023D7
:102800003360B4E7654E5A4D33680293029A42F240
:1028100028339A424CD833680393039A42F21073D8
:102820009A424CD8D5F88830DFF84C81514FDFF808
:1028300090914F4E012B7FF474AF5948FEF76AFB1D
:102840005849D6F870A0746F09F0F2FC09F0DCFE6C
:10285000B26FF36FD5F860B0CAEB02021B1B80B2F7
:102860009A42CAEB0000C6BF03FB00000132584386
:1028700090FBF2F02044EC6D00FB0BF004FB00F049
:1028800000EB8000400009F07FFC3C4909F084FD2A
:10289000824638604AE7444B1B68012B4FF00A011F
:1028A0000CBF4248424807F081FED4F8843068E704
:1028B0003B48EA6C95F84810FEF7A6FAABE73848B3
:1028C000FEF728FB37492F6F6E6F09F0B1FC09F056
:1028D0009BFEAA6FEB6FD21B9B1B80B29A42A0EBB0
:1028E00007003DDD03FB0000531C90FBF3F31E4487
:1028F000286EEB6DDFF88080DFF8C490C8F80060C8
:1029000000FB06F003FB00F000EB8000400009F044
:102910003BFC1A49174F09F03FFDD9F800303860E9
:1029200001222260002B3FF4F6AE0221154807F089
:102930003DFE164808F0D0F859211E4807F036FE33
:10294000124808F0C9F8E6E610211B4807F02EFEF1
:10295000D5F8843018E70721184807F027FE16E756
:1029600003FB00F393FBF2F31E44C1E7E8CDFF1F26
:102970000CCDFF1F30CEFF1F3087FF1FE4388E3E87
:102980000000C84238110100F8CCFF1FD487FF1F98
:10299000940F0100281001003010010028D0FF1F03
:1029A000FC93FF1F00007A444887FF1FF40F0100CB
:1029B00000100100980F01000C1001002010010010
:1029C0002487FF1F30B5112083B006F029F90128B4
:1029D00018D0122006F024F9012813D000210B2072
:1029E00006F018F900210C2006F014F9002115203A
:1029F00006F010F92649274B0120002208701A60C2
:102A000003B030BD0121152006F004F9224A234C01
:102A1000234B1268D4F88C1001921B68019A1D4D4B
:102A20000B4493424FF00201296005D901210C208B
:102A300006F0F0F803B030BDD4F8940009F0A4FB20
:102A4000184B196809F092FD0028EFD101210B20E5
:102A500006F0E0F894F8C83003242C6043B10C4B26
:102A600002221A7000210C2006F0D4F803B030BD09
:102A7000122006F0D5F8012808BF054B4FF01100D1
:102A800008BF1C7006F0CCF80128EBD1E7E700BFC7
:102A900000CDFF1FF892FF1F28D0FF1F0CCDFF1F96
:102AA00064CCFF1FF8CCFF1FF0B5684E684D34684A
:102AB0002B689C4287B039D014F0010155D014F036
:102AC000020149D014F004013DD0E3070ED52B6874
:102AD000DF070BD45F4F3A68002A00F082805E4B1C
:102AE0001B680193019B93426DD83468A0070DD5F4
:102AF0002B6899070AD4594F3A68002A4CD0564B94
:102B00001B680393039B934238D8346862070DD542
:102B10002B685B070BD4524F3A68002A7ED04E4B8D
:102B20001B680593059B934268D834680CB107B0C5
:102B3000F0BD2146162005F0EDFE2146172005F0D8
:102B4000E9FE07B0F0BD052005F0E4FE2B6834680F
:102B500003F0FB032B60B8E7172005F0DBFE2B68C2
:102B6000346803F0FD032B60ACE7162005F0D2FEBD
:102B70002B68346803F0FE032B60A0E7394B172065
:102B8000D3F8901005F0C6FE2B68346843F00203BA
:102B900000222B603A60B9E7334807F09DFF0C2113
:102BA000324807F003FD304807F096FFFF21172059
:102BB00005F0B0FE284B2E4A19680291029912685E
:102BC0000A443A609CE7274B1620D3F8901005F092
:102BD000A1FE2B68346843F0010300222B603A60A9
:102BE00084E7FF21162005F095FE1B4B204A19684B
:102BF0000091009912680A443A6071E7194B052068
:102C0000D3F8901005F086FE2B68346843F0040377
:102C100000222B603A60002C89D18AE7124807F025
:102C20005BFF0C21134807F0C1FC0F4807F054FF6D
:102C3000FF21052005F06EFE074B0D4A196804912F
:102C4000049912680A443A606AE700BFF892FF1FCD
:102C500050CEFF1FDCCDFF1F28D0FF1FECCDFF1F84
:102C6000F0CDFF1F0CCDFF1FD487FF1F34100100D4
:102C70003887FF1F441001002DE9F047534EDFF85D
:102C800070813368DFF86C91D3F88400504D0F21C8
:102C900005F050FB0023012222214E48C8F80030E5
:102CA000C9F8002007F082FCD8F80030132B20DC94
:102CB00040F6E4473368B5F8A0A0D3F88400436B2E
:102CC0001C6905F0B9F8A4B2012107FB04F4B4FBB8
:102CD000F0F441485444A5F8A04007F067FC642094
:102CE00005F0D4FFD8F800300133132BC8F80030BA
:102CF000E0DDB5F8A030394A3948A2FB03129B1A2F
:102D000002EB5303C3F30F131946A5F8A03007F0E5
:102D100033FF1D21334807F049FC0221324807F0F8
:102D200045FC2F4807F0D8FE00231A460E213068D4
:102D3000C8F8003004F0FAFF022322212548C9F820
:102D4000003007F033FCD8F80030132B20DC40F6BD
:102D5000E4473368B5F8A290D3F88400436B1C694C
:102D600005F06AF8A4B2012107FB04F4B4FBF0F407
:102D700019484C44A5F8A24007F018FC642005F05F
:102D800085FFD8F800300133132BC8F80030E0DDA0
:102D9000B5F8A230114A1248A2FB03129B1A02EBAB
:102DA0005303C3F30F131946A5F8A23007F0E4FE4E
:102DB0001D210E4807F0FAFB02210B4807F0F6FB35
:102DC0000748BDE8F04707F087BE00BF60CEFF1F91
:102DD0000CCDFF1F54100100981001008761188668
:102DE000D487FF1F78100100381101009C100100EA
:102DF0006492FF1F4887FF1F2DE9F047C24DD5F8A9
:102E0000B830062B00F0A681C04BC14C1B68A86DE2
:102E100040F2513108222160E271002B00F06F81F5
:102E200009F0B2F9696A064609F002FAB949B64FE3
:102E300009F0FEF909F0E8FB80B203126372B64AAA
:102E4000B64B12681B682072A37230461B12161212
:102E5000E3722273E969667309F0EAF9AD49AC4E91
:102E600009F0E6F909F0D0FB83B21A123146AC48FA
:102E7000A373E27304F0B2FDAA4AAB4B126819883F
:102E8000A172D3B2237203EB83035B00237302EBC3
:102E9000820343F3D7134FEA212E12124FF0080892
:102EA0004FF00009314663739D4884F80BE040F20F
:102EB00055336272236084F8078084F80E9084F89A
:102EC0000F9004F08BFD40F256339848236084F84D
:102ED0000780FDF795FF964909F0AAF909F094FBE0
:102EE00020729248FDF78CFF914909F0A1F909F091
:102EF0008BFB904A8E49C0F307236372106809F078
:102F00004BFA09F05BFB40FA08F3A0728748E372C2
:102F1000FDF798FF7F4909F08BF909F04FFB20730B
:102F20008248FDF78FFF7B4909F082F909F046FBE3
:102F300040F3072031466073794884F80E9084F896
:102F40000F9004F04BFD022005F0A0FE7A4A7B4B67
:102F500011782172517890786172D178A0721A78C4
:102F60009878E172597822736173DA78A07340F22D
:102F70005A3331466A48E273236084F8078004F0CC
:102F80002DFD6F4B66481A7822725A7862729A78D1
:102F9000A272DA78E2721A7922735A7962739A7994
:102FA000DB79E373314640F25E33A273236084F829
:102FB000078004F013FD022005F068FE614B5848BD
:102FC0001A7822725A7862729A78A272DA78E27269
:102FD0001A7922735A7962739A79DB79E3733146ED
:102FE0004FF45C73236084F80780A27304F0F6FC4E
:102FF000554B1B68012B00F06782022005F046FE4E
:103000002B6E2373022600221B12304640F27338C7
:10301000082763732272012362729922A273E372FA
:10302000E373A672C4F80080E77105F02FFE3F48F5
:10303000C4F80080E771FDF799FE444909F0F8F8FB
:1030400009F0E2FA20723948FDF790FE3F4909F095
:10305000EFF809F0D9FAC0F3072334486372FDF79B
:10306000ABFE3A4909F0E4F809F0CEFAA0722F4815
:10307000FDF7A2FE354909F0DBF809F0C5FAC0F307
:1030800007232A48E372FDF743FF314908F0C8FFE0
:1030900009F0BAFA20732548FDF73AFF2C4908F0E9
:1030A000BFFF09F0B1FAC0F3072320486373FDF7AF
:1030B0002DFF274908F0B4FF09F0A6FAA0731B48BA
:1030C000FDF724FF224908F0ABFF09F09DFA1049F3
:1030D000C0F307231248E37304F080FC304605F088
:1030E000D5FDEA6D2B6EE67112FB03F3C3F30721E6
:1030F00040F27932237261722260BDE8F08709F0F4
:1031000043F8A96906468FE60CCDFF1F8C92FF1F7E
:103110006892FF1F0000204148CEFF1F7C92FF1FD6
:1031200080CEFF1F3087FF1F3687FF1FFC93FF1FD6
:103130000000C842F8CCFF1FF4CCFF1F5092FF1FC5
:103140005887FF1F6087FF1FF4CDFF1F00007A44E0
:1031500033938843CD4CCE48002608274FF4C363F1
:1031600021464FF059094FF044084FF0420A2360BE
:1031700084F80A9084F80B80E771267226736673D0
:10318000A673E67384F809A004F028FC022005F079
:103190007DFD4FF4BB632146BD48236084F80A904F
:1031A00084F80B80E771267284F809A02673667391
:1031B000A673E67304F012FC022005F067FDE96DCA
:1031C0002A6ED5F858E0B248E77101FB02F312FB12
:1031D00001F203EBC30103EB810302EBC2010EFB1F
:1031E00003F302EB81024FF4AB68032112FB0EF2F2
:1031F0004FF0050C3B414FF0070EC4F800802172E0
:103200004FF0120921464FF0040884F80EC02373D2
:10321000627384F80FE0A67284F8099084F80B803A
:1032200004F0DCFB022005F031FD34224F234FF483
:10323000B36E21469648E272E373C4F800E0E7718A
:103240002672667284F80A902673667384F80E807C
:1032500004F0C4FB022005F019FD8E4BE7711B68DA
:10326000A86D4FF456722260002B40F0658108F083
:103270008BFFA969064608F0DBFF874908F0D8FFF5
:1032800009F0C2F980B240FA07F360722372E9696B
:10329000304608F0CDFF804908F0CAFF09F0B4F9C4
:1032A0007E4B7F4A1B6812687849637385B2161299
:1032B0001B122F1276482373E273E572A772A6736E
:1032C00004F08CFB022005F0E1FC764A764B166890
:1032D0001D88764BE5721868754906EB86036422F3
:1032E00002FB06F203EB83039B0012122E124FF433
:1032F0007677082563722272A6722760E57108F05E
:1033000097FF09F081F983B243FA05F70026F92205
:103310005E495F486373A2732773E67304F05EFB34
:10332000022005F0B3FC4FF48B604FF0120E5622D2
:103330007823564920603427554884F80AE0A27360
:10334000E373E5712672667226736673E77204F0A2
:1033500045FB022005F09AFC4FF4A3635548236017
:10336000E571FDF7D3FD4C4908F062FF09F04CF917
:10337000C0F307234F482372FDF7C8FD464908F004
:1033800057FF09F041F960724A48FDF7C1FD424913
:1033900008F04EFF09F038F9C0F307234548A3723F
:1033A000FDF7B6FD3C4908F043FF09F02DF9FF2376
:1033B0003649E072364823736373A373E37304F0F2
:1033C0000DFB022005F062FC4FF49B63394823603B
:1033D000E571FDF715FD304908F02AFF09F014F9F1
:1033E000C0F3072333482372FDF70AFD2A4908F08A
:1033F0001FFF09F009F9304B30496072186808F076
:10340000CBFF09F0DBF840FA05F203462948A27227
:10341000E372FDF717FD204908F00AFF09F0CEF826
:1034200040F3072323482373FDF70CFD1A4908F0E6
:10343000FFFE09F0C3F80323607314491448A37313
:10344000E57304F0CBFA022005F020FC1C4A1D4B6A
:1034500092F801E09178D0781F785E7892F800C0F9
:10346000E571DA789D78A172E07284F808C084F87A
:1034700009E04FF4AC7327736673A573E27323609E
:1034800002490348BDE8F04704F0A8BA6892FF1F5C
:1034900080CEFF1F8C92FF1F0000204148CEFF1FEF
:1034A0007C92FF1F3087FF1F3687FF1F30CEFF1F24
:1034B000620B363BFC93FF1FF8CCFF1F0000C84295
:1034C000F4CCFF1F5092FF1F2E48FDF74FFC796D83
:1034D00008F0A6FD81462B48FDF76EFC01464846E4
:1034E00009F044F800283FF488AD40F2C333254882
:1034F00086F807803360FDF739FC3F6D394609F0E7
:1035000035F848B32049384608F092FE09F07CF8B7
:1035100080B240FA08F37072337200230127042648
:1035200003221A491A48A772E67222736373A373BF
:10353000E37304F053FA60E508F026FE696A064674
:1035400008F076FE134908F073FE09F05DF880B2CA
:103550000312607223729AE60A48FDF707FC0A49D3
:1035600008F066FE09F050F8C0F3072305483372EF
:10357000FDF7FCFB044908F05BFE09F045F87072AA
:10358000CBE700BFFC93FF1F00007A446892FF1F47
:1035900080CEFF1F0000204138B5174C174A236822
:1035A000101D12F8011F904241EA0323F9D1236054
:1035B000134C03F100432360124BD3F88430022BE9
:1035C00011D0114B1B68012B00D038BD0F4807F0FC
:1035D00083FA21680D4807F0CFFA03210C48BDE8B3
:1035E000384006F0E3BF20680A4D08F0CDFD2860A2
:1035F000FEF7BAFDE5E700BF4CCEFF1F5BCCFF1F17
:10360000F092FF1F0CCDFF1F5CCEFF1FD487FF1F62
:10361000C810010044CEFF1F30B5494C494883B063
:10362000214604F0D3F823683C2B6FD0A3F19A0213
:10363000C52A0AD903F47F63B3F5B87F424D14D08D
:103640002B68012B20D003B030BD404B3E4D1B6892
:10365000012B53D000223A493D48FDF775FA236803
:1036600003F47F63B3F5B87FEAD1384B34491B6864
:103670003748012B374B93F8CA3043D00022FDF76F
:1036800041FA2B68012BDED1304B1B68012BDAD1BC
:10369000314B32481B6801930A220023019907F03D
:1036A0002BFA2268264B002ADB7942DB2C492D4875
:1036B00009F086FD2B4809F0C3FD0146294806F0B4
:1036C00075FF25681E4B15F0804523D1DB798BB142
:1036D000631925491A7A234809F072FD214809F037
:1036E000AFFD01461F4806F061FF0135E379EDB2F9
:1036F000AB42EDD8194807F0EFF9A4E72A68012A90
:10370000A8D1A8E72A68012AB8D1B8E7FFF744FF93
:1037100023688BE7154D134C0FCD0FC495E80300BC
:1037200044F8040B204620F81419152106F03EFF3A
:10373000E0E70F490B4822F0604209F041FDB9E78C
:1037400054CCFF1F80CEFF1F2487FF1F5CCEFF1FBE
:10375000FC93FF1F0CCDFF1F28D0FF1FD487FF1F36
:10376000F410010070CCFF1F2011010008110100AE
:10377000CC100100A24B1B78052B00F0A1802DE995
:10378000F04FA04CA04EA14DE26E636EA048326097
:1037900083B02B60FDF7BCFB216B08F0E7FE08B19E
:1037A00000232B609A48FDF7B1FBE16A08F0FCFEAC
:1037B00010B1002333602B609548FDF7FDFAE168F6
:1037C00008F0F2FE08B100232B609148FDF7F4FAEF
:1037D000E16808F0E9FE08B100232B608C48894FAE
:1037E000FDF7C4FA216908F0C1FE00286ED000235D
:1037F00033602B68854F002B53DD8548DFF804824A
:10380000FDF784FBA16B08F0B1FE002840F0C480F6
:10381000804B7F481B687B4F012B00F0FD80FDF73C
:10382000CBFA216A8046A06908F0F8FB01464046C1
:1038300008F0BAFE002834D0286808F0A5FC8246BB
:103840007348FDF7B9FAD7F818808346396A4046BD
:1038500008F0E4FB8146B86E08F096FC0446786EEA
:1038600008F092FC214608F0D9FB49460746584625
:1038700008F0D4FB0146384608F0DAFC4946074612
:10388000404608F0CBFB0146384608F085FD21464E
:1038900008F0C6FB0146504608F0C0FB08F08EFE5B
:1038A00028603368584A002BAFBF2B682B68002173
:1038B0001160002B01DA00232B6003B0BDE8F08F0C
:1038C0005149524A00230B60136070475048FDF77E
:1038D0004DFAF96908F04AFE002888D13368DFF80C
:1038E0002891002B85DD4A48FDF712FBF96B08F0A3
:1038F0005BFE002840F0B3804548424FFDF736FAA2
:10390000216908F051FE002800F09F804048DFF850
:10391000F480FDF72BFAD4F8C4100746E06908F0EC
:103920007FFB0146384608F021FE00283FF461AFD6
:10393000306808F029FC82463548FDF717FA8346BF
:10394000D8F86C00D8F81C7008F01EFC3946814687
:10395000584608F063FB49468346002008F05EFBAA
:103960000146584608F064FCD8F8C410834638462F
:1039700008F056FB394608F051FB0146584608F05E
:103980000BFD494608F04CFB0146504608F046FB4B
:1039900008F014FE30602CE7386808F0F5FB834629
:1039A0001B48FDF7B3FA0190D8F86400D8F830A0AE
:1039B00008F0EAFB019B81465146184608F02EFBB1
:1039C00049460190002008F029FB019B014618465A
:1039D00008F02EFC51460190D8F8380008F01EFB84
:1039E000019B0146184608F0D7FC494608F018FB31
:1039F0000146584608F012FB08F0E0FD386007E782
:103A000000CDFF1F0CCDFF1F48CEFF1F7C92FF1F74
:103A1000FC93FF1F8C92FF1FFDF7CEF9216A8046B1
:103A2000606A08F0FBFA0146404608F0BDFD002838
:103A30003FF437AF286808F0A7FB82461E48FDF721
:103A4000BBF9D7F82480834600E71B48FDF78EF9C1
:103A5000F96908F0A9FD00287FF458AFC9E6D9F844
:103A6000000008F091FB82461348FDF751FA0190DF
:103A7000F86ED7F83C8008F087FB019B83464146EF
:103A8000184608F0CBFA0146584608F0D1FB4146EB
:103A90008346F86A08F0C2FA0146584608F07CFCF2
:103AA000002108F0BDFA0146504608F0B7FA08F0C8
:103AB00085FDC9F800001FE7FC93FF1F08B52748E4
:103AC00007F00AF80721264806F070FD112005F0DE
:103AD000A7F80621F8B1234806F068FD102005F08C
:103AE0009FF8062100B3204806F060FD122005F083
:103AF00097F8062108B31D4806F058FD132005F07D
:103B00008FF8062110BB1A4806F050FD1348BDE897
:103B1000084006F0E1BF174806F048FD102005F008
:103B20007FF806210028DED1134806F03FFD122061
:103B300005F076F806210028DDD1104806F036FDA4
:103B4000132005F06DF806210028DCD00C4806F0A3
:103B50002DFD0248BDE8084006F0BEBFD487FF1F18
:103B60002C11010034110100441101005411010015
:103B70006C1101003C1101004C1101005C110100AD
:103B80006411010010B5254C2368042B27DC0121AA
:103B90000B2005F03FF801210C2005F03BF8012136
:103BA000142005F037F80121152005F033F8FF2126
:103BB000162004F0AFFEFF21172004F0ABFEFF211A
:103BC000052004F0A7FEFF21062004F0A3FE2368D1
:103BD00001330A2B2360C4BF0023236010BD0021E2
:103BE0000B2005F017F800210C2005F013F8002138
:103BF000142005F00FF80021152005F00BF8002126
:103C0000162004F087FE0021172004F083FE002117
:103C1000052004F07FFE0021D6E700BF5492FF1F6D
:103C200030B5092183B0AE4805F010FB222005F025
:103C3000B5FAAC4BD3F8A830012BAB4B1B7809D0AD
:103C4000052B10D8DFE813F02D0132013C014101B2
:103C500037010B00002B00F03D81052B03D107211C
:103C6000A24805F0F3FA222005F098FAFF2005F0AB
:103C700095FAFF2005F092FA9D4CFF2005F08EFA90
:103C800008219C4805F0E2FA21689B4806F074FF81
:103C9000FF2005F083FAFF2005F080FAFF2005F0F1
:103CA0007DFA0921954805F0D1FA2168924806F07D
:103CB00063FFFF2005F072FAFF2005F06FFAFF2086
:103CC00005F06CFA0C218E4805F0C0FA8D4B8E4938
:103CD000186808F061FB07F001FE002402460B465D
:103CE0000094854806F050FFFF2005F057FAFF20AA
:103CF00005F054FAFF2005F051FA0921834805F038
:103D0000A5FA8348FDF79EF807F0E8FD0094024607
:103D10000B46794806F038FFFF2005F03FFAFF20F8
:103D200005F03CFAFF2005F039FA0C21794805F03E
:103D30008DFA7748FDF7ECF807F0D0FD00940246C5
:103D40000B466D4806F020FFFF2005F027FAFF2004
:103D500005F024FAFF2005F021FA0D216E4805F048
:103D600075FA6B48FDF7D2F807F0B8FD00940246EB
:103D70000B46614806F008FFFF2005F00FFAFF2010
:103D800005F00CFAFF2005F009FA0921634805F057
:103D90005DFA5F48FDF734F8614908F049FA07F029
:103DA0009DFD009402460B46534806F0EDFEFF20B1
:103DB00005F0F4F9FF2005F0F1F9FF2005F0EEF928
:103DC0000C21584805F042FA5148FCF7CFFF5649FC
:103DD00008F02EFA07F082FD009402460B46464892
:103DE00006F0D2FEFF2005F0D9F9FF2005F0D6F944
:103DF000FF2005F0D3F90D214C4805F027FA44487F
:103E0000FCF7DAFF484908F013FA07F067FD009461
:103E100002460B46384806F0B7FEFF2005F0BEF913
:103E2000FF2005F0BBF9FF2005F0B8F90921404853
:103E300005F00CFA3F4B3048196806F09DFEFF2054
:103E400005F0ACF9FF2005F0A9F9FF2005F0A6F96F
:103E50000E21394805F0FAF92D48FCF7ADFF05466B
:103E60002B48FCF783FF0146284608F0D7F82E4977
:103E700008F0DEF907F032FD009402460B461E48BA
:103E800006F082FEFF2005F089F9FF2005F086F993
:103E9000FF2005F083F9FF2003B0BDE8304005F0B6
:103EA0007DB90621254805F0D1F9DCE60721244833
:103EB00005F0CCF9D7E60B21224805F0C7F9D2E688
:103EC0000721214805F0C2F9CDE608211F4805F079
:103ED000BDF9C8E608211E4805F0B8F9C3E600BFE1
:103EE000741101000CCDFF1F00CDFF1F000F01005A
:103EF0003087FF1F8C110100C487FF1F981101003C
:103F0000A4110100F8CCFF1F0000C842B411010049
:103F1000FC93FF1FC0110100D0110100E01101004E
:103F200000002041EC11010000007A44FC11010066
:103F30000C1201004487FF1F18120100D00E01006F
:103F4000D80E0100E00E0100EC0E0100F40E01009D
:103F5000801101002DE9F0418D4DD5F8B830042BCA
:103F60003ED0032B6ED0012B00F09880022B01D0A5
:103F7000BDE8F081874C8848237240F20E3201235D
:103F800021462260E37103F029FD844B1B685B002E
:103F9000FF2BC8BFFF23042140224FF44170206053
:103FA000E17122726372A86D08F0EEF8A96908F059
:103FB0003FF97B49054608F0F7FA002800F0DE805B
:103FC0002946284608F02CF808F01EFB80B20312A0
:103FD000E072A3726F497048BDE8F04103F0FEBC87
:103FE0006C4C704AA379226043F001030822E2710D
:103FF000A371A86D08F0C8F8A96908F019F96A4911
:1040000008F016F908F000FB644B684A1B68126858
:1040100093FBF2F380B200261A1207126072214657
:104020005D48E372A272277226736673A673E67305
:1040300003F0D4FCA279D5F8B83066F30002032B64
:10404000A27190D1534CA86DA3720122E8230721DD
:1040500040F2FF26227263722660E17108F094F844
:10406000A96908F0E5F8504908F0E2F808F0CCFA40
:104070004A4B4E4A1B68126893FBF2F382B21E123F
:104080001712214644486373E2722773A67303F044
:10409000A5FCD5F8B830012B7FF468AF444B3D4CFC
:1040A0001B682360072280231020E271237204F032
:1040B000B7FD002869D13F4B1B68DFF8E0803B4F1C
:1040C000A86D344E03EB83035B001A12A372627275
:1040D000D8F800303A6893FBF2F31A126273A373B4
:1040E00008F052F8A96908F0A3F8334B196807F0F3
:1040F00095FF2D4908F09CF808F086FA80B203126B
:10410000314620732448E37203F068FC022004F077
:10411000BDFD2A4B1B682360072280231020E2711B
:10412000237204F07DFD70BB224B1B68A86D03EB6E
:1041300083035B001A127272B37208F025F8A96942
:1041400008F076F81E4B196807F068FF164908F06A
:104150006FF808F059FA82B216123868D8F80030B1
:10416000227393FBF0F30B490B48A3731A12E67208
:10417000627303F033FCD5F8B830F7E601229023E0
:10418000A272E37226E70F4BCFE70E4B94E700BF16
:104190000CCDFF1F6892FF1F80CEFF1F7C92FF1F78
:1041A00000004843F4E50618000020412C87FF1F5B
:1041B0006887FF1F2887FF1F7892FF1F6C87FF1FEC
:1041C00034CEFF1F3C87FF1F70B50368C57984B0EC
:1041D000012D8DF805304FEA13230E468DF804307B
:1041E00005F1010201A909DD07300D440DF10503B8
:1041F00010F8014F03F8014FAB42F9D1034B0448CB
:104200009B5D02F0B5FE04B070BD00BF701D0100E3
:10421000FC92FF1FF0B40D4B0D489C790822FF273C
:10422000CD26A225DA710022B0216FF300041F729F
:104230009E72DD725A721A735A739A73DA73196026
:104240009C711946F0BC03F0C9BB00BF6892FF1F08
:1042500080CEFF1F2DE9F041674D2B780F2B82B0E8
:1042600072D0664A664B1278664F002A6AD00022E6
:104270003A6093F8CA10644E00294ED13378082B67
:1042800000F08680DFF8A88143F080035F4C0821AE
:10429000012A2360E17100F08780682210232272D6
:1042A000637298F8003059490022022BA2720AD892
:1042B0002B78CA724FEA03130A734A73DBB210D128
:1042C00004338B730EE03B68012B04BF08230B7390
:1042D0002B7818BF0A73502000221B01C872DBB272
:1042E0006273A37331784948FFF76EFFE0730220D1
:1042F00004F0CCFC4549464803F070FB2A7833783B
:104300004448013201332A703370FCF7BBFB08B11B
:10431000FFF780FF02B0BDE8F08101290CD13378AE
:104320000C2BAFD1DFF8088198F800300021032B67
:10433000317034D98023A9E73378DFF8F48043F073
:104340008003A3E73A6894E7334E344C3368009314
:10435000009A2168002391422B7013D2304B274FD3
:104360001B68012293423A7036D0254B3168019187
:10437000B3F8A40001993C304FF47A7606FB0011A3
:10438000216071E71D4A1F4F13703A681C4B70E79C
:10439000DFF89C80317098F80030032BCAD80133C5
:1043A00088F80030802371E71A48FCF7DFFC1D49CC
:1043B00007F03EFF08F028F900F10A0315482372C0
:1043C000FCF7D4FC174907F033FF08F01DF980B261
:1043D0000A300012607264E7134806F07DFB132177
:1043E000124806F0E3F8104806F076FB0E4806F097
:1043F00073FB3A78B9E700BF38CEFF1F40CEFF1FEE
:104400000CCDFF1FF4CDFF1F58CEFF1F6892FF1F7A
:1044100080CEFF1FFC93FF1F28D0FF1F24CEFF1F5D
:104420002487FF1F00007A44D487FF1F2812010051
:1044300064CEFF1F2DE9F041B14CB24D82B006F0C1
:104440004FF823682860042B00F05C83022B57D0C0
:10445000082B46D0072B40F07B81332801F0B48530
:1044600000F3DC80312801F09985322842D106F032
:1044700073F8002840F36A81A348A44E06F0BEFCFE
:1044800007F082FEA24907F0D3FE61230122706487
:1044900022602B601846A0F152031F2B2AD8DFE8B8
:1044A00013F0500D290029002900290029002900B6
:1044B00029002900290029002900290029002900B4
:1044C000F003A00E6A050306D5042900290029007F
:1044D00064042900A30E29002900290029002900CD
:1044E000550D322800F09A83712800F09D80312804
:1044F00000F0A983732800F09B8002B0BDE8F08132
:10450000A0F13103422BF5D801A252F823F000BFED
:10451000595500007555000091550000AB5500003D
:10452000D1550000EF550000F5440000F5440000AF
:10453000F5440000F5440000F5440000F544000097
:10454000F5440000F5440000F5440000F544000087
:10455000F5440000F5440000F5440000F544000077
:10456000F5440000F5440000F5440000F544000067
:10457000F5440000F5440000F5440000F544000057
:10458000F5440000F5440000F5440000F544000047
:10459000F5440000F5440000F5440000F544000037
:1045A000F5440000F5440000F5440000F544000027
:1045B000F5440000F5440000F5440000F544000017
:1045C000F5440000F5440000F5440000F544000007
:1045D000F5440000F544000009560000F5440000D1
:1045E000F5440000F5440000F5440000F5440000E7
:1045F000F5440000F5440000F5440000F5440000D7
:10460000F5440000F5440000F5440000F5440000C6
:1046100029460000F54400003B550000342801F015
:10462000AC8471287FF466AF0022732322602B6074
:104630002368002B7FF461AF364E334806F04CFA06
:104640000421354805F0B2FF2F4806F045FA102145
:10465000324805F0ABFF2C4806F03EFA13213048F3
:1046600005F0A4FF2F4B2848196806F085FA264864
:1046700006F032FA14212C4805F098FF224806F083
:104680002BFA1E21294805F091FF1F4806F024FA55
:104690001521274805F08AFF1B4806F01DFA1E2148
:1046A000244805F083FF184806F016FA2021224816
:1046B00005F07CFF144806F00FFA19211F4805F099
:1046C00075FF114806F008FA12211D4805F06EFF2B
:1046D0000D4806F001FA0F211A4805F067FF0A4855
:1046E00006F0FAF90D21184805F060FF064806F0BB
:1046F000F3F9002201233260236002B0BDE8F081AB
:1047000068CEFF1F50CCFF1FD487FF1F0CCDFF1FAB
:104710006F12833A2487FF1FDC150100E4150100A6
:10472000F81501004487FF1F0C1601002416010034
:10473000441601005C1601007C160100A016010061
:10474000BC160100D0160100E0160100236828689D
:10475000062B40F08D80A0F13103402B3FF6CAAE0E
:1047600001A252F823F000BFB15400005F540000D2
:104770008B540000DD540000035500001755000065
:1047800041540000F5440000F5440000F5440000E9
:10479000F5440000F5440000F5440000F544000035
:1047A000F5440000F5440000F5440000F544000025
:1047B000F5440000F5440000F5440000F544000015
:1047C000F5440000F5440000F5440000F544000005
:1047D000F5440000F5440000F5440000F5440000F5
:1047E000F5440000F5440000F5440000F5440000E5
:1047F000F5440000F5440000F5440000F5440000D5
:10480000F5440000F5440000F5440000F5440000C4
:10481000F5440000F5440000F5440000F5440000B4
:10482000F5440000F5440000F5440000F5440000A4
:10483000F5440000F5440000F5440000F544000094
:10484000F5440000F5440000F5440000F544000084
:10485000F5440000F5440000F5440000F544000074
:10486000F5440000F544000029460000236828684C
:10487000052B40F08D80A0F13103402B3FF63AAE7E
:1048800001A252F823F000BF095200007D5300003E
:104890004153000061530000FD5200002753000007
:1048A000F5440000F5440000F5440000F544000024
:1048B000F5440000F5440000F5440000F544000014
:1048C000F5440000F5440000F5440000F544000004
:1048D000F5440000F5440000F5440000F5440000F4
:1048E000F5440000F5440000F5440000F5440000E4
:1048F000F5440000F5440000F5440000F5440000D4
:10490000F5440000F5440000F5440000F5440000C3
:10491000F5440000F5440000F5440000F5440000B3
:10492000F5440000F5440000F5440000F5440000A3
:10493000F5440000F5440000F5440000F544000093
:10494000F5440000F5440000F5440000F544000083
:10495000F5440000F5440000F5440000F544000073
:10496000F5440000F5440000F5440000F544000063
:10497000F5440000F5440000F5440000F544000053
:10498000F5440000F54400009D53000023682868AA
:10499000032B40F0B080A0F13003482B3FF6AAADC6
:1049A00001A252F823F000BFCD4A0000C35C000012
:1049B000495E0000715E0000EB5C00000D5D0000D0
:1049C000355D00005D5D00007B5D0000EB5B00007D
:1049D000F5440000F5440000F5440000F5440000F3
:1049E000F5440000F5440000F5440000F5440000E3
:1049F000F5440000F5440000F5440000F5440000D3
:104A0000F5440000F5440000F5440000F5440000C2
:104A1000F5440000F5440000F5440000F5440000B2
:104A2000F5440000F5440000F5440000F5440000A2
:104A3000F5440000F5440000F5440000F544000092
:104A4000F5440000F5440000F5440000F544000082
:104A5000F5440000F5440000F5440000F544000072
:104A6000F5440000F5440000F5440000135C00002C
:104A70005B570000315C00009F5D0000BD5D0000E1
:104A8000095E00001157000035570000F544000092
:104A9000F54400009B5C0000F5440000F544000074
:104AA000F5440000F5440000F544000029460000EC
:104AB0004F5C0000F5440000F5440000F5440000A0
:104AC000F5440000F5440000855C000005F044FD5D
:104AD000002841F34B82CB48CB4E06F08FF90127DB
:104AE000034601466222C948F36527602A60FCF745
:104AF00089F923682868012B3FF4CDAC73287FF433
:104B0000FCAC95E5A0F13103412B3FF6F3AC01A2DB
:104B100052F823F061560000795600001556000047
:104B2000875600008B560000A7560000B9560000BB
:104B3000BD560000C1560000F5440000F5440000D9
:104B4000F5440000F5440000F5440000F544000081
:104B5000F5440000F5440000F5440000F544000071
:104B6000F5440000F5440000F5440000F544000061
:104B7000F5440000F5440000F5440000F544000051
:104B8000F5440000F5440000F5440000F544000041
:104B9000F5440000F5440000F5440000F544000031
:104BA000F5440000F5440000F5440000F544000021
:104BB000F5440000F5440000F5440000F544000011
:104BC000F5440000F5440000F5440000F544000001
:104BD000F5440000F544000041560000F544000093
:104BE000F5440000F5440000F5440000F5440000E1
:104BF000F5440000F5440000F5440000F5440000D1
:104C0000F5440000F5440000F5440000F5440000C0
:104C1000F5440000294600007D56000005F09CFC8C
:104C2000002840F309847748774E06F0E7F807F04C
:104C3000ABFA774907F0FCFA0346024696F84810AB
:104C40007248F36414E005F087FC002840F3F08319
:104C50006C486D4E06F0D2F8C0B286F848000228C3
:104C600094BF01460021F26C684888BF86F848105E
:104C7000FCF7CAF801236920236028600BE405F0E3
:104C80002FFC05F069FC05460028F8D15D485E4E12
:104C900005F022FF5B4805F01FFF5A4805F01CFF96
:104CA000584805F019FF574805F016FF1F215948CD
:104CB00005F07CFC534805F00FFF1C21564805F019
:104CC00075FCB06A554907F0B3FA06F007FE009587
:104CD00002460B464B4805F057FF0221504805F0AD
:104CE00065FC484805F0F8FE23214E4805F05EFCBF
:104CF000706C4A4907F09CFA06F0F0FD00950246F8
:104D00000B46404805F040FF0221454805F04EFCA7
:104D10003C4805F0E1FE1921434805F047FC306CA2
:104D200006F0DCFD02250B4602460095354805F0ED
:104D30002BFF29463D4805F039FC324805F0CCFEF2
:104D400022213B4805F032FCB18E2E4805F014FFBD
:104D50000321384805F02AFC2A4805F0BDFE072348
:104D60002360FFF7CABB05F0BBFB05F0F5FB05466A
:104D70000028F8D12348244E05F0AEFE214805F066
:104D8000ABFE204805F0A8FE1E4805F0A5FE1D4814
:104D900005F0A2FE1521284805F008FC194805F089
:104DA0009BFE1821254805F001FC2B460A2296F8A7
:104DB0004810144805F0A0FE124805F08DFE282189
:104DC0001F4805F0F3FBF06C144907F031FA06F0C8
:104DD00085FD00950B4602460A4805F0D5FE0221E6
:104DE0000F4805F0E3FB074805F076FE1321154850
:104DF00005F0DCFB034805F06FFE08232360FFF796
:104E00007CBB00BFD487FF1F0CCDFF1FFC93FF1F8F
:104E10006F12833A241401004414010000007A4404
:104E2000A81201006414010088140100A4140100F8
:104E3000A8140100CC140100A416010060120100A6
:104E40007C120100AC12010005F04AFB05F084FB66
:104E500005460028F8D17F487F4E05F03DFE7D488D
:104E600005F03AFE7B4805F037FE7A4805F034FE3F
:104E7000784805F031FE1121784805F097FB754818
:104E800005F02AFE2821764805F090FBB0697549A7
:104E900007F0CEF906F022FD009502460B466D485C
:104EA00005F072FE0221704805F080FB694805F0AC
:104EB00013FE16216D4805F079FB306A694907F049
:104EC000B7F906F00BFD00950B460246614805F068
:104ED0005BFE0221644805F069FB5E4805F0FCFDBD
:104EE000D6F8B830002B32DD1D21614805F05EFB9D
:104EF000706E07F049F95F4907F09AF906F0EEFC89
:104F0000022502460B460095524805F03DFE012160
:104F1000594805F04BFB4F4805F0DEFD1F2157486F
:104F200005F044FBB06E07F02FF9524907F080F905
:104F300006F0D4FC009502460B46464805F024FED8
:104F400001214D4805F032FB424805F0C5FD112115
:104F50004B4805F02BFBD6F8B830062B00F29C87A7
:104F6000DFE813F0E507EA07E007DB07D607D1071C
:104F7000960705F0B5FA05F0EFFA0028F9D13548A3
:104F8000354E05F0A9FD334805F0A6FD314805F082
:104F9000A3FD304805F0A0FD2E4805F09DFD1F2122
:104FA000384805F003FB2B4805F096FD1E213648D6
:104FB00005F0FCFA274805F08FFD1A21334805F06B
:104FC000F5FAD6F88430022B01F06980032B01F04A
:104FD0005D80012B01F0518009212D4805F0E6FA92
:104FE0001C4805F079FD14212A481B4F05F0DEFA14
:104FF000D6F88010174805F0BFFD164805F06CFD87
:105000001C21254805F0D2FAD6F88810114805F081
:10501000B3FD104805F060FD1C21204805F0C6FADC
:10502000D6F8B4100B4805F0A7FD0A4805F054FD6A
:10503000D6F8845025F00205012D00F0E5871321F4
:10504000174805F0B3FA034805F046FD0223236034
:10505000FFF753BAD487FF1F0CCDFF1F481601007E
:10506000C012010000007A44A8120100EC120100F5
:1050700004130100CDCCCC3D6419010024130100C0
:1050800044130100241801004418010064180100B1
:10509000DC180100E81801000019010020190100C6
:1050A000AC12010005F01CFA05F056FA0028F9D1FF
:1050B000BE48BF4D05F010FDBC4805F00DFDBB48D6
:1050C00005F00AFDB94805F007FDB84805F004FDF4
:1050D0001321B84805F06AFAB44805F0FDFC0D212B
:1050E000B54805F063FAB14805F0F6FC0F21B34866
:1050F00005F05CFAB24BAD48196805F03DFDAB48D0
:1051000005F0EAFC1321AF4805F050FAAE4BA74872
:10511000196805F031FDA54805F0DEFC1221AB4809
:1051200005F044FAAA4BA148196805F025FD9F48EF
:1051300005F0D2FC1121A74805F038FAA64B9B4890
:10514000196805F019FD994805F0C6FC0E21A34821
:1051500005F02CFAD5F8A810944805F00DFD9348F9
:1051600005F0BAFC19219E4805F020FA9D4B8F48A6
:10517000196805F001FD8D4805F0AEFC11219A4833
:1051800005F014FA994B8948196805F0F5FC874831
:1051900005F0A2FC1021964805F008FA954B8348CB
:1051A000196805F0E9FC814805F096FC1C2192483D
:1051B00005F0FCF9914B7D48196805F0DDFC7B4852
:1051C00005F08AFC16218E4805F0F0F9B5F8A41018
:1051D000764805F0D1FC1E218A4805F0E7F97348AE
:1051E00005F07AFC1721884805F0E0F96F4805F0D2
:1051F00073FC1321854805F0D9F96C4805F06CFC67
:1052000004232360FFF779B905F0A6F900287FF79A
:10521000BDAB6648664E05F0F1FD01226B23C6F872
:105220008C0022602B6001E005F05AF905F094F93A
:105230000028F9D15D485E4D05F04EFC5B4805F055
:105240004BFC5A4805F048FC584805F045FC5748C7
:1052500005F042FC21216E4805F0A8F9534805F0FD
:105260003BFC15216B4805F0A1F9D6F88C104F488E
:1052700005F082FC0221684805F098F94B4805F0DA
:105280002BFC1E21654805F091F9D6F8941047488B
:1052900005F072FC0321624805F088F9434805F0E7
:1052A0001BFC1E215F4805F081F9D6F890103F489D
:1052B00005F062FC3D4805F00FFC1D215A4805F041
:1052C00075F9D6F8AC10394805F056FC374805F0AA
:1052D00003FC1E21554805F069F9D6F8B010334893
:1052E00005F04AFC314805F0F7FBD6F8A830012B51
:1052F00000F0F48605232360FFF7FFB805F02CF9D2
:1053000000287FF743AB2948294E05F077FD374B3E
:10531000C6F8B00003221A60FCF790FC01226B2350
:1053200022602B6082E7224E96F8C930B3FA83F3ED
:105330005B0901216B2286F8C93021602A6075E77C
:1053400005F00AF900287FF721AB1848184E05F040
:1053500055FD01226B23C6F8900022602B6065E7A3
:1053600005F0FAF800287FF711AB1048104E05F051
:1053700045FD1E4BC6F8AC000222CCE705F0ECF868
:1053800000287FF703AB0948094E05F037FD0122DD
:105390006B23C6F8940022602B6047E71349002373
:1053A00073220B6023602A60FFF742B9D487FF1F86
:1053B0000CCDFF1FF01601000417010014170100A7
:1053C0005CCEFF1F24170100F0CCFF1F381701002F
:1053D00020CEFF1F4C17010004CDFF1F60170100F6
:1053E000701701005C92FF1F8C1701008092FF1F55
:1053F000A01701004C92FF1FB41701004087FF1F48
:10540000D4170100EC1701000C180100AC120100C8
:10541000D0140100F4140100D81301000C15010090
:10542000800F01002C1501004C1501006C150100C6
:10543000AA4E96F8480012E423682868FFF70AB8D5
:10544000A64B93F8C820002A00F0D185002283F8EB
:10545000C8200123652023602860FFF71CB805F0F1
:105460007BF800287FF702AA9D489C4E05F0C6FCF9
:1054700006F08AFE9B4906F08FFF65230122306209
:1054800022602B601846FFF706B805F065F8002883
:105490007FF7ECA99248914E05F0B0FC00EB80003C
:1054A000430001226520736622602860FEF7F3BF87
:1054B00005F052F800287FF7D9A98948874E05F0F2
:1054C0009DFC06F061FE874906F066FF6523012218
:1054D000B06122602B601846FEF7DDBF05F03CF896
:1054E00000287FF7C3A97E487C4E05F087FC00EBBF
:1054F0008000430001226520B36622602860FEF729
:10550000CABF764AD2F8B8300133062BC8BF002391
:10551000C2F8B8309DE705F01FF800287FF7A6A96C
:105520006F486E4E05F06AFC65230122C6F8BC0088
:1055300022602B601846FEF7AEBF684AD2F884306E
:105540000133032BC8BF0023C2F88430012363203A
:1055500023602860FEF79FBF604ED6F88030B3FA14
:1055600083F35B0901226320C6F880302260286043
:10557000FEF791BF594ED6F88830B3FA83F35B0932
:1055800001226320C6F8883022602860FEF783BFBE
:105590000123236004F0E0FF0028D7DD50484F4E80
:1055A00005F02CFCC6F8B400D0E70123236004F01A
:1055B000D3FF002807DD4A48484E05F01FFC06F0DF
:1055C000E3FDC6F89C00632028602368FEF742BF15
:1055D0000123236004F0C0FF0028F4DD40483F4E63
:1055E00005F00CFC06F0D0FDC6F89800EBE70123AF
:1055F000236004F0B1FF0028E5DD3948374E05F09F
:10560000FDFBA6F8C200DEE7FDF736FB236828683D
:10561000FEF71EBF344A354F1368002B0CBF012123
:1056200000214FF001031160236040F041856422A6
:105630002A60082B4FF064007EF40CAFFEF751BFD8
:105640000123236004F088FF002805DD2448234E51
:1056500005F0D4FBA6F8A40064232B602368E8E7D8
:10566000234A1368B3FA83F35B09012164201360B2
:1056700021602860FEF70FBF1E4AF2E70123236076
:10568000FEF7C8FDE8E71C4AEBE7144ED6F8A83051
:10569000B3FA83F35B0901226420C6F8A8302260C4
:1056A0002860FEF7F8BE012314482360FBF704FAD4
:1056B000134A23681060BAE7124AD2E7124AD0E7C9
:1056C0000123236004F048FF002800F395840F4B6A
:1056D0001A68042AC0DD02221A60BDE70CCDFF1F44
:1056E000D487FF1F00007A4420CEFF1F68CEFF1F23
:1056F0005CCEFF1FF0CCFF1F04CDFF1FFC93FF1FEC
:105700005C92FF1F8092FF1F4C92FF1F4087FF1F7C
:1057100004F022FF00280DDD1748184E05F06EFB3F
:1057200006F032FD164906F037FE01226223706250
:1057300022602B6004F010FF00280EDD0E480F4E93
:1057400005F05CFB06F020FD0D4906F025FE012268
:105750006223C6F8C40022602B6004F0FDFE00281E
:1057600040F304840448054E05F048FB01226223FF
:10577000306722602B6007E0D487FF1F0CCDFF1F2E
:1057800000007A4404F0ACFE04F0E6FE0546002872
:10579000F8D1C348DFF8788305F09EF9C04805F0DA
:1057A0009BF9BF4805F098F9BD4805F095F9BC484C
:1057B00005F092F91521BB4804F0F8FEB84805F051
:1057C0008BF91421B84804F0F1FEB54805F084F9CE
:1057D0001B21B64804F0EAFEB14805F07DF913211B
:1057E000B34804F0E3FEAE4805F076F9AC4805F0A6
:1057F00073F9AB4805F070F92021AE4804F0D6FEED
:10580000F068AD4906F014FD06F068F80095024610
:105810000B46A34805F0B8F90221A84804F0C6FEDB
:105820000221A74804F0C2FE9D4805F055F9212148
:10583000A44804F0BBFE30699F4906F0F9FC06F06D
:105840004DF8009502460B46954805F09DF902215A
:105850009A4804F0ABFE0221994804F0A7FE904854
:1058600005F03AF91F21984804F0A0FEF06A06F00E
:1058700035F8022702460B460097894805F084F95F
:105880000121924804F092FE39468D4804F08EFEC4
:10589000834805F021F920218D4804F087FE306B04
:1058A00006F01CF8009702460B467D4805F06CF99F
:1058B0000121864804F07AFE3946814804F076FEDC
:1058C000774805F009F92321824804F06FFE306D16
:1058D000794906F0ADFC06F001F8009502460B464A
:1058E0006F4805F051F93946744804F05FFE3946B7
:1058F000734804F05BFE6A4805F0EEF81F21764815
:1059000004F054FE706D6C4906F092FC05F0E6FF61
:10591000009502460B46624805F036F9394667485D
:1059200004F044FE3946664804F040FE5C4805F049
:10593000D3F81921694804F039FE316E584805F052
:105940001BF93946664804F031FE39465C4804F0DC
:105950002DFE534805F0C0F81821624804F026FED9
:10596000F06E06F011FC604906F062FC05F0B6FF2F
:10597000009702460B464A4805F006F901215B48AC
:1059800004F014FE39464E4804F010FE444805F079
:10599000A3F82B21564804F009FEF069464906F0A9
:1059A00047FC05F09BFF009502460B463C4805F07E
:1059B000EBF83946414804F0F9FD3946404804F017
:1059C000F5FD374805F088F81F214A4804F0EEFD40
:1059D000F16D334805F0D0F83946394804F0E6FD5A
:1059E0002F4805F079F82021434804F0DFFDB16D20
:1059F0002B4805F0C1F83946314804F0D7FD284856
:105A000005F06AF810213D4804F0D0FD316F2448BC
:105A100005F0B2F83946294804F0C8FD394628484F
:105A200004F0C4FD1E4805F057F81321344804F073
:105A3000BDFD716F1A4805F09FF80121314804F04F
:105A4000B5FD39461E4804F0B1FD154805F044F88F
:105A500010212D4804F0AAFDB16F114805F08CF813
:105A60003946164804F0A2FD3946154804F09EFD5B
:105A70000B4805F031F81421244804F097FDF16F2C
:105A8000074805F079F801211E4804F08FFD3946DA
:105A90000B4804F08BFD024805F01EF8162139E092
:105AA000D487FF1FAC190100C4190100DC190100E3
:105AB000AC120100F819010000007A44A81201009C
:105AC000381101001C1A0100401A0100601A01007F
:105AD000641A0100881A0100AC1A0100CC1A0100F6
