:1000000000800020BD010000ED780000A578000010
:10001000A5780000A5780000A5780000A57800006C
:10002000A5780000A5780000A5780000ED78000014
:10003000ED780000A5780000E5920000E99300004B
:10004000ED780000ED780000ED780000ED7800001C
:10005000ED780000ED780000ED780000ED7800000C
:10006000ED780000ED780000ED780000ED780000FC
:10007000ED780000ED780000ED780000ED780000EC
:10008000ED780000ED780000ED780000ED780000DC
:10009000ED780000ED780000ED780000ED780000CC
:1000A000ED780000ED780000ED780000ED780000BC
:1000B000ED780000C16C0000CD6C0000D16C000038
:1000C000DD6C0000E16C0000E56C0000ED780000E4
:1000D000ED780000ED780000ED780000ED7800008C
:1000E000ED780000ED780000ED780000ED7800007C
:1000F000ED780000AD990000ED7800004D80000023
:10010000ED78000065830000ED780000ED780000D8
:10011000ED780000ED780000ED780000ED7800004B
:10012000ED780000ED780000ED780000ED7800003B
:10013000ED780000ED780000ED780000ED7800002B
:10014000ED780000ED780000ED780000ED7800001B
:10015000ED780000ED780000ED780000ED7800000B
:10016000ED780000B1850000ED780000ED7800002A
:10017000ED780000ED780000ED780000ED780000EB
:10018000ED780000ED780000ED780000ED780000DB
:10019000ED780000ED780000ED780000ED780000CB
:1001A000ED780000ED780000ED780000ED780000BB
:1001B000ED780000ED780000ED780000564B4CF231
:1001C000205210B51A804DF628121A8000BF00BFC9
:1001D00007F090FB514B4FF010621A60504A9A6042
:1001E000504ADA60504A136813F4807304D14F49BF
:1001F0000B604FF4A85313604D4B1A78110703D5C9
:100200001A7842F008021A704A4B4B492A221A7097
:100210004A4A4B4B8B4204D252F8040F43F8040B6A
:10022000F8E7484B484900228B4202D243F8042B9E
:10023000FAE74649464A002352F8230041F82300D2
:1002400001336F2BF8D1434B434A802103F8011B44
:100250009342FBD1414B3D4A1A60414B8A221A70AE
:10026000A3F5805324225A70A0221A709A7992071B
:10027000FCD59A79D406FCD43A4A937903F00C035E
:10028000082B384BF9D103221A7140225A719A79FE
:100290009006FCD5334A9179324B4906FBD5324A58
:1002A000324911600221516020221A709A7902F0BD
:1002B0000C020C2AFAD12E4B2E4A1A602E4B2F4AD2
:1002C0001A6000225A60072243F8042C2C4AC3F813
:1002D0000C2D62B607F0C4FD144B1B68DA0705D578
:1002E000284807F0A1FB284B284A1A60284B1B78A6
:1002F0005B0609D5244C254B22689A4204D121483B
:1003000007F092FB002323600BF054FE07F0F8FA8D
:1003100009F00CFAFEE700BF0E20054030800440D3
:10032000823F04000100002B10D0034014D0034092
:1003300002D0074000E007403892FF1FDC1901009F
:100340002087FF1F3892FF1FE8CEFF1F0082FF1F8C
:100350000000000000E400E05FE400E008ED00E0E1
:100360000050064000400640448004400000030165
:1003700004800440C010050014E000E0FF76010096
:1003800000002020315E435C1CE00340A5C3945A6A
:1003900000F00740FFFFFFFFFFFFFFFFFFFFFFFF32
:1003A000FFFFFFFFFFFFFFFFFFFFFFFFFFFFFFFF5D
:1003B000FFFFFFFFFFFFFFFFFFFFFFFFFFFFFFFF4D
:1003C000FFFFFFFFFFFFFFFFFFFFFFFFFFFFFFFF3D
:1003D000FFFFFFFFFFFFFFFFFFFFFFFFFFFFFFFF2D
:1003E000FFFFFFFFFFFFFFFFFFFFFFFFFFFFFFFF1D
:1003F000FFFFFFFFFFFFFFFFFFFFFFFFFFFFFFFF0D
:10040000FFFFFFFFFFFFFFFFFFFFFFFFDEF9FFFF23
:1004100010B5054C237833B9044B13B10448AFF33E
:1004200000800123237010BD3892FF1F00000000E0
:10043000D8190100084B10B51BB108490848AFF3A3
:1004400000800848036803B910BD074B002BFBD0A0
:10045000BDE81040184700BF000000003C92FF1F9D
:10046000D81901003892FF1F00000000F0B400F11D
:100470002C06144F00243146031F00F15C0243F8A0
:10048000044FB34241F8047F4FF0000542F8044F97
:10049000F5D10D4A0D49C0F890500023C0F8945092
:1004A000C0F89850C0F89C50C0F8AC50C0F8A020DC
:1004B000C0F8A820C0F8A41080F8B43080F8CC3080
:1004C000F0BC70470000A040000048430000C8C2D4
:1004D00001392DE9F84381461546032900F2BA8017
:1004E000DFE801F095714D02137A507A03EB00209A
:1004F0000BF0E4FA58490BF0E9FBC9F82400AB7A99
:10050000E87A03EB00200BF0D9FA53490BF0DEFB3D
:10051000C9F828002B7B687B03EB00200BF0CEFA98
:100520004D490BF0D3FBD9F80040C9F82C0009F174
:100530003006C84609F16005002701E058F8044F6D
:10054000306821460BF0CAFC0137214628B1D9F8A2
:10055000B0000BF0AFFC00B13460214628680BF00E
:100560009FFC04363D4920B120460BF0B7FC00B19A
:100570002C600C2F05F10405E0D1BDE8F883137A57
:10058000507A03EB00200BF099FA33490BF09EFBF5
:10059000C9F81800AB7AE87A03EB00200BF08EFA6A
:1005A0002D490BF093FBC9F81C002B7B687B03EBF8
:1005B00000200BF083FA28490BF088FBD9F80040A3
:1005C000C9F82000B3E7137A507A03EB00200BF050
:1005D00075FA21490BF07AFBC9F80C00AB7AE87A7E
:1005E00003EB00200BF06AFA1B490BF06FFBC9F814
:1005F00010002B7B687B03EB00200BF05FFA1649A1
:100600000BF064FBD9F80040C9F814008FE7137AA7
:10061000507A03EB00200BF051FA0F490BF056FB18
:10062000C9F80000AB7A0446E87A03EB00200BF02F
:1006300045FA09490BF04AFBC9F804002B7B687B9B
:1006400003EB00200BF03AFA03490BF03FFBC9F82B
:1006500008006CE704686AE700007A440000A040E4
:100660002DE9F04190F8CC4084B0202364008DF84F
:100670000530E4B2042380468DF804408DF806303E
:100680000327204607F00AFE02210DF1050007F0BE
:100690000FFE8DF8044005F08DFC30B30921404871
:1006A00008F0BAFC0023102221463E4808F0B6FEAE
:1006B00001213D4808F0B0FC002310229DF80510F0
:1006C000384808F0ABFE0121374808F0A5FC0023AC
:1006D00010229DF80610334808F0A0FE0121324890
:1006E00008F09AFC2F4808F089FE02208DF804409B
:1006F00007F068FB05F05EFC00284CD102AE002438
:1007000007F0ECFD70B3072C1FD101E007F0F6FDF8
:1007100007F0E4FD0028F9D105F04CFC10B12148A8
:1007200008F06CFE9DF80B009DF80C109DF80D2054
:100730009DF80E30C8F8B800C8F8BC10C8F8C02042
:10074000C8F8C43004B0BDE8F08107F0D7FD054615
:1007500006F8010B05F02EFC70B9013407F0BEFD60
:100760000028D0D1072CD3D005F024FC78B9013F64
:10077000D8D09DF8044084E7E9B20023102209484C
:1007800008F04CFE0121084808F046FCE5E7054862
:1007900008F034FEEBE70721044808F03DFCADE724
:1007A00058010100D887FF1F2C08010064010100D7
:1007B00090F8BC00704700BF90F8B800704700BFC9
:1007C00090F8C000704700BF90F8C400704700BFA9
:1007D0000C2994BF50F82100002070472DE9F0410A
:1007E0000B4E8046041F00F12C0754F8045F31467D
:1007F00028460BF055FB30B1D8F8B01028460BF066
:100800006DFB00B12E46BC42EFD13046BDE8F08111
:10081000000020412DE9F041D0F8B0704FF0000801
:10082000041F00F12C0654F8045F394628460BF0EB
:1008300055FB084948B128460BF032FB414620B130
:1008400028460BF04BFB00B1A846B442EBD1404622
:10085000BDE8F0810000A0402DE9F047D0F8B0706D
:1008600082464FF00009041F00F12C064FF00008EB
:1008700054F8045F394628460BF030FB0C4950B160
:1008800028460BF00DFB30B1484629460BF062F8C4
:1008900008F101088146B442EAD1CAF8D080404646
:1008A0000BF00CF9014648460BF010FABDE8F08752
:1008B0000000A040D0F8D000704700BF38B5D0F895
:1008C0009840D0F89450214628460BF0E9FA00B938
:1008D0002C46204638BD00BFD0F8C8302DE9F04185
:1008E000002B7CD1D0F89860D0F894500446314663
:1008F00028460BF02FF8D4F89C70394680460BF050
:1009000029F87F490BF0E2F94FF07C5104460BF0D7
:10091000E5FA002861D04FF07C5128460BF0DEFA52
:100920004FF07C51002861D128460BF0B9FA38B15C
:100930004FF07C5130460BF0D1FA002840F0A880EF
:100940004FF07C5128460BF0C9FA002861D14FF0D6
:100950007C5128460BF0C2FA002840F0A2804FF0EC
:100960007C5128460BF0BAFA00286DD14FF07C512B
:1009700028460BF095FA4FF07C5110B330460BF03F
:10098000ADFA38B14FF07C5138460BF089FA0028A7
:1009900040F0B1804FF07C5130460BF081FA0028D6
:1009A00062D04FF07C5138460BF098FA002840F0A6
:1009B000A48038464FF07C510BF072FA68B1514C6C
:1009C00011E028460BF06CFA0028E3D128464FF0DE
:1009D0007C510BF065FA002846D1BDE8F08100EBB0
:1009E0008300D0F890402046BDE8F08130460BF0FF
:1009F00075FA4FF07C5100283ED038460BF06EFA65
:100A00000028F0D14FF07C5128460BF049FA00281D
:100A100059D14FF07C5130460BF042FA002840D0BB
:100A20004FF07C5138460BF059FA002841D14FF075
:100A30007C5130460BF052FA68B14FF07C51384689
:100A40000BF02EFA00284FD14FF07C5130460BF0BE
:100A500027FA00288AD04FF07C5138460BF020FA54
:100A6000002883D02C46BEE730464FF07C510BF077
:100A700017FA0028B1D09CE728460BF011FA00289D
:100A8000C7D04FF07C5130460BF028FA0028C0D078
:100A90004FF07C5138460BF021FA00283FF450AF5C
:100AA00018E04FF07C5130460BF018FA0028CBD0FC
:100AB000C3E7394628460AF04DFF4FF07C510BF052
:100AC00051F804468FE74FF07C5138460BF006FA98
:100AD00000289ED0394630460AF03CFF4FF07C514A
:100AE0000BF040F804467EE740464FF07C510BF097
:100AF00039F8044677E7344675E73C4673E700BFAC
:100B0000000040400000A0C270B50446FFF7E4FEBC
:100B10004FF07C510BF0E2F940B3D4F894604FF001
:100B20007C5130460BF0DAF9D4F89850F8B9D4F883
:100B30009C404FF07C5128460BF0D0F958B1294623
:100B400030460BF0CBF930B1214628460BF0A8F91E
:100B500008B12C4621E04FF07C5120460BF0BEF945
:100B600020B1284621460BF0B9F980B970BD304656
:100B700029460BF095F9D4F89C400028D9D030468E
:100B800021460BF08DF90028D3D0344605E03046DD
:100B900021460BF0A3F90028E8D0204670BD00BF25
:100BA0002DE9F04F90F8CC3091B007465B008DF8FE
:100BB0000830FFF755FDD7F8C000D7F8C440D7F884
:100BC000BC30D7F8B82097F8CC108DE81100C94890
:100BD00005F0F6FA30223D2303268DF809208DF822
:100BE0000A300DF10A059DF8089049F001084046C9
:100BF00007F054FB0DF10900022107F059FB8DF8B5
:100C00000880424602AB00205040082410F0800FBC
:100C10004FEA400018BF80F00700013CC0B2F5D198
:100C20009D4202D013F8012FEEE707F037FB05F0E5
:100C3000C1F9002840F07C8202208DF8089007F06E
:100C4000C1F805F0B7F9002840F0B8820DF10C0AA0
:100C5000D146002407F042FB002843D0032C34D1B6
:100C600001E007F04BFB07F039FB0028F9D105F054
:100C7000A1F910B1A04808F0C1FB312303268DF87B
:100C800009308DF80A609DF8089049F00108404647
:100C900007F004FB0DF10900022107F009FB8DF8B4
:100CA0000880424602AB00205040082410F0800F1C
:100CB0004FEA400018BF80F00700013CC0B2F5D1F8
:100CC0009D4228D013F8012FEEE707F017FB09F833
:100CD000010B804605F06EF968B9013407F0FEFAA1
:100CE0000028BBD1032CBED005F064F978B9013ED1
:100CF0007FF479AFC1E75FFA88F1002310227E48C4
:100D000008F08CFB01217D4808F086F9E5E77A4878
:100D100008F074FBEBE707F0C1FA05F04BF9002887
:100D200040F0C58102208DF8089007F04BF805F0DF
:100D300041F9002840F03D820DF10C09002407F034
:100D4000CDFA002844D0032C35D101E007F0D6FAC3
:100D500007F0C4FA0028F9D105F02CF910B1664863
:100D600008F04CFB342201238DF809208DF80A305D
:100D700003269DF8089049F00108404607F08EFAD6
:100D80000DF10900022107F093FA8DF80880424620
:100D900002AB00205040082410F0800F4FEA4000C2
:100DA00018BF80F00700013CC0B2F5D19D4228D0A9
:100DB00013F8012FEEE707F0A1FA09F8010B8046BE
:100DC00005F0F8F868B9013407F088FA0028BAD1BC
:100DD000032CBDD005F0EEF878B9013E7FF453AF97
:100DE000C0E75FFA88F100231022434808F016FBA1
:100DF0000121424808F010F9E5E73F4808F0FEFA03
:100E0000EBE707F04BFA05F0D5F8002840F00E812B
:100E100002208DF8089006F0D5FF05F0CBF80028E9
:100E200040F0D6810DF10C09002407F057FA002894
:100E300000F08480032C72D101E007F05FFA07F024
:100E40004DFA0028F9D105F0B5F810B12A4808F09C
:100E5000D5FA012212238DF809208DF80A304FF0BF
:100E600003089DF80840204607F018FA02210DF10A
:100E7000090007F01DFA8DF8084005F09BF830B323
:100E800009211F4808F0C8F80023102221461A48FB
:100E900008F0C4FA0121194808F0BEF80023102216
:100EA0009DF80910144808F0B9FA0121134808F018
:100EB000B3F8002310229DF80A100F4808F0AEFA8C
:100EC00001210E4808F0A8F80B4808F097FA062010
:100ED0008DF8084006F076FF05F06CF8002840F029
:100EE000728103AD002607F0F9F900283FD0162ED5
:100EF0002FD109E06C010100D887FF1F2C080100E9
:100F00005801010007F0FAF907F0E8F90028F9D1D3
:100F100005F050F8162600287DD1152035E007F0A1
:100F2000EDF909F8010B804605F044F800285BD183
:100F3000013407F0D3F900287FF47CAF032C3FF491
:100F40007EAF05F037F800286CD1013E7FF411AF79
:100F50007FE707F0D3F905F8010B044605F02AF8FE
:100F600000284DD1013607F0B9F90028BFD1162E5F
:100F7000CAD005F01FF800284DD1B8F101087FF460
:100F800070AF701E002840F32A82002303AA1C467B
:100F900012F8011B08254C4014F0800F4FEA44045E
:100FA00018BF84F00704013DE4B2F5D10133834258
:100FB000EEDB9DF8218089484146224605F000F984
:100FC000162EC146A34602D1A04500F0138197F822
:100FD000CC108348CDF800B04B46324605F01EF9E0
:100FE000002011B0BDE8F08F5FFA88F100231022D5
:100FF0007C4808F013FA01217B4808F00DF897E7C8
:10100000E1B200231022774808F008FA012176485F
:1010100008F002F8A6E7734808F0F0F9162EACD1F4
:101020001520B2E76F4808F0E9F98EE709216F480B
:1010300007F0F2FF2346102241466A4808F0EEF915
:101040000121694807F0E8FF234610229DF80910A6
:10105000644808F0E3F90121634807F0DDFF10223E
:1010600023469DF80A105F4808F0D8F901215E4830
:1010700007F0D2FF21460DF10B0002AA12F8014B36
:101080006140C9B2082311F0800F4FEA410118BF37
:1010900081F00701013BC9B2F5D19042EED1102297
:1010A000504808F0BBF94F4808F0A8F9B0E609210C
:1010B0004E4807F0B1FF234610224146494808F048
:1010C000ADF90121484807F0A7FF234610229DF8FB
:1010D0000910444808F0A2F90121434807F09CFF99
:1010E000102223469DF80A103E4808F097F9012186
:1010F0003D4807F091FF21460DF10B0002AA12F8BE
:10110000014B6140C9B2082311F0800F4FEA410141
:1011100018BF81F00701013BC9B2F5D19042EED171
:101120001022304808F07AF92E4808F067F9F9E5FE
:1011300009212E4807F070FF234610224146294816
:1011400008F06CF90121284807F066FF23461022B9
:101150009DF80910234808F061F90121224807F0A1
:101160005BFF102223469DF80A101E4808F056F92E
:1011700001211D4807F050FF21460DF10B0002AA86
:1011800012F8014B6140C9B2082311F0800F4FEAF9
:10119000410118BF81F00701013BC9B2F5D190426E
:1011A000EED110220F4808F039F90E4808F026F960
:1011B00042E507210E4807F02FFFBDE507210C4847
:1011C00007F02AFF42E50721094807F025FF88E6D6
:1011D0000721074807F020FF24E600BFA001010017
:1011E000EC010100D887FF1F2C0801005801010005
:1011F000640101009DF80C3097F8CC20B3EB420F4E
:101200007FF4EEAE9DF80D30012B7FF4E9AE9DF832
:101210000E30122B7FF4E4AE9DF810309DF80F00D5
:1012200003EB00200AF04AFC75490AF09BFCD7F852
:10123000AC10C7F8900004460AF050FE08B1C7F899
:10124000AC40D7F8A81020460AF02AFE08B1C7F82B
:10125000A840A7F1040907F1300607F160054FF037
:101260000C089AF806309AF8050003EB00200AF003
:1012700025FC64490AF076FC49F8040F31680446FD
:101280000AF00EFE0AF1020A30B1D7F8B01020467B
:101290000AF01AFE00B13460296820460AF01EFEEA
:1012A000043600B12C60B8F1010805F10405D8D16D
:1012B0009DF81E309DF81D0003EB002002300AF05F
:1012C000FDFB51490AF002FD014650480AF0FEFCC0
:1012D0004F490AF03DFB4F490AF044FC054608F02F
:1012E000AFFC0446284608F0ABFC4B4908F01AFD59
:1012F0004A49054620460AF035FC49490AF02AFBCE
:101300004849044628460AF02DFC014620460AF0CA
:1013100021FB01464FF07E500AF0D8FC42490AF00A
:1013200017FB9DF81F209DF82030C7F8940003EBB1
:10133000022009300AF0C2FB3C490AF0C7FC014612
:1013400032480AF0C3FC32490AF002FB31490AF084
:1013500009FC054608F074FC0446284608F070FCB9
:101360002D4908F0DFFC2D49054620460AF0FAFB1E
:101370002B490AF0EFFA2B49044628460AF0F2FB03
:10138000014620460AF0E6FA01464FF07E500AF088
:101390009DFC25490AF0DCFAC7F898000446384657
:1013A000FFF7B2FBD7F8A01005460AF079FD08B1A7
:1013B000C7F8A050D7F89450204629460AF08EFD71
:1013C000B0B92946D7F8A4000AF06AFD10B12C463E
:1013D000C7F8A440164804F0F3FE012001E69DF88A
:1013E0002190144849464246C34604F0E9FEEEE522
:1013F000D7F8A41020460AF071FD0028E8D1E9E7EB
:101400001357053B2003C839001601470AD7E33FAD
:10141000E17A644000007A4400004040A40D8F3916
:101420005A80473A46A6DB3333938843002C014762
:10143000C4010100A00101002DE9F8430026D0F805
:10144000B080C0F890608146041F00F12C0754F86A
:10145000045F414628460AF041FD094950B128463B
:101460000AF01EFD30B1304629460AF073FA0646EE
:10147000C9F89000BC42EAD13046BDE8F88300BF0D
:101480000000A04002299ABF00EB8100D0F8940030
:10149000002070473E2998BF80F8CC10704700BFED
:1014A00090F8B400704700BFC0F8C810704700BF84
:1014B00080F8B410704700BF30B50F4CC0F8B010C2
:1014C00083B020460D4607F099FF204607F096FFAF
:1014D000284609F09DFE022502460B46009520464F
:1014E00007F0E6FF204607F089FF204603B0BDE87D
:1014F000304007F083BF00BFD887FF1F70B500F5ED
:1015000055550646083500F120042046D834FEF72C
:10151000ADFFAC42F9D106F1F805012428460021BF
:10152000FFF7C6FF214628460134FFF7B3FF3F2CE3
:1015300005F1D805F2D143F2505400250548064A7A
:10154000064B3555002130617161B261F36130465F
:1015500070BD00BF00007A44000048430000C8C2CC
:101560002DE9F04143F2545300F555563746002219
:101570008046C2500836143700F1F80402E0D8342F
:10158000B4420DD02046FFF78BFF0028F7D020464D
:101590003D68FFF78FF9D8342844B4423860F1D160
:1015A00043F2545358F80300BDE8F0812DE9F041AF
:1015B0000E46096801F00F04B1F5807F074690469A
:1015C00004F1010401F0F0053AD0302D36D02CDDC5
:1015D000402D13D0502D2CD10425072C12D9D823FF
:1015E00003FB0474203420460121FFF761FF3246DB
:1015F00029462046BDE8F041FEF76ABF072C4FF0B0
:101600000305ECD8B8F1010FE9D12146114807F0E4
:1016100045FF4146104807F0FFFC29460D4807F0FA
:101620003DFF0C4807F0EAFED9E7202D01D1012546
:10163000D3E7072CD3D8042DD1DCE3E70225CCE790
:1016400000231022034807F0E9FE024807F0D6FE07
:10165000BBE700BFD887FF1F48020100704700BFEB
:10166000704700BF2DE9F0430446002383B00646CF
:1016700044F8F83B012504E001353F2D04F1D8047E
:1016800069D02046FFF70CFF0028F5D0504804F041
:1016900097FD29464F4804F093FD2046FFF780FA56
:1016A0002046FFF7C9FE09F0B3FD02460B464A4843
:1016B00004F086FD2046FFF791F880462046FFF7AC
:1016C000A9F80746404609F0A3FD804638468946FA
:1016D00009F09EFD42464B46CDE900013F4804F02B
:1016E0006FFD00212046FFF7CDFE012180462046F8
:1016F000FFF7C8FE0746404609F08AFD8046384697
:10170000894609F085FD42464B46CDE90001344843
:1017100004F056FD2046FFF78FFE014630680AF0C0
:1017200019F930602046FFF7EFF9B1690AF0B8FB0C
:10173000002833D12046FFF7C1F8F1690AF0CEFB4B
:10174000002899D02046FFF7B9F801353F2DF06108
:1017500004F1D80495D170680AF0B0F901463068F8
:101760000AF0B4FA7169306004460AF0B7FB00B1C0
:101770007461316920460AF093FB00B134610B209B
:1017800006F0EAFA43F25053F35C60B99BB143F2BE
:1017900050530122F25403B0BDE8F0832046FFF716
:1017A000B3F9B061C6E753B943F250530022F25483
:1017B00003B0BDE8F0830B4804F030FDE7E70A48CA
:1017C00004F016FD43F250530022F254F0E700BF3C
:1017D000340401004C020100880201009C02010057
:1017E000C8020100E40201001C03010070B5114BA6
:1017F000836000F555550646083500F1F80402E00F
:10180000D834AC4213D02046FFF74AFE0028F7D068
:101810002046FEF7E3FFB1680AF042FB0028EFD054
:101820002046FEF7DBFFD834AC42B060EBD1B068A5
:1018300070BD00BF0000A04070B5002300F55555F5
:101840000646C360083500F1F80402E0D834AC4223
:1018500013D02046FFF724FE0028F7D02046FEF7DD
:10186000D9FFF1680AF03AFB0028EFD02046FEF7D6
:10187000D1FFD834AC42F060EBD1F06870BD00BF4E
:101880000068704741607047F8B500F555550F4640
:101890001646083500F1F80402E0D834AC420FD007
:1018A0002046FFF7FDFD0028F7D020463946FFF718
:1018B000FBFD20463146D834FFF7FEFDAC42EFD1A8
:1018C000F8BD00BF2DE9F84300F5555543F24C53E0
:1018D0002E4600278146C7504FF0000808350C36C9
:1018E00000F1F80402E0D834AC4213D02046FFF7F0
:1018F000D7FD0028F7D03368013333602046FEF768
:10190000EBFF0F490AF0EAFA88B9D834AC4207F184
:101910000107EBD143F24C5359F80300C01B0AF006
:10192000CDF8014640460AF0D1F9BDE8F8832046DB
:10193000FEF7D2FF014640460AF00CF88046D2E797
:1019400000008CC2F8B500F555550746002608354D
:1019500000F1F80402E0D834AC420FD02046FFF783
:101960009FFD0028F7D02046FEF776FF014630465F
:1019700009F0F0FFD834AC420646EFD143F24C53A5
:10198000F8580AF09BF8014630460AF09FF9F8BD76
:101990002DE9F04F06468FB083488B4604F0B8FB24
:1019A000814804F0B5FB804804F0B2FB43F24C538D
:1019B0003046F2580D92FFF7D3FD73680C9307463B
:1019C000306809F025FC804630468946FFF7BAFFAB
:1019D00082463046B468F568FFF774FF09F018FCDA
:1019E000CDE90A012146284609F0B2FF6F490AF005
:1019F000B9F809F00DFCCDE90801284609F008FC0A
:101A0000CDE90601204609F003FCCDE9040150466A
:101A100009F0FEFB0D9A0C9BCDE90201CDE900898E
:101A2000114663483A4604F073FB5F4804F070FBCC
:101A3000F8364FF001094FF0000A07E009F10109FB
:101A4000B9F13F0F06F1D80600F0A5803046FFF748
:101A500027FD0028F2D03046FEF7AAFE3046FEF7FA
:101A6000ABFE3046FEF7ACFE3046FEF7ADFE082179
:101A7000504807F0D1FA49464F4807F00FFDB9F139
:101A8000090F40F38B8002214C4807F0C5FA30461D
:101A9000FFF7D2FC09F0BCFB5FFA8BF802460B465D
:101AA000CDF80080444807F003FD0121444807F0C9
:101AB000B3FA5546002420E00621424807F0ACFA6C
:101AC00029463D4807F0EAFC02213F4807F0A4FA06
:101AD00021463046FEF77CFE09F09AFBCDF80080E7
:101AE00002460B46344807F0E3FC01340121344838
:101AF00007F092FA0C2C09D03D46092D05F101079B
:101B0000DADC0121314807F087FAD5E72A4807F0E7
:101B100075FC09212E4807F07FFA00213046FFF7B7
:101B2000B1FC09F075FB022402460B4600942248E2
:101B300007F0BEFC0A21274807F06EFA0121304663
:101B4000FFF7A0FC09F064FB009402460B461A481C
:101B500007F0AEFC0A21204807F05EFA2146304625
:101B6000FFF790FC09F054FB009402460B46124824
:101B700007F09EFC0121194807F04EFA09F101090E
:101B80000D4807F03BFCB9F13F0F0AF10C0A06F1D2
:101B9000D8067FF45BAF0FB0BDE8F08F01210B4892
:101BA00007F03AFA6FE700BF3404010000007A44FE
:101BB000CC0501006C060100D887FF1F88130100C7
:101BC000780601007C0601001C0801002C080100B9
:101BD00084060100900601009C060100A806010091
:101BE0002DE9F04100F1F80582B0012604E001364C
:101BF0003F2E05F1D80549D02846FFF751FC0028B3
:101C0000F5D03146234807F049FC0121224807F06E
:101C100003FA00244FF0020821462846FEF7D8FDBB
:101C200009F0F6FACDF8008002460B46194807F095
:101C30003FFC01340121184807F0EEF9062C4FF063
:101C40000207E9D100212846FFF71CFC09F0E0FA61
:101C5000009702460B460F4807F02AFC01210E4868
:101C600007F0DAF901212846FFF70CFC09F0D0FA59
:101C7000009702460B46074807F01AFC0136054854
:101C800007F0BCFB3F2E05F1D805B5D102B0BDE889
:101C9000F08100BFD887FF1F48020100F8B53A481D
:101CA0003A4C3B4D3B4E04F033FA3B4B3B493C48EE
:101CB0003C4A5C6011271F703B4F3C4CD960186157
:101CC00000213B485D615E623A4DDF624FF07C5619
:101CD0000C279A619C62384A384C1963586338491A
:101CE0009D6340F61C400A255E641F6541F20406B0
:101CF000344F9A64DC640222012419629866002140
:101D00003220DD661E6764254FF49676DF61DF635F
:101D10005A275A705A7283F84010C3F89C0018660C
:101D20005E66DE651C725C659D654FF47A7C5F675C
:101D3000DFF898E09967DA67C3F88010C3F8880085
:101D4000C3F8A400204FC3F8A010FF2641F2883149
:101D50000520C3F8B02040F2D662C3F8AC40C3F807
:101D6000B450C3F88CC0C3F890E0C3F89470C3F8C3
:101D7000A860A3F8BA00C3F88410A3F8B810A3F8B9
:101D80009820A3F89A20F8BDAC06010020A1070016
:101D900033338340CDCCCC3D3C93FF1F66668640F9
:101DA00000004040CDCC4C40000020C100008242E9
:101DB000000020420000A0409A9979400AD7233DB4
:101DC00033337340CDCC4C3E00C020440000684209
:101DD000F0B54FF47A6085B005F0F4FF00210F20D4
:101DE00005F0C8FF00210E2005F0C4FF00211120DE
:101DF00005F0C0FF0021102005F0BCFF00211220DB
:101E000005F0B8FF0021132005F0B4FF01210B20DD
:101E100005F0B0FF01210C2005F0ACFF01211420DA
:101E200005F0A8FF0121152005F0A4FF01211620CF
:101E300005F0A0FF0121172005F09CFF01210520DE
:101E400005F098FF974C984D0121062005F092FF70
:101E500001210D2005F08EFF208809F02BFE0146A0
:101E6000162005F0F1FE208809F024FE0146172017
:101E700005F0EAFE208809F01DFE0146052005F068
:101E8000E3FE208809F016FE00240146062005F036
:101E9000DBFE00942346854A8549864804F0B8FB5A
:101EA000E6B232468049834804F060FB2B797E49D4
:101EB00080486FF30003013432462B7104F04CFB71
:101EC000082CEDD10924E6B232467749794804F06E
:101ED0004DFB2B797449774843F0010301343246B6
:101EE0002B7104F039FB0D2CEDD1734C4FF0FF3208
:101EF0002068102104F058FF20684FF0FF321021B5
:101F000004F02AFF20684FF0FF32022104F038FF6E
:101F100020684FF0FF32022104F03CFF00220F2125
:101F2000206804F04BFF0C21644807F075F8644802
:101F300007F064FA1121634807F06EF8604807F073
:101F40005DFA44F6206005F0FBFF5D4807F056FAA5
:101F500017215D4807F060F8594807F04FFA5B4BCE
:101F60001B789A0600F1D480584B1B781B0700F1B0
:101F7000DB80564B1B785F0700F1E280534B1B78E8
:101F80009E0700F1E980524B1B781D0600F1F0809E
:101F90004F4B1B785C0600F1F7804D4B1B78980681
:101FA00000F1FE804A4B1B78590700F10581484B30
:101FB0001B781A0700F10C81454B1B789B0700F139
:101FC00013813F4807F01AFA72B6424A4CF2205386
:101FD0004DF628112024138023461180013BFDD1AA
:101FE0003D4D3E483E4900234FF480562E800380ED
:101FF0000B8032F80E3C9BB243F0D30322F80E3C28
:1020000062B69D2006F0FAF821463648364D07F0B4
:1020100003F82B4807F0F2F905F1BC062F462C46D1
:10202000601B05F0ADFB04F8010BB442F8D13B781E
:10203000112B01D0FFF732FE2C482D4DFFF710FB7E
:10204000042003F0B1FF2B4B284800221A60FFF751
:1020500005FB01210D2005F079FE796D2348FFF77E
:1020600011FC7A6C97F840102048FFF70DFC2248CD
:10207000224B046803941B682149224A039E00688E
:1020800002901268204C2E6081FB0301DB171F4871
:10209000A3EB21130299216013FB02F3038005B027
:1020A000F0BD00BF2487FF1F0094FF1FE4CBFF1F7C
:1020B00020A1070048CAFF1FA894FF1FCC060100FB
:1020C000D887FF1FDC060100F006010001F0074081
:1020D00000F007400E200540042005400620054082
:1020E00016200540F40701003C93FF1FE094FF1FFA
:1020F000DC94FF1F6892FF1FF0CBFF1F6C87FF1F50
:102100001F85EB516887FF1F0894FF1FB494FF1FC2
:102110002121394806F080FF384807F06FF9384B25
:102120001B781B077FF525AF0C21364806F074FF9E
:10213000324807F063F9324B1B785F077FF51EAF1B
:102140000E21314806F068FF2C4807F057F92C4B58
:102150001B789E077FF517AF17212C4806F05CFF10
:10216000264807F04BF92A4B1B781D067FF510AF68
:102170000E21284806F050FF204807F03FF9244B75
:102180001B785C067FF509AF1221234806F044FF57
:102190001A4807F033F91E4B1B7898067FF502AFFB
:1021A00013211E4806F038FF144807F027F9184B92
:1021B0001B7859077FF5FBAE1C21194806F02CFF50
:1021C0000E4807F01BF9124B1B781A077FF5F4AE87
:1021D0001921144806F020FF084807F00FF90C4BAE
:1021E0001B789B077FF5EDAE18210F4806F014FF12
:1021F000024807F003F9E4E608070100D887FF1F4B
:1022000001F007402C0701003C0701004C070100CA
:1022100000F007406407010074070100880701000F
:102220009C070100BC070100D8070100F8B5464C27
:10223000464D4748E66800232B70FFF7FDFA01463C
:10224000304609F02DFE08B104232B704048FFF7FB
:10225000CDFA216909F024FE18B12B7843F0100360
:102260002B703B48FFF72EFBA16A09F037FE18B12F
:102270002B7843F040032B70002335486B70FFF739
:1022800021FBE16A314D09F00BFE08B101236B70AF
:10229000304D2F4800232B70FFF7CEFA616A0646B7
:1022A000E06809F055FB0146304609F017FE08B119
:1022B00004232B702648FFF799FA616A06462069C5
:1022C00009F048FB0146304609F0EAFD18B12B78C9
:1022D00043F010032B701E48FFF7F4FAA16B06467B
:1022E000A06A09F035FB0146304609F0F7FD18B148
:1022F0002B7843F040032B70002315486B70FFF7D9
:10230000E1FAA16B134F0646E06A09F023FB014690
:10231000304609F0C5FD08B101237B7000230C484D
:10232000EB70FFF789FA054609480A4EFFF75EFA97
:102330000146284609F00CFBE16B09F0CFFD08B11E
:102340000123F370F8BD00BF3C93FF1F3893FF1FBC
:10235000E094FF1F9C94FF1F514B1B68002B74D00F
:10236000F0B5504D2B680533B3F57A7F83B040F359
:102370008E80002300272B604B4CD4F8A40009F07A
:102380009DFB0646D4F8A80009F098FB314609F0F9
:10239000DFFA394609F0E6FB444909F097FC31467B
:1023A00009F0D8FA09F0BAFD0146062005F04EFB07
:1023B00002213F4806F030FE3E4807F01FF8062194
:1023C0003D4806F029FE286809F078FB3B4909F0F2
:1023D000C9FB08F01DFF022602460B460096354851
:1023E00007F066F80D21364806F016FED4F8A40072
:1023F00009F064FB0746286809F060FB2F4909F0E3
:10240000B1FB0546D4F8A80009F058FB394609F09D
:102410009FFA0146284609F0A5FB244909F056FC1D
:10242000394609F097FA08F0F3FE009602460B468B
:10243000204807F03DF831461D4806F0EDFD1D48E7
:1024400003B0BDE8F04006F0D9BF174B1D4AD3F8E2
:10245000A410D3F8A83012685B1A632B0BDD1A485E
:1024600003FB02F380FB0302DB17C3EB6213194487
:10247000062005F0EBBA154803FB022380FB03029C
:10248000DB17C3EB22121144062005F0DFBA184611
:102490002B6009F013FB094909F064FB07466BE761
:1024A0008C94FF1F6C92FF1F3C93FF1F0000C842DB
:1024B00088130100D887FF1F18080100CDCCCC3D40
:1024C000200801003887FF1F1F85EB51CBF08D28B6
:1024D00070B5A248A24C06F091FFA04806F08EFF0E
:1024E0009E4806F08BFF0D219E4806F095FDD4F81E
:1024F000A030012B11D09C4C9848217800230A224F
:1025000006F08CFF2378052B67D8DFE813F0E9008D
:10251000EE00F300F800FD00E4000921934806F006
:102520007BFD9348FFF762F9216909F0B9FC18B106
:102530000F21904806F070FD8D48FFF77DF9E168A6
:1025400009F0CCFC18B10E218B4806F065FD8848D7
:10255000FFF772F905468648FFF748F90146284615
:1025600009F0F6F9E16B09F0B9FC18B111218348C3
:1025700006F052FD7E48FFF7A5F9A16A09F0AEFC0E
:1025800018B10C217E4806F047FD7948FFF79AF90B
:10259000E16A09F085FC18B10D217A4806F03CFD8E
:1025A000794B73481B68012B00F0C280FFF71EF9BE
:1025B00021696B4D09F092FC78B16D48FFF73CF949
:1025C000E96809F06DFC40B1674B1B78052B00F002
:1025D000C08008216D4806F01FFD02216C4806F0FE
:1025E0001BFD122005F0B8FB012800F09C80112093
:1025F00005F0B2FB012800F09180664B1B68012BAF
:1026000000F087800221624806F006FD624B5348C5
:10261000196806F043FF514806F0F0FE04215F48B8
:1026200006F0FAFC0B2005F097FB002301460A2276
:102630004A4806F0F3FE0C2005F08EFB002301460D
:102640000A22464806F0EAFE142005F085FB002326
:1026500001460A22414806F0E1FE152005F07CFB08
:10266000002301460A223D4806F0D8FE06214C48C8
:1026700006F0D2FC4B4B394819680222002306F0C1
:10268000CDFE0421484806F0C7FC112005F064FB8C
:10269000002301460A22314806F0C0FE102005F052
:1026A0005BFB002301460A222C4806F0B7FE1220ED
:1026B00005F052FB002301460A22284806F0AEFE30
:1026C000132005F049FB002301460A222348BDE8F8
:1026D000704006F0A3BE0721344806F09DFC7CE75D
:1026E0000621334806F098FC77E70721314806F0C9
:1026F00093FC72E70721304806F08EFC6DE7082155
:102700002E4806F089FC68E70B212D4806F084FC72
:1027100063E711212B4806F07FFC73E70A212A4862
:1027200006F07AFC69E70E21284806F075FC5EE7A2
:10273000FFF75CF8216A09F0D1FB00283FF449AFAC
:102740001621234806F068FC0A21224806F064FCA2
:1027500043E70A211F4806F05FFC3EE7D887FF1FCA
:102760003C93FF1F300801009894FF1F40080100B0
:10277000E094FF1F4C0801005C0801006C08010098
:1027800080080100900801007892FF1FC408010032
:1027900088130100B094FF1F9094FF1F38090100B7
:1027A00040090100F893FF1F4809010000090100DA
:1027B000D0080100D8080100EC080100F40801006D
:1027C000E0080100240901001809010008090100BE
:1027D000A0080100B80801002DE9F04F904CDFF887
:1027E0008882E36F012B8DB000F04281032B51D022
:1027F0008C4E8D4DA36F8D48012B09BF2968296828
:1028000001F10041296004F0ADFE3368002B40F077
:10281000C780864804F07CFEE36FC8F80000012BF7
:10282000064600F0CA80824909F058FB78B9814910
:10283000304609F035FB50B97F4A804B12680B9245
:102840000B9A1A6000232B600DB0BDE8F08FDFF803
:10285000E8817A4CD8F800300A930A982368784FB8
:10286000C01A09F027F9314609F07CF9754909F0D9
:102870002DFA744909F02AFA396809F06BF8D8F88A
:1028800000300993099B2360002338602B600DB052
:10289000BDE8F08F6C4F6D4D3868624E0123002209
:1028A0000F212B6004F08AFA2B68012B336800F0AB
:1028B000FC80002B40F0958100213868DFF8AC9156
:1028C000614D04F0CDFA33681FFA80FBC9F800B0FF
:1028D000002B40F06B8100213868534DDFF868A170
:1028E00004F044FAB4F89A3040F6E44101FB0BF1ED
:1028F000B1FBF0F0C01A00B209F0E0F85449834689
:10290000D4F8900009F02EF90146584609F0DEF996
:10291000D9F800302860632BDFF850B100F33A811A
:1029200000232B603368002B3FF464AF0221494839
:1029300006F072FBD9F80020386840F6E443002125
:1029400003FB02F704F012FAB7FBF0F009F0B2F85B
:102950000746B4F89A0009F0B1F80146384608F085
:10296000F7FF08F055FC022702460B4600973A484D
:1029700006F09EFD3946374806F04EFB286808F001
:1029800047FC009702460B46334806F091FD394656
:10299000324806F041FB39462E4806F03DFB29E758
:1029A000224804F0B5FD08F033FC022602460B462F
:1029B0000096294806F07CFD2BE7244B1B68012B71
:1029C00000F01B81022B7FF43DAF254909F086FA08
:1029D00030B92449304609F063FA002800F03C8100
:1029E000DFF85480154CD8F8003007930798236817
:1029F000134FC01A09F05EF8314609F0B3F81149D7
:102A000009F064F90F4909F061F9396808F0A2FF8B
:102A1000D8F800300693069B3860236012E700BFA9
:102A20003C93FF1FD494FF1F7492FF1F1493FF1F4A
:102A30000000FA430000FAC3F0CBFF1F5492FF1FBF
:102A40008C92FF1F00007A44A894FF1F5C87FF1F31
:102A500017B7D13888130100D887FF1F8C090100F0
:102A600000C82F4800A08CC68492FF1F3493FF1F1C
:102A7000D8F800509F49284609F012FA30B128468C
:102A80009D4909F02BFA00287FF404AF9B4F9C4D21
:102A900038689C4E022300220E212B6004F08EF930
:102AA0002B68012B33687FF404AF002B40F0DB80F0
:102AB00000213868DFF88C92904D04F0D1F932682B
:102AC0001FFA80FBC9F800B0002A40F0F78000210F
:102AD00038688D4D04F04AF9B4F8982040F6E44A7D
:102AE0000AFB0BF3B3FBF0F0801A00B208F0E6FF2C
:102AF00086498346D4F8940009F034F801465846D4
:102B000009F0E4F8D9F800302860002138680AFBA1
:102B100003FB04F02BF9B4F89810BBFBF0F0B4F809
:102B2000BA2003B25B1A934280F2AE8000232B607E
:102B30003368002B3FF45EAE0221754806F06CFA54
:102B4000D9F80020386840F6E443002103FB02F77F
:102B500004F00CF9B4F89810B7FBF0F000B2411A89
:102B60006C4806F09BFC0221694806F055FA28687B
:102B700008F04EFB022702460B460097654806F018
:102B800097FC0321644806F047FA3946604806F08E
:102B900043FA2FE6DAF80000002104F0E7F8DBF84A
:102BA000003064389842FFF4BBAEBBE600212868D1
:102BB00004F0DCF840F6E44100230A2201FB0BF1AB
:102BC000B1FBF0F1534806F029FC0221504806F011
:102BD00023FAB4F89A104F4806F060FCD9F800B018
:102BE00079E64C4806F00AFC0C214C4806F014FA31
:102BF0000C214B4806F010FA5EE64A4909F06EF9DE
:102C000058B94949304609F04BF930B9474A484B61
:102C100012680592059A1A6014E6DFF81081444C98
:102C2000D8F80030049304982368424FC01A08F083
:102C300041FF314608F096FF3F4909F047F83E4909
:102C400009F044F8396808F085FED8F8003003939D
:102C5000039B38602360F5E5344A354B12680892CF
:102C6000089A1A60EEE52B4806F0C8FBE36F012BCB
:102C70004FF00B010CBF3148314806F0CDF90C2163
:102C8000274806F0C9F913E72E4B1C4A1B68106849
:102C900000210AFB03FA04F069F82B4B2A4AB3F827
:102CA0009830B2F8BA20BAFBF0F00FFA80FAC3EB12
:102CB0000A0352429342FFF639AF39E700212868F0
:102CC00004F054F840F6E44100230A2201FB0BF122
:102CD000B1FBF0F10F4806F0A1FB01211B4806F003
:102CE0009BF9B4F898100B4806F0D8FBD9F800B05F
:102CF000EDE600BF00709446007094C6A894FF1FD4
:102D00005C87FF1FD494FF1F7492FF1F17B7D13841
:102D100088130100D887FF1F780901007C09010092
:102D2000680901000000FA430000FAC3F0CBFF1F5E
:102D30005492FF1F8C92FF1F00007A44500901003B
:102D40005C0901003493FF1F3C93FF1F2C08010016
:102D50002DE9F043AB4D2B6883B0002B00F087804A
:102D6000A94CAA4EE36FAA4FA74D012B00F0BF80DC
:102D7000D4F88030DFF89082012B00F0ED80D8F895
:102D80005850D7F80090D8F8548005FB08F54FF458
:102D90007A7000FB05F008F091FE9E49DFF86C8226
:102DA0000546484608F0DEFE294608F08FFF9A499E
:102DB00008F0D8FE09F0B2F8632830604BDD2846F1
:102DC000944908F083FF6423C8F80030934B3860BF
:102DD0001B68002B48D0E36F8B4D012B00F0ED807A
:102DE000032B00F0FD80022B00F0008102218C48B3
:102DF00006F012F98B4B186808F00AFA0224024612
:102E00000B460094884806F053FB2146874806F09D
:102E100003F92146824806F0FFF83168824806F03F
:102E20003DFB0621824806F0F7F83868794908F03A
:102E300099FE08F0EDF9009402460B467A4806F038
:102E400037FB03217B4806F0E7F8774803B0BDE87D
:102E5000F04306F0D3BA0028BCBF0023C8F8003006
:102E60006E4B1B68002BB6D103B0BDE8F0837248EF
:102E7000654CFEF767FD7149A76EE66E08F072FEBD
:102E800009F072F8226F636FD21B9B1B80B29342D2
:102E9000A0EB0700C0F29D8003FB00F393FBF2F36D
:102EA00033445A4E5E483360022106F0B5F831686B
:102EB0005D48574F06F0F2FA0221594806F0ACF887
:102EC0003268A06D636D02FB00F003FB00F000EBC5
:102ED0008000400008F0F2FD4E4908F0F7FE0123A3
:102EE0002B60E36F3860012B474D7FF441AF5248B0
:102EF000FEF728FD5149D5F86890D5F86C8008F0A8
:102F000031FE09F031F82A6F6B6FC9EB0202C8EB92
:102F1000030380B29A42C9EB00006CDD03FB0000A2
:102F2000531C90FBF3F303EB0800A26D636D30605C
:102F300002FB00F003FB00F000EB8000400008F013
:102F4000BDFD3449DFF8C08008F0C0FED4F8803001
:102F50003860012B7FF413AF3748FEF7F3FC374995
:102F6000D8F86890D8F86C5008F0FCFD08F0FCFF29
:102F7000D8F87020D8F87430D4F85480C9EB020225
:102F80005B1B80B29A42C9EB0000C6BF03FB000086
:102F90000132584390FBF2F02844A56D00FB05F088
:102FA00008FB00F000EB8000400008F087FD1949A5
:102FB00008F08CFE81463860E7E6214B1B68012B48
:102FC0004FF00A010CBF1F481F4806F025F8EB6FB1
:102FD00006E703FB0000531C90FBF3F3334460E768
:102FE00010211A4806F018F8E36FFCE6072118488C
:102FF00006F012F8FAE603FB00F393FBF2F303EB9F
:10300000080092E77092FF1F3C93FF1F3887FF1F55
:103010008C92FF1FE4388E3E0000C8424887FF1F95
:10302000881301008492FF1FD887FF1F8C090100BD
:10303000C4090100CC090100E094FF1F00007A449C
:103040005C87FF1F900901009C090100A80901008D
:10305000BC090100F0B5112083B004F07DFE012809
:1030600013D000210B2004F071FE00210C2004F08D
:103070006DFE0021152004F069FE1D491D4B012045
:10308000002208701A6003B0F0BD01460446152006
:1030900004F05CFE1849194A194B09680191D2F8ED
:1030A00084001B680199134D034402268B422E6055
:1030B00017D8D2F88C0008F001FD124B196808F0FF
:1030C000EFFE074668B921460B2004F03FFE084A90
:1030D000032339460C2016702B6004F037FE03B032
:1030E000F0BD01210C2004F031FE03B0F0BD00BFA3
:1030F0009894FF1FD094FF1FF0CBFF1F3C93FF1F3E
:10310000DC94FF1F8492FF1FF0B5684E684D346851
:103110002B689C4287B039D014F0010155D014F0CF
:10312000020149D014F004013DD0E3070ED52B680D
:10313000DF070BD45F4F3A68002A00F082805E4BB5
:103140001B680193019B93426DD83468A0070DD58D
:103150002B6899070AD4594F3A68002A4CD0564B2D
:103160001B680393039B934238D8346862070DD5DC
:103170002B685B070BD4524F3A68002A7ED04E4B27
:103180001B680593059B934268D834680CB107B05F
:10319000F0BD2146162004F059FC2146172004F00A
:1031A00055FC07B0F0BD052004F050FC2B683468D6
:1031B00003F0FB032B60B8E7172004F047FC2B68F3
:1031C000346803F0FD032B60ACE7162004F03EFCEE
:1031D0002B68346803F0FE032B60A0E7394B1720FF
:1031E000D3F8881004F032FC2B68346843F00203F3
:1031F00000222B603A60B9E7334806F0FFF80C2153
:10320000324805F009FF304806F0F8F8FF21172092
:1032100004F01CFC284B2E4A19680291029912688E
:103220000A443A609CE7274B1620D3F8881004F034
:103230000DFC2B68346843F0010300222B603A60D8
:1032400084E7FF21162004F001FC1B4B204A19687B
:103250000091009912680A443A6071E7194B052001
:10326000D3F8881004F0F2FB2B68346843F00403B1
:1032700000222B603A60002C89D18AE7124806F0C0
:10328000BDF80C21134805F0C7FE0F4806F0B6F84C
:10329000FF21052004F0DAFB074B0D4A1968049161
:1032A000049912680A443A606AE700BFD094FF1F8D
:1032B000F893FF1F7094FF1FF0CBFF1F7494FF1F44
:1032C0007894FF1F3C93FF1FD887FF1FD009010090
:1032D0008087FF1FE00901002DE9F047544EDFF819
:1032E0007481DFF874913068524D00220F2103F091
:1032F00065FD0023012222214F48C8F80030C9F89B
:10330000002005F089FED8F80030132B22DC40F6AF
:10331000E44700213068B5F898A003F0A1FD002132
:103320000446306803F022FDA4B2012107FB04F437
:10333000B4FBF0F441485444A5F8984005F06CFE05
:10334000642004F03FFDD8F800300133132BC8F897
:103350000030DEDDB5F89830394A3A48A2FB031256
:103360009B1A02EB5303C3F30F131946A5F89830C9
:1033700006F094F81D21344805F04EFE0221334832
:1033800005F04AFE2F4806F039F800231A460E21B0
:103390003068C8F8003003F011FD022322212648CE
:1033A000C9F8003005F038FED8F80030132B22DCC5
:1033B00040F6E44700213068B5F89A9003F050FDDC
:1033C00000210446306803F0D1FCA4B2012107FBC0
:1033D00004F4B4FBF0F419484C44A5F89A4005F005
:1033E0001BFE642004F0EEFCD8F800300133132BF0
:1033F000C8F80030DEDDB5F89A30114A1148A2FB5A
:1034000003129B1A02EB5303C3F30F131946A5F8DB
:103410009A3006F043F81D210D4805F0FDFD02210C
:103420000A4805F0F9FD0748BDE8F04705F0E6BF9A
:10343000A894FF1F3C93FF1FF0090100340A01000C
:1034400087611886D887FF1F140A010088130100BE
:10345000380A01009494FF1F5C87FF1FF8B5874B63
:10346000874C884F1B68386D40F25131082221602B
:10347000E271002B00F0FD8008F020FB396A054660
:1034800008F070FB804908F06DFB08F06DFD80B21C
:10349000031263727D4A7E4B12681B68B969207201
:1034A000A37228461B121512E3722273657308F08B
:1034B00059FB754908F056FB08F056FD83B21A1205
:1034C0006F497448A373E27303F09AFA724B734A1C
:1034D0001B6812886A49A272DDB2257205EB850667
:1034E00003EB8305760045F3D71540F2553E1212E3
:1034F0001B1226736573082600256648C4F800E091
:10350000E2726372E671A573E57303F079FA40F233
:10351000563363482360E671FEF7B2F9614908F05B
:1035200021FB08F021FD20725D48FEF7A9F95D49F5
:1035300008F018FB08F018FD5B4A5A49C0F307234E
:103540001068637208F0C2FB08F0E8FC40FA06F26B
:1035500003465348E272A372FEF7B4F94A4908F0F1
:1035600001FB08F001FD20734D48FEF7ABF9464919
:1035700008F0F8FA08F0F8FC4149A573C0F30723F6
:1035800044486373E57303F03BFA022004F01AFC2D
:10359000464A474B11785078217291786072D27800
:1035A0009878A172597893F800E0E2726173DA7842
:1035B000A07340F25A3332493648E67184F80CE081
:1035C000E273236003F01CFA3A4B2D491A785878BD
:1035D000227260729A78D878A272E0721A79987919
:1035E00093F805E02273A073DA792A4884F80DE095
:1035F00040F25E33E2732360E67103F001FA0220C9
:1036000004F0E0FB2C4B1E491A7858782272607245
:103610009A78D878A272E0721A79987993F805E0CE
:103620002273A073DA791B4884F80DE04FF45C73C1
:10363000E2732360E67103F0E3F9022004F0C2FBB9
:10364000BA6DE67142FA06FE012340F25F370226A8
:10365000227399222572657284F80DE02760A672A4
:10366000E372E373A27306490A48BDE8F84003F029
:10367000C7B908F023FA7969054601E77892FF1F78
:10368000C094FF1F3C93FF1F00002041A494FF1F24
:103690005C92FF1F48CAFF1F3887FF1F4487FF1F28
:1036A000E094FF1F0000C8428492FF1F3893FF1F61
:1036B0009C94FF1F2887FF1F6087FF1FF0B5984C61
:1036C000984D83B005F042FC23682860042B00F07D
:1036D000A482022B4BD0082B00F09280072B40F0E5
:1036E0004981332801F0A58300F3A680312801F039
:1036F000B383322840F0A98005F064FC002840F331
:1037000037818948894E06F00DF808F0D7F98849C5
:1037100008F028FA61230122F06322602B6018462A
:10372000A0F152031F2B01F26283DFE813F0060BB6
:10373000600B600B600B600B600B600B600B600B31
:10374000600B600B600B600B600B600BB003790CBF
:103750003705A5057104600B600B600B2404600B3A
:103760007C0C600B600B600B600B600BF40AA0F12B
:103770003102422A69D8DFE812F0EB062C07D106A5
:10378000F7060A0719076800680068006800680003
:1037900068006800680068006800680068006800E9
:1037A00068006800680068006800680068006800D9
:1037B00068006800680068006800680068006800C9
:1037C00068006800680068006800680068006800B9
:1037D00068006800680068006800680068002607E4
:1037E0006800680068006800680068006800680099
:1037F0006800680068006800680064006800E3060C
:10380000322800F0278371281BD031281DD105F004
:10381000D9FB002840F340864348444E05F082FF20
:10382000C0B286F8400002288ABF0021014686F80F
:103830004010726C3F4821E3342801F0E88271287F
:1038400003D10023732023602860002B08BF732856
:103850000CBF01200020002860D0334805F0CEFDC9
:103860000421354805F0D8FB2F4805F0C7FD10218D
:10387000324805F0D1FB2C4805F0C0FD132130483B
:1038800005F0CAFB2F4B2848196805F007FE2648AB
:1038900005F0B4FD14212C4805F0BEFB224805F0CC
:1038A000ADFD1E21294805F0B7FB1F4805F0A6FD18
:1038B0001521274805F0B0FB1B4805F09FFD1E2190
:1038C000244805F0A9FB184805F098FD202122485E
:1038D00005F0A2FB144805F091FD19211F4805F0E1
:1038E0009BFB114805F08AFD12211D4805F094FB51
:1038F0000D4805F083FD0F211A4805F08DFB0A489D
:1039000005F07CFD0D21184805F086FB064805F002
:1039100075FD164A002101231160236003B0F0BD3C
:103920009092FF1F8092FF1FD887FF1F3C93FF1FBD
:103930006F12833AE094FF1F041201000C12010081
:10394000201201002087FF1F341201004C120100D9
:103950006C12010084120100A4120100C8120100BF
:10396000E4120100F8120100081301004887FF1F4C
:1039700023682868062B40F08D80A0F13102402A90
:103980003FF663AF01A151F822F000BFAB43000046
:10399000D743000003440000294400004F440000C6
:1039A0006D4400004B3800004B3800004B380000DD
:1039B0004B3800004B3800004B3800004B380000FB
:1039C0004B3800004B3800004B3800004B380000EB
:1039D0004B3800004B3800004B3800004B380000DB
:1039E0004B3800004B3800004B3800004B380000CB
:1039F0004B3800004B3800004B3800004B380000BB
:103A00004B3800004B3800004B3800004B380000AA
:103A10004B3800004B3800004B3800004B3800009A
:103A20004B3800004B3800004B3800004B3800008A
:103A30004B3800004B3800004B3800004B3800007A
:103A40004B3800004B3800004B3800004B3800006A
:103A50004B3800004B3800004B3800004B3800005A
:103A60004B3800004B3800004B3800004B3800004A
:103A70004B3800004B3800004B3800004B3800003A
:103A80004B3800004B3800004B3800004338000032
:103A900023682868052B15D1332801F0F38140F302
:103AA0004781352801F01582C1F2FD8171287FF42C
:103AB000CCAEDC4A00237320136023602860C4E688
:103AC00023682868032B40F0A480A0F13002422A2A
:103AD0003FF6BBAE01A151F822F000BFE93B000068
:103AE000CF4A0000F74A00001F4B0000414B000086
:103AF000634B00008B4B0000B34B0000D14B000028
:103B0000F54B00004B3800004B3800004B380000EC
:103B10004B3800004B3800004B3800004B38000099
:103B20004B3800004B3800004B3800004B38000089
:103B30004B3800004B3800004B3800004B38000079
:103B40004B3800004B3800004B3800004B38000069
:103B50004B3800004B3800004B3800004B38000059
:103B60004B3800004B3800004B3800004B38000049
:103B70004B3800004B3800004B3800004B38000039
:103B80004B3800004B3800004B3800004B38000029
:103B90004B3800004B3800004B3800004B38000019
:103BA0001D4C0000B1460000774C00003B4C00006B
:103BB000594C0000954C00008D4600004B38000029
:103BC0004B3800004B3800004B3800004B380000E9
:103BD0004B3800004B3800004B3800004B380000D9
:103BE000EB4C0000F74C000005F0ECF9002841F325
:103BF00007818D488D4E05F095FD0127034601464E
:103C000062228B48736527602A60FDF73BFE2368BC
:103C10002868012B7FF419AE82E5A0F13102402A19
:103C20003FF613AE01A151F822F000BF8946000013
:103C30002D4600006B46000031460000354600006E
:103C40005146000067460000EF45000007460000AF
:103C50004B3800004B3800004B3800004B38000058
:103C60004B3800004B3800004B3800004B38000048
:103C70004B3800004B3800004B3800004B38000038
:103C80004B3800004B3800004B3800004B38000028
:103C90004B3800004B3800004B3800004B38000018
:103CA0004B3800004B3800004B3800004B38000008
:103CB0004B3800004B3800004B3800004B380000F8
:103CC0004B3800004B3800004B3800004B380000E8
:103CD0004B3800004B3800004B3800004B380000D8
:103CE0004B3800004B3800004B3800004B380000C8
:103CF0004B3800004B3800004B3800004B380000B8
:103D00004B3800004B3800004B3800004B380000A7
:103D10004B3800004B3800004B3800004B38000097
:103D20004B3800004B3800004B380000433800008F
:103D3000312801F0DC8032287FF487AD05F042F9AC
:103D400000287FF7BDAE3848384E05F0EBFC012265
:103D50006B23C6F88C0022602B6001E005F0F6F8BA
:103D600005F030F90028F9D12F4805F047FB2E481F
:103D700005F044FB2C4805F041FB2B4805F03EFBC9
:103D8000294805F03BFB21212A4805F045F9264842
:103D900005F034FB1521284805F03EF9D6F88410CB
:103DA000214805F07BFB0221244805F035F91E4827
:103DB00005F024FB1E21224805F02EF9D6F88C10C0
:103DC000194805F06BFB03211E4805F025F916483C
:103DD00005F014FB1E211C4805F01EF9D6F88810CA
:103DE000114805F05BFB104805F008FB1D21174842
:103DF00005F012F9D6F8A4100B4805F04FFB0A485D
:103E000005F0FCFA1E21124805F006F9D6F8A810B4
:103E1000054805F043FB044805F0F0FA052323604C
:103E20007CE500BF8C94FF1FD887FF1F3C93FF1FCA
:103E3000E094FF1FA40C0100C80C0100FC0B010062
:103E4000E00C010078090100000D0100200D0100C7
:103E5000400D010005F0B6F8002840F31983B5487D
:103E6000B54E05F05FFC07F029FEB44907F07AFE75
:103E700096F8401003460246B1487364FDF704FD0E
:103E800001236920236028604AE405F05FF805F00B
:103E900099F805460028F8D1A648A74E05F0AEFAD5
:103EA000A44805F0ABFAA34805F0A8FAA14805F02C
:103EB000A5FAA04805F0A2FA1F21A24805F0ACF827
:103EC0009C4805F09BFA1C219F4805F0A5F8706AF4
:103ED0009E4907F047FE07F09BF9009502460B4606
:103EE000944805F0E5FA0221994805F095F89148C3
:103EF00005F084FA2321974805F08EF8F06B93497A
:103F000007F030FE07F084F9009502460B46894819
:103F100005F0CEFA02218E4805F07EF8854805F0BE
:103F20006DFA19218C4805F077F8B06B07F070F93D
:103F300002250B46024600957E4805F0B9FA29464F
:103F4000864805F069F87B4805F058FA192184483D
:103F500005F062F8B6F8B810764805F09FFA03212C
:103F6000804805F059F8734805F048FA07232360A4
:103F7000D4E404F0EBFF05F025F805460028F8D15D
:103F80006C486D4E05F03AFA6A4805F037FA694810
:103F900005F034FA674805F031FA664805F02EFA64
:103FA0001521714805F038F8624805F027FA182104
:103FB0006E4805F031F82B460A2296F840105D480D
:103FC00005F02CFA5B4805F019FA2821684805F03D
:103FD00023F8706C5D4907F0C5FD07F019F90095ED
:103FE0000B460246534805F063FA0221584805F093
:103FF00013F8504805F002FA13215E4805F00CF85A
:104000004C4805F0FBF90823236087E404F09EFF89
:1040100004F0D8FF05460028F8D14648464E05F082
:10402000EDF9444805F0EAF9424805F0E7F941485E
:1040300005F0E4F93F4805F0E1F911214E4804F09C
:10404000EBFF3C4805F0DAF928214C4804F0E4FF86
:1040500070693E4907F086FD07F0DAF800950246E0
:104060000B46344805F024FA0221394804F0D4FF05
:10407000304805F0C3F91621414804F0CDFFF0693E
:10408000324907F06FFD07F0C3F800950B46024672
:10409000284805F00DFA02212D4804F0BDFF2548FF
:1040A00005F0ACF9D6F8B030002B32DD1D213548D3
:1040B00004F0B2FFF06D07F001FD334907F052FD47
:1040C00007F0A6F8022502460B460095194805F0B0
:1040D000EFF901212D4804F09FFF164805F08EF9F5
:1040E0001F212B4804F098FF306E07F0E7FC2649AB
:1040F00007F038FD07F08CF8009502460B460D4896
:1041000005F0D6F90121214804F086FF094805F0A1
:1041100075F911211F4804F07FFFD6F8B030052B48
:1041200000F22686DFE813F059065E0654064F06B5
:104130004A062006D887FF1F3C93FF1F6F12833A61
:10414000E094FF1F000C0100200C010000007A44E5
:10415000D00A0100400C0100640C0100800C010039
:10416000840C0100A00C0100CC120100880A01009F
:10417000A40A0100D40A010070120100E80A01003B
:10418000140B01002C0B0100CDCCCC3D840F0100A1
:104190004C0B01006C0B010004F0D8FE04F012FF80
:1041A0000028F9D1BF48C04E05F028F9BD4805F0F8
:1041B00025F9BC4805F022F9BA4805F01FF9B948BD
:1041C00005F01CF91F21B94804F026FFB54805F099
:1041D00015F91E21B64804F01FFFB24805F00EF98C
:1041E0001A21B44804F018FFF36F022B00F0E786A1
:1041F000032B00F0DB86012B00F0EA860921AE4894
:1042000004F00AFFA74805F0F9F81421AB48A64FBF
:1042100004F002FFB16FA34805F040F9A14805F092
:10422000EDF81C21A64804F0F7FED6F880109D4852
:1042300005F034F99B4805F0E1F81C21A14804F091
:10424000EBFED6F8AC10974805F028F9954805F034
:10425000D5F8F56F25F00205012D00F061861321D8
:10426000994804F0D9FE8F4805F0C8F8022323606E
:10427000FFF754BB04F06AFE04F0A4FE0028F9D155
:10428000884805F0BBF8874805F0B8F8854805F080
:10429000B5F8844805F0B2F8824805F0AFF813216C
:1042A0008A4804F0B9FE7F4805F0A8F80D21884837
:1042B00004F0B2FE7B4805F0A1F80F21854804F018
:1042C000ABFE854B7748196805F0E8F8754805F0AE
:1042D00095F81321814804F09FFE814B71481968BD
:1042E00005F0DCF86F4805F089F812217D4804F0EC
:1042F00093FE7D4B6B48196805F0D0F8694805F0CE
:104300007DF81121794804F087FE794B65481968DA
:1043100005F0C4F8634805F071F80E21754804F003
:104320007BFE614B5F48D3F8A01005F0B7F85D48FD
:1043300005F064F81921704804F06EFE6F4B59487F
:10434000196805F0ABF8574805F058F811216C488A
:1043500004F062FE6B4B5348196805F09FF8514812
:1043600005F04CF81021684804F056FE674B4D48A4
:10437000196805F093F84B4805F040F81C21644893
:1043800004F04AFE634B4748196805F087F8454832
:1043900005F034F813214C4804F03EFE414805F086
:1043A0002DF804232360FFF7B9BA04F00BFE0028B0
:1043B0007FF76EAB3B483C4E05F0B4F907F07EFB4F
:1043C000554907F083FC65230122706122602B6050
:1043D0001846FFF7A5B904F0F5FD00287FF758ABA4
:1043E0003048314E05F09EF907F068FB4A4907F066
:1043F0006DFC65230122F06122602B601846FFF7F7
:104400008FB904F0DFFD00287FF742AB2548264E28
:1044100005F088F900EB8000430001226520F36578
:1044200022602860FFF77CB904F0CCFD00287FF7FC
:104430002FAB1C481C4E05F075F900EB80004300C3
:1044400001226520336622602860FFF769B9164AA9
:10445000D2F8B0300133052BC8BF0023C2F8B0300A
:104460006520012323602860FFF75AB904F0AAFDF4
:1044700000287FF70DAB0B480B4E05F053F9652371
:104480000122C6F8B40022602B601846FFF748B935
:1044900023682868FFF722B9034E96F84000FFF71B
:1044A000C2B900BFD887FF1F3C93FF1F440E010015
:1044B000640E0100840E0100FC0E0100080F0100D3
:1044C000200F0100400F0100D40A0100600D01001F
:1044D000740D0100840D01006C94FF1F940D010008
:1044E000D494FF1FA80D0100B894FF1FBC0D01005C
:1044F000BC94FF1FD00D0100E00D01009094FF1F40
:10450000FC0D01008C94FF1F100E01007C92FF1F18
:10451000240E01007487FF1F00007A4401232360EA
:1045200004F050FD002805DD69486A4E05F0FAF8F0
:10453000C6F8AC000123632023602860FFF7F0B8C1
:10454000644AD36F0133032BC8BF0023D367F1E75D
:10455000604EB36FB3FA83F35B0901226320B36744
:1045600022602860FFF7DCB80123236004F02AFDF5
:10457000002807DD5648574E05F0D4F807F09EFA9C
:10458000C6F89400632028602368FFF7A7B80123CA
:10459000236004F017FD0028F4DD4D484D4E05F072
:1045A000C1F807F08BFAC6F89000EBE7012323600F
:1045B00004F008FD0028E5DD4548464E05F0B2F858
:1045C000A6F8BA00DEE7FEF787FE23682868FFF743
:1045D00082B8404ED6F88030B3FA83F35B090122EB
:1045E0006320C6F8803022602860FFF799B83A4A05
:1045F0001368B3FA83F35B0901216420136021601F
:104600002860FFF78DB80123236004F0DBFC00284D
:1046100000F37E84314B1A68042AC4BF02221A6058
:1046200064232B6023686420FFF755B82C4ADFE72A
:104630002C4ADDE7274ED6F8A030B3FA83F35B09A6
:1046400001226420C6F8A03022602860FFF768B815
:10465000012325482360FCF783FF244A2368106068
:1046600064222A60DFE7224AC2E7224A224F136807
:10467000002B0CBF012300234FF0010013602060CA
:1046800040F07E840346EBE71C4AB1E704F09AFC55
:1046900000280DDD0E480F4E05F044F807F00EFA25
:1046A000174907F013FB01226223306222602B605E
:1046B00004F088FC002840F3A3830548054E05F06C
:1046C00031F801226223B06622602B601CE000BF3B
:1046D000D887FF1F3C93FF1F7C92FF1F7487FF1F2B
:1046E000D494FF1FBC94FF1FE094FF1F9094FF1F02
:1046F0008C94FF1FB894FF1F9092FF1F6C94FF1FB4
:1047000000007A4404F022FC04F05CFC054600281A
:10471000F8D1C24804F072FEC04804F06FFEBF48F2
:1047200004F06CFEBD4804F069FEBC4804F066FE6F
:104730001521BB4804F070FCB84804F05FFE14215A
:10474000B84804F069FCB54804F058FE1B21B6488F
:1047500004F062FCB14804F051FE1321B34804F0A8
:104760005BFCAE4804F04AFEAC4804F047FEAB48A0
:1047700004F044FE2021AE4804F04EFCF068AD4940
:1047800007F0F0F906F044FD009502460B46A348F9
:1047900004F08EFE0221A84804F03EFC0221A74846
:1047A00004F03AFC9D4804F029FE2121A44804F0BD
:1047B00033FC30699F4907F0D5F906F029FD0095D3
:1047C00002460B46954804F073FE02219A4804F015
:1047D00023FC0221994804F01FFC904804F00EFECF
:1047E0001F21984804F018FCB06A06F011FD02275A
:1047F00002460B460097894804F05AFE0121924870
:1048000004F00AFC39468D4804F006FC834804F0A5
:10481000F5FD20218D4804F0FFFBF06A06F0F8FC5E
:10482000009702460B467D4804F042FE012186486F
:1048300004F0F2FB3946814804F0EEFB774804F0BF
:10484000DDFD2321824804F0E7FBB06C794907F0D5
:1048500089F906F0DDFC009502460B466F4804F02E
:1048600027FE3946744804F0D7FB3946734804F0F4
:10487000D3FB6A4804F0C2FD1F21764804F0CCFB4C
:10488000F06C6C4907F06EF906F0C2FC0095024628
:104890000B46624804F00CFE3946674804F0BCFB46
:1048A0003946664804F0B8FB5C4804F0A7FD1921BE
:1048B000694804F0B1FBB16D584804F0EFFD39468A
:1048C000664804F0A9FB39465C4804F0A5FB534850
:1048D00004F094FD1821624804F09EFB706E07F00E
:1048E000EDF8604907F03EF906F092FC00970246A9
:1048F0000B464A4804F0DCFD01215B4804F08CFBC8
:1049000039464E4804F088FB444804F077FD2B21DB
:10491000564804F081FBB069464907F023F906F0D8
:1049200077FC009502460B463C4804F0C1FD394631
:10493000414804F071FB3946404804F06DFB3748AC
:1049400004F05CFD1F214A4804F066FB716D33489A
:1049500004F0A4FD3946394804F05EFB2F4804F00A
:104960004DFD2021434804F057FB316D2B4804F0E6
:1049700095FD3946314804F04FFB284804F03EFDD0
:1049800010213D4804F048FBB16E244804F086FD38
:104990003946294804F040FB3946284804F03CFBDE
:1049A0001E4804F02BFD1321344804F035FBF16E52
:1049B0001A4804F073FD0121314804F02DFB3946FB
:1049C0001E4804F029FB154804F018FD10212D485D
:1049D00004F022FB316F114804F060FD394616489F
:1049E00004F01AFB3946154804F016FB0B4804F096
:1049F00005FD1421244804F00FFB716F074804F0F3
:104A00004DFD01211E4804F007FB39460B4804F018
:104A100003FB024804F0F2FC162137E0D887FF1FA1
:104A2000CC0F0100E40F0100FC0F0100D40A0100CB
:104A30001810010000007A44D00A01008813010018
:104A40003C10010060100100A80601008010010068
:104A5000A4100100C8100100E810010004110100B9
:104A600008110100CDCCCC3D840F010024110100C0
:104A7000501101007011010094110100A8110100F2
:104A8000BC110100C0110100D4110100AC4804F0B8
:104A9000C3FA306AAB4907F065F806F0B9FB009538
:104AA0000B460246A84804F003FD3946A74804F027
:104AB000B3FA3946A64804F0AFFAA34804F09EFCC6
:104AC000A14804F09BFC03232360FEF727BF04F0FA
:104AD00079FA002840F394819B489E4E04F022FE10
:104AE00006F0ECFF974907F0F1F801226223F0602D
:104AF00022602B6008E604F065FA002840F380810C
:104B00009148944E04F00EFE06F0D8FF8D4907F050
:104B1000DDF801226223306122602B60F4E504F0AD
:104B200051FA002840F36C8187488A4E04F0FAFD60
:104B300006F0C4FF01226223B06222602B60E3E52D
:104B400004F040FA002840F35B817F48814E04F076
:104B5000E9FD06F0B3FF01226223F06222602B60C0
:104B6000D2E504F02FFA002840F34A817648794EC6
:104B700004F0D8FD06F0A2FF724907F0A7F8012261
:104B80006223B06422602B60BEE504F01BFA0028AB
:104B900040F336816C486F4E04F0C4FD06F08EFF82
:104BA000684907F093F801226223F06422602B60C9
:104BB000AAE504F007FA002840F322816248654E16
:104BC00004F0B0FD01226223B06522602B609BE5FA
:104BD00004F0F8F9002840F313815B485D4E04F0BF
:104BE000A1FD00EB80004300012162227366216079
:104BF0002A6089E504F0E6F9002840F30181524873
:104C0000544E04F08FFD06F059FF4E4907F05EF850
:104C100001226223B06122602B6075E504F0D2F9B5
:104C2000002840F3ED8048484A4E04F07BFD012205
:104C30006223306522602B6066E504F0C3F900282A
:104C400040F3DE804048434E04F06CFD01226223B5
:104C5000306722602B6057E504F0B4F9002840F378
:104C6000CF8039483B4E04F05DFD0122622370671E
:104C700022602B6048E504F0A5F9002840F3C080CD
:104C80003148344E04F04EFD01226223F06622606A
:104C90002B6039E5FDF702F802212D482D4E04F076
:104CA000BBF9294804F0AAFB0221294804F0B4F911
:104CB000254804F0A3FB0221254804F0ADF9224861
:104CC00004F09CFB1721244804F0A6F91E4804F0C8
:104CD00095FB02211E4804F09FF91B4804F08EFB4F
:104CE0000122622322602B600EE5002273232260E2
:104CF0002B60FEF7B2BD194B1548164E002202215B
:104D00001A6004F089F9104804F078FB0B2114486C
:104D100004F082F9DDE7BC2200210E4802F04AFDD2
:104D20002868104AA0F1730001210023B0FA80F036
:104D3000400911602360FEF78EBD03F037FC00BF11
:104D4000EC11010000007A44D887FF1FD00A01004F
:104D5000881301003C93FF1F640A01007092FF1F3B
:104D60007C0A01004887FF1F0F21B04804F054F966
:104D7000AF48B04D04F042FBD6F8B030002B0FDD49
:104D80001821AD4804F048F9D5F8B410A84804F04B
:104D900085FB0221A94804F03FF9A54804F02EFB49
:104DA000A34804F02BFB1321A54804F035F9A048D3
:104DB00004F024FB06232360FEF7B0BD0D21A148BB
:104DC00004F02AF9D4E70D219F4804F025F9CFE734
:104DD0000C219E4804F020F9CAE70D219C4804F0FC
:104DE0001BF9C5E70C219B4804F016F9C0E72368BE
:104DF000002B08BF73280CBF01200020FEF72BBD3D
:104E000023682868012B7EF420ADFEF789BC04F0EE
:104E1000D9F800287EF7ACAD8548864E04F082FCB8
:104E200061230122A6F8B80022602B601846FEF725
:104E300077BC04F0C7F800287EF79AAD7C487D4E19
:104E400004F070FC06F03AFE61230122B063226098
:104E50002B601846FEF764BC04F0B4F800287EF717
:104E600087AD7348734E04F05DFC06F027FE7A4967
:104E700006F078FE61230122706222602B601846E2
:104E8000FEF74EBC04F09EF800287EF719AE684885
:104E9000684E04F047FC01226B23C6F888002260AC
:104EA0002B60FEF75DBF04F08DF800287EF708AE9A
:104EB0005F48604E04F036FC684BC6F8A40002223E
:104EC0001A60FDF749FA01226B2322602B60FEF77E
:104ED00047BF04F077F800287EF7F2AD5448554EEE
:104EE00004F020FC5D4BC6F8A8000322E8E704F0BC
:104EF00069F800287EF7E4AD4D484E4E04F012FCF0
:104F000001226B23C6F8840022602B60FEF728BFC5
:104F1000474804F007FC524B02461860FFF77CBB81
:104F20001C21504804F078F8D7F894004E4906F058
:104F300019FE06F06DF9009502460B463C4804F058
:104F4000B7FA0521494804F067F8394804F056FAE1
:104F5000FD6F012D45D0032D7FF481A91C2144480C
:104F600004F05AF8B6F8BA10314804F097FA032161
:104F7000404804F051F82E4804F040FAFFF76FB9AA
:104F80003D4B002631460B201E6002F0DFFE31460D
:104F90000C2002F0DBFE3146142002F0D7FE314631
:104FA000152002F0D3FE3B68FFF75ABB202133489F
:104FB00004F032F81E4804F021FAFFF726B9172151
:104FC0002F4804F029F81A4804F018FAFFF71DB921
:104FD0001E212C4804F020F8154804F00FFAFFF7C2
:104FE00014B91D21284804F017F8D7F890001E497D
:104FF00006F0B8FD06F00CF900950B4602460C4889
:1050000004F056FA0521194804F006F8084804F09F
:10501000F5F9FB6F23F00203012B9FD0FFF71FB9B7
:10502000044EFFF771BB034EFEF79ABED00B010092
:10503000D887FF1F3C93FF1FE00B0100FC0B010012
:10504000D40A0100C00B0100B00B0100A00B01004D
:10505000800B0100900B01006F12833A8C94FF1FAC
:105060007487FF1F600F0100CDCCCC3D800F010085
:10507000A80F0100C80F0100D094FF1FC00E01004F
:10508000E40E0100A00E0100880F010038B5164C97
:10509000164A2368101D12F8011F904241EA0323AB
:1050A000F9D12360124C03F100432360114BDB6FF5
:1050B000022B11D0104B1B68012B00D038BD0F48BC
:1050C00004F09CF921680D4804F0E8F903210C482C
:1050D000BDE8384003F0A0BF20680A4D06F0EEFCA2
:1050E0002860FDF779FBE5E7FC93FF1F8394FF1F22
:1050F000A094FF1F3C93FF1F6C94FF1FD887FF1FD6
:10510000181301007492FF1F30B5384C384883B033
:10511000214601F06DFB23683C2B4DD06FF480726B
:105120001344FE2B08D8334B30491A683248012A01
:1051300018BF0022FCF73AFA304B1B68012B01D054
:1051400003B030BD2B4B1B68012BF9D12C4B2D48E4
:105150001B6801930A220023019904F05FF9226879
:10516000224B002ADB793ADB2749284807F0D8FC94
:10517000264807F005FD0146244803F04DFF256849
:105180001A4B15F080451BD1DB798BB1631920498F
:105190001A7A1E4807F0C4FC1C4807F0F1FC0146CF
:1051A0001A4803F039FF0135E379EDB2AB42EDD88F
:1051B000144804F023F9C3E7FFF768FF2368ADE75D
:1051C000144D124C0FCD0FC495E8030044F8040BA6
:1051D000204620F81419152103F01EFFE8E70E49B8
:1051E0000A4822F0604207F09BFCC1E77C94FF1F55
:1051F00048CAFF1F6C94FF1FE094FF1F4887FF1FE2
:10520000F0CBFF1FD887FF1F441301009492FF1FAC
:1052100070130100581301001C1301002DE9F84F11
:105220007E4B7F4C1B78052B08D07E48FCF74AFB51
:10523000E16A06F035FE002800F081807A4E7B4D51
:10524000002333602B607A4B76481B68744F012B28
:1052500033D0FCF7F1FAE1698046606906F078FB2B
:105260000146404606F03AFE00283AD16D48FCF768
:10527000E3FAE16806F032FE08B100232B606948CA
:10528000674FFCF7B3FA216906F00AFE48B1002324
:1052900033602B68654A002BBCBF00231360BDE858
:1052A000F88F6048FCF7A2FAB96906F0F9FD00280A
:1052B000EDD13368002BEADBEBE7FCF7BDFAE169DF
:1052C0008046206A06F044FB0146404606F006FE92
:1052D0000028CBD05348FCF7AFFAD7F8209083468C
:1052E00005E05048FCF7A8FAD7F814908346F9690E
:1052F000484606F02DFB8246F86D06F0DFFB80463F
:10530000386E06F0DBFB414606F022FB51460746AD
:10531000584606F01DFB0146384606F023FC514670
:105320000746484606F014FB0146384606F0CEFC18
:10533000414606F00FFB06F0F1FD286096E739487C
:10534000FCF7C0FA216B06F0ABFD20B3364E636E5E
:1053500034483360FCF7B6FA8146E06DE76A334DB6
:1053600006F0ACFB39468046484606F0F1FA0146A5
:10537000404606F0F7FB39468046206B06F0E8FA17
:105380000146404606F0A2FC002106F0E3FA06F0D2
:10539000C5FD286057E72348FCF794FA616B06F0D7
:1053A0007FFD30B1204E214D626EE36D32602B6087
:1053B00049E71C48FCF786FAA16A06F071FD00284F
:1053C0003FF43CAF1748184E184DFCF77BFA814666
:1053D000606ED4F8348006F071FB414607464846BB
:1053E00006F0B6FA39468146002006F0B1FA0146C9
:1053F000484606F0B7FB41468146A06A06F0A8FA87
:105400000146484606F062FC394606F0A3FA06F06B
:1054100085FDE36D30602B6015E700BF9894FF1F9A
:105420003C93FF1FE094FF1FA494FF1F5C92FF1F9B
:105430007892FF1F08B5274803F0E0FF07212648B0
:1054400003F0EAFD112002F087FC0621F8B12348A1
:1054500003F0E2FD102002F07FFC062100B320489B
:1054600003F0DAFD122002F077FC062108B31D4894
:1054700003F0D2FD132002F06FFC062110BB1A4886
:1054800003F0CAFD1348BDE8084003F0B7BF174852
:1054900003F0C2FD102002F05FFC06210028DED1DF
:1054A000134803F0B9FD122002F056FC0621002833
:1054B000DDD1104803F0B0FD132002F04DFC0621B1
:1054C0000028DCD00C4803F0A7FD0248BDE80840E6
:1054D00003F094BFD887FF1F7C13010084130100E1
:1054E00094130100A4130100BC1301008C130100EC
:1054F0009C130100AC130100B413010010B5254C3E
:105500002368042B27DC01210B2002F01FFC012162
:105510000C2002F01BFC0121142002F017FC0121D9
:10552000152002F013FCFF21162002F08FFAFF2154
:10553000172002F08BFAFF21052002F087FAFF21E5
:10554000062002F083FA236801330A2B2360C4BFCC
:105550000023236010BD00210B2002F0F7FB002187
:105560000C2002F0F3FB0021142002F0EFFB0021DD
:10557000152002F0EBFB0021162002F067FA002153
:10558000172002F063FA0021052002F05FFA0021E3
:10559000D6E700BFD894FF1F2DE9F047294F2A4CCA
:1055A00000264FF00808102346F0800A00254FF02F
:1055B000200C4FF0400E17F8012F2349234884F8A0
:1055C00007804FF0C7090136C4F800A084F808909E
:1055D0006372E372A572657384F80CC084F80EE000
:1055E000E27301F00DFA082EDDD1194E022002F00F
:1055F000E9FB45F0800A002250234FF0100C4FF0D9
:10560000200E4FF0080916F8017F0F490F4884F863
:1056100009C04FF0C708A2726273E372A37384F8E3
:105620000CE0C4F800A0013584F8079084F80880E5
:10563000E77301F0E5F9022002F0C4FB4D45D5D136
:10564000BDE8F0873B87FF1FC094FF1F48CAFF1FBC
:105650002F87FF1F2DE9F0418B4DD5F8B030042B7B
:105660003ED0032B6ED0012B00F09880022B01D08E
:10567000BDE8F081854C8648237240F20E3201234A
:1056800021462260E37101F0BBF9824B1B685B008D
:10569000FF2BC8BFFF23042140224FF4417020603C
:1056A000E17122726372286D06F008FA696906F0EA
:1056B00059FA7949054606F011FC002800F0DA8015
:1056C0002946284606F046F906F04EFC80B2031241
:1056D000E072A3726D496E48BDE8F04101F090B9E7
:1056E0006A4C6E4AA379226043F001030822E271FA
:1056F000A371286D06F0E2F9696906F033FA68498A
:1057000006F030FA06F030FC624B664A1B681268FD
:1057100093FBF2F380B200261A1207126072214640
:105720005B48E372A272277226736673A673E673F0
:1057300001F066F9A279D5F8B03066F30002032BC8
:10574000A27190D1514C286DA3720122E823072148
:1057500040F2FF26227263722660E17106F0AEF914
:10576000696906F0FFF94E4906F0FCF906F0FCFB0A
:10577000484B4C4A1B68126893FBF2F382B21E122C
:105780001712214642486373E2722773A67301F031
:1057900037F9D5F8B030012B7FF468AF424B3B4C62
:1057A0001B682360072280231020E271237202F01D
:1057B000D3FA002865D13D4B1B68DFF8D880394FFC
:1057C000286D324E03EB83035B001A12A3726272E0
:1057D000D8F800303A6893FBF2F31A126273A3739D
:1057E00006F06CF9696906F0BDF9314B196806F0ED
:1057F000AFF82B4906F0B6F906F0B6FB80B20312FB
:10580000314620732248E37201F0FAF8022002F0D8
:10581000D9FA284B1B682360072280231020E271ED
:10582000237202F099FA50BB204B1B68286D03EBE2
:1058300083035B001A12B372727206F03FF9696952
:1058400006F090F9164906F08DF906F08DFB82B24C
:1058500016123868D8F80030227393FBF0F30B4926
:105860000B48A3731A12E672627301F0C9F8D5F8F7
:10587000B030FBE601229023A272E3722AE70E4BBE
:10588000D3E70D4B98E700BF3C93FF1FC094FF1F69
:1058900048CAFF1F5C92FF1F00004843F4E506184A
:1058A000000020415887FF1F7887FF1F4C87FF1F8C
:1058B0007087FF1F7C87FF1F5087FF1F2DE9F04F68
:1058C00091B001E0FFF720FCB14800F05BFF002839
:1058D000F8D103F077FB002801DDFDF7EFFEAD4FB7
:1058E0003B68012B01D0FDF70FFCAB4CD4F8A05066
:1058F000012D00F08F81A94E3378052B2DD8DFE8DC
:1059000013F0C100220104010600DD00E400A44BF5
:105910000022012114201A6002F018FAA148FBF7B6
:105920008BFFA16C06F0DAFA9F4B002800F008828A
:1059300001221A609B48FBF77FFF616906F0CEFAEF
:10594000002840F06482122002F006FA28B90146CD
:10595000142002F0FBF901233370944DE36F23F020
:105960000203012B33D02B68914A0893089B1168DE
:10597000DFF838825B1AB3F5FA7F33D8FCF756FCB0
:105980008C4F2B680C930C9B3A68DFF820829B1A93
:10599000B3F57A7F1ED82B68874A0E930E9B10684A
:1059A000D4F8B410814D7C4C1B1A8B420CD92B6857
:1059B0000F93D4F8A0300F991160012B00F02281D1
:1059C0003378032B00F01E8111B0BDE8F08FFCF797
:1059D00003FFC8E7FFF7E0FDD8F800300D930D9BFB
:1059E0003B60D8E7D8F800300993099B6D481360F5
:1059F000FBF738FED4F8A030DFF89C916948012B02
:105A000000F08581FBF7F2FED9F8101006F048FA95
:105A1000002800F0E3802B68684A0A930A9B12680A
:105A20009A4201D905233370654B1B68002B40F067
:105A30006381644B1B68002B40F05A81624B1B68EA
:105A4000002B40F061813B68002B40F04E815F4F9E
:105A5000FDF77EF9FFF7E2FBFDF700FDFCF77CFCAC
:105A60003B685048002B40F0D280FBF779FD38604E
:105A700072B6574B4AF202614BF2804219801A808B
:105A800062B67BE7464B494D4FF000084146152072
:105A9000C3F8008002F05AF94146142002F056F98A
:105AA00041460C2002F052F941460B2002F04EF91B
:105AB000484A0123C2F8008033704FE7384B3B4D12
:105AC00000221A60FDF7C6FA48E7354B0022122083
:105AD0001A6002F041F9012808BF0323314808BFCA
