:1000000000800020BD01000035880000ED87000061
:10001000ED870000ED870000ED870000ED87000010
:10002000ED870000ED870000ED87000035880000B7
:1000300035880000ED870000F9A80000FDA9000048
:1000400035880000358800003588000035880000BC
:1000500035880000358800003588000035880000AC
:10006000358800003588000035880000358800009C
:10007000358800003588000035880000358800008C
:10008000358800003588000035880000358800007C
:10009000358800003588000035880000358800006C
:1000A000358800003588000035880000358800005C
:1000B000358800001D7D0000297D00002D7D000099
:1000C000397D00003D7D0000417D00003588000045
:1000D000358800003588000035880000358800002C
:1000E000358800003588000035880000358800001C
:1000F0003588000005B1000035880000D594000067
:1001000035880000A1960000358800003588000081
:1001100035880000358800003588000035880000EB
:1001200035880000358800003588000035880000DB
:1001300035880000358800003588000035880000CB
:1001400035880000358800003588000035880000BB
:1001500035880000358800003588000035880000AB
:10016000358800002D990000358800003588000092
:10017000358800003588000035880000358800008B
:10018000358800003588000035880000358800007B
:10019000358800003588000035880000358800006B
:1001A000358800003588000035880000358800005B
:1001B000358800003588000035880000564B4CF229
:1001C000205210B51A804DF628121A8000BF00BFC9
:1001D00008F034FB514B4FF010621A60504A9A609D
:1001E000504ADA60504A136813F4807304D14F49BF
:1001F0000B604FF4A85313604D4B1A78110703D5C9
:100200001A7842F008021A704A4B4B492A221A7097
:100210004A4A4B4B8B4204D252F8040F43F8040B6A
:10022000F8E7484B484900228B4202D243F8042B9E
:10023000FAE74649464A002352F8230041F82300D2
:1002400001336F2BF8D1434B434A802103F8011B44
:100250009342FBD1414B3D4A1A60414B8A221A70AE
:10026000A3F5805324225A70A0221A709A7992071B
:10027000FCD59A79D406FCD43A4A937903F00C035E
:10028000082B384BF9D103221A7140225A719A79FE
:100290009006FCD5334A9179324B4906FBD5324A58
:1002A000324911600221516020221A709A7902F0BD
:1002B0000C020C2AFAD12E4B2E4A1A602E4B2F4AD2
:1002C0001A6000225A60072243F8042C2C4AC3F813
:1002D0000C2D62B608F068FD144B1B68DA0705D5D3
:1002E000284808F045FB284B284A1A60284B1B7801
:1002F0005B0609D5244C254B22689A4204D121483B
:1003000008F036FB002323600CF0E4F908F09CFAB7
:100310000AF0B8FDFEE700BF0E2005403080044023
:10032000823F04000100002B10D0034014D0034092
:1003300002D0074000E007403092FF1F2C2401004C
:100340002087FF1F3092FF1F20D4FF1F0082FF1F56
:100350000000000000E400E05FE400E008ED00E0E1
:100360000050064000400640448004400000030165
:1003700004800440C010050014E000E0FF76010096
:1003800000002020D953D25E1CE00340A5C3945A3C
:1003900000F00740FFFFFFFFFFFFFFFFFFFFFFFF32
:1003A000FFFFFFFFFFFFFFFFFFFFFFFFFFFFFFFF5D
:1003B000FFFFFFFFFFFFFFFFFFFFFFFFFFFFFFFF4D
:1003C000FFFFFFFFFFFFFFFFFFFFFFFFFFFFFFFF3D
:1003D000FFFFFFFFFFFFFFFFFFFFFFFFFFFFFFFF2D
:1003E000FFFFFFFFFFFFFFFFFFFFFFFFFFFFFFFF1D
:1003F000FFFFFFFFFFFFFFFFFFFFFFFFFFFFFFFF0D
:10040000FFFFFFFFFFFFFFFFFFFFFFFFDEF9FFFF23
:1004100010B5054C237833B9044B13B10448AFF33E
:1004200000800123237010BD3092FF1F00000000E8
:1004300028240100084B10B51BB108490848AFF348
:1004400000800848036803B910BD074B002BFBD0A0
:10045000BDE81040184700BF000000003492FF1FA5
:10046000282401003092FF1F00000000F0B400F1CA
:100470002C06174F00243146031F00F15C0243F89D
:10048000044FB34241F8047F4FF0000542F8044F97
:10049000F5D100230F4A1049C0F89050C0F894508D
:1004A000C0F89850C0F89C50C0F8A050C0F8B050A8
:1004B000C0F8A420C0F8AC20C0F8A81080F8B8306C
:1004C00080F8B93080F8D030C0F8DC30F0BC70472C
:1004D0000000A040000048430000C8C22DE9F041E0
:1004E0008046CE1D00F1900400F1A00716F8010F20
:1004F00028380BF089FE094944F8040F05460CF032
:1005000093F838B1B8F9E4000BF07EFE29460BF001
:10051000C7FD2060BC42E9D1BDE8F081000020C2E7
:100520002DE9F84381461546042904D8DFE801F097
:100530005B729FCE2D00D9F8004009F13006C84605
:1005400009F16005002701E058F8044F30682146A2
:100550000CF06AF80137214628B1D9F8B4000CF044
:100560004FF800B13460214628680CF03FF804369B
:100570006E4920B120460CF057F800B12C600C2FCA
:1005800005F10405E0D1BDE8F883D0F8D830002BA0
:10059000D1D1537A107A03F03F0300EB03200BF024
:1005A00033FE63490BF038FFC9F82400EB7AA87AD0
:1005B00003F03F0300EB03200BF026FE5C490BF039
:1005C0002BFFC9F828006B7B287B03F03F0300EB6F
:1005D00003200BF019FE56490BF01EFFD9F800401E
:1005E000C9F82C00A9E7507A127AAB7AE97AD9F8DF
:1005F000004002EB002202EB034303EB0163C9F866
:10060000DC306B7B2A7B1B0203F470631344C9F854
:10061000D83092E7D0F8D830002B8CD1537A107AAA
:1006200003F03F0300EB03200BF0EEFD40490BF01D
:10063000F3FEC9F80000EB7A0446A87A03F03F0302
:1006400000EB03200BF0E0FD39490BF0E5FEC9F8A3
:1006500004006B7B287B03F03F0300EB03200BF0CF
:10066000D3FD33490BF0D8FEC9F8080065E7D0F890
:10067000D830002B7FF45FAF537A107A03F03F033A
:1006800000EB03200BF0C0FD29490BF0C5FEC9F8B3
:100690000C00EB7AA87A03F03F0300EB03200BF089
:1006A000B3FD23490BF0B8FEC9F810006B7B287B23
:1006B00003F03F0300EB03200BF0A6FD1C490BF0F9
:1006C000ABFED9F80040C9F8140036E7D0F8D830AE
:1006D000002B7FF430AF537A107A03F03F0300EB26
:1006E00003200BF091FD12490BF096FEC9F818009B
:1006F000EB7AA87A03F03F0300EB03200BF084FDB4
:100700000B490BF089FEC9F81C006B7B287B03F0BA
:100710003F0300EB03200BF077FD05490BF07CFE57
:10072000D9F80040C9F8200007E700BF0000A0404A
:1007300000007A4490F8C000704700BF90F8BC00F9
:10074000704700BF90F8C400704700BF90F8C80021
:10075000704700BF0C2994BF50F82100002070475B
:100760002DE9F0410B4E8046041F00F12C0754F890
:10077000045F314628460BF039FF30B1D8F8B41089
:1007800028460BF051FF00B12E46BC42EFD1304657
:10079000BDE8F081000020412DE9F041D0F8B470AF
:1007A0004FF00008041F00F12C0654F8045F39468E
:1007B00028460BF039FF084948B128460BF016FFD0
:1007C000414620B128460BF02FFF00B1A846B442A5
:1007D000EBD14046BDE8F0810000A0402DE9F04794
:1007E000D0F8B47082464FF00009041F00F12C06C7
:1007F0004FF0000854F8045F394628460BF014FF08
:100800000C4950B128460BF0F1FE30B1484629465C
:100810000BF046FC08F101088146B442EAD1CAF85F
:10082000D48040460BF0F0FC014648460BF0F4FD46
:10083000BDE8F0870000A040D0F8D400704700BFAA
:10084000D0F8D800704700BF38B5D0F89850D0F82D
:100850009440294620460BF0C9FE00B92C4620469C
:1008600038BD00BF38B5D0F89850D0F8944029462C
:1008700020460BF0D9FE00B92C46204638BD00BFFB
:1008800070B5D0F894401249054620460BF0CCFED6
:10089000D0B1204600210BF003FC01240646D5F818
:1008A00098500B4928460BF0BFFE28B13046294628
:1008B0000BF0F6FB0134064620460BF0A5FC014682
:1008C00030460BF0A9FD70BD00260446E7E700BFE7
:1008D000000020C22DE9F8430026D0F8B480C0F80B
:1008E00090608146041F00F12C0754F8045F4146D4
:1008F00028460BF099FE094950B128460BF076FEC8
:1009000030B1304629460BF0CBFB0646C9F89000C3
:10091000BC42EAD13046BDE8F88300BF0000A040E9
:1009200003299ABF00EB8100D0F8940000207047A3
:100930003E2998BF80F8D010704700BFD0F8DC0087
:10094000704700BF90F8B800704700BF90F8B9003A
:10095000704700BFC0F8CC10704700BF80F8B810D7
:10096000704700BF80F8B910704700BFC0F8B410DE
:10097000704700BFA0F8E410704700BF70B506468E
:1009800000F1280400F565552046E834FFF76EFDB8
:10099000AC42F9D106F58875012428460021FFF7FD
:1009A000DDFF214628460134FFF7C2FF3F2C05F149
:1009B000E805F2D143F6481400250548054A064BE0
:1009C0003555002130617161B261F361304670BD0F
:1009D00000007A44000048430000C8C270B500F52A
:1009E000887400F56556002507E0012520460021A2
:1009F000E834FFF7B7FFB4420AD02046FFF7A2FF62
:100A00000028F3D02046FFF7A1FF0028EDD170BDEC
:100A1000284670BD70B500F59256083600F588740A
:100A200002E0E834B4420CD02046FFF78BFF0546C5
:100A30000028F6D02046FFF781FFC307F1D52846EE
:100A400070BD0025284670BD43F64C132DE9F041DA
:100A5000002200F565578046C2500C3700F58874B7
:100A600000F5655602E0E834B4420DD02046FFF7A9
:100A700069FF0028F7D020463D68FFF7DDFEE83427
:100A80002844B4423860F1D143F64C1358F80300BF
:100A9000BDE8F08143F64413C058704738B50C6880
:100AA00004F00F04E825013405FB04002830154646
:100AB0001A46FFF713FD012D00D038BD06480AF095
:100AC0004BF8214604480AF097F80B210348BDE88B
:100AD000384009F0ABBD00BFD487FF1F9808010064
:100AE000F0B50E6806F00F0306F0F006302E83B066
:100AF0000F46044603F101053DD019DC16B1202E46
:100B000032D10126072D1BD9E82303FB05442834E5
:100B100020460121FFF722FF20460121FFF722FF97
:100B20003A463146204603B0BDE8F040FFF7F8BC36
:100B3000402E1ED0502E17D1072D4FF00406E3D8BB
:100B4000012AE1D129460D4801920AF055F8019A8F
:100B50000B48114609F06AFD314608480AF04CF886
:100B6000064809F0F9FFCFE7072DCDD8042ECBDCDE
:100B7000E6E70326C6E70226C4E700BFD487FF1FC7
:100B8000A40801002DE9F043002383B0064603606A
:100B900000F58874012504E001353F2D04F1E804D7
:100BA00066D02046FFF7CEFE0028F5D04E4806F06E
:100BB00035FB29464D4806F031FB2046FFF78AFEFB
:100BC0000AF0CCFE02460B46494806F027FB2046B9
:100BD000FFF7C6FD80462046FFF7DEFD074640468C
:100BE0000AF0BCFE8046384689460AF0B7FE424607
:100BF0004B46CDE900013F4806F010FB002120469E
:100C0000FFF78EFE012180462046FFF789FE07464A
:100C100040460AF0A3FE8046384689460AF09EFE0A
:100C200042464B46CDE90001334806F0F7FA20462C
:100C3000FFF750FE014630680BF032FA3060204674
:100C4000FFF702FEB1690BF0D1FC002833D120463A
:100C5000FFF708FEF1690BF0E7FC00289CD0204666
:100C6000FFF700FE01353F2DF06104F1E80498D153
:100C700070680BF0C9FA014630680BF0CDFB716962
:100C8000306004460BF0D0FC00B17461316920463D
:100C90000BF0ACFC00B134610B2008F001F843F616
:100CA0004813F35C60B99BB143F648130122F25438
:100CB00003B0BDE8F0832046FFF7C6FDB061C6E78C
:100CC00053B943F648130022F25403B0BDE8F08351
:100CD0000A4806F0D1FAE7E7094806F0B7FA43F602
:100CE00048130022F254F0E7D80F0100A8080100D1
:100CF000E4080100F808010024090100400901008E
:100D000078090100104B70B50646836000F58874C1
:100D100000F5655502E0E834AC4213D02046FFF7F9
:100D200011FE0028F7D02046FFF71AFDB1680BF03E
:100D30005DFC0028EFD02046FFF712FDE834AC42FE
:100D4000B060EBD1B06870BD0000A040002370B56A
:100D50000646C36000F5887400F5655502E0E83486
:100D6000AC4213D02046FFF7EDFD0028F7D0204617
:100D7000FFF712FDF1680BF057FC0028EFD020467A
:100D8000FFF70AFDE834AC42F060EBD1F06870BDCB
:100D900000687047416070472DE9F041884617466A
:100DA0001EB200F5887400F5655502E0E834AC42E7
:100DB00013D02046FFF7C6FD0028F7D02046414655
:100DC000FFF7C8FD20463946FFF7D0FD20463146E3
:100DD000E834FFF7CFFDAC42EBD1BDE8F08100BFB6
:100DE0002DE9F84343F644130027C7502B4A2C4BF8
:100DF000426200F5655680464FF0000903620436F2
:100E000000F5887400F5655502E0E834A54213D07A
:100E10002046FFF797FD0028F7D033680133336091
:100E20002046FFF72DFD1F490BF0FEFB88B9E83483
:100E3000A54207F10107EBD143F6441358F803002C
:100E4000C01B0BF0E1F9014648460BF0E5FABDE89E
:100E5000F8832046FFF714FD014648460BF020F9C1
:100E600081462046FFF7FEFCD8F820100BF0DCFB93
:100E700070B92046FFF7E8FCD8F824100BF0B6FB59
:100E80000028C2D02046FFF7DFFCC8F82400BCE7EA
:100E90002046FFF7E7FCC8F82000EAE700C07944E5
:100EA00000C079C400008CC2006A7047406A704775
:100EB000F8B50746002600F5887400F5655502E090
:100EC000E834AC420FD02046FFF73CFD0028F7D0B5
:100ED0002046FFF783FC014630460BF0E1F8E8348A
:100EE000AC420646EFD143F64413F8580BF08CF9A8
:100EF000014630460BF090FAF8BD00BF2DE9F04FE7
:100F000091B00446A3480D91154606F02FF9A1486B
:100F100006F02CF99F4806F029F943F644132046C1
:100F2000E658FFF791FD81462068D4F804B00AF036
:100F300015FDCDE90E012046FFF7BAFF8246204697
:100F4000D4F80C80A768FFF74BFF0AF007FDCDE946
:100F50000A01394640460BF0A1F88F490BF0A8F979
:100F60000AF0FCFCCDE9080140460AF0F7FCCDE9A7
:100F7000060138460AF0F2FCCDE9040150460AF0B9
:100F8000EDFCDDE90E23CDE90201CDE90023314678
:100F90005B464A46814806F0E9F87E4806F0E6F8E6
:100FA00004F588744FF001084FF0000BA94607E0E4
:100FB00008F10108B8F13F0F04F1E80400F0DE8009
:100FC0002046FFF7BFFC0028F2D02046FFF7B2FB17
:100FD0002046FFF7B3FB2046FFF7B4FB2046FFF7A0
:100FE000B5FB08216E4809F021FB41466D4809F028
:100FF00003FEB8F1090F40F3C78002216A4809F0E7
:1010000015FB2046FFF766FC0AF0A8FC9DF834505B
:10101000009502460B46634809F0F6FD012163483E
:1010200009F004FBB9F1000F2DD1DA464E4620E05D
:1010300006215F4809F0FAFA51465A4809F0DCFDEA
:1010400002215C4809F0F2FA31462046FFF782FBA4
:101050000AF084FC009502460B46524809F0D4FD84
:1010600001360121514809F0E1FA0C2E00F0898087
:10107000BA46BAF1090F0AF10107D9DC01214E483D
:1010800009F0D4FAD4E7B9F1010F2ED1DA460026DF
:101090001FE00621464809F0C9FA5146414809F0C7
:1010A000ABFD0221434809F0C1FA31462046FFF763
:1010B00051FB0AF053FC009502460B46394809F0F3
:1010C000A3FD01360121394809F0B0FA082E0AD0F3
:1010D000BA46BAF1090F0AF10107DADC01213648F4
:1010E00009F0A4FAD5E70BF1080B2E4809F034FDFE
:1010F0000921324809F09AFA00212046FFF710FC36
:101100000AF02CFC022502460B460095254809F002
:101110007BFD0A212A4809F089FA01212046FFF7C0
:10112000FFFB0AF01BFC009502460B461D4809F028
:101130006BFD0C21234809F079FA2046FFF7FEFBEE
:10114000002310220146174809F016FD08211E4809
:1011500009F06CFA2046FFF773FB002301461022CA
:10116000104809F009FD08F101080E4809F0F4FCE7
:10117000B8F13F0F04F1E8047FF422AF11B0BDE8ED
:10118000F08F0BF10C0BB0E701210B4809F04EFA80
:1011900033E700BFD80F010000007A44280C01009B
:1011A000C80C0100D487FF1FE0110100D40C01001E
:1011B000D80C0100840E0100940E0100E00C010027
:1011C000EC0C0100F80C0100080D01002DE9F04FB6
:1011D00085B000F588758A4603929B462E464FF0EF
:1011E000010806E008F10108B8F13F0F06F1E80632
:1011F0007BD03046FFF7A6FB0028F3D000230A225D
:1012000051467D4809F0B8FC01217C4809F00EFAEE
:1012100003980AF0A3FB00230246009376480B468E
:1012200009F0F2FC0121754809F000FA59467248AC
:1012300009F0E2FC0121714809F0F8F941466E48D5
:1012400009F0DAFC01216D4809F0F0F900244FF0B3
:10125000020921463046FFF77DFA0AF07FFBCDF800
:10126000009002460B46644809F0CEFC013401218F
:10127000624809F0DBF9082C4FF00207E9D10021A0
:101280003046FFF74DFB0AF069FB009702460B461C
:10129000594809F0B9FC0121584809F0C7F9012162
:1012A0003046FFF73DFB0AF059FB009702460B461C
:1012B000514809F0A9FC0121504809F0B7F9394615
:1012C0003046FFF72DFB0AF049FB009702460B461C
:1012D000494809F099FC08F10108474809F03CFC2D
:1012E000B8F13F0F06F1E80683D101274FF000095E
:1012F00004E001373F2F05F1E80579D02846FFF7D4
:1013000021FB0028F5D000230A2251463C4809F071
:1013100033FC0121394807F0D9FF03980AF01EFB7E
:10132000CDF8009002460B46354809F06DFC0121CE
:10133000324807F0CBFF5946314809F05DFC0121E6
:101340002E4807F0C3FF39462D4809F055FC01210E
:101350002A4807F0BBFF00244FF002082146284628
:10136000FFF7F8F90AF0FAFACDF8008002460B46CA
:10137000234809F049FC01340121204807F0A6FF69
:10138000082C4FF00206E9D100212846FFF7C8FAE1
:101390000AF0E4FA009602460B46194809F034FCBC
:1013A0000121164807F092FF01212846FFF7B8FAFD
:1013B0000AF0D4FA009602460B46114809F024FCC4
:1013C00001210E4807F082FF31462846FFF7A8FAB0
:1013D0000AF0C4FA009602460B46094809F014FCCC
:1013E0000137074809F0B8FB3F2F05F1E80585D123
:1013F00005B0BDE8F08F00BFD487FF1FA40801002F
:10140000C487FF1F0A4A0B49106ED36D03FB00F31C
:101410004FF47A7000FB03F0642310B50B600AF000
:10142000F3FE0549054C0AF0F7FF206010BD00BF30
:1014300008CEFF1F3087FF1FE4388E3E30CFFF1FDE
:1014400038B5044608460D460BF03AFF23680246BD
:1014500029465B68204698470546204609F07CFBF4
:10146000284438BD2DE9F0414548464E464F474C8B
:1014700005F07CFE464B4749474A484859601125CC
:101480001D70474D4749DA601E6100224FF4FA761D
:101490009F619C62444F454C1D63454DD861D962A4
:1014A0004FF07C5043499A639E863C220C26DF63B2
:1014B0001C64414F414C5D65414DD8641965022063
:1014C0000121A3F8A4209E65002264265F62C3F870
:1014D000C4404FF4967732241D625D615D6440F62E
:1014E0001C45587058721972D96583F848201E66D9
:1014F000DF665F669C664FF00A081D6741F2040CC8
:10150000C3F88020C3F88400C3F88820C3F8904053
:10151000C3F8AC404FF05A0EC3F8A820C3F8B4107B
:10152000C3F8B8004FF47A77C3F8BC6083F8C810EA
:10153000244E83F8C910244D83F8CA2041F2883123
:10154000A3F8CC20FF2440F2D6620520C3F87480B3
:10155000C3F878C0C3F87CE0C3F89470C3F898600F
:10156000C3F89C50C3F8B040A3F8C200C3F88C1075
:10157000A3F8C010A3F8A020A3F8A220BDE8F08132
:10158000140D01000000404033338340CDCCCC3DEE
:1015900008CEFF1F20A1070066668640CDCC4C40D8
:1015A000000020C100008242000020420000A04054
:1015B0000AD7233D9A997940333373409A99993EDB
:1015C000CDCC4C3E0000684200C02044F0B5002164
:1015D00085B0112007F072FB0021102007F06EFB90
:1015E0000021122007F06AFB0021132007F066FBA0
:1015F00001210B2007F062FB01210C2007F05EFBAC
:101600000121142007F05AFB0121152007F056FB99
:101610000121162007F052FB0121172007F04EFB95
:101620000121052007F04AFB974C984D0121062027
:1016300007F044FB01210D2007F040FB20880AF051
:10164000DFFD0146162007F0A3FA20880AF0D8FD36
:101650000146172007F09CFA20880AF0D1FD0146C8
:10166000052007F095FA20880AF0CAFD00240146FB
:10167000062007F08DFA00942346854A854986485E
:1016800005F0F4FFE6B232468049834805F09CFF3E
:101690002B797E4980486FF30003013432462B7169
:1016A00005F088FF082CEDD10924E6B232467749CF
:1016B000794805F089FF2B797449774843F0010395
:1016C000013432462B7105F075FF0D2CEDD1734CB2
:1016D00023681021D3F8840006F09AFC23681021B7
:1016E000D3F8840006F028FD23680221D3F8840093
:1016F00006F0E4FB23680221D3F8840006F06CFDB9
:1017000023680F21D3F8840006F054FE0C216448AE
:1017100008F08CFF634809F01FFA1121624808F0B5
:1017200085FF604809F018FA40F2836007F0ACFBCF
:101730005C4809F011FA17215C4808F077FF594816
:1017400009F00AFA5A4B1B789A0600F1D580584BDB
:101750001B781B0700F1DC80554B1B785F0700F1FD
:10176000E380534B1B789E0700F1EA80514B1B78B6
:101770001D0600F1F1804F4B1B785C0600F1F880EC
:101780004C4B1B78980600F1FF804A4B1B78590799
:1017900000F10681474B1B781A0700F10D81454B7C
:1017A0001B789B0700F114813E4809F0D5F972B609
:1017B000414A4CF220534DF6281120241380234631
:1017C0001180013BFDD13D4D3D483E4900234FF482
:1017D00080562E8003800B8032F80E3C9BB243F083
:1017E000D30322F80E3C62B69D2007F0F9FE214695
:1017F0003548364D08F01AFF2A4809F0ADF905F1D1
:10180000D0062F462C46601B06F05EFF04F8010B45
:10181000B442F8D13B78112B01D0FFF723FE04200E
:1018200005F0F8FB2A4B2B482B4D00221A6005F0DF
:10183000C3FB01210D2007F02DFAF96D2748FFF7B2
:10184000A9FAB7F9CC30FA6C97F848102348FFF79B
:10185000A3FA2348234B046803941B682249234AB4
:10186000039E006802901268214C2E6081FB0301E8
:10187000DB172048A3EB21130299216013FB02F32D
:10188000038005B0F0BD00BF3487FF1FE0CEFF1F0F
:101890001CD1FF1F20A1070080CFFF1F60CFFF1FBB
:1018A000340D0100D487FF1F440D0100580D0100C5
:1018B00001F0074000F007400E20054004200540DD
:1018C00006200540162005405C0E010008CEFF1FD3
:1018D0008492FF1FFC92FF1F60CDFF1FFC93FF1F30
:1018E00028D1FF1F5487FF1F1F85EB515087FF1F13
:1018F00068CDFF1F18CFFF1F2121394808F096FE41
:10190000384809F029F9384B1B781B077FF524AFBD
:101910000C21364808F08AFE324809F01DF9324B96
:101920001B785F077FF51DAF0E21314808F07EFE62
:101930002C4809F011F92C4B1B789E077FF516AF48
:1019400017212C4808F072FE264809F005F92A4BA9
:101950001B781D067FF50FAF0E21284808F066FEA4
:10196000204809F0F9F8244B1B785C067FF508AF96
:101970001221234808F05AFE1A4809F0EDF81E4BD0
:101980001B7898067FF501AF13211E4808F04EFE24
:10199000144809F0E1F8184B1B7859077FF5FAAEA7
:1019A0001C21194808F042FE0E4809F0D5F8124BE8
:1019B0001B781A077FF5F3AE1921144808F036FE9C
:1019C000084809F0C9F80C4B1B789B077FF5ECAE73
:1019D00018210F4808F02AFE024809F0BDF8E3E696
:1019E000700D0100D487FF1F01F00740940D010026
:1019F000A40D0100B40D010000F00740CC0D010062
:101A0000DC0D0100F00D0100040E0100240E0100A8
:101A1000400E010070B5464C464D4748E66800232D
:101A20002B70FFF793F9014630460AF0DFFD08B14D
:101A300004232B704048FFF765F921690AF0D6FDB1
:101A400018B12B7843F010032B703B48FFF72CFAAA
:101A5000E16A0AF0E9FD18B12B7843F040032B70DE
:101A6000002335486B70FFF721FA216B314E0AF0E5
:101A7000BDFD08B10123737000232F48EB70FFF701
:101A800065F905462C482B4EFFF73CF901462846E0
:101A90000AF004FB616C0AF0C7FD08B10123F37082
:101AA000264D254800232B70FFF750F9A16A064602
:101AB000E0680AF0F3FA014630460AF0B5FD08B1D5
:101AC00004232B701C48FFF71DF9A16A0646206904
:101AD0000AF0E6FA014630460AF088FD18B12B7884
:101AE00043F010032B701448FFF7DEF9216C064613
:101AF000E06A0AF0D3FA014630460AF095FD18B1C3
:101B00002B7843F040032B7000230B486B70FFF7DA
:101B1000CDF9216C0546206B084C0AF0C1FA01464C
:101B200028460AF063FD08B10123637070BD00BF51
:101B300008CEFF1FF0CDFF1FFC93FF1F5092FF1F29
:101B4000514B1B68002B74D0F0B5504D2B680533FA
:101B5000B3F57A7F83B040F38E80002300272B609B
:101B60004B4CD4F8AC000AF04FFB0646D4F8B0005A
:101B70000AF04AFB31460AF091FA39460AF098FB1E
:101B800044490AF049FC31460AF08AFA0AF056FD47
:101B90000146062006F0FEFE02213F4808F046FD01
:101BA0003E4808F0D9FF06213D4808F03FFD28686F
:101BB0000AF02AFB3B490AF07BFB09F0CFFE022624
:101BC00002460B460096354809F01EF80D213648AE
:101BD00008F02CFDD4F8AC000AF016FB0746286884
:101BE0000AF012FB2F490AF063FB0546D4F8B00057
:101BF0000AF00AFB39460AF051FA014628460AF073
:101C000057FB24490AF008FC39460AF049FA09F062
:101C1000A5FE009602460B46204808F0F5FF314627
:101C20001D4808F003FD1D4803B0BDE8F04008F072
:101C300093BF174B1D4AD3F8AC10D3F8B0301268DD
:101C40005B1A632B0BDD1A4803FB02F380FB0302D4
:101C5000DB17C3EB62131944062006F09BBE154840
:101C600003FB022380FB0302DB17C3EB22121144A8
:101C7000062006F08FBE18462B600AF0C5FA094907
:101C80000AF016FB07466BE78092FF1FD8CEFF1FB6
:101C900008CEFF1F0000C842E0110100D487FF1FDB
:101CA000800E0100CDCCCC3D880E01003087FF1F97
:101CB0001F85EB51CBF08D2830B5B448B44C85B0BE
:101CC00008F04AFFB14808F047FFB04808F044FF69
:101CD0000D21B04808F0AAFCD4F8A830012B11D08F
:101CE000AD4CAA48217800230A2208F045FF23784A
:101CF000052B67D8DFE813F0310136013B014001C5
:101D000045012C010921A54808F090FCA448FEF7E4
:101D1000F9FF21690AF06AFC18B10F21A14808F007
:101D200085FC9F48FFF712F8E1680AF07DFC18B1C6
:101D30000E219D4808F07AFC9948FFF707F8054600
:101D40009748FEF7DFFF014628460AF0A7F9616CC5
:101D50000AF06AFC18B11121944808F067FC904819
:101D6000FFF73EF8E16A0AF05FFC18B10C219048D9
:101D700008F05CFC8A48FFF733F8216B0AF036FC68
:101D800018B10D218B4808F051FC8B4B84481B681F
:101D9000012B00F07481FEF7B5FF21697C4D0AF03C
:101DA00043FC78B17E48FEF7D1FFE9680AF01EFCDB
:101DB00040B1794B1B78052B00F0728108217F48D8
:101DC00008F034FC02217E4808F030FC122006F0B6
:101DD00067FF012800F01E81112006F061FF012835
:101DE00000F02281774B1C68012C00F02681022133
:101DF0007348754C08F01AFC744B6448196808F075
:101E0000FBFE624808F0A8FE0421714808F00EFCB1
:101E10000B2006F045FF002301460A225B4808F02C
:101E2000ABFE0C2006F03CFF002301460A22574877
:101E300008F0A2FE142006F033FF002301460A2218
:101E4000524808F099FE152006F02AFF0A220023C6
:101E500001464E4808F090FE06215E4808F0E6FB79
:101E60002368DD074FF001014CBF5B485B4808F079
:101E7000DDFB236898074FF001014CBF56485748D7
:101E800008F0D4FB23685A074FF001014CBF5248B9
:101E9000524808F0CBFB23681B074CBF4E484F4805
:101EA000012108F0C3FB04214D4808F0BFFB1120BD
:101EB00006F0F6FE002301460A22344808F05CFED4
:101EC000102006F0EDFE002301460A222F4808F0FC
:101ED00053FE122006F0E4FE002301460A222B489E
:101EE00008F04AFE132006F0DBFE0A22002301461A
:101EF000264808F041FE18213A4808F097FB3A4B73
:101F000018680AF081F939490AF0D2F909F026FD7A
:101F1000002402460B4600941C4808F075FE1D2163
:101F2000334808F083FB334B18680AF06DF92F49EA
:101F30000AF0BEF909F012FD009402460B46134860
:101F400008F062FE02212C4808F070FB05B030BD9D
:101F500007212A4808F06AFB34E70621284808F0E0
:101F600065FB2FE70721274808F060FB2AE70721D8
:101F7000254808F05BFB25E70821244808F056FBBC
:101F800020E70B21224808F051FB1BE7D487FF1FF5
:101F900008CEFF1F980E0100FCCDFF1FA80E010008
:101FA000FC93FF1FB40E0100C40E0100D40E01000B
:101FB000E80E0100F80E01008C92FF1F2C0F0100AB
:101FC000E0110100F4CEFF1F50CFFF1F5C92FF1FF6
:101FD000A40F0100AC0F0100B40F01003C1E010072
:101FE000B80F0100C00F01007C92FF1FCDCCCC3D8B
:101FF000DC0F010048CFFF1FFC0F0100680F01003C
:10200000380F0100400F0100540F01005C0F010068
:10201000480F01000E21254808F008FB112006F0AA
:102020003FFE01287FF4DEAE0A21214808F0FEFAC7
:10203000204B1C68012C7FF4DAAE11211E4808F0F9
:10204000F5FA21461D4808F0F1FA1D4B1D4A1B68A0
:102050000393039B1068C01A0AF0D2F81A490AF0D9
:1020600027F909F07BFC002502460B46009517482E
:1020700008F0CAFD2146114808F0D8FAB7E6FEF785
:1020800041FE616A0AF0D0FA00283FF497AE1621AB
:102090000F4808F0CBFA0A210E4808F0C7FA91E67B
:1020A0000A210C4808F0C2FA8CE600BF700F01004C
:1020B000800F0100F4CEFF1F8C0F0100A00F010064
:1020C00028D1FF1F24CFFF1F6F12833AD487FF1F31
:1020D000080F0100200F01002DE9F04F904C914FA7
:1020E000D4F88430012B8DB000F04281032B52D004
:1020F0008D4E8E4DD4F880308D48012B09BF296854
:10210000296801F10041296006F0D0F93368002BFD
:1021100040F0C680864806F09FF9D4F884303860D5
:10212000012B064600F0C98082490AF07DFA78B991
:10213000814930460AF05AFA50B9804A804B1268F9
:102140000B920B9A1A6000232B600DB0BDE8F08F44
:10215000DFF8E8817A4CD8F800300A930A982368AF
:10216000784FC01A0AF04CF831460AF0A1F87649C7
:102170000AF052F974490AF04FF9396809F090FFF2
:10218000D8F800300993099B2360002338602B6046
:102190000DB0BDE8F08FDFF8D0816C4DD8F80000AD
:1021A000614E012300220F212B6005F0FFFD2B68FB
:1021B000012B336800F0FA80002B40F07E81D8F8C4
:1021C0000030DFF8A891D3F88400436B19698DB211
:1021D000C9F8005005F070FEB4F8A22040F6E443C0
:1021E00003FB05F1B1FBF0F0801A00B20AF00CF825
:1021F00057494E4D8246D4F898000AF059F80146E6
:1022000050460AF009F9D9F800302860632BDFF84E
:102210005CA100F3458100232B603368002B3FF461
:1022200069AF02214B4808F001FAD8F80030D9F81C
:102230000020D3F8840040F6E44303FB02F805F0E5
:102240003BFEB8FBF0F009F0DBFF8046B4F8A200DB
:1022500009F0DAFF0146404609F020FF09F07EFB55
:102260004FF0020802460B46CDF800803A4808F0CD
:10227000CBFC4146374808F0D9F9286809F06EFBD5
:10228000CDF8008002460B46334808F0BDFC4146BD
:10229000324808F0CBF941462E4808F0C7F929E743
:1022A000234806F0D9F809F059FB022602460B46EE
:1022B0000096294808F0A8FC2CE7244B1B68012B4A
:1022C00000F03481022B7FF43EAF25490AF0ACF9CF
:1022D00030B9244930460AF089F9002800F05581C8
:1022E000DFF85880164CD8F8003007930798236819
:1022F000144FC01A09F084FF314609F0D9FF124982
:102300000AF08AF810490AF087F8396809F0C8FE1F
:10231000D8F800300693069B3860236013E700BFAF
:1023200008CEFF1FF4CDFF1FECCDFF1F44CFFF1FD2
:10233000F8CEFF1F0000FA430000FAC328D1FF1FA8
:102340005892FF1F30CFFF1F00007A444887FF1FBD
:1023500017B7D138E0110100D487FF1F3C100100EE
:1023600000C82F4800A08CC660CFFF1F6CCFFF1F96
:102370003D68A84928460AF039F930B12846A649EF
:102380000AF052F900287FF406AFDFF8CC82A34DA3
:10239000D8F80000A24E022300220E212B6005F087
:1023A00005FD2B68012B33687FF406AF002B40F04E
:1023B000F380D8F80030DFF8B092D3F88400436B94
:1023C00019691FFA81FBC9F800B005F075FDB4F872
:1023D000A030944D40F6E44A0AFB0BFBBBFBF0F047
:1023E000C01A00B209F010FF8F498346D4F89C0050
:1023F00009F05EFF014658460AF00EF8D8F80020B2
:10240000D9F800302860D2F884000AFB03FA05F0FE
:1024100053FDB4F8A030BAFBF0F00FFA80FAC3EB2A
:102420000A03002BB4F8C220B8BF5B429342BCBF82
:1024300000232B603368002B3FF45CAE02217B4805
:1024400008F0F4F8D8F80030D9F80020D3F8840068
:1024500040F6E44303FB02F805F02EFDB4F8A010AB
:10246000B8FBF0F000B2411A714808F0C5FB022138
:102470006E4808F0DBF8286809F070FA4FF002089F
:1024800002460B46CDF80080694808F0BDFB0321E9
:10249000684808F0CBF84146644808F0C7F829E6D8
:1024A000D8F80030D3F8840005F006FDDAF80030E3
:1024B00064389842FFF4AFAEAFE65D48DFF8A8910C
:1024C000DFF894A108F048FB0C215B4808F0AEF857
:1024D0000C215A4808F0AAF8D8F800203368D2F83E
:1024E0008400426B11698DB2C9F80050002B3FF493
:1024F00071AE05F0E1FC40F6E44100230A2201FB45
:1025000005F1B1FBF0F14A4808F036FB02214748DB
:1025100008F08CF8B4F8A210454808F06DFBDAF822
:102520000030D9F80050D3F8840053E644490AF04B
:102530007BF858B9434930460AF058F830B9424A56
:10254000424B12680592059A1A60FCE5DFF8F880A4
:102550003E4CD8F800300493049823683C4FC01ACE
:1025600009F04EFE314609F0A3FE3A4909F054FF46
:10257000384909F051FF396809F092FDD8F8003068
:102580000393039B38602360DDE52F4A2F4B1268CD
:102590000892089A1A60D6E52548DFF8CC902E4DAF
:1025A00008F0DAFAD4F88430012B4FF00B010CBF9D
:1025B0002A482B4808F03AF80C21204808F036F851
:1025C000D8F800203368D2F88400426B11691FFAF2
:1025D00081FBC9F800B0002B3FF4F7AE05F06CFCAE
:1025E00040F6E44100230A2201FB0BF1B1FBF0F1BC
:1025F0000F4808F0C1FA01211A4808F017F8B4F89A
:10260000A0100B4808F0F8FA2B68D9F800B0D3F8FE
:102610008400DAE600709446007094C64887FF1F75
:10262000ECCDFF1F44CFFF1F17B7D138E0110100D9
:10263000D487FF1F281001002C1001001810010082
:102640000000FA430000FAC328D1FF1F5892FF1F71
:1026500030CFFF1F00007A4460CFFF1F0010010041
:102660000C100100940E01006CCFFF1F2DE9F04FFC
:102670009B4D2B6885B0002B7CD09A4CDFF86C8288
:10268000994FDFF8B092D4F88830964E012B00F0C5
:102690008C80D7F800A0D6F860B0F56D934E05FB9E
:1026A0000BF54FF47A7000FB05F009F0ADFD904991
:1026B0000546504609F0FCFD294609F0ADFE8D495E
:1026C00009F0F6FD09F0BAFF6328C8F800004CDDF8
:1026D0002846874909F0A0FE642338603360D9F8A2
:1026E0000030002B3ED0D4F884307E4D012B00F01A
:1026F0008A80032B00F0E280022B00F0E6800221AA
:102700007D4807F093FF7D4B186809F027F90224F4
:1027100002460B4600947A4808F076FA214679483A
:1027200007F084FF2146744807F080FFD8F80010B6
:10273000734808F061FA0621734807F077FF38689C
:102740006B4909F0B5FD09F009F9009402460B4602
:102750006B4808F059FA03216C4807F067FF684896
:1027600008F0FAF905B0BDE8F08F0028BCBF0023DF
:102770003360B4E7664E5B4C33680293029A42F2D0
:1027800028339A424CD833680393039A42F2107369
:102790009A424ED8D4F88830DFF85081524FDFF893
:1027A0009491504E012B7FF474AF5A48FEF780FB92
:1027B0005949D6F870A0756F09F07AFD09F064FFE9
:1027C000B26FF36FD4F860B0CAEB02025B1B80B249
:1027D0009A42CAEB0000C6BF03FB00000132584317
:1027E00090FBF2F02844E56D00FB0BF005FB00F0D8
:1027F00000EB8000400009F007FD3D4909F00CFEA8
:10280000824638604AE7454B1B68012B4FF00A01AE
:102810000CBF4348434807F009FFD5F8843068E708
:102820003C48B4F9CC30E26C94F84810FEF7B4FAA6
:10283000A9E73848FEF73CFB3749276F666F09F078
:1028400037FD09F021FFA26FE36FD21B9B1B80B203
:102850009A42A0EB07003DDD03FB0000531C90FBF8
:10286000F3F31E44206EE36DDFF88080DFF8C49040
:10287000C8F8006000FB06F003FB00F000EB8000EE
:10288000400009F0C1FC1A49174F09F0C5FDD9F8FD
:102890000030386001222A60002B3FF4F4AE0221A0
:1028A000154807F0C3FE164808F056F959211E488E
:1028B00007F0BCFE124808F04FF9E4E610211B486F
:1028C00007F0B4FED4F8843016E70721184807F063
:1028D000ADFE14E703FB00F393FBF2F31E44C1E7E4
:1028E000E8CEFF1F08CEFF1F30CFFF1F3087FF1F2E
:1028F000E4388E3E0000C842E0110100F4CDFF1F15
:10290000D487FF1F3C100100D0100100D810010037
:1029100028D1FF1FFC93FF1F00007A444887FF1F48
:102920009C100100A810010040100100B41001002B
:10293000C81001002487FF1F30B5112083B006F0B6
:10294000AFF9012818D0122006F0AAF9012813D0F7
:1029500000210B2006F09EF900210C2006F09AF9C8
:102960000021152006F096F92649274B0120002268
:1029700008701A6003B030BD0121152006F08AF9F5
:10298000224A234C234B1268D4F88C1001921B6806
:10299000019A1D4D0B4493424FF00201296005D965
:1029A00001210C2006F076F903B030BDD4F8940074
:1029B00009F02AFC184B196809F018FE0028EFD11D
:1029C00001210B2006F066F994F8C83003242C602E
:1029D00043B10C4B02221A7000210C2006F05AF968
:1029E00003B030BD122006F05BF9012808BF054B8B
:1029F0004FF0110008BF1C7006F052F90128EBD10E
:102A0000E7E700BFFCCDFF1FF892FF1F28D1FF1F93
:102A100008CEFF1F60CDFF1FF4CDFF1FF0B5684E3D
:102A2000684D34682B689C4287B039D014F001019E
:102A300055D014F0020149D014F004013DD0E30751
:102A40000ED52B68DF070BD45F4F3A68002A00F0E1
:102A500082805E4B1B680193019B93426DD8346862
:102A6000A0070DD52B6899070AD4594F3A68002A58
:102A70004CD0564B1B680393039B934238D8346861
:102A800062070DD52B685B070BD4524F3A68002ABA
:102A90007ED04E4B1B680593059B934268D83468E3
:102AA0000CB107B0F0BD2146162005F073FF21469A
:102AB000172005F06FFF07B0F0BD052005F06AFF95
:102AC0002B68346803F0FB032B60B8E7172005F090
:102AD00061FF2B68346803F0FD032B60ACE7162020
:102AE00005F058FF2B68346803F0FE032B60A0E765
:102AF000394B1720D3F8901005F04CFF2B68346841
:102B000043F0020300222B603A60B9E7334808F033
:102B100023F80C21324807F089FD304808F01CF8F2
:102B2000FF21172005F036FF284B2E4A1968029125
:102B3000029912680A443A609CE7274B1620D3F8A2
:102B4000901005F027FF2B68346843F00103002242
:102B50002B603A6084E7FF21162005F01BFF1B4B1A
:102B6000204A19680091009912680A443A6071E796
:102B7000194B0520D3F8901005F00CFF2B68346832
:102B800043F0040300222B603A60002C89D18AE7CD
:102B9000124807F0E1FF0C21134807F047FD0F48EA
:102BA00007F0DAFFFF21052005F0F4FE074B0D4A80
:102BB00019680491049912680A443A606AE700BFF0
:102BC000F892FF1F50CFFF1FDCCEFF1F28D1FF1F41
:102BD000ECCEFF1FF0CEFF1F08CEFF1FD487FF1FD4
:102BE000DC1001003887FF1FEC1001002DE9F047D1
:102BF000534EDFF870813368DFF86C91D3F88400AE
:102C0000504D0F2105F0D6FB0023012222214E4812
:102C1000C8F80030C9F8002007F008FDD8F80030E7
:102C2000132B20DC40F6E4473368B5F8A0A0D3F8B6
:102C30008400436B1C6905F03FF9A4B2012107FB36
:102C400004F4B4FBF0F441485444A5F8A04007F064
:102C5000EDFC642006F05AF8D8F800300133132B4D
:102C6000C8F80030E0DDB5F8A030394A3948A2FB99
:102C700003129B1A02EB5303C3F30F131946A5F873
:102C8000A03007F0B9FF1D21334807F0CFFC022127
:102C9000324807F0CBFC2F4807F05EFF00231A46AE
:102CA0000E213068C8F8003005F080F80223222198
:102CB0002548C9F8003007F0B9FCD8F80030132BCC
:102CC00020DC40F6E4473368B5F8A290D3F88400DE
:102CD000436B1C6905F0F0F8A4B2012107FB04F472
:102CE000B4FBF0F419484C44A5F8A24007F09EFC50
:102CF000642006F00BF8D8F800300133132BC8F825
:102D00000030E0DDB5F8A230114A1248A2FB0312F0
:102D10009B1A02EB5303C3F30F131946A5F8A23015
:102D200007F06AFF1D210E4807F080FC02210B48C6
:102D300007F07CFC0748BDE8F04707F00DBF00BF77
:102D400060CFFF1F08CEFF1FFC10010040110100E3
:102D500087611886D487FF1F20110100E011010050
:102D6000441101006492FF1F4887FF1F2DE9F047BF
:102D7000C64DD5F8B830062B00F0AE81C44BC54C1B
:102D80001B68A86D40F2513108222160E271002BCE
:102D900000F0778109F038FA696A064609F088FA86
:102DA000BD49BA4F09F084FA09F06EFC80B20312F3
:102DB0006372BA4ABA4B12681B68E9692072A3723F
:102DC00030461B121612E3722273667309F070FA12
:102DD000B149B04E09F06CFA09F056FC83B21A12F0
:102DE0003146B048A373E27304F038FEAE4AAF4BED
:102DF00012681988A172D3B2237203EB83035B00BC
:102E0000237302EB820343F3D7134FEA212E1212EE
:102E10004FF008084FF0000931466373A14884F869
:102E20000BE040F255336272236084F8078084F827
:102E30000E9084F80F9004F011FE40F256339C4837
:102E4000236084F80780FDF7A3FF9A4909F030FA60
:102E500009F01AFC20729648FDF79AFF954909F08F
:102E600027FA09F011FC944A9249C0F3072310682D
:102E7000637209F0D1FA09F0E1FB40FA08F3A0729D
:102E80008B48E372FDF7ACFF834909F011FA09F0B2
:102E9000D5FB20738648FDF7A3FF7F4909F008FAA8
:102EA00009F0CCFB40F30720314660737D4884F87D
:102EB0000E9084F80F9004F0D1FD022005F026FF5B
:102EC0007E4A7F4B11782172517890786172D17867
:102ED000A0721A789878E172597822736173DA785F
:102EE000A07340F25A3331466E48E273236084F88F
:102EF000078004F0B3FD734B6A481A7822725A783F
:102F000062729A78A272DA78E2721A7922735A7926
:102F100062739A79DB79E373314640F25E33A273D0
:102F2000236084F8078004F099FD022005F0EEFE8E
:102F3000654B5C481A7822725A7862729A78A2724B
:102F4000DA78E2721A7922735A7962739A79DB79A4
:102F5000E37331464FF45C73236084F80780A273F7
:102F600004F07CFD594B1B68012B00F06F8202209E
:102F700005F0CCFE082640F273334D482360E6711D
:102F8000FDF7C0FE524909F093F909F07DFB20726C
:102F90004748FDF7B7FE4E4909F08AF909F074FB7E
:102FA000C0F3072342486372FDF7D0FE484909F099
:102FB0007FF909F069FBA0723D48FDF7C7FE44495F
:102FC00009F076F909F060FBC0F307233848E37293
:102FD000FDF76CFF3F4909F063F809F055FB2073DA
:102FE0003348FDF763FF3B4909F05AF809F04CFB01
:102FF000C0F307232E486373FDF756FF354909F0E8
:103000004FF809F041FBA0732948FDF74DFF314906
:1030100009F046F809F038FB1E49C0F307232148A0
:10302000E37304F01BFD022005F070FEE96D2B6ECA
:10303000022211FB03F3104640F27931C3F3072556
:10304000E27121602372657205F060FE40F2723316
:1030500017482360E671FDF71DFD20721448FDF747
:1030600019FD002340FA06F26272A372E372237321
:103070006373A373E37307490A48BDE8F04704F09C
:10308000EDBC09F0C1F8A969064687E608CEFF1F26
:103090008C92FF1F6892FF1F0000204148CFFF1F46
:1030A0007C92FF1F80CFFF1F3087FF1F3687FF1FD7
:1030B000FC93FF1F0000C842F4CDFF1FF0CDFF1F9F
:1030C0005092FF1F5887FF1F6087FF1FF4CEFF1F1E
:1030D00000007A4433938843CD4CCE48002608271D
:1030E0004FF4C36321464FF059094FF044084FF0A5
:1030F000420A236084F80A9084F80B80E7712672F4
:1031000026736673A673E67384F809A004F0A6FC20
:10311000022005F0FBFD4FF4BB632146BD48236050
:1031200084F80A9084F80B80E771267284F809A06D
:1031300026736673A673E67304F090FC022005F014
:10314000E5FDE96D2A6ED5F858E0B248E77101FB5C
:1031500002F312FB01F203EBC30103EB810302EB69
:10316000C2010EFB03F302EB81024FF4AB680321B3
:1031700012FB0EF24FF0050C3B414FF0070EC4F866
:10318000008021724FF0120921464FF0040884F8A4
:103190000EC02373627384F80FE0A67284F809905E
:1031A00084F80B8004F05AFC022005F0AFFD3422B5
:1031B0004F234FF4B36E21469648E272E373C4F88E
:1031C00000E0E7712672667284F80A9026736673CF
:1031D00084F80E8004F042FC022005F097FD8E4B2F
:1031E000E7711B68A86D4FF456722260002B40F007
:1031F000658109F009F8A969064609F059F8874977
:1032000009F056F809F040FA80B240FA07F360720C
:103210002372E969304609F04BF8804909F048F813
:1032200009F032FA7E4B7F4A1B6812687849637353
:1032300085B216121B122F1276482373E273E572C1
:10324000A772A67304F00AFC022005F05FFD764A1F
:10325000764B16681D88764B76491868E57206EB42
:103260008603642202FB06F203EB83039B00121227
:103270002E124FF47677082563722272A6722760A9
:10328000E57109F015F809F0FFF983B243FA05F783
:103290000026F9225E495F486373A2732773E673C1
:1032A00004F0DCFB022005F031FD4FF48B604FF0A1
:1032B000120E56227823564920603427554884F848
:1032C0000AE0A273E373E571267266722673667371
:1032D000E77204F0C3FB022005F018FD4FF4A3636E
:1032E00055482360E571FDF7DFFD4C4908F0E0FF2C
:1032F00009F0CAF9C0F307234F482372FDF7D4FD44
:10330000464908F0D5FF09F0BFF960724A48FDF759
:10331000CDFD424908F0CCFF09F0B6F9C0F3072310
:103320004548A372FDF7C2FD3C4908F0C1FF09F012
:10333000ABF9FF233649E072364823736373A373F6
:10334000E37304F08BFB022005F0E0FC4FF49B6379
:1033500039482360E571FDF71BFD304908F0A8FFEF
:1033600009F092F9C0F3072333482372FDF710FDEB
:103370002A4908F09DFF09F087F9304B3049607207
:10338000186809F049F809F059F940FA05F20346BE
:103390002948A272E372FDF723FD204908F088FF57
:1033A00009F04CF940F3072323482373FDF718FD78
:1033B0001A4908F07DFF09F041F9032360731449AD
:1033C0001448A373E57304F049FB022005F09EFC4A
:1033D0001C4A1D4B92F801E09178D0781F785E78F6
:1033E00092F800C0E571DA789D78A1724FF4AC7361
:1033F000E07284F808C084F809E027736673A57347
:10340000E273236002490348BDE8F04704F026BB9D
:103410006892FF1F80CFFF1F8C92FF1F000020418A
:1034200048CFFF1F7C92FF1F3087FF1F3687FF1F8B
:1034300030CFFF1F620B363BFC93FF1FF4CDFF1F05
:103440000000C842F0CDFF1F5092FF1F2E48FDF72D
:1034500059FC796D08F024FE81462B48FDF776FC77
:103460000146484609F0C2F800283FF480AD40F21A
:10347000C333254886F807803360FDF743FC3F6D72
:10348000394609F0B3F848B32049384608F010FF30
:1034900009F0FAF880B240FA08F370723372002330
:1034A0000127042603221A491A48A772E6722273DA
:1034B0006373A373E37304F0D1FA58E508F0A4FE34
:1034C000696A064608F0F4FE134908F0F1FE09F0B7
:1034D000DBF880B20312607223729AE60A48FDF7A5
:1034E00011FC0A4908F0E4FE09F0CEF8C0F3072306
:1034F00005483372FDF706FC044908F0D9FE09F0CF
:10350000C3F87072CBE700BFFC93FF1F00007A4442
:103510006892FF1F80CFFF1F0000204138B5174C75
:10352000174A2368101D12F8011F904241EA032335
:10353000F9D12360134C03F100432360124BD3F8FD
:103540008430022B11D0114B1B68012B00D038BDE9
:103550000F4807F001FB21680D4807F04DFB0321E0
:103560000C48BDE8384007F061B820680A4D08F003
:103570004BFE2860FEF7B0FDE5E700BF4CCFFF1F14
:1035800057CDFF1FF092FF1F08CEFF1F5CCFFF1F1C
:10359000D487FF1F7011010044CFFF1F30B5494C85
:1035A000494883B0214604F051F923683C2B6FD081
:1035B000A3F19A02C52A0AD903F47F63B3F5B87F51
:1035C000424D14D02B68012B20D003B030BD404BAE
:1035D0003E4D1B68012B53D000223A493D48FDF770
:1035E0007FFA236803F47F63B3F5B87FEAD1384BE1
:1035F00034491B683748012B374B93F8CA3043D006
:103600000022FDF74BFA2B68012BDED1304B1B68F3
:10361000012BDAD1314B32481B6801930A22002377
:10362000019907F0A9FA2268264B002ADB7942DBD0
:103630002C492D4809F004FE2B4809F041FE0146B3
:10364000294806F0F3FF25681E4B15F0804523D16D
:10365000DB798BB1631925491A7A234809F0F0FD0B
:10366000214809F02DFE01461F4806F0DFFF013515
:10367000E379EDB2AB42EDD8194807F06DFAA4E753
:103680002A68012AA8D1A8E72A68012AB8D1B8E790
:10369000FFF744FF23688BE7154D134C0FCD0FC484
:1036A00095E8030044F8040B204620F8141915216E
:1036B00006F0BCFFE0E70F490B4822F0604209F03A
:1036C000BFFDB9E750CDFF1F80CFFF1F2487FF1F2D
:1036D0005CCFFF1FFC93FF1F08CEFF1F28D1FF1FE9
:1036E000D487FF1F9C1101006CCDFF1FC811010082
:1036F000B0110100741101009A4B1B78052B00F0EA
:103700009B802DE9F04F984C984E994DE26E636E78
:103710009848326083B02B60FDF7C8FB216B08F03E
:1037200065FF08B100232B609248FDF7BDFBE16AFD
:1037300008F07AFF10B1002333602B608D48FDF74D
:1037400005FBE16808F070FF08B100232B60894891
:10375000FDF7FCFAE16808F067FF08B100232B6071
:103760008448814FFDF7CEFA216908F03FFF002819
:1037700068D0002333602B687D4F002B4DDD7D48E2
:10378000DFF8E481FDF792FBA16B08F02FFF002822
:1037900040F0B480784B77481B68734F012B00F0E2
:1037A000ED80FDF7D3FA216A8046A06908F076FC27
:1037B0000146404608F038FF00282ED0286808F05F
:1037C00023FD81466B48FDF7C1FABC69396A824620
:1037D000204608F063FCBB6E8046786EC01A08F085
:1037E00013FD41460746504608F058FC014638464E
:1037F00008F05EFD41460746204608F04FFC0146B2
:10380000384608F009FE002108F04AFC0146484607
:1038100008F044FC08F012FF28603368534A002B7C
:10382000AFBF2B682B6800211160002B01DA002349
:103830002B6003B0BDE8F08F4C494D4A00230B606C
:10384000136070474B48FDF75DFAF96908F0CEFE4A
:1038500000288ED13368DFF81491002B8BDD4548AA
:10386000FDF722FBF96B08F0DFFE002840F0CA806C
:103870004048DFF8F480FDF745FAD4F8C410074655
:10388000E06908F00DFC0146384608F0AFFE00285C
:103890003FF471AF306808F0B7FC82463548FDF759
:1038A00031FA8346D8F86C00D8F81C7008F0ACFCEC
:1038B00039468146584608F0F1FB494683460020C8
:1038C00008F0ECFB0146584608F0F2FCD8F8C410AA
:1038D0008346384608F0E4FB394608F0DFFB014632
:1038E000584608F099FD494608F0DAFB0146504673
:1038F00008F0D4FB08F0A2FE30603CE7386808F01E
:1039000083FC83461B48FDF7D1FA0190D8F8640088
:10391000D8F830A008F078FC019B81465146184643
:1039200008F0BCFB49460190002008F0B7FB019B62
:103930000146184608F0BCFC51460190D8F8380002
:1039400008F0ACFB019B0146184608F065FD4946AE
:1039500008F0A6FB0146584608F0A0FB08F06EFEF2
:10396000386017E7FCCDFF1F08CEFF1F48CFFF1FB1
:103970007C92FF1FFC93FF1F8C92FF1FFDF7E6F95F
:10398000216A8046606A08F089FB0146404608F0DB
:103990004BFE00283FF441AF286808F035FC824612
:1039A0002F48FDF7D3F9D7F82480396A834640467B
:1039B00008F074FB8146B86E08F026FC0446786E69
:1039C00008F022FC214608F069FB494607465846A4
:1039D00008F064FB0146384608F06AFC4946074691
:1039E000404608F05BFB0146384608F015FD2146CD
:1039F00008F056FB0146504608F050FB08F01EFE4A
:103A000028600AE7D9F8000008F0FEFB8246144857
:103A1000FDF74AFA0190F86ED7F83C8008F0F4FB05
:103A2000019B83464146184608F038FB014658463C
:103A300008F03EFC41468346F86A08F02FFB014639
:103A4000584608F0E9FC002108F02AFB01465046E0
:103A500008F024FB08F0F2FDC9F8000008E700BFF9
:103A6000FC93FF1F08B5274807F076F80721264882
:103A700006F0DCFD112005F013F90621F8B123480A
:103A800006F0D4FD102005F00BF9062100B3204804
:103A900006F0CCFD122005F003F9062108B31D48FD
:103AA00006F0C4FD132005F0FBF8062110BB1A48F0
:103AB00006F0BCFD1348BDE8084007F04DB81748B4
:103AC00006F0B4FD102005F0EBF806210028DED149
:103AD000134806F0ABFD122005F0E2F8062100289D
:103AE000DDD1104806F0A2FD132005F0D9F806211B
:103AF0000028DCD00C4806F099FD0248BDE80840DB
:103B000007F02AB8D487FF1FD4110100DC1101008F
:103B1000EC110100FC11010014120100E41101007C
:103B2000F4110100041201000C12010010B5254C23
:103B30002368042B27DC01210B2005F0ABF80121C1
:103B40000C2005F0A7F80121142005F0A3F80121AD
:103B5000152005F09FF8FF21162004F01BFFFF2120
:103B6000172004F017FFFF21052004F013FFFF21A9
:103B7000062004F00FFF236801330A2B2360C4BF23
:103B80000023236010BD00210B2005F083F80021E5
:103B90000C2005F07FF80021142005F07BF80021AF
:103BA000152005F077F80021162004F0F3FE00211F
:103BB000172004F0EFFE0021052004F0EBFE0021A9
:103BC000D6E700BF5492FF1F30B5092183B0AE483D
:103BD00005F07CFB222005F021FBAC4BD3F8A8308C
:103BE000012BAB4B1B7809D0052B10D8DFE813F065
:103BF0002D0132013C01410137010B00002B00F087
:103C00003D81052B03D10721A24805F05FFB22204F
:103C100005F004FBFF2005F001FBFF2005F0FEFA94
:103C20009D4CFF2005F0FAFA08219C4805F04EFB58
:103C300021689B4806F0E0FFFF2005F0EFFAFF2027
:103C400005F0ECFAFF2005F0E9FA0921954805F0A6
:103C50003DFB2168924806F0CFFFFF2005F0DEFA19
:103C6000FF2005F0DBFAFF2005F0D8FA0C218E4882
:103C700005F02CFB8D4B8E49186808F0CDFB07F042
:103C80006DFE002402460B460094854806F0BCFFFA
:103C9000FF2005F0C3FAFF2005F0C0FAFF2005F071
:103CA000BDFA0921834805F011FB8348FDF798F818
:103CB00007F054FE009402460B46794806F0A4FF34
:103CC000FF2005F0ABFAFF2005F0A8FAFF2005F071
:103CD000A5FA0C21794805F0F9FA7748FDF7E6F8DE
:103CE00007F03CFE009402460B466D4806F08CFF40
:103CF000FF2005F093FAFF2005F090FAFF2005F071
:103D00008DFA0D216E4805F0E1FA6B48FDF7CCF80D
:103D100007F024FE009402460B46614806F074FF4B
:103D2000FF2005F07BFAFF2005F078FAFF2005F070
:103D300075FA0921634805F0C9FA5F48FDF728F8CC
:103D4000614908F0B5FA07F009FE009402460B46F7
:103D5000534806F059FFFF2005F060FAFF2005F0F8
:103D60005DFAFF2005F05AFA0C21584805F0AEFA2A
:103D70005148FCF7C7FF564908F09AFA07F0EEFDE4
:103D8000009402460B46464806F03EFFFF2005F031
:103D900045FAFF2005F042FAFF2005F03FFA0D2119
:103DA0004C4805F093FA4448FCF7D0FF484908F026
:103DB0007FFA07F0D3FD009402460B46384806F020
:103DC00023FFFF2005F02AFAFF2005F027FAFF2045
:103DD00005F024FA0921404805F078FA3F4B3048B5
:103DE000196806F009FFFF2005F018FAFF2005F01A
:103DF00015FAFF2005F012FA0E21394805F066FA8F
:103E00002D48FCF7A3FF05462B48FCF77BFF014636
:103E1000284608F043F92E4908F04AFA07F09EFDBB
:103E2000009402460B461E4806F0EEFEFF2005F009
:103E3000F5F9FF2005F0F2F9FF2005F0EFF9FF207A
:103E400003B0BDE8304005F0E9B90621254805F08A
:103E50003DFADCE60721244805F038FAD7E60B21C5
:103E6000224805F033FAD2E60721214805F02EFA60
:103E7000CDE608211F4805F029FAC8E608211E48AA
:103E800005F024FAC3E600BF1C12010008CEFF1F94
:103E9000FCCDFF1F680F01003087FF1F34120100A7
:103EA000C487FF1F401201004C120100F4CDFF1F18
:103EB0000000C8425C120100FC93FF1F6812010061
:103EC00078120100881201000000204194120100C4
:103ED00000007A44A4120100B41201004487FF1FBD
:103EE000C0120100380F0100400F0100480F01000F
:103EF000540F01005C0F0100281201002DE9F04170
:103F00008D4DD5F8B830042B3ED0032B6ED0012B4D
:103F100000F09880022B01D0BDE8F081874C8848E2
:103F2000237240F20E32012321462260E37103F036
:103F300095FD844B1B685B00FF2BC8BFFF2304214A
:103F400040224FF441702060E17122726372A86DCB
:103F500008F05AF9A96908F0ABF97B49054608F061
:103F600063FB002800F0DE802946284608F098F818
:103F700008F08AFB80B20312E072A3726F497048A6
:103F8000BDE8F04103F06ABD6C4C704AA379226031
:103F900043F001030822E271A371A86D08F034F91F
:103FA000A96908F085F96A4908F082F908F06CFB04
:103FB000644B684A1B68126893FBF2F380B20026D8
:103FC0001A120712607221465D48E372A2722772CC
:103FD00026736673A673E67303F040FDA279D5F8E5
:103FE000B83066F30002032BA27190D1534CA86D38
:103FF000A3720122E823072140F2FF262272637296
:104000002660E17108F000F9A96908F051F95049FA
:1040100008F04EF908F038FB4A4B4E4A1B6812680C
:1040200093FBF2F382B21E121712214644486373C7
:10403000E2722773A67303F011FDD5F8B830012B97
:104040007FF468AF444B3D4C1B68236007228023FC
:104050001020E271237204F023FE002869D13F4B47
:104060001B68DFF8E0803B4FA86D344E03EB830301
:104070005B001A12A3726272D8F800303A6893FBA0
:10408000F2F31A126273A37308F0BEF8A96908F07C
:104090000FF9334B196808F001F82D4908F008F9B9
:1040A00008F0F2FA80B20312314620732448E3721A
:1040B00003F0D4FC022004F029FE2A4B1B68236085
:1040C000072280231020E271237204F0E9FD70BB07
:1040D000224B1B68A86D03EB83035B001A127272FC
:1040E000B37208F091F8A96908F0E2F81E4B19685C
:1040F00007F0D4FF164908F0DBF808F0C5FA82B2E1
:1041000016123868D8F80030227393FBF0F30B498D
:104110000B48A3731A12E672627303F09FFCD5F882
:10412000B830F7E601229023A272E37226E70F4B24
:10413000CFE70E4B94E700BF08CEFF1F6892FF1F2A
:1041400080CFFF1F7C92FF1F00004843F4E5061854
:10415000000020412C87FF1F6887FF1F2887FF1F53
:104160007892FF1F6C87FF1F34CFFF1F3C87FF1F14
:1041700070B50368C57984B0012D8DF805304FEA1C
:1041800013230E468DF8043005F1010201A909DD63
:1041900007300D440DF1050310F8014F03F8014FEE
:1041A000AB42F9D1034B04489B5D02F021FF04B000
:1041B00070BD00BF601E0100FC92FF1FF0B40D4BEC
:1041C0000D489C790822FF27CD26A225DA7100220E
:1041D000B0216FF300041F729E72DD725A721A735F
:1041E0005A739A73DA7319609C711946F0BC03F024
:1041F00035BC00BF6892FF1F80CFFF1F2DE9F04143
:10420000674D2B780F2B82B072D0664A664B1278BE
:10421000664F002A6AD000223A6093F8CA10644EB2
:1042200000294ED13378082B00F08680DFF8A88172
:1042300043F080035F4C0821012A2360E17100F004
:104240008780682210232272637298F800305949DF
:104250000022022BA2720AD82B78CA724FEA0313EB
:104260000A734A73DBB210D104338B730EE03B68E0
:10427000012B04BF08230B732B7818BF0A7350203F
:1042800000221B01C872DBB26273A3733178494804
:10429000FFF76EFFE073022004F038FD4549464801
:1042A00003F0DCFB2A7833784448013201332A706A
:1042B0003370FCF7AFFB08B1FFF780FF02B0BDE839
:1042C000F08101290CD133780C2BAFD1DFF80881B4
:1042D00098F800300021032B317034D98023A9E7EE
:1042E0003378DFF8F48043F08003A3E73A6894E77B
:1042F000334E344C33680093009A21680023914276
:104300002B7013D2304B274F1B68012293423A7017
:1043100036D0254B31680191B3F8A40001993C30A7
:104320004FF47A7606FB0011216071E71D4A1F4F9A
:1043300013703A681C4B70E7DFF89C80317098F876
:104340000030032BCAD8013388F80030802371E78E
:104350001A48FCF7D7FC1D4907F0AAFF08F094F9AA
:1043600000F10A0315482372FCF7CCFC174907F04B
:104370009FFF08F089F980B20A300012607264E78A
:10438000134806F0E9FB1321124806F04FF91048D4
:1043900006F0E2FB0E4806F0DFFB3A78B9E700BF13
:1043A00038CFFF1F40CFFF1F08CEFF1FF4CEFF1FE7
:1043B00058CFFF1F6892FF1F80CFFF1FFC93FF1F86
:1043C00028D1FF1F24CFFF1F2487FF1F00007A443E
:1043D000D487FF1FD012010064CFFF1F2DE9F041E9
:1043E000AE4CAF4D82B006F0BBF823682860042BBA
:1043F00000F05683022B00F0C280082B48D0072B18
:1044000040F07481332801F00B8600F3DB83312800
:1044100001F0F085322840F00F8206F0DDF8002828
:1044200040F362819F48A04E06F028FD07F0ECFEA5
:104430009E4907F03DFF61230122706422602B60DA
:104440001846A0F152031F2B00F2F681DFE813F0AB
:10445000B60DF401F401F401F401F401F401F401E6
:10446000F401F401F401F401F401F401F4010E0487
:10447000F40E93052C06FE04F401F401F40181040A
:10448000F401F10EF401F401F401F401F401BB0DA7
:10449000322800F0AA8340F3CD83342800F0C18392
:1044A000712840F0C9810022732322602B602368A9
:1044B000002B40F0C4817E4E7A4806F04DFB04216B
:1044C0007C4806F0B3F8774806F046FB10217A489E
:1044D00006F0ACF8734806F03FFB1321774806F06E
:1044E000A5F8774B6F48196806F086FB6D4806F013
:1044F00033FB1421734806F099F86A4806F02CFB48
:104500001E21714806F092F8664806F025FB152139
:104510006E4806F08BF8634806F01EFB1E216C48BF
:1045200006F084F85F4806F017FB2021694806F082
:104530007DF85C4806F010FB1921674806F076F814
:10454000584806F009FB1221644806F06FF85548F8
:1045500006F002FB0F21624806F068F8514806F0A9
:10456000FBFA0D215F4806F061F84E4806F0F4FAB8
:10457000002201233260236002B0BDE8F081A0F187
:104580003103422B00F2588101A252F823F000BF00
:1045900065550000815500009D550000B75500008D
:1045A000E95500000756000039480000394800006E
:1045B00039480000394800003948000039480000F7
:1045C00039480000394800003948000039480000E7
:1045D00039480000394800003948000039480000D7
:1045E00039480000394800003948000039480000C7
:1045F00039480000394800003948000039480000B7
:1046000039480000394800003948000039480000A6
:104610003948000039480000394800003948000096
:104620003948000039480000394800003948000086
:104630003948000039480000394800003948000076
:104640003948000039480000394800003948000066
:104650003948000039480000DD55000039480000A5
:104660003948000039480000394800003948000046
:104670003948000039480000394800003948000036
:104680003948000039480000394800003948000026
:10469000A7440000394800004755000068CFFF1FBD
:1046A0004CCDFF1FD487FF1F08CEFF1F6F12833A28
:1046B0002487FF1FA0160100A8160100BC160100E8
:1046C0004487FF1FD0160100E816010008170100FB
:1046D0002017010040170100641701008017010036
:1046E00094170100A417010023682868062B40F0E6
:1046F000AB80A0F13103402B00F29E8001A252F862
:1047000023F000BF315400005D5400000555000047
:1047100089540000AF540000CD540000F154000053
:104720003948000039480000394800003948000085
:104730003948000039480000394800003948000075
:104740003948000039480000394800003948000065
:104750003948000039480000394800003948000055
:104760003948000039480000394800003948000045
:104770003948000039480000394800003948000035
:104780003948000039480000394800003948000025
:104790003948000039480000394800003948000015
:1047A0003948000039480000394800003948000005
:1047B00039480000394800003948000039480000F5
:1047C00039480000394800003948000039480000E5
:1047D00039480000394800003948000039480000D5
:1047E00039480000394800003948000039480000C5
:1047F00039480000394800003948000039480000B5
:1048000039480000A744000005F0E6FE002841F307
:10481000EA83E948E94E06F031FB012703460146E9
:104820006222E748F36527602A60FCF7B3FA236841
:104830002868012B3FF405AE73283FF438AE02B070
:10484000BDE8F08123682868052B40F08B80A0F13B
:104850003103402BF0D801A252F823F0215300007D
:1048600041530000615300008153000009520000D1
:10487000075300003948000039480000394800005B
:104880003948000039480000394800003948000024
:104890003948000039480000394800003948000014
:1048A0003948000039480000394800003948000004
:1048B00039480000394800003948000039480000F4
:1048C00039480000394800003948000039480000E4
:1048D00039480000394800003948000039480000D4
:1048E00039480000394800003948000039480000C4
:1048F00039480000394800003948000039480000B4
:1049000039480000394800003948000039480000A3
:104910003948000039480000394800003948000093
:104920003948000039480000394800003948000083
:104930003948000039480000394800003948000073
:104940003948000039480000394800003948000063
:104950003948000039480000394800009D530000E4
:1049600023682868032B7FF464AFA0F13003482B41
:104970003FF662AF01A252F823F000BF09480000E1
:10498000A95D0000D15D0000F95D0000595E0000E6
:104990007B5E0000A35E0000CB5E0000E95E0000CD
:1049A000375C0000394800003948000039480000F1
:1049B00039480000394800003948000039480000F3
:1049C00039480000394800003948000039480000E3
:1049D00039480000394800003948000039480000D3
:1049E00039480000394800003948000039480000C3
:1049F00039480000394800003948000039480000B3
:104A000039480000394800003948000039480000A2
:104A10003948000039480000394800003948000092
:104A20003948000039480000394800003948000082
:104A30003948000039480000394800003948000072
:104A40005F5C00007D5C00009B5C0000B95C0000C6
:104A5000D75C0000F55C0000295700004D570000AE
:104A60003948000073570000615D000039480000BC
:104A70003948000039480000394800003948000032
:104A8000A7440000895D0000394800003948000053
:104A90003948000039480000394800004B5D0000EB
:104AA000A0F13103412B3FF6C7AE01A252F823F02B
:104AB000E1560000E55600002B5600005756000056
:104AC0006F5600008B5600009D560000A156000056
:104AD000A556000039480000394800003948000058
:104AE00039480000394800003948000039480000C2
:104AF00039480000394800003948000039480000B2
:104B000039480000394800003948000039480000A1
:104B10003948000039480000394800003948000091
:104B20003948000039480000394800003948000081
:104B30003948000039480000394800003948000071
:104B40003948000039480000394800003948000061
:104B50003948000039480000394800003948000051
:104B60003948000039480000394800003948000041
:104B700039480000C7560000394800003948000095
:104B80003948000039480000394800003948000021
:104B90003948000039480000394800003948000011
:104BA0003948000039480000394800003948000001
:104BB000A7440000E9560000D487FF1F08CEFF1F5E
:104BC000FC93FF1F34287FF46BAC05F005FD002833
:104BD0007FF78AAD8A488B4E06F050F96123012297
:104BE000B08622602B6018462BE405F0F5FC002807
:104BF0001CDD8348834E06F041F907F005FB82492E
:104C000007F056FBB6F9CC3096F848100746024636
:104C10007E48F764FCF7C0F8012369202360286010
:104C20000FE405F0D9FC002800F37F84236828688E
:104C3000FFF7E5BB31287FF4FFAD05F0CDFC002880
:104C400040F3EE846E486F4E06F018F9C0B286F855
:104C5000480002288ABF0021014686F84810B6F9AC
:104C6000CC30F26C6948D5E705F07AFC05F0B4FC6D
:104C700005460028F8D16248624E05F06DFF604895
:104C800005F06AFF5E4805F067FF5D4805F064FFC8
:104C90005B4805F061FF1F215D4805F0C7FC5848DF
:104CA00005F05AFF1C215B4805F0C0FCB06A5A4968
:104CB00007F0FEFA06F052FE009502460B465048F9
:104CC00005F0A2FF0221554805F0B0FC4C4805F064
:104CD00043FF2321524805F0A9FC706C4E4907F0B0
:104CE000E7FA06F03BFE009502460B46444805F005
:104CF0008BFF0221494805F099FC414805F02CFF43
:104D00001921484805F092FC306C06F027FE022578
:104D10000B46024600953A4805F076FF2946424880
:104D200005F084FC364805F017FF22213F4805F0C6
:104D30007DFCB18E324805F05FFF03213C4805F051
:104D400075FC2F4805F008FF0723236077E505F081
:104D500007FC05F041FC05460028F8D12848294EFB
:104D600005F0FAFE264805F0F7FE254805F0F4FEAA
:104D7000234805F0F1FE224805F0EEFE15212D48EE
:104D800005F054FC1E4805F0E7FE18212A4805F0FE
:104D90004DFC2B460A2296F84810194805F0ECFE07
:104DA000174805F0D9FE2821244805F03FFCF06C97
:104DB000194907F07DFA06F0D1FD00950B46024631
:104DC0000F4805F021FF0221144805F02FFC0C4884
:104DD00005F0C2FE18211A4805F028FCB6F9CC10DF
:104DE000074805F009FF064805F0B6FE13211548EF
:104DF00005F01CFC024805F0AFFE082323601EE509
:104E0000D487FF1F08CEFF1F6F12833AFC93FF1F4A
:104E1000E81401000815010000007A445013010055
:104E2000281501004C150100681501006C150100E2
:104E300090150100681701000813010024130100F8
:104E4000541301007013010005F08AFB05F0C4FB48
:104E500005460028F8D17F487F4E05F07DFE7D484D
:104E600005F07AFE7B4805F077FE7A4805F074FE7F
:104E7000784805F071FE1121784805F0D7FB754898
:104E800005F06AFE2821764805F0D0FBB069754927
:104E900007F00EFA06F062FD009502460B466D48DB
:104EA00005F0B2FE0221704805F0C0FB694805F02C
:104EB00053FE16216D4805F0B9FB306A694907F0C9
:104EC000F7F906F04BFD00950B460246614805F0E8
:104ED0009BFE0221644805F0A9FB5E4805F03CFEFC
:104EE000D6F8B830002B32DD1D21614805F09EFB5D
:104EF000706E07F089F95F4907F0DAF906F02EFDC8
:104F0000022502460B460095524805F07DFE012120
:104F1000594805F08BFB4F4805F01EFE1F215748EE
:104F200005F084FBB06E07F06FF9524907F0C0F945
:104F300006F014FD009502460B46464805F064FE57
:104F400001214D4805F072FB424805F005FE112194
:104F50004B4805F06BFBD6F8B830062B00F2D9872A
:104F6000DFE813F00E081308D307270822081D08EE
:104F7000180805F0F5FA05F02FFB0028F9D135489F
:104F8000354E05F0E9FD334805F0E6FD314805F002
:104F9000E3FD304805F0E0FD2E4805F0DDFD1F2162
:104FA000384805F043FB2B4805F0D6FD1E21364856
:104FB00005F03CFB274805F0CFFD1A21334805F0EA
:104FC00035FBD6F88430022B01F09580032B01F0DD
:104FD0008980012B01F07D8009212D4805F026FBF9
:104FE0001C4805F0B9FD14212A481B4F05F01EFB93
:104FF000D6F88010174805F0FFFD164805F0ACFD07
:105000001C21254805F012FBD6F88810114805F040
:10501000F3FD104805F0A0FD1C21204805F006FB1B
:10502000D6F8B4100B4805F0E7FD0A4805F094FDEA
:10503000D6F8845025F00205012D01F011801321CE
:10504000174805F0F3FA034805F086FD02232360B4
:10505000FFF7F5BBD487FF1F08CEFF1F0C17010019
:105060008413010000007A4450130100B0130100C2
:10507000C8130100CDCCCC3D281A0100E813010073
:1050800008140100E818010008190100281901009E
:10509000A0190100AC190100C4190100E4190100B4
:1050A0007013010005F05CFA05F096FA0028F9D1BA
:1050B000BE48BF4D05F050FDBC4805F04DFDBB4856
:1050C00005F04AFDB94805F047FDB84805F044FD34
:1050D0001321B84805F0AAFAB44805F03DFD0D21AA
:1050E000B54805F0A3FAB14805F036FD0F21B348E5
:1050F00005F09CFAB24BAD48196805F07DFDAB4850
:1051000005F02AFD1321AF4805F090FAAE4BA748F1
:10511000196805F071FDA54805F01EFD1221AB4888
:1051200005F084FAAA4BA148196805F065FD9F486F
:1051300005F012FD1121A74805F078FAA64B9B480F
:10514000196805F059FD994805F006FD0E21A348A0
:1051500005F06CFAD5F8A810944805F04DFD934879
:1051600005F0FAFC19219E4805F060FA9D4B8F4826
:10517000196805F041FD8D4805F0EEFC11219A48B3
:1051800005F054FA994B8948196805F035FD8748B0
:1051900005F0E2FC1021964805F048FA954B83484B
:1051A000196805F029FD814805F0D6FC1C219248BC
:1051B00005F03CFA914B7D48196805F01DFD7B48D0
:1051C00005F0CAFC16218E4805F030FAB5F8A41097
:1051D000764805F011FD1E218A4805F027FA73482C
:1051E00005F0BAFC1721884805F020FA6F4805F051
:1051F000B3FC1321854805F019FA6C4805F0ACFCA6
:1052000004232360FFF71BBB05F0E6F900287FF7B6
:10521000A7AB6648664E05F031FE744BC6F8B00089
:1052200003221A60FCF78CFC01226B2322602B60A6
:1052300001E005F095F905F0CFF90028F9D15B48B8
:105240005B4D05F089FC594805F086FC574805F090
:1052500083FC564805F080FC544805F07DFC212174
:105260006B4805F0E3F9514805F076FC15216948D3
:1052700005F0DCF9D6F88C104C4805F0BDFC022195
:10528000654805F0D3F9494805F066FC1E216348DE
:1052900005F0CCF9D6F89410444805F0ADFC032194
:1052A0005F4805F0C3F9414805F056FC1E215D48F2
:1052B00005F0BCF9D6F890103C4805F09DFC3B4841
:1052C00005F04AFC1D21584805F0B0F9D6F8AC109D
:1052D000364805F091FC354805F03EFC1E21534848
:1052E00005F0A4F9D6F8B010304805F085FC2F4839
:1052F00005F032FCD6F8A830012B00F01B870523FF
:105300002360FFF79CBA2A4E96F8C930B3FA83F3AC
:105310005B0901216B2286F8C93021602A608AE787
:1053200005F05AF900287FF71BAB2048204E05F006
:10533000A5FD01226B23C6F88C0022602B607AE762
:1053400005F04AF900287FF70BAB1848184E05F016
:1053500095FD01226B23C6F8940022602B606AE75A
:1053600005F03AF900287FF7FBAA1048104E05F027
:1053700085FD01226B23C6F8900022602B605AE75E
:1053800005F02AF900287FF7EBAA0848084E05F037
:1053900075FD164BC6F8AC00022242E71349002304
:1053A00073220B6023602A60FFF781B8D487FF1F48
:1053B00008CEFF1FB4170100C8170100D81701005D
:1053C0005CCFFF1FE8170100ECCDFF1FFC170100A9
:1053D00020CFFF1F1018010000CEFF1F241801006E
:1053E000341801005C92FF1F501801008092FF1FCB
:1053F000641801004C92FF1F781801004087FF1FBE
:1054000098180100B0180100D018010070130100B5
:1054100094150100B81501009C140100D01501007D
:1054200028100100F01501001016010030160100CF
:1054300005F0D2F800287FF705AAAE48AE4E05F079
:105440001DFD06F0E1FEAD4906F0E6FF65230122F1
:10545000B06122602B601846FEF7F3BF05F0BCF880
:1054600000287FF7EFA9A348A34E05F007FD06F03B
:10547000CBFEA24906F0D0FF6523012230622260F4
:105480002B601846FEF7DDBF05F0A6F800287FF771
:10549000D9A99848984E05F0F1FC00EB8000430034
:1054A00001226520B36622602860FEF7CABF924AD7
:1054B000D2F8B8300133062BC8BF0023C2F8B83089
:1054C0000123652023602860FEF7BBBF05F084F848
:1054D00000287FF7B7A98748874E05F0CFFC6523E2
:1054E0000122C6F8BC0022602B601846FEF7A9BF57
:1054F000814B93F8C820002A00F0A585002283F88C
:10550000C820DDE705F068F800287FF79BA97948F7
:10551000794E05F0B3FC00EB8000430001226520CA
:10552000736622602860FEF78CBF7248724E05F0E9
:10553000A5FC07B23B46F26C96F848107048A6F8F6
:10554000CC70FFF767BB6C4AD2F884300133032B71
:10555000C8BF0023C2F88430012363202360286081
:10556000FEF76FBF644ED6F88030B3FA83F35B0961
:1055700001226320C6F8803022602860FEF761BFF8
:105580005D4ED6F88830B3FA83F35B0901226320BD
:10559000C6F8883022602860FEF753BF01232360DD
:1055A00005F01AF80028D7DD5248534E05F066FC86
:1055B000C6F8B400D0E70123236005F00DF80028F9
:1055C00007DD4C484C4E05F059FC06F01DFEC6F8B0
:1055D0009C00632028602368FEF711BFFDF706FBDF
:1055E00023682868FEF709BF0123236004F0F4FF55
:1055F0000028EEDD3F48404E05F040FC06F004FE7A
:10560000C6F89800E5E70123236004F0E5FF0028D1
:10561000DFDD3848384E05F031FCA6F8C200D8E787
:10562000354E96F84800FFF714BB364A364F1368DC
:10563000002B0CBF012100214FF0010311602360FA
:1056400040F0628564222A60082B4FF064007EF4EB
:10565000D6AEFEF71DBF2D4A1368B3FA83F35B097C
:1056600001216420136021602860FEF7EABE224E0B
:10567000D6F8A830B3FA83F35B0901226420C6F898
:10568000A83022602860FEF7DCBE01231C4823609E
:10569000FBF7DAF91E4A23681060D3E71D4ADBE7FF
:1056A0001D4AD9E70123236004F096FF002800F388
:1056B000CF841A4B1A68042A01DD02221A6064237F
:1056C0002B602368C0E70123236004F085FF0028D6
:1056D000F5DD0848084E05F0D1FBA6F8A400EEE77A
:1056E0000F4AB9E70F4AB7E701232360FEF766FDCB
:1056F000E5E700BFD487FF1F08CEFF1F00007A44F4
:10570000FC93FF1F20CFFF1F68CFFF1F00CEFF1F9E
:105710005C92FF1F8092FF1F4C92FF1F4087FF1F6C
:105720005CCFFF1FECCDFF1F04F056FF00280DDDFE
:105730001848194E05F0A2FB06F066FD174906F061
:105740006BFE01226223706222602B6004F044FF32
:1057500000280EDD0F48104E05F090FB06F054FDBA
:105760000E4906F059FE01226223C6F8C4002260E9
:105770002B6004F031FF002840F335840548064EC5
:1057800005F07CFB06F040FD01226223F0632260FD
:105790002B6007E0D487FF1F08CEFF1F00007A446C
:1057A00004F0DEFE04F018FF05460028F8D1C348D7
:1057B000DFF8788305F0D0F9C04805F0CDF9BF488F
:1057C00005F0CAF9BD4805F0C7F9BC4805F0C4F9B1
:1057D0001521BB4804F02AFFB84805F0BDF9142193
:1057E000B84804F023FFB54805F0B6F91B21B648C8
:1057F00004F01CFFB14805F0AFF91321B34804F0E1
:1058000015FFAE4805F0A8F9AC4805F0A5F9AB487E
:1058100005F0A2F92021AE4804F008FFF068AD4978
:1058200006F046FD06F09AF8009502460B46A3489E
:1058300005F0EAF90221A84804F0F8FE0221A74881
:1058400004F0F4FE9D4805F087F92121A44804F0F6
:10585000EDFE30699F4906F02BFD06F07FF80095BC
:1058600002460B46954805F0CFF902219A4804F00C
:10587000DDFE0221994804F0D9FE904805F06CF94C
:105880001F21984804F0D2FEF06A06F067F802275C
:1058900002460B460097894805F0B6F90121924867
:1058A00004F0C4FE39468D4804F0C0FE834805F07C
:1058B00053F920218D4804F0B9FE306B06F04EF804
:1058C000009702460B467D4805F09EF90121864867
:1058D00004F0ACFE3946814804F0A8FE774805F094
:1058E0003BF92321824804F0A1FE306D794906F08E
:1058F000DFFC06F033F8009502460B466F4805F0D2
:1059000083F93946744804F091FE3946734804F02F
:105910008DFE6A4805F020F91F21764804F086FEC6
:10592000706D6C4906F0C4FC06F018F8009502464C
:105930000B46624805F068F93946674804F076FE80
:105940003946664804F072FE5C4805F005F91921F5
:10595000694804F06BFE316E584805F04DF9394640
:10596000664804F063FE39465C4804F05FFE534825
:1059700005F0F2F81821624804F058FEF06E06F0C7
:1059800043FC604906F094FC05F0E8FF00970246EE
:105990000B464A4805F038F901215B4804F046FE01
:1059A00039464E4804F042FE444805F0D5F82B2114
:1059B000564804F03BFEF069464906F079FC05F0D4
:1059C000CDFF009502460B463C4805F01DF93946CF
:1059D000414804F02BFE3946404804F027FE374882
:1059E00005F0BAF81F214A4804F020FEF16D334853
:1059F00005F002F93946394804F018FE2F4805F041
:105A0000ABF82021434804F011FEB16D2B4805F09E
:105A1000F3F83946314804F009FE284805F09CF8AF
:105A200010213D4804F002FE316F244805F0E4F8EF
:105A30003946294804F0FAFD3946284804F0F6FDB5
:105A40001E4805F089F81321344804F0EFFD716F0A
:105A50001A4805F0D1F80121314804F0E7FD394634
:105A60001E4804F0E3FD154805F076F810212D4896
:105A700004F0DCFDB16F114805F0BEF83946164858
:105A800004F0D4FD3946154804F0D0FD0B4805F06C
:105A900063F81421244804F0C9FDF16F074805F0AC
:105AA000ABF801211E4804F0C1FD39460B4804F053
:105AB000BDFD024805F050F8162139E0D487FF1FDC
:105AC000701A0100881A0100A01A01007013010069
:105AD000BC1A010000007A4450130100E0110100DB
