:1000000000800020BD010000C97C0000817C000050
:10001000817C0000817C0000817C0000817C0000EC
:10002000817C0000817C0000817C0000C97C000094
:10003000C97C0000817C0000FD9B0000019D000048
:10004000C97C0000C97C0000C97C0000C97C00009C
:10005000C97C0000C97C0000C97C0000C97C00008C
:10006000C97C0000C97C0000C97C0000C97C00007C
:10007000C97C0000C97C0000C97C0000C97C00006C
:10008000C97C0000C97C0000C97C0000C97C00005C
:10009000C97C0000C97C0000C97C0000C97C00004C
:1000A000C97C0000C97C0000C97C0000C97C00003C
:1000B000C97C00009D700000A9700000AD700000B8
:1000C000B9700000BD700000C1700000C97C000064
:1000D000C97C0000C97C0000C97C0000C97C00000C
:1000E000C97C0000C97C0000C97C0000C97C0000FC
:1000F000C97C00000DA40000C97C000065890000D7
:10010000C97C00007D8C0000C97C0000C97C000017
:10011000C97C0000C97C0000C97C0000C97C0000CB
:10012000C97C0000C97C0000C97C0000C97C0000BB
:10013000C97C0000C97C0000C97C0000C97C0000AB
:10014000C97C0000C97C0000C97C0000C97C00009B
:10015000C97C0000C97C0000C97C0000C97C00008B
:10016000C97C0000C98E0000C97C0000C97C000069
:10017000C97C0000C97C0000C97C0000C97C00006B
:10018000C97C0000C97C0000C97C0000C97C00005B
:10019000C97C0000C97C0000C97C0000C97C00004B
:1001A000C97C0000C97C0000C97C0000C97C00003B
:1001B000C97C0000C97C0000C97C0000564B4CF291
:1001C000205210B51A804DF628121A8000BF00BFC9
:1001D00007F07EFD514B4FF010621A60504A9A6052
:1001E000504ADA60504A136813F4807304D14F49BF
:1001F0000B604FF4A85313604D4B1A78110703D5C9
:100200001A7842F008021A704A4B4B492A221A7097
:100210004A4A4B4B8B4204D252F8040F43F8040B6A
:10022000F8E7484B484900228B4202D243F8042B9E
:10023000FAE74649464A002352F8230041F82300D2
:1002400001336F2BF8D1434B434A802103F8011B44
:100250009342FBD1414B3D4A1A60414B8A221A70AE
:10026000A3F5805324225A70A0221A709A7992071B
:10027000FCD59A79D406FCD43A4A937903F00C035E
:10028000082B384BF9D103221A7140225A719A79FE
:100290009006FCD5334A9179324B4906FBD5324A58
:1002A000324911600221516020221A709A7902F0BD
:1002B0000C020C2AFAD12E4B2E4A1A602E4B2F4AD2
:1002C0001A6000225A60072243F8042C2C4AC3F813
:1002D0000C2D62B607F0B2FF144B1B68DA0705D588
:1002E000284807F08FFD284B284A1A60284B1B78B6
:1002F0005B0609D5244C254B22689A4204D121483B
:1003000007F080FD002323600CF084FB07F0E6FC7F
:1003100009F03CFFFEE700BF0E200540308004409E
:10032000823F04000100002B10D0034014D0034092
:1003300002D0074000E007404092FF1F7C250100EB
:100340002087FF1F4092FF1F04CFFF1F0082FF1F67
:100350000000000000E400E05FE400E008ED00E0E1
:100360000050064000400640448004400000030165
:1003700004800440C010050014E000E0FF76010096
:1003800000002020251D575C1CE00340A5C3945AA3
:1003900000F00740FFFFFFFFFFFFFFFFFFFFFFFF32
:1003A000FFFFFFFFFFFFFFFFFFFFFFFFFFFFFFFF5D
:1003B000FFFFFFFFFFFFFFFFFFFFFFFFFFFFFFFF4D
:1003C000FFFFFFFFFFFFFFFFFFFFFFFFFFFFFFFF3D
:1003D000FFFFFFFFFFFFFFFFFFFFFFFFFFFFFFFF2D
:1003E000FFFFFFFFFFFFFFFFFFFFFFFFFFFFFFFF1D
:1003F000FFFFFFFFFFFFFFFFFFFFFFFFFFFFFFFF0D
:10040000FFFFFFFFFFFFFFFFFFFFFFFFDEF9FFFF23
:1004100010B5054C237833B9044B13B10448AFF33E
:1004200000800123237010BD4092FF1F00000000D8
:1004300078250100084B10B51BB108490848AFF3F7
:1004400000800848036803B910BD074B002BFBD0A0
:10045000BDE81040184700BF000000004492FF1F95
:10046000782501004092FF1F00000000F0B400F169
:100470002C06144F00243146031F00F15C0243F8A0
:10048000044FB34241F8047F4FF0000542F8044F97
:10049000F5D10D4A0D49C0F890500023C0F8945092
:1004A000C0F89850C0F89C50C0F8AC50C0F8A020DC
:1004B000C0F8A820C0F8A41080F8B43080F8CC3080
:1004C000F0BC70470000A040000048430000C8C2D4
:1004D00001392DE9F84381461546032900F2BA8017
:1004E000DFE801F095714D02137A507A03EB00209A
:1004F0000CF014F858490CF019F9C9F82400AB7A3B
:10050000E87A03EB00200CF009F853490CF00EF9DF
:10051000C9F828002B7B687B03EB00200BF0FEFF63
:100520004D490CF003F9D9F80040C9F82C0009F145
:100530003006C84609F16005002701E058F8044F6D
:10054000306821460CF0FAF90137214628B1D9F874
:10055000B0000CF0DFF900B13460214628680CF0DF
:10056000CFF904363D4920B120460CF0E7F900B13F
:100570002C600C2F05F10405E0D1BDE8F883137A57
:10058000507A03EB00200BF0C9FF33490CF0CEF892
:10059000C9F81800AB7AE87A03EB00200BF0BEFF35
:1005A0002D490CF0C3F8C9F81C002B7B687B03EBCA
:1005B00000200BF0B3FF28490CF0B8F8D9F8004040
:1005C000C9F82000B3E7137A507A03EB00200BF050
:1005D000A5FF21490CF0AAF8C9F80C00AB7AE87A1B
:1005E00003EB00200BF09AFF1B490CF09FF8C9F8B1
:1005F00010002B7B687B03EB00200BF08FFF16496C
:100600000CF094F8D9F80040C9F814008FE7137A79
:10061000507A03EB00200BF081FF0F490CF086F8B5
:10062000C9F80000AB7A0446E87A03EB00200BF02F
:1006300075FF09490CF07AF8C9F804002B7B687B38
:1006400003EB00200BF06AFF03490CF06FF8C9F8C8
:1006500008006CE704686AE700007A440000A040E4
:100660002DE9F04190F8CC4084B0202364008DF84F
:100670000530E4B2042380468DF804408DF806303E
:100680000327204608F096FA02210DF1050008F034
:100690009BFA8DF8044005F07BFE30B309214048F9
:1006A00009F046F90023102221463E4809F0E6FBF6
:1006B00001213D4809F03CF9002310229DF8051066
:1006C000384809F0DBFB0121374809F031F90023F4
:1006D00010229DF80610334809F0D0FB0121324862
:1006E00009F026F92F4809F0B9FB02208DF80440E3
:1006F00007F056FD05F04CFE00284CD102AE002458
:1007000008F078FA70B3072C1FD101E008F082FAE4
:1007100008F070FA0028F9D105F03AFE10B121482E
:1007200009F09CFB9DF80B009DF80C109DF80D2026
:100730009DF80E30C8F8B800C8F8BC10C8F8C02042
:10074000C8F8C43004B0BDE8F08108F063FA05468B
:1007500006F8010B05F01CFE70B9013408F04AFAE6
:100760000028D0D1072CD3D005F012FE78B9013F74
:10077000D8D09DF8044084E7E9B20023102209484C
:1007800009F07CFB0121084809F0D2F8E5E70548AB
:1007900009F064FBEBE70721044809F0C9F8ADE76D
:1007A000D80B0100E487FF1FAC120100E40B01002D
:1007B00090F8BC00704700BF90F8B800704700BFC9
:1007C00090F8C000704700BF90F8C400704700BFA9
:1007D0000C2994BF50F82100002070472DE9F0410A
:1007E0000B4E8046041F00F12C0754F8045F31467D
:1007F00028460CF085F830B1D8F8B01028460CF037
:100800009DF800B12E46BC42EFD13046BDE8F081E4
:10081000000020412DE9F041D0F8B0704FF0000801
:10082000041F00F12C0654F8045F394628460CF0EA
:1008300085F8084948B128460CF062F8414620B1D5
:1008400028460CF07BF800B1A846B442EBD14046F4
:10085000BDE8F0810000A0402DE9F047D0F8B0706D
:1008600082464FF00009041F00F12C064FF00008EB
:1008700054F8045F394628460CF060F80C4950B132
:1008800028460CF03DF830B1484629460BF092FD61
:1008900008F101088146B442EAD1CAF8D080404646
:1008A0000BF03CFE014648460BF040FFBDE8F087E8
:1008B0000000A040D0F8D000704700BF38B5D0F895
:1008C0009840D0F89450214628460CF019F800B909
:1008D0002C46204638BD00BFD0F8C8302DE9F04185
:1008E000002B7CD1D0F89860D0F894500446314663
:1008F00028460BF05FFDD4F89C70394680460BF01B
:1009000059FD7F490BF012FF4FF07C5104460CF06B
:1009100015F8002861D04FF07C5128460CF00EF8F5
:100920004FF07C51002861D128460BF0E9FF38B127
:100930004FF07C5130460CF001F8002840F0A880C0
:100940004FF07C5128460BF0F9FF002861D14FF0A1
:100950007C5128460BF0F2FF002840F0A2804FF0B7
:100960007C5128460BF0EAFF00286DD14FF07C51F6
:1009700028460BF0C5FF4FF07C5110B330460BF00A
:10098000DDFF38B14FF07C5138460BF0B9FF00283D
:1009900040F0B1804FF07C5130460BF0B1FF0028A1
:1009A00062D04FF07C5138460BF0C8FF002840F071
:1009B000A48038464FF07C510BF0A2FF68B1514C37
:1009C00011E028460BF09CFF0028E3D128464FF0A9
:1009D0007C510BF095FF002846D1BDE8F08100EB7B
:1009E0008300D0F890402046BDE8F08130460BF0FF
:1009F000A5FF4FF07C5100283ED038460BF09EFFFB
:100A00000028F0D14FF07C5128460BF079FF0028E8
:100A100059D14FF07C5130460BF072FF002840D086
:100A20004FF07C5138460BF089FF002841D14FF040
:100A30007C5130460BF082FF68B14FF07C51384654
:100A40000BF05EFF00284FD14FF07C5130460BF089
:100A500057FF00288AD04FF07C5138460BF050FFEA
:100A6000002883D02C46BEE730464FF07C510BF077
:100A700047FF0028B1D09CE728460BF041FF002833
:100A8000C7D04FF07C5130460BF058FF0028C0D043
:100A90004FF07C5138460BF051FF00283FF450AF27
:100AA00018E04FF07C5130460BF048FF0028CBD0C7
:100AB000C3E7394628460BF07DFC4FF07C510BF024
:100AC00081FD04468FE74FF07C5138460BF036FF2E
:100AD00000289ED0394630460BF06CFC4FF07C511C
:100AE0000BF070FD04467EE740464FF07C510BF062
:100AF00069FD044677E7344675E73C4673E700BF77
:100B0000000040400000A0C270B50446FFF7E4FEBC
:100B10004FF07C510BF012FF40B3D4F894604FF0CB
:100B20007C5130460BF00AFFD4F89850F8B9D4F84D
:100B30009C404FF07C5128460BF000FF58B12946ED
:100B400030460BF0FBFE30B1214628460BF0D8FEB4
:100B500008B12C4621E04FF07C5120460BF0EEFE10
:100B600020B1284621460BF0E9FE80B970BD304621
:100B700029460BF0C5FED4F89C400028D9D0304659
:100B800021460BF0BDFE0028D3D0344605E03046A8
:100B900021460BF0D3FE0028E8D0204670BD00BFF0
:100BA0002DE9F04F90F8CC3091B007465B008DF8FE
:100BB0000830FFF755FDD7F8C000D7F8C440D7F884
:100BC000BC30D7F8B82097F8CC108DE81100C94890
:100BD00005F0E4FC30223D2303268DF809208DF832
:100BE0000A300DF10A059DF8089049F001084046C9
:100BF00007F0E0FF0DF10900022107F0E5FF8DF895
:100C00000880424602AB00205040082410F0800FBC
:100C10004FEA400018BF80F00700013CC0B2F5D198
:100C20009D4202D013F8012FEEE707F0C3FF05F055
:100C3000AFFB002840F07C8202208DF8089007F07E
:100C4000AFFA05F0A5FB002840F0B8820DF10C0AC0
:100C5000D146002407F0CEFF002843D0032C34D126
:100C600001E007F0D7FF07F0C5FF0028F9D105F034
:100C70008FFB10B1A04809F0F1F8312303268DF85D
:100C800009308DF80A609DF8089049F00108404647
:100C900007F090FF0DF10900022107F095FF8DF894
:100CA0000880424602AB00205040082410F0800F1C
:100CB0004FEA400018BF80F00700013CC0B2F5D1F8
:100CC0009D4228D013F8012FEEE707F0A3FF09F8A3
:100CD000010B804605F05CFB68B9013407F08AFF20
:100CE0000028BBD1032CBED005F052FB78B9013EE1
:100CF0007FF479AFC1E75FFA88F1002310227E48C4
:100D000009F0BCF801217D4808F012FEE5E77A48B9
:100D100009F0A4F8EBE707F04DFF05F039FB0028D8
:100D200040F0C58102208DF8089007F039FA05F0EF
:100D30002FFB002840F03D820DF10C09002407F044
:100D400059FF002844D0032C35D101E007F062FFA1
:100D500007F050FF0028F9D105F01AFB10B16648E2
:100D600009F07CF8342201238DF809208DF80A302F
:100D700003269DF8089049F00108404607F01AFF45
:100D80000DF10900022107F01FFF8DF8088042468F
:100D900002AB00205040082410F0800F4FEA4000C2
:100DA00018BF80F00700013CC0B2F5D19D4228D0A9
:100DB00013F8012FEEE707F02DFF09F8010B80462D
:100DC00005F0E6FA68B9013407F014FF0028BAD13B
:100DD000032CBDD005F0DCFA78B9013E7FF453AFA7
:100DE000C0E75FFA88F100231022434809F046F873
:100DF0000121424808F09CFDE5E73F4809F02EF844
:100E0000EBE707F0D7FE05F0C3FA002840F00E81AB
:100E100002208DF8089007F0C3F905F0B9FA002810
:100E200040F0D6810DF10C09002407F0E3FE002804
:100E300000F08480032C72D101E007F0EBFE07F094
:100E4000D9FE0028F9D105F0A3FA10B12A4809F01B
:100E500005F8012212238DF809208DF80A304FF091
:100E600003089DF80840204607F0A4FE02210DF17A
:100E7000090007F0A9FE8DF8084005F089FA30B3A3
:100E800009211F4808F054FD0023102221461A486A
:100E900008F0F4FF0121194808F04AFD0023102250
:100EA0009DF80910144808F0E9FF0121134808F0E3
:100EB0003FFD002310229DF80A100F4808F0DEFFC6
:100EC00001210E4808F034FD0B4808F0C7FF06204A
:100ED0008DF8084007F064F905F05AFA002840F050
:100EE000728103AD002607F085FE00283FD0162E44
:100EF0002FD109E0EC0B0100E487FF1FAC120100C9
:100F0000D80B010007F086FE07F074FE0028F9D127
:100F100005F03EFA162600287DD1152035E007F0B1
:100F200079FE09F8010B804605F032FA00285BD102
:100F3000013407F05FFE00287FF47CAF032C3FF400
:100F40007EAF05F025FA00286CD1013E7FF411AF89
:100F50007FE707F05FFE05F8010B044605F018FA7D
:100F600000284DD1013607F045FE0028BFD1162ECE
:100F7000CAD005F00DFA00284DD1B8F101087FF470
:100F800070AF701E002840F32A82002303AA1C467B
:100F900012F8011B08254C4014F0800F4FEA44045E
:100FA00018BF84F00704013DE4B2F5D10133834258
:100FB000EEDB9DF8218089484146224605F0EEFA95
:100FC000162EC146A34602D1A04500F0138197F822
:100FD000CC108348CDF800B04B46324605F00CFBF0
:100FE000002011B0BDE8F08F5FFA88F100231022D5
:100FF0007C4808F043FF01217B4808F099FC97E703
:10100000E1B200231022774808F038FF012176482A
:1010100008F08EFCA6E7734808F020FF162EACD12E
:101020001520B2E76F4808F019FF8EE709216F48D5
:1010300008F07EFC2346102241466A4808F01EFF55
:101040000121694808F074FC234610229DF809101C
:10105000644808F013FF0121634808F069FC10227E
:1010600023469DF80A105F4808F008FF01215E48FA
:1010700008F05EFC21460DF10B0002AA12F8014BAC
:101080006140C9B2082311F0800F4FEA410118BF37
:1010900081F00701013BC9B2F5D19042EED1102297
:1010A000504808F0EBFE4F4808F0D8FEB0E60921A2
:1010B0004E4808F03DFC234610224146494808F0BE
:1010C000DDFE0121484808F033FC234610229DF83C
:1010D0000910444808F0D2FE0121434808F028FCDA
:1010E000102223469DF80A103E4808F0C7FE012151
:1010F0003D4808F01DFC21460DF10B0002AA12F834
:10110000014B6140C9B2082311F0800F4FEA410141
:1011100018BF81F00701013BC9B2F5D19042EED171
:101120001022304808F0AAFE2E4808F097FEF9E594
:1011300009212E4808F0FCFB23461022414629488D
:1011400008F09CFE0121284808F0F2FB23461022FB
:101150009DF80910234808F091FE0121224808F06B
:10116000E7FB102223469DF80A101E4808F086FE71
:1011700001211D4808F0DCFB21460DF10B0002AAFD
:1011800012F8014B6140C9B2082311F0800F4FEAF9
:10119000410118BF81F00701013BC9B2F5D190426E
:1011A000EED110220F4808F069FE0E4808F056FEF6
:1011B00042E507210E4808F0BBFBBDE507210C48BE
:1011C00008F0B6FB42E50721094808F0B1FB88E6C4
:1011D0000721074808F0ACFB24E600BF200C010003
:1011E0006C0C0100E487FF1FAC120100D80B01005A
:1011F000E40B01009DF80C3097F8CC20B3EB420FC4
:101200007FF4EEAE9DF80D30012B7FF4E9AE9DF832
:101210000E30122B7FF4E4AE9DF810309DF80F00D5
:1012200003EB00200BF07AF975490BF0CBF9D7F8F6
:10123000AC10C7F8900004460BF080FB08B1C7F86B
:10124000AC40D7F8A81020460BF05AFB08B1C7F8FD
:10125000A840A7F1040907F1300607F160054FF037
:101260000C089AF806309AF8050003EB00200BF002
:1012700055F964490BF0A6F949F8040F31680446A2
:101280000BF03EFB0AF1020A30B1D7F8B01020464D
:101290000BF04AFB00B13460296820460BF04EFB8E
:1012A000043600B12C60B8F1010805F10405D8D16D
:1012B0009DF81E309DF81D0003EB002002300BF05E
:1012C0002DF951490BF032FA014650480BF02EFA35
:1012D0004F490BF06DF84F490BF074F9054609F0D2
:1012E000DFF90446284609F0DBF94B4909F04AFAD0
:1012F0004A49054620460BF065F949490BF05AF872
:101300004849044628460BF05DF9014620460BF09B
:1013100051F801464FF07E500BF008FA42490BF0AD
:1013200047F89DF81F209DF82030C7F8940003EB84
:10133000022009300BF0F2F83C490BF0F7F90146B6
:1013400032480BF0F3F932490BF032F831490BF027
:1013500039F9054609F0A4F90446284609F0A0F930
:101360002D4909F00FFA2D49054620460BF02AF9C0
:101370002B490BF01FF82B49044628460BF022F9A5
:10138000014620460BF016F801464FF07E500BF058
:10139000CDF925490BF00CF8C7F8980004463846FB
:1013A000FFF7B2FBD7F8A01005460BF0A9FA08B179
:1013B000C7F8A050D7F89450204629460BF0BEFA43
:1013C000B0B92946D7F8A4000BF09AFA10B12C4610
:1013D000C7F8A440164805F0E1F8012001E69DF8A1
:1013E0002190144849464246C34605F0D7F8EEE539
:1013F000D7F8A41020460BF0A1FA0028E8D1E9E7BD
:101400001357053B2003C839001601470AD7E33FAD
:10141000E17A644000007A4400004040A40D8F3916
:101420005A80473A46A6DB3333938843002C014762
:10143000440C0100200C01002DE9F8430026D0F8EF
:10144000B080C0F890608146041F00F12C0754F86A
:10145000045F414628460BF071FA094950B128460D
:101460000BF04EFA30B1304629460AF0A3FF06468B
:10147000C9F89000BC42EAD13046BDE8F88300BF0D
:101480000000A04002299ABF00EB8100D0F8940030
:10149000002070473E2998BF80F8CC10704700BFED
:1014A00090F8B400704700BFC0F8C810704700BF84
:1014B00080F8B410704700BF30B50F4CC0F8B010C2
:1014C00083B020460D4608F0C9FC204608F0C6FC53
:1014D00028460AF0CDFB022502460B460095204621
:1014E00008F016FD204608F0B9FC204603B0BDE820
:1014F000304008F0B3BC00BFE487FF1F70B500F5B3
:1015000055550646103500F128042046D834FEF71C
:10151000ADFFAC42F9D106F58075012428460021C3
:10152000FFF7C6FF214628460134FFF7B3FF3F2CE3
:1015300005F1D805F2D143F2585400250548064A72
:10154000064B3555002130617161B261F36130465F
:1015500070BD00BF00007A44000048430000C8C2CC
:101560002DE9F04143F25C5300F555563746002211
:101570008046C25010361C3700F5807402E0D83423
:10158000B4420DD02046FFF78BFF0028F7D020464D
:101590003D68FFF78FF9D8342844B4423860F1D160
:1015A00043F25C5358F80300BDE8F0812DE9F041A7
:1015B0000E46096801F00F04B1F5807F074690469A
:1015C00004F1010401F0F0053AD0302D36D02CDDC5
:1015D000402D13D0502D2CD10425072C12D9D823FF
:1015E00003FB0474283420460121FFF761FF3246D3
:1015F00029462046BDE8F041FEF76ABF072C4FF0B0
:101600000305ECD8B8F1010FE9D12146114808F0E3
:1016100075FC4146104808F08BF929460D4808F042
:101620006DFC0C4808F01AFCD9E7202D01D10125EA
:10163000D3E7072CD3D8042DD1DCE3E70225CCE790
:1016400000231022034808F019FC024808F006FCA9
:10165000BBE700BFE487FF1FC80C0100704700BF55
:10166000704700BF2DE9F043002383B006460360B6
:1016700000F58074012504E001353F2D04F1D80404
:1016800069D02046FFF70CFF0028F5D0504804F041
:1016900085FF29464F4804F081FF2046FFF780FA76
:1016A0002046FFF7C9FE0AF0E3FA02460B464A4815
:1016B00004F074FF2046FFF791F880462046FFF7BC
:1016C000A9F8074640460AF0D3FA804638468946CC
:1016D0000AF0CEFA42464B46CDE900013F4804F0FD
:1016E0005DFF00212046FFF7CDFE01218046204608
:1016F000FFF7C8FE074640460AF0BAFA8046384669
:1017000089460AF0B5FA42464B46CDE90001344815
:1017100004F044FF2046FFF78FFE014630680AF0D0
:1017200049FE30602046FFF7EFF9B1690BF0E8F8A9
:10173000002833D12046FFF7C1F8F1690BF0FEF81D
:10174000002899D02046FFF7B9F801353F2DF06108
:1017500004F1D80495D170680AF0E0FE01463068C3
:101760000AF0E4FF7169306004460BF0E7F800B15D
:101770007461316920460BF0C3F800B134610B206D
:1017800006F0D8FC43F25853F35C60B99BB143F2C6
:1017900058530122F25403B0BDE8F0832046FFF70E
:1017A000B3F9B061C6E753B943F258530022F2547B
:1017B00003B0BDE8F0830B4804F01EFFE7E70A48DA
:1017C00004F004FF43F258530022F254F0E700BF44
:1017D000B40E0100CC0C0100080D01001C0D01002D
:1017E000480D0100640D01009C0D010070B5114B06
:1017F000836000F555550646103500F5807402E00B
:10180000D834AC4213D02046FFF74AFE0028F7D068
:101810002046FEF7E3FFB1680BF072F80028EFD026
:101820002046FEF7DBFFD834AC42B060EBD1B068A5
:1018300070BD00BF0000A04070B5002300F55555F5
:101840000646C360103500F5807402E0D834AC421F
:1018500013D02046FFF724FE0028F7D02046FEF7DD
:10186000D9FFF1680BF06AF80028EFD02046FEF7A8
:10187000D1FFD834AC42F060EBD1F06870BD00BF4E
:101880000068704741607047F8B500F555550F4640
:101890001646103500F5807402E0D834AC420FD003
:1018A0002046FFF7FDFD0028F7D020463946FFF718
:1018B000FBFD20463146D834FFF7FEFDAC42EFD1A8
:1018C000F8BD00BF2DE9F84300F5555543F25453D8
:1018D0002E4600278046C7504FF0000910351436B9
:1018E00000F5807402E0D834A54213D02046FFF7FB
:1018F000D7FD0028F7D03368013333602046FEF768
:10190000EBFF1D490BF01AF888B9D834A54207F14E
:101910000107EBD143F2545358F80300C01B0AF0FF
:10192000FDFD014648460AF001FFBDE8F883204668
:10193000FEF7D2FF014648460AF03CFD81462046AC
:10194000FEF7CAFFD8F820100AF0F8FF70B9204659
:10195000FEF7C2FFD8F824100AF0D2FF0028C2D048
:101960002046FEF7B9FFC8F82400BCE72046FEF782
:10197000B3FFC8F82000EAE700008CC2006A704795
:10198000406A7047F8B500F55555074600261035F2
:1019900000F5807402E0D834AC420FD02046FFF747
:1019A0007FFD0028F7D02046FEF756FF014630465F
:1019B0000AF000FDD834AC420646EFD143F254534E
:1019C000F8580AF0ABFD014630460AF0AFFEF8BD0C
:1019D0002DE9F04F06468FB083488B4604F086FD14
:1019E000814804F083FD804804F080FD43F25453A5
:1019F0003046F2580D92FFF7B3FD73680C9307461B
:101A000030680AF035F9804630468946FFF7BAFF5C
:101A100082463046B468F568FFF754FF0AF028F9AB
:101A2000CDE90A01214628460AF0C2FC6F490AF0B6
:101A3000C9FD0AF01DF9CDE9080128460AF018F998
:101A4000CDE9060120460AF013F9CDE9040150461C
:101A50000AF00EF90D9A0C9BCDE90201CDE900893F
:101A6000114663483A4604F041FD5F4804F03EFDEC
:101A700006F580764FF001094FF0000A07E009F102
:101A80000109B9F13F0F06F1D80600F0A5803046F4
:101A9000FFF706FD0028F2D03046FEF789FE3046FB
:101AA000FEF78AFE3046FEF78BFE3046FEF78CFED0
:101AB0000821504807F03CFF49464F4808F01EFAFD
:101AC000B9F1090F40F38B8002214C4807F030FF39
:101AD0003046FFF7B1FC0AF0CBF85FFA8BF802460C
:101AE0000B46CDF80080444808F012FA0121444822
:101AF00007F01EFF5546002420E00621414807F06C
:101B000017FF29463C4808F0F9F902213E4807F042
:101B10000FFF21463046FEF75BFE0AF0A9F8CDF82C
:101B2000008002460B46344808F0F2F901340121E6
:101B3000334807F0FDFE0C2C09D03D46092D05F178
:101B40000107DADC0121314807F0F2FED5E72A4827
:101B500008F084F909212E4807F0EAFE00213046FA
:101B6000FFF790FC0AF084F8022402460B4600942A
:101B7000214808F0CDF90A21264807F0D9FE0121B5
:101B80003046FFF77FFC0AF073F8009402460B46DC
:101B9000194808F0BDF90A211F4807F0C9FE21467F
:101BA0003046FFF76FFC0AF063F8009402460B46DC
:101BB000114808F0ADF90121184807F0B9FE09F104
:101BC00001090D4808F04AF9B9F13F0F0AF10C0A72
:101BD00006F1D8067FF45BAF0FB0BDE8F08F0121AE
:101BE0000A4807F0A5FE6FE7B40E010000007A4432
:101BF0004C100100EC100100E487FF1F301E0100B3
:101C0000F8100100FC1001009C120100AC12010050
:101C100004110100101101001C1101002811010024
:101C20002DE9F04100F5807582B0012604E001360F
:101C30003F2E05F1D80549D02846FFF731FC002892
:101C4000F5D03146234808F059F90121224807F020
:101C50006FFE00244FF0020821462846FEF7B8FD2B
:101C60000AF006F8CDF8008002460B46194808F045
:101C70004FF901340121184807F05AFE062C4FF0A5
:101C80000207E9D100212846FFF7FCFB09F0F0FF2D
:101C9000009702460B460F4808F03AF901210E481A
:101CA00007F046FE01212846FFF7ECFB09F0E0FFB4
:101CB000009702460B46074808F02AF90136054806
:101CC00008F0CCF83F2E05F1D805B5D102B0BDE83B
:101CD000F08100BFE487FF1FC80C0100F8B53C4845
:101CE0003C4C3D4D3D4E04F001FC3D4B3D493E48D2
:101CF0003E4A5C6011271F703D4F3E4CD960186111
:101D000000213D485D615E623C4DDF624FF07C56D4
:101D10000C279A619C623A4A3A4C196358633A49D3
:101D20003A489D635E6440F61C450A261F65384F9D
:101D30009A64DC64022201241962C3F8BC00002109
:101D400032209D66DE6664254FF49676DF61DF63A0
:101D500041F204075A705A721C725C6583F8401095
:101D6000C3F89C0018665E66DE659D654FF05A0CF0
:101D70001F674FF47A7E9967DA67C3F88010C3F85B
:101D80008800C3F8A400234FC3F8A010224EC3F864
:101D9000AC4041F28831FF24C3F8B020052040F266
:101DA000D662C3F8B450C3F874C0C3F88CE0C3F86B
:101DB0009070C3F89460C3F8A840A3F8BA00C3F8C1
:101DC0008410A3F8B810A3F89820A3F89A20F8BDBF
:101DD0002C11010020A1070033338340CDCCCC3D32
:101DE0004493FF1F6666864000004040CDCC4C40C7
:101DF000000020C100008242000020420000A040FC
:101E00009A9979400AD7233D333373409A99993E82
:101E1000CDCC4C3E0000684200C02044F0B54FF4E9
:101E20007A6085B006F0BCF900210F2006F090F929
:101E300000210E2006F08CF90021112006F088F90F
:101E40000021102006F084F90021122006F080F90C
:101E50000021132006F07CF901210B2006F078F90F
:101E600001210C2006F074F90121142006F070F90C
:101E70000121152006F06CF90121162006F068F901
:101E80000121172006F064F90121052006F060F910
:101E9000974C984D0121062006F05AF901210D209A
:101EA00006F056F920880AF035FB0146162006F0A8
:101EB000B9F820880AF02EFB0146172006F0B2F888
:101EC00020880AF027FB0146052006F0ABF82088A1
:101ED0000AF020FB00240146062006F0A3F8009437
:101EE0002346854A8549864804F080FDE6B232469D
:101EF0008049834804F028FD2B797E4980486FF3A0
:101F00000003013432462B7104F014FD082CEDD18E
:101F10000924E6B232467749794804F015FD2B7959
:101F20007449774843F00103013432462B7104F0C1
:101F300001FD0D2CEDD1734C4FF0FF3220681021C4
:101F400005F020F920684FF0FF32102105F0F2F87B
:101F500020684FF0FF32022105F000F920684FF0B1
:101F6000FF32022105F004F900220F21206805F05C
:101F700013F90C21644807F0DBFC644807F06EFF9E
:101F80001121634807F0D4FC604807F067FF44F66E
:101F9000206006F0C3F95D4807F060FF17215D4837
:101FA00007F0C6FC594807F059FF5B4B1B789A06AF
:101FB00000F1D480584B1B781B0700F1DB80564B97
:101FC0001B785F0700F1E280534B1B789E0700F1FE
:101FD000E980524B1B781D0600F1F0804F4B1B78B7
:101FE0005C0600F1F7804D4B1B78980600F1FE80EF
:101FF0004A4B1B78590700F10581484B1B781A079B
:1020000000F10C81454B1B789B0700F113813F4881
:1020100007F024FF72B6424A4CF220534DF62811C5
:102020002024138023461180013BFDD13D4D3E48C5
:102030003E4900234FF480562E8003800B8032F8F7
:102040000E3C9BB243F0D30322F80E3C62B69D20B7
:1020500006F060FD21463648364D07F069FC2B48F6
:1020600007F0FCFE05F1C0062F462C46601B05F06C
:1020700075FD04F8010BB442F8D13B78112B01D067
:10208000FFF72CFE2C482D4DFFF7EAFA042004F050
:1020900079F92B4B284800221A60FFF7DFFA01215B
:1020A0000D2006F041F8796D2348FFF7EBFB7A6CC1
:1020B00097F840102048FFF7E7FB2248224B0468BE
:1020C00003941B682149224A039E0068029012680B
:1020D000204C2E6081FB0301DB171F48A3EB21136B
:1020E0000299216013FB02F3038005B0F0BD00BF2D
:1020F0002487FF1F1494FF1F00CCFF1F20A107009F
:1021000064CAFF1FBC94FF1F4C110100E487FF1F2E
:102110005C1101007011010001F0074000F0074060
:102120000E200540042005400620054016200540ED
:10213000741201004493FF1FF494FF1FF094FF1FDB
:102140007092FF1F0CCCFF1F6C87FF1F1F85EB5188
:102150006887FF1F1C94FF1FC894FF1F2121394867
:1021600007F0E6FB384807F079FE384B1B781B0771
:102170007FF525AF0C21364807F0DAFB324807F02F
:102180006DFE324B1B785F077FF51EAF0E21314885
:1021900007F0CEFB2C4807F061FE2C4B1B789E0706
:1021A0007FF517AF17212C4807F0C2FB264807F030
:1021B00055FE2A4B1B781D067FF510AF0E212848CF
:1021C00007F0B6FB204807F049FE244B1B785C065D
:1021D0007FF509AF1221234807F0AAFB1A4807F040
:1021E0003DFE1E4B1B7898067FF502AF13211E485B
:1021F00007F09EFB144807F031FE184B1B78590777
:102200007FF5FBAE1C21194807F092FB0E4807F042
:1022100025FE124B1B781A077FF5F4AE19211448DE
:1022200007F086FB084807F019FE0C4B1B789B074C
:102230007FF5EDAE18210F4807F07AFB024807F052
:102240000DFEE4E688110100E487FF1F01F007405E
:10225000AC110100BC110100CC11010000F00740DD
:10226000E4110100F4110100081201001C12010028
:102270003C12010058120100F8B5464C464D474843
:10228000E66800232B70FFF7D7FA014630460AF0C4
:1022900037FB08B104232B704048FFF7A7FA2169E8
:1022A0000AF02EFB18B12B7843F010032B703B483B
:1022B000FFF708FBA16A0AF041FB18B12B7843F045
:1022C00040032B70002335486B70FFF7FBFAE16A7F
:1022D000314D0AF015FB08B101236B70304D2F48CA
:1022E00000232B70FFF7A8FA616A0646E0680AF03F
:1022F0005FF8014630460AF021FB08B104232B7039
:102300002648FFF773FA616A064620690AF052F818
:10231000014630460AF0F4FA18B12B7843F0100366
:102320002B701E48FFF7CEFAA16B0646A06A0AF092
:102330003FF8014630460AF001FB18B12B7843F014
:1023400040032B70002315486B70FFF7BBFAA16B9D
:10235000134F0646E06A0AF02DF8014630460AF0AF
:10236000CFFA08B101237B7000230C48EB70FFF714
:1023700063FA054609480A4EFFF738FA014628462F
:102380000AF016F8E16B0AF0D9FA08B10123F370EC
:10239000F8BD00BF4493FF1F4093FF1FF494FF1F3D
:1023A000B094FF1F514B1B68002B74D0F0B5504DFB
:1023B0002B680533B3F57A7F83B040F38E8000231A
:1023C00000272B604B4CD4F8A4000AF0A7F806466F
:1023D000D4F8A8000AF0A2F8314609F0E9FF39461E
:1023E0000AF0F0F844490AF0A1F9314609F0E2FF99
:1023F0000AF0C4FA0146062005F016FD02213F4806
:1024000007F096FA3E4807F029FD06213D4807F0FF
:102410008FFA28680AF082F83B490AF0D3F809F0ED
:1024200027FC022602460B460096354807F070FD51
:102430000D21364807F07CFAD4F8A4000AF06EF8B3
:10244000074628680AF06AF82F490AF0BBF80546E3
:10245000D4F8A8000AF062F8394609F0A9FF01464D
:1024600028460AF0AFF824490AF060F9394609F025
:10247000A1FF09F0FDFB009602460B46204807F03D
:1024800047FD31461D4807F053FA1D4803B0BDE82B
:10249000F04007F0E3BC174B1D4AD3F8A410D3F863
:1024A000A83012685B1A632B0BDD1A4803FB02F39A
:1024B00080FB0302DB17C3EB62131944062005F00F
:1024C000B3BC154803FB022380FB0302DB17C3EBFD
:1024D00022121144062005F0A7BC18462B600AF012
:1024E0001DF809490AF06EF807466BE7A094FF1F34
:1024F0007492FF1F4493FF1F0000C842301E01006A
:10250000E487FF1F98120100CDCCCC3DA012010042
:102510003887FF1F1F85EB51CBF08D2870B5A2487F
:10252000A24C07F09BFCA04807F098FC9E4807F0DF
:1025300095FC0D219E4807F0FBF9D4F8A030012B43
:1025400011D09C4C9848217800230A2207F096FC71
:102550002378052B67D8DFE813F0E900EE00F300DD
:10256000F800FD00E4000921934807F0E1F99348E1
:10257000FFF73CF921690AF0C3F918B10F2190481F
:1025800007F0D6F98D48FFF757F9E1680AF0D6F958
:1025900018B10E218B4807F0CBF98848FFF74CF9AA
:1025A00005468648FFF722F90146284609F000FF54
:1025B000E16B0AF0C3F918B11121834807F0B8F9AB
:1025C0007E48FFF77FF9A16A0AF0B8F918B10C212B
:1025D0007E4807F0ADF97948FFF774F9E16A0AF02F
:1025E0008FF918B10D217A4807F0A2F9794B734899
:1025F0001B68012B00F0C280FFF7F8F821696B4DD2
:102600000AF09CF978B16D48FFF716F9E9680AF00D
:1026100077F940B1674B1B78052B00F0C08008218B
:102620006D4807F085F902216C4807F081F9122006
:1026300005F080FD012800F09C80112005F07AFD56
:10264000012800F09180664B1B68012B00F0878009
:102650000221624807F06CF9624B5348196807F091
:102660004DFC514807F0FAFB04215F4807F060F980
:102670000B2005F05FFD002301460A224A4807F0BF
:10268000FDFB0C2005F056FD002301460A224648BA
:1026900007F0F4FB142005F04DFD002301460A224B
:1026A000414807F0EBFB152005F044FD00230146EF
:1026B0000A223D4807F0E2FB06214C4807F038F9B2
:1026C0004B4B394819680222002307F0D7FB04213D
:1026D000484807F02DF9112005F02CFD0023014694
:1026E0000A22314807F0CAFB102005F023FD002321
:1026F00001460A222C4807F0C1FB122005F01AFD02
:10270000002301460A22284807F0B8FB132005F0F1
:1027100011FD002301460A222348BDE8704007F05E
:10272000ADBB0721344807F003F97CE706213348A5
:1027300007F0FEF877E70721314807F0F9F872E76C
:102740000721304807F0F4F86DE708212E4807F01C
:10275000EFF868E70B212D4807F0EAF863E711214D
:102760002B4807F0E5F873E70A212A4807F0E0F85C
:1027700069E70E21284807F0DBF85EE7FFF736F837
:10278000216A0AF0DBF800283FF449AF16212348FC
:1027900007F0CEF80A21224807F0CAF843E70A21D9
:1027A0001F4807F0C5F83EE7E487FF1F4493FF1F6B
:1027B000B0120100AC94FF1FC0120100F494FF1F7F
:1027C000CC120100DC120100EC1201000013010028
:1027D000101301008092FF1F44130100301E0100FE
:1027E000C494FF1FA494FF1FB8130100C01301007D
:1027F0000494FF1FC813010080130100501301004F
:10280000581301006C1301007413010060130100E0
:10281000A413010098130100881301002013010084
:10282000381301002DE9F04F934C944FE36F012BC7
:102830008DB000F04981032B50D0914E914DA36F84
:102840009148012B09BF2968296801F100412960DD
:1028500005F076F83368002B40F0CE808A4805F00A
:1028600045F8E36F3860012B064600F0D2808749B7
:102870000AF064F878B9864930460AF041F850B950
:10288000844A854B12680B920B9A1A6000232B60C6
:102890000DB0BDE8F08FDFF8FC817F4CD8F8003038
:1028A0000A930A9823687D4FC01A09F033FE314617
:1028B00009F088FE7A4909F039FF794909F036FFB5
:1028C000396809F077FDD8F800300993099B236037
:1028D000002338602B600DB0BDE8F08FDFF8C881B1
:1028E000704DD8F80000664E012300220F212B60A6
:1028F00004F052FC2B68012B336800F00381002B9D
:1029000040F0A6810021D8F80000DFF8B891664DAC
:1029100004F094FC33681FFA80FBC9F800B0002B68
:1029200040F07B810021D8F80000564DDFF878A1F7
:1029300004F00AFCB4F89A3040F6E44101FB0BF1D4
:10294000B1FBF0F0C01A00B209F0E8FD5749834628
:10295000D4F8900009F036FE0146584609F0E6FE2C
:10296000D9F800302860632BDFF858B100F34981B3
:1029700000232B603368002B3FF461AF02214C48E9
:1029800006F0D6FFD9F80020D8F8000040F6E4435E
:10299000002103FB02F804F0D7FBB8FBF0F009F0CC
:1029A000B9FD8046B4F89A0009F0B8FD01464046EA
:1029B00009F0FEFC09F05CF94FF0020802460B46F4
:1029C000CDF800803B4807F0A3FA4146384806F0AE
:1029D000AFFF286809F04CF9CDF8008002460B469D
:1029E000344807F095FA4146334806F0A1FF4146C6
:1029F0002F4806F09DFF22E7234804F077FF09F0F7
:102A000037F9022602460B4600962A4807F080FA5C
:102A100024E7244B1B68012B00F02681022B7FF456
:102A200035AF264909F08AFF30B92549304609F00B
:102A300067FF002800F04781DFF85880164CD8F86F
:102A40000030079307982368144FC01A09F062FDFD
:102A5000314609F0B7FD124909F068FE104909F046
:102A600065FE396809F0A6FCD8F800300693069B8D
:102A7000386023600AE700BF4493FF1F8C92FF1F5A
:102A8000E894FF1F7C92FF1F1C93FF1F0000FA4376
:102A90000000FAC30CCCFF1F5C92FF1F9492FF1F33
:102AA00000007A445C87FF1FBC94FF1F17B7D13822
:102AB000301E0100E487FF1F0C14010000C82F48DE
:102AC00000A08CC63C93FF1F3D689849284609F03A
:102AD00017FF30B12846964909F030FF00287FF4EF
:102AE000FDAEDFF85882934DD8F80000924E0223D5
:102AF00000220E212B6004F04FFB2B68012B336862
:102B00007FF4FDAE002B40F000810021D8F80000DA
:102B1000DFF86C92894D04F091FB33681FFA80FB5B
:102B2000C9F800B0002B40F0D5800021D8F8000093
:102B3000834D04F009FBB4F8983040F6E44A0AFBF0
:102B40000BFBBBFBF0F0C01A00B209F0E7FC7D49BB
:102B50008346D4F8940009F035FD0146584609F043
:102B6000E5FDD9F8003028600021D8F800000AFB04
:102B700003FA04F0E9FAB4F89830BAFBF0F00FFA6F
:102B800080FAC3EB0A03002BB4F8BA20B8BF5B424B
:102B90009342BCBF00232B603368002B3FF44FAE41
:102BA0000221694806F0C4FED9F80020D8F80000D8
:102BB00040F6E443002103FB02F804F0C5FAB4F840
:102BC0009810B8FBF0F000B2411A604807F096F98F
:102BD00002215D4806F0ACFE286809F049F84FF084
:102BE000020802460B46CDF80080584807F090F9DD
:102BF0000321574806F09CFE4146534806F098FED4
:102C00001DE6DAF80000002104F09EFADBF800303F
:102C100064389842FFF4ACAEACE60021286804F0BA
:102C200093FA40F6E44100230A2201FB0BF1B1FBC9
:102C3000F0F1464807F022F90221434806F078FEF9
:102C4000B4F89A10414807F059F9D9F800B069E68C
:102C50003E4807F003F90C213E4806F069FE0C21BE
:102C60003D4806F065FE4DE63C4909F067FE58B95F
:102C70003B49304609F044FE30B93A4A3A4B1268B3
:102C80000592059A1A6001E6DFF8D880364CD8F82C
:102C90000030049304982368344FC01A09F03AFCBA
:102CA000314609F08FFC324909F040FD304909F006
:102CB0003DFD396809F07EFBD8F800300393039B93
:102CC00038602360E2E5274A274B12680892089A89
:102CD0001A60DBE50021286804F036FA40F6E4418A
:102CE00000230A2201FB0BF1B1FBF0F1174807F0BA
:102CF000C5F801211F4806F01BFEB4F898101348D0
:102D000007F0FCF8D9F800B00FE7104807F0A6F874
:102D1000E36F012B4FF00B010CBF1748174806F06B
:102D200007FE0C210C4806F003FEEEE60070944608
:102D3000007094C65C87FF1FE894FF1FBC94FF1FC0
:102D40007C92FF1F17B7D138301E0100E487FF1FA8
:102D5000F8130100FC130100E81301000000FA431E
:102D60000000FAC30CCCFF1F5C92FF1F9492FF1F60
:102D700000007A44AC120100D0130100DC13010002
:102D80003C93FF1F2DE9F043AB4D2B6883B0002B24
:102D900000F08780A94CAA4EE36FAA4FA74D012BE4
:102DA00000F0BF80D4F88030DFF89082012B00F073
:102DB000ED80D8F85850D7F80090D8F8548005FB2B
:102DC00008F54FF47A7000FB05F009F0A7FB9E4967
:102DD000DFF86C820546484609F0F4FB294609F005
:102DE000A5FC9A4909F0EEFB09F0C8FD63283060A4
:102DF0004BDD2846944909F099FC6423C8F800305B
:102E0000934B38601B68002B48D0E36F8B4D012B30
:102E100000F0ED80032B00F0FD80022B00F000811C
:102E200002218C4806F084FD8B4B186808F020FFC7
:102E3000022402460B460094884807F069F82146B0
:102E4000874806F075FD2146824806F071FD31681D
:102E5000824807F053F80621824806F069FD386879
:102E6000794909F0AFFB08F003FF009402460B46D6
:102E70007A4807F04DF803217B4806F059FD774862
:102E800003B0BDE8F04306F0E9BF0028BCBF002353
:102E9000C8F800306E4B1B68002BB6D103B0BDE8FC
:102EA000F0837248654CFEF76DFD7149A76EE66EC2
:102EB00009F088FB09F088FD226F636FD21B9B1B12
:102EC00080B29342A0EB0700C0F29D8003FB00F3A9
:102ED00093FBF2F333445A4E5E483360022106F00E
:102EE00027FD31685D48574F07F008F8022159481F
:102EF00006F01EFD3268A06D636D02FB00F003FB5F
:102F000000F000EB8000400009F008FB4E4909F09A
:102F10000DFC01232B60E36F3860012B474D7FF4DC
:102F200041AF5248FEF72EFD5149D5F86890D5F8CB
:102F30006C8009F047FB09F047FD2A6F6B6FC9EB06
:102F40000202C8EB030380B29A42C9EB00006CDDB9
:102F500003FB0000531C90FBF3F303EB0800A26D8E
:102F6000636D306002FB00F003FB00F000EB8000BB
:102F7000400009F0D3FA3449DFF8C08009F0D6FBED
:102F8000D4F880303860012B7FF413AF3748FEF758
:102F9000F9FC3749D8F86890D8F86C5009F012FB62
:102FA00009F012FDD8F87020D8F87430D4F85480A5
:102FB000C9EB02025B1B80B29A42C9EB0000C6BF9C
:102FC00003FB00000132584390FBF2F02844A56D4A
:102FD00000FB05F008FB00F000EB8000400009F06A
:102FE0009DFA194909F0A2FB81463860E7E6214BBA
:102FF0001B68012B4FF00A010CBF1F481F4806F049
:1030000097FCEB6F06E703FB0000531C90FBF3F308
:10301000334460E710211A4806F08AFCE36FFCE6AF
:103020000721184806F084FCFAE603FB00F393FB43
:10303000F2F303EB080092E77892FF1F4493FF1F1F
:103040003887FF1F9492FF1FE4388E3E0000C8426D
:103050004887FF1F301E01008C92FF1FE487FF1F6F
:103060000C140100441401004C140100F494FF1FDF
:1030700000007A445C87FF1F101401001C1401003B
:10308000281401003C140100F0B5112083B005F0B4
:1030900051F8012813D000210B2005F045F800213C
:1030A0000C2005F041F80021152005F03DF81D49E0
:1030B0001D4B0120002208701A6003B0F0BD0146CC
:1030C0000446152005F030F81849194A194B0968CB
:1030D0000191D2F884001B680199134D0344022624
:1030E0008B422E6017D8D2F88C0009F017FA124BD9
:1030F000196809F005FC074668B921460B2005F060
:1031000013F8084A032339460C2016702B6005F08B
:103110000BF803B0F0BD01210C2005F005F803B059
:10312000F0BD00BFAC94FF1FE494FF1F0CCCFF1F49
:103130004493FF1FF094FF1F8C92FF1FF0B5684E61
:10314000684D34682B689C4287B039D014F0010177
:1031500055D014F0020149D014F004013DD0E3072A
:103160000ED52B68DF070BD45F4F3A68002A00F0BA
:1031700082805E4B1B680193019B93426DD834683B
:10318000A0070DD52B6899070AD4594F3A68002A31
:103190004CD0564B1B680393039B934238D834683A
:1031A00062070DD52B685B070BD4524F3A68002A93
:1031B0007ED04E4B1B680593059B934268D83468BC
:1031C0000CB107B0F0BD2146162004F02DFE2146BB
:1031D000172004F029FE07B0F0BD052004F024FEFE
:1031E0002B68346803F0FB032B60B8E7172004F06A
:1031F0001BFE2B68346803F0FD032B60ACE7162040
:1032000004F012FE2B68346803F0FE032B60A0E785
:10321000394B1720D3F8881004F006FE2B68346869
:1032200043F0020300222B603A60B9E7334806F00E
:1032300015FE0C21324806F07BFB304806F00EFEEE
:10324000FF21172004F0F0FD284B2E4A1968029147
:10325000029912680A443A609CE7274B1620D3F87B
:10326000881004F0E1FD2B68346843F0010300226C
:103270002B603A6084E7FF21162004F0D5FD1B4B3C
:10328000204A19680091009912680A443A6071E76F
:10329000194B0520D3F8881004F0C6FD2B6834685C
:1032A00043F0040300222B603A60002C89D18AE7A6
:1032B000124806F0D3FD0C21134806F039FB0F48E5
:1032C00006F0CCFDFF21052004F0AEFD074B0D4AB2
:1032D00019680491049912680A443A606AE700BFC9
:1032E000E494FF1F0494FF1F8494FF1F0CCCFF1F66
:1032F0008894FF1F8C94FF1F4493FF1FE487FF1FD8
:10330000501401007C87FF1F601401002DE9F04775
:10331000544EDFF87481DFF874913068524D00220A
:103320000F2103F039FF0023012222214F48C8F862
:103330000030C9F8002006F0FBFAD8F80030132B53
:1033400022DC40F6E44700213068B5F898A003F08D
:1033500075FF00210446306803F0F6FEA4B2012197
:1033600007FB04F4B4FBF0F441485444A5F898403A
:1033700006F0DEFA642004F013FFD8F800300133C1
:10338000132BC8F80030DEDDB5F89830394A3A48DA
:10339000A2FB03129B1A02EB5303C3F30F1319464C
:1033A000A5F8983006F0AAFD1D21344806F0C0FAB1
:1033B0000221334806F0BCFA2F4806F04FFD0023E7
:1033C0001A460E213068C8F8003003F0E5FE0223EB
:1033D00022212648C9F8003006F0AAFAD8F80030B1
:1033E000132B22DC40F6E44700213068B5F89A90B0
:1033F00003F024FF00210446306803F0A5FEA4B2C8
:10340000012107FB04F4B4FBF0F419484C44A5F87F
:103410009A4006F08DFA642004F0C2FED8F800301D
:103420000133132BC8F80030DEDDB5F89A30114AAD
:103430001148A2FB03129B1A02EB5303C3F30F13B1
:103440001946A5F89A3006F059FD1D210D4806F0E1
:103450006FFA02210A4806F06BFA0748BDE8F04708
:1034600006F0FCBCBC94FF1F4493FF1F70140100C6
:10347000B414010087611886E487FF1F94140100CB
:10348000301E0100B8140100A894FF1F5C87FF1FC5
:10349000F8B5874B874C884F1B68386D40F2513127
:1034A00008222160E271002B00F0FD8009F036F85F
:1034B000396A054609F086F8804909F083F809F071
:1034C00083FA80B2031263727D4A7E4B12681B68D6
:1034D000B9692072A37228461B121512E372227377
:1034E000657309F06FF8754909F06CF809F06CFA2A
:1034F00083B21A126F497448A373E27303F06EFC2F
:10350000724B734A1B6812886A49A272DDB2257237
:1035100005EB850603EB8305760045F3D71540F2EE
:10352000553E12121B122673657308260025664845
:10353000C4F800E0E2726372E671A573E57303F00C
:103540004DFC40F2563363482360E671FEF798F96C
:10355000614909F037F809F037FA20725D48FEF743
:103560008FF95D4909F02EF809F02EFA5B4A5A49A5
:10357000C0F307231068637209F0D8F809F0FEF968
:1035800040FA06F203465348E272A372FEF79AF934
:103590004A4909F017F809F017FA20734D48FEF769
:1035A00091F9464909F00EF809F00EFA4149A57360
:1035B000C0F3072344486373E57303F00FFC022054
:1035C00004F0EEFD464A474B11785078217291780D
:1035D0006072D2789878A172597893F800E0E2721C
:1035E0006173DA78A07340F25A3332493648E67193
:1035F00084F80CE0E273236003F0F0FB3A4B2D49B2
:103600001A785878227260729A78D878A272E0722A
:103610001A79987993F805E02273A073DA792A4829
:1036200084F80DE040F25E33E2732360E67103F04C
:10363000D5FB022004F0B4FD2C4B1E491A785878B3
:10364000227260729A78D878A272E0721A799879A8
:1036500093F805E02273A073DA791B4884F80DE033
:103660004FF45C73E2732360E67103F0B7FB022052
:1036700004F096FDBA6DE67142FA06FE012340F2AF
:103680005F370226227399222572657284F80DE055
:103690002760A672E372E373A27306490A48BDE885
:1036A000F84003F09BBB08F039FF7969054601E754
:1036B0008092FF1FD494FF1F4493FF1F00002041FE
:1036C000B894FF1F6492FF1F64CAFF1F3887FF1F53
:1036D0004487FF1FF494FF1F0000C8428C92FF1F15
:1036E0004093FF1FB094FF1F2887FF1F6087FF1FB5
:1036F000F0B59C4C9C4D83B006F0B4F8236828606C
:10370000042B00F0AC82022B4BD0082B00F09280EF
:10371000072B40F05181332801F0C58300F3AD80C1
:10372000312801F0D383322840F0B08006F0D6F87B
:10373000002840F33F818D488D4E06F023FD08F0B0
:10374000EDFE8C4908F03EFF61230122F063226008
:103750002B601846A0F152031F2B01F29483DFE87F
:1037600013F0360B920B920B920B920B920B920B67
:10377000920B920B920B920B920B920B920B920B61
:10378000B203AB0C3905A7057304920B920B920B95
:103790002604920BAE0C920B920B920B920B920B97
:1037A000240BA0F13102422A70D8DFE812F0220780
:1037B0002E07E606F306060715076F006F006F0079
:1037C0006F006F006F006F006F006F006F006F0081
:1037D0006F006F006F006F006F006F006F006F0071
:1037E0006F006F006F006F006F006F006F006F0061
:1037F0006F006F006F006F006F006F006F006F0051
:103800006F006F006F006F006F006F006F006F0040
:103810006F00D3066F006F006F006F006F006F00C6
:103820006F006F006F006F006F006F006F006B0024
:103830006F00D906322800F02F83712822D031285A
:1038400024D106F04BF8002840F342864748484E02
:1038500006F098FCC0B286F84000022894BF0146EA
:103860000021726C444888BF86F84010FEF70CF8BF
:1038700001236920236028606CE7342801F03C8331
:10388000712803D10023732023602860002B08BF18
:1038900073280CBF01200020002860D0334806F0B8
:1038A000DDFA0421354806F043F8304806F0D6FA30
:1038B0001021334806F03CF82C4806F0CFFA1321CB
:1038C000304806F035F8304B2848196806F016FBEA
:1038D000264806F0C3FA14212C4806F029F823489C
:1038E00006F0BCFA1E212A4806F022F81F4806F00E
:1038F000B5FA1521274806F01BF81C4806F0AEFA69
:103900001E21254806F014F8184806F0A7FA2021D1
:10391000224806F00DF8154806F0A0FA19212048B3
:1039200006F006F8114806F099FA12211D4805F034
:10393000FFFF0E4806F092FA0F211B4805F0F8FF32
:103940000A4806F08BFA0D21184805F0F1FF0748E8
:1039500006F084FA164A002101231160236003B0A7
:10396000F0BD00BF9892FF1F8892FF1FE487FF1FE2
:103970004493FF1F6F12833AF494FF1FAC1C0100A5
:10398000B41C0100C81C01002087FF1FDC1C0100C3
:10399000F41C0100141D01002C1D01004C1D010030
:1039A000701D01008C1D0100A01D0100B01D010053
:1039B0004887FF1F23682868062B40F08D80A0F100
:1039C0003102402A3FF662AF01A151F822F000BF58
:1039D00007440000334400005F44000085440000B9
:1039E000AB440000E34300008D3800008D38000038
:1039F0008D3800008D3800008D3800008D380000B3
:103A00008D3800008D3800008D3800008D380000A2
:103A10008D3800008D3800008D3800008D38000092
:103A20008D3800008D3800008D3800008D38000082
:103A30008D3800008D3800008D3800008D38000072
:103A40008D3800008D3800008D3800008D38000062
:103A50008D3800008D3800008D3800008D38000052
:103A60008D3800008D3800008D3800008D38000042
:103A70008D3800008D3800008D3800008D38000032
:103A80008D3800008D3800008D3800008D38000022
:103A90008D3800008D3800008D3800008D38000012
:103AA0008D3800008D3800008D3800008D38000002
:103AB0008D3800008D3800008D3800008D380000F2
:103AC0008D3800008D3800008D3800008D380000E2
:103AD0008538000023682868052B15D1332801F0AC
:103AE000528240F34781352801F03F82C1F21682AD
:103AF00071287FF4CBAEDC4A00237320136023606F
:103B00002860C3E623682868032B40F0A480A0F156
:103B10003002422A3FF6BAAE01A151F822F000BFAE
:103B20002D3C00005B4D0000834D00003F4C000029
:103B3000614C0000834C0000AB4C0000D34C0000F3
:103B4000F14C0000154D00008D3800008D3800004C
:103B50008D3800008D3800008D3800008D38000051
:103B60008D3800008D3800008D3800008D38000041
:103B70008D3800008D3800008D3800008D38000031
:103B80008D3800008D3800008D3800008D38000021
:103B90008D3800008D3800008D3800008D38000011
:103BA0008D3800008D3800008D3800008D38000001
:103BB0008D3800008D3800008D3800008D380000F1
:103BC0008D3800008D3800008D3800008D380000E1
:103BD0008D3800008D3800008D3800008D380000D1
:103BE0008D3800003D4D00000F470000634B000082
:103BF0008D4B0000AB4B0000FF4B0000C5460000A2
:103C0000E94600008D3800008D3800008D38000036
:103C10008D3800008D3800008D3800008D38000090
:103C20008D380000814B0000C94B000005F056FEA6
:103C3000002841F331818D488D4E06F0A3FA01270B
:103C40000346014662228B48736527602A60FDF7B0
:103C500019FE23682868012B7FF418AE7AE5A0F1DD
:103C60003102402A3FF612AE01A151F822F000BF06
:103C7000274600003F46000043460000694600001A
:103C8000A94600006D4600007F4600008346000004
:103C9000874600008D3800008D3800008D38000008
:103CA0008D3800008D3800008D3800008D38000000
:103CB0008D3800008D3800008D3800008D380000F0
:103CC0008D3800008D3800008D3800008D380000E0
:103CD0008D3800008D3800008D3800008D380000D0
:103CE0008D3800008D3800008D3800008D380000C0
:103CF0008D3800008D3800008D3800008D380000B0
:103D00008D3800008D3800008D3800008D3800009F
:103D10008D3800008D3800008D3800008D3800008F
:103D20008D3800008D3800008D3800008D3800007F
:103D30008D3800008D3800008D3800008D3800006F
:103D40008D3800008D3800008D3800008D3800005F
:103D50008D3800008D3800008D3800008D3800004F
:103D60008D3800008D3800008D3800008D3800003F
:103D700085380000312801F0E78032287FF486ADD5
:103D800005F0ACFD00287FF7BDAE3848384E06F090
:103D9000F9F901226B23C6F88C0022602B6001E048
:103DA00005F060FD05F09AFD0028F9D12F4806F0D6
:103DB00055F82E4806F052F82C4806F04FF82B48DC
:103DC00006F04CF8294806F049F821212A4805F068
:103DD000AFFD264806F042F81521284805F0A8FD59
:103DE000D6F88410214806F089F80221244805F00D
:103DF0009FFD1E4806F032F81E21224805F098FD6E
:103E0000D6F88C10194806F079F803211E4805F001
:103E10008FFD164806F022F81E211C4805F088FD8B
:103E2000D6F88810114806F069F8104806F016F820
:103E30001D21174805F07CFDD6F8A4100B4806F0AC
:103E40005DF80A4806F00AF81E21124805F070FDD8
:103E5000D6F8A810054806F051F8044805F0FEFF12
:103E6000052323607BE500BFA094FF1FE487FF1FAD
:103E70004493FF1FF494FF1F24170100481701000B
:103E80007C16010060170100F81301008017010083
:103E9000A0170100C017010005F020FD002840F325
:103EA0001383B248B24E06F06DF908F037FBB14902
:103EB00008F088FB0346024696F84010AE4873644B
:103EC000D4E405F0CFFC05F009FD05460028F8D143
:103ED000A648A74E05F0C2FFA44805F0BFFFA348BF
:103EE00005F0BCFFA14805F0B9FFA04805F0B6FFFA
:103EF0001F21A24805F01CFD9C4805F0AFFF1C21C6
:103F00009F4805F015FD706A9E4908F05BFB07F0BD
:103F1000AFFE009502460B46944805F0F9FF0221DA
:103F2000994805F005FD914805F098FF2321974831
:103F300005F0FEFCF06B934908F044FB07F098FE97
:103F4000009502460B46894805F0E2FF02218E48A3
:103F500005F0EEFC854805F081FF19218C4805F03D
:103F6000E7FCB06B07F084FE02250B460246009585
:103F70007E4805F0CDFF2946864805F0D9FC7B48F0
:103F800005F06CFF1921844805F0D2FCB6F8B81092
:103F9000764805F0B3FF0321804805F0C9FC73485B
:103FA00005F05CFF07232360D9E405F05BFC05F016
:103FB00095FC05460028F8D16C486D4E05F04EFF83
:103FC0006A4805F04BFF694805F048FF674805F06F
:103FD00045FF664805F042FF1521714805F0A8FC31
:103FE000624805F03BFF18216E4805F0A1FC2B4606
:103FF0000A2296F840105D4805F040FF5B4805F046
:104000002DFF2821684805F093FC706C5D4908F08D
:10401000D9FA07F02DFE00950B460246534805F0ED
:1040200077FF0221584805F083FC504805F016FF41
:1040300013215E4805F07CFC4C4805F00FFF082377
:1040400023608CE405F00EFC05F048FC05460028D2
:10405000F8D14648464E05F001FF444805F0FEFE03
:10406000424805F0FBFE414805F0F8FE3F4805F0E8
:10407000F5FE11214E4805F05BFC3C4805F0EEFED4
:1040800028214C4805F054FC70693E4908F09AFA22
:1040900007F0EEFD009502460B46344805F038FF68
:1040A0000221394805F044FC304805F0D7FE1621BE
:1040B000414805F03DFCF069324908F083FA07F009
:1040C000D7FD00950B460246284805F021FF022146
:1040D0002D4805F02DFC254805F0C0FED6F8B0307F
:1040E000002B32DD1D21354805F022FCF06D08F073
:1040F00015FA334908F066FA07F0BAFD02250246C0
:104100000B460095194805F003FF01212D4805F0E5
:104110000FFC164805F0A2FE1F212B4805F008FCF5
:10412000306E08F0FBF9264908F04CFA07F0A0FDC4
:10413000009502460B460D4805F0EAFE0121214894
:1041400005F0F6FB094805F089FE11211F4805F02E
:10415000EFFBD6F8B030052B00F25686DFE813F0FF
:104160007F067A0650068E0689068406E487FF1FBE
:104170004493FF1F6F12833AF494FF1F80160100CF
:10418000A016010000007A4450150100C01601007D
:10419000E4160100001701000417010020170100B8
:1041A000741D0100081501002415010054150100BB
:1041B000181D01006815010094150100AC150100DF
:1041C000CDCCCC3D041A0100CC150100EC1501004A
:1041D00005F048FB05F082FB0028F9D1BF48C04E2E
:1041E00005F03CFEBD4805F039FEBC4805F036FE42
:1041F000BA4805F033FEB94805F030FE1F21B94832
:1042000005F096FBB54805F029FE1E21B64805F0DD
:104210008FFBB24805F022FE1A21B44805F088FB56
:10422000F36F022B00F01787032B00F00B87012B95
:1042300000F01A870921AE4805F07AFBA74805F07F
:104240000DFE1421AB48A64F05F072FBB16FA348D9
:1042500005F054FEA14805F001FE1C21A64805F01A
:1042600067FBD6F880109D4805F048FE9B4805F096
:10427000F5FD1C21A14805F05BFBD6F8AC10974872
:1042800005F03CFE954805F0E9FDF56F25F00205C7
:10429000012D00F091861321994805F049FB8F48C4
:1042A00005F0DCFD02232360FFF759BB05F0DAFAC5
:1042B00005F014FB0028F9D1884805F0CFFD8748A8
:1042C00005F0CCFD854805F0C9FD844805F0C6FD24
:1042D000824805F0C3FD13218A4805F029FB7F4879
:1042E00005F0BCFD0D21884805F022FB7B4805F058
:1042F000B5FD0F21854805F01BFB854B77481968F4
:1043000005F0FCFD754805F0A9FD1321814805F075
:104310000FFB814B7148196805F0F0FD6F4805F0FF
:104320009DFD12217D4805F003FB7D4B6B4819680C
:1043300005F0E4FD694805F091FD1121794805F08B
:10434000F7FA794B6548196805F0D8FD634805F020
:1043500085FD0E21754805F0EBFA614B5F48D3F8F7
:10436000A01005F0CBFD5D4805F078FD19217048DF
:1043700005F0DEFA6F4B5948196805F0BFFD574844
:1043800005F06CFD11216C4805F0D2FA6B4B5348D7
:10439000196805F0B3FD514805F060FD102168482B
:1043A00005F0C6FA674B4D48196805F0A7FD4B4864
:1043B00005F054FD1C21644805F0BAFA634B4748E8
:1043C000196805F09BFD454805F048FD13214C4850
:1043D00005F0AEFA414805F041FD04232360FFF7E4
:1043E000BEBA05F07BFA00287FF774AB3B483C4E21
:1043F00005F0C8FE65230122C6F8B40022602B60D8
:104400001846FFF7A7B905F069FA00287FF762ABF5
:104410003248334E05F0B6FE08F080F84C4908F0FB
:1044200085F965230122706122602B601846FFF731
:1044300091B905F053FA00287FF74CAB2748284E76
:1044400005F0A0FE08F06AF8414908F06FF965230D
:104450000122F06122602B601846FFF77BB905F05E
:104460003DFA00287FF736AB1C481D4E05F08AFE4A
:1044700000EB8000430001226520F3652260286084
:10448000FFF768B905F02AFA00287FF723AB134835
:10449000134E05F077FE00EB8000430001226520FB
:1044A000336622602860FFF755B90D4AD2F8B03064
:1044B0000133052BC8BF0023C2F8B03065200123AB
:1044C00023602860FFF746B923682868FFF720B902
:1044D000034E96F84000FFF7C0B900BFE487FF1F06
:1044E0004493FF1FC4180100E418010004190100DF
:1044F0007C19010088190100A0190100C0190100F0
:1045000054150100E0170100F41701000418010020
:104510008094FF1F14180100E894FF1F2818010061
:10452000CC94FF1F3C180100D094FF1F50180100CD
:1045300060180100A494FF1F7C180100A094FF1FC5
:10454000901801008492FF1FA41801007087FF1FBC
:1045500000007A44FEF7DAFE23682868FFF7D5B832
:10456000724AD36F0133032BC8BF0023D3670123E3
:10457000632023602860FFF7EDB80123236005F076
:10458000ADF90028F3DD6A48684E05F0FBFDC6F87A
:10459000AC00ECE70123236005F0A0F9002807DD5B
:1045A0006348624E05F0EEFD07F0B8FFC6F89400D0
:1045B000632028602368FFF7ABB80123236005F070
:1045C0008DF90028F4DD5A48584E05F0DBFD07F060
:1045D000A5FFC6F89000EBE70123236005F07EF904
:1045E0000028E5DD5248514E05F0CCFDA6F8BA0092
:1045F000DEE74E4EB36FB3FA83F35B09012263200B
:10460000B36722602860FFF7A5B8484ED6F880301F
:10461000B3FA83F35B0901226320C6F8803022607D
:104620002860FFF797B8434A1368B3FA83F35B092E
:1046300001216420136021602860FFF78BB83E4A97
:10464000F2E73E4A3E4F1368002B0CBF01230023C4
:104650004FF001001360206040F0DE8403466422C6
:104660002A606420FFF751B8364ADDE70123364857
:104670002360FCF775FF354A23681060EFE7344A82
:10468000D2E7344AD0E70123236005F027F9002858
:1046900000F38A84304B1A68042AC4BF02221A60CD
:1046A00064232B602368DCE7204ED6F8A030B3FAF1
:1046B00083F35B0901226420C6F8A03022602860E1
:1046C000FFF748B805F00AF900280DDD1848174E25
:1046D00005F058FD07F022FF204908F027F80122D5
:1046E0006223306222602B6005F0F8F800280EDDAE
:1046F0000F480E4E05F046FD07F010FF174908F071
:1047000015F801226223C6F8BC0022602B6005F078
:10471000E5F8002840F3C0830548044E05F032FD5B
:1047200001226223B06622602B601BE04493FF1FCE
:10473000E487FF1F8094FF1FE894FF1FCC94FF1FA6
:104740009892FF1FD094FF1FF494FF1FA494FF1FA3
:10475000A094FF1F8492FF1F7087FF1F00007A4400
:1047600005F080F805F0BAF805460028F8D1C248EF
:1047700005F074FBC04805F071FBBF4805F06EFB07
:10478000BD4805F06BFBBC4805F068FB1521BB4834
:1047900005F0CEF8B84805F061FB1421B84805F0E3
:1047A000C7F8B54805F05AFB1B21B64805F0C0F81C
:1047B000B14805F053FB1321B34805F0B9F8AE48F2
:1047C00005F04CFBAC4805F049FBAB4805F046FB57
:1047D0002021AE4805F0ACF8F068AD4907F0F2FED4
:1047E00007F046FA009502460B46A34805F090FBF9
:1047F0000221A84805F09CF80221A74805F098F886
:104800009D4805F02BFB2121A44805F091F8306963
:104810009F4907F0D7FE07F02BFA009502460B469A
:10482000954805F075FB02219A4805F081F80221B0
:10483000994805F07DF8904805F010FB1F21984835
:1048400005F076F8B06A07F013FA022702460B4625
:104850000097894805F05CFB0121924805F068F853
:1048600039468D4805F064F8834805F0F7FA2021B1
:104870008D4805F05DF8F06A07F0FAF900970246F6
:104880000B467D4805F044FB0121864805F050F8B1
:104890003946814805F04CF8774805F0DFFA2321C6
:1048A000824805F045F8B06C794907F08BFE07F0B7
:1048B000DFF9009502460B466F4805F029FB3946A3
:1048C000744805F035F83946734805F031F86A4800
:1048D00005F0C4FA1F21764805F02AF8F06C6C49FF
:1048E00007F070FE07F0C4F9009502460B466248D7
:1048F00005F00EFB3946674805F01AF83946664858
:1049000005F016F85C4805F0A9FA1921694805F088
:104910000FF8B16D584805F0F1FA3946664805F0D0
:1049200007F839465C4805F003F8534805F096FA55
:104930001821624804F0FCFF706E07F0EFFD60493B
:1049400007F040FE07F094F9009702460B464A48EC
:1049500005F0DEFA01215B4804F0EAFF39464E48D3
:1049600004F0E6FF444805F079FA2B21564804F09C
:10497000DFFFB069464907F025FE07F079F9009599
:1049800002460B463C4805F0C3FA3946414804F05C
:10499000CFFF3946404804F0CBFF374805F05EFAB8
:1049A0001F214A4804F0C4FF716D334805F0A6FA90
:1049B0003946394804F0BCFF2F4805F04FFA202152
:1049C000434804F0B5FF316D2B4805F097FA39469E
:1049D000314804F0ADFF284805F040FA10213D4869
:1049E00004F0A6FFB16E244805F088FA394629483C
:1049F00004F09EFF3946284804F09AFF1E4805F04F
:104A00002DFA1321344804F093FFF16E1A4805F093
:104A100075FA0121314804F08BFF39461E4804F035
:104A200087FF154805F01AFA10212D4804F080FF81
:104A3000316F114805F062FA3946164804F078FFE4
:104A40003946154804F074FF0B4805F007FA1421A5
:104A5000244804F06DFF716F074805F04FFA0121FB
:104A60001E4804F065FF39460B4804F061FF024818
:104A700005F0F4F9162137E0E487FF1F4C1A010016
:104A8000641A01007C1A010054150100981A0100F3
:104A900000007A4450150100301E0100BC1A0100CC
:104AA000E01A010028110100001B0100241B010075
:104AB000481B0100681B0100841B0100881B0100CA
:104AC000CDCCCC3D041A0100A41B0100D01B010079
:104AD000F01B0100141C0100281C01003C1C0100FB
:104AE000401C0100541C0100BA4804F021FF306A48
:104AF000B94907F067FD07F0BBF8009502460B4681
:104B0000B64805F005FA3946B54804F011FF3946B4
:104B1000B44804F00DFFB14805F0A0F92421B248D3
:104B200004F006FFD6F8BC00AB4907F04BFD07F0D8
:104B30009FF800950B460246A84805F0E9F939466A
:104B4000A74804F0F5FE3946A64804F0F1FEA34854
:104B500005F084F9A14805F081F903232360FEF7ED
:104B6000FEBE04F0BBFE002840F396819B489F4E9A
:104B700005F008FB01226223F06622602B60F1E55C
:104B80000022732322602B60FEF788BE04F0A6FE8D
:104B9000002840F381819148944E05F0F3FA0122F8
:104BA0006223306722602B60DCE504F097FE00286A
:104BB00040F3728189488D4E05F0E4FA01226223A8
:104BC000706722602B60CDE5894B8648874E0022B6
:104BD00002211A6004F0ACFE804805F03FF90B2179
:104BE000844804F0A5FE02217E4804F0A1FE7B4823
:104BF00005F034F90122622322602B60B2E5FDF753
:104C00006DF802217748794E04F092FE734805F062
:104C100025F90221734804F08BFE704805F01EF957
:104C20000221704804F084FE6C4805F017F9172142
:104C3000714804F07DFE694805F010F9D3E704F0EF
:104C40004DFE002840F328816448684E05F09AFA2A
:104C500007F064FC01226223B06222602B6081E5D0
:104C600004F03CFE002840F317815C485F4E05F0DD
:104C700089FA07F053FC01226223F06222602B6064
:104C800070E504F02BFE002840F306815348574E90
:104C900005F078FA07F042FC4F4907F047FD012282
:104CA0006223B06422602B605CE504F017FE0028EC
:104CB00040F3F28049484D4E05F064FA07F02EFCAF
:104CC000454907F033FD01226223F06422602B6026
:104CD00048E504F003FE002840F3DE803F48434EE1
:104CE00005F050FA01226223B06522602B6039E59D
:104CF00004F0F4FD002840F3CF8038483B4E05F027
:104D000041FA00EB800043000121622273662160BA
:104D10002A6027E504F0E2FD002840F3BD802F481B
:104D2000324E05F02FFA07F0F9FB2B4907F0FEFC95
:104D300001226223B06122602B6013E504F0CEFDF6
:104D4000002840F3A9802548284E05F01BFA0122CF
:104D50006223306522602B6004E504F0BFFD00286B
:104D600040F39A801D48214E05F00CFA07F0D6FB5F
:104D7000194907F0DBFC01226223F06022602B60FE
:104D8000F0E404F0ABFD002840F386801348174E92
:104D900005F0F8F907F0C2FB0F4907F0C7FC012244
:104DA0006223306122602B60DCE4C02200210F48C6
:104DB00002F0EEFE2868114AA0F1730001210023E1
:104DC000B0FA80F0400911602360FEF765BD04F081
:104DD00079F800BF6C1C010000007A44E487FF1FD3
:104DE00050150100301E0100841C01004493FF1F78
:104DF0007892FF1FFC140100E41401004887FF1F94
:104E00000C21B04804F094FDAF48B04D05F026F8F1
:104E1000D6F8B030002B0FDD1821AD4804F088FD26
:104E2000D5F8B410A84805F069F80221A94804F0A3
:104E30007FFDA54805F012F8A34805F00FF81321EF
:104E4000A54804F075FDA04805F008F80623236086
:104E5000FEF785BD0C21A14804F06AFDD4E70D21C1
:104E60009F4804F065FDCFE70F219E4804F060FDE8
:104E7000CAE70D219C4804F05BFDC5E70D219B4866
:104E800004F056FDC0E72368002B08BF73280CBF51
:104E900001200020FEF700BD23682868012B7EF466
:104EA000F5ACFEF757BC04F019FD00287EF782AD83
:104EB0008548864E05F066F907F030FB6123012234
:104EC000B06322602B601846FEF744BC04F006FD78
:104ED00000287EF76FAD7C487C4E05F053F907F053
:104EE0001DFB834907F06EFB612301227062226083
:104EF0002B601846FEF72EBC04F0F0FC00287EF76D
:104F000059AD7148714E05F03DF961230122A6F8B3
:104F1000B80022602B601846FEF71CBC04F0DEFCD3
:104F200000287EF7EFAD6848684E05F02BF9714B0D
:104F3000C6F8A40002221A60FDF734FA01226B239E
:104F400022602B60FEF72EBF04F0C8FC00287EF71D
:104F5000D9AD5D485D4E05F015F901226B23C6F809
:104F6000840022602B60FEF71DBF04F0B7FC002810
:104F70007EF7C8AD5448554E05F004F95D4BC6F8B0
:104F8000A8000322D7E704F0A9FC00287EF7BAADF9
:104F90004D484E4E05F0F6F801226B23C6F8880006
:104FA00022602B60FEF7FEBE474805F0EBF8524B3F
:104FB00002461860FFF770BB1C21504804F0B8FC93
:104FC000D7F894004E4907F0FDFA06F051FE00951F
:104FD00002460B463C4804F09BFF0521494804F07B
:104FE000A7FC394804F03AFFFD6F012D45D0032D91
:104FF0007FF451A91C21444804F09AFCB6F8BA1079
:10500000314804F07BFF0321404804F091FC2E4816
:1050100004F024FFFFF73FB93D4B002631460B203B
:105020001E6003F081F831460C2003F07DF8314614
:10503000142003F079F83146152003F075F83B6829
:10504000FFF70DBB2021334804F072FC1E4804F02A
:1050500005FFFFF7F6B817212F4804F069FC1A483E
:1050600004F0FCFEFFF7EDB81E212C4804F060FCB4
:10507000154804F0F3FEFFF7E4B81D21284804F0BA
:1050800057FCD7F890001E4907F09CFA06F0F0FD97
:1050900000950B4602460C4804F03AFF05211948DA
:1050A00004F046FC084804F0D9FEFB6F23F002032D
:1050B000012B9FD0FFF7EFB8044EFFF753BB034E11
:1050C000FEF770BE20160100E487FF1F4493FF1F08
:1050D000601601007C160100541501001016010035
:1050E00000160100501601004016010030160100A4
:1050F0006F12833AA094FF1F7087FF1FE019010011
:10510000CDCCCC3D001A0100281A0100481A01003C
:10511000E494FF1F401901006419010020190100E7
:10512000081A010038B5164C164A2368101D12F8EB
:10513000011F904241EA0323F9D12360124C03F18D
:1051400000432360114BDB6F022B11D0104B1B6807
:10515000012B00D038BD0F4804F080FE21680D48B7
:1051600004F0CCFE03210C48BDE8384004F0E0BB5D
:1051700020680A4D07F0D2F92860FDF753FBE5E7F8
:105180000C94FF1F9794FF1FB494FF1F4493FF1FBD
:105190008094FF1FE487FF1FC01D01007C92FF1F4A
:1051A00030B5384C384883B0214601F00FFD2368F4
:1051B0003C2B4DD06FF480721344FE2B08D8334B38
:1051C00030491A683248012A18BF0022FCF7EEF96C
:1051D000304B1B68012B01D003B030BD2B4B1B683B
:1051E000012BF9D12C4B2D481B6801930A22002377
:1051F000019904F043FE2268224B002ADB793ADB56
:105200002749284808F0BCF9264808F0F9F9014672
:10521000244804F08DFB25681A4B15F080451BD1FE
:10522000DB798BB1631920491A7A1E4808F0A8F976
:105230001C4808F0E5F901461A4804F079FB0135ED
:10524000E379EDB2AB42EDD8144804F007FEC3E7B2
:10525000FFF768FF2368ADE7144D124C0FCD0FC464
:1052600095E8030044F8040B204620F81419152192
:1052700004F05EFBE8E70E490A4822F0604208F0BD
:105280007FF9C1E79094FF1F64CAFF1F8094FF1F3E
:10529000F494FF1F4887FF1F0CCCFF1FE487FF1FFC
:1052A000EC1D01009C92FF1F181E0100001E010052
:1052B000C41D01002DE9F84F9A4B9B4C1B78052B20
:1052C00008D09A48FCF7FEFAE16A07F019FB0028BB
:1052D00000F09380964E974D002333602B60964BE1
:1052E00092481B68904F012B45D0FCF7A5FAE16965
:1052F0008046606907F05CF80146404607F01EFBF7
:1053000000284CD18948FCF797FAE16807F016FBB2
:1053100008B100232B608548834FFCF767FA2169A9
:1053200007F0EEFA58B1002333602B68814A002B56
:1053300001DBBDE8F88F00231360BDE8F88F7B48E0
:10534000FCF754FAB96907F0DBFA0028EBD177488B
:10535000FCF74CFAD7F8BC100446B86907F02AF8F5
:105360000146204607F0EAFA002873D0786E3060D4
:105370000028D8DBD9E7FCF75FFAE1698046206AAC
:1053800007F016F80146404607F0D8FA0028B9D0D1
:105390006648FCF751FAD7F82090834605E0634849
:1053A000FCF74AFAD7F814908346F969484606F0A4
:1053B000FFFF8246F86D07F0B1F88046386E07F0BF
:1053C000ADF8414606F0F4FF51460746584606F050
:1053D000EFFF0146384607F0F5F8514607464846C4
:1053E00006F0E6FF0146384607F0A0F9414606F010
:1053F000E1FF07F0C3FA286084E74C48FCF762FA43
:10540000216B07F07DFA002849D0494E636E47486A
:105410003360FCF757FA8146E06DE76A454D07F0C7
:105420007DF839468046484606F0C2FF01464046B0
:1054300007F0C8F839468046206B06F0B9FF0146F0
:10544000404607F073F9002106F0B4FF07F096FA22
:10545000286044E73548FCF7C9F98146F86DBC6916
:1054600007F05CF821468046484606F0A1FF014659
:10547000404607F0A7F8D7F8BC108046204606F053
:1054800099FF214606F094FF0146404607F04EF989
:10549000002106F08FFF07F071FA306068E72348BB
:1054A000FCF710FA616B07F02BFA30B1204E214D5A
:1054B000626EE36D32602B6011E71C48FCF702FA64
:1054C000A16A07F01DFA00283FF404AF1748184EF0
:1054D000184DFCF7F7F98146606ED4F8348007F078
:1054E0001DF841460746484606F062FF39468146A8
:1054F000002006F05DFF0146484607F063F841468C
:105500008146A06A06F054FF0146484607F00EF9AE
:10551000394606F04FFF07F031FAE36D30602B603B
:10552000DDE600BFAC94FF1F4493FF1FF494FF1F00
:10553000B894FF1F6492FF1F8092FF1F08B5274891
:1055400004F08CFC0721264804F0F2F9112002F047
:10555000F1FD0621F8B1234804F0EAF9102002F029
:10556000E9FD062100B3204804F0E2F9122002F020
:10557000E1FD062108B31D4804F0DAF9132002F01A
:10558000D9FD062110BB1A4804F0D2F91348BDE832
:10559000084004F063BC174804F0CAF9102002F078
:1055A000C9FD06210028DED1134804F0C1F91220FC
:1055B00002F0C0FD06210028DDD1104804F0B8F942
:1055C000132002F0B7FD06210028DCD00C4804F0BF
:1055D000AFF90248BDE8084004F040BCE487FF1F73
:1055E000241E01002C1E01003C1E01004C1E010067
:1055F000641E0100341E0100441E0100541E0100FF
:105600005C1E010010B5254C2368042B27DC01210A
:105610000B2002F089FD01210C2002F085FD012103
:10562000142002F081FD0121152002F07DFDFF21F3
:10563000162002F0F9FBFF21172002F0F5FBFF21F5
:10564000052002F0F1FBFF21062002F0EDFB2368AC
:1056500001330A2B2360C4BF0023236010BD002147
:105660000B2002F061FD00210C2002F05DFD002105
:10567000142002F059FD0021152002F055FD0021F3
:10568000162002F0D1FB0021172002F0CDFB0021F3
:10569000052002F0C9FB0021D6E700BFEC94FF1FF4
:1056A0002DE9F047294F2A4C00264FF00808102317
:1056B00046F0800A00254FF0200C4FF0400E17F8FE
:1056C000012F2349234884F807804FF0C70901368A
:1056D000C4F800A084F808906372E372A572657341
:1056E00084F80CC084F80EE0E27301F077FB082E1A
:1056F000DDD1194E022002F053FD45F0800A002250
:1057000050234FF0100C4FF0200E4FF0080916F800
:10571000017F0F490F4884F809C04FF0C708A272F3
:105720006273E372A37384F80CE0C4F800A001353F
:1057300084F8079084F80880E77301F04FFB02209B
:1057400002F02EFD4D45D5D1BDE8F0873B87FF1F08
:10575000D494FF1F64CAFF1F2F87FF1F10B50921B4
:1057600082B0974802F0FAFF222002F09FFF954B8B
:105770001B78052B0BD8DFE813F00A010F01140189
:1057800019011E01060007218F4802F0E7FF2220C1
:1057900002F08CFFFF2002F089FFFF2002F086FF5D
:1057A0008A4CFF2002F082FF0821894802F0D6FFD0
:1057B0002168884804F0A2FBFF2002F077FFFF2059
:1057C00002F074FFFF2002F071FF0921824802F00D
:1057D000C5FF21687F4804F091FBFF2002F066FFBF
:1057E000FF2002F063FFFF2002F060FF0C217B48E6
:1057F00002F0B4FF7A4B1C680021204607F09EF8A7
:10580000002800F0C1802046764906F08FFF06F0A0
:105810002FFA002402460B4600946E4804F078FBF1
:10582000FF2002F043FFFF2002F040FFFF2002F0C4
:105830003DFF09216C4802F091FF6C48FCF742F8EB
:1058400006F016FA009402460B46624804F060FB2C
:10585000FF2002F02BFFFF2002F028FFFF2002F0C4
:1058600025FF0C21624802F079FF6048FCF788F8B8
:1058700006F0FEF9009402460B46564804F048FB39
:10588000FF2002F013FFFF2002F010FFFF2002F0C4
:105890000DFF0D21574802F061FF5448FCF76EF8E8
:1058A00006F0E6F9009402460B464A4804F030FB45
:1058B000FF2002F0FBFEFF2002F0F8FEFF2002F0C6
:1058C000F5FE09214C4802F049FF4848FBF7D8FF94
:1058D00006F0CEF9009402460B463E4804F018FB51
:1058E000FF2002F0E3FEFF2002F0E0FEFF2002F0C6
:1058F000DDFE0C21414802F031FF3C48FBF776FF0A
:10590000384906F05FFE06F0B3F9009402460B46F4
:10591000304804F0FDFAFF2002F0C8FEFF2002F03C
:10592000C5FEFF2002F0C2FE0D21354802F016FF31
:105930002E48FBF781FF2B4906F044FE06F098F94C
:10594000009402460B46234804F0E2FAFF2002F0DE
:10595000ADFEFF2002F0AAFEFF2002F0A7FE092103
:10596000284802F0FBFE284B1A48196804F0C6FAD2
:10597000FF2002F09BFEFF2002F098FEFF2002B005
:10598000BDE8104002F092BE04F100403CE7062161
:105990001E4802F0E3FEFAE607211D4802F0DEFE93
:1059A000F5E607211B4802F0D9FEF0E608211A4867
:1059B00002F0D4FEEBE60B21184802F0CFFEE6E63B
:1059C0006C1E0100AC94FF1F801301003887FF1F7D
:1059D000781E0100D487FF1F841E0100901E010065
:1059E0008C92FF1F00007A44A01E0100F494FF1F58
:1059F000AC1E0100BC1E0100CC1E0100D81E01001F
:105A0000E81E0100F81E01002087FF1F501301004F
:105A1000581301006C13010074130100601301009E
:105A20002DE9F0418D4DD5F8B030042B3ED0032B3D
:105A30006ED0012B00F09880022B01D0BDE8F081E0
:105A4000874C8848237240F20E320123214622609F
:105A5000E37101F0C3F9844B1B685B00FF2BC8BFE7
:105A6000FF23042140224FF441702060E171227233
:105A70006372286D06F052FD696906F0A3FD7B494B
:105A8000054606F05BFF002800F0DE802946284628
:105A900006F090FC06F098FF80B20312E072A37249
:105AA0006F497048BDE8F04101F098B96C4C704AFC
:105AB000A379226043F001030822E271A371286DEB
:105AC00006F02CFD696906F07DFD6A4906F07AFD55
:105AD00006F07AFF644B684A1B68126893FBF2F386
