:1000000000800020BD010000518900000989000026
:100010000989000009890000098900000989000098
:100020000989000009890000098900005189000040
:100030005189000009890000697F00006D8000007F
:100040005189000051890000518900005189000048
:100050005189000051890000518900005189000038
:100060005189000051890000518900005189000028
:100070005189000051890000518900005189000018
:100080005189000051890000518900005189000008
:1000900051890000518900005189000051890000F8
:1000A00051890000518900005189000051890000E8
:1000B00051890000557500006175000065750000EC
:1000C0007175000075750000797500005189000098
:1000D00051890000518900005189000051890000B8
:1000E00051890000518900005189000051890000A8
:1000F00051890000E5AB00005189000045960000E1
:10010000518900005D99000051890000518900006B
:100110005189000051890000518900005189000077
:100120005189000051890000518900005189000067
:100130005189000051890000518900005189000057
:100140005189000051890000518900005189000047
:100150005189000051890000518900005189000037
:1001600051890000ED9B0000518900005189000079
:100170005189000051890000518900005189000017
:100180005189000051890000518900005189000007
:1001900051890000518900005189000051890000F7
:1001A00051890000518900005189000051890000E7
:1001B000518900005189000051890000564B4CF2D2
:1001C000205210B51A804DF628121A8000BF00BFC9
:1001D00008F0C2FB514B4FF010621A60504A9A600F
:1001E000504ADA60504A136813F4807304D14F49BF
:1001F0000B604FF4A85313604D4B1A78110703D5C9
:100200001A7842F008021A704A4B4B492A221A7097
:100210004A4A4B4B8B4204D252F8040F43F8040B6A
:10022000F8E7484B484900228B4202D243F8042B9E
:10023000FAE74649464A002352F8230041F82300D2
:1002400001336F2BF8D1434B434A802103F8011B44
:100250009342FBD1414B3D4A1A60414B8A221A70AE
:10026000A3F5805324225A70A0221A709A7992071B
:10027000FCD59A79D406FCD43A4A937903F00C035E
:10028000082B384BF9D103221A7140225A719A79FE
:100290009006FCD5334A9179324B4906FBD5324A58
:1002A000324911600221516020221A709A7902F0BD
:1002B0000C020C2AFAD12E4B2E4A1A602E4B2F4AD2
:1002C0001A6000225A60072243F8042C2C4AC3F813
:1002D0000C2D62B608F020FE144B1B68DA0705D51A
:1002E000284808F0FDFB284B284A1A60284B1B7849
:1002F0005B0609D5244C254B22689A4204D121483B
:1003000008F0EEFB002323600CF06CFF08F02AFBE2
:1003100008F058FAFEE700BF0E2005403080044088
:10032000823F04000100002B10D0034014D0034092
:1003300002D0074000E007402092FF1FEC2D010093
:100340002087FF1F2092FF1FECD0FF1F0082FF1F9E
:100350000000000000E400E05FE400E008ED00E0E1
:100360000050064000400640448004400000030165
:1003700004800440C010050014E000E0FF76010096
:10038000000020208B48D85D1CE00340A5C3945A90
:1003900000F00740FFFFFFFFFFFFFFFFFFFFFFFF32
:1003A000FFFFFFFFFFFFFFFFFFFFFFFFFFFFFFFF5D
:1003B000FFFFFFFFFFFFFFFFFFFFFFFFFFFFFFFF4D
:1003C000FFFFFFFFFFFFFFFFFFFFFFFFFFFFFFFF3D
:1003D000FFFFFFFFFFFFFFFFFFFFFFFFFFFFFFFF2D
:1003E000FFFFFFFFFFFFFFFFFFFFFFFFFFFFFFFF1D
:1003F000FFFFFFFFFFFFFFFFFFFFFFFFFFFFFFFF0D
:10040000FFFFFFFFFFFFFFFFFFFFFFFFDEF9FFFF23
:1004100010B5054C237833B9044B13B10448AFF33E
:1004200000800123237010BD2092FF1F00000000F8
:10043000E82D0100084B10B51BB108490848AFF37F
:1004400000800848036803B910BD074B002BFBD0A0
:10045000BDE81040184700BF000000002492FF1FB5
:10046000E82D01002092FF1F00000000F0B400F111
:100470002C06164F00243146031F00F15C0243F89E
:10048000044FB34241F8047F4FF0000542F8044F97
:10049000F5D100230E4A0F49C0F89050C0F894508F
:1004A000C0F89850C0F89C50C0F8A050C0F8B050A8
:1004B000C0F8A420C0F8AC20C0F8A81080F8B8306C
:1004C00080F8B93080F8D030F0BC70470000A04010
:1004D000000048430000C8C270B5CD1D00F1900473
:1004E00000F1A00615F8010F28380CF0FFFB44F8C6
:1004F000040FB442F6D170BD01392DE9F8438146AD
:100500001546032900F2D280DFE801F0A77D5302EF
:10051000537A107A03F02F0300EB03200CF0E6FB74
:1005200063490CF0EBFCC9F82400EB7AA87A03F0DD
:100530002F0300EB03200CF0D9FB5D490CF0DEFC2F
:10054000C9F828006B7B287B03F02F0300EB032006
:100550000CF0CCFB56490CF0D1FCD9F80040C9F89E
:100560002C0009F13006C84609F16005002701E0BA
:1005700058F8044F306821460CF0C8FD0137214679
:1005800028B1D9F8B4000CF0ADFD00B134602146BB
:1005900028680CF09DFD0436464920B120460CF039
:1005A000B5FD00B12C600C2F05F10405E0D1BDE8CC
:1005B000F883537A107A03F02F0300EB03200CF03A
:1005C00095FB3B490CF09AFCC9F81800EB7AA87A25
:1005D00003F02F0300EB03200CF088FB34490CF0F0
:1005E0008DFCC9F81C006B7B287B03F02F0300EB0C
:1005F00003200CF07BFB2E490CF080FCD9F8004066
:10060000C9F82000ADE7537A107A03F02F0300EB0E
:1006100003200CF06BFB26490CF070FCC9F80C00B1
:10062000EB7AA87A03F02F0300EB03200CF05EFBBB
:100630001F490CF063FCC9F810006B7B287B03F0AA
:100640002F0300EB03200CF051FB19490CF056FC72
:10065000D9F80040C9F8140083E7537A107A03F000
:100660002F0300EB03200CF041FB11490CF046FC7A
:10067000C9F80000EB7A0446A87A03F02F0300EBD8
:1006800003200CF033FB0A490CF038FCC9F80400D5
:100690006B7B287B03F02F0300EB03200CF026FB81
:1006A00003490CF02BFCC9F808005AE7046858E726
:1006B00000007A440000A0402DE9F04190F8D040BD
:1006C00084B0202364008DF80530E4B20423804612
:1006D0008DF804408DF806300327204609F0DAF83B
:1006E00002210DF1050009F0DFF88DF8044006F055
:1006F000ABF830B3092140480AF00EF9002310226C
:1007000021463E4807F070FD01213D480AF004F9FA
:10071000002310229DF80510384807F065FD0121DF
:1007200037480AF0F9F8002310229DF806103348E4
:1007300007F05AFD012132480AF0EEF82F4807F081
:1007400043FD02208DF8044008F098FB06F07CF889
:1007500000284CD102AE002409F0BCF870B3072C7D
:100760001FD101E009F0C6F809F0B4F80028F9D16A
:1007700006F06AF810B1214807F026FD9DF80B003D
:100780009DF80C109DF80D209DF80E30C8F8BC00A7
:10079000C8F8C010C8F8C420C8F8C83004B0BDE814
:1007A000F08109F0A7F8054606F8010B06F04CF8B1
:1007B00070B9013409F08EF80028D0D1072CD3D0BD
:1007C00006F042F878B9013FD8D09DF8044084E79C
:1007D000E9B200231022094807F006FD012108486C
:1007E0000AF09AF8E5E7054807F0EEFCEBE7072189
:1007F00004480AF091F8ADE798130100BC87FF1F89
:10080000741A0100A413010090F8C000704700BFE3
:1008100090F8BC00704700BF90F8C400704700BF5C
:1008200090F8C800704700BF0C2994BF50F8210011
:10083000002070472DE9F0410B4E8046041F00F167
:100840002C0754F8045F314628460CF041FC30B1C7
:10085000D8F8B41028460CF059FC00B12E46BC4222
:10086000EFD13046BDE8F081000020412DE9F04194
:10087000D0F8B4704FF00008041F00F12C0654F8B3
:10088000045F394628460CF041FC084948B1284627
:100890000CF01EFC414620B128460CF037FC00B19C
:1008A000A846B442EBD14046BDE8F0810000A0402C
:1008B0002DE9F047D0F8B47082464FF00009041FCC
:1008C00000F12C064FF0000854F8045F3946284622
:1008D0000CF01CFC0C4950B128460CF0F9FB30B16F
:1008E000484629460CF04EF908F101088146B44209
:1008F000EAD1CAF8D48040460CF0F8F901464846DF
:100900000CF0FCFABDE8F0870000A040D0F8D4005D
:10091000704700BF38B5D0F89840D0F894502146C1
:1009200028460CF0D5FB00B92C46204638BD00BF48
:10093000D0F8CC302DE9F041002B7CD1D0F8986074
:10094000D0F894500446314628460CF01BF9D4F8F0
:100950009C70394680460CF015F97F490CF0CEFAB0
:100960004FF07C5104460CF0D1FB002861D04FF0D1
:100970007C5128460CF0CAFB4FF07C51002861D115
:1009800028460CF0A5FB38B14FF07C5130460CF0F6
:10099000BDFB002840F0A8804FF07C5128460CF0A9
:1009A000B5FB002861D14FF07C5128460CF0AEFB1E
:1009B000002840F0A2804FF07C5128460CF0A6FBA6
:1009C00000286DD14FF07C5128460CF081FB4FF090
:1009D0007C5110B330460CF099FB38B14FF07C518C
:1009E00038460CF075FB002840F0B1804FF07C5188
:1009F00030460CF06DFB002862D04FF07C51384639
:100A00000CF084FB002840F0A48038464FF07C5165
:100A10000CF05EFB68B1514C11E028460CF058FB1D
:100A20000028E3D128464FF07C510CF051FB002800
:100A300046D1BDE8F08100EB8300D0F8904020461D
:100A4000BDE8F08130460CF061FB4FF07C5100288E
:100A50003ED038460CF05AFB0028F0D14FF07C51C4
:100A600028460CF035FB002859D14FF07C51304618
:100A70000CF02EFB002840D04FF07C5138460CF093
:100A800045FB002841D14FF07C5130460CF03EFB35
:100A900068B14FF07C5138460CF01AFB00284FD15A
:100AA0004FF07C5130460CF013FB00288AD04FF0F9
:100AB0007C5138460CF00CFB002883D02C46BEE756
:100AC00030464FF07C510CF003FB0028B1D09CE77E
:100AD00028460CF0FDFA0028C7D04FF07C51304674
:100AE0000CF014FB0028C0D04FF07C5138460CF0BD
:100AF0000DFB00283FF450AF18E04FF07C5130461A
:100B00000CF004FB0028CBD0C3E7394628460CF094
:100B100039F84FF07C510CF03DF904468FE74FF067
:100B20007C5138460CF0F2FA00289ED03946304607
:100B30000CF028F84FF07C510CF02CF904467EE7BD
:100B400040464FF07C510CF025F9044677E73446D7
:100B500075E73C4673E700BF000040400000A0C2BC
:100B600070B50446FFF7E4FE4FF07C510CF0CEFA6E
:100B700040B3D4F894604FF07C5130460CF0C6FA84
:100B8000D4F89850F8B9D4F89C404FF07C512846DE
:100B90000CF0BCFA58B1294630460CF0B7FA30B127
:100BA000214628460CF094FA08B12C4621E04FF07B
:100BB0007C5120460CF0AAFA20B1284621460CF0C0
:100BC000A5FA80B970BD304629460CF081FAD4F8F8
:100BD0009C400028D9D0304621460CF079FA0028F4
:100BE000D3D0344605E0304621460CF08FFA002879
:100BF000E8D0204670BD00BF2DE9F04F90F8D0300E
:100C000091B007465B008DF80830FFF755FDD7F827
:100C1000C400D7F8C840D7F8C030D7F8BC2097F840
:100C2000D0108DE81100C94805F014FF30223D2393
:100C300003268DF809208DF80A300DF10A059DF87C
:100C4000089049F00108404608F024FE0DF1090023
:100C5000022108F029FE8DF80880424602AB0020F0
:100C60005040082410F0800F4FEA400018BF80F079
:100C70000700013CC0B2F5D19D4202D013F8012F0C
:100C8000EEE708F007FE05F0DFFD002840F07C826B
:100C900002208DF8089008F0F1F805F0D5FD002845
:100CA00040F0B8820DF10C0AD146002408F012FE83
:100CB000002843D0032C34D101E008F01BFE08F0DB
:100CC00009FE0028F9D105F0BFFD10B1A04807F0DA
:100CD0007BFA312303268DF809308DF80A609DF8E0
:100CE000089049F00108404608F0D4FD0DF10900D4
:100CF000022108F0D9FD8DF80880424602AB0020A1
:100D00005040082410F0800F4FEA400018BF80F0D8
:100D10000700013CC0B2F5D19D4228D013F8012F45
:100D2000EEE708F0E7FD09F8010B804605F08CFDC1
:100D300068B9013408F0CEFD0028BBD1032CBED029
:100D400005F082FD78B9013E7FF479AFC1E75FFA23
:100D500088F1002310227E4807F046FA01217D48E1
:100D600009F0DAFDE5E77A4807F02EFAEBE708F03C
:100D700091FD05F069FD002840F0C58102208DF845
:100D8000089008F07BF805F05FFD002840F03D82F8
:100D90000DF10C09002408F09DFD002844D0032C1F
:100DA00035D101E008F0A6FD08F094FD0028F9D146
:100DB00005F04AFD10B1664807F006FA3422012317
:100DC0008DF809208DF80A3003269DF8089049F027
:100DD0000108404608F05EFD0DF10900022108F00F
:100DE00063FD8DF80880424602AB00205040082485
:100DF00010F0800F4FEA400018BF80F00700013C60
:100E0000C0B2F5D19D4228D013F8012FEEE708F0CB
:100E100071FD09F8010B804605F016FD68B9013433
:100E200008F058FD0028BAD1032CBDD005F00CFD08
:100E300078B9013E7FF453AFC0E75FFA88F1002331
:100E40001022434807F0D0F90121424809F064FD1F
:100E5000E5E73F4807F0B8F9EBE708F01BFD05F0C0
:100E6000F3FC002840F00E8102208DF8089008F075
:100E700005F805F0E9FC002840F0D6810DF10C09D9
:100E8000002408F027FD002800F08480032C72D194
:100E900001E008F02FFD08F01DFD0028F9D105F054
:100EA000D3FC10B12A4807F08FF9012212238DF8E4
:100EB00009208DF80A304FF003089DF808402046BD
:100EC00008F0E8FC02210DF1090008F0EDFC8DF8B6
:100ED000084005F0B9FC30B309211F4809F01CFD9A
:100EE0000023102221461A4807F07EF901211948F3
:100EF00009F012FD002310229DF80910144807F094
:100F000073F90121134809F007FD002310229DF811
:100F10000A100F4807F068F901210E4809F0FCFC9F
:100F20000B4807F051F906208DF8084007F0A6FF9E
:100F300005F08AFC002840F0728103AD002608F01D
:100F4000C9FC00283FD0162E2FD109E0AC130100B8
:100F5000BC87FF1F741A01009813010008F0CAFC37
:100F600008F0B8FC0028F9D105F06EFC1626002820
:100F70007DD1152035E008F0BDFC09F8010B804655
:100F800005F062FC00285BD1013408F0A3FC0028C6
:100F90007FF47CAF032C3FF47EAF05F055FC0028B6
:100FA0006CD1013E7FF411AF7FE708F0A3FC05F898
:100FB000010B044605F048FC00284DD1013608F02D
:100FC00089FC0028BFD1162ECAD005F03DFC0028B0
:100FD0004DD1B8F101087FF470AF701E002840F3C6
:100FE0002A82002303AA1C4612F8011B08254C4044
:100FF00014F0800F4FEA440418BF84F00704013D49
:10100000E4B2F5D101338342EEDB9DF821808948BB
:101010004146224605F01EFD162EC146A34602D1CA
:10102000A04500F0138197F8D0108348CDF800B0A8
:101030004B46324605F03CFD002011B0BDE8F08F74
:101040005FFA88F1002310227C4807F0CDF80121D7
:101050007B4809F061FC97E7E1B200231022774852
:1010600007F0C2F80121764809F056FCA6E773485C
:1010700007F0AAF8162EACD11520B2E76F4807F09A
:10108000A3F88EE709216F4809F046FC2346102299
:1010900041466A4807F0A8F80121694809F03CFC7C
:1010A000234610229DF80910644807F09DF801219D
:1010B000634809F031FC102223469DF80A105F486E
:1010C00007F092F801215E4809F026FC21460DF157
:1010D0000B0002AA12F8014B6140C9B2082311F0BB
:1010E000800F4FEA410118BF81F00701013BC9B2EF
:1010F000F5D19042EED11022504807F075F84F48D4
:1011000007F062F8B0E609214E4809F005FC2346D5
:1011100010224146494807F067F80121484809F084
:10112000FBFB234610229DF80910444807F05CF8A9
:101130000121434809F0F0FB102223469DF80A10D4
:101140003E4807F051F801213D4809F0E5FB2146F2
:101150000DF10B0002AA12F8014B6140C9B208233D
:1011600011F0800F4FEA410118BF81F00701013BE8
:10117000C9B2F5D19042EED11022304807F034F8D0
:101180002E4807F021F8F9E509212E4809F0C4FBA3
:10119000234610224146294807F026F80121284815
:1011A00009F0BAFB234610229DF80910234807F0E6
:1011B0001BF80121224809F0AFFB102223469DF8BD
:1011C0000A101E4807F010F801211D4809F0A4FB81
:1011D00021460DF10B0002AA12F8014B6140C9B281
:1011E000082311F0800F4FEA410118BF81F0070179
:1011F000013BC9B2F5D19042EED110220F4806F062
:10120000F3FF0E4806F0E0FF42E507210E4809F023
:1012100083FBBDE507210C4809F07EFB42E5072171
:10122000094809F079FB88E60721074809F074FBB3
:1012300024E600BFE01301002C140100BC87FF1F4F
:10124000741A010098130100A41301009DF80C30DA
:1012500097F8D020B3EB420F7FF4EEAE9DF80D303F
:10126000012B7FF4E9AE9DF80E30122B7FF4E4AE33
:101270009DF810309DF80F0003EB00200BF036FDB9
:1012800075490BF087FDD7F8B010C7F890000446F9
:101290000BF03CFF08B1C7F8B040D7F8AC102046BF
:1012A0000BF016FF08B1C7F8AC40A7F1040907F12D
:1012B000300607F160054FF00C089AF806309AF8EE
:1012C000050003EB00200BF011FD64490BF062FDFB
:1012D00049F8040F316804460BF0FAFE0AF1020ADD
:1012E00030B1D7F8B41020460BF006FF00B13460DF
:1012F000296820460BF00AFF043600B12C60B8F1D3
:10130000010805F10405D8D19DF81E309DF81D0097
:1013100003EB002002300BF0E9FC51490BF0EEFD2D
:10132000014650480BF0EAFD4F490BF029FC4F49AC
:101330000BF030FD054609F09BFD0446284609F0F8
:1013400097FD4B4909F006FE4A49054620460BF039
:1013500021FD49490BF016FC4849044628460BF08C
:1013600019FD014620460BF00DFC01464FF07E5062
:101370000BF0C4FD42490BF003FC9DF81F209DF8C3
:101380002030C7F8940003EB022009300BF0AEFCCC
:101390003C490BF0B3FD014632480BF0AFFD32493A
:1013A0000BF0EEFB31490BF0F5FC054609F060FD52
:1013B0000446284609F05CFD2D4909F0CBFD2D4976
:1013C000054620460BF0E6FC2B490BF0DBFB2B49D6
:1013D000044628460BF0DEFC014620460BF0D2FB0B
:1013E00001464FF07E500BF089FD25490BF0C8FBFC
:1013F000C7F8980004463846FFF7B2FBD7F8A410A8
:1014000005460BF065FE08B1C7F8A450D7F8945014
:10141000204629460BF07AFEB0B92946D7F8A80035
:101420000BF056FE10B12C46C7F8A840164805F040
:1014300011FB012001E69DF82190144849464246DF
:10144000C34605F007FBEEE5D7F8A81020460BF0E1
:101450005DFE0028E8D1E9E71357053B2003C839B2
:10146000001601470AD7E33FE17A644000007A445E
:1014700000004040A40D8F395A80473A46A6DB331E
:1014800033938843002C014704140100E01301004A
:101490002DE9F8430026D0F8B480C0F8906081466A
:1014A000041F00F12C0754F8045F414628460BF056
:1014B0002DFE094950B128460BF00AFE30B13046E6
:1014C00029460BF05FFB0646C9F89000BC42EAD102
:1014D0003046BDE8F88300BF0000A04002299ABF53
:1014E00000EB8100D0F89400002070473E2998BF9F
:1014F00080F8D010704700BF90F8B800704700BF68
:1015000090F8B900704700BFC0F8CC10704700BF1A
:1015100080F8B810704700BF80F8B910704700BF5E
:1015200030B50F4CC0F8B41083B020460D4606F01D
:101530004BFE204606F048FE28460AF081FF0225B1
:1015400002460B460095204606F096FE204606F021
:101550003BFE204603B0BDE8304006F035BE00BF7C
:10156000BC87FF1F70B500F5595506460C3500F1D4
:1015700028042046DC34FEF779FFAC42F9D106F5A9
:101580008275012428460021FFF7C2FF2146284624
:101590000134FFF7ABFF3F2C05F1DC05F2D143F23C
:1015A000546400250548064A064B35550021306134
:1015B0007161B261F361304670BD00BF00007A44D2
:1015C000000048430000C8C270B500F559560C36FB
:1015D00000F58274002507E0012520460021DC3457
:1015E000FFF79AFFB4420AD02046FFF785FF002894
:1015F000F3D02046FFF784FF0028EDD170BD2846C8
:1016000070BD00BF2DE9F04143F2586300F5595613
:10161000374600228046C2500C36183700F58274D7
:1016200002E0DC34B4420DD02046FFF765FF00280D
:10163000F7D020463D68FFF769F9DC342844B4420E
:101640003860F1D143F2586358F80300BDE8F081E7
:1016500038B50C68DC2304F00F0403FB04001546C6
:101660002830FEF739FF012D00D038BD002CFCD00A
:10167000064806F0A9FD2146044806F0F5FD0B21B9
:101680000348BDE8384009F047B900BFBC87FF1FD9
:101690007C140100F0B50D6805F0F006302E83B023
:1016A0000F46044605F00F053CD032DD402E18D021
:1016B000502E32D10426072D17DDDC2303FB054411
:1016C000283420460121FFF723FF20460121FFF7A0
:1016D00023FF3A463146204603B0BDE8F040FEF70E
:1016E0000BBF072D4FF00306E7DC012AE5D12946A1
:1016F0000D48019206F0B8FD019A0C48114609F018
:101700000BF93146084806F0AFFD074806F05CFDCE
:10171000D3E7202E01D10126CDE7072DCDDC042E05
:10172000CBDCE2E70226C6E7BC87FF1F8814010076
:10173000704700BF704700BF2DE9F043002383B01E
:101740000646036000F58274012504E001353F2D53
:1017500004F1DC0469D02046FFF7CEFE0028F5D066
:10176000504805F077F929464F4805F073F92046AF
:10177000FFF742FA2046FFF78BFE0AF061FE0246B1
:101780000B464A4805F066F92046FFF753F88046B5
:101790002046FFF76BF8074640460AF051FE8046A8
:1017A000384689460AF04CFE42464B46CDE90001D8
:1017B0003F4805F04FF900212046FFF78FFE012139
:1017C00080462046FFF78AFE074640460AF038FE6C
:1017D0008046384689460AF033FE42464B46CDE9FC
:1017E0000001344805F036F92046FFF751FE014666
:1017F00030680BF0C7F930602046FFF7B1F9B169E6
:101800000BF066FC002833D12046FFF783F8F1691E
:101810000BF07CFC002899D02046FFF77BF80135BF
:101820003F2DF06104F1DC0495D170680BF05EFA95
:10183000014630680BF062FB7169306004460BF0C2
:1018400065FC00B17461316920460BF041FC00B1C8
:1018500034610B2007F0DCFA43F25463F35C60B9A7
:101860009BB143F254630122F25403B0BDE8F0830C
:101870002046FFF775F9B061C6E753B943F25463E8
:101880000022F25403B0BDE8F0830B4805F010F9D4
:10189000E7E70A4805F0F6F843F254630022F254F1
:1018A000F0E700BF741601008C140100C814010099
:1018B000DC14010008150100241501005C1501006D
:1018C00070B5114B836000F5595506460C3500F58F
:1018D000827402E0DC34AC4213D02046FFF70CFEE9
:1018E0000028F7D02046FEF7A5FFB1680BF0F0FB0B
:1018F0000028EFD02046FEF79DFFDC34AC42B060FC
:10190000EBD1B06870BD00BF0000A04070B50023EF
:1019100000F559550646C3600C3500F5827402E0A7
:10192000DC34AC4213D02046FFF7E6FD0028F7D0A8
:101930002046FEF79BFFF1680BF0E8FB0028EFD094
:101940002046FEF793FFDC34AC42F060EBD1F06848
:1019500070BD00BF0068704741607047F8B500F582
:1019600059550F4616460C3500F5827402E0DC34FA
:10197000AC420FD02046FFF7BFFD0028F7D020462D
:101980003946FFF7C1FD20463146DC34FFF7C8FD7C
:10199000AC42EFD1F8BD00BF2DE9F84300F5595531
:1019A00043F250632E4600278046C7504FF000098F
:1019B0000C35103600F5827402E0DC34A54213D0F9
:1019C0002046FFF799FD0028F7D0336801333360D4
:1019D0002046FEF7ADFF1D490BF098FB88B9DC34BB
:1019E000A54207F10107EBD143F2506358F8030019
:1019F000C01B0BF07BF9014648460BF07FFABDE8AF
:101A0000F8832046FEF794FF014648460BF0BAF8EB
:101A100081462046FEF78CFFD8F820100BF076FBAD
:101A200070B92046FEF784FFD8F824100BF050FB65
:101A30000028C2D02046FEF77BFFC8F82400BCE790
:101A40002046FEF775FFC8F82000EAE700008CC2C8
:101A5000006A7047406A7047F8B500F55955074667
:101A600000260C3500F5827402E0DC34AC420FD065
:101A70002046FFF741FD0028F7D02046FEF718FF6B
:101A8000014630460BF07EF8DC34AC420646EFD11E
:101A900043F25063F8580BF029F9014630460BF039
:101AA0002DFAF8BD2DE9F04F06468FB083488B46DE
:101AB00004F078FF814804F075FF804804F072FF5D
:101AC00043F250633046F2580D92FFF79BFD736866
:101AD0000C93074630680AF0B3FC804630468946CE
:101AE000FFF7BAFF82463046B468F568FFF754FF47
:101AF0000AF0A6FCCDE90A01214628460BF040F881
:101B00006F490BF047F90AF09BFCCDE90801284624
:101B10000AF096FCCDE9060120460AF091FCCDE9D9
:101B2000040150460AF08CFC0D9A0C9BCDE9020191
:101B3000CDE90089114663483A4604F033FF5F4817
:101B400004F030FF06F582764FF001094FF0000AED
:101B500007E009F10109B9F13F0F06F1DC0600F0D9
:101B6000A5803046FFF7C8FC0028F2D03046FEF7CB
:101B70004BFE3046FEF74CFE3046FEF74DFE30463B
:101B8000FEF74EFE0821504808F0C6FE49464F4871
:101B900006F06AFBB9F1090F40F38B8002214C4833
:101BA00008F0BAFE3046FFF773FC0AF049FC5FFA12
:101BB0008BF802460B46CDF80080444806F05CFBEB
:101BC0000121444808F0A8FE5546002420E00621E3
:101BD000414808F0A1FE29463C4806F045FB022199
:101BE0003E4808F099FE21463046FEF71DFE0AF0F9
:101BF00027FCCDF8008002460B46344806F03CFB3B
:101C000001340121334808F087FE0C2C09D03D46F1
:101C1000092D05F10107DADC0121314808F07CFECD
:101C2000D5E72A4806F0D0FA09212E4808F074FEBC
:101C300000213046FFF752FC0AF002FC0224024663
:101C40000B460094214806F017FB0A21264808F0AD
:101C500063FE01213046FFF741FC0AF0F1FB0094DE
:101C600002460B46194806F007FB0A211F4808F0F8
:101C700053FE21463046FFF731FC0AF0E1FB0094A9
:101C800002460B46114806F0F7FA0121184808F001
:101C900043FE09F101090D4806F096FAB9F13F0F2C
:101CA0000AF10C0A06F1DC067FF45BAF0FB0BDE869
:101CB000F08F01210A4808F02FFE6FE7741601002B
:101CC00000007A440C180100AC180100BC87FF1F0B
:101CD00040260100B8180100BC180100641A010078
:101CE000741A0100C4180100D0180100DC180100AA
:101CF000E81801002DE9F04F85B000F582758A469D
:101D000003929B462E464FF0010806E008F10108B9
:101D1000B8F13F0F06F1DC067BD03046FFF7ECFB55
:101D20000028F3D000230A2251467D4806F05CFAD1
:101D300001217C4808F0F0FD03980AF081FB0023A4
:101D40000246009376480B4606F096FA0121754844
:101D500008F0E2FD5946724806F086FA0121714802
:101D600008F0DAFD41466E4806F07EFA01216D4822
:101D700008F0D2FD00244FF0020921463046FEF75C
:101D800053FD0AF05DFBCDF8009002460B46644817
:101D900006F072FA01340121624808F0BDFD082CFA
:101DA0004FF00207E9D100213046FFF797FB0AF018
:101DB00047FB009702460B46594806F05DFA0121A1
:101DC000584808F0A9FD01213046FFF787FB0AF0CB
:101DD00037FB009702460B46514806F04DFA0121A9
:101DE000504808F099FD39463046FFF777FB0AF076
:101DF00027FB009702460B46494806F03DFA08F1DA
:101E00000108474806F0E0F9B8F13F0F06F1DC069B
:101E100083D101274FF0000904E001373F2F05F17E
:101E2000DC0579D02846FFF767FB0028F5D00023B2
:101E30000A2251463C4806F0D7F90121394807F0FB
:101E4000FDFA03980AF0FCFACDF8009002460B4622
:101E5000354806F011FA0121324807F0EFFA5946E9
:101E6000314806F001FA01212E4807F0E7FA394619
:101E70002D4806F0F9F901212A4807F0DFFA00247D
:101E80004FF0020821462846FEF7CEFC0AF0D8FAA9
:101E9000CDF8008002460B46234806F0EDF90134E8
:101EA0000121204807F0CAFA082C4FF00206E9D1B8
:101EB00000212846FFF712FB0AF0C2FA00960246FC
:101EC0000B46194806F0D8F90121164807F0B6FA72
:101ED00001212846FFF702FB0AF0B2FA00960246FB
:101EE0000B46114806F0C8F901210E4807F0A6FA82
:101EF00031462846FFF7F2FA0AF0A2FA00960246A7
:101F00000B46094806F0B8F90137074806F05CF9B6
:101F10003F2F05F1DC0585D105B0BDE8F08F00BF8E
:101F2000BC87FF1F88140100A087FF1FF8B53D483C
:101F30003D4C3E4D3E4E04F035FD3E4B3E4A3F4843
:101F40003F495A6011271F703E4F3F4AD8601C61BD
:101F500000203E4C5D615E623D4DDF624FF07C567D
:101F60000C2799619A623B493B4A18635C633B4882
:101F70003B4C9D635E6440F61C450A261F65394F45
:101F80009964DA64022101221862C3F8BC4000207F
:101F900032249D66DE6664254FF49676DF61DF634A
:101FA00041F20407597059721A725A6583F8400059
:101FB000C3F89C401C665E66DE659D654FF05A0C5A
:101FC0001F674FF47A7E9867D967C3F88000C3F81B
:101FD0008840C3F8A440244FC3F8A000234EC3F8A0
:101FE000AC20C3F8B010FF2441F28831052083F8FB
:101FF000C02040F2D662C3F8B450C3F874C0C3F82E
:102000008CE0C3F89070C3F89460C3F8A840A3F8BC
:10201000BA00C3F88410A3F8B810A3F89820A3F866
:102020009A20F8BDF418010000004040333383408B
:10203000CDCCCC3D2494FF1F20A1070066668640CE
:10204000CDCC4C40000020C1000082420000204264
:102050000000A0409A9979400AD7233D333373405A
:102060009A99993ECDCC4C3E0000684200C0204475
:10207000F0B54FF47A6085B006F000FF00210F2024
:1020800006F0D4FE00210E2006F0D0FE0021112023
:1020900006F0CCFE0021102006F0C8FE0021122020
:1020A00006F0C4FE0021132006F0C0FE01210B2023
:1020B00006F0BCFE01210C2006F0B8FE0121142020
:1020C00006F0B4FE0121152006F0B0FE0121162015
:1020D00006F0ACFE0121172006F0A8FE0121052024
:1020E00006F0A4FE984C994D0121062006F09EFEB4
:1020F00001210D2006F09AFE20880AF0F3FD01462A
:10210000162006F0FDFD20880AF0ECFD01461720A0
:1021100006F0F6FD20880AF0E5FD0146052006F0F0
:10212000EFFD20880AF0DEFD00240146062006F0BF
:10213000E7FD00942346864A8649874804F0B2FEAC
:10214000E6B232468149844804F05AFE2B797F4931
:1021500081486FF30003013432462B7104F046FED0
:10216000082CEDD10924E6B2324678497A4804F0C9
:1021700047FE2B797549784843F001030134324614
:102180002B7104F033FE0D2CEDD1744C4FF0FF3267
:102190002068102105F052FA20684FF0FF3210211C
:1021A00005F024FA20684FF0FF32022105F032FAE0
:1021B00020684FF0FF32022105F036FA00220F218D
:1021C000206805F045FA0C21654808F0A5FB654834
:1021D00005F0FAFF1121644808F09EFB614805F004
:1021E000F3FF44F6206006F007FF5E4805F0ECFFC1
:1021F00017215E4808F090FB5A4805F0E5FF5C4B5C
:102200001B789A0600F1D880594B1B781B0700F108
:10221000DF80574B1B785F0700F1E680544B1B783B
:102220009E0700F1ED80534B1B781D0600F1F480F2
:10223000504B1B785C0600F1FB804E4B1B789806D8
:1022400000F102814B4B1B78590700F10981494B82
:102250001B781A0700F11081464B1B789B0700F191
:102260001781404805F0B0FF72B6434A4CF2205344
:102270004DF628112024138023461180013BFDD107
:102280003E4D3F483F4900234FF480562E80038047
:102290000B8032F80E3C9BB243F0D30322F80E3C85
:1022A00062B69D2007F0A6FA21463748374D08F060
:1022B00033FB2C4805F088FF05F1C4062F462C4659
:1022C000601B06F0EDF904F8010BB442F8D13B783D
:1022D000112B01D0FFF72AFE2D482E4DFFF72AFAC9
:1022E000042004F0ABFA2C4B294800221A60FFF7B7
:1022F0001FFA2A4804F074FA01210D2006F082FD2D
:10230000796D2348FFF728FB7A6C97F84010204836
:10231000FFF724FB2248234B046803941B682249DF
:10232000224A039E006802901268214C2E6081FBB5
:102330000301DB171F48A3EB21130299216013FB54
:1023400002F3038005B0F0BD2487FF1FFC94FF1F3C
:10235000ECCDFF1F20A1070050CCFF1FAC95FF1F45
:1023600014190100BC87FF1F24190100381901004E
:1023700001F0074000F007400E2005400420054012
:1023800006200540162005403C1A01002494FF1F3A
:10239000E495FF1FE095FF1F5092FF1F5492FF1F0F
:1023A00014CEFF1F4887FF1F1F85EB514487FF1F77
:1023B0000495FF1FB895FF1F2121394808F0ACFA9A
:1023C000384805F001FF384B1B781B077FF521AF1C
:1023D0000C21364808F0A0FA324805F0F5FE324BE1
:1023E0001B785F077FF51AAF0E21314808F094FA89
:1023F0002C4805F0E9FE2C4B1B789E077FF513AFA8
:1024000017212C4808F088FA264805F0DDFE2A4BF3
:102410001B781D067FF50CAF0E21284808F07CFACA
:10242000204805F0D1FE244B1B785C067FF505AFF4
:102430001221234808F070FA1A4805F0C5FE1E4B19
:102440001B7898067FF5FEAE13211E4808F064FA4B
:10245000144805F0B9FE184B1B7859077FF5F7AE05
:102460001C21194808F058FA0E4805F0ADFE124B31
:102470001B781A077FF5F0AE1921144808F04CFAC2
:10248000084805F0A1FE0C4B1B789B077FF5E9AED1
:1024900018210F4808F040FA024805F095FEE0E6E2
:1024A00050190100BC87FF1F01F00740741901009B
:1024B000841901009419010000F00740AC190100D3
:1024C000BC190100D0190100E4190100041A01002F
:1024D000201A010070B5464C464D4748E668002377
:1024E0002B70FFF713FA014630460AF0F1FD08B1F0
:1024F00004232B704048FFF7E3F921690AF0E8FD57
:1025000018B12B7843F010032B703B48FFF7A0FA6B
:10251000A16A0AF0FBFD18B12B7843F040032B7041
:10252000002335486B70FFF795FAE16A314E0AF0E7
:10253000CFFD08B10123737000232F48EB70FFF724
:10254000E5F905462C482B4EFFF7BAF90146284617
:102550000AF016FBE16B0AF0D9FD08B10123F37014
:10256000264D254800232B70FFF7D0F9616A0646F7
:10257000E0680AF005FB014630460AF0C7FD08B1E5
:1025800004232B701C48FFF79BF9616A06462069FB
:102590000AF0F8FA014630460AF09AFD18B12B7895
:1025A00043F010032B701448FFF752FAA16B064654
:1025B000A06A0AF0E5FA014630460AF0A7FD18B114
:1025C0002B7843F040032B7000230B486B70FFF710
:1025D00041FAA16B0546E06A084C0AF0D3FA0146BD
:1025E00028460AF075FD08B10123637070BD00BF75
:1025F0002494FF1F2094FF1FE495FF1FA095FF1F49
:10260000514B1B68002B74D0F0B5504D2B6805332F
:10261000B3F57A7F83B040F38E80002300272B60D0
:102620004B4CD4F8A4000AF061FB0646D4F8A8008D
:102630000AF05CFB31460AF0A3FA39460AF0AAFB1D
:1026400044490AF05BFC31460AF09CFA0AF07EFD30
:102650000146062006F056FA02213F4808F05CF9D0
:102660003E4805F0B1FD06213D4808F055F92868BF
:102670000AF03CFB3B490AF08DFB09F0E1FE022623
:1026800002460B460096354805F0F6FD0D2136480A
:1026900008F042F9D4F8A4000AF028FB074628689D
:1026A0000AF024FB2F490AF075FB0546D4F8A80070
:1026B0000AF01CFB39460AF063FA014628460AF084
:1026C00069FB24490AF01AFC39460AF05BFA09F062
:1026D000B7FE009602460B46204805F0CDFD314678
:1026E0001D4808F019F91D4803B0BDE8F04005F099
:1026F0006BBD174B1D4AD3F8A410D3F8A83012684D
:102700005B1A632B0BDD1A4803FB02F380FB030209
:10271000DB17C3EB62131944062006F0F3B9154822
:1027200003FB022380FB0302DB17C3EB22121144DD
:10273000062006F0E7B918462B600AF0D7FA0949D7
:102740000AF028FB07466BE78895FF1F5493FF1F8D
:102750002494FF1F0000C84240260100BC87FF1FD1
:10276000601A0100CDCCCC3D681A01002887FF1FFC
:102770001F85EB51CBF08D2870B5B548B54C05F0F1
:1027800023FDB34805F020FDB14805F01DFD0D21E6
:10279000B14808F0C1F8D4F8A030012B11D0AF4CEB
:1027A000AB48217800230A2205F01EFD2378052B73
:1027B00067D8DFE813F006010B01100115011A01BB
:1027C00001010921A64808F0A7F8A648FFF778F804
:1027D00021690AF07DFC18B10F21A34808F09CF88C
:1027E000A048FFF793F8E1680AF090FC18B10E21B9
:1027F0009E4808F091F89B48FFF788F805469948ED
:10280000FFF75EF8014628460AF0BAF9E16B0AF0D4
:102810007DFC18B11121964808F07EF89148FFF729
:10282000BBF8A16A0AF072FC18B10C21914808F0BB
:1028300073F88C48FFF7B0F8E16A0AF049FC18B168
:102840000D218D4808F068F88C4B86481B68012BD9
:1028500000F0E880FFF734F821697E4D0AF056FC5D
:1028600078B18048FFF752F8E9680AF031FC40B1CE
:102870007A4B1B78052B00F0E6800821804808F091
:102880004BF802217F4808F047F8122006F0C0FA02
:10289000012800F0AF80112006F0BAFA012800F0FC
:1028A000B380794B1B68012B00F0B780022175487B
:1028B000764C08F031F8764B6548196805F0D4FC81
:1028C000634805F081FC0421724808F025F80B20CC
:1028D00006F09EFA002301460A225D4805F084FCBA
:1028E0000C2006F095FA002301460A22584805F00C
:1028F0007BFC142006F08CFA002301460A2254487F
:1029000005F072FC152006F083FA0A220023014626
:102910004F4805F069FC06215F4807F0FDFF23687A
:10292000DD074FF001014CBF5C485D4807F0F4FF44
:10293000236898074FF001014CBF5848584807F0EA
:10294000EBFF23685A074FF001014CBF534854482E
:1029500007F0E2FF23681B074CBF50485048012195
:1029600007F0DAFF04214F4807F0D6FF112006F0E8
:102970004FFA002301460A22354805F035FC1020A5
:1029800006F046FA002301460A22314805F02CFCE5
:10299000122006F03DFA002301460A222C4805F0D9
:1029A00023FC132006F034FA002301460A222848AB
:1029B000BDE8704005F018BC07213B4807F0ACFFAC
:1029C0005FE70621394807F0A7FF5AE70721384893
:1029D00007F0A2FF55E70721364807F09DFF50E7B3
:1029E0000821354807F098FF4BE70B21334807F0E3
:1029F00093FF46E70E21324807F08EFF112006F0C4
:102A000007FA01287FF44DAF0A212E4807F084FF12
:102A10001D4B1B68012B7FF449AF11212A4807F099
:102A20007BFF43E7FEF74CFF216A0AF06FFB0028AB
:102A30003FF423AF1621254807F06EFF0A212448F2
:102A400007F06AFF1DE70A21214807F065FF18E734
:102A5000BC87FF1F2494FF1F781A01009C95FF1F5D
:102A6000881A0100E495FF1F941A0100A41A0100BE
:102A7000B41A0100C81A0100D81A01006493FF1F9C
:102A80000C1B010040260100B495FF1FE894FF1FB6
:102A90008C95FF1F801B0100881B0100901B01000B
:102AA000E4270100941B0100481B0100181B0100D2
:102AB000201B0100341B01003C1B0100281B0100EE
:102AC000501B0100601B01006C1B0100E81A010093
:102AD000001B01002DE9F04F934C944FE36F012B45
:102AE0008DB000F04981032B50D0914E914DA36FD2
:102AF0009148012B09BF2968296801F1004129602B
:102B000005F098F93368002B40F0CE808A4805F034
:102B100067F9E36F3860012B064600F0D2808749E1
:102B20000AF0F4FA78B9864930460AF0D1FA50B979
:102B3000844A854B12680B920B9A1A6000232B6013
:102B40000DB0BDE8F08FDFF8FC817F4CD8F8003085
:102B50000A930A9823687D4FC01A0AF0C3F83146D9
:102B60000AF018F97A490AF0C9F979490AF0C6F960
:102B700039680AF007F8D8F800300993099B2360F8
:102B8000002338602B600DB0BDE8F08FDFF8C881FE
:102B9000704DD8F80000664E012300220F212B60F3
:102BA00004F056FD2B68012B336800F00381002BE5
:102BB00040F0A6810021D8F80000DFF8B891664DFA
:102BC00004F098FD33681FFA80FBC9F800B0002BB1
:102BD00040F07B810021D8F80000564DDFF878A145
:102BE00004F00EFDB4F89A3040F6E44101FB0BF11D
:102BF000B1FBF0F0C01A00B20AF078F857498346EA
:102C0000D4F890000AF0C6F8014658460AF076F962
:102C1000D9F800302860632BDFF858B100F3498100
:102C200000232B603368002B3FF461AF02214C4836
:102C300007F072FED9F80020D8F8000040F6E4430F
:102C4000002103FB02F804F0DBFCB8FBF0F00AF013
:102C500049F88046B4F89A000AF048F80146404620
:102C600009F08EFF09F0ECFB4FF0020802460B461C
:102C7000CDF800803B4805F0FFFA4146384807F0A0
:102C80004BFE286809F0DCFBCDF8008002460B46BD
:102C9000344805F0F1FA4146334807F03DFE41461D
:102CA0002F4807F039FE22E7234805F099F809F08C
:102CB000C7FB022602460B4600962A4805F0DCFABE
:102CC00024E7244B1B68012B00F02681022B7FF4A4
:102CD00035AF26490AF01AFA30B9254930460AF0CC
:102CE000F7F9002800F04781DFF85880164CD8F833
:102CF0000030079307982368144FC01A09F0F2FFB9
:102D000031460AF047F812490AF0F8F810490AF07B
:102D1000F5F8396809F036FFD8F800300693069BBD
:102D2000386023600AE700BF2494FF1F6C93FF1FE5
:102D3000D895FF1F5C93FF1FFC93FF1F0000FA4311
:102D40000000FAC314CEFF1F3C92FF1F7493FF1FB5
:102D500000007A444087FF1FAC95FF1F17B7D1389A
:102D600040260100BC87FF1FD81B010000C82F4868
:102D700000A08CC61C94FF1F3D68984928460AF0A5
:102D8000A7F930B1284696490AF0C0F900287FF427
:102D9000FDAEDFF85882934DD8F80000924E022322
:102DA00000220E212B6004F053FC2B68012B3368AA
:102DB0007FF4FDAE002B40F000810021D8F8000028
:102DC000DFF86C92894D04F095FC33681FFA80FBA4
:102DD000C9F800B0002B40F0D5800021D8F80000E1
:102DE000834D04F00DFCB4F8983040F6E44A0AFB39
:102DF0000BFBBBFBF0F0C01A00B209F077FF7D4976
:102E00008346D4F8940009F0C5FF014658460AF0FD
:102E100075F8D9F8003028600021D8F800000AFBC6
:102E200003FA04F0EDFBB4F89830BAFBF0F00FFAB7
:102E300080FAC3EB0A03002BB4F8BA20B8BF5B4298
:102E40009342BCBF00232B603368002B3FF44FAE8E
:102E50000221694807F060FDD9F80020D8F8000089
:102E600040F6E443002103FB02F804F0C9FBB4F888
:102E70009810B8FBF0F000B2411A604805F0F4F980
:102E800002215D4807F048FD286809F0D9FA4FF0A3
:102E9000020802460B46CDF80080584805F0ECF9D0
:102EA0000321574807F038FD4146534807F034FDE9
:102EB0001DE6DAF80000002104F0A2FBDBF8003088
:102EC00064389842FFF4ACAEACE60021286804F008
:102ED00097FB40F6E44100230A2201FB0BF1B1FB12
:102EE000F0F1464805F080F90221434807F014FD4F
:102EF000B4F89A10414805F0B7F9D9F800B069E67E
:102F00003E4805F061F90C213E4807F005FD0C2113
:102F10003D4807F001FD4DE63C490AF0F7F858B985
:102F20003B4930460AF0D4F830B93A4A3A4B126875
:102F30000592059A1A6001E6DFF8D880364CD8F879
:102F40000030049304982368344FC01A09F0CAFE75
:102F5000314609F01FFF324909F0D0FF304909F02E
:102F6000CDFF396809F00EFED8F800300393039BBB
:102F700038602360E2E5274A274B12680892089AD6
:102F80001A60DBE50021286804F03AFB40F6E441D2
:102F900000230A2201FB0BF1B1FBF0F1174805F009
:102FA00023F901211F4807F0B7FCB4F89810134823
:102FB00005F05AF9D9F800B00FE7104805F004F908
:102FC000E36F012B4FF00B010CBF1748174807F0B8
:102FD000A3FC0C210C4807F09FFCEEE60070944621
:102FE000007094C64087FF1FD895FF1FAC95FF1F48
:102FF0005C93FF1F17B7D13840260100BC87FF1F25
:10300000C41B0100C81B0100B41B01000000FA43EF
:103010000000FAC314CEFF1F3C92FF1F7493FF1FE2
:1030200000007A44741A01009C1B0100A81B0100D7
:103030001C94FF1F2DE9F043AB4D2B6883B0002B90
:1030400000F08780A94CAA4EE36FAA4FA74D012B31
:1030500000F0BF80D4F88030DFF89082012B00F0C0
:10306000ED80D8F85850D7F80090D8F8548005FB78
:1030700008F54FF47A7000FB05F009F037FE9E4921
:10308000DFF86C820546484609F084FE294609F0BF
:1030900035FF9A4909F07EFE0AF058F8632830603F
:1030A0004BDD2846944909F029FF6423C8F8003015
:1030B000934B38601B68002B48D0E36F8B4D012B7E
:1030C00000F0ED80032B00F0FD80022B00F000816A
:1030D00002218C4807F020FC8B4B186809F0B0F9EE
:1030E000022402460B460094884805F0C5F82146A4
:1030F000874807F011FC2146824807F00DFC316833
:10310000824805F0B1F80621824807F005FC3868CE
:10311000794909F03FFE09F093F9009402460B4605
:103120007A4805F0A9F803217B4807F0F5FB7748BA
:1031300003B0BDE8F04305F047B80028BCBF00234A
:10314000C8F800306E4B1B68002BB6D103B0BDE849
:10315000F0837248654CFEF77FFC7149A76EE66EFE
:1031600009F018FE0AF018F8226F636FD21B9B1B40
:1031700080B29342A0EB0700C0F29D8003FB00F3F6
:1031800093FBF2F333445A4E5E483360022107F05A
:10319000C3FB31685D48574F05F066F80221594876
:1031A00007F0BAFB3268A06D636D02FB00F003FB11
:1031B00000F000EB8000400009F098FD4E4909F056
:1031C0009DFE01232B60E36F3860012B474D7FF498
:1031D00041AF5248FEF740FC5149D5F86890D5F808
:1031E0006C8009F0D7FD09F0D7FF2A6F6B6FC9EB30
:1031F0000202C8EB030380B29A42C9EB00006CDD07
:1032000003FB0000531C90FBF3F303EB0800A26DDB
:10321000636D306002FB00F003FB00F000EB800008
:10322000400009F063FD3449DFF8C08009F066FE14
:10323000D4F880303860012B7FF413AF3748FEF7A5
:103240000BFC3749D8F86890D8F86C5009F0A2FD0B
:1032500009F0A2FFD8F87020D8F87430D4F8548060
:10326000C9EB02025B1B80B29A42C9EB0000C6BFE9
:1032700003FB00000132584390FBF2F02844A56D97
:1032800000FB05F008FB00F000EB8000400009F0B7
:103290002DFD194909F032FE81463860E7E6214BE1
:1032A0001B68012B4FF00A010CBF1F481F4807F095
:1032B00033FBEB6F06E703FB0000531C90FBF3F3BB
:1032C000334460E710211A4807F026FBE36FFCE661
:1032D0000721184807F020FBFAE603FB00F393FBF5
:1032E000F2F303EB080092E75893FF1F2494FF1FAB
:1032F0002887FF1F7493FF1FE4388E3E0000C842EA
:103300002C87FF1F402601006C93FF1FBC87FF1F07
:10331000D81B0100101C0100181C0100E495FF1FC0
:1033200000007A444087FF1FDC1B0100E81B0100FE
:10333000F41B0100081C010030B5112083B005F01A
:1033400067FD012818D0122005F062FD012813D076
:1033500000210B2005F056FD00210C2005F052FD48
:103360000021152005F04EFD2649274B01200022A3
:1033700008701A6003B030BD0121152005F042FD30
:10338000224A234C234B1268D4F8841001921B6804
:10339000019A1D4D0B4493424FF00201296005D95B
:1033A00001210C2005F02EFD03B030BDD4F88C00B7
:1033B00009F09CFC184B196809F08AFE0028EFD12F
:1033C00001210B2005F01EFD94F8C03003242C6071
:1033D00043B10C4B02221A7000210C2005F012FDA3
:1033E00003B030BD122005F013FD012808BF054BC6
:1033F0004FF0110008BF1C7005F00AFD0128EBD149
:10340000E7E700BF9C95FF1FD495FF1F14CEFF1F59
:103410002494FF1FE095FF1F6C93FF1FF0B5684ECB
:10342000684D34682B689C4287B039D014F0010194
:1034300055D014F0020149D014F004013DD0E30747
:103440000ED52B68DF070BD45F4F3A68002A00F0D7
:1034500082805E4B1B680193019B93426DD8346858
:10346000A0070DD52B6899070AD4594F3A68002A4E
:103470004CD0564B1B680393039B934238D8346857
:1034800062070DD52B685B070BD4524F3A68002AB0
:103490007ED04E4B1B680593059B934268D83468D9
:1034A0000CB107B0F0BD2146162005F02BFB2146DC
:1034B000172005F027FB07B0F0BD052005F022FB23
:1034C0002B68346803F0FB032B60B8E7172005F086
:1034D00019FB2B68346803F0FD032B60ACE7162062
:1034E00005F010FB2B68346803F0FE032B60A0E7A7
:1034F000394B1720D3F8881005F004FB2B6834688B
:1035000043F0020300222B603A60B9E7334804F02D
:103510005BFE0C21324807F0FFF9304804F054FEFE
:10352000FF21172005F0EEFA284B2E4A1968029168
:10353000029912680A443A609CE7274B1620D3F898
:10354000881005F0DFFA2B68346843F0010300228D
:103550002B603A6084E7FF21162005F0D3FA1B4B5D
:10356000204A19680091009912680A443A6071E78C
:10357000194B0520D3F8881005F0C4FA2B6834687D
:1035800043F0040300222B603A60002C89D18AE7C3
:10359000124804F019FE0C21134807F0BDF90F483A
:1035A00004F012FEFF21052005F0ACFA074B0D4A8E
:1035B00019680491049912680A443A606AE700BFE6
:1035C000D495FF1FE894FF1F6C95FF1F14CEFF1FBB
:1035D0007095FF1F7495FF1F2494FF1FBC87FF1F6A
:1035E0001C1C01005887FF1F2C1C01002DE9F0470F
:1035F000544EDFF87481DFF874913068524D002228
:103600000F2104F025F80023012222214F48C8F899
:103610000030C9F8002007F07FF9D8F80030132BEC
:1036200022DC40F6E44700213068B5F898A004F0A9
:1036300061F800210446306803F0E2FFA4B20121E2
:1036400007FB04F4B4FBF0F441485444A5F8984057
:1036500007F062F9642005F011FCD8F8003001335E
:10366000132BC8F80030DEDDB5F89830394A3A48F7
:10367000A2FB03129B1A02EB5303C3F30F13194669
:10368000A5F8983004F0F0FD1D21344807F044F906
:103690000221334807F040F92F4804F095FD00233C
:1036A0001A460E213068C8F8003003F0D1FF02231B
:1036B00022212648C9F8003007F02EF9D8F800304A
:1036C000132B22DC40F6E44700213068B5F89A90CD
:1036D00004F010F800210446306803F091FFA4B212
:1036E000012107FB04F4B4FBF0F419484C44A5F89D
:1036F0009A4007F011F9642005F0C0FBD8F80030BB
:103700000133132BC8F80030DEDDB5F89A30114ACA
:103710001148A2FB03129B1A02EB5303C3F30F13CE
:103720001946A5F89A3004F09FFD1D210D4807F0B9
:10373000F3F802210A4807F0EFF80748BDE8F04720
:1037400004F042BDAC95FF1F2494FF1F3C1C0100F8
:10375000801C010087611886BC87FF1F601C010068
:1037600040260100841C01009095FF1F4087FF1F29
:10377000F0B59C4C9C4D83B007F068F82368286036
:10378000042B00F0AC82022B4BD0082B00F092806F
:10379000072B40F05181332801F0F28300F3AD8014
:1037A000312801F00084322840F0B08007F08AF818
:1037B000002840F33F818D488D4E04F097FE09F0BC
:1037C00095FA8C4909F0E6FA61230122F063226040
:1037D0002B601846A0F152031F2B01F2AF83DFE8E4
:1037E00013F02E0BAD0BAD0BAD0BAD0BAD0BAD0B4D
:1037F000AD0BAD0BAD0BAD0BAD0BAD0BAD0BAD0B09
:10380000B203CB0C3905A7057304AD0BAD0BAD0BA3
:103810002604AD0BCE0CAD0BAD0BAD0BAD0BAD0B54
:10382000300BA0F13102422A70D8DFE812F0F00626
:10383000FC060A0717072A0739076F006F006F0099
:103840006F006F006F006F006F006F006F006F0000
:103850006F006F006F006F006F006F006F006F00F0
:103860006F006F006F006F006F006F006F006F00E0
:103870006F006F006F006F006F006F006F006F00D0
:103880006F006F006F006F006F006F006F006F00C0
:103890006F00DD066F006F006F006F006F006F003C
:1038A0006F006F006F006F006F006F006F006B00A4
:1038B0006F00E306322800F02F83712822D03128D0
:1038C00024D106F0FFFF002840F3CF854748484E3B
:1038D00004F00CFEC0B286F84000022894BF0146F6
:1038E0000021726C444888BF86F84010FEF736F815
:1038F00001236920236028606CE7342801F02E83BF
:10390000712803D10023732023602860002B08BF97
:1039100073280CBF01200020002860D0334804F039
:1039200053FC0421354806F0F7FF304804F04CFC06
:103930001021334806F0F0FF2C4804F045FC132119
:10394000304806F0E9FF304B2848196804F08CFC39
:10395000264804F039FC14212C4806F0DDFF2348EA
:1039600004F032FC1E212A4806F0D6FF1F4804F05E
:103970002BFC1521274806F0CFFF1C4804F024FC3F
:103980001E21254806F0C8FF184804F01DFC202120
:10399000224806F0C1FF154804F016FC1921204802
:1039A00006F0BAFF114804F00FFC12211D4806F082
:1039B000B3FF0E4804F008FC0F211B4806F0ACFFD3
:1039C0000A4804F001FC0D21184806F0A5FF07483D
:1039D00004F0FAFB164A002101231160236003B0B2
:1039E000F0BD00BF7893FF1F4092FF1FBC87FF1FF1
:1039F0002494FF1F6F12833AE495FF1FBC2401003B
:103A0000C4240100D82401002087FF1FEC240100FA
:103A100004250100242501003C2501005C2501004E
:103A2000802501009C250100B0250100C025010072
:103A30002C87FF1F23682868062B40F08D80A0F19B
:103A40003102402A3FF662AF01A151F822F000BFD7
:103A500075440000A1440000CD440000F344000080
:103A60001945000037450000D54500000D3900001C
:103A70000D3900000D3900000D3900000D3900002E
:103A80000D3900000D3900000D3900000D3900001E
:103A90000D3900000D3900000D3900000D3900000E
:103AA0000D3900000D3900000D3900000D390000FE
:103AB0000D3900000D3900000D3900000D390000EE
:103AC0000D3900000D3900000D3900000D390000DE
:103AD0000D3900000D3900000D3900000D390000CE
:103AE0000D3900000D3900000D3900000D390000BE
:103AF0000D3900000D3900000D3900000D390000AE
:103B00000D3900000D3900000D3900000D3900009D
:103B10000D3900000D3900000D3900000D3900008D
:103B20000D3900000D3900000D3900000D3900007D
:103B30000D3900000D3900000D3900000D3900006D
:103B40000D3900000D3900000D3900000D3900005D
:103B50000539000023682868052B15D1332801F0AA
:103B6000498240F34781352801F06B82C1F25382CC
:103B700071287FF4CBAEDC4A0023732013602360EE
:103B80002860C3E623682868032B40F0A480A0F1D6
:103B90003002422A3FF6BAAE01A151F822F000BF2E
:103BA000AD3C0000494D0000F74B00001F4C0000E9
:103BB000414C0000634C0000714D0000994D000025
:103BC000B74D0000DB4D00000D3900000D3900003D
:103BD0000D3900000D3900000D3900000D390000CD
:103BE0000D3900000D3900000D3900000D390000BD
:103BF0000D3900000D3900000D3900000D390000AD
:103C00000D3900000D3900000D3900000D3900009C
:103C10000D3900000D3900000D3900000D3900008C
:103C20000D3900000D3900000D3900000D3900007C
:103C30000D3900000D3900000D3900000D3900006C
:103C40000D3900000D3900000D3900000D3900005C
:103C50000D3900000D3900000D3900000D3900004C
:103C60000D3900008B4C0000A3470000034E0000FC
:103C7000214E0000EB4C0000094D000059470000A8
:103C80007D4700000D3900000D3900000D3900009E
:103C90000D3900000D3900000D3900000D3900000C
:103CA0000D390000A94C0000B54C000006F00AFEDA
:103CB000002841F34C818D488D4E04F017FC0127FC
:103CC0000346014662228B48736527602A60FDF730
:103CD00043FE23682868012B7FF418AE7AE5A0F133
:103CE0003102402A3FF612AE01A151F822F000BF86
:103CF000BB460000D3460000D7460000FD4600004A
:103D00003D4700000147000013470000174700002F
:103D10001B4700000D3900000D3900000D3900006F
:103D20000D3900000D3900000D3900000D3900007B
:103D30000D3900000D3900000D3900000D3900006B
:103D40000D3900000D3900000D3900000D3900005B
:103D50000D3900000D3900000D3900000D3900004B
:103D60000D3900000D3900000D3900000D3900003B
:103D70000D3900000D3900000D3900000D3900002B
:103D80000D3900000D3900000D3900000D3900001B
:103D90000D3900000D3900000D3900000D3900000B
:103DA0000D3900000D3900000D3900000D390000FB
:103DB0000D3900000D3900000D3900000D390000EB
:103DC0000D3900000D3900000D3900000D390000DB
:103DD0000D3900000D3900000D3900000D390000CB
:103DE0000D3900000D3900000D3900000D390000BB
:103DF00005390000312801F0EC8032287FF486ADCF
:103E000006F060FD00287FF7BDAE3848384E04F05C
:103E10006DFB01226B23C6F88C0022602B6001E051
:103E200006F014FD06F04EFD0028F9D12F4804F0ED
:103E3000CBF92E4804F0C8F92C4804F0C5F92B48FA
:103E400004F0C2F9294804F0BFF921212A4806F0FC
:103E500063FD264804F0B8F91521284806F05CFDFA
:103E6000D6F88410214804F0FFF90221244806F016
:103E700053FD1E4804F0A8F91E21224806F04CFD0F
:103E8000D6F88C10194804F0EFF903211E4806F00B
:103E900043FD164804F098F91E211C4806F03CFD2D
:103EA000D6F88810114804F0DFF9104804F08CF9B6
:103EB0001D21174806F030FDD6F8A4100B4804F079
:103EC000D3F90A4804F080F91E21124806F024FDB7
:103ED000D6F8A810054804F0C7F9044804F074F9AE
:103EE000052323607BE500BF8895FF1FBC87FF1F6C
:103EF0002494FF1FE495FF1F341F0100581F010089
:103F0000441E0100701F0100C41B0100901F01002E
:103F1000B01F0100D01F010006F0D4FC002840F3C0
:103F2000A082B248B24E04F0E1FA08F0DFFEB149D7
:103F300008F030FF0346024696F84010AE4873641E
:103F4000D4E406F083FC06F0BDFC05460028F8D159
:103F5000A648A74E04F038F9A44804F035F9A34860
:103F600004F032F9A14804F02FF9A04804F02CF92C
:103F70001F21A24806F0D0FC9C4804F025F91C2122
:103F80009F4806F0C9FC706A9E4908F003FF08F0DC
:103F900057FA009502460B46944804F06DF9022149
:103FA000994806F0B9FC914804F00EF9232197488E
:103FB00006F0B2FCF06B934908F0ECFE08F040FA12
:103FC000009502460B46894804F056F902218E48B6
:103FD00006F0A2FC854804F0F7F819218C4806F099
:103FE0009BFCB06B08F02CFA02250B4602460095AC
:103FF0007E4804F041F92946864806F08DFC7B484E
:1040000004F0E2F81921844806F086FCB6F8B810EE
:10401000764804F029F90321804806F07DFC7348B6
:1040200004F0D2F807232360D9E406F00FFC06F071
:1040300049FC05460028F8D16C486D4E04F0C4F8E0
:104040006A4804F0C1F8694804F0BEF8674804F013
:10405000BBF8664804F0B8F81521714806F05CFC1E
:10406000624804F0B1F818216E4806F055FC2B4662
:104070000A2296F840105D4804F0B6F85B4804F058
:10408000A3F82821684806F047FC706C5D4908F0E9
:1040900081FE08F0D5F900950B460246534804F01E
:1040A000EBF80221584806F037FC504804F08CF831
:1040B00013215E4806F030FC4C4804F085F80823D4
:1040C00023608CE406F0C2FB06F0FCFB05460028EA
:1040D000F8D14648464E04F077F8444804F074F8A6
:1040E000424804F071F8414804F06EF83F4804F08B
:1040F0006BF811214E4806F00FFC3C4804F064F8C0
:1041000028214C4806F008FC70693E4908F042FE40
:1041100008F096F9009502460B46344804F0ACF8D6
:104120000221394806F0F8FB304804F04DF816211A
:10413000414806F0F1FBF069324908F02BFE08F027
:104140007FF900950B460246284804F095F80221B5
:104150002D4806F0E1FB254804F036F8D6F8B030DB
:10416000002B32DD1D21354806F0D6FBF06D08F03E
:10417000BDFD334908F00EFE08F062F90225024643
:104180000B460095194804F077F801212D4806F0F8
:10419000C3FB164804F018F81F212B4806F0BCFB9F
:1041A000306E08F0A3FD264908F0F4FD08F048F948
:1041B000009502460B460D4804F05EF801212148A7
:1041C00006F0AAFB094803F0FFFF11211F4806F083
:1041D000A3FBD6F8B030052B00F26086DFE813F0C1
:1041E00095069A065A06A906A4069F06BC87FF1FD5
:1041F0002494FF1F6F12833AE495FF1F901E010065
:10420000B01E010000007A441C1D0100D01E0100F8
:10421000F41E0100101F0100141F0100301F0100D7
:1042200084250100D41C0100F01C0100201D0100A8
:1042300028250100341D0100601D0100781D0100CA
:10424000CDCCCC3D14220100981D0100B81D010009
:1042500006F0FCFA06F036FB0028F9D1BF48C04E44
:1042600003F0B2FFBD4803F0AFFFBC4803F0ACFF62
:10427000BA4803F0A9FFB94803F0A6FF1F21B948C7
:1042800006F04AFBB54803F09FFF1E21B64806F032
:1042900043FBB24803F098FF1A21B44806F03CFBF8
:1042A000F36F022B00F03787032B00F02B87012BD5
:1042B00000F03A870921AE4806F02EFBA74803F02C
:1042C00083FF1421AB48A64F06F026FBB16FA3482D
:1042D00003F0CAFFA14803F077FF1C21A64806F0AF
:1042E0001BFBD6F880109D4803F0BEFF9B4803F0EF
:1042F0006BFF1C21A14806F00FFBD6F8AC109748C5
:1043000003F0B2FF954803F05FFFF56F25F002055B
:10431000012D00F0B1861321994806F0FDFA8F486F
:1043200003F052FF02232360FFF759BB06F08EFA19
:1043300006F0C8FA0028F9D1884803F045FF8748FD
:1043400003F042FF854803F03FFF844803F03CFF41
:10435000824803F039FF13218A4806F0DDFA7F48CE
:1043600003F032FF0D21884806F0D6FA7B4803F0AF
:104370002BFF0F21854806F0CFFA854B7748196847
:1043800003F072FF754803F01FFF1321814806F008
:10439000C3FA814B7148196803F066FF6F4803F058
:1043A00013FF12217D4806F0B7FA7D4B6B48196860
:1043B00003F05AFF694803F007FF1121794806F01E
:1043C000ABFA794B6548196803F04EFF634803F078
:1043D000FBFE0E21754806F09FFA614B5F48D3F84B
:1043E000A01003F041FF5D4803F0EEFE1921704874
:1043F00006F092FA6F4B5948196803F035FF574899
:1044000003F0E2FE11216C4806F086FA6B4B53482C
:10441000196803F029FF514803F0D6FE10216848BF
:1044200006F07AFA674B4D48196803F01DFF4B48B8
:1044300003F0CAFE1C21644806F06EFA634B47483D
:10444000196803F011FF454803F0BEFE13214C48E4
:1044500006F062FA414803F0B7FE04232360FFF739
:10446000BEBA23682868FFF793B93D4E96F840001E
:10447000FFF733BA06F026FA00287FF76BAB374810
:10448000374E04F033F808F031FC514908F036FD9E
:1044900065230122706122602B601846FFF79AB9EC
:1044A00006F010FA00287FF755AB2C482C4E04F08C
:1044B0001DF808F01BFC464908F020FD6523012289
:1044C000F06122602B601846FFF784B906F0FAF914
:1044D00000287FF73FAB2148214E04F007F800EB9E
:1044E0008000430001226520F36522602860FFF709
:1044F00071B906F0E7F900287FF72CAB1748184E82
:1045000003F0F4FF00EB80004300012265203366D6
:1045100022602860FFF75EB9114AD2F8B03001334B
:10452000052BC8BF0023C2F8B030012365202360EB
:104530002860FFF74FB906F0C5F900287FF70AABEE
:104540000648074E03F0D2FF65230122C6F8B400E7
:1045500022602B601846FFF73DB900BFBC87FF1FE4
:104560002494FF1FD4200100F42001001421010035
:104570008C21010098210100B0210100D02101000F
:10458000201D0100F01F0100042001001420010083
:104590006895FF1F24200100D895FF1F38200100D7
:1045A000BC95FF1F4C200100C095FF1F602001003B
:1045B000702001008C95FF1F8C2001008895FF1F43
:1045C000A02001006893FF1FB42001004C87FF1F4B
:1045D00000007A447A4B93F8C020002A00F03F850F
:1045E000002283F8C020A0E7FFF700F823682868BE
:1045F000FFF7CBB8724AD36F0133032BC8BF002338
:10460000D3670123632023602860FFF7E3B86C4E73
:10461000B36FB3FA83F35B0901226320B3672260AF
:104620002860FFF7D7B8664ED6F88030B3FA83F328
:104630005B0901226320C6F8803022602860FFF702
:10464000C9B80123236006F03DF90028D9DD5D4893
:104650005B4E03F04BFFC6F8AC00D2E701232360AA
:1046600006F030F9002807DD5648554E03F03EFFAE
:1046700008F03CFBC6F89400632028602368FFF72D
:1046800087B80123236006F01DF90028F4DD4D48AA
:104690004B4E03F02BFF08F029FBC6F89000EBE728
:1046A0000123236006F00EF90028E5DD4548444E5D
:1046B00003F01CFFA6F8BA00DEE7434A1368B3FA1A
:1046C00083F35B0901216420136021602860FFF7F8
:1046D00081B83E4AF2E73E4A3E4F1368002B0CBFBA
:1046E000012300234FF001001360206040F0F484A8
:1046F000034664222A606420FFF747B8364ADDE7A4
:10470000012336482360FCF77DFF354A236810609B
:10471000EFE7344AD2E7344AD0E70123236006F0BA
:10472000D1F8002800F3A084304B1A68042AC4BFD3
:1047300002221A6064232B602368DCE7204ED6F83F
:10474000A030B3FA83F35B0901226420C6F8A030DD
:1047500022602860FFF73EB806F0B4F800280DDDAF
:104760001848174E03F0C2FE08F0C0FA204908F0BE
:10477000C5FB01226223306222602B6006F0A2F8A2
:1047800000280EDD0F480E4E03F0B0FE08F0AEFA22
:10479000174908F0B3FB01226223C6F8BC0022606F
:1047A0002B6006F08FF8002840F3D1830548044EB3
:1047B00003F09CFE01226223B06622602B601BE0A6
:1047C0002494FF1FBC87FF1F6895FF1FD895FF1F0C
:1047D000BC95FF1F7893FF1FC095FF1FE495FF1F37
:1047E0008C95FF1F8895FF1F6893FF1F4C87FF1F45
:1047F00000007A4406F02AF806F064F8054600281E
:10480000F8D1C24803F0E0FCC04803F0DDFCBF482B
:1048100003F0DAFCBD4803F0D7FCBC4803F0D4FC3D
:104820001521BB4806F078F8B84803F0CDFC1421F8
:10483000B84806F071F8B54803F0C6FC1B21B6482D
:1048400006F06AF8B14803F0BFFC1321B34806F044
:1048500063F8AE4803F0B8FCAC4803F0B5FCAB48D5
:1048600003F0B2FC2021AE4806F056F8F068AD49DE
:1048700008F090FA07F0E4FD009502460B46A348C5
:1048800003F0FAFC0221A84806F046F80221A748E6
:1048900006F042F89D4803F097FC2121A44806F059
:1048A0003BF830699F4908F075FA07F0C9FD00959B
:1048B00002460B46954803F0DFFC02219A4806F0B9
:1048C0002BF80221994806F027F8904803F07CFC69
:1048D0001F21984806F020F8B06A07F0B1FD0227C2
:1048E00002460B460097894803F0C6FC0121924816
:1048F00006F012F839468D4806F00EF8834803F0AA
:1049000063FC20218D4806F007F8F06A07F098FD57
:10491000009702460B467D4803F0AEFC0121864815
:1049200005F0FAFF3946814805F0F6FF774803F0B5
:104930004BFC2321824805F0EFFFB06C794908F069
:1049400029FA07F07DFD009502460B466F4803F0FB
:1049500093FC3946744805F0DFFF3946734805F08B
:10496000DBFF6A4803F030FC1F21764805F0D4FFD6
:10497000F06C6C4908F00EFA07F062FD00950246F3
:104980000B46624803F078FC3946674805F0C4FFDF
:104990003946664805F0C0FF5C4803F015FC192154
:1049A000694805F0B9FFB16D584803F05DFC394620
:1049B000664805F0B1FF39465C4805F0ADFF534845
:1049C00003F002FC1821624805F0A6FF706E08F0A3
:1049D0008DF9604908F0DEF907F032FD00970246D4
:1049E0000B464A4803F048FC01215B4805F094FF60
:1049F00039464E4805F090FF444803F0E5FB2B2173
:104A0000564805F089FFB069464908F0C3F907F038
:104A100017FD009502460B463C4803F02DFC394635
:104A2000414805F079FF3946404805F075FF3748A1
:104A300003F0CAFB1F214A4805F06EFF716D334831
:104A400003F012FC3946394805F066FF2F4803F0A1
:104A5000BBFB2021434805F05FFF316D2B4803F07D
:104A600003FC3946314805F057FF284803F0ACFBFA
:104A700010213D4805F050FFB16E244803F0F4FBCF
:104A80003946294805F048FF3946284805F044FFD3
:104A90001E4803F099FB1321344805F03DFFF16EE9
:104AA0001A4803F0E1FB0121314805F035FF394692
:104AB0001E4805F031FF154803F086FB10212D48F4
:104AC00005F02AFF316F114803F0CEFB3946164836
:104AD00005F022FF3946154805F01EFF0B4803F08C
:104AE00073FB1421244805F017FF716F074803F08A
:104AF000BBFB01211E4805F00FFF39460B4805F0AE
:104B00000BFF024803F060FB162137E0BC87FF1F54
:104B10005C220100742201008C220100201D010092
:104B2000A822010000007A441C1D0100402601005B
:104B3000CC220100F0220100E8180100102301003E
:104B4000342301005823010078230100942301003D
:104B500098230100CDCCCC3D14220100B4230100E8
:104B6000E023010000240100242401003824010076
:104B70004C2401005024010064240100BA4805F0CF
:104B8000CBFE306AB94908F005F907F059FC0095E9
:104B900002460B46B64803F06FFB3946B54805F0B0
:104BA000BBFE3946B44805F0B7FEB14803F00CFB34
:104BB0002421B24805F0B0FED6F8BC00AB4908F09D
:104BC000E9F807F03DFC00950B460246A84803F0C3
:104BD00053FB3946A74805F09FFE3946A64805F025
:104BE0009BFEA34803F0F0FAA14803F0EDFA03237B
:104BF0002360FEF7F4BE05F065FE002840F3A781B0
:104C00009B489F4E03F072FC08F070F8974908F03B
:104C100075F901226223306122602B60ECE505F01A
:104C200051FE002840F393819148954E03F05EFCBD
:104C300008F05CF801226223B06222602B60DBE5A1
:104C400005F040FE002840F3828189488C4E03F035
:104C50004DFC08F04BF801226223F06222602B60C9
:104C6000CAE505F02FFE002840F371818048844E8C
:104C700003F03CFC08F03AF87C4908F03FF90122C7
:104C80006223B06422602B60B6E505F01BFE0028AD
:104C900040F35D8176487A4E03F028FC01226223BE
:104CA000306522602B60A7E50022732322602B6011
:104CB000FEF734BE734B7048714E002202211A6019
:104CC00005F02AFE6A4803F07FFA0B216E4805F0D2
:104CD00023FE0221684805F01FFE654803F074FAC0
:104CE0000122622322602B6086E505F0EBFD00289F
:104CF00040F32D815E48624E03F0F8FB01226223EF
:104D0000706722602B6077E5FDF710F902215A48A1
:104D10005B4E05F001FE564803F056FA0221564854
:104D200005F0FAFD524803F04FFA0221524805F00F
:104D3000F3FD4F4803F048FA1721544805F0ECFD05
:104D40004B4803F041FAC4E705F0BCFD002840F3EE
:104D5000FE8047484A4E03F0C9FB07F0C7FF4349AE
:104D600008F0CCF801226223F06022602B6043E55A
:104D700005F0A8FD002840F3EA803D48404E03F0CE
:104D8000B5FB07F0B3FF394908F0B8F801226223F8
:104D9000F06422602B602FE505F094FD002840F3BD
:104DA000D6803348364E03F0A1FB01226223B06562
:104DB00022602B6020E505F085FD002840F3C780C8
:104DC0002B482F4E03F092FB00EB800043000121A3
:104DD0006222736621602A600EE505F073FD0028EB
:104DE00040F3B5802248264E03F080FB07F07EFF9B
:104DF0001E4908F083F801226223B06122602B6013
:104E0000FAE405F05FFD002840F3A18018481C4E2D
:104E100003F06CFB01226223F06622602B60EBE45E
:104E200005F050FD002840F392801148144E03F025
:104E30005DFB01226223306722602B60DCE404F01A
:104E4000D3FEC42200210E4803F044FC2868104A17
:104E5000A0F1730001210023B0FA80F04009116035
:104E60002360FEF759BD00BF7C24010000007A4496
:104E7000BC87FF1F1C1D0100402601009424010077
:104E80002494FF1F5893FF1FC81C0100B01C010091
:104E90002C87FF1F0C21BB4805F03EFDBA48BB4DD7
:104EA00003F092F9D6F8B030002B12DD1821B84883
:104EB00005F032FDD5F8B410B34803F0D5F902215E
:104EC000B44805F029FDB04803F07EF9AE4803F080
:104ED0007BF91B21B04805F01FFD96F8C030012B6F
:104EE00015BF12211421AD48AD4805F015FDA648A7
:104EF00003F06AF91321AB4805F00EFDA24803F058
:104F000063F906232360FEF76ABD0D21A64805F06C
:104F100003FDC3E70C21A54805F0FEFCBEE70B210D
:104F2000A34805F0F9FCB9E70D21A24805F0F4FC0F
:104F3000B4E70D21A04805F0EFFCAFE72368002B94
:104F400008BF73280CBF01200020FEF7E5BC2368D2
:104F50002868012B7EF4DAACFEF73CBC05F0B2FC0D
:104F600000287EF767AD8848884E03F0BFFA6123BA
:104F70000122A6F8B80022602B601846FEF72ABC72
:104F800005F0A0FC00287EF755AD7F487F4E03F06A
:104F9000ADFA07F0ABFE61230122B06322602B6003
:104FA0001846FEF717BC05F08DFC00287EF742ADD1
:104FB0007548764E03F09AFA07F098FE7F4907F09D
:104FC000E9FE61230122706222602B601846FEF721
:104FD00001BC05F077FC00287EF7D4AD6A486B4E23
:104FE00003F084FA01226B23C6F8840022602B6050
:104FF000FEF718BF05F066FC00287EF7C3AD6248D7
:10500000624E03F073FA01226B23C6F88800226017
:105010002B60FEF707BF05F055FC00287EF7B2AD08
:1050200059485A4E03F062FA654BC6F8A4000222B2
:105030001A60FDF7E5FA01226B2322602B60FEF770
:10504000F1BE05F03FFC00287EF79CAD4E484F4E68
:1050500003F04CFA5A4BC6F8A8000322E8E70122F5
:1050600083F8C020FFF761BA474803F03FFA554B79
:1050700002461860FFF75ABB1C21534805F04CFC50
:10508000D7F89400514907F085FE07F0D9F900954B
:1050900002460B463C4803F0EFF805214C4805F06A
:1050A0003BFC394803F090F8FD6F012D45D0032DEE
:1050B0007FF431A91C21474805F02EFCB6F8BA1040
:1050C000314803F0D1F80321434805F025FC2E4870
:1050D00003F07AF8FFF71FB9404B002631460B204A
:1050E0001E6003F08FFE31460C2003F08BFE31462C
:1050F000142003F087FE3146152003F083FE3B6841
:10510000FFF7F7BA2021364805F006FC1E4803F0E9
:105110005BF8FFF7D6B81721324805F0FDFB1A48B7
:1051200003F052F8FFF7CDB81E212F4805F0F4FB2D
:10513000154803F049F8FFF7C4B81D212B4805F0C6
:10514000EBFBD7F89000214907F024FE07F078F92F
:1051500000950B4602460C4803F08EF805211C48CA
:1051600005F0DAFB084803F02FF8FB6F23F0020389
:10517000012B9FD0FFF7CFB8044EFFF73DBB034E86
:10518000FEF750BEEC1D0100BC87FF1F2494FF1FDB
:10519000281E0100441E0100481E0100641E01007B
:1051A000781E0100201D0100CC1D0100DC1D010046
:1051B0001C1E01000C1E0100FC1D01006F12833A31
:1051C0008895FF1F4C87FF1FF0210100CDCCCC3DFF
:1051D000102201003822010058220100D495FF1F3F
:1051E000502101007421010030210100182201002A
:1051F00038B5164C164A2368101D12F8011F90424C
:1052000041EA0323F9D12360124C03F100432360E8
:10521000114BDB6F022B11D0104B1B68012B00D000
:1052200038BD0F4802F0D0FF21680D4803F01CF88C
:1052300003210C48BDE8384005F06EBB20680A4DDC
:1052400007F054FD2860FDF745FCE5E7F494FF1FE7
:105250007F95FF1FA495FF1F2494FF1F6895FF1FD4
:10526000BC87FF1FD02501005C93FF1F30B5404C69
:10527000404883B0214601F005FF23683C2B5DD0F8
:105280006FF490729A183E2A09D83B4B38491A6835
:105290003A48012A18BF0022FCF7FCF9236803F4FE
:1052A0007F63B3F5B87F3FD0354B1B68012B01D02E
:1052B00003B030BD304B1B68012BF9D1314B324864
:1052C0001B6801930A220023019902F08DFF2268D6
:1052D000274B002ADB7944DB2C492D4808F038FDA8
:1052E0002B4808F06DFD0146294805F015FB25689F
:1052F0001F4B15F0804525D1DB798BB1631925490A
:105300001A7A234808F024FD214808F059FD014687
:105310001F4805F001FB0135E379EDB2AB42EDD852
:10532000194802F051FFC3E7134B11491A6813489B
:10533000012A18BF0022FCF78BF9B5E7FFF758FFE9
:1053400023689DE7144D124C0FCD0FC495E8030060
:1053500044F8040B204620F81419152105F0DCFA56
:10536000DEE70E490A4822F0604208F0F1FCB7E798
:105370007895FF1F50CCFF1F6895FF1FE495FF1F16
:105380002C87FF1F14CEFF1FBC87FF1FFC250100C9
:105390007C93FF1F2826010010260100D425010060
:1053A000A24B1B78052B00F0A1802DE9F04FA04CFB
:1053B000A04EA14D626EE36DA048326083B02B60B9
:1053C000FCF748FBE16A07F083FE08B100232B607D
:1053D0009A48FCF73DFBA16A07F098FE10B1002344
:1053E00033602B609548FCF791FAE16807F08EFE78
:1053F00008B100232B609148FCF788FAE16807F0B8
:1054000085FE08B100232B608C48894FFCF758FAC1
:10541000216907F05DFE00286ED0002333602B6801
:10542000854F002B53DD8548DFF80482FCF710FB25
:10543000216B07F04DFE002840F0C480804B7F4870
:105440001B687B4F012B00F0FD80FCF75FFAE169E0
:105450008046606907F094FB0146404607F056FE1F
:10546000002834D0286807F041FC82467348FCF7D6
:105470004DFAD7F814808346F969404607F080FB5F
:105480008146386E07F032FC0446F86D07F02EFCBA
:10549000214607F075FB49460746584607F070FB62
:1054A0000146384607F076FC49460746404607F075
:1054B00067FB0146384607F021FD214607F062FBF5
:1054C0000146504607F05CFB07F040FE2860336859
:1054D000584A002BAFBF2B682B6800211160002BAE
:1054E00001DA00232B6003B0BDE8F08F5149524A26
:1054F00000230B60136070475048FCF7E1F9B9696D
:1055000007F0E6FD002888D13368DFF82891002BEA
:1055100085DD4A48FCF79EFA796B07F0F7FD002815
:1055200040F0B3804548424FFCF7CAF9216907F0C3
:10553000EDFD002800F09F804048DFF8F480FCF784
:10554000BFF9D4F8BC100746A06907F01BFB014661
:10555000384607F0BDFD00283FF461AF306807F022
:10556000C5FB82463548FCF7ABF98346D8F85C00AA
:10557000D8F8187007F0BAFB39468146584607F04C
:10558000FFFA49468346002007F0FAFA01465846DA
:1055900007F000FCD8F8BC108346384607F0F2FA52
:1055A000394607F0EDFA0146584607F0A7FC494690
:1055B00007F0E8FA0146504607F0E2FA07F0C6FDA8
:1055C00030602CE7386807F091FB83461B48FCF7F6
:1055D0003FFA0190D8F85C00D8F82CA007F086FBC1
:1055E000019B81465146184607F0CAFA4946019088
:1055F000002007F0C5FA019B0146184607F0CAFBD8
:1056000051460190D8F8300007F0BAFA019B0146E4
:10561000184607F073FC494607F0B4FA01465846AD
:1056200007F0AEFA07F092FD386007E79C95FF1F80
:105630002494FF1FA895FF1F4492FF1FE495FF1FAE
:105640006493FF1FFCF762F9E1698046206A07F066
:1056500097FA0146404607F059FD00283FF437AF5E
:10566000286807F043FB82461E48FCF74FF9D7F83D
:105670002080834600E71B48FCF722F9B96907F050
:1056800045FD00287FF458AFC9E6D9F8000007F0BF
:105690002DFB82461348FCF7DDF90190786ED7F8B0
:1056A000348007F023FB019B83464146184607F0F0
:1056B00067FA0146584607F06DFB41468346B86AD3
:1056C00007F05EFA0146584607F018FC002107F083
:1056D00059FA0146504607F053FA07F037FDC9F86A
:1056E00000001FE7E495FF1F08B5274802F06CFD96
:1056F0000721264805F010F9112003F089FB062147
:10570000F8B1234805F008F9102003F081FB0621C9
:1057100000B3204805F000F9122003F079FB0621C0
:1057200008B31D4805F0F8F8132003F071FB0621BB
:1057300010BB1A4805F0F0F81348BDE8084002F025
:1057400043BD174805F0E8F8102003F061FB06217F
:105750000028DED1134805F0DFF8122003F058FBD3
:1057600006210028DDD1104805F0D6F8132003F0FB
:105770004FFB06210028DCD00C4805F0CDF802488C
:10578000BDE8084002F020BDBC87FF1F34260100A1
:105790003C2601004C2601005C2601007426010015
:1057A0004426010054260100642601006C260100F5
:1057B00010B5254C2368042B27DC01210B2003F0B6
:1057C00021FB01210C2003F01DFB0121142003F01B
:1057D00019FB0121152003F015FBFF21162003F012
:1057E00091F9FF21172003F08DF9FF21052003F027
:1057F00089F9FF21062003F085F9236801330A2B7C
:105800002360C4BF0023236010BD00210B2003F0E0
:10581000F9FA00210C2003F0F5FA0021142003F01E
:10582000F1FA0021152003F0EDFA0021162003F013
:1058300069F90021172003F065F90021052003F024
:1058400061F90021D6E700BFDC95FF1F10B50921E3
:1058500082B0974803F0F2FD222003F097FD954BAC
:105860001B78052B0BD8DFE813F00A010F01140198
:1058700019011E01060007218F4803F0DFFD2220D9
:1058800003F084FDFF2003F081FDFF2003F07EFD87
:105890008A4CFF2003F07AFD0821894803F0CEFDF1
:1058A0002168884802F0E0FCFF2003F06FFDFF2034
:1058B00003F06CFDFF2003F069FD0921824803F02D
:1058C000BDFD21687F4802F0CFFCFF2003F05EFDA4
:1058D000FF2003F05BFDFF2003F058FD0C217B4807
:1058E00003F0ACFD7A4B1C680021204607F00EFC4B
:1058F000002800F0C1802046764907F0FFFA06F044
:105900009FFD002402460B4600946E4802F0B4FC52
:10591000FF2003F03BFDFF2003F038FDFF2003F0E4
:1059200035FD09216C4803F089FD6C48FCF734F81B
:1059300006F086FD009402460B46624802F09CFC8D
:10594000FF2003F023FDFF2003F020FDFF2003F0E4
:105950001DFD0C21624803F071FD6048FCF77AF8E8
:1059600006F06EFD009402460B46564802F084FC99
:10597000FF2003F00BFDFF2003F008FDFF2003F0E4
:1059800005FD0D21574803F059FD5448FCF760F818
:1059900006F056FD009402460B464A4802F06CFCA5
:1059A000FF2003F0F3FCFF2003F0F0FCFF2003F0E6
:1059B000EDFC09214C4803F041FD4848FBF7CAFFC4
:1059C00006F03EFD009402460B463E4802F054FCB1
:1059D000FF2003F0DBFCFF2003F0D8FCFF2003F0E6
:1059E000D5FC0C21414803F029FD3C48FBF768FF3A
:1059F000384907F0CFF906F023FD009402460B4624
:105A0000304802F039FCFF2003F0C0FCFF2003F017
:105A1000BDFCFF2003F0BAFC0D21354803F00EFD5C
:105A20002E48FBF773FF2B4907F0B4F906F008FD89
:105A3000009402460B46234802F01EFCFF2003F0B0
:105A4000A5FCFF2003F0A2FCFF2003F09FFC09212E
:105A5000284803F0F3FC284B1A48196802F004FCAC
:105A6000FF2003F093FCFF2003F090FCFF2002B026
:105A7000BDE8104003F08ABC04F100403CE7062179
:105A80001E4803F0DBFCFAE607211D4803F0D6FCB4
:105A9000F5E607211B4803F0D1FCF0E608211A487F
:105AA00003F0CCFCEBE60B21184803F0C7FCE6E65C
:105AB0007C2601009C95FF1F481B01002887FF1FC3
:105AC00088260100A087FF1F94260100A026010060
:105AD0006C93FF1F00007A44B0260100E495FF1F7D
